{
	"StakingToken.sol": {
		"StakingToken": {
			"abi": [
				{
					"inputs": [],
					"stateMutability": "nonpayable",
					"type": "constructor"
				},
				{
					"anonymous": false,
					"inputs": [
						{
							"indexed": true,
							"internalType": "address",
							"name": "manager",
							"type": "address"
						}
					],
					"name": "ManagerAdded",
					"type": "event"
				},
				{
					"anonymous": false,
					"inputs": [
						{
							"indexed": true,
							"internalType": "address",
							"name": "manager",
							"type": "address"
						}
					],
					"name": "ManagerRemoved",
					"type": "event"
				},
				{
					"anonymous": false,
					"inputs": [
						{
							"indexed": true,
							"internalType": "address",
							"name": "previousOwner",
							"type": "address"
						},
						{
							"indexed": true,
							"internalType": "address",
							"name": "newOwner",
							"type": "address"
						}
					],
					"name": "OwnershipTransferred",
					"type": "event"
				},
				{
					"anonymous": false,
					"inputs": [
						{
							"indexed": false,
							"internalType": "uint256",
							"name": "newRewardRate",
							"type": "uint256"
						}
					],
					"name": "RewardRateUpdated",
					"type": "event"
				},
				{
					"anonymous": false,
					"inputs": [
						{
							"indexed": true,
							"internalType": "address",
							"name": "user",
							"type": "address"
						},
						{
							"indexed": true,
							"internalType": "uint256",
							"name": "amount",
							"type": "uint256"
						}
					],
					"name": "RewardsClaimed",
					"type": "event"
				},
				{
					"anonymous": false,
					"inputs": [
						{
							"indexed": true,
							"internalType": "address",
							"name": "user",
							"type": "address"
						},
						{
							"indexed": true,
							"internalType": "address",
							"name": "addressToken",
							"type": "address"
						},
						{
							"indexed": true,
							"internalType": "uint256",
							"name": "amount",
							"type": "uint256"
						}
					],
					"name": "RewardsClaimed",
					"type": "event"
				},
				{
					"anonymous": false,
					"inputs": [
						{
							"indexed": true,
							"internalType": "address",
							"name": "user",
							"type": "address"
						},
						{
							"indexed": true,
							"internalType": "address",
							"name": "addressToken",
							"type": "address"
						},
						{
							"indexed": true,
							"internalType": "uint256",
							"name": "amount",
							"type": "uint256"
						}
					],
					"name": "Staked",
					"type": "event"
				},
				{
					"anonymous": false,
					"inputs": [
						{
							"indexed": true,
							"internalType": "address",
							"name": "addressToken",
							"type": "address"
						}
					],
					"name": "TokenAdded",
					"type": "event"
				},
				{
					"anonymous": false,
					"inputs": [
						{
							"indexed": true,
							"internalType": "address",
							"name": "addressToken",
							"type": "address"
						}
					],
					"name": "TokenRemoved",
					"type": "event"
				},
				{
					"anonymous": false,
					"inputs": [
						{
							"indexed": true,
							"internalType": "address",
							"name": "token",
							"type": "address"
						},
						{
							"indexed": true,
							"internalType": "address",
							"name": "to",
							"type": "address"
						},
						{
							"indexed": false,
							"internalType": "uint256",
							"name": "amount",
							"type": "uint256"
						}
					],
					"name": "TokensTransferred",
					"type": "event"
				},
				{
					"anonymous": false,
					"inputs": [
						{
							"indexed": true,
							"internalType": "address",
							"name": "user",
							"type": "address"
						},
						{
							"indexed": true,
							"internalType": "uint256",
							"name": "amount",
							"type": "uint256"
						}
					],
					"name": "Withdrawn",
					"type": "event"
				},
				{
					"anonymous": false,
					"inputs": [
						{
							"indexed": true,
							"internalType": "address",
							"name": "user",
							"type": "address"
						},
						{
							"indexed": true,
							"internalType": "address",
							"name": "addressToken",
							"type": "address"
						},
						{
							"indexed": true,
							"internalType": "uint256",
							"name": "amount",
							"type": "uint256"
						}
					],
					"name": "Withdrawn",
					"type": "event"
				},
				{
					"inputs": [],
					"name": "REWARD_RATE",
					"outputs": [
						{
							"internalType": "uint256",
							"name": "",
							"type": "uint256"
						}
					],
					"stateMutability": "view",
					"type": "function"
				},
				{
					"inputs": [
						{
							"internalType": "address",
							"name": "manager",
							"type": "address"
						}
					],
					"name": "addManager",
					"outputs": [],
					"stateMutability": "nonpayable",
					"type": "function"
				},
				{
					"inputs": [
						{
							"internalType": "address",
							"name": "token",
							"type": "address"
						},
						{
							"internalType": "string",
							"name": "tokenName",
							"type": "string"
						}
					],
					"name": "addTokenToWhiteList",
					"outputs": [],
					"stateMutability": "nonpayable",
					"type": "function"
				},
				{
					"inputs": [
						{
							"internalType": "address",
							"name": "token",
							"type": "address"
						},
						{
							"internalType": "address",
							"name": "account",
							"type": "address"
						}
					],
					"name": "earned",
					"outputs": [
						{
							"internalType": "uint256",
							"name": "",
							"type": "uint256"
						}
					],
					"stateMutability": "view",
					"type": "function"
				},
				{
					"inputs": [],
					"name": "getMyRole",
					"outputs": [
						{
							"internalType": "enum StakingToken.Role",
							"name": "",
							"type": "uint8"
						}
					],
					"stateMutability": "view",
					"type": "function"
				},
				{
					"inputs": [
						{
							"internalType": "address",
							"name": "token",
							"type": "address"
						}
					],
					"name": "getMyStakedBalance",
					"outputs": [
						{
							"internalType": "uint256",
							"name": "",
							"type": "uint256"
						}
					],
					"stateMutability": "view",
					"type": "function"
				},
				{
					"inputs": [
						{
							"internalType": "address",
							"name": "token",
							"type": "address"
						},
						{
							"internalType": "address",
							"name": "account",
							"type": "address"
						}
					],
					"name": "getMyTokens",
					"outputs": [
						{
							"internalType": "uint256",
							"name": "",
							"type": "uint256"
						}
					],
					"stateMutability": "view",
					"type": "function"
				},
				{
					"inputs": [
						{
							"internalType": "address",
							"name": "token",
							"type": "address"
						}
					],
					"name": "getReward",
					"outputs": [],
					"stateMutability": "nonpayable",
					"type": "function"
				},
				{
					"inputs": [
						{
							"internalType": "address",
							"name": "token",
							"type": "address"
						},
						{
							"internalType": "address",
							"name": "account",
							"type": "address"
						}
					],
					"name": "getStakedBalanceTokenByAccount",
					"outputs": [
						{
							"internalType": "uint256",
							"name": "",
							"type": "uint256"
						}
					],
					"stateMutability": "view",
					"type": "function"
				},
				{
					"inputs": [
						{
							"internalType": "address",
							"name": "",
							"type": "address"
						}
					],
					"name": "lastUpdateTime",
					"outputs": [
						{
							"internalType": "uint256",
							"name": "",
							"type": "uint256"
						}
					],
					"stateMutability": "view",
					"type": "function"
				},
				{
					"inputs": [
						{
							"internalType": "address",
							"name": "manager",
							"type": "address"
						}
					],
					"name": "removeManager",
					"outputs": [],
					"stateMutability": "nonpayable",
					"type": "function"
				},
				{
					"inputs": [
						{
							"internalType": "address",
							"name": "token",
							"type": "address"
						}
					],
					"name": "removeToken",
					"outputs": [],
					"stateMutability": "nonpayable",
					"type": "function"
				},
				{
					"inputs": [
						{
							"internalType": "address",
							"name": "token",
							"type": "address"
						}
					],
					"name": "rewardPerToken",
					"outputs": [
						{
							"internalType": "uint256",
							"name": "",
							"type": "uint256"
						}
					],
					"stateMutability": "view",
					"type": "function"
				},
				{
					"inputs": [
						{
							"internalType": "address",
							"name": "",
							"type": "address"
						}
					],
					"name": "rewardPerTokenStored",
					"outputs": [
						{
							"internalType": "uint256",
							"name": "",
							"type": "uint256"
						}
					],
					"stateMutability": "view",
					"type": "function"
				},
				{
					"inputs": [
						{
							"internalType": "address",
							"name": "",
							"type": "address"
						},
						{
							"internalType": "address",
							"name": "",
							"type": "address"
						}
					],
					"name": "rewards",
					"outputs": [
						{
							"internalType": "uint256",
							"name": "",
							"type": "uint256"
						}
					],
					"stateMutability": "view",
					"type": "function"
				},
				{
					"inputs": [
						{
							"internalType": "uint256",
							"name": "newRewardRate",
							"type": "uint256"
						}
					],
					"name": "setRewardRate",
					"outputs": [],
					"stateMutability": "nonpayable",
					"type": "function"
				},
				{
					"inputs": [
						{
							"internalType": "address",
							"name": "token",
							"type": "address"
						},
						{
							"internalType": "uint256",
							"name": "amount",
							"type": "uint256"
						}
					],
					"name": "stake",
					"outputs": [],
					"stateMutability": "nonpayable",
					"type": "function"
				},
				{
					"inputs": [
						{
							"internalType": "address",
							"name": "",
							"type": "address"
						},
						{
							"internalType": "address",
							"name": "",
							"type": "address"
						}
					],
					"name": "stakedBalance",
					"outputs": [
						{
							"internalType": "uint256",
							"name": "",
							"type": "uint256"
						}
					],
					"stateMutability": "view",
					"type": "function"
				},
				{
					"inputs": [
						{
							"internalType": "address",
							"name": "",
							"type": "address"
						}
					],
					"name": "totalStakedTokens",
					"outputs": [
						{
							"internalType": "uint256",
							"name": "",
							"type": "uint256"
						}
					],
					"stateMutability": "view",
					"type": "function"
				},
				{
					"inputs": [
						{
							"internalType": "address",
							"name": "token",
							"type": "address"
						},
						{
							"internalType": "address",
							"name": "to",
							"type": "address"
						},
						{
							"internalType": "uint256",
							"name": "amount",
							"type": "uint256"
						}
					],
					"name": "transferTokens",
					"outputs": [],
					"stateMutability": "nonpayable",
					"type": "function"
				},
				{
					"inputs": [
						{
							"internalType": "address",
							"name": "",
							"type": "address"
						},
						{
							"internalType": "address",
							"name": "",
							"type": "address"
						}
					],
					"name": "userRewardPerTokenPaid",
					"outputs": [
						{
							"internalType": "uint256",
							"name": "",
							"type": "uint256"
						}
					],
					"stateMutability": "view",
					"type": "function"
				},
				{
					"inputs": [
						{
							"internalType": "address",
							"name": "",
							"type": "address"
						}
					],
					"name": "whiteListTokens",
					"outputs": [
						{
							"internalType": "string",
							"name": "tokenName",
							"type": "string"
						},
						{
							"internalType": "bool",
							"name": "isActive",
							"type": "bool"
						}
					],
					"stateMutability": "view",
					"type": "function"
				},
				{
					"inputs": [
						{
							"internalType": "address",
							"name": "token",
							"type": "address"
						},
						{
							"internalType": "uint256",
							"name": "amount",
							"type": "uint256"
						}
					],
					"name": "withdrawStakedTokens",
					"outputs": [],
					"stateMutability": "nonpayable",
					"type": "function"
				}
			],
			"devdoc": {
				"kind": "dev",
				"methods": {},
				"version": 1
			},
			"evm": {
				"assembly": "    /* \"StakingToken.sol\":249:8336  contract StakingToken is ReentrancyGuard {... */\n  mstore(0x40, 0x80)\n    /* \"StakingToken.sol\":575:579  1e18 */\n  0x0de0b6b3a7640000\n    /* \"StakingToken.sol\":546:579  uint256 public REWARD_RATE = 1e18 */\n  0x02\n  sstore\n    /* \"StakingToken.sol\":1997:2100  constructor() {... */\n  callvalue\n  dup1\n  iszero\n  tag_1\n  jumpi\n  0x00\n  dup1\n  revert\ntag_1:\n  pop\n    /* \"@openzeppelin/contracts/security/ReentrancyGuard.sol\":1716:1717  1 */\n  0x01\n    /* \"@openzeppelin/contracts/security/ReentrancyGuard.sol\":1821:1828  _status */\n  0x00\n    /* \"@openzeppelin/contracts/security/ReentrancyGuard.sol\":1821:1843  _status = _NOT_ENTERED */\n  dup2\n  swap1\n  sstore\n  pop\n    /* \"StakingToken.sol\":2029:2039  msg.sender */\n  caller\n    /* \"StakingToken.sol\":2021:2026  owner */\n  0x01\n  0x00\n    /* \"StakingToken.sol\":2021:2039  owner = msg.sender */\n  0x0100\n  exp\n  dup2\n  sload\n  dup2\n  0xffffffffffffffffffffffffffffffffffffffff\n  mul\n  not\n  and\n  swap1\n  dup4\n  0xffffffffffffffffffffffffffffffffffffffff\n  and\n  mul\n  or\n  swap1\n  sstore\n  pop\n    /* \"StakingToken.sol\":2087:2092  owner */\n  0x01\n  0x00\n  swap1\n  sload\n  swap1\n  0x0100\n  exp\n  swap1\n  div\n  0xffffffffffffffffffffffffffffffffffffffff\n  and\n    /* \"StakingToken.sol\":2054:2093  OwnershipTransferred(address(0), owner) */\n  0xffffffffffffffffffffffffffffffffffffffff\n  and\n    /* \"StakingToken.sol\":2083:2084  0 */\n  0x00\n    /* \"StakingToken.sol\":2054:2093  OwnershipTransferred(address(0), owner) */\n  0xffffffffffffffffffffffffffffffffffffffff\n  and\n  0x8be0079c531659141344cd1fd0a4f28419497f9722a3daafe3b4186f6b6457e0\n  mload(0x40)\n  mload(0x40)\n  dup1\n  swap2\n  sub\n  swap1\n  log3\n    /* \"StakingToken.sol\":249:8336  contract StakingToken is ReentrancyGuard {... */\n  dataSize(sub_0)\n  dup1\n  dataOffset(sub_0)\n  0x00\n  codecopy\n  0x00\n  return\nstop\n\nsub_0: assembly {\n        /* \"StakingToken.sol\":249:8336  contract StakingToken is ReentrancyGuard {... */\n      mstore(0x40, 0x80)\n      callvalue\n      dup1\n      iszero\n      tag_1\n      jumpi\n      0x00\n      dup1\n      revert\n    tag_1:\n      pop\n      jumpi(tag_2, lt(calldatasize, 0x04))\n      shr(0xe0, calldataload(0x00))\n      dup1\n      0x9ce43f90\n      gt\n      tag_26\n      jumpi\n      dup1\n      0xb51d46ea\n      gt\n      tag_27\n      jumpi\n      dup1\n      0xb51d46ea\n      eq\n      tag_20\n      jumpi\n      dup1\n      0xbe23b21b\n      eq\n      tag_21\n      jumpi\n      dup1\n      0xc00007b0\n      eq\n      tag_22\n      jumpi\n      dup1\n      0xe6e8712d\n      eq\n      tag_23\n      jumpi\n      dup1\n      0xe70b9e27\n      eq\n      tag_24\n      jumpi\n      dup1\n      0xf1229777\n      eq\n      tag_25\n      jumpi\n      jump(tag_2)\n    tag_27:\n      dup1\n      0x9ce43f90\n      eq\n      tag_14\n      jumpi\n      dup1\n      0x9d4b0674\n      eq\n      tag_15\n      jumpi\n      dup1\n      0x9e447fc6\n      eq\n      tag_16\n      jumpi\n      dup1\n      0xa64b6e5f\n      eq\n      tag_17\n      jumpi\n      dup1\n      0xac18de43\n      eq\n      tag_18\n      jumpi\n      dup1\n      0xadc9772e\n      eq\n      tag_19\n      jumpi\n      jump(tag_2)\n    tag_26:\n      dup1\n      0x6e3b47fc\n      gt\n      tag_28\n      jumpi\n      dup1\n      0x6e3b47fc\n      eq\n      tag_8\n      jumpi\n      dup1\n      0x7035ab98\n      eq\n      tag_9\n      jumpi\n      dup1\n      0x8229084b\n      eq\n      tag_10\n      jumpi\n      dup1\n      0x82be4308\n      eq\n      tag_11\n      jumpi\n      dup1\n      0x87d9d670\n      eq\n      tag_12\n      jumpi\n      dup1\n      0x8f926830\n      eq\n      tag_13\n      jumpi\n      jump(tag_2)\n    tag_28:\n      dup1\n      0x211dc32d\n      eq\n      tag_3\n      jumpi\n      dup1\n      0x2ce9aead\n      eq\n      tag_4\n      jumpi\n      dup1\n      0x2d06177a\n      eq\n      tag_5\n      jumpi\n      dup1\n      0x5997bb37\n      eq\n      tag_6\n      jumpi\n      dup1\n      0x5fa7b584\n      eq\n      tag_7\n      jumpi\n    tag_2:\n      0x00\n      dup1\n      revert\n        /* \"StakingToken.sol\":4134:4623  function earned(address token, address account)... */\n    tag_3:\n      tag_29\n      0x04\n      dup1\n      calldatasize\n      sub\n      dup2\n      add\n      swap1\n      tag_30\n      swap2\n      swap1\n      tag_31\n      jump\t// in\n    tag_30:\n      tag_32\n      jump\t// in\n    tag_29:\n      mload(0x40)\n      tag_33\n      swap2\n      swap1\n      tag_34\n      jump\t// in\n    tag_33:\n      mload(0x40)\n      dup1\n      swap2\n      sub\n      swap1\n      return\n        /* \"StakingToken.sol\":989:1038  mapping(address => uint256) public lastUpdateTime */\n    tag_4:\n      tag_35\n      0x04\n      dup1\n      calldatasize\n      sub\n      dup2\n      add\n      swap1\n      tag_36\n      swap2\n      swap1\n      tag_37\n      jump\t// in\n    tag_36:\n      tag_38\n      jump\t// in\n    tag_35:\n      mload(0x40)\n      tag_39\n      swap2\n      swap1\n      tag_34\n      jump\t// in\n    tag_39:\n      mload(0x40)\n      dup1\n      swap2\n      sub\n      swap1\n      return\n        /* \"StakingToken.sol\":3194:3391  function addManager(address manager) external onlyManager {... */\n    tag_5:\n      tag_40\n      0x04\n      dup1\n      calldatasize\n      sub\n      dup2\n      add\n      swap1\n      tag_41\n      swap2\n      swap1\n      tag_37\n      jump\t// in\n    tag_41:\n      tag_42\n      jump\t// in\n    tag_40:\n      stop\n        /* \"StakingToken.sol\":546:579  uint256 public REWARD_RATE = 1e18 */\n    tag_6:\n      tag_43\n      tag_44\n      jump\t// in\n    tag_43:\n      mload(0x40)\n      tag_45\n      swap2\n      swap1\n      tag_34\n      jump\t// in\n    tag_45:\n      mload(0x40)\n      dup1\n      swap2\n      sub\n      swap1\n      return\n        /* \"StakingToken.sol\":2971:3188  function removeToken(address token) external onlyManager {... */\n    tag_7:\n      tag_46\n      0x04\n      dup1\n      calldatasize\n      sub\n      dup2\n      add\n      swap1\n      tag_47\n      swap2\n      swap1\n      tag_37\n      jump\t// in\n    tag_47:\n      tag_48\n      jump\t// in\n    tag_46:\n      stop\n        /* \"StakingToken.sol\":2174:2430  function getMyRole() external view returns (Role) {... */\n    tag_8:\n      tag_49\n      tag_50\n      jump\t// in\n    tag_49:\n      mload(0x40)\n      tag_51\n      swap2\n      swap1\n      tag_52\n      jump\t// in\n    tag_51:\n      mload(0x40)\n      dup1\n      swap2\n      sub\n      swap1\n      return\n        /* \"StakingToken.sol\":837:922  mapping(address => mapping(address => uint256))... */\n    tag_9:\n      tag_53\n      0x04\n      dup1\n      calldatasize\n      sub\n      dup2\n      add\n      swap1\n      tag_54\n      swap2\n      swap1\n      tag_31\n      jump\t// in\n    tag_54:\n      tag_55\n      jump\t// in\n    tag_53:\n      mload(0x40)\n      tag_56\n      swap2\n      swap1\n      tag_34\n      jump\t// in\n    tag_56:\n      mload(0x40)\n      dup1\n      swap2\n      sub\n      swap1\n      return\n        /* \"StakingToken.sol\":695:763  mapping(address => mapping(address => uint256)) public stakedBalance */\n    tag_10:\n      tag_57\n      0x04\n      dup1\n      calldatasize\n      sub\n      dup2\n      add\n      swap1\n      tag_58\n      swap2\n      swap1\n      tag_31\n      jump\t// in\n    tag_58:\n      tag_59\n      jump\t// in\n    tag_57:\n      mload(0x40)\n      tag_60\n      swap2\n      swap1\n      tag_34\n      jump\t// in\n    tag_60:\n      mload(0x40)\n      dup1\n      swap2\n      sub\n      swap1\n      return\n        /* \"StakingToken.sol\":8130:8334  function getMyStakedBalance(address token) external view returns (uint256) {... */\n    tag_11:\n      tag_61\n      0x04\n      dup1\n      calldatasize\n      sub\n      dup2\n      add\n      swap1\n      tag_62\n      swap2\n      swap1\n      tag_37\n      jump\t// in\n    tag_62:\n      tag_63\n      jump\t// in\n    tag_61:\n      mload(0x40)\n      tag_64\n      swap2\n      swap1\n      tag_34\n      jump\t// in\n    tag_64:\n      mload(0x40)\n      dup1\n      swap2\n      sub\n      swap1\n      return\n        /* \"StakingToken.sol\":7865:8124  function getMyTokens(address token, address account)... */\n    tag_12:\n      tag_65\n      0x04\n      dup1\n      calldatasize\n      sub\n      dup2\n      add\n      swap1\n      tag_66\n      swap2\n      swap1\n      tag_31\n      jump\t// in\n    tag_66:\n      tag_67\n      jump\t// in\n    tag_65:\n      mload(0x40)\n      tag_68\n      swap2\n      swap1\n      tag_34\n      jump\t// in\n    tag_68:\n      mload(0x40)\n      dup1\n      swap2\n      sub\n      swap1\n      return\n        /* \"StakingToken.sol\":7581:7859  function getStakedBalanceTokenByAccount(address token, address account)... */\n    tag_13:\n      tag_69\n      0x04\n      dup1\n      calldatasize\n      sub\n      dup2\n      add\n      swap1\n      tag_70\n      swap2\n      swap1\n      tag_31\n      jump\t// in\n    tag_70:\n      tag_71\n      jump\t// in\n    tag_69:\n      mload(0x40)\n      tag_72\n      swap2\n      swap1\n      tag_34\n      jump\t// in\n    tag_72:\n      mload(0x40)\n      dup1\n      swap2\n      sub\n      swap1\n      return\n        /* \"StakingToken.sol\":928:983  mapping(address => uint256) public rewardPerTokenStored */\n    tag_14:\n      tag_73\n      0x04\n      dup1\n      calldatasize\n      sub\n      dup2\n      add\n      swap1\n      tag_74\n      swap2\n      swap1\n      tag_37\n      jump\t// in\n    tag_74:\n      tag_75\n      jump\t// in\n    tag_73:\n      mload(0x40)\n      tag_76\n      swap2\n      swap1\n      tag_34\n      jump\t// in\n    tag_76:\n      mload(0x40)\n      dup1\n      swap2\n      sub\n      swap1\n      return\n        /* \"StakingToken.sol\":5878:6636  function withdrawStakedTokens(address token, uint256 amount)... */\n    tag_15:\n      tag_77\n      0x04\n      dup1\n      calldatasize\n      sub\n      dup2\n      add\n      swap1\n      tag_78\n      swap2\n      swap1\n      tag_79\n      jump\t// in\n    tag_78:\n      tag_80\n      jump\t// in\n    tag_77:\n      stop\n        /* \"StakingToken.sol\":5714:5872  function setRewardRate(uint256 newRewardRate) external onlyManager {... */\n    tag_16:\n      tag_81\n      0x04\n      dup1\n      calldatasize\n      sub\n      dup2\n      add\n      swap1\n      tag_82\n      swap2\n      swap1\n      tag_83\n      jump\t// in\n    tag_82:\n      tag_84\n      jump\t// in\n    tag_81:\n      stop\n        /* \"StakingToken.sol\":7157:7575  function transferTokens(... */\n    tag_17:\n      tag_85\n      0x04\n      dup1\n      calldatasize\n      sub\n      dup2\n      add\n      swap1\n      tag_86\n      swap2\n      swap1\n      tag_87\n      jump\t// in\n    tag_86:\n      tag_88\n      jump\t// in\n    tag_85:\n      stop\n        /* \"StakingToken.sol\":3397:3595  function removeManager(address manager) external onlyManager {... */\n    tag_18:\n      tag_89\n      0x04\n      dup1\n      calldatasize\n      sub\n      dup2\n      add\n      swap1\n      tag_90\n      swap2\n      swap1\n      tag_37\n      jump\t// in\n    tag_90:\n      tag_91\n      jump\t// in\n    tag_89:\n      stop\n        /* \"StakingToken.sol\":5026:5708  function stake(address token, uint256 amount)... */\n    tag_19:\n      tag_92\n      0x04\n      dup1\n      calldatasize\n      sub\n      dup2\n      add\n      swap1\n      tag_93\n      swap2\n      swap1\n      tag_79\n      jump\t// in\n    tag_93:\n      tag_94\n      jump\t// in\n    tag_92:\n      stop\n        /* \"StakingToken.sol\":2681:2965  function addTokenToWhiteList(address token, string calldata tokenName)... */\n    tag_20:\n      tag_95\n      0x04\n      dup1\n      calldatasize\n      sub\n      dup2\n      add\n      swap1\n      tag_96\n      swap2\n      swap1\n      tag_97\n      jump\t// in\n    tag_96:\n      tag_98\n      jump\t// in\n    tag_95:\n      stop\n        /* \"StakingToken.sol\":1044:1096  mapping(address => uint256) public totalStakedTokens */\n    tag_21:\n      tag_99\n      0x04\n      dup1\n      calldatasize\n      sub\n      dup2\n      add\n      swap1\n      tag_100\n      swap2\n      swap1\n      tag_37\n      jump\t// in\n    tag_100:\n      tag_101\n      jump\t// in\n    tag_99:\n      mload(0x40)\n      tag_102\n      swap2\n      swap1\n      tag_34\n      jump\t// in\n    tag_102:\n      mload(0x40)\n      dup1\n      swap2\n      sub\n      swap1\n      return\n        /* \"StakingToken.sol\":6642:7151  function getReward(address token)... */\n    tag_22:\n      tag_103\n      0x04\n      dup1\n      calldatasize\n      sub\n      dup2\n      add\n      swap1\n      tag_104\n      swap2\n      swap1\n      tag_37\n      jump\t// in\n    tag_104:\n      tag_105\n      jump\t// in\n    tag_103:\n      stop\n        /* \"StakingToken.sol\":637:689  mapping(address => TokenInfo) public whiteListTokens */\n    tag_23:\n      tag_106\n      0x04\n      dup1\n      calldatasize\n      sub\n      dup2\n      add\n      swap1\n      tag_107\n      swap2\n      swap1\n      tag_37\n      jump\t// in\n    tag_107:\n      tag_108\n      jump\t// in\n    tag_106:\n      mload(0x40)\n      tag_109\n      swap3\n      swap2\n      swap1\n      tag_110\n      jump\t// in\n    tag_109:\n      mload(0x40)\n      dup1\n      swap2\n      sub\n      swap1\n      return\n        /* \"StakingToken.sol\":769:831  mapping(address => mapping(address => uint256)) public rewards */\n    tag_24:\n      tag_111\n      0x04\n      dup1\n      calldatasize\n      sub\n      dup2\n      add\n      swap1\n      tag_112\n      swap2\n      swap1\n      tag_31\n      jump\t// in\n    tag_112:\n      tag_113\n      jump\t// in\n    tag_111:\n      mload(0x40)\n      tag_114\n      swap2\n      swap1\n      tag_34\n      jump\t// in\n    tag_114:\n      mload(0x40)\n      dup1\n      swap2\n      sub\n      swap1\n      return\n        /* \"StakingToken.sol\":3601:4128  function rewardPerToken(address token) public view returns (uint256) {... */\n    tag_25:\n      tag_115\n      0x04\n      dup1\n      calldatasize\n      sub\n      dup2\n      add\n      swap1\n      tag_116\n      swap2\n      swap1\n      tag_37\n      jump\t// in\n    tag_116:\n      tag_117\n      jump\t// in\n    tag_115:\n      mload(0x40)\n      tag_118\n      swap2\n      swap1\n      tag_34\n      jump\t// in\n    tag_118:\n      mload(0x40)\n      dup1\n      swap2\n      sub\n      swap1\n      return\n        /* \"StakingToken.sol\":4134:4623  function earned(address token, address account)... */\n    tag_32:\n        /* \"StakingToken.sol\":4227:4234  uint256 */\n      0x00\n        /* \"StakingToken.sol\":4258:4273  whiteListTokens */\n      0x03\n        /* \"StakingToken.sol\":4258:4280  whiteListTokens[token] */\n      0x00\n        /* \"StakingToken.sol\":4274:4279  token */\n      dup5\n        /* \"StakingToken.sol\":4258:4280  whiteListTokens[token] */\n      0xffffffffffffffffffffffffffffffffffffffff\n      and\n      0xffffffffffffffffffffffffffffffffffffffff\n      and\n      dup2\n      mstore\n      0x20\n      add\n      swap1\n      dup2\n      mstore\n      0x20\n      add\n      0x00\n      keccak256\n        /* \"StakingToken.sol\":4258:4289  whiteListTokens[token].isActive */\n      0x01\n      add\n      0x00\n      swap1\n      sload\n      swap1\n      0x0100\n      exp\n      swap1\n      div\n      0xff\n      and\n        /* \"StakingToken.sol\":4250:4313  require(whiteListTokens[token].isActive, \"Token is not active\") */\n      tag_120\n      jumpi\n      mload(0x40)\n      0x08c379a000000000000000000000000000000000000000000000000000000000\n      dup2\n      mstore\n      0x04\n      add\n      tag_121\n      swap1\n      tag_122\n      jump\t// in\n    tag_121:\n      mload(0x40)\n      dup1\n      swap2\n      sub\n      swap1\n      revert\n    tag_120:\n        /* \"StakingToken.sol\":4342:4616  stakedBalance[token][account]... */\n      tag_123\n        /* \"StakingToken.sol\":4592:4599  rewards */\n      0x05\n        /* \"StakingToken.sol\":4592:4606  rewards[token] */\n      0x00\n        /* \"StakingToken.sol\":4600:4605  token */\n      dup6\n        /* \"StakingToken.sol\":4592:4606  rewards[token] */\n      0xffffffffffffffffffffffffffffffffffffffff\n      and\n      0xffffffffffffffffffffffffffffffffffffffff\n      and\n      dup2\n      mstore\n      0x20\n      add\n      swap1\n      dup2\n      mstore\n      0x20\n      add\n      0x00\n      keccak256\n        /* \"StakingToken.sol\":4592:4615  rewards[token][account] */\n      0x00\n        /* \"StakingToken.sol\":4607:4614  account */\n      dup5\n        /* \"StakingToken.sol\":4592:4615  rewards[token][account] */\n      0xffffffffffffffffffffffffffffffffffffffff\n      and\n      0xffffffffffffffffffffffffffffffffffffffff\n      and\n      dup2\n      mstore\n      0x20\n      add\n      swap1\n      dup2\n      mstore\n      0x20\n      add\n      0x00\n      keccak256\n      sload\n        /* \"StakingToken.sol\":4342:4570  stakedBalance[token][account]... */\n      tag_124\n        /* \"StakingToken.sol\":4565:4569  1e18 */\n      0x0de0b6b3a7640000\n        /* \"StakingToken.sol\":4342:4543  stakedBalance[token][account]... */\n      tag_125\n        /* \"StakingToken.sol\":4414:4525  rewardPerToken(token).sub(... */\n      tag_126\n        /* \"StakingToken.sol\":4465:4487  userRewardPerTokenPaid */\n      0x06\n        /* \"StakingToken.sol\":4465:4494  userRewardPerTokenPaid[token] */\n      0x00\n        /* \"StakingToken.sol\":4488:4493  token */\n      dup11\n        /* \"StakingToken.sol\":4465:4494  userRewardPerTokenPaid[token] */\n      0xffffffffffffffffffffffffffffffffffffffff\n      and\n      0xffffffffffffffffffffffffffffffffffffffff\n      and\n      dup2\n      mstore\n      0x20\n      add\n      swap1\n      dup2\n      mstore\n      0x20\n      add\n      0x00\n      keccak256\n        /* \"StakingToken.sol\":4465:4503  userRewardPerTokenPaid[token][account] */\n      0x00\n        /* \"StakingToken.sol\":4495:4502  account */\n      dup10\n        /* \"StakingToken.sol\":4465:4503  userRewardPerTokenPaid[token][account] */\n      0xffffffffffffffffffffffffffffffffffffffff\n      and\n      0xffffffffffffffffffffffffffffffffffffffff\n      and\n      dup2\n      mstore\n      0x20\n      add\n      swap1\n      dup2\n      mstore\n      0x20\n      add\n      0x00\n      keccak256\n      sload\n        /* \"StakingToken.sol\":4414:4435  rewardPerToken(token) */\n      tag_127\n        /* \"StakingToken.sol\":4429:4434  token */\n      dup11\n        /* \"StakingToken.sol\":4414:4428  rewardPerToken */\n      tag_117\n        /* \"StakingToken.sol\":4414:4435  rewardPerToken(token) */\n      jump\t// in\n    tag_127:\n        /* \"StakingToken.sol\":4414:4439  rewardPerToken(token).sub */\n      tag_128\n      swap1\n        /* \"StakingToken.sol\":4414:4525  rewardPerToken(token).sub(... */\n      swap2\n      swap1\n      0xffffffff\n      and\n      jump\t// in\n    tag_126:\n        /* \"StakingToken.sol\":4342:4355  stakedBalance */\n      0x04\n        /* \"StakingToken.sol\":4342:4362  stakedBalance[token] */\n      0x00\n        /* \"StakingToken.sol\":4356:4361  token */\n      dup11\n        /* \"StakingToken.sol\":4342:4362  stakedBalance[token] */\n      0xffffffffffffffffffffffffffffffffffffffff\n      and\n      0xffffffffffffffffffffffffffffffffffffffff\n      and\n      dup2\n      mstore\n      0x20\n      add\n      swap1\n      dup2\n      mstore\n      0x20\n      add\n      0x00\n      keccak256\n        /* \"StakingToken.sol\":4342:4371  stakedBalance[token][account] */\n      0x00\n        /* \"StakingToken.sol\":4363:4370  account */\n      dup10\n        /* \"StakingToken.sol\":4342:4371  stakedBalance[token][account] */\n      0xffffffffffffffffffffffffffffffffffffffff\n      and\n      0xffffffffffffffffffffffffffffffffffffffff\n      and\n      dup2\n      mstore\n      0x20\n      add\n      swap1\n      dup2\n      mstore\n      0x20\n      add\n      0x00\n      keccak256\n      sload\n        /* \"StakingToken.sol\":4342:4392  stakedBalance[token][account]... */\n      tag_129\n      swap1\n        /* \"StakingToken.sol\":4342:4543  stakedBalance[token][account]... */\n      swap2\n      swap1\n      0xffffffff\n      and\n      jump\t// in\n    tag_125:\n        /* \"StakingToken.sol\":4342:4564  stakedBalance[token][account]... */\n      tag_130\n      swap1\n        /* \"StakingToken.sol\":4342:4570  stakedBalance[token][account]... */\n      swap2\n      swap1\n      0xffffffff\n      and\n      jump\t// in\n    tag_124:\n        /* \"StakingToken.sol\":4342:4591  stakedBalance[token][account]... */\n      tag_131\n      swap1\n        /* \"StakingToken.sol\":4342:4616  stakedBalance[token][account]... */\n      swap2\n      swap1\n      0xffffffff\n      and\n      jump\t// in\n    tag_123:\n        /* \"StakingToken.sol\":4323:4616  return... */\n      swap1\n      pop\n        /* \"StakingToken.sol\":4134:4623  function earned(address token, address account)... */\n      swap3\n      swap2\n      pop\n      pop\n      jump\t// out\n        /* \"StakingToken.sol\":989:1038  mapping(address => uint256) public lastUpdateTime */\n    tag_38:\n      mstore(0x20, 0x08)\n      dup1\n      0x00\n      mstore\n      keccak256(0x00, 0x40)\n      0x00\n      swap2\n      pop\n      swap1\n      pop\n      sload\n      dup2\n      jump\t// out\n        /* \"StakingToken.sol\":3194:3391  function addManager(address manager) external onlyManager {... */\n    tag_42:\n        /* \"StakingToken.sol\":2595:2603  managers */\n      0x0a\n        /* \"StakingToken.sol\":2595:2615  managers[msg.sender] */\n      0x00\n        /* \"StakingToken.sol\":2604:2614  msg.sender */\n      caller\n        /* \"StakingToken.sol\":2595:2615  managers[msg.sender] */\n      0xffffffffffffffffffffffffffffffffffffffff\n      and\n      0xffffffffffffffffffffffffffffffffffffffff\n      and\n      dup2\n      mstore\n      0x20\n      add\n      swap1\n      dup2\n      mstore\n      0x20\n      add\n      0x00\n      keccak256\n      0x00\n      swap1\n      sload\n      swap1\n      0x0100\n      exp\n      swap1\n      div\n      0xff\n      and\n        /* \"StakingToken.sol\":2595:2638  managers[msg.sender] || owner == msg.sender */\n      dup1\n      tag_133\n      jumpi\n      pop\n        /* \"StakingToken.sol\":2628:2638  msg.sender */\n      caller\n        /* \"StakingToken.sol\":2619:2638  owner == msg.sender */\n      0xffffffffffffffffffffffffffffffffffffffff\n      and\n        /* \"StakingToken.sol\":2619:2624  owner */\n      0x01\n      0x00\n      swap1\n      sload\n      swap1\n      0x0100\n      exp\n      swap1\n      div\n      0xffffffffffffffffffffffffffffffffffffffff\n      and\n        /* \"StakingToken.sol\":2619:2638  owner == msg.sender */\n      0xffffffffffffffffffffffffffffffffffffffff\n      and\n      eq\n        /* \"StakingToken.sol\":2595:2638  managers[msg.sender] || owner == msg.sender */\n    tag_133:\n        /* \"StakingToken.sol\":2587:2657  require(managers[msg.sender] || owner == msg.sender, \"Not authorized\") */\n      tag_134\n      jumpi\n      mload(0x40)\n      0x08c379a000000000000000000000000000000000000000000000000000000000\n      dup2\n      mstore\n      0x04\n      add\n      tag_135\n      swap1\n      tag_136\n      jump\t// in\n    tag_135:\n      mload(0x40)\n      dup1\n      swap2\n      sub\n      swap1\n      revert\n    tag_134:\n        /* \"StakingToken.sol\":3271:3279  managers */\n      0x0a\n        /* \"StakingToken.sol\":3271:3288  managers[manager] */\n      0x00\n        /* \"StakingToken.sol\":3280:3287  manager */\n      dup3\n        /* \"StakingToken.sol\":3271:3288  managers[manager] */\n      0xffffffffffffffffffffffffffffffffffffffff\n      and\n      0xffffffffffffffffffffffffffffffffffffffff\n      and\n      dup2\n      mstore\n      0x20\n      add\n      swap1\n      dup2\n      mstore\n      0x20\n      add\n      0x00\n      keccak256\n      0x00\n      swap1\n      sload\n      swap1\n      0x0100\n      exp\n      swap1\n      div\n      0xff\n      and\n        /* \"StakingToken.sol\":3270:3288  !managers[manager] */\n      iszero\n        /* \"StakingToken.sol\":3262:3314  require(!managers[manager], \"Manager already added\") */\n      tag_138\n      jumpi\n      mload(0x40)\n      0x08c379a000000000000000000000000000000000000000000000000000000000\n      dup2\n      mstore\n      0x04\n      add\n      tag_139\n      swap1\n      tag_140\n      jump\t// in\n    tag_139:\n      mload(0x40)\n      dup1\n      swap2\n      sub\n      swap1\n      revert\n    tag_138:\n        /* \"StakingToken.sol\":3344:3348  true */\n      0x01\n        /* \"StakingToken.sol\":3324:3332  managers */\n      0x0a\n        /* \"StakingToken.sol\":3324:3341  managers[manager] */\n      0x00\n        /* \"StakingToken.sol\":3333:3340  manager */\n      dup4\n        /* \"StakingToken.sol\":3324:3341  managers[manager] */\n      0xffffffffffffffffffffffffffffffffffffffff\n      and\n      0xffffffffffffffffffffffffffffffffffffffff\n      and\n      dup2\n      mstore\n      0x20\n      add\n      swap1\n      dup2\n      mstore\n      0x20\n      add\n      0x00\n      keccak256\n      0x00\n        /* \"StakingToken.sol\":3324:3348  managers[manager] = true */\n      0x0100\n      exp\n      dup2\n      sload\n      dup2\n      0xff\n      mul\n      not\n      and\n      swap1\n      dup4\n      iszero\n      iszero\n      mul\n      or\n      swap1\n      sstore\n      pop\n        /* \"StakingToken.sol\":3376:3383  manager */\n      dup1\n        /* \"StakingToken.sol\":3363:3384  ManagerAdded(manager) */\n      0xffffffffffffffffffffffffffffffffffffffff\n      and\n      0x3b4a40cccf2058c593542587329dd385be4f0b588db5471fbd9598e56dd7093a\n      mload(0x40)\n      mload(0x40)\n      dup1\n      swap2\n      sub\n      swap1\n      log2\n        /* \"StakingToken.sol\":3194:3391  function addManager(address manager) external onlyManager {... */\n      pop\n      jump\t// out\n        /* \"StakingToken.sol\":546:579  uint256 public REWARD_RATE = 1e18 */\n    tag_44:\n      sload(0x02)\n      dup2\n      jump\t// out\n        /* \"StakingToken.sol\":2971:3188  function removeToken(address token) external onlyManager {... */\n    tag_48:\n        /* \"StakingToken.sol\":2595:2603  managers */\n      0x0a\n        /* \"StakingToken.sol\":2595:2615  managers[msg.sender] */\n      0x00\n        /* \"StakingToken.sol\":2604:2614  msg.sender */\n      caller\n        /* \"StakingToken.sol\":2595:2615  managers[msg.sender] */\n      0xffffffffffffffffffffffffffffffffffffffff\n      and\n      0xffffffffffffffffffffffffffffffffffffffff\n      and\n      dup2\n      mstore\n      0x20\n      add\n      swap1\n      dup2\n      mstore\n      0x20\n      add\n      0x00\n      keccak256\n      0x00\n      swap1\n      sload\n      swap1\n      0x0100\n      exp\n      swap1\n      div\n      0xff\n      and\n        /* \"StakingToken.sol\":2595:2638  managers[msg.sender] || owner == msg.sender */\n      dup1\n      tag_142\n      jumpi\n      pop\n        /* \"StakingToken.sol\":2628:2638  msg.sender */\n      caller\n        /* \"StakingToken.sol\":2619:2638  owner == msg.sender */\n      0xffffffffffffffffffffffffffffffffffffffff\n      and\n        /* \"StakingToken.sol\":2619:2624  owner */\n      0x01\n      0x00\n      swap1\n      sload\n      swap1\n      0x0100\n      exp\n      swap1\n      div\n      0xffffffffffffffffffffffffffffffffffffffff\n      and\n        /* \"StakingToken.sol\":2619:2638  owner == msg.sender */\n      0xffffffffffffffffffffffffffffffffffffffff\n      and\n      eq\n        /* \"StakingToken.sol\":2595:2638  managers[msg.sender] || owner == msg.sender */\n    tag_142:\n        /* \"StakingToken.sol\":2587:2657  require(managers[msg.sender] || owner == msg.sender, \"Not authorized\") */\n      tag_143\n      jumpi\n      mload(0x40)\n      0x08c379a000000000000000000000000000000000000000000000000000000000\n      dup2\n      mstore\n      0x04\n      add\n      tag_144\n      swap1\n      tag_136\n      jump\t// in\n    tag_144:\n      mload(0x40)\n      dup1\n      swap2\n      sub\n      swap1\n      revert\n    tag_143:\n        /* \"StakingToken.sol\":3046:3061  whiteListTokens */\n      0x03\n        /* \"StakingToken.sol\":3046:3068  whiteListTokens[token] */\n      0x00\n        /* \"StakingToken.sol\":3062:3067  token */\n      dup3\n        /* \"StakingToken.sol\":3046:3068  whiteListTokens[token] */\n      0xffffffffffffffffffffffffffffffffffffffff\n      and\n      0xffffffffffffffffffffffffffffffffffffffff\n      and\n      dup2\n      mstore\n      0x20\n      add\n      swap1\n      dup2\n      mstore\n      0x20\n      add\n      0x00\n      keccak256\n        /* \"StakingToken.sol\":3046:3077  whiteListTokens[token].isActive */\n      0x01\n      add\n      0x00\n      swap1\n      sload\n      swap1\n      0x0100\n      exp\n      swap1\n      div\n      0xff\n      and\n        /* \"StakingToken.sol\":3038:3098  require(whiteListTokens[token].isActive, \"Token not active\") */\n      tag_146\n      jumpi\n      mload(0x40)\n      0x08c379a000000000000000000000000000000000000000000000000000000000\n      dup2\n      mstore\n      0x04\n      add\n      tag_147\n      swap1\n      tag_148\n      jump\t// in\n    tag_147:\n      mload(0x40)\n      dup1\n      swap2\n      sub\n      swap1\n      revert\n    tag_146:\n        /* \"StakingToken.sol\":3142:3147  false */\n      0x00\n        /* \"StakingToken.sol\":3108:3123  whiteListTokens */\n      0x03\n        /* \"StakingToken.sol\":3108:3130  whiteListTokens[token] */\n      0x00\n        /* \"StakingToken.sol\":3124:3129  token */\n      dup4\n        /* \"StakingToken.sol\":3108:3130  whiteListTokens[token] */\n      0xffffffffffffffffffffffffffffffffffffffff\n      and\n      0xffffffffffffffffffffffffffffffffffffffff\n      and\n      dup2\n      mstore\n      0x20\n      add\n      swap1\n      dup2\n      mstore\n      0x20\n      add\n      0x00\n      keccak256\n        /* \"StakingToken.sol\":3108:3139  whiteListTokens[token].isActive */\n      0x01\n      add\n      0x00\n        /* \"StakingToken.sol\":3108:3147  whiteListTokens[token].isActive = false */\n      0x0100\n      exp\n      dup2\n      sload\n      dup2\n      0xff\n      mul\n      not\n      and\n      swap1\n      dup4\n      iszero\n      iszero\n      mul\n      or\n      swap1\n      sstore\n      pop\n        /* \"StakingToken.sol\":3175:3180  token */\n      dup1\n        /* \"StakingToken.sol\":3162:3181  TokenRemoved(token) */\n      0xffffffffffffffffffffffffffffffffffffffff\n      and\n      0x4c910b69fe65a61f7531b9c5042b2329ca7179c77290aa7e2eb3afa3c8511fd3\n      mload(0x40)\n      mload(0x40)\n      dup1\n      swap2\n      sub\n      swap1\n      log2\n        /* \"StakingToken.sol\":2971:3188  function removeToken(address token) external onlyManager {... */\n      pop\n      jump\t// out\n        /* \"StakingToken.sol\":2174:2430  function getMyRole() external view returns (Role) {... */\n    tag_50:\n        /* \"StakingToken.sol\":2218:2222  Role */\n      0x00\n        /* \"StakingToken.sol\":2252:2257  owner */\n      0x01\n      0x00\n      swap1\n      sload\n      swap1\n      0x0100\n      exp\n      swap1\n      div\n      0xffffffffffffffffffffffffffffffffffffffff\n      and\n        /* \"StakingToken.sol\":2238:2257  msg.sender == owner */\n      0xffffffffffffffffffffffffffffffffffffffff\n      and\n        /* \"StakingToken.sol\":2238:2248  msg.sender */\n      caller\n        /* \"StakingToken.sol\":2238:2257  msg.sender == owner */\n      0xffffffffffffffffffffffffffffffffffffffff\n      and\n      sub\n        /* \"StakingToken.sol\":2234:2424  if (msg.sender == owner) {... */\n      tag_150\n      jumpi\n        /* \"StakingToken.sol\":2280:2290  Role.Owner */\n      0x01\n        /* \"StakingToken.sol\":2273:2290  return Role.Owner */\n      swap1\n      pop\n      jump(tag_149)\n        /* \"StakingToken.sol\":2234:2424  if (msg.sender == owner) {... */\n    tag_150:\n        /* \"StakingToken.sol\":2311:2319  managers */\n      0x0a\n        /* \"StakingToken.sol\":2311:2331  managers[msg.sender] */\n      0x00\n        /* \"StakingToken.sol\":2320:2330  msg.sender */\n      caller\n        /* \"StakingToken.sol\":2311:2331  managers[msg.sender] */\n      0xffffffffffffffffffffffffffffffffffffffff\n      and\n      0xffffffffffffffffffffffffffffffffffffffff\n      and\n      dup2\n      mstore\n      0x20\n      add\n      swap1\n      dup2\n      mstore\n      0x20\n      add\n      0x00\n      keccak256\n      0x00\n      swap1\n      sload\n      swap1\n      0x0100\n      exp\n      swap1\n      div\n      0xff\n      and\n        /* \"StakingToken.sol\":2307:2424  if (managers[msg.sender]) {... */\n      iszero\n      tag_152\n      jumpi\n        /* \"StakingToken.sol\":2354:2366  Role.Manager */\n      0x02\n        /* \"StakingToken.sol\":2347:2366  return Role.Manager */\n      swap1\n      pop\n      jump(tag_149)\n        /* \"StakingToken.sol\":2307:2424  if (managers[msg.sender]) {... */\n    tag_152:\n        /* \"StakingToken.sol\":2404:2413  Role.None */\n      0x00\n        /* \"StakingToken.sol\":2397:2413  return Role.None */\n      swap1\n      pop\n        /* \"StakingToken.sol\":2174:2430  function getMyRole() external view returns (Role) {... */\n    tag_149:\n      swap1\n      jump\t// out\n        /* \"StakingToken.sol\":837:922  mapping(address => mapping(address => uint256))... */\n    tag_55:\n      mstore(0x20, 0x06)\n      dup2\n      0x00\n      mstore\n      mstore(0x20, keccak256(0x00, 0x40))\n      dup1\n      0x00\n      mstore\n      keccak256(0x00, 0x40)\n      0x00\n      swap2\n      pop\n      swap2\n      pop\n      pop\n      sload\n      dup2\n      jump\t// out\n        /* \"StakingToken.sol\":695:763  mapping(address => mapping(address => uint256)) public stakedBalance */\n    tag_59:\n      mstore(0x20, 0x04)\n      dup2\n      0x00\n      mstore\n      mstore(0x20, keccak256(0x00, 0x40))\n      dup1\n      0x00\n      mstore\n      keccak256(0x00, 0x40)\n      0x00\n      swap2\n      pop\n      swap2\n      pop\n      pop\n      sload\n      dup2\n      jump\t// out\n        /* \"StakingToken.sol\":8130:8334  function getMyStakedBalance(address token) external view returns (uint256) {... */\n    tag_63:\n        /* \"StakingToken.sol\":8196:8203  uint256 */\n      0x00\n        /* \"StakingToken.sol\":8223:8238  whiteListTokens */\n      0x03\n        /* \"StakingToken.sol\":8223:8245  whiteListTokens[token] */\n      0x00\n        /* \"StakingToken.sol\":8239:8244  token */\n      dup4\n        /* \"StakingToken.sol\":8223:8245  whiteListTokens[token] */\n      0xffffffffffffffffffffffffffffffffffffffff\n      and\n      0xffffffffffffffffffffffffffffffffffffffff\n      and\n      dup2\n      mstore\n      0x20\n      add\n      swap1\n      dup2\n      mstore\n      0x20\n      add\n      0x00\n      keccak256\n        /* \"StakingToken.sol\":8223:8254  whiteListTokens[token].isActive */\n      0x01\n      add\n      0x00\n      swap1\n      sload\n      swap1\n      0x0100\n      exp\n      swap1\n      div\n      0xff\n      and\n        /* \"StakingToken.sol\":8215:8278  require(whiteListTokens[token].isActive, \"Token is not active\") */\n      tag_155\n      jumpi\n      mload(0x40)\n      0x08c379a000000000000000000000000000000000000000000000000000000000\n      dup2\n      mstore\n      0x04\n      add\n      tag_156\n      swap1\n      tag_122\n      jump\t// in\n    tag_156:\n      mload(0x40)\n      dup1\n      swap2\n      sub\n      swap1\n      revert\n    tag_155:\n        /* \"StakingToken.sol\":8295:8308  stakedBalance */\n      0x04\n        /* \"StakingToken.sol\":8295:8315  stakedBalance[token] */\n      0x00\n        /* \"StakingToken.sol\":8309:8314  token */\n      dup4\n        /* \"StakingToken.sol\":8295:8315  stakedBalance[token] */\n      0xffffffffffffffffffffffffffffffffffffffff\n      and\n      0xffffffffffffffffffffffffffffffffffffffff\n      and\n      dup2\n      mstore\n      0x20\n      add\n      swap1\n      dup2\n      mstore\n      0x20\n      add\n      0x00\n      keccak256\n        /* \"StakingToken.sol\":8295:8327  stakedBalance[token][msg.sender] */\n      0x00\n        /* \"StakingToken.sol\":8316:8326  msg.sender */\n      caller\n        /* \"StakingToken.sol\":8295:8327  stakedBalance[token][msg.sender] */\n      0xffffffffffffffffffffffffffffffffffffffff\n      and\n      0xffffffffffffffffffffffffffffffffffffffff\n      and\n      dup2\n      mstore\n      0x20\n      add\n      swap1\n      dup2\n      mstore\n      0x20\n      add\n      0x00\n      keccak256\n      sload\n        /* \"StakingToken.sol\":8288:8327  return stakedBalance[token][msg.sender] */\n      swap1\n      pop\n        /* \"StakingToken.sol\":8130:8334  function getMyStakedBalance(address token) external view returns (uint256) {... */\n      swap2\n      swap1\n      pop\n      jump\t// out\n        /* \"StakingToken.sol\":7865:8124  function getMyTokens(address token, address account)... */\n    tag_67:\n        /* \"StakingToken.sol\":7985:7992  uint256 */\n      0x00\n        /* \"StakingToken.sol\":2595:2603  managers */\n      0x0a\n        /* \"StakingToken.sol\":2595:2615  managers[msg.sender] */\n      0x00\n        /* \"StakingToken.sol\":2604:2614  msg.sender */\n      caller\n        /* \"StakingToken.sol\":2595:2615  managers[msg.sender] */\n      0xffffffffffffffffffffffffffffffffffffffff\n      and\n      0xffffffffffffffffffffffffffffffffffffffff\n      and\n      dup2\n      mstore\n      0x20\n      add\n      swap1\n      dup2\n      mstore\n      0x20\n      add\n      0x00\n      keccak256\n      0x00\n      swap1\n      sload\n      swap1\n      0x0100\n      exp\n      swap1\n      div\n      0xff\n      and\n        /* \"StakingToken.sol\":2595:2638  managers[msg.sender] || owner == msg.sender */\n      dup1\n      tag_158\n      jumpi\n      pop\n        /* \"StakingToken.sol\":2628:2638  msg.sender */\n      caller\n        /* \"StakingToken.sol\":2619:2638  owner == msg.sender */\n      0xffffffffffffffffffffffffffffffffffffffff\n      and\n        /* \"StakingToken.sol\":2619:2624  owner */\n      0x01\n      0x00\n      swap1\n      sload\n      swap1\n      0x0100\n      exp\n      swap1\n      div\n      0xffffffffffffffffffffffffffffffffffffffff\n      and\n        /* \"StakingToken.sol\":2619:2638  owner == msg.sender */\n      0xffffffffffffffffffffffffffffffffffffffff\n      and\n      eq\n        /* \"StakingToken.sol\":2595:2638  managers[msg.sender] || owner == msg.sender */\n    tag_158:\n        /* \"StakingToken.sol\":2587:2657  require(managers[msg.sender] || owner == msg.sender, \"Not authorized\") */\n      tag_159\n      jumpi\n      mload(0x40)\n      0x08c379a000000000000000000000000000000000000000000000000000000000\n      dup2\n      mstore\n      0x04\n      add\n      tag_160\n      swap1\n      tag_136\n      jump\t// in\n    tag_160:\n      mload(0x40)\n      dup1\n      swap2\n      sub\n      swap1\n      revert\n    tag_159:\n        /* \"StakingToken.sol\":8016:8031  whiteListTokens */\n      0x03\n        /* \"StakingToken.sol\":8016:8038  whiteListTokens[token] */\n      0x00\n        /* \"StakingToken.sol\":8032:8037  token */\n      dup5\n        /* \"StakingToken.sol\":8016:8038  whiteListTokens[token] */\n      0xffffffffffffffffffffffffffffffffffffffff\n      and\n      0xffffffffffffffffffffffffffffffffffffffff\n      and\n      dup2\n      mstore\n      0x20\n      add\n      swap1\n      dup2\n      mstore\n      0x20\n      add\n      0x00\n      keccak256\n        /* \"StakingToken.sol\":8016:8047  whiteListTokens[token].isActive */\n      0x01\n      add\n      0x00\n      swap1\n      sload\n      swap1\n      0x0100\n      exp\n      swap1\n      div\n      0xff\n      and\n        /* \"StakingToken.sol\":8008:8071  require(whiteListTokens[token].isActive, \"Token is not active\") */\n      tag_162\n      jumpi\n      mload(0x40)\n      0x08c379a000000000000000000000000000000000000000000000000000000000\n      dup2\n      mstore\n      0x04\n      add\n      tag_163\n      swap1\n      tag_122\n      jump\t// in\n    tag_163:\n      mload(0x40)\n      dup1\n      swap2\n      sub\n      swap1\n      revert\n    tag_162:\n        /* \"StakingToken.sol\":8088:8101  stakedBalance */\n      0x04\n        /* \"StakingToken.sol\":8088:8108  stakedBalance[token] */\n      0x00\n        /* \"StakingToken.sol\":8102:8107  token */\n      dup5\n        /* \"StakingToken.sol\":8088:8108  stakedBalance[token] */\n      0xffffffffffffffffffffffffffffffffffffffff\n      and\n      0xffffffffffffffffffffffffffffffffffffffff\n      and\n      dup2\n      mstore\n      0x20\n      add\n      swap1\n      dup2\n      mstore\n      0x20\n      add\n      0x00\n      keccak256\n        /* \"StakingToken.sol\":8088:8117  stakedBalance[token][account] */\n      0x00\n        /* \"StakingToken.sol\":8109:8116  account */\n      dup4\n        /* \"StakingToken.sol\":8088:8117  stakedBalance[token][account] */\n      0xffffffffffffffffffffffffffffffffffffffff\n      and\n      0xffffffffffffffffffffffffffffffffffffffff\n      and\n      dup2\n      mstore\n      0x20\n      add\n      swap1\n      dup2\n      mstore\n      0x20\n      add\n      0x00\n      keccak256\n      sload\n        /* \"StakingToken.sol\":8081:8117  return stakedBalance[token][account] */\n      swap1\n      pop\n        /* \"StakingToken.sol\":7865:8124  function getMyTokens(address token, address account)... */\n      swap3\n      swap2\n      pop\n      pop\n      jump\t// out\n        /* \"StakingToken.sol\":7581:7859  function getStakedBalanceTokenByAccount(address token, address account)... */\n    tag_71:\n        /* \"StakingToken.sol\":7720:7727  uint256 */\n      0x00\n        /* \"StakingToken.sol\":2595:2603  managers */\n      0x0a\n        /* \"StakingToken.sol\":2595:2615  managers[msg.sender] */\n      0x00\n        /* \"StakingToken.sol\":2604:2614  msg.sender */\n      caller\n        /* \"StakingToken.sol\":2595:2615  managers[msg.sender] */\n      0xffffffffffffffffffffffffffffffffffffffff\n      and\n      0xffffffffffffffffffffffffffffffffffffffff\n      and\n      dup2\n      mstore\n      0x20\n      add\n      swap1\n      dup2\n      mstore\n      0x20\n      add\n      0x00\n      keccak256\n      0x00\n      swap1\n      sload\n      swap1\n      0x0100\n      exp\n      swap1\n      div\n      0xff\n      and\n        /* \"StakingToken.sol\":2595:2638  managers[msg.sender] || owner == msg.sender */\n      dup1\n      tag_165\n      jumpi\n      pop\n        /* \"StakingToken.sol\":2628:2638  msg.sender */\n      caller\n        /* \"StakingToken.sol\":2619:2638  owner == msg.sender */\n      0xffffffffffffffffffffffffffffffffffffffff\n      and\n        /* \"StakingToken.sol\":2619:2624  owner */\n      0x01\n      0x00\n      swap1\n      sload\n      swap1\n      0x0100\n      exp\n      swap1\n      div\n      0xffffffffffffffffffffffffffffffffffffffff\n      and\n        /* \"StakingToken.sol\":2619:2638  owner == msg.sender */\n      0xffffffffffffffffffffffffffffffffffffffff\n      and\n      eq\n        /* \"StakingToken.sol\":2595:2638  managers[msg.sender] || owner == msg.sender */\n    tag_165:\n        /* \"StakingToken.sol\":2587:2657  require(managers[msg.sender] || owner == msg.sender, \"Not authorized\") */\n      tag_166\n      jumpi\n      mload(0x40)\n      0x08c379a000000000000000000000000000000000000000000000000000000000\n      dup2\n      mstore\n      0x04\n      add\n      tag_167\n      swap1\n      tag_136\n      jump\t// in\n    tag_167:\n      mload(0x40)\n      dup1\n      swap2\n      sub\n      swap1\n      revert\n    tag_166:\n        /* \"StakingToken.sol\":7751:7766  whiteListTokens */\n      0x03\n        /* \"StakingToken.sol\":7751:7773  whiteListTokens[token] */\n      0x00\n        /* \"StakingToken.sol\":7767:7772  token */\n      dup5\n        /* \"StakingToken.sol\":7751:7773  whiteListTokens[token] */\n      0xffffffffffffffffffffffffffffffffffffffff\n      and\n      0xffffffffffffffffffffffffffffffffffffffff\n      and\n      dup2\n      mstore\n      0x20\n      add\n      swap1\n      dup2\n      mstore\n      0x20\n      add\n      0x00\n      keccak256\n        /* \"StakingToken.sol\":7751:7782  whiteListTokens[token].isActive */\n      0x01\n      add\n      0x00\n      swap1\n      sload\n      swap1\n      0x0100\n      exp\n      swap1\n      div\n      0xff\n      and\n        /* \"StakingToken.sol\":7743:7806  require(whiteListTokens[token].isActive, \"Token is not active\") */\n      tag_169\n      jumpi\n      mload(0x40)\n      0x08c379a000000000000000000000000000000000000000000000000000000000\n      dup2\n      mstore\n      0x04\n      add\n      tag_170\n      swap1\n      tag_122\n      jump\t// in\n    tag_170:\n      mload(0x40)\n      dup1\n      swap2\n      sub\n      swap1\n      revert\n    tag_169:\n        /* \"StakingToken.sol\":7823:7836  stakedBalance */\n      0x04\n        /* \"StakingToken.sol\":7823:7843  stakedBalance[token] */\n      0x00\n        /* \"StakingToken.sol\":7837:7842  token */\n      dup5\n        /* \"StakingToken.sol\":7823:7843  stakedBalance[token] */\n      0xffffffffffffffffffffffffffffffffffffffff\n      and\n      0xffffffffffffffffffffffffffffffffffffffff\n      and\n      dup2\n      mstore\n      0x20\n      add\n      swap1\n      dup2\n      mstore\n      0x20\n      add\n      0x00\n      keccak256\n        /* \"StakingToken.sol\":7823:7852  stakedBalance[token][account] */\n      0x00\n        /* \"StakingToken.sol\":7844:7851  account */\n      dup4\n        /* \"StakingToken.sol\":7823:7852  stakedBalance[token][account] */\n      0xffffffffffffffffffffffffffffffffffffffff\n      and\n      0xffffffffffffffffffffffffffffffffffffffff\n      and\n      dup2\n      mstore\n      0x20\n      add\n      swap1\n      dup2\n      mstore\n      0x20\n      add\n      0x00\n      keccak256\n      sload\n        /* \"StakingToken.sol\":7816:7852  return stakedBalance[token][account] */\n      swap1\n      pop\n        /* \"StakingToken.sol\":7581:7859  function getStakedBalanceTokenByAccount(address token, address account)... */\n      swap3\n      swap2\n      pop\n      pop\n      jump\t// out\n        /* \"StakingToken.sol\":928:983  mapping(address => uint256) public rewardPerTokenStored */\n    tag_75:\n      mstore(0x20, 0x07)\n      dup1\n      0x00\n      mstore\n      keccak256(0x00, 0x40)\n      0x00\n      swap2\n      pop\n      swap1\n      pop\n      sload\n      dup2\n      jump\t// out\n        /* \"StakingToken.sol\":5878:6636  function withdrawStakedTokens(address token, uint256 amount)... */\n    tag_80:\n        /* \"@openzeppelin/contracts/security/ReentrancyGuard.sol\":2261:2282  _nonReentrantBefore() */\n      tag_172\n        /* \"@openzeppelin/contracts/security/ReentrancyGuard.sol\":2261:2280  _nonReentrantBefore */\n      tag_173\n        /* \"@openzeppelin/contracts/security/ReentrancyGuard.sol\":2261:2282  _nonReentrantBefore() */\n      jump\t// in\n    tag_172:\n        /* \"StakingToken.sol\":5998:6003  token */\n      dup2\n        /* \"StakingToken.sol\":6005:6015  msg.sender */\n      caller\n        /* \"StakingToken.sol\":4701:4716  whiteListTokens */\n      0x03\n        /* \"StakingToken.sol\":4701:4723  whiteListTokens[token] */\n      0x00\n        /* \"StakingToken.sol\":4717:4722  token */\n      dup4\n        /* \"StakingToken.sol\":4701:4723  whiteListTokens[token] */\n      0xffffffffffffffffffffffffffffffffffffffff\n      and\n      0xffffffffffffffffffffffffffffffffffffffff\n      and\n      dup2\n      mstore\n      0x20\n      add\n      swap1\n      dup2\n      mstore\n      0x20\n      add\n      0x00\n      keccak256\n        /* \"StakingToken.sol\":4701:4732  whiteListTokens[token].isActive */\n      0x01\n      add\n      0x00\n      swap1\n      sload\n      swap1\n      0x0100\n      exp\n      swap1\n      div\n      0xff\n      and\n        /* \"StakingToken.sol\":4693:4756  require(whiteListTokens[token].isActive, \"Token is not active\") */\n      tag_175\n      jumpi\n      mload(0x40)\n      0x08c379a000000000000000000000000000000000000000000000000000000000\n      dup2\n      mstore\n      0x04\n      add\n      tag_176\n      swap1\n      tag_122\n      jump\t// in\n    tag_176:\n      mload(0x40)\n      dup1\n      swap2\n      sub\n      swap1\n      revert\n    tag_175:\n        /* \"StakingToken.sol\":4796:4817  rewardPerToken(token) */\n      tag_177\n        /* \"StakingToken.sol\":4811:4816  token */\n      dup3\n        /* \"StakingToken.sol\":4796:4810  rewardPerToken */\n      tag_117\n        /* \"StakingToken.sol\":4796:4817  rewardPerToken(token) */\n      jump\t// in\n    tag_177:\n        /* \"StakingToken.sol\":4766:4786  rewardPerTokenStored */\n      0x07\n        /* \"StakingToken.sol\":4766:4793  rewardPerTokenStored[token] */\n      0x00\n        /* \"StakingToken.sol\":4787:4792  token */\n      dup5\n        /* \"StakingToken.sol\":4766:4793  rewardPerTokenStored[token] */\n      0xffffffffffffffffffffffffffffffffffffffff\n      and\n      0xffffffffffffffffffffffffffffffffffffffff\n      and\n      dup2\n      mstore\n      0x20\n      add\n      swap1\n      dup2\n      mstore\n      0x20\n      add\n      0x00\n      keccak256\n        /* \"StakingToken.sol\":4766:4817  rewardPerTokenStored[token] = rewardPerToken(token) */\n      dup2\n      swap1\n      sstore\n      pop\n        /* \"StakingToken.sol\":4851:4866  block.timestamp */\n      timestamp\n        /* \"StakingToken.sol\":4827:4841  lastUpdateTime */\n      0x08\n        /* \"StakingToken.sol\":4827:4848  lastUpdateTime[token] */\n      0x00\n        /* \"StakingToken.sol\":4842:4847  token */\n      dup5\n        /* \"StakingToken.sol\":4827:4848  lastUpdateTime[token] */\n      0xffffffffffffffffffffffffffffffffffffffff\n      and\n      0xffffffffffffffffffffffffffffffffffffffff\n      and\n      dup2\n      mstore\n      0x20\n      add\n      swap1\n      dup2\n      mstore\n      0x20\n      add\n      0x00\n      keccak256\n        /* \"StakingToken.sol\":4827:4866  lastUpdateTime[token] = block.timestamp */\n      dup2\n      swap1\n      sstore\n      pop\n        /* \"StakingToken.sol\":4902:4924  earned(token, account) */\n      tag_178\n        /* \"StakingToken.sol\":4909:4914  token */\n      dup3\n        /* \"StakingToken.sol\":4916:4923  account */\n      dup3\n        /* \"StakingToken.sol\":4902:4908  earned */\n      tag_32\n        /* \"StakingToken.sol\":4902:4924  earned(token, account) */\n      jump\t// in\n    tag_178:\n        /* \"StakingToken.sol\":4876:4883  rewards */\n      0x05\n        /* \"StakingToken.sol\":4876:4890  rewards[token] */\n      0x00\n        /* \"StakingToken.sol\":4884:4889  token */\n      dup5\n        /* \"StakingToken.sol\":4876:4890  rewards[token] */\n      0xffffffffffffffffffffffffffffffffffffffff\n      and\n      0xffffffffffffffffffffffffffffffffffffffff\n      and\n      dup2\n      mstore\n      0x20\n      add\n      swap1\n      dup2\n      mstore\n      0x20\n      add\n      0x00\n      keccak256\n        /* \"StakingToken.sol\":4876:4899  rewards[token][account] */\n      0x00\n        /* \"StakingToken.sol\":4891:4898  account */\n      dup4\n        /* \"StakingToken.sol\":4876:4899  rewards[token][account] */\n      0xffffffffffffffffffffffffffffffffffffffff\n      and\n      0xffffffffffffffffffffffffffffffffffffffff\n      and\n      dup2\n      mstore\n      0x20\n      add\n      swap1\n      dup2\n      mstore\n      0x20\n      add\n      0x00\n      keccak256\n        /* \"StakingToken.sol\":4876:4924  rewards[token][account] = earned(token, account) */\n      dup2\n      swap1\n      sstore\n      pop\n        /* \"StakingToken.sol\":4975:4995  rewardPerTokenStored */\n      0x07\n        /* \"StakingToken.sol\":4975:5002  rewardPerTokenStored[token] */\n      0x00\n        /* \"StakingToken.sol\":4996:5001  token */\n      dup4\n        /* \"StakingToken.sol\":4975:5002  rewardPerTokenStored[token] */\n      0xffffffffffffffffffffffffffffffffffffffff\n      and\n      0xffffffffffffffffffffffffffffffffffffffff\n      and\n      dup2\n      mstore\n      0x20\n      add\n      swap1\n      dup2\n      mstore\n      0x20\n      add\n      0x00\n      keccak256\n      sload\n        /* \"StakingToken.sol\":4934:4956  userRewardPerTokenPaid */\n      0x06\n        /* \"StakingToken.sol\":4934:4963  userRewardPerTokenPaid[token] */\n      0x00\n        /* \"StakingToken.sol\":4957:4962  token */\n      dup5\n        /* \"StakingToken.sol\":4934:4963  userRewardPerTokenPaid[token] */\n      0xffffffffffffffffffffffffffffffffffffffff\n      and\n      0xffffffffffffffffffffffffffffffffffffffff\n      and\n      dup2\n      mstore\n      0x20\n      add\n      swap1\n      dup2\n      mstore\n      0x20\n      add\n      0x00\n      keccak256\n        /* \"StakingToken.sol\":4934:4972  userRewardPerTokenPaid[token][account] */\n      0x00\n        /* \"StakingToken.sol\":4964:4971  account */\n      dup4\n        /* \"StakingToken.sol\":4934:4972  userRewardPerTokenPaid[token][account] */\n      0xffffffffffffffffffffffffffffffffffffffff\n      and\n      0xffffffffffffffffffffffffffffffffffffffff\n      and\n      dup2\n      mstore\n      0x20\n      add\n      swap1\n      dup2\n      mstore\n      0x20\n      add\n      0x00\n      keccak256\n        /* \"StakingToken.sol\":4934:5002  userRewardPerTokenPaid[token][account] = rewardPerTokenStored[token] */\n      dup2\n      swap1\n      sstore\n      pop\n        /* \"StakingToken.sol\":6039:6054  whiteListTokens */\n      0x03\n        /* \"StakingToken.sol\":6039:6061  whiteListTokens[token] */\n      0x00\n        /* \"StakingToken.sol\":6055:6060  token */\n      dup6\n        /* \"StakingToken.sol\":6039:6061  whiteListTokens[token] */\n      0xffffffffffffffffffffffffffffffffffffffff\n      and\n      0xffffffffffffffffffffffffffffffffffffffff\n      and\n      dup2\n      mstore\n      0x20\n      add\n      swap1\n      dup2\n      mstore\n      0x20\n      add\n      0x00\n      keccak256\n        /* \"StakingToken.sol\":6039:6070  whiteListTokens[token].isActive */\n      0x01\n      add\n      0x00\n      swap1\n      sload\n      swap1\n      0x0100\n      exp\n      swap1\n      div\n      0xff\n      and\n        /* \"StakingToken.sol\":6031:6094  require(whiteListTokens[token].isActive, \"Token is not active\") */\n      tag_180\n      jumpi\n      mload(0x40)\n      0x08c379a000000000000000000000000000000000000000000000000000000000\n      dup2\n      mstore\n      0x04\n      add\n      tag_181\n      swap1\n      tag_122\n      jump\t// in\n    tag_181:\n      mload(0x40)\n      dup1\n      swap2\n      sub\n      swap1\n      revert\n    tag_180:\n        /* \"StakingToken.sol\":6121:6122  0 */\n      0x00\n        /* \"StakingToken.sol\":6112:6118  amount */\n      dup4\n        /* \"StakingToken.sol\":6112:6122  amount > 0 */\n      gt\n        /* \"StakingToken.sol\":6104:6159  require(amount > 0, \"Amount must be greater than zero\") */\n      tag_182\n      jumpi\n      mload(0x40)\n      0x08c379a000000000000000000000000000000000000000000000000000000000\n      dup2\n      mstore\n      0x04\n      add\n      tag_183\n      swap1\n      tag_184\n      jump\t// in\n    tag_183:\n      mload(0x40)\n      dup1\n      swap2\n      sub\n      swap1\n      revert\n    tag_182:\n        /* \"StakingToken.sol\":6226:6232  amount */\n      dup3\n        /* \"StakingToken.sol\":6190:6203  stakedBalance */\n      0x04\n        /* \"StakingToken.sol\":6190:6210  stakedBalance[token] */\n      0x00\n        /* \"StakingToken.sol\":6204:6209  token */\n      dup7\n        /* \"StakingToken.sol\":6190:6210  stakedBalance[token] */\n      0xffffffffffffffffffffffffffffffffffffffff\n      and\n      0xffffffffffffffffffffffffffffffffffffffff\n      and\n      dup2\n      mstore\n      0x20\n      add\n      swap1\n      dup2\n      mstore\n      0x20\n      add\n      0x00\n      keccak256\n        /* \"StakingToken.sol\":6190:6222  stakedBalance[token][msg.sender] */\n      0x00\n        /* \"StakingToken.sol\":6211:6221  msg.sender */\n      caller\n        /* \"StakingToken.sol\":6190:6222  stakedBalance[token][msg.sender] */\n      0xffffffffffffffffffffffffffffffffffffffff\n      and\n      0xffffffffffffffffffffffffffffffffffffffff\n      and\n      dup2\n      mstore\n      0x20\n      add\n      swap1\n      dup2\n      mstore\n      0x20\n      add\n      0x00\n      keccak256\n      sload\n        /* \"StakingToken.sol\":6190:6232  stakedBalance[token][msg.sender] >= amount */\n      lt\n      iszero\n        /* \"StakingToken.sol\":6169:6282  require(... */\n      tag_185\n      jumpi\n      mload(0x40)\n      0x08c379a000000000000000000000000000000000000000000000000000000000\n      dup2\n      mstore\n      0x04\n      add\n      tag_186\n      swap1\n      tag_187\n      jump\t// in\n    tag_186:\n      mload(0x40)\n      dup1\n      swap2\n      sub\n      swap1\n      revert\n    tag_185:\n        /* \"StakingToken.sol\":6319:6355  totalStakedTokens[token].sub(amount) */\n      tag_188\n        /* \"StakingToken.sol\":6348:6354  amount */\n      dup4\n        /* \"StakingToken.sol\":6319:6336  totalStakedTokens */\n      0x09\n        /* \"StakingToken.sol\":6319:6343  totalStakedTokens[token] */\n      0x00\n        /* \"StakingToken.sol\":6337:6342  token */\n      dup8\n        /* \"StakingToken.sol\":6319:6343  totalStakedTokens[token] */\n      0xffffffffffffffffffffffffffffffffffffffff\n      and\n      0xffffffffffffffffffffffffffffffffffffffff\n      and\n      dup2\n      mstore\n      0x20\n      add\n      swap1\n      dup2\n      mstore\n      0x20\n      add\n      0x00\n      keccak256\n      sload\n        /* \"StakingToken.sol\":6319:6347  totalStakedTokens[token].sub */\n      tag_128\n      swap1\n        /* \"StakingToken.sol\":6319:6355  totalStakedTokens[token].sub(amount) */\n      swap2\n      swap1\n      0xffffffff\n      and\n      jump\t// in\n    tag_188:\n        /* \"StakingToken.sol\":6292:6309  totalStakedTokens */\n      0x09\n        /* \"StakingToken.sol\":6292:6316  totalStakedTokens[token] */\n      0x00\n        /* \"StakingToken.sol\":6310:6315  token */\n      dup7\n        /* \"StakingToken.sol\":6292:6316  totalStakedTokens[token] */\n      0xffffffffffffffffffffffffffffffffffffffff\n      and\n      0xffffffffffffffffffffffffffffffffffffffff\n      and\n      dup2\n      mstore\n      0x20\n      add\n      swap1\n      dup2\n      mstore\n      0x20\n      add\n      0x00\n      keccak256\n        /* \"StakingToken.sol\":6292:6355  totalStakedTokens[token] = totalStakedTokens[token].sub(amount) */\n      dup2\n      swap1\n      sstore\n      pop\n        /* \"StakingToken.sol\":6400:6466  stakedBalance[token][msg.sender].sub(... */\n      tag_189\n        /* \"StakingToken.sol\":6450:6456  amount */\n      dup4\n        /* \"StakingToken.sol\":6400:6413  stakedBalance */\n      0x04\n        /* \"StakingToken.sol\":6400:6420  stakedBalance[token] */\n      0x00\n        /* \"StakingToken.sol\":6414:6419  token */\n      dup8\n        /* \"StakingToken.sol\":6400:6420  stakedBalance[token] */\n      0xffffffffffffffffffffffffffffffffffffffff\n      and\n      0xffffffffffffffffffffffffffffffffffffffff\n      and\n      dup2\n      mstore\n      0x20\n      add\n      swap1\n      dup2\n      mstore\n      0x20\n      add\n      0x00\n      keccak256\n        /* \"StakingToken.sol\":6400:6432  stakedBalance[token][msg.sender] */\n      0x00\n        /* \"StakingToken.sol\":6421:6431  msg.sender */\n      caller\n        /* \"StakingToken.sol\":6400:6432  stakedBalance[token][msg.sender] */\n      0xffffffffffffffffffffffffffffffffffffffff\n      and\n      0xffffffffffffffffffffffffffffffffffffffff\n      and\n      dup2\n      mstore\n      0x20\n      add\n      swap1\n      dup2\n      mstore\n      0x20\n      add\n      0x00\n      keccak256\n      sload\n        /* \"StakingToken.sol\":6400:6436  stakedBalance[token][msg.sender].sub */\n      tag_128\n      swap1\n        /* \"StakingToken.sol\":6400:6466  stakedBalance[token][msg.sender].sub(... */\n      swap2\n      swap1\n      0xffffffff\n      and\n      jump\t// in\n    tag_189:\n        /* \"StakingToken.sol\":6365:6378  stakedBalance */\n      0x04\n        /* \"StakingToken.sol\":6365:6385  stakedBalance[token] */\n      0x00\n        /* \"StakingToken.sol\":6379:6384  token */\n      dup7\n        /* \"StakingToken.sol\":6365:6385  stakedBalance[token] */\n      0xffffffffffffffffffffffffffffffffffffffff\n      and\n      0xffffffffffffffffffffffffffffffffffffffff\n      and\n      dup2\n      mstore\n      0x20\n      add\n      swap1\n      dup2\n      mstore\n      0x20\n      add\n      0x00\n      keccak256\n        /* \"StakingToken.sol\":6365:6397  stakedBalance[token][msg.sender] */\n      0x00\n        /* \"StakingToken.sol\":6386:6396  msg.sender */\n      caller\n        /* \"StakingToken.sol\":6365:6397  stakedBalance[token][msg.sender] */\n      0xffffffffffffffffffffffffffffffffffffffff\n      and\n      0xffffffffffffffffffffffffffffffffffffffff\n      and\n      dup2\n      mstore\n      0x20\n      add\n      swap1\n      dup2\n      mstore\n      0x20\n      add\n      0x00\n      keccak256\n        /* \"StakingToken.sol\":6365:6466  stakedBalance[token][msg.sender] = stakedBalance[token][msg.sender].sub(... */\n      dup2\n      swap1\n      sstore\n      pop\n        /* \"StakingToken.sol\":6510:6516  amount */\n      dup3\n        /* \"StakingToken.sol\":6503:6508  token */\n      dup5\n        /* \"StakingToken.sol\":6481:6517  Withdrawn(msg.sender, token, amount) */\n      0xffffffffffffffffffffffffffffffffffffffff\n      and\n        /* \"StakingToken.sol\":6491:6501  msg.sender */\n      caller\n        /* \"StakingToken.sol\":6481:6517  Withdrawn(msg.sender, token, amount) */\n      0xffffffffffffffffffffffffffffffffffffffff\n      and\n      0xd1c19fbcd4551a5edfb66d43d2e337c04837afda3482b42bdf569a8fccdae5fb\n      mload(0x40)\n      mload(0x40)\n      dup1\n      swap2\n      sub\n      swap1\n      log4\n        /* \"StakingToken.sol\":6527:6539  bool success */\n      0x00\n        /* \"StakingToken.sol\":6549:6554  token */\n      dup5\n        /* \"StakingToken.sol\":6542:6564  IERC20(token).transfer */\n      0xffffffffffffffffffffffffffffffffffffffff\n      and\n      0xa9059cbb\n        /* \"StakingToken.sol\":6565:6575  msg.sender */\n      caller\n        /* \"StakingToken.sol\":6577:6583  amount */\n      dup7\n        /* \"StakingToken.sol\":6542:6584  IERC20(token).transfer(msg.sender, amount) */\n      mload(0x40)\n      dup4\n      0xffffffff\n      and\n      0xe0\n      shl\n      dup2\n      mstore\n      0x04\n      add\n      tag_190\n      swap3\n      swap2\n      swap1\n      tag_191\n      jump\t// in\n    tag_190:\n      0x20\n      mload(0x40)\n      dup1\n      dup4\n      sub\n      dup2\n      0x00\n      dup8\n      gas\n      call\n      iszero\n      dup1\n      iszero\n      tag_193\n      jumpi\n      returndatasize\n      0x00\n      dup1\n      returndatacopy\n      revert(0x00, returndatasize)\n    tag_193:\n      pop\n      pop\n      pop\n      pop\n      mload(0x40)\n      returndatasize\n      not(0x1f)\n      0x1f\n      dup3\n      add\n      and\n      dup3\n      add\n      dup1\n      0x40\n      mstore\n      pop\n      dup2\n      add\n      swap1\n      tag_194\n      swap2\n      swap1\n      tag_195\n      jump\t// in\n    tag_194:\n        /* \"StakingToken.sol\":6527:6584  bool success = IERC20(token).transfer(msg.sender, amount) */\n      swap1\n      pop\n        /* \"StakingToken.sol\":6602:6609  success */\n      dup1\n        /* \"StakingToken.sol\":6594:6629  require(success, \"Transfer Failed\") */\n      tag_196\n      jumpi\n      mload(0x40)\n      0x08c379a000000000000000000000000000000000000000000000000000000000\n      dup2\n      mstore\n      0x04\n      add\n      tag_197\n      swap1\n      tag_198\n      jump\t// in\n    tag_197:\n      mload(0x40)\n      dup1\n      swap2\n      sub\n      swap1\n      revert\n    tag_196:\n        /* \"StakingToken.sol\":6021:6636  {... */\n      pop\n        /* \"@openzeppelin/contracts/security/ReentrancyGuard.sol\":2292:2293  _ */\n      pop\n      pop\n        /* \"@openzeppelin/contracts/security/ReentrancyGuard.sol\":2303:2323  _nonReentrantAfter() */\n      tag_199\n        /* \"@openzeppelin/contracts/security/ReentrancyGuard.sol\":2303:2321  _nonReentrantAfter */\n      tag_200\n        /* \"@openzeppelin/contracts/security/ReentrancyGuard.sol\":2303:2323  _nonReentrantAfter() */\n      jump\t// in\n    tag_199:\n        /* \"StakingToken.sol\":5878:6636  function withdrawStakedTokens(address token, uint256 amount)... */\n      pop\n      pop\n      jump\t// out\n        /* \"StakingToken.sol\":5714:5872  function setRewardRate(uint256 newRewardRate) external onlyManager {... */\n    tag_84:\n        /* \"StakingToken.sol\":2595:2603  managers */\n      0x0a\n        /* \"StakingToken.sol\":2595:2615  managers[msg.sender] */\n      0x00\n        /* \"StakingToken.sol\":2604:2614  msg.sender */\n      caller\n        /* \"StakingToken.sol\":2595:2615  managers[msg.sender] */\n      0xffffffffffffffffffffffffffffffffffffffff\n      and\n      0xffffffffffffffffffffffffffffffffffffffff\n      and\n      dup2\n      mstore\n      0x20\n      add\n      swap1\n      dup2\n      mstore\n      0x20\n      add\n      0x00\n      keccak256\n      0x00\n      swap1\n      sload\n      swap1\n      0x0100\n      exp\n      swap1\n      div\n      0xff\n      and\n        /* \"StakingToken.sol\":2595:2638  managers[msg.sender] || owner == msg.sender */\n      dup1\n      tag_202\n      jumpi\n      pop\n        /* \"StakingToken.sol\":2628:2638  msg.sender */\n      caller\n        /* \"StakingToken.sol\":2619:2638  owner == msg.sender */\n      0xffffffffffffffffffffffffffffffffffffffff\n      and\n        /* \"StakingToken.sol\":2619:2624  owner */\n      0x01\n      0x00\n      swap1\n      sload\n      swap1\n      0x0100\n      exp\n      swap1\n      div\n      0xffffffffffffffffffffffffffffffffffffffff\n      and\n        /* \"StakingToken.sol\":2619:2638  owner == msg.sender */\n      0xffffffffffffffffffffffffffffffffffffffff\n      and\n      eq\n        /* \"StakingToken.sol\":2595:2638  managers[msg.sender] || owner == msg.sender */\n    tag_202:\n        /* \"StakingToken.sol\":2587:2657  require(managers[msg.sender] || owner == msg.sender, \"Not authorized\") */\n      tag_203\n      jumpi\n      mload(0x40)\n      0x08c379a000000000000000000000000000000000000000000000000000000000\n      dup2\n      mstore\n      0x04\n      add\n      tag_204\n      swap1\n      tag_136\n      jump\t// in\n    tag_204:\n      mload(0x40)\n      dup1\n      swap2\n      sub\n      swap1\n      revert\n    tag_203:\n        /* \"StakingToken.sol\":5805:5818  newRewardRate */\n      dup1\n        /* \"StakingToken.sol\":5791:5802  REWARD_RATE */\n      0x02\n        /* \"StakingToken.sol\":5791:5818  REWARD_RATE = newRewardRate */\n      dup2\n      swap1\n      sstore\n      pop\n        /* \"StakingToken.sol\":5833:5865  RewardRateUpdated(newRewardRate) */\n      0x41d466ebd06fb97e7786086ac8b69b7eb7da798592036251291d34e9791cde01\n        /* \"StakingToken.sol\":5851:5864  newRewardRate */\n      dup2\n        /* \"StakingToken.sol\":5833:5865  RewardRateUpdated(newRewardRate) */\n      mload(0x40)\n      tag_206\n      swap2\n      swap1\n      tag_34\n      jump\t// in\n    tag_206:\n      mload(0x40)\n      dup1\n      swap2\n      sub\n      swap1\n      log1\n        /* \"StakingToken.sol\":5714:5872  function setRewardRate(uint256 newRewardRate) external onlyManager {... */\n      pop\n      jump\t// out\n        /* \"StakingToken.sol\":7157:7575  function transferTokens(... */\n    tag_88:\n        /* \"StakingToken.sol\":2595:2603  managers */\n      0x0a\n        /* \"StakingToken.sol\":2595:2615  managers[msg.sender] */\n      0x00\n        /* \"StakingToken.sol\":2604:2614  msg.sender */\n      caller\n        /* \"StakingToken.sol\":2595:2615  managers[msg.sender] */\n      0xffffffffffffffffffffffffffffffffffffffff\n      and\n      0xffffffffffffffffffffffffffffffffffffffff\n      and\n      dup2\n      mstore\n      0x20\n      add\n      swap1\n      dup2\n      mstore\n      0x20\n      add\n      0x00\n      keccak256\n      0x00\n      swap1\n      sload\n      swap1\n      0x0100\n      exp\n      swap1\n      div\n      0xff\n      and\n        /* \"StakingToken.sol\":2595:2638  managers[msg.sender] || owner == msg.sender */\n      dup1\n      tag_208\n      jumpi\n      pop\n        /* \"StakingToken.sol\":2628:2638  msg.sender */\n      caller\n        /* \"StakingToken.sol\":2619:2638  owner == msg.sender */\n      0xffffffffffffffffffffffffffffffffffffffff\n      and\n        /* \"StakingToken.sol\":2619:2624  owner */\n      0x01\n      0x00\n      swap1\n      sload\n      swap1\n      0x0100\n      exp\n      swap1\n      div\n      0xffffffffffffffffffffffffffffffffffffffff\n      and\n        /* \"StakingToken.sol\":2619:2638  owner == msg.sender */\n      0xffffffffffffffffffffffffffffffffffffffff\n      and\n      eq\n        /* \"StakingToken.sol\":2595:2638  managers[msg.sender] || owner == msg.sender */\n    tag_208:\n        /* \"StakingToken.sol\":2587:2657  require(managers[msg.sender] || owner == msg.sender, \"Not authorized\") */\n      tag_209\n      jumpi\n      mload(0x40)\n      0x08c379a000000000000000000000000000000000000000000000000000000000\n      dup2\n      mstore\n      0x04\n      add\n      tag_210\n      swap1\n      tag_136\n      jump\t// in\n    tag_210:\n      mload(0x40)\n      dup1\n      swap2\n      sub\n      swap1\n      revert\n    tag_209:\n        /* \"StakingToken.sol\":7293:7308  whiteListTokens */\n      0x03\n        /* \"StakingToken.sol\":7293:7315  whiteListTokens[token] */\n      0x00\n        /* \"StakingToken.sol\":7309:7314  token */\n      dup5\n        /* \"StakingToken.sol\":7293:7315  whiteListTokens[token] */\n      0xffffffffffffffffffffffffffffffffffffffff\n      and\n      0xffffffffffffffffffffffffffffffffffffffff\n      and\n      dup2\n      mstore\n      0x20\n      add\n      swap1\n      dup2\n      mstore\n      0x20\n      add\n      0x00\n      keccak256\n        /* \"StakingToken.sol\":7293:7324  whiteListTokens[token].isActive */\n      0x01\n      add\n      0x00\n      swap1\n      sload\n      swap1\n      0x0100\n      exp\n      swap1\n      div\n      0xff\n      and\n        /* \"StakingToken.sol\":7285:7348  require(whiteListTokens[token].isActive, \"Token is not active\") */\n      tag_212\n      jumpi\n      mload(0x40)\n      0x08c379a000000000000000000000000000000000000000000000000000000000\n      dup2\n      mstore\n      0x04\n      add\n      tag_213\n      swap1\n      tag_122\n      jump\t// in\n    tag_213:\n      mload(0x40)\n      dup1\n      swap2\n      sub\n      swap1\n      revert\n    tag_212:\n        /* \"StakingToken.sol\":7375:7376  0 */\n      0x00\n        /* \"StakingToken.sol\":7366:7372  amount */\n      dup2\n        /* \"StakingToken.sol\":7366:7376  amount > 0 */\n      gt\n        /* \"StakingToken.sol\":7358:7413  require(amount > 0, \"Amount must be greater than zero\") */\n      tag_214\n      jumpi\n      mload(0x40)\n      0x08c379a000000000000000000000000000000000000000000000000000000000\n      dup2\n      mstore\n      0x04\n      add\n      tag_215\n      swap1\n      tag_184\n      jump\t// in\n    tag_215:\n      mload(0x40)\n      dup1\n      swap2\n      sub\n      swap1\n      revert\n    tag_214:\n        /* \"StakingToken.sol\":7423:7435  bool success */\n      0x00\n        /* \"StakingToken.sol\":7445:7450  token */\n      dup4\n        /* \"StakingToken.sol\":7438:7460  IERC20(token).transfer */\n      0xffffffffffffffffffffffffffffffffffffffff\n      and\n      0xa9059cbb\n        /* \"StakingToken.sol\":7461:7463  to */\n      dup5\n        /* \"StakingToken.sol\":7465:7471  amount */\n      dup5\n        /* \"StakingToken.sol\":7438:7472  IERC20(token).transfer(to, amount) */\n      mload(0x40)\n      dup4\n      0xffffffff\n      and\n      0xe0\n      shl\n      dup2\n      mstore\n      0x04\n      add\n      tag_216\n      swap3\n      swap2\n      swap1\n      tag_191\n      jump\t// in\n    tag_216:\n      0x20\n      mload(0x40)\n      dup1\n      dup4\n      sub\n      dup2\n      0x00\n      dup8\n      gas\n      call\n      iszero\n      dup1\n      iszero\n      tag_218\n      jumpi\n      returndatasize\n      0x00\n      dup1\n      returndatacopy\n      revert(0x00, returndatasize)\n    tag_218:\n      pop\n      pop\n      pop\n      pop\n      mload(0x40)\n      returndatasize\n      not(0x1f)\n      0x1f\n      dup3\n      add\n      and\n      dup3\n      add\n      dup1\n      0x40\n      mstore\n      pop\n      dup2\n      add\n      swap1\n      tag_219\n      swap2\n      swap1\n      tag_195\n      jump\t// in\n    tag_219:\n        /* \"StakingToken.sol\":7423:7472  bool success = IERC20(token).transfer(to, amount) */\n      swap1\n      pop\n        /* \"StakingToken.sol\":7490:7497  success */\n      dup1\n        /* \"StakingToken.sol\":7482:7517  require(success, \"Transfer Failed\") */\n      tag_220\n      jumpi\n      mload(0x40)\n      0x08c379a000000000000000000000000000000000000000000000000000000000\n      dup2\n      mstore\n      0x04\n      add\n      tag_221\n      swap1\n      tag_198\n      jump\t// in\n    tag_221:\n      mload(0x40)\n      dup1\n      swap2\n      sub\n      swap1\n      revert\n    tag_220:\n        /* \"StakingToken.sol\":7557:7559  to */\n      dup3\n        /* \"StakingToken.sol\":7532:7568  TokensTransferred(token, to, amount) */\n      0xffffffffffffffffffffffffffffffffffffffff\n      and\n        /* \"StakingToken.sol\":7550:7555  token */\n      dup5\n        /* \"StakingToken.sol\":7532:7568  TokensTransferred(token, to, amount) */\n      0xffffffffffffffffffffffffffffffffffffffff\n      and\n      0x1b89874203ff7f0bba87c969ada3f32fda22ed38a6706d35199d21280c7811b1\n        /* \"StakingToken.sol\":7561:7567  amount */\n      dup5\n        /* \"StakingToken.sol\":7532:7568  TokensTransferred(token, to, amount) */\n      mload(0x40)\n      tag_222\n      swap2\n      swap1\n      tag_34\n      jump\t// in\n    tag_222:\n      mload(0x40)\n      dup1\n      swap2\n      sub\n      swap1\n      log3\n        /* \"StakingToken.sol\":7275:7575  {... */\n      pop\n        /* \"StakingToken.sol\":7157:7575  function transferTokens(... */\n      pop\n      pop\n      pop\n      jump\t// out\n        /* \"StakingToken.sol\":3397:3595  function removeManager(address manager) external onlyManager {... */\n    tag_91:\n        /* \"StakingToken.sol\":2595:2603  managers */\n      0x0a\n        /* \"StakingToken.sol\":2595:2615  managers[msg.sender] */\n      0x00\n        /* \"StakingToken.sol\":2604:2614  msg.sender */\n      caller\n        /* \"StakingToken.sol\":2595:2615  managers[msg.sender] */\n      0xffffffffffffffffffffffffffffffffffffffff\n      and\n      0xffffffffffffffffffffffffffffffffffffffff\n      and\n      dup2\n      mstore\n      0x20\n      add\n      swap1\n      dup2\n      mstore\n      0x20\n      add\n      0x00\n      keccak256\n      0x00\n      swap1\n      sload\n      swap1\n      0x0100\n      exp\n      swap1\n      div\n      0xff\n      and\n        /* \"StakingToken.sol\":2595:2638  managers[msg.sender] || owner == msg.sender */\n      dup1\n      tag_224\n      jumpi\n      pop\n        /* \"StakingToken.sol\":2628:2638  msg.sender */\n      caller\n        /* \"StakingToken.sol\":2619:2638  owner == msg.sender */\n      0xffffffffffffffffffffffffffffffffffffffff\n      and\n        /* \"StakingToken.sol\":2619:2624  owner */\n      0x01\n      0x00\n      swap1\n      sload\n      swap1\n      0x0100\n      exp\n      swap1\n      div\n      0xffffffffffffffffffffffffffffffffffffffff\n      and\n        /* \"StakingToken.sol\":2619:2638  owner == msg.sender */\n      0xffffffffffffffffffffffffffffffffffffffff\n      and\n      eq\n        /* \"StakingToken.sol\":2595:2638  managers[msg.sender] || owner == msg.sender */\n    tag_224:\n        /* \"StakingToken.sol\":2587:2657  require(managers[msg.sender] || owner == msg.sender, \"Not authorized\") */\n      tag_225\n      jumpi\n      mload(0x40)\n      0x08c379a000000000000000000000000000000000000000000000000000000000\n      dup2\n      mstore\n      0x04\n      add\n      tag_226\n      swap1\n      tag_136\n      jump\t// in\n    tag_226:\n      mload(0x40)\n      dup1\n      swap2\n      sub\n      swap1\n      revert\n    tag_225:\n        /* \"StakingToken.sol\":3476:3484  managers */\n      0x0a\n        /* \"StakingToken.sol\":3476:3493  managers[manager] */\n      0x00\n        /* \"StakingToken.sol\":3485:3492  manager */\n      dup3\n        /* \"StakingToken.sol\":3476:3493  managers[manager] */\n      0xffffffffffffffffffffffffffffffffffffffff\n      and\n      0xffffffffffffffffffffffffffffffffffffffff\n      and\n      dup2\n      mstore\n      0x20\n      add\n      swap1\n      dup2\n      mstore\n      0x20\n      add\n      0x00\n      keccak256\n      0x00\n      swap1\n      sload\n      swap1\n      0x0100\n      exp\n      swap1\n      div\n      0xff\n      and\n        /* \"StakingToken.sol\":3468:3515  require(managers[manager], \"Manager not found\") */\n      tag_228\n      jumpi\n      mload(0x40)\n      0x08c379a000000000000000000000000000000000000000000000000000000000\n      dup2\n      mstore\n      0x04\n      add\n      tag_229\n      swap1\n      tag_230\n      jump\t// in\n    tag_229:\n      mload(0x40)\n      dup1\n      swap2\n      sub\n      swap1\n      revert\n    tag_228:\n        /* \"StakingToken.sol\":3545:3550  false */\n      0x00\n        /* \"StakingToken.sol\":3525:3533  managers */\n      0x0a\n        /* \"StakingToken.sol\":3525:3542  managers[manager] */\n      0x00\n        /* \"StakingToken.sol\":3534:3541  manager */\n      dup4\n        /* \"StakingToken.sol\":3525:3542  managers[manager] */\n      0xffffffffffffffffffffffffffffffffffffffff\n      and\n      0xffffffffffffffffffffffffffffffffffffffff\n      and\n      dup2\n      mstore\n      0x20\n      add\n      swap1\n      dup2\n      mstore\n      0x20\n      add\n      0x00\n      keccak256\n      0x00\n        /* \"StakingToken.sol\":3525:3550  managers[manager] = false */\n      0x0100\n      exp\n      dup2\n      sload\n      dup2\n      0xff\n      mul\n      not\n      and\n      swap1\n      dup4\n      iszero\n      iszero\n      mul\n      or\n      swap1\n      sstore\n      pop\n        /* \"StakingToken.sol\":3580:3587  manager */\n      dup1\n        /* \"StakingToken.sol\":3565:3588  ManagerRemoved(manager) */\n      0xffffffffffffffffffffffffffffffffffffffff\n      and\n      0xef69f7d97228658c92417be1b16b19058315de71fecb435d07b7d23728b6bd31\n      mload(0x40)\n      mload(0x40)\n      dup1\n      swap2\n      sub\n      swap1\n      log2\n        /* \"StakingToken.sol\":3397:3595  function removeManager(address manager) external onlyManager {... */\n      pop\n      jump\t// out\n        /* \"StakingToken.sol\":5026:5708  function stake(address token, uint256 amount)... */\n    tag_94:\n        /* \"@openzeppelin/contracts/security/ReentrancyGuard.sol\":2261:2282  _nonReentrantBefore() */\n      tag_232\n        /* \"@openzeppelin/contracts/security/ReentrancyGuard.sol\":2261:2280  _nonReentrantBefore */\n      tag_173\n        /* \"@openzeppelin/contracts/security/ReentrancyGuard.sol\":2261:2282  _nonReentrantBefore() */\n      jump\t// in\n    tag_232:\n        /* \"StakingToken.sol\":5131:5136  token */\n      dup2\n        /* \"StakingToken.sol\":5138:5148  msg.sender */\n      caller\n        /* \"StakingToken.sol\":4701:4716  whiteListTokens */\n      0x03\n        /* \"StakingToken.sol\":4701:4723  whiteListTokens[token] */\n      0x00\n        /* \"StakingToken.sol\":4717:4722  token */\n      dup4\n        /* \"StakingToken.sol\":4701:4723  whiteListTokens[token] */\n      0xffffffffffffffffffffffffffffffffffffffff\n      and\n      0xffffffffffffffffffffffffffffffffffffffff\n      and\n      dup2\n      mstore\n      0x20\n      add\n      swap1\n      dup2\n      mstore\n      0x20\n      add\n      0x00\n      keccak256\n        /* \"StakingToken.sol\":4701:4732  whiteListTokens[token].isActive */\n      0x01\n      add\n      0x00\n      swap1\n      sload\n      swap1\n      0x0100\n      exp\n      swap1\n      div\n      0xff\n      and\n        /* \"StakingToken.sol\":4693:4756  require(whiteListTokens[token].isActive, \"Token is not active\") */\n      tag_234\n      jumpi\n      mload(0x40)\n      0x08c379a000000000000000000000000000000000000000000000000000000000\n      dup2\n      mstore\n      0x04\n      add\n      tag_235\n      swap1\n      tag_122\n      jump\t// in\n    tag_235:\n      mload(0x40)\n      dup1\n      swap2\n      sub\n      swap1\n      revert\n    tag_234:\n        /* \"StakingToken.sol\":4796:4817  rewardPerToken(token) */\n      tag_236\n        /* \"StakingToken.sol\":4811:4816  token */\n      dup3\n        /* \"StakingToken.sol\":4796:4810  rewardPerToken */\n      tag_117\n        /* \"StakingToken.sol\":4796:4817  rewardPerToken(token) */\n      jump\t// in\n    tag_236:\n        /* \"StakingToken.sol\":4766:4786  rewardPerTokenStored */\n      0x07\n        /* \"StakingToken.sol\":4766:4793  rewardPerTokenStored[token] */\n      0x00\n        /* \"StakingToken.sol\":4787:4792  token */\n      dup5\n        /* \"StakingToken.sol\":4766:4793  rewardPerTokenStored[token] */\n      0xffffffffffffffffffffffffffffffffffffffff\n      and\n      0xffffffffffffffffffffffffffffffffffffffff\n      and\n      dup2\n      mstore\n      0x20\n      add\n      swap1\n      dup2\n      mstore\n      0x20\n      add\n      0x00\n      keccak256\n        /* \"StakingToken.sol\":4766:4817  rewardPerTokenStored[token] = rewardPerToken(token) */\n      dup2\n      swap1\n      sstore\n      pop\n        /* \"StakingToken.sol\":4851:4866  block.timestamp */\n      timestamp\n        /* \"StakingToken.sol\":4827:4841  lastUpdateTime */\n      0x08\n        /* \"StakingToken.sol\":4827:4848  lastUpdateTime[token] */\n      0x00\n        /* \"StakingToken.sol\":4842:4847  token */\n      dup5\n        /* \"StakingToken.sol\":4827:4848  lastUpdateTime[token] */\n      0xffffffffffffffffffffffffffffffffffffffff\n      and\n      0xffffffffffffffffffffffffffffffffffffffff\n      and\n      dup2\n      mstore\n      0x20\n      add\n      swap1\n      dup2\n      mstore\n      0x20\n      add\n      0x00\n      keccak256\n        /* \"StakingToken.sol\":4827:4866  lastUpdateTime[token] = block.timestamp */\n      dup2\n      swap1\n      sstore\n      pop\n        /* \"StakingToken.sol\":4902:4924  earned(token, account) */\n      tag_237\n        /* \"StakingToken.sol\":4909:4914  token */\n      dup3\n        /* \"StakingToken.sol\":4916:4923  account */\n      dup3\n        /* \"StakingToken.sol\":4902:4908  earned */\n      tag_32\n        /* \"StakingToken.sol\":4902:4924  earned(token, account) */\n      jump\t// in\n    tag_237:\n        /* \"StakingToken.sol\":4876:4883  rewards */\n      0x05\n        /* \"StakingToken.sol\":4876:4890  rewards[token] */\n      0x00\n        /* \"StakingToken.sol\":4884:4889  token */\n      dup5\n        /* \"StakingToken.sol\":4876:4890  rewards[token] */\n      0xffffffffffffffffffffffffffffffffffffffff\n      and\n      0xffffffffffffffffffffffffffffffffffffffff\n      and\n      dup2\n      mstore\n      0x20\n      add\n      swap1\n      dup2\n      mstore\n      0x20\n      add\n      0x00\n      keccak256\n        /* \"StakingToken.sol\":4876:4899  rewards[token][account] */\n      0x00\n        /* \"StakingToken.sol\":4891:4898  account */\n      dup4\n        /* \"StakingToken.sol\":4876:4899  rewards[token][account] */\n      0xffffffffffffffffffffffffffffffffffffffff\n      and\n      0xffffffffffffffffffffffffffffffffffffffff\n      and\n      dup2\n      mstore\n      0x20\n      add\n      swap1\n      dup2\n      mstore\n      0x20\n      add\n      0x00\n      keccak256\n        /* \"StakingToken.sol\":4876:4924  rewards[token][account] = earned(token, account) */\n      dup2\n      swap1\n      sstore\n      pop\n        /* \"StakingToken.sol\":4975:4995  rewardPerTokenStored */\n      0x07\n        /* \"StakingToken.sol\":4975:5002  rewardPerTokenStored[token] */\n      0x00\n        /* \"StakingToken.sol\":4996:5001  token */\n      dup4\n        /* \"StakingToken.sol\":4975:5002  rewardPerTokenStored[token] */\n      0xffffffffffffffffffffffffffffffffffffffff\n      and\n      0xffffffffffffffffffffffffffffffffffffffff\n      and\n      dup2\n      mstore\n      0x20\n      add\n      swap1\n      dup2\n      mstore\n      0x20\n      add\n      0x00\n      keccak256\n      sload\n        /* \"StakingToken.sol\":4934:4956  userRewardPerTokenPaid */\n      0x06\n        /* \"StakingToken.sol\":4934:4963  userRewardPerTokenPaid[token] */\n      0x00\n        /* \"StakingToken.sol\":4957:4962  token */\n      dup5\n        /* \"StakingToken.sol\":4934:4963  userRewardPerTokenPaid[token] */\n      0xffffffffffffffffffffffffffffffffffffffff\n      and\n      0xffffffffffffffffffffffffffffffffffffffff\n      and\n      dup2\n      mstore\n      0x20\n      add\n      swap1\n      dup2\n      mstore\n      0x20\n      add\n      0x00\n      keccak256\n        /* \"StakingToken.sol\":4934:4972  userRewardPerTokenPaid[token][account] */\n      0x00\n        /* \"StakingToken.sol\":4964:4971  account */\n      dup4\n        /* \"StakingToken.sol\":4934:4972  userRewardPerTokenPaid[token][account] */\n      0xffffffffffffffffffffffffffffffffffffffff\n      and\n      0xffffffffffffffffffffffffffffffffffffffff\n      and\n      dup2\n      mstore\n      0x20\n      add\n      swap1\n      dup2\n      mstore\n      0x20\n      add\n      0x00\n      keccak256\n        /* \"StakingToken.sol\":4934:5002  userRewardPerTokenPaid[token][account] = rewardPerTokenStored[token] */\n      dup2\n      swap1\n      sstore\n      pop\n        /* \"StakingToken.sol\":5172:5187  whiteListTokens */\n      0x03\n        /* \"StakingToken.sol\":5172:5194  whiteListTokens[token] */\n      0x00\n        /* \"StakingToken.sol\":5188:5193  token */\n      dup6\n        /* \"StakingToken.sol\":5172:5194  whiteListTokens[token] */\n      0xffffffffffffffffffffffffffffffffffffffff\n      and\n      0xffffffffffffffffffffffffffffffffffffffff\n      and\n      dup2\n      mstore\n      0x20\n      add\n      swap1\n      dup2\n      mstore\n      0x20\n      add\n      0x00\n      keccak256\n        /* \"StakingToken.sol\":5172:5203  whiteListTokens[token].isActive */\n      0x01\n      add\n      0x00\n      swap1\n      sload\n      swap1\n      0x0100\n      exp\n      swap1\n      div\n      0xff\n      and\n        /* \"StakingToken.sol\":5164:5227  require(whiteListTokens[token].isActive, \"Token is not active\") */\n      tag_239\n      jumpi\n      mload(0x40)\n      0x08c379a000000000000000000000000000000000000000000000000000000000\n      dup2\n      mstore\n      0x04\n      add\n      tag_240\n      swap1\n      tag_122\n      jump\t// in\n    tag_240:\n      mload(0x40)\n      dup1\n      swap2\n      sub\n      swap1\n      revert\n    tag_239:\n        /* \"StakingToken.sol\":5254:5255  0 */\n      0x00\n        /* \"StakingToken.sol\":5245:5251  amount */\n      dup4\n        /* \"StakingToken.sol\":5245:5255  amount > 0 */\n      gt\n        /* \"StakingToken.sol\":5237:5292  require(amount > 0, \"Amount must be greater than zero\") */\n      tag_241\n      jumpi\n      mload(0x40)\n      0x08c379a000000000000000000000000000000000000000000000000000000000\n      dup2\n      mstore\n      0x04\n      add\n      tag_242\n      swap1\n      tag_184\n      jump\t// in\n    tag_242:\n      mload(0x40)\n      dup1\n      swap2\n      sub\n      swap1\n      revert\n    tag_241:\n        /* \"StakingToken.sol\":5329:5365  totalStakedTokens[token].add(amount) */\n      tag_243\n        /* \"StakingToken.sol\":5358:5364  amount */\n      dup4\n        /* \"StakingToken.sol\":5329:5346  totalStakedTokens */\n      0x09\n        /* \"StakingToken.sol\":5329:5353  totalStakedTokens[token] */\n      0x00\n        /* \"StakingToken.sol\":5347:5352  token */\n      dup8\n        /* \"StakingToken.sol\":5329:5353  totalStakedTokens[token] */\n      0xffffffffffffffffffffffffffffffffffffffff\n      and\n      0xffffffffffffffffffffffffffffffffffffffff\n      and\n      dup2\n      mstore\n      0x20\n      add\n      swap1\n      dup2\n      mstore\n      0x20\n      add\n      0x00\n      keccak256\n      sload\n        /* \"StakingToken.sol\":5329:5357  totalStakedTokens[token].add */\n      tag_131\n      swap1\n        /* \"StakingToken.sol\":5329:5365  totalStakedTokens[token].add(amount) */\n      swap2\n      swap1\n      0xffffffff\n      and\n      jump\t// in\n    tag_243:\n        /* \"StakingToken.sol\":5302:5319  totalStakedTokens */\n      0x09\n        /* \"StakingToken.sol\":5302:5326  totalStakedTokens[token] */\n      0x00\n        /* \"StakingToken.sol\":5320:5325  token */\n      dup7\n        /* \"StakingToken.sol\":5302:5326  totalStakedTokens[token] */\n      0xffffffffffffffffffffffffffffffffffffffff\n      and\n      0xffffffffffffffffffffffffffffffffffffffff\n      and\n      dup2\n      mstore\n      0x20\n      add\n      swap1\n      dup2\n      mstore\n      0x20\n      add\n      0x00\n      keccak256\n        /* \"StakingToken.sol\":5302:5365  totalStakedTokens[token] = totalStakedTokens[token].add(amount) */\n      dup2\n      swap1\n      sstore\n      pop\n        /* \"StakingToken.sol\":5410:5476  stakedBalance[token][msg.sender].add(... */\n      tag_244\n        /* \"StakingToken.sol\":5460:5466  amount */\n      dup4\n        /* \"StakingToken.sol\":5410:5423  stakedBalance */\n      0x04\n        /* \"StakingToken.sol\":5410:5430  stakedBalance[token] */\n      0x00\n        /* \"StakingToken.sol\":5424:5429  token */\n      dup8\n        /* \"StakingToken.sol\":5410:5430  stakedBalance[token] */\n      0xffffffffffffffffffffffffffffffffffffffff\n      and\n      0xffffffffffffffffffffffffffffffffffffffff\n      and\n      dup2\n      mstore\n      0x20\n      add\n      swap1\n      dup2\n      mstore\n      0x20\n      add\n      0x00\n      keccak256\n        /* \"StakingToken.sol\":5410:5442  stakedBalance[token][msg.sender] */\n      0x00\n        /* \"StakingToken.sol\":5431:5441  msg.sender */\n      caller\n        /* \"StakingToken.sol\":5410:5442  stakedBalance[token][msg.sender] */\n      0xffffffffffffffffffffffffffffffffffffffff\n      and\n      0xffffffffffffffffffffffffffffffffffffffff\n      and\n      dup2\n      mstore\n      0x20\n      add\n      swap1\n      dup2\n      mstore\n      0x20\n      add\n      0x00\n      keccak256\n      sload\n        /* \"StakingToken.sol\":5410:5446  stakedBalance[token][msg.sender].add */\n      tag_131\n      swap1\n        /* \"StakingToken.sol\":5410:5476  stakedBalance[token][msg.sender].add(... */\n      swap2\n      swap1\n      0xffffffff\n      and\n      jump\t// in\n    tag_244:\n        /* \"StakingToken.sol\":5375:5388  stakedBalance */\n      0x04\n        /* \"StakingToken.sol\":5375:5395  stakedBalance[token] */\n      0x00\n        /* \"StakingToken.sol\":5389:5394  token */\n      dup7\n        /* \"StakingToken.sol\":5375:5395  stakedBalance[token] */\n      0xffffffffffffffffffffffffffffffffffffffff\n      and\n      0xffffffffffffffffffffffffffffffffffffffff\n      and\n      dup2\n      mstore\n      0x20\n      add\n      swap1\n      dup2\n      mstore\n      0x20\n      add\n      0x00\n      keccak256\n        /* \"StakingToken.sol\":5375:5407  stakedBalance[token][msg.sender] */\n      0x00\n        /* \"StakingToken.sol\":5396:5406  msg.sender */\n      caller\n        /* \"StakingToken.sol\":5375:5407  stakedBalance[token][msg.sender] */\n      0xffffffffffffffffffffffffffffffffffffffff\n      and\n      0xffffffffffffffffffffffffffffffffffffffff\n      and\n      dup2\n      mstore\n      0x20\n      add\n      swap1\n      dup2\n      mstore\n      0x20\n      add\n      0x00\n      keccak256\n        /* \"StakingToken.sol\":5375:5476  stakedBalance[token][msg.sender] = stakedBalance[token][msg.sender].add(... */\n      dup2\n      swap1\n      sstore\n      pop\n        /* \"StakingToken.sol\":5517:5523  amount */\n      dup3\n        /* \"StakingToken.sol\":5510:5515  token */\n      dup5\n        /* \"StakingToken.sol\":5491:5524  Staked(msg.sender, token, amount) */\n      0xffffffffffffffffffffffffffffffffffffffff\n      and\n        /* \"StakingToken.sol\":5498:5508  msg.sender */\n      caller\n        /* \"StakingToken.sol\":5491:5524  Staked(msg.sender, token, amount) */\n      0xffffffffffffffffffffffffffffffffffffffff\n      and\n      0x5dac0c1b1112564a045ba943c9d50270893e8e826c49be8e7073adc713ab7bd7\n      mload(0x40)\n      mload(0x40)\n      dup1\n      swap2\n      sub\n      swap1\n      log4\n        /* \"StakingToken.sol\":5534:5546  bool success */\n      0x00\n        /* \"StakingToken.sol\":5556:5561  token */\n      dup5\n        /* \"StakingToken.sol\":5549:5575  IERC20(token).transferFrom */\n      0xffffffffffffffffffffffffffffffffffffffff\n      and\n      0x23b872dd\n        /* \"StakingToken.sol\":5589:5599  msg.sender */\n      caller\n        /* \"StakingToken.sol\":5621:5625  this */\n      address\n        /* \"StakingToken.sol\":5640:5646  amount */\n      dup8\n        /* \"StakingToken.sol\":5549:5656  IERC20(token).transferFrom(... */\n      mload(0x40)\n      dup5\n      0xffffffff\n      and\n      0xe0\n      shl\n      dup2\n      mstore\n      0x04\n      add\n      tag_245\n      swap4\n      swap3\n      swap2\n      swap1\n      tag_246\n      jump\t// in\n    tag_245:\n      0x20\n      mload(0x40)\n      dup1\n      dup4\n      sub\n      dup2\n      0x00\n      dup8\n      gas\n      call\n      iszero\n      dup1\n      iszero\n      tag_248\n      jumpi\n      returndatasize\n      0x00\n      dup1\n      returndatacopy\n      revert(0x00, returndatasize)\n    tag_248:\n      pop\n      pop\n      pop\n      pop\n      mload(0x40)\n      returndatasize\n      not(0x1f)\n      0x1f\n      dup3\n      add\n      and\n      dup3\n      add\n      dup1\n      0x40\n      mstore\n      pop\n      dup2\n      add\n      swap1\n      tag_249\n      swap2\n      swap1\n      tag_195\n      jump\t// in\n    tag_249:\n        /* \"StakingToken.sol\":5534:5656  bool success = IERC20(token).transferFrom(... */\n      swap1\n      pop\n        /* \"StakingToken.sol\":5674:5681  success */\n      dup1\n        /* \"StakingToken.sol\":5666:5701  require(success, \"Transfer Failed\") */\n      tag_250\n      jumpi\n      mload(0x40)\n      0x08c379a000000000000000000000000000000000000000000000000000000000\n      dup2\n      mstore\n      0x04\n      add\n      tag_251\n      swap1\n      tag_198\n      jump\t// in\n    tag_251:\n      mload(0x40)\n      dup1\n      swap2\n      sub\n      swap1\n      revert\n    tag_250:\n        /* \"StakingToken.sol\":5154:5708  {... */\n      pop\n        /* \"@openzeppelin/contracts/security/ReentrancyGuard.sol\":2292:2293  _ */\n      pop\n      pop\n        /* \"@openzeppelin/contracts/security/ReentrancyGuard.sol\":2303:2323  _nonReentrantAfter() */\n      tag_252\n        /* \"@openzeppelin/contracts/security/ReentrancyGuard.sol\":2303:2321  _nonReentrantAfter */\n      tag_200\n        /* \"@openzeppelin/contracts/security/ReentrancyGuard.sol\":2303:2323  _nonReentrantAfter() */\n      jump\t// in\n    tag_252:\n        /* \"StakingToken.sol\":5026:5708  function stake(address token, uint256 amount)... */\n      pop\n      pop\n      jump\t// out\n        /* \"StakingToken.sol\":2681:2965  function addTokenToWhiteList(address token, string calldata tokenName)... */\n    tag_98:\n        /* \"StakingToken.sol\":2484:2494  msg.sender */\n      caller\n        /* \"StakingToken.sol\":2475:2494  owner == msg.sender */\n      0xffffffffffffffffffffffffffffffffffffffff\n      and\n        /* \"StakingToken.sol\":2475:2480  owner */\n      0x01\n      0x00\n      swap1\n      sload\n      swap1\n      0x0100\n      exp\n      swap1\n      div\n      0xffffffffffffffffffffffffffffffffffffffff\n      and\n        /* \"StakingToken.sol\":2475:2494  owner == msg.sender */\n      0xffffffffffffffffffffffffffffffffffffffff\n      and\n      eq\n        /* \"StakingToken.sol\":2467:2531  require(owner == msg.sender, \"Ownable: caller is not the owner\") */\n      tag_254\n      jumpi\n      mload(0x40)\n      0x08c379a000000000000000000000000000000000000000000000000000000000\n      dup2\n      mstore\n      0x04\n      add\n      tag_255\n      swap1\n      tag_256\n      jump\t// in\n    tag_255:\n      mload(0x40)\n      dup1\n      swap2\n      sub\n      swap1\n      revert\n    tag_254:\n        /* \"StakingToken.sol\":2810:2825  whiteListTokens */\n      0x03\n        /* \"StakingToken.sol\":2810:2832  whiteListTokens[token] */\n      0x00\n        /* \"StakingToken.sol\":2826:2831  token */\n      dup5\n        /* \"StakingToken.sol\":2810:2832  whiteListTokens[token] */\n      0xffffffffffffffffffffffffffffffffffffffff\n      and\n      0xffffffffffffffffffffffffffffffffffffffff\n      and\n      dup2\n      mstore\n      0x20\n      add\n      swap1\n      dup2\n      mstore\n      0x20\n      add\n      0x00\n      keccak256\n        /* \"StakingToken.sol\":2810:2841  whiteListTokens[token].isActive */\n      0x01\n      add\n      0x00\n      swap1\n      sload\n      swap1\n      0x0100\n      exp\n      swap1\n      div\n      0xff\n      and\n        /* \"StakingToken.sol\":2809:2841  !whiteListTokens[token].isActive */\n      iszero\n        /* \"StakingToken.sol\":2801:2865  require(!whiteListTokens[token].isActive, \"Token already added\") */\n      tag_258\n      jumpi\n      mload(0x40)\n      0x08c379a000000000000000000000000000000000000000000000000000000000\n      dup2\n      mstore\n      0x04\n      add\n      tag_259\n      swap1\n      tag_260\n      jump\t// in\n    tag_259:\n      mload(0x40)\n      dup1\n      swap2\n      sub\n      swap1\n      revert\n    tag_258:\n        /* \"StakingToken.sol\":2900:2926  TokenInfo(tokenName, true) */\n      mload(0x40)\n      dup1\n      0x40\n      add\n      0x40\n      mstore\n      dup1\n        /* \"StakingToken.sol\":2910:2919  tokenName */\n      dup4\n      dup4\n        /* \"StakingToken.sol\":2900:2926  TokenInfo(tokenName, true) */\n      dup1\n      dup1\n      0x1f\n      add\n      0x20\n      dup1\n      swap2\n      div\n      mul\n      0x20\n      add\n      mload(0x40)\n      swap1\n      dup2\n      add\n      0x40\n      mstore\n      dup1\n      swap4\n      swap3\n      swap2\n      swap1\n      dup2\n      dup2\n      mstore\n      0x20\n      add\n      dup4\n      dup4\n      dup1\n      dup3\n      dup5\n      calldatacopy\n      0x00\n      dup2\n      dup5\n      add\n      mstore\n      not(0x1f)\n      0x1f\n      dup3\n      add\n      and\n      swap1\n      pop\n      dup1\n      dup4\n      add\n      swap3\n      pop\n      pop\n      pop\n      pop\n      pop\n      pop\n      pop\n      dup2\n      mstore\n      0x20\n      add\n        /* \"StakingToken.sol\":2921:2925  true */\n      0x01\n        /* \"StakingToken.sol\":2900:2926  TokenInfo(tokenName, true) */\n      iszero\n      iszero\n      dup2\n      mstore\n      pop\n        /* \"StakingToken.sol\":2875:2890  whiteListTokens */\n      0x03\n        /* \"StakingToken.sol\":2875:2897  whiteListTokens[token] */\n      0x00\n        /* \"StakingToken.sol\":2891:2896  token */\n      dup6\n        /* \"StakingToken.sol\":2875:2897  whiteListTokens[token] */\n      0xffffffffffffffffffffffffffffffffffffffff\n      and\n      0xffffffffffffffffffffffffffffffffffffffff\n      and\n      dup2\n      mstore\n      0x20\n      add\n      swap1\n      dup2\n      mstore\n      0x20\n      add\n      0x00\n      keccak256\n        /* \"StakingToken.sol\":2875:2926  whiteListTokens[token] = TokenInfo(tokenName, true) */\n      0x00\n      dup3\n      add\n      mload\n      dup2\n      0x00\n      add\n      swap1\n      dup2\n      tag_261\n      swap2\n      swap1\n      tag_262\n      jump\t// in\n    tag_261:\n      pop\n      0x20\n      dup3\n      add\n      mload\n      dup2\n      0x01\n      add\n      exp(0x0100, 0x00)\n      dup2\n      sload\n      dup2\n      0xff\n      mul\n      not\n      and\n      swap1\n      dup4\n      iszero\n      iszero\n      mul\n      or\n      swap1\n      sstore\n      pop\n      swap1\n      pop\n      pop\n        /* \"StakingToken.sol\":2952:2957  token */\n      dup3\n        /* \"StakingToken.sol\":2941:2958  TokenAdded(token) */\n      0xffffffffffffffffffffffffffffffffffffffff\n      and\n      0x784c8f4dbf0ffedd6e72c76501c545a70f8b203b30a26ce542bf92ba87c248a4\n      mload(0x40)\n      mload(0x40)\n      dup1\n      swap2\n      sub\n      swap1\n      log2\n        /* \"StakingToken.sol\":2681:2965  function addTokenToWhiteList(address token, string calldata tokenName)... */\n      pop\n      pop\n      pop\n      jump\t// out\n        /* \"StakingToken.sol\":1044:1096  mapping(address => uint256) public totalStakedTokens */\n    tag_101:\n      mstore(0x20, 0x09)\n      dup1\n      0x00\n      mstore\n      keccak256(0x00, 0x40)\n      0x00\n      swap2\n      pop\n      swap1\n      pop\n      sload\n      dup2\n      jump\t// out\n        /* \"StakingToken.sol\":6642:7151  function getReward(address token)... */\n    tag_105:\n        /* \"@openzeppelin/contracts/security/ReentrancyGuard.sol\":2261:2282  _nonReentrantBefore() */\n      tag_264\n        /* \"@openzeppelin/contracts/security/ReentrancyGuard.sol\":2261:2280  _nonReentrantBefore */\n      tag_173\n        /* \"@openzeppelin/contracts/security/ReentrancyGuard.sol\":2261:2282  _nonReentrantBefore() */\n      jump\t// in\n    tag_264:\n        /* \"StakingToken.sol\":6735:6740  token */\n      dup1\n        /* \"StakingToken.sol\":6742:6752  msg.sender */\n      caller\n        /* \"StakingToken.sol\":4701:4716  whiteListTokens */\n      0x03\n        /* \"StakingToken.sol\":4701:4723  whiteListTokens[token] */\n      0x00\n        /* \"StakingToken.sol\":4717:4722  token */\n      dup4\n        /* \"StakingToken.sol\":4701:4723  whiteListTokens[token] */\n      0xffffffffffffffffffffffffffffffffffffffff\n      and\n      0xffffffffffffffffffffffffffffffffffffffff\n      and\n      dup2\n      mstore\n      0x20\n      add\n      swap1\n      dup2\n      mstore\n      0x20\n      add\n      0x00\n      keccak256\n        /* \"StakingToken.sol\":4701:4732  whiteListTokens[token].isActive */\n      0x01\n      add\n      0x00\n      swap1\n      sload\n      swap1\n      0x0100\n      exp\n      swap1\n      div\n      0xff\n      and\n        /* \"StakingToken.sol\":4693:4756  require(whiteListTokens[token].isActive, \"Token is not active\") */\n      tag_266\n      jumpi\n      mload(0x40)\n      0x08c379a000000000000000000000000000000000000000000000000000000000\n      dup2\n      mstore\n      0x04\n      add\n      tag_267\n      swap1\n      tag_122\n      jump\t// in\n    tag_267:\n      mload(0x40)\n      dup1\n      swap2\n      sub\n      swap1\n      revert\n    tag_266:\n        /* \"StakingToken.sol\":4796:4817  rewardPerToken(token) */\n      tag_268\n        /* \"StakingToken.sol\":4811:4816  token */\n      dup3\n        /* \"StakingToken.sol\":4796:4810  rewardPerToken */\n      tag_117\n        /* \"StakingToken.sol\":4796:4817  rewardPerToken(token) */\n      jump\t// in\n    tag_268:\n        /* \"StakingToken.sol\":4766:4786  rewardPerTokenStored */\n      0x07\n        /* \"StakingToken.sol\":4766:4793  rewardPerTokenStored[token] */\n      0x00\n        /* \"StakingToken.sol\":4787:4792  token */\n      dup5\n        /* \"StakingToken.sol\":4766:4793  rewardPerTokenStored[token] */\n      0xffffffffffffffffffffffffffffffffffffffff\n      and\n      0xffffffffffffffffffffffffffffffffffffffff\n      and\n      dup2\n      mstore\n      0x20\n      add\n      swap1\n      dup2\n      mstore\n      0x20\n      add\n      0x00\n      keccak256\n        /* \"StakingToken.sol\":4766:4817  rewardPerTokenStored[token] = rewardPerToken(token) */\n      dup2\n      swap1\n      sstore\n      pop\n        /* \"StakingToken.sol\":4851:4866  block.timestamp */\n      timestamp\n        /* \"StakingToken.sol\":4827:4841  lastUpdateTime */\n      0x08\n        /* \"StakingToken.sol\":4827:4848  lastUpdateTime[token] */\n      0x00\n        /* \"StakingToken.sol\":4842:4847  token */\n      dup5\n        /* \"StakingToken.sol\":4827:4848  lastUpdateTime[token] */\n      0xffffffffffffffffffffffffffffffffffffffff\n      and\n      0xffffffffffffffffffffffffffffffffffffffff\n      and\n      dup2\n      mstore\n      0x20\n      add\n      swap1\n      dup2\n      mstore\n      0x20\n      add\n      0x00\n      keccak256\n        /* \"StakingToken.sol\":4827:4866  lastUpdateTime[token] = block.timestamp */\n      dup2\n      swap1\n      sstore\n      pop\n        /* \"StakingToken.sol\":4902:4924  earned(token, account) */\n      tag_269\n        /* \"StakingToken.sol\":4909:4914  token */\n      dup3\n        /* \"StakingToken.sol\":4916:4923  account */\n      dup3\n        /* \"StakingToken.sol\":4902:4908  earned */\n      tag_32\n        /* \"StakingToken.sol\":4902:4924  earned(token, account) */\n      jump\t// in\n    tag_269:\n        /* \"StakingToken.sol\":4876:4883  rewards */\n      0x05\n        /* \"StakingToken.sol\":4876:4890  rewards[token] */\n      0x00\n        /* \"StakingToken.sol\":4884:4889  token */\n      dup5\n        /* \"StakingToken.sol\":4876:4890  rewards[token] */\n      0xffffffffffffffffffffffffffffffffffffffff\n      and\n      0xffffffffffffffffffffffffffffffffffffffff\n      and\n      dup2\n      mstore\n      0x20\n      add\n      swap1\n      dup2\n      mstore\n      0x20\n      add\n      0x00\n      keccak256\n        /* \"StakingToken.sol\":4876:4899  rewards[token][account] */\n      0x00\n        /* \"StakingToken.sol\":4891:4898  account */\n      dup4\n        /* \"StakingToken.sol\":4876:4899  rewards[token][account] */\n      0xffffffffffffffffffffffffffffffffffffffff\n      and\n      0xffffffffffffffffffffffffffffffffffffffff\n      and\n      dup2\n      mstore\n      0x20\n      add\n      swap1\n      dup2\n      mstore\n      0x20\n      add\n      0x00\n      keccak256\n        /* \"StakingToken.sol\":4876:4924  rewards[token][account] = earned(token, account) */\n      dup2\n      swap1\n      sstore\n      pop\n        /* \"StakingToken.sol\":4975:4995  rewardPerTokenStored */\n      0x07\n        /* \"StakingToken.sol\":4975:5002  rewardPerTokenStored[token] */\n      0x00\n        /* \"StakingToken.sol\":4996:5001  token */\n      dup4\n        /* \"StakingToken.sol\":4975:5002  rewardPerTokenStored[token] */\n      0xffffffffffffffffffffffffffffffffffffffff\n      and\n      0xffffffffffffffffffffffffffffffffffffffff\n      and\n      dup2\n      mstore\n      0x20\n      add\n      swap1\n      dup2\n      mstore\n      0x20\n      add\n      0x00\n      keccak256\n      sload\n        /* \"StakingToken.sol\":4934:4956  userRewardPerTokenPaid */\n      0x06\n        /* \"StakingToken.sol\":4934:4963  userRewardPerTokenPaid[token] */\n      0x00\n        /* \"StakingToken.sol\":4957:4962  token */\n      dup5\n        /* \"StakingToken.sol\":4934:4963  userRewardPerTokenPaid[token] */\n      0xffffffffffffffffffffffffffffffffffffffff\n      and\n      0xffffffffffffffffffffffffffffffffffffffff\n      and\n      dup2\n      mstore\n      0x20\n      add\n      swap1\n      dup2\n      mstore\n      0x20\n      add\n      0x00\n      keccak256\n        /* \"StakingToken.sol\":4934:4972  userRewardPerTokenPaid[token][account] */\n      0x00\n        /* \"StakingToken.sol\":4964:4971  account */\n      dup4\n        /* \"StakingToken.sol\":4934:4972  userRewardPerTokenPaid[token][account] */\n      0xffffffffffffffffffffffffffffffffffffffff\n      and\n      0xffffffffffffffffffffffffffffffffffffffff\n      and\n      dup2\n      mstore\n      0x20\n      add\n      swap1\n      dup2\n      mstore\n      0x20\n      add\n      0x00\n      keccak256\n        /* \"StakingToken.sol\":4934:5002  userRewardPerTokenPaid[token][account] = rewardPerTokenStored[token] */\n      dup2\n      swap1\n      sstore\n      pop\n        /* \"StakingToken.sol\":6776:6791  whiteListTokens */\n      0x03\n        /* \"StakingToken.sol\":6776:6798  whiteListTokens[token] */\n      0x00\n        /* \"StakingToken.sol\":6792:6797  token */\n      dup5\n        /* \"StakingToken.sol\":6776:6798  whiteListTokens[token] */\n      0xffffffffffffffffffffffffffffffffffffffff\n      and\n      0xffffffffffffffffffffffffffffffffffffffff\n      and\n      dup2\n      mstore\n      0x20\n      add\n      swap1\n      dup2\n      mstore\n      0x20\n      add\n      0x00\n      keccak256\n        /* \"StakingToken.sol\":6776:6807  whiteListTokens[token].isActive */\n      0x01\n      add\n      0x00\n      swap1\n      sload\n      swap1\n      0x0100\n      exp\n      swap1\n      div\n      0xff\n      and\n        /* \"StakingToken.sol\":6768:6831  require(whiteListTokens[token].isActive, \"Token is not active\") */\n      tag_271\n      jumpi\n      mload(0x40)\n      0x08c379a000000000000000000000000000000000000000000000000000000000\n      dup2\n      mstore\n      0x04\n      add\n      tag_272\n      swap1\n      tag_122\n      jump\t// in\n    tag_272:\n      mload(0x40)\n      dup1\n      swap2\n      sub\n      swap1\n      revert\n    tag_271:\n        /* \"StakingToken.sol\":6841:6855  uint256 reward */\n      0x00\n        /* \"StakingToken.sol\":6858:6865  rewards */\n      0x05\n        /* \"StakingToken.sol\":6858:6872  rewards[token] */\n      0x00\n        /* \"StakingToken.sol\":6866:6871  token */\n      dup6\n        /* \"StakingToken.sol\":6858:6872  rewards[token] */\n      0xffffffffffffffffffffffffffffffffffffffff\n      and\n      0xffffffffffffffffffffffffffffffffffffffff\n      and\n      dup2\n      mstore\n      0x20\n      add\n      swap1\n      dup2\n      mstore\n      0x20\n      add\n      0x00\n      keccak256\n        /* \"StakingToken.sol\":6858:6884  rewards[token][msg.sender] */\n      0x00\n        /* \"StakingToken.sol\":6873:6883  msg.sender */\n      caller\n        /* \"StakingToken.sol\":6858:6884  rewards[token][msg.sender] */\n      0xffffffffffffffffffffffffffffffffffffffff\n      and\n      0xffffffffffffffffffffffffffffffffffffffff\n      and\n      dup2\n      mstore\n      0x20\n      add\n      swap1\n      dup2\n      mstore\n      0x20\n      add\n      0x00\n      keccak256\n      sload\n        /* \"StakingToken.sol\":6841:6884  uint256 reward = rewards[token][msg.sender] */\n      swap1\n      pop\n        /* \"StakingToken.sol\":6911:6912  0 */\n      0x00\n        /* \"StakingToken.sol\":6902:6908  reward */\n      dup2\n        /* \"StakingToken.sol\":6902:6912  reward > 0 */\n      gt\n        /* \"StakingToken.sol\":6894:6936  require(reward > 0, \"No rewards to claim\") */\n      tag_273\n      jumpi\n      mload(0x40)\n      0x08c379a000000000000000000000000000000000000000000000000000000000\n      dup2\n      mstore\n      0x04\n      add\n      tag_274\n      swap1\n      tag_275\n      jump\t// in\n    tag_274:\n      mload(0x40)\n      dup1\n      swap2\n      sub\n      swap1\n      revert\n    tag_273:\n        /* \"StakingToken.sol\":6975:6976  0 */\n      0x00\n        /* \"StakingToken.sol\":6946:6953  rewards */\n      0x05\n        /* \"StakingToken.sol\":6946:6960  rewards[token] */\n      0x00\n        /* \"StakingToken.sol\":6954:6959  token */\n      dup7\n        /* \"StakingToken.sol\":6946:6960  rewards[token] */\n      0xffffffffffffffffffffffffffffffffffffffff\n      and\n      0xffffffffffffffffffffffffffffffffffffffff\n      and\n      dup2\n      mstore\n      0x20\n      add\n      swap1\n      dup2\n      mstore\n      0x20\n      add\n      0x00\n      keccak256\n        /* \"StakingToken.sol\":6946:6972  rewards[token][msg.sender] */\n      0x00\n        /* \"StakingToken.sol\":6961:6971  msg.sender */\n      caller\n        /* \"StakingToken.sol\":6946:6972  rewards[token][msg.sender] */\n      0xffffffffffffffffffffffffffffffffffffffff\n      and\n      0xffffffffffffffffffffffffffffffffffffffff\n      and\n      dup2\n      mstore\n      0x20\n      add\n      swap1\n      dup2\n      mstore\n      0x20\n      add\n      0x00\n      keccak256\n        /* \"StakingToken.sol\":6946:6976  rewards[token][msg.sender] = 0 */\n      dup2\n      swap1\n      sstore\n      pop\n        /* \"StakingToken.sol\":7025:7031  reward */\n      dup1\n        /* \"StakingToken.sol\":7018:7023  token */\n      dup5\n        /* \"StakingToken.sol\":6991:7032  RewardsClaimed(msg.sender, token, reward) */\n      0xffffffffffffffffffffffffffffffffffffffff\n      and\n        /* \"StakingToken.sol\":7006:7016  msg.sender */\n      caller\n        /* \"StakingToken.sol\":6991:7032  RewardsClaimed(msg.sender, token, reward) */\n      0xffffffffffffffffffffffffffffffffffffffff\n      and\n      0x9310ccfcb8de723f578a9e4282ea9f521f05ae40dc08f3068dfad528a65ee3c7\n      mload(0x40)\n      mload(0x40)\n      dup1\n      swap2\n      sub\n      swap1\n      log4\n        /* \"StakingToken.sol\":7042:7054  bool success */\n      0x00\n        /* \"StakingToken.sol\":7064:7069  token */\n      dup5\n        /* \"StakingToken.sol\":7057:7079  IERC20(token).transfer */\n      0xffffffffffffffffffffffffffffffffffffffff\n      and\n      0xa9059cbb\n        /* \"StakingToken.sol\":7080:7090  msg.sender */\n      caller\n        /* \"StakingToken.sol\":7092:7098  reward */\n      dup5\n        /* \"StakingToken.sol\":7057:7099  IERC20(token).transfer(msg.sender, reward) */\n      mload(0x40)\n      dup4\n      0xffffffff\n      and\n      0xe0\n      shl\n      dup2\n      mstore\n      0x04\n      add\n      tag_276\n      swap3\n      swap2\n      swap1\n      tag_191\n      jump\t// in\n    tag_276:\n      0x20\n      mload(0x40)\n      dup1\n      dup4\n      sub\n      dup2\n      0x00\n      dup8\n      gas\n      call\n      iszero\n      dup1\n      iszero\n      tag_278\n      jumpi\n      returndatasize\n      0x00\n      dup1\n      returndatacopy\n      revert(0x00, returndatasize)\n    tag_278:\n      pop\n      pop\n      pop\n      pop\n      mload(0x40)\n      returndatasize\n      not(0x1f)\n      0x1f\n      dup3\n      add\n      and\n      dup3\n      add\n      dup1\n      0x40\n      mstore\n      pop\n      dup2\n      add\n      swap1\n      tag_279\n      swap2\n      swap1\n      tag_195\n      jump\t// in\n    tag_279:\n        /* \"StakingToken.sol\":7042:7099  bool success = IERC20(token).transfer(msg.sender, reward) */\n      swap1\n      pop\n        /* \"StakingToken.sol\":7117:7124  success */\n      dup1\n        /* \"StakingToken.sol\":7109:7144  require(success, \"Transfer Failed\") */\n      tag_280\n      jumpi\n      mload(0x40)\n      0x08c379a000000000000000000000000000000000000000000000000000000000\n      dup2\n      mstore\n      0x04\n      add\n      tag_281\n      swap1\n      tag_198\n      jump\t// in\n    tag_281:\n      mload(0x40)\n      dup1\n      swap2\n      sub\n      swap1\n      revert\n    tag_280:\n        /* \"StakingToken.sol\":6758:7151  {... */\n      pop\n      pop\n        /* \"@openzeppelin/contracts/security/ReentrancyGuard.sol\":2292:2293  _ */\n      pop\n      pop\n        /* \"@openzeppelin/contracts/security/ReentrancyGuard.sol\":2303:2323  _nonReentrantAfter() */\n      tag_282\n        /* \"@openzeppelin/contracts/security/ReentrancyGuard.sol\":2303:2321  _nonReentrantAfter */\n      tag_200\n        /* \"@openzeppelin/contracts/security/ReentrancyGuard.sol\":2303:2323  _nonReentrantAfter() */\n      jump\t// in\n    tag_282:\n        /* \"StakingToken.sol\":6642:7151  function getReward(address token)... */\n      pop\n      jump\t// out\n        /* \"StakingToken.sol\":637:689  mapping(address => TokenInfo) public whiteListTokens */\n    tag_108:\n      mstore(0x20, 0x03)\n      dup1\n      0x00\n      mstore\n      keccak256(0x00, 0x40)\n      0x00\n      swap2\n      pop\n      swap1\n      pop\n      dup1\n      0x00\n      add\n      dup1\n      sload\n      tag_283\n      swap1\n      tag_284\n      jump\t// in\n    tag_283:\n      dup1\n      0x1f\n      add\n      0x20\n      dup1\n      swap2\n      div\n      mul\n      0x20\n      add\n      mload(0x40)\n      swap1\n      dup2\n      add\n      0x40\n      mstore\n      dup1\n      swap3\n      swap2\n      swap1\n      dup2\n      dup2\n      mstore\n      0x20\n      add\n      dup3\n      dup1\n      sload\n      tag_285\n      swap1\n      tag_284\n      jump\t// in\n    tag_285:\n      dup1\n      iszero\n      tag_286\n      jumpi\n      dup1\n      0x1f\n      lt\n      tag_287\n      jumpi\n      0x0100\n      dup1\n      dup4\n      sload\n      div\n      mul\n      dup4\n      mstore\n      swap2\n      0x20\n      add\n      swap2\n      jump(tag_286)\n    tag_287:\n      dup3\n      add\n      swap2\n      swap1\n      0x00\n      mstore\n      keccak256(0x00, 0x20)\n      swap1\n    tag_288:\n      dup2\n      sload\n      dup2\n      mstore\n      swap1\n      0x01\n      add\n      swap1\n      0x20\n      add\n      dup1\n      dup4\n      gt\n      tag_288\n      jumpi\n      dup3\n      swap1\n      sub\n      0x1f\n      and\n      dup3\n      add\n      swap2\n    tag_286:\n      pop\n      pop\n      pop\n      pop\n      pop\n      swap1\n      dup1\n      0x01\n      add\n      0x00\n      swap1\n      sload\n      swap1\n      0x0100\n      exp\n      swap1\n      div\n      0xff\n      and\n      swap1\n      pop\n      dup3\n      jump\t// out\n        /* \"StakingToken.sol\":769:831  mapping(address => mapping(address => uint256)) public rewards */\n    tag_113:\n      mstore(0x20, 0x05)\n      dup2\n      0x00\n      mstore\n      mstore(0x20, keccak256(0x00, 0x40))\n      dup1\n      0x00\n      mstore\n      keccak256(0x00, 0x40)\n      0x00\n      swap2\n      pop\n      swap2\n      pop\n      pop\n      sload\n      dup2\n      jump\t// out\n        /* \"StakingToken.sol\":3601:4128  function rewardPerToken(address token) public view returns (uint256) {... */\n    tag_117:\n        /* \"StakingToken.sol\":3661:3668  uint256 */\n      0x00\n        /* \"StakingToken.sol\":3688:3703  whiteListTokens */\n      0x03\n        /* \"StakingToken.sol\":3688:3710  whiteListTokens[token] */\n      0x00\n        /* \"StakingToken.sol\":3704:3709  token */\n      dup4\n        /* \"StakingToken.sol\":3688:3710  whiteListTokens[token] */\n      0xffffffffffffffffffffffffffffffffffffffff\n      and\n      0xffffffffffffffffffffffffffffffffffffffff\n      and\n      dup2\n      mstore\n      0x20\n      add\n      swap1\n      dup2\n      mstore\n      0x20\n      add\n      0x00\n      keccak256\n        /* \"StakingToken.sol\":3688:3719  whiteListTokens[token].isActive */\n      0x01\n      add\n      0x00\n      swap1\n      sload\n      swap1\n      0x0100\n      exp\n      swap1\n      div\n      0xff\n      and\n        /* \"StakingToken.sol\":3680:3743  require(whiteListTokens[token].isActive, \"Token is not active\") */\n      tag_290\n      jumpi\n      mload(0x40)\n      0x08c379a000000000000000000000000000000000000000000000000000000000\n      dup2\n      mstore\n      0x04\n      add\n      tag_291\n      swap1\n      tag_122\n      jump\t// in\n    tag_291:\n      mload(0x40)\n      dup1\n      swap2\n      sub\n      swap1\n      revert\n    tag_290:\n        /* \"StakingToken.sol\":3785:3786  0 */\n      0x00\n        /* \"StakingToken.sol\":3757:3774  totalStakedTokens */\n      0x09\n        /* \"StakingToken.sol\":3757:3781  totalStakedTokens[token] */\n      0x00\n        /* \"StakingToken.sol\":3775:3780  token */\n      dup5\n        /* \"StakingToken.sol\":3757:3781  totalStakedTokens[token] */\n      0xffffffffffffffffffffffffffffffffffffffff\n      and\n      0xffffffffffffffffffffffffffffffffffffffff\n      and\n      dup2\n      mstore\n      0x20\n      add\n      swap1\n      dup2\n      mstore\n      0x20\n      add\n      0x00\n      keccak256\n      sload\n        /* \"StakingToken.sol\":3757:3786  totalStakedTokens[token] == 0 */\n      sub\n        /* \"StakingToken.sol\":3753:3847  if (totalStakedTokens[token] == 0) {... */\n      tag_292\n      jumpi\n        /* \"StakingToken.sol\":3809:3829  rewardPerTokenStored */\n      0x07\n        /* \"StakingToken.sol\":3809:3836  rewardPerTokenStored[token] */\n      0x00\n        /* \"StakingToken.sol\":3830:3835  token */\n      dup4\n        /* \"StakingToken.sol\":3809:3836  rewardPerTokenStored[token] */\n      0xffffffffffffffffffffffffffffffffffffffff\n      and\n      0xffffffffffffffffffffffffffffffffffffffff\n      and\n      dup2\n      mstore\n      0x20\n      add\n      swap1\n      dup2\n      mstore\n      0x20\n      add\n      0x00\n      keccak256\n      sload\n        /* \"StakingToken.sol\":3802:3836  return rewardPerTokenStored[token] */\n      swap1\n      pop\n      jump(tag_289)\n        /* \"StakingToken.sol\":3753:3847  if (totalStakedTokens[token] == 0) {... */\n    tag_292:\n        /* \"StakingToken.sol\":3856:3873  uint256 totalTime */\n      0x00\n        /* \"StakingToken.sol\":3876:3918  block.timestamp.sub(lastUpdateTime[token]) */\n      tag_293\n        /* \"StakingToken.sol\":3896:3910  lastUpdateTime */\n      0x08\n        /* \"StakingToken.sol\":3896:3917  lastUpdateTime[token] */\n      0x00\n        /* \"StakingToken.sol\":3911:3916  token */\n      dup6\n        /* \"StakingToken.sol\":3896:3917  lastUpdateTime[token] */\n      0xffffffffffffffffffffffffffffffffffffffff\n      and\n      0xffffffffffffffffffffffffffffffffffffffff\n      and\n      dup2\n      mstore\n      0x20\n      add\n      swap1\n      dup2\n      mstore\n      0x20\n      add\n      0x00\n      keccak256\n      sload\n        /* \"StakingToken.sol\":3876:3891  block.timestamp */\n      timestamp\n        /* \"StakingToken.sol\":3876:3895  block.timestamp.sub */\n      tag_128\n      swap1\n        /* \"StakingToken.sol\":3876:3918  block.timestamp.sub(lastUpdateTime[token]) */\n      swap2\n      swap1\n      0xffffffff\n      and\n      jump\t// in\n    tag_293:\n        /* \"StakingToken.sol\":3856:3918  uint256 totalTime = block.timestamp.sub(lastUpdateTime[token]) */\n      swap1\n      pop\n        /* \"StakingToken.sol\":3928:3948  uint256 totalRewards */\n      0x00\n        /* \"StakingToken.sol\":3951:3977  REWARD_RATE.mul(totalTime) */\n      tag_294\n        /* \"StakingToken.sol\":3967:3976  totalTime */\n      dup3\n        /* \"StakingToken.sol\":3951:3962  REWARD_RATE */\n      sload(0x02)\n        /* \"StakingToken.sol\":3951:3966  REWARD_RATE.mul */\n      tag_129\n      swap1\n        /* \"StakingToken.sol\":3951:3977  REWARD_RATE.mul(totalTime) */\n      swap2\n      swap1\n      0xffffffff\n      and\n      jump\t// in\n    tag_294:\n        /* \"StakingToken.sol\":3928:3977  uint256 totalRewards = REWARD_RATE.mul(totalTime) */\n      swap1\n      pop\n        /* \"StakingToken.sol\":4006:4121  rewardPerTokenStored[token].add(... */\n      tag_295\n        /* \"StakingToken.sol\":4055:4107  totalRewards.mul(1e18).div(totalStakedTokens[token]) */\n      tag_296\n        /* \"StakingToken.sol\":4082:4099  totalStakedTokens */\n      0x09\n        /* \"StakingToken.sol\":4082:4106  totalStakedTokens[token] */\n      0x00\n        /* \"StakingToken.sol\":4100:4105  token */\n      dup8\n        /* \"StakingToken.sol\":4082:4106  totalStakedTokens[token] */\n      0xffffffffffffffffffffffffffffffffffffffff\n      and\n      0xffffffffffffffffffffffffffffffffffffffff\n      and\n      dup2\n      mstore\n      0x20\n      add\n      swap1\n      dup2\n      mstore\n      0x20\n      add\n      0x00\n      keccak256\n      sload\n        /* \"StakingToken.sol\":4055:4077  totalRewards.mul(1e18) */\n      tag_297\n        /* \"StakingToken.sol\":4072:4076  1e18 */\n      0x0de0b6b3a7640000\n        /* \"StakingToken.sol\":4055:4067  totalRewards */\n      dup6\n        /* \"StakingToken.sol\":4055:4071  totalRewards.mul */\n      tag_129\n      swap1\n        /* \"StakingToken.sol\":4055:4077  totalRewards.mul(1e18) */\n      swap2\n      swap1\n      0xffffffff\n      and\n      jump\t// in\n    tag_297:\n        /* \"StakingToken.sol\":4055:4081  totalRewards.mul(1e18).div */\n      tag_130\n      swap1\n        /* \"StakingToken.sol\":4055:4107  totalRewards.mul(1e18).div(totalStakedTokens[token]) */\n      swap2\n      swap1\n      0xffffffff\n      and\n      jump\t// in\n    tag_296:\n        /* \"StakingToken.sol\":4006:4026  rewardPerTokenStored */\n      0x07\n        /* \"StakingToken.sol\":4006:4033  rewardPerTokenStored[token] */\n      0x00\n        /* \"StakingToken.sol\":4027:4032  token */\n      dup8\n        /* \"StakingToken.sol\":4006:4033  rewardPerTokenStored[token] */\n      0xffffffffffffffffffffffffffffffffffffffff\n      and\n      0xffffffffffffffffffffffffffffffffffffffff\n      and\n      dup2\n      mstore\n      0x20\n      add\n      swap1\n      dup2\n      mstore\n      0x20\n      add\n      0x00\n      keccak256\n      sload\n        /* \"StakingToken.sol\":4006:4037  rewardPerTokenStored[token].add */\n      tag_131\n      swap1\n        /* \"StakingToken.sol\":4006:4121  rewardPerTokenStored[token].add(... */\n      swap2\n      swap1\n      0xffffffff\n      and\n      jump\t// in\n    tag_295:\n        /* \"StakingToken.sol\":3987:4121  return... */\n      swap3\n      pop\n      pop\n      pop\n        /* \"StakingToken.sol\":3601:4128  function rewardPerToken(address token) public view returns (uint256) {... */\n    tag_289:\n      swap2\n      swap1\n      pop\n      jump\t// out\n        /* \"@openzeppelin/contracts/utils/math/SafeMath.sol\":3122:3218  function sub(uint256 a, uint256 b) internal pure returns (uint256) {... */\n    tag_128:\n        /* \"@openzeppelin/contracts/utils/math/SafeMath.sol\":3180:3187  uint256 */\n      0x00\n        /* \"@openzeppelin/contracts/utils/math/SafeMath.sol\":3210:3211  b */\n      dup2\n        /* \"@openzeppelin/contracts/utils/math/SafeMath.sol\":3206:3207  a */\n      dup4\n        /* \"@openzeppelin/contracts/utils/math/SafeMath.sol\":3206:3211  a - b */\n      tag_299\n      swap2\n      swap1\n      tag_300\n      jump\t// in\n    tag_299:\n        /* \"@openzeppelin/contracts/utils/math/SafeMath.sol\":3199:3211  return a - b */\n      swap1\n      pop\n        /* \"@openzeppelin/contracts/utils/math/SafeMath.sol\":3122:3218  function sub(uint256 a, uint256 b) internal pure returns (uint256) {... */\n      swap3\n      swap2\n      pop\n      pop\n      jump\t// out\n        /* \"@openzeppelin/contracts/utils/math/SafeMath.sol\":3465:3561  function mul(uint256 a, uint256 b) internal pure returns (uint256) {... */\n    tag_129:\n        /* \"@openzeppelin/contracts/utils/math/SafeMath.sol\":3523:3530  uint256 */\n      0x00\n        /* \"@openzeppelin/contracts/utils/math/SafeMath.sol\":3553:3554  b */\n      dup2\n        /* \"@openzeppelin/contracts/utils/math/SafeMath.sol\":3549:3550  a */\n      dup4\n        /* \"@openzeppelin/contracts/utils/math/SafeMath.sol\":3549:3554  a * b */\n      tag_302\n      swap2\n      swap1\n      tag_303\n      jump\t// in\n    tag_302:\n        /* \"@openzeppelin/contracts/utils/math/SafeMath.sol\":3542:3554  return a * b */\n      swap1\n      pop\n        /* \"@openzeppelin/contracts/utils/math/SafeMath.sol\":3465:3561  function mul(uint256 a, uint256 b) internal pure returns (uint256) {... */\n      swap3\n      swap2\n      pop\n      pop\n      jump\t// out\n        /* \"@openzeppelin/contracts/utils/math/SafeMath.sol\":3850:3946  function div(uint256 a, uint256 b) internal pure returns (uint256) {... */\n    tag_130:\n        /* \"@openzeppelin/contracts/utils/math/SafeMath.sol\":3908:3915  uint256 */\n      0x00\n        /* \"@openzeppelin/contracts/utils/math/SafeMath.sol\":3938:3939  b */\n      dup2\n        /* \"@openzeppelin/contracts/utils/math/SafeMath.sol\":3934:3935  a */\n      dup4\n        /* \"@openzeppelin/contracts/utils/math/SafeMath.sol\":3934:3939  a / b */\n      tag_305\n      swap2\n      swap1\n      tag_306\n      jump\t// in\n    tag_305:\n        /* \"@openzeppelin/contracts/utils/math/SafeMath.sol\":3927:3939  return a / b */\n      swap1\n      pop\n        /* \"@openzeppelin/contracts/utils/math/SafeMath.sol\":3850:3946  function div(uint256 a, uint256 b) internal pure returns (uint256) {... */\n      swap3\n      swap2\n      pop\n      pop\n      jump\t// out\n        /* \"@openzeppelin/contracts/utils/math/SafeMath.sol\":2755:2851  function add(uint256 a, uint256 b) internal pure returns (uint256) {... */\n    tag_131:\n        /* \"@openzeppelin/contracts/utils/math/SafeMath.sol\":2813:2820  uint256 */\n      0x00\n        /* \"@openzeppelin/contracts/utils/math/SafeMath.sol\":2843:2844  b */\n      dup2\n        /* \"@openzeppelin/contracts/utils/math/SafeMath.sol\":2839:2840  a */\n      dup4\n        /* \"@openzeppelin/contracts/utils/math/SafeMath.sol\":2839:2844  a + b */\n      tag_308\n      swap2\n      swap1\n      tag_309\n      jump\t// in\n    tag_308:\n        /* \"@openzeppelin/contracts/utils/math/SafeMath.sol\":2832:2844  return a + b */\n      swap1\n      pop\n        /* \"@openzeppelin/contracts/utils/math/SafeMath.sol\":2755:2851  function add(uint256 a, uint256 b) internal pure returns (uint256) {... */\n      swap3\n      swap2\n      pop\n      pop\n      jump\t// out\n        /* \"@openzeppelin/contracts/security/ReentrancyGuard.sol\":2336:2623  function _nonReentrantBefore() private {... */\n    tag_173:\n        /* \"@openzeppelin/contracts/security/ReentrancyGuard.sol\":1759:1760  2 */\n      0x02\n        /* \"@openzeppelin/contracts/security/ReentrancyGuard.sol\":2468:2475  _status */\n      sload(0x00)\n        /* \"@openzeppelin/contracts/security/ReentrancyGuard.sol\":2468:2487  _status != _ENTERED */\n      sub\n        /* \"@openzeppelin/contracts/security/ReentrancyGuard.sol\":2460:2523  require(_status != _ENTERED, \"ReentrancyGuard: reentrant call\") */\n      tag_311\n      jumpi\n      mload(0x40)\n      0x08c379a000000000000000000000000000000000000000000000000000000000\n      dup2\n      mstore\n      0x04\n      add\n      tag_312\n      swap1\n      tag_313\n      jump\t// in\n    tag_312:\n      mload(0x40)\n      dup1\n      swap2\n      sub\n      swap1\n      revert\n    tag_311:\n        /* \"@openzeppelin/contracts/security/ReentrancyGuard.sol\":1759:1760  2 */\n      0x02\n        /* \"@openzeppelin/contracts/security/ReentrancyGuard.sol\":2598:2605  _status */\n      0x00\n        /* \"@openzeppelin/contracts/security/ReentrancyGuard.sol\":2598:2616  _status = _ENTERED */\n      dup2\n      swap1\n      sstore\n      pop\n        /* \"@openzeppelin/contracts/security/ReentrancyGuard.sol\":2336:2623  function _nonReentrantBefore() private {... */\n      jump\t// out\n        /* \"@openzeppelin/contracts/security/ReentrancyGuard.sol\":2629:2838  function _nonReentrantAfter() private {... */\n    tag_200:\n        /* \"@openzeppelin/contracts/security/ReentrancyGuard.sol\":1716:1717  1 */\n      0x01\n        /* \"@openzeppelin/contracts/security/ReentrancyGuard.sol\":2809:2816  _status */\n      0x00\n        /* \"@openzeppelin/contracts/security/ReentrancyGuard.sol\":2809:2831  _status = _NOT_ENTERED */\n      dup2\n      swap1\n      sstore\n      pop\n        /* \"@openzeppelin/contracts/security/ReentrancyGuard.sol\":2629:2838  function _nonReentrantAfter() private {... */\n      jump\t// out\n        /* \"#utility.yul\":88:205   */\n    tag_316:\n        /* \"#utility.yul\":197:198   */\n      0x00\n        /* \"#utility.yul\":194:195   */\n      dup1\n        /* \"#utility.yul\":187:199   */\n      revert\n        /* \"#utility.yul\":211:328   */\n    tag_317:\n        /* \"#utility.yul\":320:321   */\n      0x00\n        /* \"#utility.yul\":317:318   */\n      dup1\n        /* \"#utility.yul\":310:322   */\n      revert\n        /* \"#utility.yul\":334:460   */\n    tag_318:\n        /* \"#utility.yul\":371:378   */\n      0x00\n        /* \"#utility.yul\":411:453   */\n      0xffffffffffffffffffffffffffffffffffffffff\n        /* \"#utility.yul\":404:409   */\n      dup3\n        /* \"#utility.yul\":400:454   */\n      and\n        /* \"#utility.yul\":389:454   */\n      swap1\n      pop\n        /* \"#utility.yul\":334:460   */\n      swap2\n      swap1\n      pop\n      jump\t// out\n        /* \"#utility.yul\":466:562   */\n    tag_319:\n        /* \"#utility.yul\":503:510   */\n      0x00\n        /* \"#utility.yul\":532:556   */\n      tag_394\n        /* \"#utility.yul\":550:555   */\n      dup3\n        /* \"#utility.yul\":532:556   */\n      tag_318\n      jump\t// in\n    tag_394:\n        /* \"#utility.yul\":521:556   */\n      swap1\n      pop\n        /* \"#utility.yul\":466:562   */\n      swap2\n      swap1\n      pop\n      jump\t// out\n        /* \"#utility.yul\":568:690   */\n    tag_320:\n        /* \"#utility.yul\":641:665   */\n      tag_396\n        /* \"#utility.yul\":659:664   */\n      dup2\n        /* \"#utility.yul\":641:665   */\n      tag_319\n      jump\t// in\n    tag_396:\n        /* \"#utility.yul\":634:639   */\n      dup2\n        /* \"#utility.yul\":631:666   */\n      eq\n        /* \"#utility.yul\":621:684   */\n      tag_397\n      jumpi\n        /* \"#utility.yul\":680:681   */\n      0x00\n        /* \"#utility.yul\":677:678   */\n      dup1\n        /* \"#utility.yul\":670:682   */\n      revert\n        /* \"#utility.yul\":621:684   */\n    tag_397:\n        /* \"#utility.yul\":568:690   */\n      pop\n      jump\t// out\n        /* \"#utility.yul\":696:835   */\n    tag_321:\n        /* \"#utility.yul\":742:747   */\n      0x00\n        /* \"#utility.yul\":780:786   */\n      dup2\n        /* \"#utility.yul\":767:787   */\n      calldataload\n        /* \"#utility.yul\":758:787   */\n      swap1\n      pop\n        /* \"#utility.yul\":796:829   */\n      tag_399\n        /* \"#utility.yul\":823:828   */\n      dup2\n        /* \"#utility.yul\":796:829   */\n      tag_320\n      jump\t// in\n    tag_399:\n        /* \"#utility.yul\":696:835   */\n      swap3\n      swap2\n      pop\n      pop\n      jump\t// out\n        /* \"#utility.yul\":841:1315   */\n    tag_31:\n        /* \"#utility.yul\":909:915   */\n      0x00\n        /* \"#utility.yul\":917:923   */\n      dup1\n        /* \"#utility.yul\":966:968   */\n      0x40\n        /* \"#utility.yul\":954:963   */\n      dup4\n        /* \"#utility.yul\":945:952   */\n      dup6\n        /* \"#utility.yul\":941:964   */\n      sub\n        /* \"#utility.yul\":937:969   */\n      slt\n        /* \"#utility.yul\":934:1053   */\n      iszero\n      tag_401\n      jumpi\n        /* \"#utility.yul\":972:1051   */\n      tag_402\n      tag_316\n      jump\t// in\n    tag_402:\n        /* \"#utility.yul\":934:1053   */\n    tag_401:\n        /* \"#utility.yul\":1092:1093   */\n      0x00\n        /* \"#utility.yul\":1117:1170   */\n      tag_403\n        /* \"#utility.yul\":1162:1169   */\n      dup6\n        /* \"#utility.yul\":1153:1159   */\n      dup3\n        /* \"#utility.yul\":1142:1151   */\n      dup7\n        /* \"#utility.yul\":1138:1160   */\n      add\n        /* \"#utility.yul\":1117:1170   */\n      tag_321\n      jump\t// in\n    tag_403:\n        /* \"#utility.yul\":1107:1170   */\n      swap3\n      pop\n        /* \"#utility.yul\":1063:1180   */\n      pop\n        /* \"#utility.yul\":1219:1221   */\n      0x20\n        /* \"#utility.yul\":1245:1298   */\n      tag_404\n        /* \"#utility.yul\":1290:1297   */\n      dup6\n        /* \"#utility.yul\":1281:1287   */\n      dup3\n        /* \"#utility.yul\":1270:1279   */\n      dup7\n        /* \"#utility.yul\":1266:1288   */\n      add\n        /* \"#utility.yul\":1245:1298   */\n      tag_321\n      jump\t// in\n    tag_404:\n        /* \"#utility.yul\":1235:1298   */\n      swap2\n      pop\n        /* \"#utility.yul\":1190:1308   */\n      pop\n        /* \"#utility.yul\":841:1315   */\n      swap3\n      pop\n      swap3\n      swap1\n      pop\n      jump\t// out\n        /* \"#utility.yul\":1321:1398   */\n    tag_322:\n        /* \"#utility.yul\":1358:1365   */\n      0x00\n        /* \"#utility.yul\":1387:1392   */\n      dup2\n        /* \"#utility.yul\":1376:1392   */\n      swap1\n      pop\n        /* \"#utility.yul\":1321:1398   */\n      swap2\n      swap1\n      pop\n      jump\t// out\n        /* \"#utility.yul\":1404:1522   */\n    tag_323:\n        /* \"#utility.yul\":1491:1515   */\n      tag_407\n        /* \"#utility.yul\":1509:1514   */\n      dup2\n        /* \"#utility.yul\":1491:1515   */\n      tag_322\n      jump\t// in\n    tag_407:\n        /* \"#utility.yul\":1486:1489   */\n      dup3\n        /* \"#utility.yul\":1479:1516   */\n      mstore\n        /* \"#utility.yul\":1404:1522   */\n      pop\n      pop\n      jump\t// out\n        /* \"#utility.yul\":1528:1750   */\n    tag_34:\n        /* \"#utility.yul\":1621:1625   */\n      0x00\n        /* \"#utility.yul\":1659:1661   */\n      0x20\n        /* \"#utility.yul\":1648:1657   */\n      dup3\n        /* \"#utility.yul\":1644:1662   */\n      add\n        /* \"#utility.yul\":1636:1662   */\n      swap1\n      pop\n        /* \"#utility.yul\":1672:1743   */\n      tag_409\n        /* \"#utility.yul\":1740:1741   */\n      0x00\n        /* \"#utility.yul\":1729:1738   */\n      dup4\n        /* \"#utility.yul\":1725:1742   */\n      add\n        /* \"#utility.yul\":1716:1722   */\n      dup5\n        /* \"#utility.yul\":1672:1743   */\n      tag_323\n      jump\t// in\n    tag_409:\n        /* \"#utility.yul\":1528:1750   */\n      swap3\n      swap2\n      pop\n      pop\n      jump\t// out\n        /* \"#utility.yul\":1756:2085   */\n    tag_37:\n        /* \"#utility.yul\":1815:1821   */\n      0x00\n        /* \"#utility.yul\":1864:1866   */\n      0x20\n        /* \"#utility.yul\":1852:1861   */\n      dup3\n        /* \"#utility.yul\":1843:1850   */\n      dup5\n        /* \"#utility.yul\":1839:1862   */\n      sub\n        /* \"#utility.yul\":1835:1867   */\n      slt\n        /* \"#utility.yul\":1832:1951   */\n      iszero\n      tag_411\n      jumpi\n        /* \"#utility.yul\":1870:1949   */\n      tag_412\n      tag_316\n      jump\t// in\n    tag_412:\n        /* \"#utility.yul\":1832:1951   */\n    tag_411:\n        /* \"#utility.yul\":1990:1991   */\n      0x00\n        /* \"#utility.yul\":2015:2068   */\n      tag_413\n        /* \"#utility.yul\":2060:2067   */\n      dup5\n        /* \"#utility.yul\":2051:2057   */\n      dup3\n        /* \"#utility.yul\":2040:2049   */\n      dup6\n        /* \"#utility.yul\":2036:2058   */\n      add\n        /* \"#utility.yul\":2015:2068   */\n      tag_321\n      jump\t// in\n    tag_413:\n        /* \"#utility.yul\":2005:2068   */\n      swap2\n      pop\n        /* \"#utility.yul\":1961:2078   */\n      pop\n        /* \"#utility.yul\":1756:2085   */\n      swap3\n      swap2\n      pop\n      pop\n      jump\t// out\n        /* \"#utility.yul\":2091:2271   */\n    tag_324:\n        /* \"#utility.yul\":2139:2216   */\n      0x4e487b7100000000000000000000000000000000000000000000000000000000\n        /* \"#utility.yul\":2136:2137   */\n      0x00\n        /* \"#utility.yul\":2129:2217   */\n      mstore\n        /* \"#utility.yul\":2236:2240   */\n      0x21\n        /* \"#utility.yul\":2233:2234   */\n      0x04\n        /* \"#utility.yul\":2226:2241   */\n      mstore\n        /* \"#utility.yul\":2260:2264   */\n      0x24\n        /* \"#utility.yul\":2257:2258   */\n      0x00\n        /* \"#utility.yul\":2250:2265   */\n      revert\n        /* \"#utility.yul\":2277:2390   */\n    tag_325:\n        /* \"#utility.yul\":2358:2359   */\n      0x03\n        /* \"#utility.yul\":2351:2356   */\n      dup2\n        /* \"#utility.yul\":2348:2360   */\n      lt\n        /* \"#utility.yul\":2338:2384   */\n      tag_416\n      jumpi\n        /* \"#utility.yul\":2364:2382   */\n      tag_417\n      tag_324\n      jump\t// in\n    tag_417:\n        /* \"#utility.yul\":2338:2384   */\n    tag_416:\n        /* \"#utility.yul\":2277:2390   */\n      pop\n      jump\t// out\n        /* \"#utility.yul\":2396:2523   */\n    tag_326:\n        /* \"#utility.yul\":2441:2448   */\n      0x00\n        /* \"#utility.yul\":2470:2475   */\n      dup2\n        /* \"#utility.yul\":2459:2475   */\n      swap1\n      pop\n        /* \"#utility.yul\":2476:2517   */\n      tag_419\n        /* \"#utility.yul\":2511:2516   */\n      dup3\n        /* \"#utility.yul\":2476:2517   */\n      tag_325\n      jump\t// in\n    tag_419:\n        /* \"#utility.yul\":2396:2523   */\n      swap2\n      swap1\n      pop\n      jump\t// out\n        /* \"#utility.yul\":2529:2656   */\n    tag_327:\n        /* \"#utility.yul\":2585:2594   */\n      0x00\n        /* \"#utility.yul\":2618:2650   */\n      tag_421\n        /* \"#utility.yul\":2644:2649   */\n      dup3\n        /* \"#utility.yul\":2618:2650   */\n      tag_326\n      jump\t// in\n    tag_421:\n        /* \"#utility.yul\":2605:2650   */\n      swap1\n      pop\n        /* \"#utility.yul\":2529:2656   */\n      swap2\n      swap1\n      pop\n      jump\t// out\n        /* \"#utility.yul\":2662:2805   */\n    tag_328:\n        /* \"#utility.yul\":2755:2798   */\n      tag_423\n        /* \"#utility.yul\":2792:2797   */\n      dup2\n        /* \"#utility.yul\":2755:2798   */\n      tag_327\n      jump\t// in\n    tag_423:\n        /* \"#utility.yul\":2750:2753   */\n      dup3\n        /* \"#utility.yul\":2743:2799   */\n      mstore\n        /* \"#utility.yul\":2662:2805   */\n      pop\n      pop\n      jump\t// out\n        /* \"#utility.yul\":2811:3045   */\n    tag_52:\n        /* \"#utility.yul\":2910:2914   */\n      0x00\n        /* \"#utility.yul\":2948:2950   */\n      0x20\n        /* \"#utility.yul\":2937:2946   */\n      dup3\n        /* \"#utility.yul\":2933:2951   */\n      add\n        /* \"#utility.yul\":2925:2951   */\n      swap1\n      pop\n        /* \"#utility.yul\":2961:3038   */\n      tag_425\n        /* \"#utility.yul\":3035:3036   */\n      0x00\n        /* \"#utility.yul\":3024:3033   */\n      dup4\n        /* \"#utility.yul\":3020:3037   */\n      add\n        /* \"#utility.yul\":3011:3017   */\n      dup5\n        /* \"#utility.yul\":2961:3038   */\n      tag_328\n      jump\t// in\n    tag_425:\n        /* \"#utility.yul\":2811:3045   */\n      swap3\n      swap2\n      pop\n      pop\n      jump\t// out\n        /* \"#utility.yul\":3051:3173   */\n    tag_329:\n        /* \"#utility.yul\":3124:3148   */\n      tag_427\n        /* \"#utility.yul\":3142:3147   */\n      dup2\n        /* \"#utility.yul\":3124:3148   */\n      tag_322\n      jump\t// in\n    tag_427:\n        /* \"#utility.yul\":3117:3122   */\n      dup2\n        /* \"#utility.yul\":3114:3149   */\n      eq\n        /* \"#utility.yul\":3104:3167   */\n      tag_428\n      jumpi\n        /* \"#utility.yul\":3163:3164   */\n      0x00\n        /* \"#utility.yul\":3160:3161   */\n      dup1\n        /* \"#utility.yul\":3153:3165   */\n      revert\n        /* \"#utility.yul\":3104:3167   */\n    tag_428:\n        /* \"#utility.yul\":3051:3173   */\n      pop\n      jump\t// out\n        /* \"#utility.yul\":3179:3318   */\n    tag_330:\n        /* \"#utility.yul\":3225:3230   */\n      0x00\n        /* \"#utility.yul\":3263:3269   */\n      dup2\n        /* \"#utility.yul\":3250:3270   */\n      calldataload\n        /* \"#utility.yul\":3241:3270   */\n      swap1\n      pop\n        /* \"#utility.yul\":3279:3312   */\n      tag_430\n        /* \"#utility.yul\":3306:3311   */\n      dup2\n        /* \"#utility.yul\":3279:3312   */\n      tag_329\n      jump\t// in\n    tag_430:\n        /* \"#utility.yul\":3179:3318   */\n      swap3\n      swap2\n      pop\n      pop\n      jump\t// out\n        /* \"#utility.yul\":3324:3798   */\n    tag_79:\n        /* \"#utility.yul\":3392:3398   */\n      0x00\n        /* \"#utility.yul\":3400:3406   */\n      dup1\n        /* \"#utility.yul\":3449:3451   */\n      0x40\n        /* \"#utility.yul\":3437:3446   */\n      dup4\n        /* \"#utility.yul\":3428:3435   */\n      dup6\n        /* \"#utility.yul\":3424:3447   */\n      sub\n        /* \"#utility.yul\":3420:3452   */\n      slt\n        /* \"#utility.yul\":3417:3536   */\n      iszero\n      tag_432\n      jumpi\n        /* \"#utility.yul\":3455:3534   */\n      tag_433\n      tag_316\n      jump\t// in\n    tag_433:\n        /* \"#utility.yul\":3417:3536   */\n    tag_432:\n        /* \"#utility.yul\":3575:3576   */\n      0x00\n        /* \"#utility.yul\":3600:3653   */\n      tag_434\n        /* \"#utility.yul\":3645:3652   */\n      dup6\n        /* \"#utility.yul\":3636:3642   */\n      dup3\n        /* \"#utility.yul\":3625:3634   */\n      dup7\n        /* \"#utility.yul\":3621:3643   */\n      add\n        /* \"#utility.yul\":3600:3653   */\n      tag_321\n      jump\t// in\n    tag_434:\n        /* \"#utility.yul\":3590:3653   */\n      swap3\n      pop\n        /* \"#utility.yul\":3546:3663   */\n      pop\n        /* \"#utility.yul\":3702:3704   */\n      0x20\n        /* \"#utility.yul\":3728:3781   */\n      tag_435\n        /* \"#utility.yul\":3773:3780   */\n      dup6\n        /* \"#utility.yul\":3764:3770   */\n      dup3\n        /* \"#utility.yul\":3753:3762   */\n      dup7\n        /* \"#utility.yul\":3749:3771   */\n      add\n        /* \"#utility.yul\":3728:3781   */\n      tag_330\n      jump\t// in\n    tag_435:\n        /* \"#utility.yul\":3718:3781   */\n      swap2\n      pop\n        /* \"#utility.yul\":3673:3791   */\n      pop\n        /* \"#utility.yul\":3324:3798   */\n      swap3\n      pop\n      swap3\n      swap1\n      pop\n      jump\t// out\n        /* \"#utility.yul\":3804:4133   */\n    tag_83:\n        /* \"#utility.yul\":3863:3869   */\n      0x00\n        /* \"#utility.yul\":3912:3914   */\n      0x20\n        /* \"#utility.yul\":3900:3909   */\n      dup3\n        /* \"#utility.yul\":3891:3898   */\n      dup5\n        /* \"#utility.yul\":3887:3910   */\n      sub\n        /* \"#utility.yul\":3883:3915   */\n      slt\n        /* \"#utility.yul\":3880:3999   */\n      iszero\n      tag_437\n      jumpi\n        /* \"#utility.yul\":3918:3997   */\n      tag_438\n      tag_316\n      jump\t// in\n    tag_438:\n        /* \"#utility.yul\":3880:3999   */\n    tag_437:\n        /* \"#utility.yul\":4038:4039   */\n      0x00\n        /* \"#utility.yul\":4063:4116   */\n      tag_439\n        /* \"#utility.yul\":4108:4115   */\n      dup5\n        /* \"#utility.yul\":4099:4105   */\n      dup3\n        /* \"#utility.yul\":4088:4097   */\n      dup6\n        /* \"#utility.yul\":4084:4106   */\n      add\n        /* \"#utility.yul\":4063:4116   */\n      tag_330\n      jump\t// in\n    tag_439:\n        /* \"#utility.yul\":4053:4116   */\n      swap2\n      pop\n        /* \"#utility.yul\":4009:4126   */\n      pop\n        /* \"#utility.yul\":3804:4133   */\n      swap3\n      swap2\n      pop\n      pop\n      jump\t// out\n        /* \"#utility.yul\":4139:4758   */\n    tag_87:\n        /* \"#utility.yul\":4216:4222   */\n      0x00\n        /* \"#utility.yul\":4224:4230   */\n      dup1\n        /* \"#utility.yul\":4232:4238   */\n      0x00\n        /* \"#utility.yul\":4281:4283   */\n      0x60\n        /* \"#utility.yul\":4269:4278   */\n      dup5\n        /* \"#utility.yul\":4260:4267   */\n      dup7\n        /* \"#utility.yul\":4256:4279   */\n      sub\n        /* \"#utility.yul\":4252:4284   */\n      slt\n        /* \"#utility.yul\":4249:4368   */\n      iszero\n      tag_441\n      jumpi\n        /* \"#utility.yul\":4287:4366   */\n      tag_442\n      tag_316\n      jump\t// in\n    tag_442:\n        /* \"#utility.yul\":4249:4368   */\n    tag_441:\n        /* \"#utility.yul\":4407:4408   */\n      0x00\n        /* \"#utility.yul\":4432:4485   */\n      tag_443\n        /* \"#utility.yul\":4477:4484   */\n      dup7\n        /* \"#utility.yul\":4468:4474   */\n      dup3\n        /* \"#utility.yul\":4457:4466   */\n      dup8\n        /* \"#utility.yul\":4453:4475   */\n      add\n        /* \"#utility.yul\":4432:4485   */\n      tag_321\n      jump\t// in\n    tag_443:\n        /* \"#utility.yul\":4422:4485   */\n      swap4\n      pop\n        /* \"#utility.yul\":4378:4495   */\n      pop\n        /* \"#utility.yul\":4534:4536   */\n      0x20\n        /* \"#utility.yul\":4560:4613   */\n      tag_444\n        /* \"#utility.yul\":4605:4612   */\n      dup7\n        /* \"#utility.yul\":4596:4602   */\n      dup3\n        /* \"#utility.yul\":4585:4594   */\n      dup8\n        /* \"#utility.yul\":4581:4603   */\n      add\n        /* \"#utility.yul\":4560:4613   */\n      tag_321\n      jump\t// in\n    tag_444:\n        /* \"#utility.yul\":4550:4613   */\n      swap3\n      pop\n        /* \"#utility.yul\":4505:4623   */\n      pop\n        /* \"#utility.yul\":4662:4664   */\n      0x40\n        /* \"#utility.yul\":4688:4741   */\n      tag_445\n        /* \"#utility.yul\":4733:4740   */\n      dup7\n        /* \"#utility.yul\":4724:4730   */\n      dup3\n        /* \"#utility.yul\":4713:4722   */\n      dup8\n        /* \"#utility.yul\":4709:4731   */\n      add\n        /* \"#utility.yul\":4688:4741   */\n      tag_330\n      jump\t// in\n    tag_445:\n        /* \"#utility.yul\":4678:4741   */\n      swap2\n      pop\n        /* \"#utility.yul\":4633:4751   */\n      pop\n        /* \"#utility.yul\":4139:4758   */\n      swap3\n      pop\n      swap3\n      pop\n      swap3\n      jump\t// out\n        /* \"#utility.yul\":4764:4881   */\n    tag_331:\n        /* \"#utility.yul\":4873:4874   */\n      0x00\n        /* \"#utility.yul\":4870:4871   */\n      dup1\n        /* \"#utility.yul\":4863:4875   */\n      revert\n        /* \"#utility.yul\":4887:5004   */\n    tag_332:\n        /* \"#utility.yul\":4996:4997   */\n      0x00\n        /* \"#utility.yul\":4993:4994   */\n      dup1\n        /* \"#utility.yul\":4986:4998   */\n      revert\n        /* \"#utility.yul\":5010:5127   */\n    tag_333:\n        /* \"#utility.yul\":5119:5120   */\n      0x00\n        /* \"#utility.yul\":5116:5117   */\n      dup1\n        /* \"#utility.yul\":5109:5121   */\n      revert\n        /* \"#utility.yul\":5147:5700   */\n    tag_334:\n        /* \"#utility.yul\":5205:5213   */\n      0x00\n        /* \"#utility.yul\":5215:5221   */\n      dup1\n        /* \"#utility.yul\":5265:5268   */\n      dup4\n        /* \"#utility.yul\":5258:5262   */\n      0x1f\n        /* \"#utility.yul\":5250:5256   */\n      dup5\n        /* \"#utility.yul\":5246:5263   */\n      add\n        /* \"#utility.yul\":5242:5269   */\n      slt\n        /* \"#utility.yul\":5232:5354   */\n      tag_450\n      jumpi\n        /* \"#utility.yul\":5273:5352   */\n      tag_451\n      tag_331\n      jump\t// in\n    tag_451:\n        /* \"#utility.yul\":5232:5354   */\n    tag_450:\n        /* \"#utility.yul\":5386:5392   */\n      dup3\n        /* \"#utility.yul\":5373:5393   */\n      calldataload\n        /* \"#utility.yul\":5363:5393   */\n      swap1\n      pop\n        /* \"#utility.yul\":5416:5434   */\n      0xffffffffffffffff\n        /* \"#utility.yul\":5408:5414   */\n      dup2\n        /* \"#utility.yul\":5405:5435   */\n      gt\n        /* \"#utility.yul\":5402:5519   */\n      iszero\n      tag_452\n      jumpi\n        /* \"#utility.yul\":5438:5517   */\n      tag_453\n      tag_332\n      jump\t// in\n    tag_453:\n        /* \"#utility.yul\":5402:5519   */\n    tag_452:\n        /* \"#utility.yul\":5552:5556   */\n      0x20\n        /* \"#utility.yul\":5544:5550   */\n      dup4\n        /* \"#utility.yul\":5540:5557   */\n      add\n        /* \"#utility.yul\":5528:5557   */\n      swap2\n      pop\n        /* \"#utility.yul\":5606:5609   */\n      dup4\n        /* \"#utility.yul\":5598:5602   */\n      0x01\n        /* \"#utility.yul\":5590:5596   */\n      dup3\n        /* \"#utility.yul\":5586:5603   */\n      mul\n        /* \"#utility.yul\":5576:5584   */\n      dup4\n        /* \"#utility.yul\":5572:5604   */\n      add\n        /* \"#utility.yul\":5569:5610   */\n      gt\n        /* \"#utility.yul\":5566:5694   */\n      iszero\n      tag_454\n      jumpi\n        /* \"#utility.yul\":5613:5692   */\n      tag_455\n      tag_333\n      jump\t// in\n    tag_455:\n        /* \"#utility.yul\":5566:5694   */\n    tag_454:\n        /* \"#utility.yul\":5147:5700   */\n      swap3\n      pop\n      swap3\n      swap1\n      pop\n      jump\t// out\n        /* \"#utility.yul\":5706:6380   */\n    tag_97:\n        /* \"#utility.yul\":5786:5792   */\n      0x00\n        /* \"#utility.yul\":5794:5800   */\n      dup1\n        /* \"#utility.yul\":5802:5808   */\n      0x00\n        /* \"#utility.yul\":5851:5853   */\n      0x40\n        /* \"#utility.yul\":5839:5848   */\n      dup5\n        /* \"#utility.yul\":5830:5837   */\n      dup7\n        /* \"#utility.yul\":5826:5849   */\n      sub\n        /* \"#utility.yul\":5822:5854   */\n      slt\n        /* \"#utility.yul\":5819:5938   */\n      iszero\n      tag_457\n      jumpi\n        /* \"#utility.yul\":5857:5936   */\n      tag_458\n      tag_316\n      jump\t// in\n    tag_458:\n        /* \"#utility.yul\":5819:5938   */\n    tag_457:\n        /* \"#utility.yul\":5977:5978   */\n      0x00\n        /* \"#utility.yul\":6002:6055   */\n      tag_459\n        /* \"#utility.yul\":6047:6054   */\n      dup7\n        /* \"#utility.yul\":6038:6044   */\n      dup3\n        /* \"#utility.yul\":6027:6036   */\n      dup8\n        /* \"#utility.yul\":6023:6045   */\n      add\n        /* \"#utility.yul\":6002:6055   */\n      tag_321\n      jump\t// in\n    tag_459:\n        /* \"#utility.yul\":5992:6055   */\n      swap4\n      pop\n        /* \"#utility.yul\":5948:6065   */\n      pop\n        /* \"#utility.yul\":6132:6134   */\n      0x20\n        /* \"#utility.yul\":6121:6130   */\n      dup5\n        /* \"#utility.yul\":6117:6135   */\n      add\n        /* \"#utility.yul\":6104:6136   */\n      calldataload\n        /* \"#utility.yul\":6163:6181   */\n      0xffffffffffffffff\n        /* \"#utility.yul\":6155:6161   */\n      dup2\n        /* \"#utility.yul\":6152:6182   */\n      gt\n        /* \"#utility.yul\":6149:6266   */\n      iszero\n      tag_460\n      jumpi\n        /* \"#utility.yul\":6185:6264   */\n      tag_461\n      tag_317\n      jump\t// in\n    tag_461:\n        /* \"#utility.yul\":6149:6266   */\n    tag_460:\n        /* \"#utility.yul\":6298:6363   */\n      tag_462\n        /* \"#utility.yul\":6355:6362   */\n      dup7\n        /* \"#utility.yul\":6346:6352   */\n      dup3\n        /* \"#utility.yul\":6335:6344   */\n      dup8\n        /* \"#utility.yul\":6331:6353   */\n      add\n        /* \"#utility.yul\":6298:6363   */\n      tag_334\n      jump\t// in\n    tag_462:\n        /* \"#utility.yul\":6280:6363   */\n      swap3\n      pop\n      swap3\n      pop\n        /* \"#utility.yul\":6075:6373   */\n      pop\n        /* \"#utility.yul\":5706:6380   */\n      swap3\n      pop\n      swap3\n      pop\n      swap3\n      jump\t// out\n        /* \"#utility.yul\":6386:6485   */\n    tag_335:\n        /* \"#utility.yul\":6438:6444   */\n      0x00\n        /* \"#utility.yul\":6472:6477   */\n      dup2\n        /* \"#utility.yul\":6466:6478   */\n      mload\n        /* \"#utility.yul\":6456:6478   */\n      swap1\n      pop\n        /* \"#utility.yul\":6386:6485   */\n      swap2\n      swap1\n      pop\n      jump\t// out\n        /* \"#utility.yul\":6491:6660   */\n    tag_336:\n        /* \"#utility.yul\":6575:6586   */\n      0x00\n        /* \"#utility.yul\":6609:6615   */\n      dup3\n        /* \"#utility.yul\":6604:6607   */\n      dup3\n        /* \"#utility.yul\":6597:6616   */\n      mstore\n        /* \"#utility.yul\":6649:6653   */\n      0x20\n        /* \"#utility.yul\":6644:6647   */\n      dup3\n        /* \"#utility.yul\":6640:6654   */\n      add\n        /* \"#utility.yul\":6625:6654   */\n      swap1\n      pop\n        /* \"#utility.yul\":6491:6660   */\n      swap3\n      swap2\n      pop\n      pop\n      jump\t// out\n        /* \"#utility.yul\":6666:6912   */\n    tag_337:\n        /* \"#utility.yul\":6747:6748   */\n      0x00\n        /* \"#utility.yul\":6757:6870   */\n    tag_466:\n        /* \"#utility.yul\":6771:6777   */\n      dup4\n        /* \"#utility.yul\":6768:6769   */\n      dup2\n        /* \"#utility.yul\":6765:6778   */\n      lt\n        /* \"#utility.yul\":6757:6870   */\n      iszero\n      tag_468\n      jumpi\n        /* \"#utility.yul\":6856:6857   */\n      dup1\n        /* \"#utility.yul\":6851:6854   */\n      dup3\n        /* \"#utility.yul\":6847:6858   */\n      add\n        /* \"#utility.yul\":6841:6859   */\n      mload\n        /* \"#utility.yul\":6837:6838   */\n      dup2\n        /* \"#utility.yul\":6832:6835   */\n      dup5\n        /* \"#utility.yul\":6828:6839   */\n      add\n        /* \"#utility.yul\":6821:6860   */\n      mstore\n        /* \"#utility.yul\":6793:6795   */\n      0x20\n        /* \"#utility.yul\":6790:6791   */\n      dup2\n        /* \"#utility.yul\":6786:6796   */\n      add\n        /* \"#utility.yul\":6781:6796   */\n      swap1\n      pop\n        /* \"#utility.yul\":6757:6870   */\n      jump(tag_466)\n    tag_468:\n        /* \"#utility.yul\":6904:6905   */\n      0x00\n        /* \"#utility.yul\":6895:6901   */\n      dup5\n        /* \"#utility.yul\":6890:6893   */\n      dup5\n        /* \"#utility.yul\":6886:6902   */\n      add\n        /* \"#utility.yul\":6879:6906   */\n      mstore\n        /* \"#utility.yul\":6728:6912   */\n      pop\n        /* \"#utility.yul\":6666:6912   */\n      pop\n      pop\n      pop\n      jump\t// out\n        /* \"#utility.yul\":6918:7020   */\n    tag_338:\n        /* \"#utility.yul\":6959:6965   */\n      0x00\n        /* \"#utility.yul\":7010:7012   */\n      0x1f\n        /* \"#utility.yul\":7006:7013   */\n      not\n        /* \"#utility.yul\":7001:7003   */\n      0x1f\n        /* \"#utility.yul\":6994:6999   */\n      dup4\n        /* \"#utility.yul\":6990:7004   */\n      add\n        /* \"#utility.yul\":6986:7014   */\n      and\n        /* \"#utility.yul\":6976:7014   */\n      swap1\n      pop\n        /* \"#utility.yul\":6918:7020   */\n      swap2\n      swap1\n      pop\n      jump\t// out\n        /* \"#utility.yul\":7026:7403   */\n    tag_339:\n        /* \"#utility.yul\":7114:7117   */\n      0x00\n        /* \"#utility.yul\":7142:7181   */\n      tag_471\n        /* \"#utility.yul\":7175:7180   */\n      dup3\n        /* \"#utility.yul\":7142:7181   */\n      tag_335\n      jump\t// in\n    tag_471:\n        /* \"#utility.yul\":7197:7268   */\n      tag_472\n        /* \"#utility.yul\":7261:7267   */\n      dup2\n        /* \"#utility.yul\":7256:7259   */\n      dup6\n        /* \"#utility.yul\":7197:7268   */\n      tag_336\n      jump\t// in\n    tag_472:\n        /* \"#utility.yul\":7190:7268   */\n      swap4\n      pop\n        /* \"#utility.yul\":7277:7342   */\n      tag_473\n        /* \"#utility.yul\":7335:7341   */\n      dup2\n        /* \"#utility.yul\":7330:7333   */\n      dup6\n        /* \"#utility.yul\":7323:7327   */\n      0x20\n        /* \"#utility.yul\":7316:7321   */\n      dup7\n        /* \"#utility.yul\":7312:7328   */\n      add\n        /* \"#utility.yul\":7277:7342   */\n      tag_337\n      jump\t// in\n    tag_473:\n        /* \"#utility.yul\":7367:7396   */\n      tag_474\n        /* \"#utility.yul\":7389:7395   */\n      dup2\n        /* \"#utility.yul\":7367:7396   */\n      tag_338\n      jump\t// in\n    tag_474:\n        /* \"#utility.yul\":7362:7365   */\n      dup5\n        /* \"#utility.yul\":7358:7397   */\n      add\n        /* \"#utility.yul\":7351:7397   */\n      swap2\n      pop\n        /* \"#utility.yul\":7118:7403   */\n      pop\n        /* \"#utility.yul\":7026:7403   */\n      swap3\n      swap2\n      pop\n      pop\n      jump\t// out\n        /* \"#utility.yul\":7409:7499   */\n    tag_340:\n        /* \"#utility.yul\":7443:7450   */\n      0x00\n        /* \"#utility.yul\":7486:7491   */\n      dup2\n        /* \"#utility.yul\":7479:7492   */\n      iszero\n        /* \"#utility.yul\":7472:7493   */\n      iszero\n        /* \"#utility.yul\":7461:7493   */\n      swap1\n      pop\n        /* \"#utility.yul\":7409:7499   */\n      swap2\n      swap1\n      pop\n      jump\t// out\n        /* \"#utility.yul\":7505:7614   */\n    tag_341:\n        /* \"#utility.yul\":7586:7607   */\n      tag_477\n        /* \"#utility.yul\":7601:7606   */\n      dup2\n        /* \"#utility.yul\":7586:7607   */\n      tag_340\n      jump\t// in\n    tag_477:\n        /* \"#utility.yul\":7581:7584   */\n      dup3\n        /* \"#utility.yul\":7574:7608   */\n      mstore\n        /* \"#utility.yul\":7505:7614   */\n      pop\n      pop\n      jump\t// out\n        /* \"#utility.yul\":7620:8031   */\n    tag_110:\n        /* \"#utility.yul\":7755:7759   */\n      0x00\n        /* \"#utility.yul\":7793:7795   */\n      0x40\n        /* \"#utility.yul\":7782:7791   */\n      dup3\n        /* \"#utility.yul\":7778:7796   */\n      add\n        /* \"#utility.yul\":7770:7796   */\n      swap1\n      pop\n        /* \"#utility.yul\":7842:7851   */\n      dup2\n        /* \"#utility.yul\":7836:7840   */\n      dup2\n        /* \"#utility.yul\":7832:7852   */\n      sub\n        /* \"#utility.yul\":7828:7829   */\n      0x00\n        /* \"#utility.yul\":7817:7826   */\n      dup4\n        /* \"#utility.yul\":7813:7830   */\n      add\n        /* \"#utility.yul\":7806:7853   */\n      mstore\n        /* \"#utility.yul\":7870:7948   */\n      tag_479\n        /* \"#utility.yul\":7943:7947   */\n      dup2\n        /* \"#utility.yul\":7934:7940   */\n      dup6\n        /* \"#utility.yul\":7870:7948   */\n      tag_339\n      jump\t// in\n    tag_479:\n        /* \"#utility.yul\":7862:7948   */\n      swap1\n      pop\n        /* \"#utility.yul\":7958:8024   */\n      tag_480\n        /* \"#utility.yul\":8020:8022   */\n      0x20\n        /* \"#utility.yul\":8009:8018   */\n      dup4\n        /* \"#utility.yul\":8005:8023   */\n      add\n        /* \"#utility.yul\":7996:8002   */\n      dup5\n        /* \"#utility.yul\":7958:8024   */\n      tag_341\n      jump\t// in\n    tag_480:\n        /* \"#utility.yul\":7620:8031   */\n      swap4\n      swap3\n      pop\n      pop\n      pop\n      jump\t// out\n        /* \"#utility.yul\":8037:8206   */\n    tag_342:\n        /* \"#utility.yul\":8177:8198   */\n      0x546f6b656e206973206e6f742061637469766500000000000000000000000000\n        /* \"#utility.yul\":8173:8174   */\n      0x00\n        /* \"#utility.yul\":8165:8171   */\n      dup3\n        /* \"#utility.yul\":8161:8175   */\n      add\n        /* \"#utility.yul\":8154:8199   */\n      mstore\n        /* \"#utility.yul\":8037:8206   */\n      pop\n      jump\t// out\n        /* \"#utility.yul\":8212:8578   */\n    tag_343:\n        /* \"#utility.yul\":8354:8357   */\n      0x00\n        /* \"#utility.yul\":8375:8442   */\n      tag_483\n        /* \"#utility.yul\":8439:8441   */\n      0x13\n        /* \"#utility.yul\":8434:8437   */\n      dup4\n        /* \"#utility.yul\":8375:8442   */\n      tag_336\n      jump\t// in\n    tag_483:\n        /* \"#utility.yul\":8368:8442   */\n      swap2\n      pop\n        /* \"#utility.yul\":8451:8544   */\n      tag_484\n        /* \"#utility.yul\":8540:8543   */\n      dup3\n        /* \"#utility.yul\":8451:8544   */\n      tag_342\n      jump\t// in\n    tag_484:\n        /* \"#utility.yul\":8569:8571   */\n      0x20\n        /* \"#utility.yul\":8564:8567   */\n      dup3\n        /* \"#utility.yul\":8560:8572   */\n      add\n        /* \"#utility.yul\":8553:8572   */\n      swap1\n      pop\n        /* \"#utility.yul\":8212:8578   */\n      swap2\n      swap1\n      pop\n      jump\t// out\n        /* \"#utility.yul\":8584:9003   */\n    tag_122:\n        /* \"#utility.yul\":8750:8754   */\n      0x00\n        /* \"#utility.yul\":8788:8790   */\n      0x20\n        /* \"#utility.yul\":8777:8786   */\n      dup3\n        /* \"#utility.yul\":8773:8791   */\n      add\n        /* \"#utility.yul\":8765:8791   */\n      swap1\n      pop\n        /* \"#utility.yul\":8837:8846   */\n      dup2\n        /* \"#utility.yul\":8831:8835   */\n      dup2\n        /* \"#utility.yul\":8827:8847   */\n      sub\n        /* \"#utility.yul\":8823:8824   */\n      0x00\n        /* \"#utility.yul\":8812:8821   */\n      dup4\n        /* \"#utility.yul\":8808:8825   */\n      add\n        /* \"#utility.yul\":8801:8848   */\n      mstore\n        /* \"#utility.yul\":8865:8996   */\n      tag_486\n        /* \"#utility.yul\":8991:8995   */\n      dup2\n        /* \"#utility.yul\":8865:8996   */\n      tag_343\n      jump\t// in\n    tag_486:\n        /* \"#utility.yul\":8857:8996   */\n      swap1\n      pop\n        /* \"#utility.yul\":8584:9003   */\n      swap2\n      swap1\n      pop\n      jump\t// out\n        /* \"#utility.yul\":9009:9173   */\n    tag_344:\n        /* \"#utility.yul\":9149:9165   */\n      0x4e6f7420617574686f72697a6564000000000000000000000000000000000000\n        /* \"#utility.yul\":9145:9146   */\n      0x00\n        /* \"#utility.yul\":9137:9143   */\n      dup3\n        /* \"#utility.yul\":9133:9147   */\n      add\n        /* \"#utility.yul\":9126:9166   */\n      mstore\n        /* \"#utility.yul\":9009:9173   */\n      pop\n      jump\t// out\n        /* \"#utility.yul\":9179:9545   */\n    tag_345:\n        /* \"#utility.yul\":9321:9324   */\n      0x00\n        /* \"#utility.yul\":9342:9409   */\n      tag_489\n        /* \"#utility.yul\":9406:9408   */\n      0x0e\n        /* \"#utility.yul\":9401:9404   */\n      dup4\n        /* \"#utility.yul\":9342:9409   */\n      tag_336\n      jump\t// in\n    tag_489:\n        /* \"#utility.yul\":9335:9409   */\n      swap2\n      pop\n        /* \"#utility.yul\":9418:9511   */\n      tag_490\n        /* \"#utility.yul\":9507:9510   */\n      dup3\n        /* \"#utility.yul\":9418:9511   */\n      tag_344\n      jump\t// in\n    tag_490:\n        /* \"#utility.yul\":9536:9538   */\n      0x20\n        /* \"#utility.yul\":9531:9534   */\n      dup3\n        /* \"#utility.yul\":9527:9539   */\n      add\n        /* \"#utility.yul\":9520:9539   */\n      swap1\n      pop\n        /* \"#utility.yul\":9179:9545   */\n      swap2\n      swap1\n      pop\n      jump\t// out\n        /* \"#utility.yul\":9551:9970   */\n    tag_136:\n        /* \"#utility.yul\":9717:9721   */\n      0x00\n        /* \"#utility.yul\":9755:9757   */\n      0x20\n        /* \"#utility.yul\":9744:9753   */\n      dup3\n        /* \"#utility.yul\":9740:9758   */\n      add\n        /* \"#utility.yul\":9732:9758   */\n      swap1\n      pop\n        /* \"#utility.yul\":9804:9813   */\n      dup2\n        /* \"#utility.yul\":9798:9802   */\n      dup2\n        /* \"#utility.yul\":9794:9814   */\n      sub\n        /* \"#utility.yul\":9790:9791   */\n      0x00\n        /* \"#utility.yul\":9779:9788   */\n      dup4\n        /* \"#utility.yul\":9775:9792   */\n      add\n        /* \"#utility.yul\":9768:9815   */\n      mstore\n        /* \"#utility.yul\":9832:9963   */\n      tag_492\n        /* \"#utility.yul\":9958:9962   */\n      dup2\n        /* \"#utility.yul\":9832:9963   */\n      tag_345\n      jump\t// in\n    tag_492:\n        /* \"#utility.yul\":9824:9963   */\n      swap1\n      pop\n        /* \"#utility.yul\":9551:9970   */\n      swap2\n      swap1\n      pop\n      jump\t// out\n        /* \"#utility.yul\":9976:10147   */\n    tag_346:\n        /* \"#utility.yul\":10116:10139   */\n      0x4d616e6167657220616c72656164792061646465640000000000000000000000\n        /* \"#utility.yul\":10112:10113   */\n      0x00\n        /* \"#utility.yul\":10104:10110   */\n      dup3\n        /* \"#utility.yul\":10100:10114   */\n      add\n        /* \"#utility.yul\":10093:10140   */\n      mstore\n        /* \"#utility.yul\":9976:10147   */\n      pop\n      jump\t// out\n        /* \"#utility.yul\":10153:10519   */\n    tag_347:\n        /* \"#utility.yul\":10295:10298   */\n      0x00\n        /* \"#utility.yul\":10316:10383   */\n      tag_495\n        /* \"#utility.yul\":10380:10382   */\n      0x15\n        /* \"#utility.yul\":10375:10378   */\n      dup4\n        /* \"#utility.yul\":10316:10383   */\n      tag_336\n      jump\t// in\n    tag_495:\n        /* \"#utility.yul\":10309:10383   */\n      swap2\n      pop\n        /* \"#utility.yul\":10392:10485   */\n      tag_496\n        /* \"#utility.yul\":10481:10484   */\n      dup3\n        /* \"#utility.yul\":10392:10485   */\n      tag_346\n      jump\t// in\n    tag_496:\n        /* \"#utility.yul\":10510:10512   */\n      0x20\n        /* \"#utility.yul\":10505:10508   */\n      dup3\n        /* \"#utility.yul\":10501:10513   */\n      add\n        /* \"#utility.yul\":10494:10513   */\n      swap1\n      pop\n        /* \"#utility.yul\":10153:10519   */\n      swap2\n      swap1\n      pop\n      jump\t// out\n        /* \"#utility.yul\":10525:10944   */\n    tag_140:\n        /* \"#utility.yul\":10691:10695   */\n      0x00\n        /* \"#utility.yul\":10729:10731   */\n      0x20\n        /* \"#utility.yul\":10718:10727   */\n      dup3\n        /* \"#utility.yul\":10714:10732   */\n      add\n        /* \"#utility.yul\":10706:10732   */\n      swap1\n      pop\n        /* \"#utility.yul\":10778:10787   */\n      dup2\n        /* \"#utility.yul\":10772:10776   */\n      dup2\n        /* \"#utility.yul\":10768:10788   */\n      sub\n        /* \"#utility.yul\":10764:10765   */\n      0x00\n        /* \"#utility.yul\":10753:10762   */\n      dup4\n        /* \"#utility.yul\":10749:10766   */\n      add\n        /* \"#utility.yul\":10742:10789   */\n      mstore\n        /* \"#utility.yul\":10806:10937   */\n      tag_498\n        /* \"#utility.yul\":10932:10936   */\n      dup2\n        /* \"#utility.yul\":10806:10937   */\n      tag_347\n      jump\t// in\n    tag_498:\n        /* \"#utility.yul\":10798:10937   */\n      swap1\n      pop\n        /* \"#utility.yul\":10525:10944   */\n      swap2\n      swap1\n      pop\n      jump\t// out\n        /* \"#utility.yul\":10950:11116   */\n    tag_348:\n        /* \"#utility.yul\":11090:11108   */\n      0x546f6b656e206e6f742061637469766500000000000000000000000000000000\n        /* \"#utility.yul\":11086:11087   */\n      0x00\n        /* \"#utility.yul\":11078:11084   */\n      dup3\n        /* \"#utility.yul\":11074:11088   */\n      add\n        /* \"#utility.yul\":11067:11109   */\n      mstore\n        /* \"#utility.yul\":10950:11116   */\n      pop\n      jump\t// out\n        /* \"#utility.yul\":11122:11488   */\n    tag_349:\n        /* \"#utility.yul\":11264:11267   */\n      0x00\n        /* \"#utility.yul\":11285:11352   */\n      tag_501\n        /* \"#utility.yul\":11349:11351   */\n      0x10\n        /* \"#utility.yul\":11344:11347   */\n      dup4\n        /* \"#utility.yul\":11285:11352   */\n      tag_336\n      jump\t// in\n    tag_501:\n        /* \"#utility.yul\":11278:11352   */\n      swap2\n      pop\n        /* \"#utility.yul\":11361:11454   */\n      tag_502\n        /* \"#utility.yul\":11450:11453   */\n      dup3\n        /* \"#utility.yul\":11361:11454   */\n      tag_348\n      jump\t// in\n    tag_502:\n        /* \"#utility.yul\":11479:11481   */\n      0x20\n        /* \"#utility.yul\":11474:11477   */\n      dup3\n        /* \"#utility.yul\":11470:11482   */\n      add\n        /* \"#utility.yul\":11463:11482   */\n      swap1\n      pop\n        /* \"#utility.yul\":11122:11488   */\n      swap2\n      swap1\n      pop\n      jump\t// out\n        /* \"#utility.yul\":11494:11913   */\n    tag_148:\n        /* \"#utility.yul\":11660:11664   */\n      0x00\n        /* \"#utility.yul\":11698:11700   */\n      0x20\n        /* \"#utility.yul\":11687:11696   */\n      dup3\n        /* \"#utility.yul\":11683:11701   */\n      add\n        /* \"#utility.yul\":11675:11701   */\n      swap1\n      pop\n        /* \"#utility.yul\":11747:11756   */\n      dup2\n        /* \"#utility.yul\":11741:11745   */\n      dup2\n        /* \"#utility.yul\":11737:11757   */\n      sub\n        /* \"#utility.yul\":11733:11734   */\n      0x00\n        /* \"#utility.yul\":11722:11731   */\n      dup4\n        /* \"#utility.yul\":11718:11735   */\n      add\n        /* \"#utility.yul\":11711:11758   */\n      mstore\n        /* \"#utility.yul\":11775:11906   */\n      tag_504\n        /* \"#utility.yul\":11901:11905   */\n      dup2\n        /* \"#utility.yul\":11775:11906   */\n      tag_349\n      jump\t// in\n    tag_504:\n        /* \"#utility.yul\":11767:11906   */\n      swap1\n      pop\n        /* \"#utility.yul\":11494:11913   */\n      swap2\n      swap1\n      pop\n      jump\t// out\n        /* \"#utility.yul\":11919:12101   */\n    tag_350:\n        /* \"#utility.yul\":12059:12093   */\n      0x416d6f756e74206d7573742062652067726561746572207468616e207a65726f\n        /* \"#utility.yul\":12055:12056   */\n      0x00\n        /* \"#utility.yul\":12047:12053   */\n      dup3\n        /* \"#utility.yul\":12043:12057   */\n      add\n        /* \"#utility.yul\":12036:12094   */\n      mstore\n        /* \"#utility.yul\":11919:12101   */\n      pop\n      jump\t// out\n        /* \"#utility.yul\":12107:12473   */\n    tag_351:\n        /* \"#utility.yul\":12249:12252   */\n      0x00\n        /* \"#utility.yul\":12270:12337   */\n      tag_507\n        /* \"#utility.yul\":12334:12336   */\n      0x20\n        /* \"#utility.yul\":12329:12332   */\n      dup4\n        /* \"#utility.yul\":12270:12337   */\n      tag_336\n      jump\t// in\n    tag_507:\n        /* \"#utility.yul\":12263:12337   */\n      swap2\n      pop\n        /* \"#utility.yul\":12346:12439   */\n      tag_508\n        /* \"#utility.yul\":12435:12438   */\n      dup3\n        /* \"#utility.yul\":12346:12439   */\n      tag_350\n      jump\t// in\n    tag_508:\n        /* \"#utility.yul\":12464:12466   */\n      0x20\n        /* \"#utility.yul\":12459:12462   */\n      dup3\n        /* \"#utility.yul\":12455:12467   */\n      add\n        /* \"#utility.yul\":12448:12467   */\n      swap1\n      pop\n        /* \"#utility.yul\":12107:12473   */\n      swap2\n      swap1\n      pop\n      jump\t// out\n        /* \"#utility.yul\":12479:12898   */\n    tag_184:\n        /* \"#utility.yul\":12645:12649   */\n      0x00\n        /* \"#utility.yul\":12683:12685   */\n      0x20\n        /* \"#utility.yul\":12672:12681   */\n      dup3\n        /* \"#utility.yul\":12668:12686   */\n      add\n        /* \"#utility.yul\":12660:12686   */\n      swap1\n      pop\n        /* \"#utility.yul\":12732:12741   */\n      dup2\n        /* \"#utility.yul\":12726:12730   */\n      dup2\n        /* \"#utility.yul\":12722:12742   */\n      sub\n        /* \"#utility.yul\":12718:12719   */\n      0x00\n        /* \"#utility.yul\":12707:12716   */\n      dup4\n        /* \"#utility.yul\":12703:12720   */\n      add\n        /* \"#utility.yul\":12696:12743   */\n      mstore\n        /* \"#utility.yul\":12760:12891   */\n      tag_510\n        /* \"#utility.yul\":12886:12890   */\n      dup2\n        /* \"#utility.yul\":12760:12891   */\n      tag_351\n      jump\t// in\n    tag_510:\n        /* \"#utility.yul\":12752:12891   */\n      swap1\n      pop\n        /* \"#utility.yul\":12479:12898   */\n      swap2\n      swap1\n      pop\n      jump\t// out\n        /* \"#utility.yul\":12904:13078   */\n    tag_352:\n        /* \"#utility.yul\":13044:13070   */\n      0x5374616b656420616d6f756e74206e6f7420656e6f7567680000000000000000\n        /* \"#utility.yul\":13040:13041   */\n      0x00\n        /* \"#utility.yul\":13032:13038   */\n      dup3\n        /* \"#utility.yul\":13028:13042   */\n      add\n        /* \"#utility.yul\":13021:13071   */\n      mstore\n        /* \"#utility.yul\":12904:13078   */\n      pop\n      jump\t// out\n        /* \"#utility.yul\":13084:13450   */\n    tag_353:\n        /* \"#utility.yul\":13226:13229   */\n      0x00\n        /* \"#utility.yul\":13247:13314   */\n      tag_513\n        /* \"#utility.yul\":13311:13313   */\n      0x18\n        /* \"#utility.yul\":13306:13309   */\n      dup4\n        /* \"#utility.yul\":13247:13314   */\n      tag_336\n      jump\t// in\n    tag_513:\n        /* \"#utility.yul\":13240:13314   */\n      swap2\n      pop\n        /* \"#utility.yul\":13323:13416   */\n      tag_514\n        /* \"#utility.yul\":13412:13415   */\n      dup3\n        /* \"#utility.yul\":13323:13416   */\n      tag_352\n      jump\t// in\n    tag_514:\n        /* \"#utility.yul\":13441:13443   */\n      0x20\n        /* \"#utility.yul\":13436:13439   */\n      dup3\n        /* \"#utility.yul\":13432:13444   */\n      add\n        /* \"#utility.yul\":13425:13444   */\n      swap1\n      pop\n        /* \"#utility.yul\":13084:13450   */\n      swap2\n      swap1\n      pop\n      jump\t// out\n        /* \"#utility.yul\":13456:13875   */\n    tag_187:\n        /* \"#utility.yul\":13622:13626   */\n      0x00\n        /* \"#utility.yul\":13660:13662   */\n      0x20\n        /* \"#utility.yul\":13649:13658   */\n      dup3\n        /* \"#utility.yul\":13645:13663   */\n      add\n        /* \"#utility.yul\":13637:13663   */\n      swap1\n      pop\n        /* \"#utility.yul\":13709:13718   */\n      dup2\n        /* \"#utility.yul\":13703:13707   */\n      dup2\n        /* \"#utility.yul\":13699:13719   */\n      sub\n        /* \"#utility.yul\":13695:13696   */\n      0x00\n        /* \"#utility.yul\":13684:13693   */\n      dup4\n        /* \"#utility.yul\":13680:13697   */\n      add\n        /* \"#utility.yul\":13673:13720   */\n      mstore\n        /* \"#utility.yul\":13737:13868   */\n      tag_516\n        /* \"#utility.yul\":13863:13867   */\n      dup2\n        /* \"#utility.yul\":13737:13868   */\n      tag_353\n      jump\t// in\n    tag_516:\n        /* \"#utility.yul\":13729:13868   */\n      swap1\n      pop\n        /* \"#utility.yul\":13456:13875   */\n      swap2\n      swap1\n      pop\n      jump\t// out\n        /* \"#utility.yul\":13881:13999   */\n    tag_354:\n        /* \"#utility.yul\":13968:13992   */\n      tag_518\n        /* \"#utility.yul\":13986:13991   */\n      dup2\n        /* \"#utility.yul\":13968:13992   */\n      tag_319\n      jump\t// in\n    tag_518:\n        /* \"#utility.yul\":13963:13966   */\n      dup3\n        /* \"#utility.yul\":13956:13993   */\n      mstore\n        /* \"#utility.yul\":13881:13999   */\n      pop\n      pop\n      jump\t// out\n        /* \"#utility.yul\":14005:14337   */\n    tag_191:\n        /* \"#utility.yul\":14126:14130   */\n      0x00\n        /* \"#utility.yul\":14164:14166   */\n      0x40\n        /* \"#utility.yul\":14153:14162   */\n      dup3\n        /* \"#utility.yul\":14149:14167   */\n      add\n        /* \"#utility.yul\":14141:14167   */\n      swap1\n      pop\n        /* \"#utility.yul\":14177:14248   */\n      tag_520\n        /* \"#utility.yul\":14245:14246   */\n      0x00\n        /* \"#utility.yul\":14234:14243   */\n      dup4\n        /* \"#utility.yul\":14230:14247   */\n      add\n        /* \"#utility.yul\":14221:14227   */\n      dup6\n        /* \"#utility.yul\":14177:14248   */\n      tag_354\n      jump\t// in\n    tag_520:\n        /* \"#utility.yul\":14258:14330   */\n      tag_521\n        /* \"#utility.yul\":14326:14328   */\n      0x20\n        /* \"#utility.yul\":14315:14324   */\n      dup4\n        /* \"#utility.yul\":14311:14329   */\n      add\n        /* \"#utility.yul\":14302:14308   */\n      dup5\n        /* \"#utility.yul\":14258:14330   */\n      tag_323\n      jump\t// in\n    tag_521:\n        /* \"#utility.yul\":14005:14337   */\n      swap4\n      swap3\n      pop\n      pop\n      pop\n      jump\t// out\n        /* \"#utility.yul\":14343:14459   */\n    tag_355:\n        /* \"#utility.yul\":14413:14434   */\n      tag_523\n        /* \"#utility.yul\":14428:14433   */\n      dup2\n        /* \"#utility.yul\":14413:14434   */\n      tag_340\n      jump\t// in\n    tag_523:\n        /* \"#utility.yul\":14406:14411   */\n      dup2\n        /* \"#utility.yul\":14403:14435   */\n      eq\n        /* \"#utility.yul\":14393:14453   */\n      tag_524\n      jumpi\n        /* \"#utility.yul\":14449:14450   */\n      0x00\n        /* \"#utility.yul\":14446:14447   */\n      dup1\n        /* \"#utility.yul\":14439:14451   */\n      revert\n        /* \"#utility.yul\":14393:14453   */\n    tag_524:\n        /* \"#utility.yul\":14343:14459   */\n      pop\n      jump\t// out\n        /* \"#utility.yul\":14465:14602   */\n    tag_356:\n        /* \"#utility.yul\":14519:14524   */\n      0x00\n        /* \"#utility.yul\":14550:14556   */\n      dup2\n        /* \"#utility.yul\":14544:14557   */\n      mload\n        /* \"#utility.yul\":14535:14557   */\n      swap1\n      pop\n        /* \"#utility.yul\":14566:14596   */\n      tag_526\n        /* \"#utility.yul\":14590:14595   */\n      dup2\n        /* \"#utility.yul\":14566:14596   */\n      tag_355\n      jump\t// in\n    tag_526:\n        /* \"#utility.yul\":14465:14602   */\n      swap3\n      swap2\n      pop\n      pop\n      jump\t// out\n        /* \"#utility.yul\":14608:14953   */\n    tag_195:\n        /* \"#utility.yul\":14675:14681   */\n      0x00\n        /* \"#utility.yul\":14724:14726   */\n      0x20\n        /* \"#utility.yul\":14712:14721   */\n      dup3\n        /* \"#utility.yul\":14703:14710   */\n      dup5\n        /* \"#utility.yul\":14699:14722   */\n      sub\n        /* \"#utility.yul\":14695:14727   */\n      slt\n        /* \"#utility.yul\":14692:14811   */\n      iszero\n      tag_528\n      jumpi\n        /* \"#utility.yul\":14730:14809   */\n      tag_529\n      tag_316\n      jump\t// in\n    tag_529:\n        /* \"#utility.yul\":14692:14811   */\n    tag_528:\n        /* \"#utility.yul\":14850:14851   */\n      0x00\n        /* \"#utility.yul\":14875:14936   */\n      tag_530\n        /* \"#utility.yul\":14928:14935   */\n      dup5\n        /* \"#utility.yul\":14919:14925   */\n      dup3\n        /* \"#utility.yul\":14908:14917   */\n      dup6\n        /* \"#utility.yul\":14904:14926   */\n      add\n        /* \"#utility.yul\":14875:14936   */\n      tag_356\n      jump\t// in\n    tag_530:\n        /* \"#utility.yul\":14865:14936   */\n      swap2\n      pop\n        /* \"#utility.yul\":14821:14946   */\n      pop\n        /* \"#utility.yul\":14608:14953   */\n      swap3\n      swap2\n      pop\n      pop\n      jump\t// out\n        /* \"#utility.yul\":14959:15124   */\n    tag_357:\n        /* \"#utility.yul\":15099:15116   */\n      0x5472616e73666572204661696c65640000000000000000000000000000000000\n        /* \"#utility.yul\":15095:15096   */\n      0x00\n        /* \"#utility.yul\":15087:15093   */\n      dup3\n        /* \"#utility.yul\":15083:15097   */\n      add\n        /* \"#utility.yul\":15076:15117   */\n      mstore\n        /* \"#utility.yul\":14959:15124   */\n      pop\n      jump\t// out\n        /* \"#utility.yul\":15130:15496   */\n    tag_358:\n        /* \"#utility.yul\":15272:15275   */\n      0x00\n        /* \"#utility.yul\":15293:15360   */\n      tag_533\n        /* \"#utility.yul\":15357:15359   */\n      0x0f\n        /* \"#utility.yul\":15352:15355   */\n      dup4\n        /* \"#utility.yul\":15293:15360   */\n      tag_336\n      jump\t// in\n    tag_533:\n        /* \"#utility.yul\":15286:15360   */\n      swap2\n      pop\n        /* \"#utility.yul\":15369:15462   */\n      tag_534\n        /* \"#utility.yul\":15458:15461   */\n      dup3\n        /* \"#utility.yul\":15369:15462   */\n      tag_357\n      jump\t// in\n    tag_534:\n        /* \"#utility.yul\":15487:15489   */\n      0x20\n        /* \"#utility.yul\":15482:15485   */\n      dup3\n        /* \"#utility.yul\":15478:15490   */\n      add\n        /* \"#utility.yul\":15471:15490   */\n      swap1\n      pop\n        /* \"#utility.yul\":15130:15496   */\n      swap2\n      swap1\n      pop\n      jump\t// out\n        /* \"#utility.yul\":15502:15921   */\n    tag_198:\n        /* \"#utility.yul\":15668:15672   */\n      0x00\n        /* \"#utility.yul\":15706:15708   */\n      0x20\n        /* \"#utility.yul\":15695:15704   */\n      dup3\n        /* \"#utility.yul\":15691:15709   */\n      add\n        /* \"#utility.yul\":15683:15709   */\n      swap1\n      pop\n        /* \"#utility.yul\":15755:15764   */\n      dup2\n        /* \"#utility.yul\":15749:15753   */\n      dup2\n        /* \"#utility.yul\":15745:15765   */\n      sub\n        /* \"#utility.yul\":15741:15742   */\n      0x00\n        /* \"#utility.yul\":15730:15739   */\n      dup4\n        /* \"#utility.yul\":15726:15743   */\n      add\n        /* \"#utility.yul\":15719:15766   */\n      mstore\n        /* \"#utility.yul\":15783:15914   */\n      tag_536\n        /* \"#utility.yul\":15909:15913   */\n      dup2\n        /* \"#utility.yul\":15783:15914   */\n      tag_358\n      jump\t// in\n    tag_536:\n        /* \"#utility.yul\":15775:15914   */\n      swap1\n      pop\n        /* \"#utility.yul\":15502:15921   */\n      swap2\n      swap1\n      pop\n      jump\t// out\n        /* \"#utility.yul\":15927:16094   */\n    tag_359:\n        /* \"#utility.yul\":16067:16086   */\n      0x4d616e61676572206e6f7420666f756e64000000000000000000000000000000\n        /* \"#utility.yul\":16063:16064   */\n      0x00\n        /* \"#utility.yul\":16055:16061   */\n      dup3\n        /* \"#utility.yul\":16051:16065   */\n      add\n        /* \"#utility.yul\":16044:16087   */\n      mstore\n        /* \"#utility.yul\":15927:16094   */\n      pop\n      jump\t// out\n        /* \"#utility.yul\":16100:16466   */\n    tag_360:\n        /* \"#utility.yul\":16242:16245   */\n      0x00\n        /* \"#utility.yul\":16263:16330   */\n      tag_539\n        /* \"#utility.yul\":16327:16329   */\n      0x11\n        /* \"#utility.yul\":16322:16325   */\n      dup4\n        /* \"#utility.yul\":16263:16330   */\n      tag_336\n      jump\t// in\n    tag_539:\n        /* \"#utility.yul\":16256:16330   */\n      swap2\n      pop\n        /* \"#utility.yul\":16339:16432   */\n      tag_540\n        /* \"#utility.yul\":16428:16431   */\n      dup3\n        /* \"#utility.yul\":16339:16432   */\n      tag_359\n      jump\t// in\n    tag_540:\n        /* \"#utility.yul\":16457:16459   */\n      0x20\n        /* \"#utility.yul\":16452:16455   */\n      dup3\n        /* \"#utility.yul\":16448:16460   */\n      add\n        /* \"#utility.yul\":16441:16460   */\n      swap1\n      pop\n        /* \"#utility.yul\":16100:16466   */\n      swap2\n      swap1\n      pop\n      jump\t// out\n        /* \"#utility.yul\":16472:16891   */\n    tag_230:\n        /* \"#utility.yul\":16638:16642   */\n      0x00\n        /* \"#utility.yul\":16676:16678   */\n      0x20\n        /* \"#utility.yul\":16665:16674   */\n      dup3\n        /* \"#utility.yul\":16661:16679   */\n      add\n        /* \"#utility.yul\":16653:16679   */\n      swap1\n      pop\n        /* \"#utility.yul\":16725:16734   */\n      dup2\n        /* \"#utility.yul\":16719:16723   */\n      dup2\n        /* \"#utility.yul\":16715:16735   */\n      sub\n        /* \"#utility.yul\":16711:16712   */\n      0x00\n        /* \"#utility.yul\":16700:16709   */\n      dup4\n        /* \"#utility.yul\":16696:16713   */\n      add\n        /* \"#utility.yul\":16689:16736   */\n      mstore\n        /* \"#utility.yul\":16753:16884   */\n      tag_542\n        /* \"#utility.yul\":16879:16883   */\n      dup2\n        /* \"#utility.yul\":16753:16884   */\n      tag_360\n      jump\t// in\n    tag_542:\n        /* \"#utility.yul\":16745:16884   */\n      swap1\n      pop\n        /* \"#utility.yul\":16472:16891   */\n      swap2\n      swap1\n      pop\n      jump\t// out\n        /* \"#utility.yul\":16897:17339   */\n    tag_246:\n        /* \"#utility.yul\":17046:17050   */\n      0x00\n        /* \"#utility.yul\":17084:17086   */\n      0x60\n        /* \"#utility.yul\":17073:17082   */\n      dup3\n        /* \"#utility.yul\":17069:17087   */\n      add\n        /* \"#utility.yul\":17061:17087   */\n      swap1\n      pop\n        /* \"#utility.yul\":17097:17168   */\n      tag_544\n        /* \"#utility.yul\":17165:17166   */\n      0x00\n        /* \"#utility.yul\":17154:17163   */\n      dup4\n        /* \"#utility.yul\":17150:17167   */\n      add\n        /* \"#utility.yul\":17141:17147   */\n      dup7\n        /* \"#utility.yul\":17097:17168   */\n      tag_354\n      jump\t// in\n    tag_544:\n        /* \"#utility.yul\":17178:17250   */\n      tag_545\n        /* \"#utility.yul\":17246:17248   */\n      0x20\n        /* \"#utility.yul\":17235:17244   */\n      dup4\n        /* \"#utility.yul\":17231:17249   */\n      add\n        /* \"#utility.yul\":17222:17228   */\n      dup6\n        /* \"#utility.yul\":17178:17250   */\n      tag_354\n      jump\t// in\n    tag_545:\n        /* \"#utility.yul\":17260:17332   */\n      tag_546\n        /* \"#utility.yul\":17328:17330   */\n      0x40\n        /* \"#utility.yul\":17317:17326   */\n      dup4\n        /* \"#utility.yul\":17313:17331   */\n      add\n        /* \"#utility.yul\":17304:17310   */\n      dup5\n        /* \"#utility.yul\":17260:17332   */\n      tag_323\n      jump\t// in\n    tag_546:\n        /* \"#utility.yul\":16897:17339   */\n      swap5\n      swap4\n      pop\n      pop\n      pop\n      pop\n      jump\t// out\n        /* \"#utility.yul\":17345:17527   */\n    tag_361:\n        /* \"#utility.yul\":17485:17519   */\n      0x4f776e61626c653a2063616c6c6572206973206e6f7420746865206f776e6572\n        /* \"#utility.yul\":17481:17482   */\n      0x00\n        /* \"#utility.yul\":17473:17479   */\n      dup3\n        /* \"#utility.yul\":17469:17483   */\n      add\n        /* \"#utility.yul\":17462:17520   */\n      mstore\n        /* \"#utility.yul\":17345:17527   */\n      pop\n      jump\t// out\n        /* \"#utility.yul\":17533:17899   */\n    tag_362:\n        /* \"#utility.yul\":17675:17678   */\n      0x00\n        /* \"#utility.yul\":17696:17763   */\n      tag_549\n        /* \"#utility.yul\":17760:17762   */\n      0x20\n        /* \"#utility.yul\":17755:17758   */\n      dup4\n        /* \"#utility.yul\":17696:17763   */\n      tag_336\n      jump\t// in\n    tag_549:\n        /* \"#utility.yul\":17689:17763   */\n      swap2\n      pop\n        /* \"#utility.yul\":17772:17865   */\n      tag_550\n        /* \"#utility.yul\":17861:17864   */\n      dup3\n        /* \"#utility.yul\":17772:17865   */\n      tag_361\n      jump\t// in\n    tag_550:\n        /* \"#utility.yul\":17890:17892   */\n      0x20\n        /* \"#utility.yul\":17885:17888   */\n      dup3\n        /* \"#utility.yul\":17881:17893   */\n      add\n        /* \"#utility.yul\":17874:17893   */\n      swap1\n      pop\n        /* \"#utility.yul\":17533:17899   */\n      swap2\n      swap1\n      pop\n      jump\t// out\n        /* \"#utility.yul\":17905:18324   */\n    tag_256:\n        /* \"#utility.yul\":18071:18075   */\n      0x00\n        /* \"#utility.yul\":18109:18111   */\n      0x20\n        /* \"#utility.yul\":18098:18107   */\n      dup3\n        /* \"#utility.yul\":18094:18112   */\n      add\n        /* \"#utility.yul\":18086:18112   */\n      swap1\n      pop\n        /* \"#utility.yul\":18158:18167   */\n      dup2\n        /* \"#utility.yul\":18152:18156   */\n      dup2\n        /* \"#utility.yul\":18148:18168   */\n      sub\n        /* \"#utility.yul\":18144:18145   */\n      0x00\n        /* \"#utility.yul\":18133:18142   */\n      dup4\n        /* \"#utility.yul\":18129:18146   */\n      add\n        /* \"#utility.yul\":18122:18169   */\n      mstore\n        /* \"#utility.yul\":18186:18317   */\n      tag_552\n        /* \"#utility.yul\":18312:18316   */\n      dup2\n        /* \"#utility.yul\":18186:18317   */\n      tag_362\n      jump\t// in\n    tag_552:\n        /* \"#utility.yul\":18178:18317   */\n      swap1\n      pop\n        /* \"#utility.yul\":17905:18324   */\n      swap2\n      swap1\n      pop\n      jump\t// out\n        /* \"#utility.yul\":18330:18499   */\n    tag_363:\n        /* \"#utility.yul\":18470:18491   */\n      0x546f6b656e20616c726561647920616464656400000000000000000000000000\n        /* \"#utility.yul\":18466:18467   */\n      0x00\n        /* \"#utility.yul\":18458:18464   */\n      dup3\n        /* \"#utility.yul\":18454:18468   */\n      add\n        /* \"#utility.yul\":18447:18492   */\n      mstore\n        /* \"#utility.yul\":18330:18499   */\n      pop\n      jump\t// out\n        /* \"#utility.yul\":18505:18871   */\n    tag_364:\n        /* \"#utility.yul\":18647:18650   */\n      0x00\n        /* \"#utility.yul\":18668:18735   */\n      tag_555\n        /* \"#utility.yul\":18732:18734   */\n      0x13\n        /* \"#utility.yul\":18727:18730   */\n      dup4\n        /* \"#utility.yul\":18668:18735   */\n      tag_336\n      jump\t// in\n    tag_555:\n        /* \"#utility.yul\":18661:18735   */\n      swap2\n      pop\n        /* \"#utility.yul\":18744:18837   */\n      tag_556\n        /* \"#utility.yul\":18833:18836   */\n      dup3\n        /* \"#utility.yul\":18744:18837   */\n      tag_363\n      jump\t// in\n    tag_556:\n        /* \"#utility.yul\":18862:18864   */\n      0x20\n        /* \"#utility.yul\":18857:18860   */\n      dup3\n        /* \"#utility.yul\":18853:18865   */\n      add\n        /* \"#utility.yul\":18846:18865   */\n      swap1\n      pop\n        /* \"#utility.yul\":18505:18871   */\n      swap2\n      swap1\n      pop\n      jump\t// out\n        /* \"#utility.yul\":18877:19296   */\n    tag_260:\n        /* \"#utility.yul\":19043:19047   */\n      0x00\n        /* \"#utility.yul\":19081:19083   */\n      0x20\n        /* \"#utility.yul\":19070:19079   */\n      dup3\n        /* \"#utility.yul\":19066:19084   */\n      add\n        /* \"#utility.yul\":19058:19084   */\n      swap1\n      pop\n        /* \"#utility.yul\":19130:19139   */\n      dup2\n        /* \"#utility.yul\":19124:19128   */\n      dup2\n        /* \"#utility.yul\":19120:19140   */\n      sub\n        /* \"#utility.yul\":19116:19117   */\n      0x00\n        /* \"#utility.yul\":19105:19114   */\n      dup4\n        /* \"#utility.yul\":19101:19118   */\n      add\n        /* \"#utility.yul\":19094:19141   */\n      mstore\n        /* \"#utility.yul\":19158:19289   */\n      tag_558\n        /* \"#utility.yul\":19284:19288   */\n      dup2\n        /* \"#utility.yul\":19158:19289   */\n      tag_364\n      jump\t// in\n    tag_558:\n        /* \"#utility.yul\":19150:19289   */\n      swap1\n      pop\n        /* \"#utility.yul\":18877:19296   */\n      swap2\n      swap1\n      pop\n      jump\t// out\n        /* \"#utility.yul\":19302:19482   */\n    tag_365:\n        /* \"#utility.yul\":19350:19427   */\n      0x4e487b7100000000000000000000000000000000000000000000000000000000\n        /* \"#utility.yul\":19347:19348   */\n      0x00\n        /* \"#utility.yul\":19340:19428   */\n      mstore\n        /* \"#utility.yul\":19447:19451   */\n      0x41\n        /* \"#utility.yul\":19444:19445   */\n      0x04\n        /* \"#utility.yul\":19437:19452   */\n      mstore\n        /* \"#utility.yul\":19471:19475   */\n      0x24\n        /* \"#utility.yul\":19468:19469   */\n      0x00\n        /* \"#utility.yul\":19461:19476   */\n      revert\n        /* \"#utility.yul\":19488:19668   */\n    tag_366:\n        /* \"#utility.yul\":19536:19613   */\n      0x4e487b7100000000000000000000000000000000000000000000000000000000\n        /* \"#utility.yul\":19533:19534   */\n      0x00\n        /* \"#utility.yul\":19526:19614   */\n      mstore\n        /* \"#utility.yul\":19633:19637   */\n      0x22\n        /* \"#utility.yul\":19630:19631   */\n      0x04\n        /* \"#utility.yul\":19623:19638   */\n      mstore\n        /* \"#utility.yul\":19657:19661   */\n      0x24\n        /* \"#utility.yul\":19654:19655   */\n      0x00\n        /* \"#utility.yul\":19647:19662   */\n      revert\n        /* \"#utility.yul\":19674:19994   */\n    tag_284:\n        /* \"#utility.yul\":19718:19724   */\n      0x00\n        /* \"#utility.yul\":19755:19756   */\n      0x02\n        /* \"#utility.yul\":19749:19753   */\n      dup3\n        /* \"#utility.yul\":19745:19757   */\n      div\n        /* \"#utility.yul\":19735:19757   */\n      swap1\n      pop\n        /* \"#utility.yul\":19802:19803   */\n      0x01\n        /* \"#utility.yul\":19796:19800   */\n      dup3\n        /* \"#utility.yul\":19792:19804   */\n      and\n        /* \"#utility.yul\":19823:19841   */\n      dup1\n        /* \"#utility.yul\":19813:19894   */\n      tag_562\n      jumpi\n        /* \"#utility.yul\":19879:19883   */\n      0x7f\n        /* \"#utility.yul\":19871:19877   */\n      dup3\n        /* \"#utility.yul\":19867:19884   */\n      and\n        /* \"#utility.yul\":19857:19884   */\n      swap2\n      pop\n        /* \"#utility.yul\":19813:19894   */\n    tag_562:\n        /* \"#utility.yul\":19941:19943   */\n      0x20\n        /* \"#utility.yul\":19933:19939   */\n      dup3\n        /* \"#utility.yul\":19930:19944   */\n      lt\n        /* \"#utility.yul\":19910:19928   */\n      dup2\n        /* \"#utility.yul\":19907:19945   */\n      sub\n        /* \"#utility.yul\":19904:19988   */\n      tag_563\n      jumpi\n        /* \"#utility.yul\":19960:19978   */\n      tag_564\n      tag_366\n      jump\t// in\n    tag_564:\n        /* \"#utility.yul\":19904:19988   */\n    tag_563:\n        /* \"#utility.yul\":19725:19994   */\n      pop\n        /* \"#utility.yul\":19674:19994   */\n      swap2\n      swap1\n      pop\n      jump\t// out\n        /* \"#utility.yul\":20000:20141   */\n    tag_367:\n        /* \"#utility.yul\":20049:20053   */\n      0x00\n        /* \"#utility.yul\":20072:20075   */\n      dup2\n        /* \"#utility.yul\":20064:20075   */\n      swap1\n      pop\n        /* \"#utility.yul\":20095:20098   */\n      dup2\n        /* \"#utility.yul\":20092:20093   */\n      0x00\n        /* \"#utility.yul\":20085:20099   */\n      mstore\n        /* \"#utility.yul\":20129:20133   */\n      0x20\n        /* \"#utility.yul\":20126:20127   */\n      0x00\n        /* \"#utility.yul\":20116:20134   */\n      keccak256\n        /* \"#utility.yul\":20108:20134   */\n      swap1\n      pop\n        /* \"#utility.yul\":20000:20141   */\n      swap2\n      swap1\n      pop\n      jump\t// out\n        /* \"#utility.yul\":20147:20240   */\n    tag_368:\n        /* \"#utility.yul\":20184:20190   */\n      0x00\n        /* \"#utility.yul\":20231:20233   */\n      0x20\n        /* \"#utility.yul\":20226:20228   */\n      0x1f\n        /* \"#utility.yul\":20219:20224   */\n      dup4\n        /* \"#utility.yul\":20215:20229   */\n      add\n        /* \"#utility.yul\":20211:20234   */\n      div\n        /* \"#utility.yul\":20201:20234   */\n      swap1\n      pop\n        /* \"#utility.yul\":20147:20240   */\n      swap2\n      swap1\n      pop\n      jump\t// out\n        /* \"#utility.yul\":20246:20353   */\n    tag_369:\n        /* \"#utility.yul\":20290:20298   */\n      0x00\n        /* \"#utility.yul\":20340:20345   */\n      dup3\n        /* \"#utility.yul\":20334:20338   */\n      dup3\n        /* \"#utility.yul\":20330:20346   */\n      shl\n        /* \"#utility.yul\":20309:20346   */\n      swap1\n      pop\n        /* \"#utility.yul\":20246:20353   */\n      swap3\n      swap2\n      pop\n      pop\n      jump\t// out\n        /* \"#utility.yul\":20359:20752   */\n    tag_370:\n        /* \"#utility.yul\":20428:20434   */\n      0x00\n        /* \"#utility.yul\":20478:20479   */\n      0x08\n        /* \"#utility.yul\":20466:20476   */\n      dup4\n        /* \"#utility.yul\":20462:20480   */\n      mul\n        /* \"#utility.yul\":20501:20598   */\n      tag_569\n        /* \"#utility.yul\":20531:20597   */\n      0xffffffffffffffffffffffffffffffffffffffffffffffffffffffffffffffff\n        /* \"#utility.yul\":20520:20529   */\n      dup3\n        /* \"#utility.yul\":20501:20598   */\n      tag_369\n      jump\t// in\n    tag_569:\n        /* \"#utility.yul\":20619:20658   */\n      tag_570\n        /* \"#utility.yul\":20649:20657   */\n      dup7\n        /* \"#utility.yul\":20638:20647   */\n      dup4\n        /* \"#utility.yul\":20619:20658   */\n      tag_369\n      jump\t// in\n    tag_570:\n        /* \"#utility.yul\":20607:20658   */\n      swap6\n      pop\n        /* \"#utility.yul\":20691:20695   */\n      dup1\n        /* \"#utility.yul\":20687:20696   */\n      not\n        /* \"#utility.yul\":20680:20685   */\n      dup5\n        /* \"#utility.yul\":20676:20697   */\n      and\n        /* \"#utility.yul\":20667:20697   */\n      swap4\n      pop\n        /* \"#utility.yul\":20740:20744   */\n      dup1\n        /* \"#utility.yul\":20730:20738   */\n      dup7\n        /* \"#utility.yul\":20726:20745   */\n      and\n        /* \"#utility.yul\":20719:20724   */\n      dup5\n        /* \"#utility.yul\":20716:20746   */\n      or\n        /* \"#utility.yul\":20706:20746   */\n      swap3\n      pop\n        /* \"#utility.yul\":20435:20752   */\n      pop\n      pop\n        /* \"#utility.yul\":20359:20752   */\n      swap4\n      swap3\n      pop\n      pop\n      pop\n      jump\t// out\n        /* \"#utility.yul\":20758:20818   */\n    tag_371:\n        /* \"#utility.yul\":20786:20789   */\n      0x00\n        /* \"#utility.yul\":20807:20812   */\n      dup2\n        /* \"#utility.yul\":20800:20812   */\n      swap1\n      pop\n        /* \"#utility.yul\":20758:20818   */\n      swap2\n      swap1\n      pop\n      jump\t// out\n        /* \"#utility.yul\":20824:20966   */\n    tag_372:\n        /* \"#utility.yul\":20874:20883   */\n      0x00\n        /* \"#utility.yul\":20907:20960   */\n      tag_573\n        /* \"#utility.yul\":20925:20959   */\n      tag_574\n        /* \"#utility.yul\":20934:20958   */\n      tag_575\n        /* \"#utility.yul\":20952:20957   */\n      dup5\n        /* \"#utility.yul\":20934:20958   */\n      tag_322\n      jump\t// in\n    tag_575:\n        /* \"#utility.yul\":20925:20959   */\n      tag_371\n      jump\t// in\n    tag_574:\n        /* \"#utility.yul\":20907:20960   */\n      tag_322\n      jump\t// in\n    tag_573:\n        /* \"#utility.yul\":20894:20960   */\n      swap1\n      pop\n        /* \"#utility.yul\":20824:20966   */\n      swap2\n      swap1\n      pop\n      jump\t// out\n        /* \"#utility.yul\":20972:21047   */\n    tag_373:\n        /* \"#utility.yul\":21015:21018   */\n      0x00\n        /* \"#utility.yul\":21036:21041   */\n      dup2\n        /* \"#utility.yul\":21029:21041   */\n      swap1\n      pop\n        /* \"#utility.yul\":20972:21047   */\n      swap2\n      swap1\n      pop\n      jump\t// out\n        /* \"#utility.yul\":21053:21322   */\n    tag_374:\n        /* \"#utility.yul\":21163:21202   */\n      tag_578\n        /* \"#utility.yul\":21194:21201   */\n      dup4\n        /* \"#utility.yul\":21163:21202   */\n      tag_372\n      jump\t// in\n    tag_578:\n        /* \"#utility.yul\":21224:21315   */\n      tag_579\n        /* \"#utility.yul\":21273:21314   */\n      tag_580\n        /* \"#utility.yul\":21297:21313   */\n      dup3\n        /* \"#utility.yul\":21273:21314   */\n      tag_373\n      jump\t// in\n    tag_580:\n        /* \"#utility.yul\":21265:21271   */\n      dup5\n        /* \"#utility.yul\":21258:21262   */\n      dup5\n        /* \"#utility.yul\":21252:21263   */\n      sload\n        /* \"#utility.yul\":21224:21315   */\n      tag_370\n      jump\t// in\n    tag_579:\n        /* \"#utility.yul\":21218:21222   */\n      dup3\n        /* \"#utility.yul\":21211:21316   */\n      sstore\n        /* \"#utility.yul\":21129:21322   */\n      pop\n        /* \"#utility.yul\":21053:21322   */\n      pop\n      pop\n      pop\n      jump\t// out\n        /* \"#utility.yul\":21328:21401   */\n    tag_375:\n        /* \"#utility.yul\":21373:21376   */\n      0x00\n        /* \"#utility.yul\":21328:21401   */\n      swap1\n      jump\t// out\n        /* \"#utility.yul\":21407:21596   */\n    tag_376:\n        /* \"#utility.yul\":21484:21516   */\n      tag_583\n      tag_375\n      jump\t// in\n    tag_583:\n        /* \"#utility.yul\":21525:21590   */\n      tag_584\n        /* \"#utility.yul\":21583:21589   */\n      dup2\n        /* \"#utility.yul\":21575:21581   */\n      dup5\n        /* \"#utility.yul\":21569:21573   */\n      dup5\n        /* \"#utility.yul\":21525:21590   */\n      tag_374\n      jump\t// in\n    tag_584:\n        /* \"#utility.yul\":21460:21596   */\n      pop\n        /* \"#utility.yul\":21407:21596   */\n      pop\n      pop\n      jump\t// out\n        /* \"#utility.yul\":21602:21788   */\n    tag_377:\n        /* \"#utility.yul\":21662:21782   */\n    tag_586:\n        /* \"#utility.yul\":21679:21682   */\n      dup2\n        /* \"#utility.yul\":21672:21677   */\n      dup2\n        /* \"#utility.yul\":21669:21683   */\n      lt\n        /* \"#utility.yul\":21662:21782   */\n      iszero\n      tag_588\n      jumpi\n        /* \"#utility.yul\":21733:21772   */\n      tag_589\n        /* \"#utility.yul\":21770:21771   */\n      0x00\n        /* \"#utility.yul\":21763:21768   */\n      dup3\n        /* \"#utility.yul\":21733:21772   */\n      tag_376\n      jump\t// in\n    tag_589:\n        /* \"#utility.yul\":21706:21707   */\n      0x01\n        /* \"#utility.yul\":21699:21704   */\n      dup2\n        /* \"#utility.yul\":21695:21708   */\n      add\n        /* \"#utility.yul\":21686:21708   */\n      swap1\n      pop\n        /* \"#utility.yul\":21662:21782   */\n      jump(tag_586)\n    tag_588:\n        /* \"#utility.yul\":21602:21788   */\n      pop\n      pop\n      jump\t// out\n        /* \"#utility.yul\":21794:22337   */\n    tag_378:\n        /* \"#utility.yul\":21895:21897   */\n      0x1f\n        /* \"#utility.yul\":21890:21893   */\n      dup3\n        /* \"#utility.yul\":21887:21898   */\n      gt\n        /* \"#utility.yul\":21884:22330   */\n      iszero\n      tag_591\n      jumpi\n        /* \"#utility.yul\":21929:21967   */\n      tag_592\n        /* \"#utility.yul\":21961:21966   */\n      dup2\n        /* \"#utility.yul\":21929:21967   */\n      tag_367\n      jump\t// in\n    tag_592:\n        /* \"#utility.yul\":22013:22042   */\n      tag_593\n        /* \"#utility.yul\":22031:22041   */\n      dup5\n        /* \"#utility.yul\":22013:22042   */\n      tag_368\n      jump\t// in\n    tag_593:\n        /* \"#utility.yul\":22003:22011   */\n      dup2\n        /* \"#utility.yul\":21999:22043   */\n      add\n        /* \"#utility.yul\":22196:22198   */\n      0x20\n        /* \"#utility.yul\":22184:22194   */\n      dup6\n        /* \"#utility.yul\":22181:22199   */\n      lt\n        /* \"#utility.yul\":22178:22227   */\n      iszero\n      tag_594\n      jumpi\n        /* \"#utility.yul\":22217:22225   */\n      dup2\n        /* \"#utility.yul\":22202:22225   */\n      swap1\n      pop\n        /* \"#utility.yul\":22178:22227   */\n    tag_594:\n        /* \"#utility.yul\":22240:22320   */\n      tag_595\n        /* \"#utility.yul\":22296:22318   */\n      tag_596\n        /* \"#utility.yul\":22314:22317   */\n      dup6\n        /* \"#utility.yul\":22296:22318   */\n      tag_368\n      jump\t// in\n    tag_596:\n        /* \"#utility.yul\":22286:22294   */\n      dup4\n        /* \"#utility.yul\":22282:22319   */\n      add\n        /* \"#utility.yul\":22269:22280   */\n      dup3\n        /* \"#utility.yul\":22240:22320   */\n      tag_377\n      jump\t// in\n    tag_595:\n        /* \"#utility.yul\":21899:22330   */\n      pop\n      pop\n        /* \"#utility.yul\":21884:22330   */\n    tag_591:\n        /* \"#utility.yul\":21794:22337   */\n      pop\n      pop\n      pop\n      jump\t// out\n        /* \"#utility.yul\":22343:22460   */\n    tag_379:\n        /* \"#utility.yul\":22397:22405   */\n      0x00\n        /* \"#utility.yul\":22447:22452   */\n      dup3\n        /* \"#utility.yul\":22441:22445   */\n      dup3\n        /* \"#utility.yul\":22437:22453   */\n      shr\n        /* \"#utility.yul\":22416:22453   */\n      swap1\n      pop\n        /* \"#utility.yul\":22343:22460   */\n      swap3\n      swap2\n      pop\n      pop\n      jump\t// out\n        /* \"#utility.yul\":22466:22635   */\n    tag_380:\n        /* \"#utility.yul\":22510:22516   */\n      0x00\n        /* \"#utility.yul\":22543:22594   */\n      tag_599\n        /* \"#utility.yul\":22591:22592   */\n      0x00\n        /* \"#utility.yul\":22587:22593   */\n      not\n        /* \"#utility.yul\":22579:22584   */\n      dup5\n        /* \"#utility.yul\":22576:22577   */\n      0x08\n        /* \"#utility.yul\":22572:22585   */\n      mul\n        /* \"#utility.yul\":22543:22594   */\n      tag_379\n      jump\t// in\n    tag_599:\n        /* \"#utility.yul\":22539:22595   */\n      not\n        /* \"#utility.yul\":22624:22628   */\n      dup1\n        /* \"#utility.yul\":22618:22622   */\n      dup4\n        /* \"#utility.yul\":22614:22629   */\n      and\n        /* \"#utility.yul\":22604:22629   */\n      swap2\n      pop\n        /* \"#utility.yul\":22517:22635   */\n      pop\n        /* \"#utility.yul\":22466:22635   */\n      swap3\n      swap2\n      pop\n      pop\n      jump\t// out\n        /* \"#utility.yul\":22640:22935   */\n    tag_381:\n        /* \"#utility.yul\":22716:22720   */\n      0x00\n        /* \"#utility.yul\":22862:22891   */\n      tag_601\n        /* \"#utility.yul\":22887:22890   */\n      dup4\n        /* \"#utility.yul\":22881:22885   */\n      dup4\n        /* \"#utility.yul\":22862:22891   */\n      tag_380\n      jump\t// in\n    tag_601:\n        /* \"#utility.yul\":22854:22891   */\n      swap2\n      pop\n        /* \"#utility.yul\":22924:22927   */\n      dup3\n        /* \"#utility.yul\":22921:22922   */\n      0x02\n        /* \"#utility.yul\":22917:22928   */\n      mul\n        /* \"#utility.yul\":22911:22915   */\n      dup3\n        /* \"#utility.yul\":22908:22929   */\n      or\n        /* \"#utility.yul\":22900:22929   */\n      swap1\n      pop\n        /* \"#utility.yul\":22640:22935   */\n      swap3\n      swap2\n      pop\n      pop\n      jump\t// out\n        /* \"#utility.yul\":22940:24335   */\n    tag_262:\n        /* \"#utility.yul\":23057:23094   */\n      tag_603\n        /* \"#utility.yul\":23090:23093   */\n      dup3\n        /* \"#utility.yul\":23057:23094   */\n      tag_335\n      jump\t// in\n    tag_603:\n        /* \"#utility.yul\":23159:23177   */\n      0xffffffffffffffff\n        /* \"#utility.yul\":23151:23157   */\n      dup2\n        /* \"#utility.yul\":23148:23178   */\n      gt\n        /* \"#utility.yul\":23145:23201   */\n      iszero\n      tag_604\n      jumpi\n        /* \"#utility.yul\":23181:23199   */\n      tag_605\n      tag_365\n      jump\t// in\n    tag_605:\n        /* \"#utility.yul\":23145:23201   */\n    tag_604:\n        /* \"#utility.yul\":23225:23263   */\n      tag_606\n        /* \"#utility.yul\":23257:23261   */\n      dup3\n        /* \"#utility.yul\":23251:23262   */\n      sload\n        /* \"#utility.yul\":23225:23263   */\n      tag_284\n      jump\t// in\n    tag_606:\n        /* \"#utility.yul\":23310:23377   */\n      tag_607\n        /* \"#utility.yul\":23370:23376   */\n      dup3\n        /* \"#utility.yul\":23362:23368   */\n      dup3\n        /* \"#utility.yul\":23356:23360   */\n      dup6\n        /* \"#utility.yul\":23310:23377   */\n      tag_378\n      jump\t// in\n    tag_607:\n        /* \"#utility.yul\":23404:23405   */\n      0x00\n        /* \"#utility.yul\":23428:23432   */\n      0x20\n        /* \"#utility.yul\":23415:23432   */\n      swap1\n      pop\n        /* \"#utility.yul\":23460:23462   */\n      0x1f\n        /* \"#utility.yul\":23452:23458   */\n      dup4\n        /* \"#utility.yul\":23449:23463   */\n      gt\n        /* \"#utility.yul\":23477:23478   */\n      0x01\n        /* \"#utility.yul\":23472:24090   */\n      dup2\n      eq\n      tag_609\n      jumpi\n        /* \"#utility.yul\":24134:24135   */\n      0x00\n        /* \"#utility.yul\":24151:24157   */\n      dup5\n        /* \"#utility.yul\":24148:24225   */\n      iszero\n      tag_610\n      jumpi\n        /* \"#utility.yul\":24200:24209   */\n      dup3\n        /* \"#utility.yul\":24195:24198   */\n      dup8\n        /* \"#utility.yul\":24191:24210   */\n      add\n        /* \"#utility.yul\":24185:24211   */\n      mload\n        /* \"#utility.yul\":24176:24211   */\n      swap1\n      pop\n        /* \"#utility.yul\":24148:24225   */\n    tag_610:\n        /* \"#utility.yul\":24251:24318   */\n      tag_611\n        /* \"#utility.yul\":24311:24317   */\n      dup6\n        /* \"#utility.yul\":24304:24309   */\n      dup3\n        /* \"#utility.yul\":24251:24318   */\n      tag_381\n      jump\t// in\n    tag_611:\n        /* \"#utility.yul\":24245:24249   */\n      dup7\n        /* \"#utility.yul\":24238:24319   */\n      sstore\n        /* \"#utility.yul\":24107:24329   */\n      pop\n        /* \"#utility.yul\":23442:24329   */\n      jump(tag_608)\n        /* \"#utility.yul\":23472:24090   */\n    tag_609:\n        /* \"#utility.yul\":23524:23528   */\n      0x1f\n        /* \"#utility.yul\":23520:23529   */\n      not\n        /* \"#utility.yul\":23512:23518   */\n      dup5\n        /* \"#utility.yul\":23508:23530   */\n      and\n        /* \"#utility.yul\":23558:23595   */\n      tag_612\n        /* \"#utility.yul\":23590:23594   */\n      dup7\n        /* \"#utility.yul\":23558:23595   */\n      tag_367\n      jump\t// in\n    tag_612:\n        /* \"#utility.yul\":23617:23618   */\n      0x00\n        /* \"#utility.yul\":23631:23839   */\n    tag_613:\n        /* \"#utility.yul\":23645:23652   */\n      dup3\n        /* \"#utility.yul\":23642:23643   */\n      dup2\n        /* \"#utility.yul\":23639:23653   */\n      lt\n        /* \"#utility.yul\":23631:23839   */\n      iszero\n      tag_615\n      jumpi\n        /* \"#utility.yul\":23724:23733   */\n      dup5\n        /* \"#utility.yul\":23719:23722   */\n      dup10\n        /* \"#utility.yul\":23715:23734   */\n      add\n        /* \"#utility.yul\":23709:23735   */\n      mload\n        /* \"#utility.yul\":23701:23707   */\n      dup3\n        /* \"#utility.yul\":23694:23736   */\n      sstore\n        /* \"#utility.yul\":23775:23776   */\n      0x01\n        /* \"#utility.yul\":23767:23773   */\n      dup3\n        /* \"#utility.yul\":23763:23777   */\n      add\n        /* \"#utility.yul\":23753:23777   */\n      swap2\n      pop\n        /* \"#utility.yul\":23822:23824   */\n      0x20\n        /* \"#utility.yul\":23811:23820   */\n      dup6\n        /* \"#utility.yul\":23807:23825   */\n      add\n        /* \"#utility.yul\":23794:23825   */\n      swap5\n      pop\n        /* \"#utility.yul\":23668:23672   */\n      0x20\n        /* \"#utility.yul\":23665:23666   */\n      dup2\n        /* \"#utility.yul\":23661:23673   */\n      add\n        /* \"#utility.yul\":23656:23673   */\n      swap1\n      pop\n        /* \"#utility.yul\":23631:23839   */\n      jump(tag_613)\n    tag_615:\n        /* \"#utility.yul\":23867:23873   */\n      dup7\n        /* \"#utility.yul\":23858:23865   */\n      dup4\n        /* \"#utility.yul\":23855:23874   */\n      lt\n        /* \"#utility.yul\":23852:24031   */\n      iszero\n      tag_616\n      jumpi\n        /* \"#utility.yul\":23925:23934   */\n      dup5\n        /* \"#utility.yul\":23920:23923   */\n      dup10\n        /* \"#utility.yul\":23916:23935   */\n      add\n        /* \"#utility.yul\":23910:23936   */\n      mload\n        /* \"#utility.yul\":23968:24016   */\n      tag_617\n        /* \"#utility.yul\":24010:24014   */\n      0x1f\n        /* \"#utility.yul\":24002:24008   */\n      dup10\n        /* \"#utility.yul\":23998:24015   */\n      and\n        /* \"#utility.yul\":23987:23996   */\n      dup3\n        /* \"#utility.yul\":23968:24016   */\n      tag_380\n      jump\t// in\n    tag_617:\n        /* \"#utility.yul\":23960:23966   */\n      dup4\n        /* \"#utility.yul\":23953:24017   */\n      sstore\n        /* \"#utility.yul\":23875:24031   */\n      pop\n        /* \"#utility.yul\":23852:24031   */\n    tag_616:\n        /* \"#utility.yul\":24077:24078   */\n      0x01\n        /* \"#utility.yul\":24073:24074   */\n      0x02\n        /* \"#utility.yul\":24065:24071   */\n      dup9\n        /* \"#utility.yul\":24061:24075   */\n      mul\n        /* \"#utility.yul\":24057:24079   */\n      add\n        /* \"#utility.yul\":24051:24055   */\n      dup9\n        /* \"#utility.yul\":24044:24080   */\n      sstore\n        /* \"#utility.yul\":23479:24090   */\n      pop\n      pop\n      pop\n        /* \"#utility.yul\":23442:24329   */\n    tag_608:\n      pop\n        /* \"#utility.yul\":23032:24335   */\n      pop\n      pop\n      pop\n        /* \"#utility.yul\":22940:24335   */\n      pop\n      pop\n      jump\t// out\n        /* \"#utility.yul\":24341:24510   */\n    tag_382:\n        /* \"#utility.yul\":24481:24502   */\n      0x4e6f207265776172647320746f20636c61696d00000000000000000000000000\n        /* \"#utility.yul\":24477:24478   */\n      0x00\n        /* \"#utility.yul\":24469:24475   */\n      dup3\n        /* \"#utility.yul\":24465:24479   */\n      add\n        /* \"#utility.yul\":24458:24503   */\n      mstore\n        /* \"#utility.yul\":24341:24510   */\n      pop\n      jump\t// out\n        /* \"#utility.yul\":24516:24882   */\n    tag_383:\n        /* \"#utility.yul\":24658:24661   */\n      0x00\n        /* \"#utility.yul\":24679:24746   */\n      tag_620\n        /* \"#utility.yul\":24743:24745   */\n      0x13\n        /* \"#utility.yul\":24738:24741   */\n      dup4\n        /* \"#utility.yul\":24679:24746   */\n      tag_336\n      jump\t// in\n    tag_620:\n        /* \"#utility.yul\":24672:24746   */\n      swap2\n      pop\n        /* \"#utility.yul\":24755:24848   */\n      tag_621\n        /* \"#utility.yul\":24844:24847   */\n      dup3\n        /* \"#utility.yul\":24755:24848   */\n      tag_382\n      jump\t// in\n    tag_621:\n        /* \"#utility.yul\":24873:24875   */\n      0x20\n        /* \"#utility.yul\":24868:24871   */\n      dup3\n        /* \"#utility.yul\":24864:24876   */\n      add\n        /* \"#utility.yul\":24857:24876   */\n      swap1\n      pop\n        /* \"#utility.yul\":24516:24882   */\n      swap2\n      swap1\n      pop\n      jump\t// out\n        /* \"#utility.yul\":24888:25307   */\n    tag_275:\n        /* \"#utility.yul\":25054:25058   */\n      0x00\n        /* \"#utility.yul\":25092:25094   */\n      0x20\n        /* \"#utility.yul\":25081:25090   */\n      dup3\n        /* \"#utility.yul\":25077:25095   */\n      add\n        /* \"#utility.yul\":25069:25095   */\n      swap1\n      pop\n        /* \"#utility.yul\":25141:25150   */\n      dup2\n        /* \"#utility.yul\":25135:25139   */\n      dup2\n        /* \"#utility.yul\":25131:25151   */\n      sub\n        /* \"#utility.yul\":25127:25128   */\n      0x00\n        /* \"#utility.yul\":25116:25125   */\n      dup4\n        /* \"#utility.yul\":25112:25129   */\n      add\n        /* \"#utility.yul\":25105:25152   */\n      mstore\n        /* \"#utility.yul\":25169:25300   */\n      tag_623\n        /* \"#utility.yul\":25295:25299   */\n      dup2\n        /* \"#utility.yul\":25169:25300   */\n      tag_383\n      jump\t// in\n    tag_623:\n        /* \"#utility.yul\":25161:25300   */\n      swap1\n      pop\n        /* \"#utility.yul\":24888:25307   */\n      swap2\n      swap1\n      pop\n      jump\t// out\n        /* \"#utility.yul\":25313:25493   */\n    tag_384:\n        /* \"#utility.yul\":25361:25438   */\n      0x4e487b7100000000000000000000000000000000000000000000000000000000\n        /* \"#utility.yul\":25358:25359   */\n      0x00\n        /* \"#utility.yul\":25351:25439   */\n      mstore\n        /* \"#utility.yul\":25458:25462   */\n      0x11\n        /* \"#utility.yul\":25455:25456   */\n      0x04\n        /* \"#utility.yul\":25448:25463   */\n      mstore\n        /* \"#utility.yul\":25482:25486   */\n      0x24\n        /* \"#utility.yul\":25479:25480   */\n      0x00\n        /* \"#utility.yul\":25472:25487   */\n      revert\n        /* \"#utility.yul\":25499:25693   */\n    tag_300:\n        /* \"#utility.yul\":25539:25543   */\n      0x00\n        /* \"#utility.yul\":25559:25579   */\n      tag_626\n        /* \"#utility.yul\":25577:25578   */\n      dup3\n        /* \"#utility.yul\":25559:25579   */\n      tag_322\n      jump\t// in\n    tag_626:\n        /* \"#utility.yul\":25554:25579   */\n      swap2\n      pop\n        /* \"#utility.yul\":25593:25613   */\n      tag_627\n        /* \"#utility.yul\":25611:25612   */\n      dup4\n        /* \"#utility.yul\":25593:25613   */\n      tag_322\n      jump\t// in\n    tag_627:\n        /* \"#utility.yul\":25588:25613   */\n      swap3\n      pop\n        /* \"#utility.yul\":25637:25638   */\n      dup3\n        /* \"#utility.yul\":25634:25635   */\n      dup3\n        /* \"#utility.yul\":25630:25639   */\n      sub\n        /* \"#utility.yul\":25622:25639   */\n      swap1\n      pop\n        /* \"#utility.yul\":25661:25662   */\n      dup2\n        /* \"#utility.yul\":25655:25659   */\n      dup2\n        /* \"#utility.yul\":25652:25663   */\n      gt\n        /* \"#utility.yul\":25649:25686   */\n      iszero\n      tag_628\n      jumpi\n        /* \"#utility.yul\":25666:25684   */\n      tag_629\n      tag_384\n      jump\t// in\n    tag_629:\n        /* \"#utility.yul\":25649:25686   */\n    tag_628:\n        /* \"#utility.yul\":25499:25693   */\n      swap3\n      swap2\n      pop\n      pop\n      jump\t// out\n        /* \"#utility.yul\":25699:26109   */\n    tag_303:\n        /* \"#utility.yul\":25739:25746   */\n      0x00\n        /* \"#utility.yul\":25762:25782   */\n      tag_631\n        /* \"#utility.yul\":25780:25781   */\n      dup3\n        /* \"#utility.yul\":25762:25782   */\n      tag_322\n      jump\t// in\n    tag_631:\n        /* \"#utility.yul\":25757:25782   */\n      swap2\n      pop\n        /* \"#utility.yul\":25796:25816   */\n      tag_632\n        /* \"#utility.yul\":25814:25815   */\n      dup4\n        /* \"#utility.yul\":25796:25816   */\n      tag_322\n      jump\t// in\n    tag_632:\n        /* \"#utility.yul\":25791:25816   */\n      swap3\n      pop\n        /* \"#utility.yul\":25851:25852   */\n      dup3\n        /* \"#utility.yul\":25848:25849   */\n      dup3\n        /* \"#utility.yul\":25844:25853   */\n      mul\n        /* \"#utility.yul\":25873:25903   */\n      tag_633\n        /* \"#utility.yul\":25891:25902   */\n      dup2\n        /* \"#utility.yul\":25873:25903   */\n      tag_322\n      jump\t// in\n    tag_633:\n        /* \"#utility.yul\":25862:25903   */\n      swap2\n      pop\n        /* \"#utility.yul\":26052:26053   */\n      dup3\n        /* \"#utility.yul\":26043:26050   */\n      dup3\n        /* \"#utility.yul\":26039:26054   */\n      div\n        /* \"#utility.yul\":26036:26037   */\n      dup5\n        /* \"#utility.yul\":26033:26055   */\n      eq\n        /* \"#utility.yul\":26013:26014   */\n      dup4\n        /* \"#utility.yul\":26006:26015   */\n      iszero\n        /* \"#utility.yul\":25986:26069   */\n      or\n        /* \"#utility.yul\":25963:26102   */\n      tag_634\n      jumpi\n        /* \"#utility.yul\":26082:26100   */\n      tag_635\n      tag_384\n      jump\t// in\n    tag_635:\n        /* \"#utility.yul\":25963:26102   */\n    tag_634:\n        /* \"#utility.yul\":25747:26109   */\n      pop\n        /* \"#utility.yul\":25699:26109   */\n      swap3\n      swap2\n      pop\n      pop\n      jump\t// out\n        /* \"#utility.yul\":26115:26295   */\n    tag_385:\n        /* \"#utility.yul\":26163:26240   */\n      0x4e487b7100000000000000000000000000000000000000000000000000000000\n        /* \"#utility.yul\":26160:26161   */\n      0x00\n        /* \"#utility.yul\":26153:26241   */\n      mstore\n        /* \"#utility.yul\":26260:26264   */\n      0x12\n        /* \"#utility.yul\":26257:26258   */\n      0x04\n        /* \"#utility.yul\":26250:26265   */\n      mstore\n        /* \"#utility.yul\":26284:26288   */\n      0x24\n        /* \"#utility.yul\":26281:26282   */\n      0x00\n        /* \"#utility.yul\":26274:26289   */\n      revert\n        /* \"#utility.yul\":26301:26486   */\n    tag_306:\n        /* \"#utility.yul\":26341:26342   */\n      0x00\n        /* \"#utility.yul\":26358:26378   */\n      tag_638\n        /* \"#utility.yul\":26376:26377   */\n      dup3\n        /* \"#utility.yul\":26358:26378   */\n      tag_322\n      jump\t// in\n    tag_638:\n        /* \"#utility.yul\":26353:26378   */\n      swap2\n      pop\n        /* \"#utility.yul\":26392:26412   */\n      tag_639\n        /* \"#utility.yul\":26410:26411   */\n      dup4\n        /* \"#utility.yul\":26392:26412   */\n      tag_322\n      jump\t// in\n    tag_639:\n        /* \"#utility.yul\":26387:26412   */\n      swap3\n      pop\n        /* \"#utility.yul\":26431:26432   */\n      dup3\n        /* \"#utility.yul\":26421:26456   */\n      tag_640\n      jumpi\n        /* \"#utility.yul\":26436:26454   */\n      tag_641\n      tag_385\n      jump\t// in\n    tag_641:\n        /* \"#utility.yul\":26421:26456   */\n    tag_640:\n        /* \"#utility.yul\":26478:26479   */\n      dup3\n        /* \"#utility.yul\":26475:26476   */\n      dup3\n        /* \"#utility.yul\":26471:26480   */\n      div\n        /* \"#utility.yul\":26466:26480   */\n      swap1\n      pop\n        /* \"#utility.yul\":26301:26486   */\n      swap3\n      swap2\n      pop\n      pop\n      jump\t// out\n        /* \"#utility.yul\":26492:26683   */\n    tag_309:\n        /* \"#utility.yul\":26532:26535   */\n      0x00\n        /* \"#utility.yul\":26551:26571   */\n      tag_643\n        /* \"#utility.yul\":26569:26570   */\n      dup3\n        /* \"#utility.yul\":26551:26571   */\n      tag_322\n      jump\t// in\n    tag_643:\n        /* \"#utility.yul\":26546:26571   */\n      swap2\n      pop\n        /* \"#utility.yul\":26585:26605   */\n      tag_644\n        /* \"#utility.yul\":26603:26604   */\n      dup4\n        /* \"#utility.yul\":26585:26605   */\n      tag_322\n      jump\t// in\n    tag_644:\n        /* \"#utility.yul\":26580:26605   */\n      swap3\n      pop\n        /* \"#utility.yul\":26628:26629   */\n      dup3\n        /* \"#utility.yul\":26625:26626   */\n      dup3\n        /* \"#utility.yul\":26621:26630   */\n      add\n        /* \"#utility.yul\":26614:26630   */\n      swap1\n      pop\n        /* \"#utility.yul\":26649:26652   */\n      dup1\n        /* \"#utility.yul\":26646:26647   */\n      dup3\n        /* \"#utility.yul\":26643:26653   */\n      gt\n        /* \"#utility.yul\":26640:26676   */\n      iszero\n      tag_645\n      jumpi\n        /* \"#utility.yul\":26656:26674   */\n      tag_646\n      tag_384\n      jump\t// in\n    tag_646:\n        /* \"#utility.yul\":26640:26676   */\n    tag_645:\n        /* \"#utility.yul\":26492:26683   */\n      swap3\n      swap2\n      pop\n      pop\n      jump\t// out\n        /* \"#utility.yul\":26689:26870   */\n    tag_386:\n        /* \"#utility.yul\":26829:26862   */\n      0x5265656e7472616e637947756172643a207265656e7472616e742063616c6c00\n        /* \"#utility.yul\":26825:26826   */\n      0x00\n        /* \"#utility.yul\":26817:26823   */\n      dup3\n        /* \"#utility.yul\":26813:26827   */\n      add\n        /* \"#utility.yul\":26806:26863   */\n      mstore\n        /* \"#utility.yul\":26689:26870   */\n      pop\n      jump\t// out\n        /* \"#utility.yul\":26876:27242   */\n    tag_387:\n        /* \"#utility.yul\":27018:27021   */\n      0x00\n        /* \"#utility.yul\":27039:27106   */\n      tag_649\n        /* \"#utility.yul\":27103:27105   */\n      0x1f\n        /* \"#utility.yul\":27098:27101   */\n      dup4\n        /* \"#utility.yul\":27039:27106   */\n      tag_336\n      jump\t// in\n    tag_649:\n        /* \"#utility.yul\":27032:27106   */\n      swap2\n      pop\n        /* \"#utility.yul\":27115:27208   */\n      tag_650\n        /* \"#utility.yul\":27204:27207   */\n      dup3\n        /* \"#utility.yul\":27115:27208   */\n      tag_386\n      jump\t// in\n    tag_650:\n        /* \"#utility.yul\":27233:27235   */\n      0x20\n        /* \"#utility.yul\":27228:27231   */\n      dup3\n        /* \"#utility.yul\":27224:27236   */\n      add\n        /* \"#utility.yul\":27217:27236   */\n      swap1\n      pop\n        /* \"#utility.yul\":26876:27242   */\n      swap2\n      swap1\n      pop\n      jump\t// out\n        /* \"#utility.yul\":27248:27667   */\n    tag_313:\n        /* \"#utility.yul\":27414:27418   */\n      0x00\n        /* \"#utility.yul\":27452:27454   */\n      0x20\n        /* \"#utility.yul\":27441:27450   */\n      dup3\n        /* \"#utility.yul\":27437:27455   */\n      add\n        /* \"#utility.yul\":27429:27455   */\n      swap1\n      pop\n        /* \"#utility.yul\":27501:27510   */\n      dup2\n        /* \"#utility.yul\":27495:27499   */\n      dup2\n        /* \"#utility.yul\":27491:27511   */\n      sub\n        /* \"#utility.yul\":27487:27488   */\n      0x00\n        /* \"#utility.yul\":27476:27485   */\n      dup4\n        /* \"#utility.yul\":27472:27489   */\n      add\n        /* \"#utility.yul\":27465:27512   */\n      mstore\n        /* \"#utility.yul\":27529:27660   */\n      tag_652\n        /* \"#utility.yul\":27655:27659   */\n      dup2\n        /* \"#utility.yul\":27529:27660   */\n      tag_387\n      jump\t// in\n    tag_652:\n        /* \"#utility.yul\":27521:27660   */\n      swap1\n      pop\n        /* \"#utility.yul\":27248:27667   */\n      swap2\n      swap1\n      pop\n      jump\t// out\n\n    auxdata: 0xa2646970667358221220873f003d758f433d4a64b95cd155a17992901bc069b50a90bbb360ab031bd2f964736f6c63430008160033\n}\n",
				"bytecode": {
					"linkReferences": {},
					"object": "6080604052670de0b6b3a764000060025534801561001b575f80fd5b5060015f819055503360015f6101000a81548173ffffffffffffffffffffffffffffffffffffffff021916908373ffffffffffffffffffffffffffffffffffffffff16021790555060015f9054906101000a900473ffffffffffffffffffffffffffffffffffffffff1673ffffffffffffffffffffffffffffffffffffffff165f73ffffffffffffffffffffffffffffffffffffffff167f8be0079c531659141344cd1fd0a4f28419497f9722a3daafe3b4186f6b6457e060405160405180910390a3613d2a806100eb5f395ff3fe608060405234801561000f575f80fd5b506004361061014b575f3560e01c80639ce43f90116100c1578063b51d46ea1161007a578063b51d46ea146103cf578063be23b21b146103eb578063c00007b01461041b578063e6e8712d14610437578063e70b9e2714610468578063f1229777146104985761014b565b80639ce43f90146103135780639d4b0674146103435780639e447fc61461035f578063a64b6e5f1461037b578063ac18de4314610397578063adc9772e146103b35761014b565b80636e3b47fc116101135780636e3b47fc146102055780637035ab98146102235780638229084b1461025357806382be43081461028357806387d9d670146102b35780638f926830146102e35761014b565b8063211dc32d1461014f5780632ce9aead1461017f5780632d06177a146101af5780635997bb37146101cb5780635fa7b584146101e9575b5f80fd5b61016960048036038101906101649190612f94565b6104c8565b6040516101769190612fea565b60405180910390f35b61019960048036038101906101949190613003565b61071e565b6040516101a69190612fea565b60405180910390f35b6101c960048036038101906101c49190613003565b610733565b005b6101d3610938565b6040516101e09190612fea565b60405180910390f35b61020360048036038101906101fe9190613003565b61093e565b005b61020d610b47565b60405161021a91906130a1565b60405180910390f35b61023d60048036038101906102389190612f94565b610c04565b60405161024a9190612fea565b60405180910390f35b61026d60048036038101906102689190612f94565b610c24565b60405161027a9190612fea565b60405180910390f35b61029d60048036038101906102989190613003565b610c44565b6040516102aa9190612fea565b60405180910390f35b6102cd60048036038101906102c89190612f94565b610d51565b6040516102da9190612fea565b60405180910390f35b6102fd60048036038101906102f89190612f94565b610f3f565b60405161030a9190612fea565b60405180910390f35b61032d60048036038101906103289190613003565b61112d565b60405161033a9190612fea565b60405180910390f35b61035d600480360381019061035891906130e4565b611142565b005b61037960048036038101906103749190613122565b6117ed565b005b6103956004803603810190610390919061314d565b61190e565b005b6103b160048036038101906103ac9190613003565b611be5565b005b6103cd60048036038101906103c891906130e4565b611de8565b005b6103e960048036038101906103e491906131fe565b6123da565b005b61040560048036038101906104009190613003565b61260c565b6040516104129190612fea565b60405180910390f35b61043560048036038101906104309190613003565b612621565b005b610451600480360381019061044c9190613003565b612b72565b60405161045f9291906132ff565b60405180910390f35b610482600480360381019061047d9190612f94565b612c24565b60405161048f9190612fea565b60405180910390f35b6104b260048036038101906104ad9190613003565b612c44565b6040516104bf9190612fea565b60405180910390f35b5f60035f8473ffffffffffffffffffffffffffffffffffffffff1673ffffffffffffffffffffffffffffffffffffffff1681526020019081526020015f206001015f9054906101000a900460ff16610555576040517f08c379a000000000000000000000000000000000000000000000000000000000815260040161054c90613377565b60405180910390fd5b61071660055f8573ffffffffffffffffffffffffffffffffffffffff1673ffffffffffffffffffffffffffffffffffffffff1681526020019081526020015f205f8473ffffffffffffffffffffffffffffffffffffffff1673ffffffffffffffffffffffffffffffffffffffff1681526020019081526020015f2054610708670de0b6b3a76400006106fa61067360065f8a73ffffffffffffffffffffffffffffffffffffffff1673ffffffffffffffffffffffffffffffffffffffff1681526020019081526020015f205f8973ffffffffffffffffffffffffffffffffffffffff1673ffffffffffffffffffffffffffffffffffffffff1681526020019081526020015f20546106658a612c44565b612e8890919063ffffffff16565b60045f8a73ffffffffffffffffffffffffffffffffffffffff1673ffffffffffffffffffffffffffffffffffffffff1681526020019081526020015f205f8973ffffffffffffffffffffffffffffffffffffffff1673ffffffffffffffffffffffffffffffffffffffff1681526020019081526020015f2054612e9d90919063ffffffff16565b612eb290919063ffffffff16565b612ec790919063ffffffff16565b905092915050565b6008602052805f5260405f205f915090505481565b600a5f3373ffffffffffffffffffffffffffffffffffffffff1673ffffffffffffffffffffffffffffffffffffffff1681526020019081526020015f205f9054906101000a900460ff16806107d457503373ffffffffffffffffffffffffffffffffffffffff1660015f9054906101000a900473ffffffffffffffffffffffffffffffffffffffff1673ffffffffffffffffffffffffffffffffffffffff16145b610813576040517f08c379a000000000000000000000000000000000000000000000000000000000815260040161080a906133df565b60405180910390fd5b600a5f8273ffffffffffffffffffffffffffffffffffffffff1673ffffffffffffffffffffffffffffffffffffffff1681526020019081526020015f205f9054906101000a900460ff161561089d576040517f08c379a000000000000000000000000000000000000000000000000000000000815260040161089490613447565b60405180910390fd5b6001600a5f8373ffffffffffffffffffffffffffffffffffffffff1673ffffffffffffffffffffffffffffffffffffffff1681526020019081526020015f205f6101000a81548160ff0219169083151502179055508073ffffffffffffffffffffffffffffffffffffffff167f3b4a40cccf2058c593542587329dd385be4f0b588db5471fbd9598e56dd7093a60405160405180910390a250565b60025481565b600a5f3373ffffffffffffffffffffffffffffffffffffffff1673ffffffffffffffffffffffffffffffffffffffff1681526020019081526020015f205f9054906101000a900460ff16806109df57503373ffffffffffffffffffffffffffffffffffffffff1660015f9054906101000a900473ffffffffffffffffffffffffffffffffffffffff1673ffffffffffffffffffffffffffffffffffffffff16145b610a1e576040517f08c379a0000000000000000000000000000000000000000000000000000000008152600401610a15906133df565b60405180910390fd5b60035f8273ffffffffffffffffffffffffffffffffffffffff1673ffffffffffffffffffffffffffffffffffffffff1681526020019081526020015f206001015f9054906101000a900460ff16610aaa576040517f08c379a0000000000000000000000000000000000000000000000000000000008152600401610aa1906134af565b60405180910390fd5b5f60035f8373ffffffffffffffffffffffffffffffffffffffff1673ffffffffffffffffffffffffffffffffffffffff1681526020019081526020015f206001015f6101000a81548160ff0219169083151502179055508073ffffffffffffffffffffffffffffffffffffffff167f4c910b69fe65a61f7531b9c5042b2329ca7179c77290aa7e2eb3afa3c8511fd360405160405180910390a250565b5f60015f9054906101000a900473ffffffffffffffffffffffffffffffffffffffff1673ffffffffffffffffffffffffffffffffffffffff163373ffffffffffffffffffffffffffffffffffffffff1603610ba55760019050610c01565b600a5f3373ffffffffffffffffffffffffffffffffffffffff1673ffffffffffffffffffffffffffffffffffffffff1681526020019081526020015f205f9054906101000a900460ff1615610bfd5760029050610c01565b5f90505b90565b6006602052815f5260405f20602052805f5260405f205f91509150505481565b6004602052815f5260405f20602052805f5260405f205f91509150505481565b5f60035f8373ffffffffffffffffffffffffffffffffffffffff1673ffffffffffffffffffffffffffffffffffffffff1681526020019081526020015f206001015f9054906101000a900460ff16610cd1576040517f08c379a0000000000000000000000000000000000000000000000000000000008152600401610cc890613377565b60405180910390fd5b60045f8373ffffffffffffffffffffffffffffffffffffffff1673ffffffffffffffffffffffffffffffffffffffff1681526020019081526020015f205f3373ffffffffffffffffffffffffffffffffffffffff1673ffffffffffffffffffffffffffffffffffffffff1681526020019081526020015f20549050919050565b5f600a5f3373ffffffffffffffffffffffffffffffffffffffff1673ffffffffffffffffffffffffffffffffffffffff1681526020019081526020015f205f9054906101000a900460ff1680610df357503373ffffffffffffffffffffffffffffffffffffffff1660015f9054906101000a900473ffffffffffffffffffffffffffffffffffffffff1673ffffffffffffffffffffffffffffffffffffffff16145b610e32576040517f08c379a0000000000000000000000000000000000000000000000000000000008152600401610e29906133df565b60405180910390fd5b60035f8473ffffffffffffffffffffffffffffffffffffffff1673ffffffffffffffffffffffffffffffffffffffff1681526020019081526020015f206001015f9054906101000a900460ff16610ebe576040517f08c379a0000000000000000000000000000000000000000000000000000000008152600401610eb590613377565b60405180910390fd5b60045f8473ffffffffffffffffffffffffffffffffffffffff1673ffffffffffffffffffffffffffffffffffffffff1681526020019081526020015f205f8373ffffffffffffffffffffffffffffffffffffffff1673ffffffffffffffffffffffffffffffffffffffff1681526020019081526020015f2054905092915050565b5f600a5f3373ffffffffffffffffffffffffffffffffffffffff1673ffffffffffffffffffffffffffffffffffffffff1681526020019081526020015f205f9054906101000a900460ff1680610fe157503373ffffffffffffffffffffffffffffffffffffffff1660015f9054906101000a900473ffffffffffffffffffffffffffffffffffffffff1673ffffffffffffffffffffffffffffffffffffffff16145b611020576040517f08c379a0000000000000000000000000000000000000000000000000000000008152600401611017906133df565b60405180910390fd5b60035f8473ffffffffffffffffffffffffffffffffffffffff1673ffffffffffffffffffffffffffffffffffffffff1681526020019081526020015f206001015f9054906101000a900460ff166110ac576040517f08c379a00000000000000000000000000000000000000000000000000000000081526004016110a390613377565b60405180910390fd5b60045f8473ffffffffffffffffffffffffffffffffffffffff1673ffffffffffffffffffffffffffffffffffffffff1681526020019081526020015f205f8373ffffffffffffffffffffffffffffffffffffffff1673ffffffffffffffffffffffffffffffffffffffff1681526020019081526020015f2054905092915050565b6007602052805f5260405f205f915090505481565b61114a612edc565b813360035f8373ffffffffffffffffffffffffffffffffffffffff1673ffffffffffffffffffffffffffffffffffffffff1681526020019081526020015f206001015f9054906101000a900460ff166111d8576040517f08c379a00000000000000000000000000000000000000000000000000000000081526004016111cf90613377565b60405180910390fd5b6111e182612c44565b60075f8473ffffffffffffffffffffffffffffffffffffffff1673ffffffffffffffffffffffffffffffffffffffff1681526020019081526020015f20819055504260085f8473ffffffffffffffffffffffffffffffffffffffff1673ffffffffffffffffffffffffffffffffffffffff1681526020019081526020015f208190555061126e82826104c8565b60055f8473ffffffffffffffffffffffffffffffffffffffff1673ffffffffffffffffffffffffffffffffffffffff1681526020019081526020015f205f8373ffffffffffffffffffffffffffffffffffffffff1673ffffffffffffffffffffffffffffffffffffffff1681526020019081526020015f208190555060075f8373ffffffffffffffffffffffffffffffffffffffff1673ffffffffffffffffffffffffffffffffffffffff1681526020019081526020015f205460065f8473ffffffffffffffffffffffffffffffffffffffff1673ffffffffffffffffffffffffffffffffffffffff1681526020019081526020015f205f8373ffffffffffffffffffffffffffffffffffffffff1673ffffffffffffffffffffffffffffffffffffffff1681526020019081526020015f208190555060035f8573ffffffffffffffffffffffffffffffffffffffff1673ffffffffffffffffffffffffffffffffffffffff1681526020019081526020015f206001015f9054906101000a900460ff16611430576040517f08c379a000000000000000000000000000000000000000000000000000000000815260040161142790613377565b60405180910390fd5b5f8311611472576040517f08c379a000000000000000000000000000000000000000000000000000000000815260040161146990613517565b60405180910390fd5b8260045f8673ffffffffffffffffffffffffffffffffffffffff1673ffffffffffffffffffffffffffffffffffffffff1681526020019081526020015f205f3373ffffffffffffffffffffffffffffffffffffffff1673ffffffffffffffffffffffffffffffffffffffff1681526020019081526020015f2054101561152d576040517f08c379a00000000000000000000000000000000000000000000000000000000081526004016115249061357f565b60405180910390fd5b61157d8360095f8773ffffffffffffffffffffffffffffffffffffffff1673ffffffffffffffffffffffffffffffffffffffff1681526020019081526020015f2054612e8890919063ffffffff16565b60095f8673ffffffffffffffffffffffffffffffffffffffff1673ffffffffffffffffffffffffffffffffffffffff1681526020019081526020015f20819055506116498360045f8773ffffffffffffffffffffffffffffffffffffffff1673ffffffffffffffffffffffffffffffffffffffff1681526020019081526020015f205f3373ffffffffffffffffffffffffffffffffffffffff1673ffffffffffffffffffffffffffffffffffffffff1681526020019081526020015f2054612e8890919063ffffffff16565b60045f8673ffffffffffffffffffffffffffffffffffffffff1673ffffffffffffffffffffffffffffffffffffffff1681526020019081526020015f205f3373ffffffffffffffffffffffffffffffffffffffff1673ffffffffffffffffffffffffffffffffffffffff1681526020019081526020015f2081905550828473ffffffffffffffffffffffffffffffffffffffff163373ffffffffffffffffffffffffffffffffffffffff167fd1c19fbcd4551a5edfb66d43d2e337c04837afda3482b42bdf569a8fccdae5fb60405160405180910390a45f8473ffffffffffffffffffffffffffffffffffffffff1663a9059cbb33866040518363ffffffff1660e01b815260040161175c9291906135ac565b6020604051808303815f875af1158015611778573d5f803e3d5ffd5b505050506040513d601f19601f8201168201806040525081019061179c91906135fd565b9050806117de576040517f08c379a00000000000000000000000000000000000000000000000000000000081526004016117d590613672565b60405180910390fd5b5050506117e9612f29565b5050565b600a5f3373ffffffffffffffffffffffffffffffffffffffff1673ffffffffffffffffffffffffffffffffffffffff1681526020019081526020015f205f9054906101000a900460ff168061188e57503373ffffffffffffffffffffffffffffffffffffffff1660015f9054906101000a900473ffffffffffffffffffffffffffffffffffffffff1673ffffffffffffffffffffffffffffffffffffffff16145b6118cd576040517f08c379a00000000000000000000000000000000000000000000000000000000081526004016118c4906133df565b60405180910390fd5b806002819055507f41d466ebd06fb97e7786086ac8b69b7eb7da798592036251291d34e9791cde01816040516119039190612fea565b60405180910390a150565b600a5f3373ffffffffffffffffffffffffffffffffffffffff1673ffffffffffffffffffffffffffffffffffffffff1681526020019081526020015f205f9054906101000a900460ff16806119af57503373ffffffffffffffffffffffffffffffffffffffff1660015f9054906101000a900473ffffffffffffffffffffffffffffffffffffffff1673ffffffffffffffffffffffffffffffffffffffff16145b6119ee576040517f08c379a00000000000000000000000000000000000000000000000000000000081526004016119e5906133df565b60405180910390fd5b60035f8473ffffffffffffffffffffffffffffffffffffffff1673ffffffffffffffffffffffffffffffffffffffff1681526020019081526020015f206001015f9054906101000a900460ff16611a7a576040517f08c379a0000000000000000000000000000000000000000000000000000000008152600401611a7190613377565b60405180910390fd5b5f8111611abc576040517f08c379a0000000000000000000000000000000000000000000000000000000008152600401611ab390613517565b60405180910390fd5b5f8373ffffffffffffffffffffffffffffffffffffffff1663a9059cbb84846040518363ffffffff1660e01b8152600401611af89291906135ac565b6020604051808303815f875af1158015611b14573d5f803e3d5ffd5b505050506040513d601f19601f82011682018060405250810190611b3891906135fd565b905080611b7a576040517f08c379a0000000000000000000000000000000000000000000000000000000008152600401611b7190613672565b60405180910390fd5b8273ffffffffffffffffffffffffffffffffffffffff168473ffffffffffffffffffffffffffffffffffffffff167f1b89874203ff7f0bba87c969ada3f32fda22ed38a6706d35199d21280c7811b184604051611bd79190612fea565b60405180910390a350505050565b600a5f3373ffffffffffffffffffffffffffffffffffffffff1673ffffffffffffffffffffffffffffffffffffffff1681526020019081526020015f205f9054906101000a900460ff1680611c8657503373ffffffffffffffffffffffffffffffffffffffff1660015f9054906101000a900473ffffffffffffffffffffffffffffffffffffffff1673ffffffffffffffffffffffffffffffffffffffff16145b611cc5576040517f08c379a0000000000000000000000000000000000000000000000000000000008152600401611cbc906133df565b60405180910390fd5b600a5f8273ffffffffffffffffffffffffffffffffffffffff1673ffffffffffffffffffffffffffffffffffffffff1681526020019081526020015f205f9054906101000a900460ff16611d4e576040517f08c379a0000000000000000000000000000000000000000000000000000000008152600401611d45906136da565b60405180910390fd5b5f600a5f8373ffffffffffffffffffffffffffffffffffffffff1673ffffffffffffffffffffffffffffffffffffffff1681526020019081526020015f205f6101000a81548160ff0219169083151502179055508073ffffffffffffffffffffffffffffffffffffffff167fef69f7d97228658c92417be1b16b19058315de71fecb435d07b7d23728b6bd3160405160405180910390a250565b611df0612edc565b813360035f8373ffffffffffffffffffffffffffffffffffffffff1673ffffffffffffffffffffffffffffffffffffffff1681526020019081526020015f206001015f9054906101000a900460ff16611e7e576040517f08c379a0000000000000000000000000000000000000000000000000000000008152600401611e7590613377565b60405180910390fd5b611e8782612c44565b60075f8473ffffffffffffffffffffffffffffffffffffffff1673ffffffffffffffffffffffffffffffffffffffff1681526020019081526020015f20819055504260085f8473ffffffffffffffffffffffffffffffffffffffff1673ffffffffffffffffffffffffffffffffffffffff1681526020019081526020015f2081905550611f1482826104c8565b60055f8473ffffffffffffffffffffffffffffffffffffffff1673ffffffffffffffffffffffffffffffffffffffff1681526020019081526020015f205f8373ffffffffffffffffffffffffffffffffffffffff1673ffffffffffffffffffffffffffffffffffffffff1681526020019081526020015f208190555060075f8373ffffffffffffffffffffffffffffffffffffffff1673ffffffffffffffffffffffffffffffffffffffff1681526020019081526020015f205460065f8473ffffffffffffffffffffffffffffffffffffffff1673ffffffffffffffffffffffffffffffffffffffff1681526020019081526020015f205f8373ffffffffffffffffffffffffffffffffffffffff1673ffffffffffffffffffffffffffffffffffffffff1681526020019081526020015f208190555060035f8573ffffffffffffffffffffffffffffffffffffffff1673ffffffffffffffffffffffffffffffffffffffff1681526020019081526020015f206001015f9054906101000a900460ff166120d6576040517f08c379a00000000000000000000000000000000000000000000000000000000081526004016120cd90613377565b60405180910390fd5b5f8311612118576040517f08c379a000000000000000000000000000000000000000000000000000000000815260040161210f90613517565b60405180910390fd5b6121688360095f8773ffffffffffffffffffffffffffffffffffffffff1673ffffffffffffffffffffffffffffffffffffffff1681526020019081526020015f2054612ec790919063ffffffff16565b60095f8673ffffffffffffffffffffffffffffffffffffffff1673ffffffffffffffffffffffffffffffffffffffff1681526020019081526020015f20819055506122348360045f8773ffffffffffffffffffffffffffffffffffffffff1673ffffffffffffffffffffffffffffffffffffffff1681526020019081526020015f205f3373ffffffffffffffffffffffffffffffffffffffff1673ffffffffffffffffffffffffffffffffffffffff1681526020019081526020015f2054612ec790919063ffffffff16565b60045f8673ffffffffffffffffffffffffffffffffffffffff1673ffffffffffffffffffffffffffffffffffffffff1681526020019081526020015f205f3373ffffffffffffffffffffffffffffffffffffffff1673ffffffffffffffffffffffffffffffffffffffff1681526020019081526020015f2081905550828473ffffffffffffffffffffffffffffffffffffffff163373ffffffffffffffffffffffffffffffffffffffff167f5dac0c1b1112564a045ba943c9d50270893e8e826c49be8e7073adc713ab7bd760405160405180910390a45f8473ffffffffffffffffffffffffffffffffffffffff166323b872dd3330876040518463ffffffff1660e01b8152600401612349939291906136f8565b6020604051808303815f875af1158015612365573d5f803e3d5ffd5b505050506040513d601f19601f8201168201806040525081019061238991906135fd565b9050806123cb576040517f08c379a00000000000000000000000000000000000000000000000000000000081526004016123c290613672565b60405180910390fd5b5050506123d6612f29565b5050565b3373ffffffffffffffffffffffffffffffffffffffff1660015f9054906101000a900473ffffffffffffffffffffffffffffffffffffffff1673ffffffffffffffffffffffffffffffffffffffff1614612469576040517f08c379a000000000000000000000000000000000000000000000000000000000815260040161246090613777565b60405180910390fd5b60035f8473ffffffffffffffffffffffffffffffffffffffff1673ffffffffffffffffffffffffffffffffffffffff1681526020019081526020015f206001015f9054906101000a900460ff16156124f6576040517f08c379a00000000000000000000000000000000000000000000000000000000081526004016124ed906137df565b60405180910390fd5b604051806040016040528083838080601f0160208091040260200160405190810160405280939291908181526020018383808284375f81840152601f19601f8201169050808301925050505050505081526020016001151581525060035f8573ffffffffffffffffffffffffffffffffffffffff1673ffffffffffffffffffffffffffffffffffffffff1681526020019081526020015f205f820151815f0190816125a19190613a24565b506020820151816001015f6101000a81548160ff0219169083151502179055509050508273ffffffffffffffffffffffffffffffffffffffff167f784c8f4dbf0ffedd6e72c76501c545a70f8b203b30a26ce542bf92ba87c248a460405160405180910390a2505050565b6009602052805f5260405f205f915090505481565b612629612edc565b803360035f8373ffffffffffffffffffffffffffffffffffffffff1673ffffffffffffffffffffffffffffffffffffffff1681526020019081526020015f206001015f9054906101000a900460ff166126b7576040517f08c379a00000000000000000000000000000000000000000000000000000000081526004016126ae90613377565b60405180910390fd5b6126c082612c44565b60075f8473ffffffffffffffffffffffffffffffffffffffff1673ffffffffffffffffffffffffffffffffffffffff1681526020019081526020015f20819055504260085f8473ffffffffffffffffffffffffffffffffffffffff1673ffffffffffffffffffffffffffffffffffffffff1681526020019081526020015f208190555061274d82826104c8565b60055f8473ffffffffffffffffffffffffffffffffffffffff1673ffffffffffffffffffffffffffffffffffffffff1681526020019081526020015f205f8373ffffffffffffffffffffffffffffffffffffffff1673ffffffffffffffffffffffffffffffffffffffff1681526020019081526020015f208190555060075f8373ffffffffffffffffffffffffffffffffffffffff1673ffffffffffffffffffffffffffffffffffffffff1681526020019081526020015f205460065f8473ffffffffffffffffffffffffffffffffffffffff1673ffffffffffffffffffffffffffffffffffffffff1681526020019081526020015f205f8373ffffffffffffffffffffffffffffffffffffffff1673ffffffffffffffffffffffffffffffffffffffff1681526020019081526020015f208190555060035f8473ffffffffffffffffffffffffffffffffffffffff1673ffffffffffffffffffffffffffffffffffffffff1681526020019081526020015f206001015f9054906101000a900460ff1661290f576040517f08c379a000000000000000000000000000000000000000000000000000000000815260040161290690613377565b60405180910390fd5b5f60055f8573ffffffffffffffffffffffffffffffffffffffff1673ffffffffffffffffffffffffffffffffffffffff1681526020019081526020015f205f3373ffffffffffffffffffffffffffffffffffffffff1673ffffffffffffffffffffffffffffffffffffffff1681526020019081526020015f205490505f81116129cd576040517f08c379a00000000000000000000000000000000000000000000000000000000081526004016129c490613b3d565b60405180910390fd5b5f60055f8673ffffffffffffffffffffffffffffffffffffffff1673ffffffffffffffffffffffffffffffffffffffff1681526020019081526020015f205f3373ffffffffffffffffffffffffffffffffffffffff1673ffffffffffffffffffffffffffffffffffffffff1681526020019081526020015f2081905550808473ffffffffffffffffffffffffffffffffffffffff163373ffffffffffffffffffffffffffffffffffffffff167f9310ccfcb8de723f578a9e4282ea9f521f05ae40dc08f3068dfad528a65ee3c760405160405180910390a45f8473ffffffffffffffffffffffffffffffffffffffff1663a9059cbb33846040518363ffffffff1660e01b8152600401612ae19291906135ac565b6020604051808303815f875af1158015612afd573d5f803e3d5ffd5b505050506040513d601f19601f82011682018060405250810190612b2191906135fd565b905080612b63576040517f08c379a0000000000000000000000000000000000000000000000000000000008152600401612b5a90613672565b60405180910390fd5b50505050612b6f612f29565b50565b6003602052805f5260405f205f91509050805f018054612b9190613857565b80601f0160208091040260200160405190810160405280929190818152602001828054612bbd90613857565b8015612c085780601f10612bdf57610100808354040283529160200191612c08565b820191905f5260205f20905b815481529060010190602001808311612beb57829003601f168201915b505050505090806001015f9054906101000a900460ff16905082565b6005602052815f5260405f20602052805f5260405f205f91509150505481565b5f60035f8373ffffffffffffffffffffffffffffffffffffffff1673ffffffffffffffffffffffffffffffffffffffff1681526020019081526020015f206001015f9054906101000a900460ff16612cd1576040517f08c379a0000000000000000000000000000000000000000000000000000000008152600401612cc890613377565b60405180910390fd5b5f60095f8473ffffffffffffffffffffffffffffffffffffffff1673ffffffffffffffffffffffffffffffffffffffff1681526020019081526020015f205403612d5a5760075f8373ffffffffffffffffffffffffffffffffffffffff1673ffffffffffffffffffffffffffffffffffffffff1681526020019081526020015f20549050612e83565b5f612dab60085f8573ffffffffffffffffffffffffffffffffffffffff1673ffffffffffffffffffffffffffffffffffffffff1681526020019081526020015f205442612e8890919063ffffffff16565b90505f612dc382600254612e9d90919063ffffffff16565b9050612e7e612e3260095f8773ffffffffffffffffffffffffffffffffffffffff1673ffffffffffffffffffffffffffffffffffffffff1681526020019081526020015f2054612e24670de0b6b3a764000085612e9d90919063ffffffff16565b612eb290919063ffffffff16565b60075f8773ffffffffffffffffffffffffffffffffffffffff1673ffffffffffffffffffffffffffffffffffffffff1681526020019081526020015f2054612ec790919063ffffffff16565b925050505b919050565b5f8183612e959190613b88565b905092915050565b5f8183612eaa9190613bbb565b905092915050565b5f8183612ebf9190613c29565b905092915050565b5f8183612ed49190613c59565b905092915050565b60025f5403612f20576040517f08c379a0000000000000000000000000000000000000000000000000000000008152600401612f1790613cd6565b60405180910390fd5b60025f81905550565b60015f81905550565b5f80fd5b5f80fd5b5f73ffffffffffffffffffffffffffffffffffffffff82169050919050565b5f612f6382612f3a565b9050919050565b612f7381612f59565b8114612f7d575f80fd5b50565b5f81359050612f8e81612f6a565b92915050565b5f8060408385031215612faa57612fa9612f32565b5b5f612fb785828601612f80565b9250506020612fc885828601612f80565b9150509250929050565b5f819050919050565b612fe481612fd2565b82525050565b5f602082019050612ffd5f830184612fdb565b92915050565b5f6020828403121561301857613017612f32565b5b5f61302584828501612f80565b91505092915050565b7f4e487b71000000000000000000000000000000000000000000000000000000005f52602160045260245ffd5b6003811061306c5761306b61302e565b5b50565b5f81905061307c8261305b565b919050565b5f61308b8261306f565b9050919050565b61309b81613081565b82525050565b5f6020820190506130b45f830184613092565b92915050565b6130c381612fd2565b81146130cd575f80fd5b50565b5f813590506130de816130ba565b92915050565b5f80604083850312156130fa576130f9612f32565b5b5f61310785828601612f80565b9250506020613118858286016130d0565b9150509250929050565b5f6020828403121561313757613136612f32565b5b5f613144848285016130d0565b91505092915050565b5f805f6060848603121561316457613163612f32565b5b5f61317186828701612f80565b935050602061318286828701612f80565b9250506040613193868287016130d0565b9150509250925092565b5f80fd5b5f80fd5b5f80fd5b5f8083601f8401126131be576131bd61319d565b5b8235905067ffffffffffffffff8111156131db576131da6131a1565b5b6020830191508360018202830111156131f7576131f66131a5565b5b9250929050565b5f805f6040848603121561321557613214612f32565b5b5f61322286828701612f80565b935050602084013567ffffffffffffffff81111561324357613242612f36565b5b61324f868287016131a9565b92509250509250925092565b5f81519050919050565b5f82825260208201905092915050565b5f5b83811015613292578082015181840152602081019050613277565b5f8484015250505050565b5f601f19601f8301169050919050565b5f6132b78261325b565b6132c18185613265565b93506132d1818560208601613275565b6132da8161329d565b840191505092915050565b5f8115159050919050565b6132f9816132e5565b82525050565b5f6040820190508181035f83015261331781856132ad565b905061332660208301846132f0565b9392505050565b7f546f6b656e206973206e6f7420616374697665000000000000000000000000005f82015250565b5f613361601383613265565b915061336c8261332d565b602082019050919050565b5f6020820190508181035f83015261338e81613355565b9050919050565b7f4e6f7420617574686f72697a65640000000000000000000000000000000000005f82015250565b5f6133c9600e83613265565b91506133d482613395565b602082019050919050565b5f6020820190508181035f8301526133f6816133bd565b9050919050565b7f4d616e6167657220616c726561647920616464656400000000000000000000005f82015250565b5f613431601583613265565b915061343c826133fd565b602082019050919050565b5f6020820190508181035f83015261345e81613425565b9050919050565b7f546f6b656e206e6f7420616374697665000000000000000000000000000000005f82015250565b5f613499601083613265565b91506134a482613465565b602082019050919050565b5f6020820190508181035f8301526134c68161348d565b9050919050565b7f416d6f756e74206d7573742062652067726561746572207468616e207a65726f5f82015250565b5f613501602083613265565b915061350c826134cd565b602082019050919050565b5f6020820190508181035f83015261352e816134f5565b9050919050565b7f5374616b656420616d6f756e74206e6f7420656e6f75676800000000000000005f82015250565b5f613569601883613265565b915061357482613535565b602082019050919050565b5f6020820190508181035f8301526135968161355d565b9050919050565b6135a681612f59565b82525050565b5f6040820190506135bf5f83018561359d565b6135cc6020830184612fdb565b9392505050565b6135dc816132e5565b81146135e6575f80fd5b50565b5f815190506135f7816135d3565b92915050565b5f6020828403121561361257613611612f32565b5b5f61361f848285016135e9565b91505092915050565b7f5472616e73666572204661696c656400000000000000000000000000000000005f82015250565b5f61365c600f83613265565b915061366782613628565b602082019050919050565b5f6020820190508181035f83015261368981613650565b9050919050565b7f4d616e61676572206e6f7420666f756e640000000000000000000000000000005f82015250565b5f6136c4601183613265565b91506136cf82613690565b602082019050919050565b5f6020820190508181035f8301526136f1816136b8565b9050919050565b5f60608201905061370b5f83018661359d565b613718602083018561359d565b6137256040830184612fdb565b949350505050565b7f4f776e61626c653a2063616c6c6572206973206e6f7420746865206f776e65725f82015250565b5f613761602083613265565b915061376c8261372d565b602082019050919050565b5f6020820190508181035f83015261378e81613755565b9050919050565b7f546f6b656e20616c7265616479206164646564000000000000000000000000005f82015250565b5f6137c9601383613265565b91506137d482613795565b602082019050919050565b5f6020820190508181035f8301526137f6816137bd565b9050919050565b7f4e487b71000000000000000000000000000000000000000000000000000000005f52604160045260245ffd5b7f4e487b71000000000000000000000000000000000000000000000000000000005f52602260045260245ffd5b5f600282049050600182168061386e57607f821691505b6020821081036138815761388061382a565b5b50919050565b5f819050815f5260205f209050919050565b5f6020601f8301049050919050565b5f82821b905092915050565b5f600883026138e37fffffffffffffffffffffffffffffffffffffffffffffffffffffffffffffffff826138a8565b6138ed86836138a8565b95508019841693508086168417925050509392505050565b5f819050919050565b5f61392861392361391e84612fd2565b613905565b612fd2565b9050919050565b5f819050919050565b6139418361390e565b61395561394d8261392f565b8484546138b4565b825550505050565b5f90565b61396961395d565b613974818484613938565b505050565b5b818110156139975761398c5f82613961565b60018101905061397a565b5050565b601f8211156139dc576139ad81613887565b6139b684613899565b810160208510156139c5578190505b6139d96139d185613899565b830182613979565b50505b505050565b5f82821c905092915050565b5f6139fc5f19846008026139e1565b1980831691505092915050565b5f613a1483836139ed565b9150826002028217905092915050565b613a2d8261325b565b67ffffffffffffffff811115613a4657613a456137fd565b5b613a508254613857565b613a5b82828561399b565b5f60209050601f831160018114613a8c575f8415613a7a578287015190505b613a848582613a09565b865550613aeb565b601f198416613a9a86613887565b5f5b82811015613ac157848901518255600182019150602085019450602081019050613a9c565b86831015613ade5784890151613ada601f8916826139ed565b8355505b6001600288020188555050505b505050505050565b7f4e6f207265776172647320746f20636c61696d000000000000000000000000005f82015250565b5f613b27601383613265565b9150613b3282613af3565b602082019050919050565b5f6020820190508181035f830152613b5481613b1b565b9050919050565b7f4e487b71000000000000000000000000000000000000000000000000000000005f52601160045260245ffd5b5f613b9282612fd2565b9150613b9d83612fd2565b9250828203905081811115613bb557613bb4613b5b565b5b92915050565b5f613bc582612fd2565b9150613bd083612fd2565b9250828202613bde81612fd2565b91508282048414831517613bf557613bf4613b5b565b5b5092915050565b7f4e487b71000000000000000000000000000000000000000000000000000000005f52601260045260245ffd5b5f613c3382612fd2565b9150613c3e83612fd2565b925082613c4e57613c4d613bfc565b5b828204905092915050565b5f613c6382612fd2565b9150613c6e83612fd2565b9250828201905080821115613c8657613c85613b5b565b5b92915050565b7f5265656e7472616e637947756172643a207265656e7472616e742063616c6c005f82015250565b5f613cc0601f83613265565b9150613ccb82613c8c565b602082019050919050565b5f6020820190508181035f830152613ced81613cb4565b905091905056fea2646970667358221220873f003d758f433d4a64b95cd155a17992901bc069b50a90bbb360ab031bd2f964736f6c63430008160033",
					"opcodes": "PUSH1 0x80 PUSH1 0x40 MSTORE PUSH8 0xDE0B6B3A7640000 PUSH1 0x2 SSTORE CALLVALUE DUP1 ISZERO PUSH2 0x1B JUMPI PUSH0 DUP1 REVERT JUMPDEST POP PUSH1 0x1 PUSH0 DUP2 SWAP1 SSTORE POP CALLER PUSH1 0x1 PUSH0 PUSH2 0x100 EXP DUP2 SLOAD DUP2 PUSH20 0xFFFFFFFFFFFFFFFFFFFFFFFFFFFFFFFFFFFFFFFF MUL NOT AND SWAP1 DUP4 PUSH20 0xFFFFFFFFFFFFFFFFFFFFFFFFFFFFFFFFFFFFFFFF AND MUL OR SWAP1 SSTORE POP PUSH1 0x1 PUSH0 SWAP1 SLOAD SWAP1 PUSH2 0x100 EXP SWAP1 DIV PUSH20 0xFFFFFFFFFFFFFFFFFFFFFFFFFFFFFFFFFFFFFFFF AND PUSH20 0xFFFFFFFFFFFFFFFFFFFFFFFFFFFFFFFFFFFFFFFF AND PUSH0 PUSH20 0xFFFFFFFFFFFFFFFFFFFFFFFFFFFFFFFFFFFFFFFF AND PUSH32 0x8BE0079C531659141344CD1FD0A4F28419497F9722A3DAAFE3B4186F6B6457E0 PUSH1 0x40 MLOAD PUSH1 0x40 MLOAD DUP1 SWAP2 SUB SWAP1 LOG3 PUSH2 0x3D2A DUP1 PUSH2 0xEB PUSH0 CODECOPY PUSH0 RETURN INVALID PUSH1 0x80 PUSH1 0x40 MSTORE CALLVALUE DUP1 ISZERO PUSH2 0xF JUMPI PUSH0 DUP1 REVERT JUMPDEST POP PUSH1 0x4 CALLDATASIZE LT PUSH2 0x14B JUMPI PUSH0 CALLDATALOAD PUSH1 0xE0 SHR DUP1 PUSH4 0x9CE43F90 GT PUSH2 0xC1 JUMPI DUP1 PUSH4 0xB51D46EA GT PUSH2 0x7A JUMPI DUP1 PUSH4 0xB51D46EA EQ PUSH2 0x3CF JUMPI DUP1 PUSH4 0xBE23B21B EQ PUSH2 0x3EB JUMPI DUP1 PUSH4 0xC00007B0 EQ PUSH2 0x41B JUMPI DUP1 PUSH4 0xE6E8712D EQ PUSH2 0x437 JUMPI DUP1 PUSH4 0xE70B9E27 EQ PUSH2 0x468 JUMPI DUP1 PUSH4 0xF1229777 EQ PUSH2 0x498 JUMPI PUSH2 0x14B JUMP JUMPDEST DUP1 PUSH4 0x9CE43F90 EQ PUSH2 0x313 JUMPI DUP1 PUSH4 0x9D4B0674 EQ PUSH2 0x343 JUMPI DUP1 PUSH4 0x9E447FC6 EQ PUSH2 0x35F JUMPI DUP1 PUSH4 0xA64B6E5F EQ PUSH2 0x37B JUMPI DUP1 PUSH4 0xAC18DE43 EQ PUSH2 0x397 JUMPI DUP1 PUSH4 0xADC9772E EQ PUSH2 0x3B3 JUMPI PUSH2 0x14B JUMP JUMPDEST DUP1 PUSH4 0x6E3B47FC GT PUSH2 0x113 JUMPI DUP1 PUSH4 0x6E3B47FC EQ PUSH2 0x205 JUMPI DUP1 PUSH4 0x7035AB98 EQ PUSH2 0x223 JUMPI DUP1 PUSH4 0x8229084B EQ PUSH2 0x253 JUMPI DUP1 PUSH4 0x82BE4308 EQ PUSH2 0x283 JUMPI DUP1 PUSH4 0x87D9D670 EQ PUSH2 0x2B3 JUMPI DUP1 PUSH4 0x8F926830 EQ PUSH2 0x2E3 JUMPI PUSH2 0x14B JUMP JUMPDEST DUP1 PUSH4 0x211DC32D EQ PUSH2 0x14F JUMPI DUP1 PUSH4 0x2CE9AEAD EQ PUSH2 0x17F JUMPI DUP1 PUSH4 0x2D06177A EQ PUSH2 0x1AF JUMPI DUP1 PUSH4 0x5997BB37 EQ PUSH2 0x1CB JUMPI DUP1 PUSH4 0x5FA7B584 EQ PUSH2 0x1E9 JUMPI JUMPDEST PUSH0 DUP1 REVERT JUMPDEST PUSH2 0x169 PUSH1 0x4 DUP1 CALLDATASIZE SUB DUP2 ADD SWAP1 PUSH2 0x164 SWAP2 SWAP1 PUSH2 0x2F94 JUMP JUMPDEST PUSH2 0x4C8 JUMP JUMPDEST PUSH1 0x40 MLOAD PUSH2 0x176 SWAP2 SWAP1 PUSH2 0x2FEA JUMP JUMPDEST PUSH1 0x40 MLOAD DUP1 SWAP2 SUB SWAP1 RETURN JUMPDEST PUSH2 0x199 PUSH1 0x4 DUP1 CALLDATASIZE SUB DUP2 ADD SWAP1 PUSH2 0x194 SWAP2 SWAP1 PUSH2 0x3003 JUMP JUMPDEST PUSH2 0x71E JUMP JUMPDEST PUSH1 0x40 MLOAD PUSH2 0x1A6 SWAP2 SWAP1 PUSH2 0x2FEA JUMP JUMPDEST PUSH1 0x40 MLOAD DUP1 SWAP2 SUB SWAP1 RETURN JUMPDEST PUSH2 0x1C9 PUSH1 0x4 DUP1 CALLDATASIZE SUB DUP2 ADD SWAP1 PUSH2 0x1C4 SWAP2 SWAP1 PUSH2 0x3003 JUMP JUMPDEST PUSH2 0x733 JUMP JUMPDEST STOP JUMPDEST PUSH2 0x1D3 PUSH2 0x938 JUMP JUMPDEST PUSH1 0x40 MLOAD PUSH2 0x1E0 SWAP2 SWAP1 PUSH2 0x2FEA JUMP JUMPDEST PUSH1 0x40 MLOAD DUP1 SWAP2 SUB SWAP1 RETURN JUMPDEST PUSH2 0x203 PUSH1 0x4 DUP1 CALLDATASIZE SUB DUP2 ADD SWAP1 PUSH2 0x1FE SWAP2 SWAP1 PUSH2 0x3003 JUMP JUMPDEST PUSH2 0x93E JUMP JUMPDEST STOP JUMPDEST PUSH2 0x20D PUSH2 0xB47 JUMP JUMPDEST PUSH1 0x40 MLOAD PUSH2 0x21A SWAP2 SWAP1 PUSH2 0x30A1 JUMP JUMPDEST PUSH1 0x40 MLOAD DUP1 SWAP2 SUB SWAP1 RETURN JUMPDEST PUSH2 0x23D PUSH1 0x4 DUP1 CALLDATASIZE SUB DUP2 ADD SWAP1 PUSH2 0x238 SWAP2 SWAP1 PUSH2 0x2F94 JUMP JUMPDEST PUSH2 0xC04 JUMP JUMPDEST PUSH1 0x40 MLOAD PUSH2 0x24A SWAP2 SWAP1 PUSH2 0x2FEA JUMP JUMPDEST PUSH1 0x40 MLOAD DUP1 SWAP2 SUB SWAP1 RETURN JUMPDEST PUSH2 0x26D PUSH1 0x4 DUP1 CALLDATASIZE SUB DUP2 ADD SWAP1 PUSH2 0x268 SWAP2 SWAP1 PUSH2 0x2F94 JUMP JUMPDEST PUSH2 0xC24 JUMP JUMPDEST PUSH1 0x40 MLOAD PUSH2 0x27A SWAP2 SWAP1 PUSH2 0x2FEA JUMP JUMPDEST PUSH1 0x40 MLOAD DUP1 SWAP2 SUB SWAP1 RETURN JUMPDEST PUSH2 0x29D PUSH1 0x4 DUP1 CALLDATASIZE SUB DUP2 ADD SWAP1 PUSH2 0x298 SWAP2 SWAP1 PUSH2 0x3003 JUMP JUMPDEST PUSH2 0xC44 JUMP JUMPDEST PUSH1 0x40 MLOAD PUSH2 0x2AA SWAP2 SWAP1 PUSH2 0x2FEA JUMP JUMPDEST PUSH1 0x40 MLOAD DUP1 SWAP2 SUB SWAP1 RETURN JUMPDEST PUSH2 0x2CD PUSH1 0x4 DUP1 CALLDATASIZE SUB DUP2 ADD SWAP1 PUSH2 0x2C8 SWAP2 SWAP1 PUSH2 0x2F94 JUMP JUMPDEST PUSH2 0xD51 JUMP JUMPDEST PUSH1 0x40 MLOAD PUSH2 0x2DA SWAP2 SWAP1 PUSH2 0x2FEA JUMP JUMPDEST PUSH1 0x40 MLOAD DUP1 SWAP2 SUB SWAP1 RETURN JUMPDEST PUSH2 0x2FD PUSH1 0x4 DUP1 CALLDATASIZE SUB DUP2 ADD SWAP1 PUSH2 0x2F8 SWAP2 SWAP1 PUSH2 0x2F94 JUMP JUMPDEST PUSH2 0xF3F JUMP JUMPDEST PUSH1 0x40 MLOAD PUSH2 0x30A SWAP2 SWAP1 PUSH2 0x2FEA JUMP JUMPDEST PUSH1 0x40 MLOAD DUP1 SWAP2 SUB SWAP1 RETURN JUMPDEST PUSH2 0x32D PUSH1 0x4 DUP1 CALLDATASIZE SUB DUP2 ADD SWAP1 PUSH2 0x328 SWAP2 SWAP1 PUSH2 0x3003 JUMP JUMPDEST PUSH2 0x112D JUMP JUMPDEST PUSH1 0x40 MLOAD PUSH2 0x33A SWAP2 SWAP1 PUSH2 0x2FEA JUMP JUMPDEST PUSH1 0x40 MLOAD DUP1 SWAP2 SUB SWAP1 RETURN JUMPDEST PUSH2 0x35D PUSH1 0x4 DUP1 CALLDATASIZE SUB DUP2 ADD SWAP1 PUSH2 0x358 SWAP2 SWAP1 PUSH2 0x30E4 JUMP JUMPDEST PUSH2 0x1142 JUMP JUMPDEST STOP JUMPDEST PUSH2 0x379 PUSH1 0x4 DUP1 CALLDATASIZE SUB DUP2 ADD SWAP1 PUSH2 0x374 SWAP2 SWAP1 PUSH2 0x3122 JUMP JUMPDEST PUSH2 0x17ED JUMP JUMPDEST STOP JUMPDEST PUSH2 0x395 PUSH1 0x4 DUP1 CALLDATASIZE SUB DUP2 ADD SWAP1 PUSH2 0x390 SWAP2 SWAP1 PUSH2 0x314D JUMP JUMPDEST PUSH2 0x190E JUMP JUMPDEST STOP JUMPDEST PUSH2 0x3B1 PUSH1 0x4 DUP1 CALLDATASIZE SUB DUP2 ADD SWAP1 PUSH2 0x3AC SWAP2 SWAP1 PUSH2 0x3003 JUMP JUMPDEST PUSH2 0x1BE5 JUMP JUMPDEST STOP JUMPDEST PUSH2 0x3CD PUSH1 0x4 DUP1 CALLDATASIZE SUB DUP2 ADD SWAP1 PUSH2 0x3C8 SWAP2 SWAP1 PUSH2 0x30E4 JUMP JUMPDEST PUSH2 0x1DE8 JUMP JUMPDEST STOP JUMPDEST PUSH2 0x3E9 PUSH1 0x4 DUP1 CALLDATASIZE SUB DUP2 ADD SWAP1 PUSH2 0x3E4 SWAP2 SWAP1 PUSH2 0x31FE JUMP JUMPDEST PUSH2 0x23DA JUMP JUMPDEST STOP JUMPDEST PUSH2 0x405 PUSH1 0x4 DUP1 CALLDATASIZE SUB DUP2 ADD SWAP1 PUSH2 0x400 SWAP2 SWAP1 PUSH2 0x3003 JUMP JUMPDEST PUSH2 0x260C JUMP JUMPDEST PUSH1 0x40 MLOAD PUSH2 0x412 SWAP2 SWAP1 PUSH2 0x2FEA JUMP JUMPDEST PUSH1 0x40 MLOAD DUP1 SWAP2 SUB SWAP1 RETURN JUMPDEST PUSH2 0x435 PUSH1 0x4 DUP1 CALLDATASIZE SUB DUP2 ADD SWAP1 PUSH2 0x430 SWAP2 SWAP1 PUSH2 0x3003 JUMP JUMPDEST PUSH2 0x2621 JUMP JUMPDEST STOP JUMPDEST PUSH2 0x451 PUSH1 0x4 DUP1 CALLDATASIZE SUB DUP2 ADD SWAP1 PUSH2 0x44C SWAP2 SWAP1 PUSH2 0x3003 JUMP JUMPDEST PUSH2 0x2B72 JUMP JUMPDEST PUSH1 0x40 MLOAD PUSH2 0x45F SWAP3 SWAP2 SWAP1 PUSH2 0x32FF JUMP JUMPDEST PUSH1 0x40 MLOAD DUP1 SWAP2 SUB SWAP1 RETURN JUMPDEST PUSH2 0x482 PUSH1 0x4 DUP1 CALLDATASIZE SUB DUP2 ADD SWAP1 PUSH2 0x47D SWAP2 SWAP1 PUSH2 0x2F94 JUMP JUMPDEST PUSH2 0x2C24 JUMP JUMPDEST PUSH1 0x40 MLOAD PUSH2 0x48F SWAP2 SWAP1 PUSH2 0x2FEA JUMP JUMPDEST PUSH1 0x40 MLOAD DUP1 SWAP2 SUB SWAP1 RETURN JUMPDEST PUSH2 0x4B2 PUSH1 0x4 DUP1 CALLDATASIZE SUB DUP2 ADD SWAP1 PUSH2 0x4AD SWAP2 SWAP1 PUSH2 0x3003 JUMP JUMPDEST PUSH2 0x2C44 JUMP JUMPDEST PUSH1 0x40 MLOAD PUSH2 0x4BF SWAP2 SWAP1 PUSH2 0x2FEA JUMP JUMPDEST PUSH1 0x40 MLOAD DUP1 SWAP2 SUB SWAP1 RETURN JUMPDEST PUSH0 PUSH1 0x3 PUSH0 DUP5 PUSH20 0xFFFFFFFFFFFFFFFFFFFFFFFFFFFFFFFFFFFFFFFF AND PUSH20 0xFFFFFFFFFFFFFFFFFFFFFFFFFFFFFFFFFFFFFFFF AND DUP2 MSTORE PUSH1 0x20 ADD SWAP1 DUP2 MSTORE PUSH1 0x20 ADD PUSH0 KECCAK256 PUSH1 0x1 ADD PUSH0 SWAP1 SLOAD SWAP1 PUSH2 0x100 EXP SWAP1 DIV PUSH1 0xFF AND PUSH2 0x555 JUMPI PUSH1 0x40 MLOAD PUSH32 0x8C379A000000000000000000000000000000000000000000000000000000000 DUP2 MSTORE PUSH1 0x4 ADD PUSH2 0x54C SWAP1 PUSH2 0x3377 JUMP JUMPDEST PUSH1 0x40 MLOAD DUP1 SWAP2 SUB SWAP1 REVERT JUMPDEST PUSH2 0x716 PUSH1 0x5 PUSH0 DUP6 PUSH20 0xFFFFFFFFFFFFFFFFFFFFFFFFFFFFFFFFFFFFFFFF AND PUSH20 0xFFFFFFFFFFFFFFFFFFFFFFFFFFFFFFFFFFFFFFFF AND DUP2 MSTORE PUSH1 0x20 ADD SWAP1 DUP2 MSTORE PUSH1 0x20 ADD PUSH0 KECCAK256 PUSH0 DUP5 PUSH20 0xFFFFFFFFFFFFFFFFFFFFFFFFFFFFFFFFFFFFFFFF AND PUSH20 0xFFFFFFFFFFFFFFFFFFFFFFFFFFFFFFFFFFFFFFFF AND DUP2 MSTORE PUSH1 0x20 ADD SWAP1 DUP2 MSTORE PUSH1 0x20 ADD PUSH0 KECCAK256 SLOAD PUSH2 0x708 PUSH8 0xDE0B6B3A7640000 PUSH2 0x6FA PUSH2 0x673 PUSH1 0x6 PUSH0 DUP11 PUSH20 0xFFFFFFFFFFFFFFFFFFFFFFFFFFFFFFFFFFFFFFFF AND PUSH20 0xFFFFFFFFFFFFFFFFFFFFFFFFFFFFFFFFFFFFFFFF AND DUP2 MSTORE PUSH1 0x20 ADD SWAP1 DUP2 MSTORE PUSH1 0x20 ADD PUSH0 KECCAK256 PUSH0 DUP10 PUSH20 0xFFFFFFFFFFFFFFFFFFFFFFFFFFFFFFFFFFFFFFFF AND PUSH20 0xFFFFFFFFFFFFFFFFFFFFFFFFFFFFFFFFFFFFFFFF AND DUP2 MSTORE PUSH1 0x20 ADD SWAP1 DUP2 MSTORE PUSH1 0x20 ADD PUSH0 KECCAK256 SLOAD PUSH2 0x665 DUP11 PUSH2 0x2C44 JUMP JUMPDEST PUSH2 0x2E88 SWAP1 SWAP2 SWAP1 PUSH4 0xFFFFFFFF AND JUMP JUMPDEST PUSH1 0x4 PUSH0 DUP11 PUSH20 0xFFFFFFFFFFFFFFFFFFFFFFFFFFFFFFFFFFFFFFFF AND PUSH20 0xFFFFFFFFFFFFFFFFFFFFFFFFFFFFFFFFFFFFFFFF AND DUP2 MSTORE PUSH1 0x20 ADD SWAP1 DUP2 MSTORE PUSH1 0x20 ADD PUSH0 KECCAK256 PUSH0 DUP10 PUSH20 0xFFFFFFFFFFFFFFFFFFFFFFFFFFFFFFFFFFFFFFFF AND PUSH20 0xFFFFFFFFFFFFFFFFFFFFFFFFFFFFFFFFFFFFFFFF AND DUP2 MSTORE PUSH1 0x20 ADD SWAP1 DUP2 MSTORE PUSH1 0x20 ADD PUSH0 KECCAK256 SLOAD PUSH2 0x2E9D SWAP1 SWAP2 SWAP1 PUSH4 0xFFFFFFFF AND JUMP JUMPDEST PUSH2 0x2EB2 SWAP1 SWAP2 SWAP1 PUSH4 0xFFFFFFFF AND JUMP JUMPDEST PUSH2 0x2EC7 SWAP1 SWAP2 SWAP1 PUSH4 0xFFFFFFFF AND JUMP JUMPDEST SWAP1 POP SWAP3 SWAP2 POP POP JUMP JUMPDEST PUSH1 0x8 PUSH1 0x20 MSTORE DUP1 PUSH0 MSTORE PUSH1 0x40 PUSH0 KECCAK256 PUSH0 SWAP2 POP SWAP1 POP SLOAD DUP2 JUMP JUMPDEST PUSH1 0xA PUSH0 CALLER PUSH20 0xFFFFFFFFFFFFFFFFFFFFFFFFFFFFFFFFFFFFFFFF AND PUSH20 0xFFFFFFFFFFFFFFFFFFFFFFFFFFFFFFFFFFFFFFFF AND DUP2 MSTORE PUSH1 0x20 ADD SWAP1 DUP2 MSTORE PUSH1 0x20 ADD PUSH0 KECCAK256 PUSH0 SWAP1 SLOAD SWAP1 PUSH2 0x100 EXP SWAP1 DIV PUSH1 0xFF AND DUP1 PUSH2 0x7D4 JUMPI POP CALLER PUSH20 0xFFFFFFFFFFFFFFFFFFFFFFFFFFFFFFFFFFFFFFFF AND PUSH1 0x1 PUSH0 SWAP1 SLOAD SWAP1 PUSH2 0x100 EXP SWAP1 DIV PUSH20 0xFFFFFFFFFFFFFFFFFFFFFFFFFFFFFFFFFFFFFFFF AND PUSH20 0xFFFFFFFFFFFFFFFFFFFFFFFFFFFFFFFFFFFFFFFF AND EQ JUMPDEST PUSH2 0x813 JUMPI PUSH1 0x40 MLOAD PUSH32 0x8C379A000000000000000000000000000000000000000000000000000000000 DUP2 MSTORE PUSH1 0x4 ADD PUSH2 0x80A SWAP1 PUSH2 0x33DF JUMP JUMPDEST PUSH1 0x40 MLOAD DUP1 SWAP2 SUB SWAP1 REVERT JUMPDEST PUSH1 0xA PUSH0 DUP3 PUSH20 0xFFFFFFFFFFFFFFFFFFFFFFFFFFFFFFFFFFFFFFFF AND PUSH20 0xFFFFFFFFFFFFFFFFFFFFFFFFFFFFFFFFFFFFFFFF AND DUP2 MSTORE PUSH1 0x20 ADD SWAP1 DUP2 MSTORE PUSH1 0x20 ADD PUSH0 KECCAK256 PUSH0 SWAP1 SLOAD SWAP1 PUSH2 0x100 EXP SWAP1 DIV PUSH1 0xFF AND ISZERO PUSH2 0x89D JUMPI PUSH1 0x40 MLOAD PUSH32 0x8C379A000000000000000000000000000000000000000000000000000000000 DUP2 MSTORE PUSH1 0x4 ADD PUSH2 0x894 SWAP1 PUSH2 0x3447 JUMP JUMPDEST PUSH1 0x40 MLOAD DUP1 SWAP2 SUB SWAP1 REVERT JUMPDEST PUSH1 0x1 PUSH1 0xA PUSH0 DUP4 PUSH20 0xFFFFFFFFFFFFFFFFFFFFFFFFFFFFFFFFFFFFFFFF AND PUSH20 0xFFFFFFFFFFFFFFFFFFFFFFFFFFFFFFFFFFFFFFFF AND DUP2 MSTORE PUSH1 0x20 ADD SWAP1 DUP2 MSTORE PUSH1 0x20 ADD PUSH0 KECCAK256 PUSH0 PUSH2 0x100 EXP DUP2 SLOAD DUP2 PUSH1 0xFF MUL NOT AND SWAP1 DUP4 ISZERO ISZERO MUL OR SWAP1 SSTORE POP DUP1 PUSH20 0xFFFFFFFFFFFFFFFFFFFFFFFFFFFFFFFFFFFFFFFF AND PUSH32 0x3B4A40CCCF2058C593542587329DD385BE4F0B588DB5471FBD9598E56DD7093A PUSH1 0x40 MLOAD PUSH1 0x40 MLOAD DUP1 SWAP2 SUB SWAP1 LOG2 POP JUMP JUMPDEST PUSH1 0x2 SLOAD DUP2 JUMP JUMPDEST PUSH1 0xA PUSH0 CALLER PUSH20 0xFFFFFFFFFFFFFFFFFFFFFFFFFFFFFFFFFFFFFFFF AND PUSH20 0xFFFFFFFFFFFFFFFFFFFFFFFFFFFFFFFFFFFFFFFF AND DUP2 MSTORE PUSH1 0x20 ADD SWAP1 DUP2 MSTORE PUSH1 0x20 ADD PUSH0 KECCAK256 PUSH0 SWAP1 SLOAD SWAP1 PUSH2 0x100 EXP SWAP1 DIV PUSH1 0xFF AND DUP1 PUSH2 0x9DF JUMPI POP CALLER PUSH20 0xFFFFFFFFFFFFFFFFFFFFFFFFFFFFFFFFFFFFFFFF AND PUSH1 0x1 PUSH0 SWAP1 SLOAD SWAP1 PUSH2 0x100 EXP SWAP1 DIV PUSH20 0xFFFFFFFFFFFFFFFFFFFFFFFFFFFFFFFFFFFFFFFF AND PUSH20 0xFFFFFFFFFFFFFFFFFFFFFFFFFFFFFFFFFFFFFFFF AND EQ JUMPDEST PUSH2 0xA1E JUMPI PUSH1 0x40 MLOAD PUSH32 0x8C379A000000000000000000000000000000000000000000000000000000000 DUP2 MSTORE PUSH1 0x4 ADD PUSH2 0xA15 SWAP1 PUSH2 0x33DF JUMP JUMPDEST PUSH1 0x40 MLOAD DUP1 SWAP2 SUB SWAP1 REVERT JUMPDEST PUSH1 0x3 PUSH0 DUP3 PUSH20 0xFFFFFFFFFFFFFFFFFFFFFFFFFFFFFFFFFFFFFFFF AND PUSH20 0xFFFFFFFFFFFFFFFFFFFFFFFFFFFFFFFFFFFFFFFF AND DUP2 MSTORE PUSH1 0x20 ADD SWAP1 DUP2 MSTORE PUSH1 0x20 ADD PUSH0 KECCAK256 PUSH1 0x1 ADD PUSH0 SWAP1 SLOAD SWAP1 PUSH2 0x100 EXP SWAP1 DIV PUSH1 0xFF AND PUSH2 0xAAA JUMPI PUSH1 0x40 MLOAD PUSH32 0x8C379A000000000000000000000000000000000000000000000000000000000 DUP2 MSTORE PUSH1 0x4 ADD PUSH2 0xAA1 SWAP1 PUSH2 0x34AF JUMP JUMPDEST PUSH1 0x40 MLOAD DUP1 SWAP2 SUB SWAP1 REVERT JUMPDEST PUSH0 PUSH1 0x3 PUSH0 DUP4 PUSH20 0xFFFFFFFFFFFFFFFFFFFFFFFFFFFFFFFFFFFFFFFF AND PUSH20 0xFFFFFFFFFFFFFFFFFFFFFFFFFFFFFFFFFFFFFFFF AND DUP2 MSTORE PUSH1 0x20 ADD SWAP1 DUP2 MSTORE PUSH1 0x20 ADD PUSH0 KECCAK256 PUSH1 0x1 ADD PUSH0 PUSH2 0x100 EXP DUP2 SLOAD DUP2 PUSH1 0xFF MUL NOT AND SWAP1 DUP4 ISZERO ISZERO MUL OR SWAP1 SSTORE POP DUP1 PUSH20 0xFFFFFFFFFFFFFFFFFFFFFFFFFFFFFFFFFFFFFFFF AND PUSH32 0x4C910B69FE65A61F7531B9C5042B2329CA7179C77290AA7E2EB3AFA3C8511FD3 PUSH1 0x40 MLOAD PUSH1 0x40 MLOAD DUP1 SWAP2 SUB SWAP1 LOG2 POP JUMP JUMPDEST PUSH0 PUSH1 0x1 PUSH0 SWAP1 SLOAD SWAP1 PUSH2 0x100 EXP SWAP1 DIV PUSH20 0xFFFFFFFFFFFFFFFFFFFFFFFFFFFFFFFFFFFFFFFF AND PUSH20 0xFFFFFFFFFFFFFFFFFFFFFFFFFFFFFFFFFFFFFFFF AND CALLER PUSH20 0xFFFFFFFFFFFFFFFFFFFFFFFFFFFFFFFFFFFFFFFF AND SUB PUSH2 0xBA5 JUMPI PUSH1 0x1 SWAP1 POP PUSH2 0xC01 JUMP JUMPDEST PUSH1 0xA PUSH0 CALLER PUSH20 0xFFFFFFFFFFFFFFFFFFFFFFFFFFFFFFFFFFFFFFFF AND PUSH20 0xFFFFFFFFFFFFFFFFFFFFFFFFFFFFFFFFFFFFFFFF AND DUP2 MSTORE PUSH1 0x20 ADD SWAP1 DUP2 MSTORE PUSH1 0x20 ADD PUSH0 KECCAK256 PUSH0 SWAP1 SLOAD SWAP1 PUSH2 0x100 EXP SWAP1 DIV PUSH1 0xFF AND ISZERO PUSH2 0xBFD JUMPI PUSH1 0x2 SWAP1 POP PUSH2 0xC01 JUMP JUMPDEST PUSH0 SWAP1 POP JUMPDEST SWAP1 JUMP JUMPDEST PUSH1 0x6 PUSH1 0x20 MSTORE DUP2 PUSH0 MSTORE PUSH1 0x40 PUSH0 KECCAK256 PUSH1 0x20 MSTORE DUP1 PUSH0 MSTORE PUSH1 0x40 PUSH0 KECCAK256 PUSH0 SWAP2 POP SWAP2 POP POP SLOAD DUP2 JUMP JUMPDEST PUSH1 0x4 PUSH1 0x20 MSTORE DUP2 PUSH0 MSTORE PUSH1 0x40 PUSH0 KECCAK256 PUSH1 0x20 MSTORE DUP1 PUSH0 MSTORE PUSH1 0x40 PUSH0 KECCAK256 PUSH0 SWAP2 POP SWAP2 POP POP SLOAD DUP2 JUMP JUMPDEST PUSH0 PUSH1 0x3 PUSH0 DUP4 PUSH20 0xFFFFFFFFFFFFFFFFFFFFFFFFFFFFFFFFFFFFFFFF AND PUSH20 0xFFFFFFFFFFFFFFFFFFFFFFFFFFFFFFFFFFFFFFFF AND DUP2 MSTORE PUSH1 0x20 ADD SWAP1 DUP2 MSTORE PUSH1 0x20 ADD PUSH0 KECCAK256 PUSH1 0x1 ADD PUSH0 SWAP1 SLOAD SWAP1 PUSH2 0x100 EXP SWAP1 DIV PUSH1 0xFF AND PUSH2 0xCD1 JUMPI PUSH1 0x40 MLOAD PUSH32 0x8C379A000000000000000000000000000000000000000000000000000000000 DUP2 MSTORE PUSH1 0x4 ADD PUSH2 0xCC8 SWAP1 PUSH2 0x3377 JUMP JUMPDEST PUSH1 0x40 MLOAD DUP1 SWAP2 SUB SWAP1 REVERT JUMPDEST PUSH1 0x4 PUSH0 DUP4 PUSH20 0xFFFFFFFFFFFFFFFFFFFFFFFFFFFFFFFFFFFFFFFF AND PUSH20 0xFFFFFFFFFFFFFFFFFFFFFFFFFFFFFFFFFFFFFFFF AND DUP2 MSTORE PUSH1 0x20 ADD SWAP1 DUP2 MSTORE PUSH1 0x20 ADD PUSH0 KECCAK256 PUSH0 CALLER PUSH20 0xFFFFFFFFFFFFFFFFFFFFFFFFFFFFFFFFFFFFFFFF AND PUSH20 0xFFFFFFFFFFFFFFFFFFFFFFFFFFFFFFFFFFFFFFFF AND DUP2 MSTORE PUSH1 0x20 ADD SWAP1 DUP2 MSTORE PUSH1 0x20 ADD PUSH0 KECCAK256 SLOAD SWAP1 POP SWAP2 SWAP1 POP JUMP JUMPDEST PUSH0 PUSH1 0xA PUSH0 CALLER PUSH20 0xFFFFFFFFFFFFFFFFFFFFFFFFFFFFFFFFFFFFFFFF AND PUSH20 0xFFFFFFFFFFFFFFFFFFFFFFFFFFFFFFFFFFFFFFFF AND DUP2 MSTORE PUSH1 0x20 ADD SWAP1 DUP2 MSTORE PUSH1 0x20 ADD PUSH0 KECCAK256 PUSH0 SWAP1 SLOAD SWAP1 PUSH2 0x100 EXP SWAP1 DIV PUSH1 0xFF AND DUP1 PUSH2 0xDF3 JUMPI POP CALLER PUSH20 0xFFFFFFFFFFFFFFFFFFFFFFFFFFFFFFFFFFFFFFFF AND PUSH1 0x1 PUSH0 SWAP1 SLOAD SWAP1 PUSH2 0x100 EXP SWAP1 DIV PUSH20 0xFFFFFFFFFFFFFFFFFFFFFFFFFFFFFFFFFFFFFFFF AND PUSH20 0xFFFFFFFFFFFFFFFFFFFFFFFFFFFFFFFFFFFFFFFF AND EQ JUMPDEST PUSH2 0xE32 JUMPI PUSH1 0x40 MLOAD PUSH32 0x8C379A000000000000000000000000000000000000000000000000000000000 DUP2 MSTORE PUSH1 0x4 ADD PUSH2 0xE29 SWAP1 PUSH2 0x33DF JUMP JUMPDEST PUSH1 0x40 MLOAD DUP1 SWAP2 SUB SWAP1 REVERT JUMPDEST PUSH1 0x3 PUSH0 DUP5 PUSH20 0xFFFFFFFFFFFFFFFFFFFFFFFFFFFFFFFFFFFFFFFF AND PUSH20 0xFFFFFFFFFFFFFFFFFFFFFFFFFFFFFFFFFFFFFFFF AND DUP2 MSTORE PUSH1 0x20 ADD SWAP1 DUP2 MSTORE PUSH1 0x20 ADD PUSH0 KECCAK256 PUSH1 0x1 ADD PUSH0 SWAP1 SLOAD SWAP1 PUSH2 0x100 EXP SWAP1 DIV PUSH1 0xFF AND PUSH2 0xEBE JUMPI PUSH1 0x40 MLOAD PUSH32 0x8C379A000000000000000000000000000000000000000000000000000000000 DUP2 MSTORE PUSH1 0x4 ADD PUSH2 0xEB5 SWAP1 PUSH2 0x3377 JUMP JUMPDEST PUSH1 0x40 MLOAD DUP1 SWAP2 SUB SWAP1 REVERT JUMPDEST PUSH1 0x4 PUSH0 DUP5 PUSH20 0xFFFFFFFFFFFFFFFFFFFFFFFFFFFFFFFFFFFFFFFF AND PUSH20 0xFFFFFFFFFFFFFFFFFFFFFFFFFFFFFFFFFFFFFFFF AND DUP2 MSTORE PUSH1 0x20 ADD SWAP1 DUP2 MSTORE PUSH1 0x20 ADD PUSH0 KECCAK256 PUSH0 DUP4 PUSH20 0xFFFFFFFFFFFFFFFFFFFFFFFFFFFFFFFFFFFFFFFF AND PUSH20 0xFFFFFFFFFFFFFFFFFFFFFFFFFFFFFFFFFFFFFFFF AND DUP2 MSTORE PUSH1 0x20 ADD SWAP1 DUP2 MSTORE PUSH1 0x20 ADD PUSH0 KECCAK256 SLOAD SWAP1 POP SWAP3 SWAP2 POP POP JUMP JUMPDEST PUSH0 PUSH1 0xA PUSH0 CALLER PUSH20 0xFFFFFFFFFFFFFFFFFFFFFFFFFFFFFFFFFFFFFFFF AND PUSH20 0xFFFFFFFFFFFFFFFFFFFFFFFFFFFFFFFFFFFFFFFF AND DUP2 MSTORE PUSH1 0x20 ADD SWAP1 DUP2 MSTORE PUSH1 0x20 ADD PUSH0 KECCAK256 PUSH0 SWAP1 SLOAD SWAP1 PUSH2 0x100 EXP SWAP1 DIV PUSH1 0xFF AND DUP1 PUSH2 0xFE1 JUMPI POP CALLER PUSH20 0xFFFFFFFFFFFFFFFFFFFFFFFFFFFFFFFFFFFFFFFF AND PUSH1 0x1 PUSH0 SWAP1 SLOAD SWAP1 PUSH2 0x100 EXP SWAP1 DIV PUSH20 0xFFFFFFFFFFFFFFFFFFFFFFFFFFFFFFFFFFFFFFFF AND PUSH20 0xFFFFFFFFFFFFFFFFFFFFFFFFFFFFFFFFFFFFFFFF AND EQ JUMPDEST PUSH2 0x1020 JUMPI PUSH1 0x40 MLOAD PUSH32 0x8C379A000000000000000000000000000000000000000000000000000000000 DUP2 MSTORE PUSH1 0x4 ADD PUSH2 0x1017 SWAP1 PUSH2 0x33DF JUMP JUMPDEST PUSH1 0x40 MLOAD DUP1 SWAP2 SUB SWAP1 REVERT JUMPDEST PUSH1 0x3 PUSH0 DUP5 PUSH20 0xFFFFFFFFFFFFFFFFFFFFFFFFFFFFFFFFFFFFFFFF AND PUSH20 0xFFFFFFFFFFFFFFFFFFFFFFFFFFFFFFFFFFFFFFFF AND DUP2 MSTORE PUSH1 0x20 ADD SWAP1 DUP2 MSTORE PUSH1 0x20 ADD PUSH0 KECCAK256 PUSH1 0x1 ADD PUSH0 SWAP1 SLOAD SWAP1 PUSH2 0x100 EXP SWAP1 DIV PUSH1 0xFF AND PUSH2 0x10AC JUMPI PUSH1 0x40 MLOAD PUSH32 0x8C379A000000000000000000000000000000000000000000000000000000000 DUP2 MSTORE PUSH1 0x4 ADD PUSH2 0x10A3 SWAP1 PUSH2 0x3377 JUMP JUMPDEST PUSH1 0x40 MLOAD DUP1 SWAP2 SUB SWAP1 REVERT JUMPDEST PUSH1 0x4 PUSH0 DUP5 PUSH20 0xFFFFFFFFFFFFFFFFFFFFFFFFFFFFFFFFFFFFFFFF AND PUSH20 0xFFFFFFFFFFFFFFFFFFFFFFFFFFFFFFFFFFFFFFFF AND DUP2 MSTORE PUSH1 0x20 ADD SWAP1 DUP2 MSTORE PUSH1 0x20 ADD PUSH0 KECCAK256 PUSH0 DUP4 PUSH20 0xFFFFFFFFFFFFFFFFFFFFFFFFFFFFFFFFFFFFFFFF AND PUSH20 0xFFFFFFFFFFFFFFFFFFFFFFFFFFFFFFFFFFFFFFFF AND DUP2 MSTORE PUSH1 0x20 ADD SWAP1 DUP2 MSTORE PUSH1 0x20 ADD PUSH0 KECCAK256 SLOAD SWAP1 POP SWAP3 SWAP2 POP POP JUMP JUMPDEST PUSH1 0x7 PUSH1 0x20 MSTORE DUP1 PUSH0 MSTORE PUSH1 0x40 PUSH0 KECCAK256 PUSH0 SWAP2 POP SWAP1 POP SLOAD DUP2 JUMP JUMPDEST PUSH2 0x114A PUSH2 0x2EDC JUMP JUMPDEST DUP2 CALLER PUSH1 0x3 PUSH0 DUP4 PUSH20 0xFFFFFFFFFFFFFFFFFFFFFFFFFFFFFFFFFFFFFFFF AND PUSH20 0xFFFFFFFFFFFFFFFFFFFFFFFFFFFFFFFFFFFFFFFF AND DUP2 MSTORE PUSH1 0x20 ADD SWAP1 DUP2 MSTORE PUSH1 0x20 ADD PUSH0 KECCAK256 PUSH1 0x1 ADD PUSH0 SWAP1 SLOAD SWAP1 PUSH2 0x100 EXP SWAP1 DIV PUSH1 0xFF AND PUSH2 0x11D8 JUMPI PUSH1 0x40 MLOAD PUSH32 0x8C379A000000000000000000000000000000000000000000000000000000000 DUP2 MSTORE PUSH1 0x4 ADD PUSH2 0x11CF SWAP1 PUSH2 0x3377 JUMP JUMPDEST PUSH1 0x40 MLOAD DUP1 SWAP2 SUB SWAP1 REVERT JUMPDEST PUSH2 0x11E1 DUP3 PUSH2 0x2C44 JUMP JUMPDEST PUSH1 0x7 PUSH0 DUP5 PUSH20 0xFFFFFFFFFFFFFFFFFFFFFFFFFFFFFFFFFFFFFFFF AND PUSH20 0xFFFFFFFFFFFFFFFFFFFFFFFFFFFFFFFFFFFFFFFF AND DUP2 MSTORE PUSH1 0x20 ADD SWAP1 DUP2 MSTORE PUSH1 0x20 ADD PUSH0 KECCAK256 DUP2 SWAP1 SSTORE POP TIMESTAMP PUSH1 0x8 PUSH0 DUP5 PUSH20 0xFFFFFFFFFFFFFFFFFFFFFFFFFFFFFFFFFFFFFFFF AND PUSH20 0xFFFFFFFFFFFFFFFFFFFFFFFFFFFFFFFFFFFFFFFF AND DUP2 MSTORE PUSH1 0x20 ADD SWAP1 DUP2 MSTORE PUSH1 0x20 ADD PUSH0 KECCAK256 DUP2 SWAP1 SSTORE POP PUSH2 0x126E DUP3 DUP3 PUSH2 0x4C8 JUMP JUMPDEST PUSH1 0x5 PUSH0 DUP5 PUSH20 0xFFFFFFFFFFFFFFFFFFFFFFFFFFFFFFFFFFFFFFFF AND PUSH20 0xFFFFFFFFFFFFFFFFFFFFFFFFFFFFFFFFFFFFFFFF AND DUP2 MSTORE PUSH1 0x20 ADD SWAP1 DUP2 MSTORE PUSH1 0x20 ADD PUSH0 KECCAK256 PUSH0 DUP4 PUSH20 0xFFFFFFFFFFFFFFFFFFFFFFFFFFFFFFFFFFFFFFFF AND PUSH20 0xFFFFFFFFFFFFFFFFFFFFFFFFFFFFFFFFFFFFFFFF AND DUP2 MSTORE PUSH1 0x20 ADD SWAP1 DUP2 MSTORE PUSH1 0x20 ADD PUSH0 KECCAK256 DUP2 SWAP1 SSTORE POP PUSH1 0x7 PUSH0 DUP4 PUSH20 0xFFFFFFFFFFFFFFFFFFFFFFFFFFFFFFFFFFFFFFFF AND PUSH20 0xFFFFFFFFFFFFFFFFFFFFFFFFFFFFFFFFFFFFFFFF AND DUP2 MSTORE PUSH1 0x20 ADD SWAP1 DUP2 MSTORE PUSH1 0x20 ADD PUSH0 KECCAK256 SLOAD PUSH1 0x6 PUSH0 DUP5 PUSH20 0xFFFFFFFFFFFFFFFFFFFFFFFFFFFFFFFFFFFFFFFF AND PUSH20 0xFFFFFFFFFFFFFFFFFFFFFFFFFFFFFFFFFFFFFFFF AND DUP2 MSTORE PUSH1 0x20 ADD SWAP1 DUP2 MSTORE PUSH1 0x20 ADD PUSH0 KECCAK256 PUSH0 DUP4 PUSH20 0xFFFFFFFFFFFFFFFFFFFFFFFFFFFFFFFFFFFFFFFF AND PUSH20 0xFFFFFFFFFFFFFFFFFFFFFFFFFFFFFFFFFFFFFFFF AND DUP2 MSTORE PUSH1 0x20 ADD SWAP1 DUP2 MSTORE PUSH1 0x20 ADD PUSH0 KECCAK256 DUP2 SWAP1 SSTORE POP PUSH1 0x3 PUSH0 DUP6 PUSH20 0xFFFFFFFFFFFFFFFFFFFFFFFFFFFFFFFFFFFFFFFF AND PUSH20 0xFFFFFFFFFFFFFFFFFFFFFFFFFFFFFFFFFFFFFFFF AND DUP2 MSTORE PUSH1 0x20 ADD SWAP1 DUP2 MSTORE PUSH1 0x20 ADD PUSH0 KECCAK256 PUSH1 0x1 ADD PUSH0 SWAP1 SLOAD SWAP1 PUSH2 0x100 EXP SWAP1 DIV PUSH1 0xFF AND PUSH2 0x1430 JUMPI PUSH1 0x40 MLOAD PUSH32 0x8C379A000000000000000000000000000000000000000000000000000000000 DUP2 MSTORE PUSH1 0x4 ADD PUSH2 0x1427 SWAP1 PUSH2 0x3377 JUMP JUMPDEST PUSH1 0x40 MLOAD DUP1 SWAP2 SUB SWAP1 REVERT JUMPDEST PUSH0 DUP4 GT PUSH2 0x1472 JUMPI PUSH1 0x40 MLOAD PUSH32 0x8C379A000000000000000000000000000000000000000000000000000000000 DUP2 MSTORE PUSH1 0x4 ADD PUSH2 0x1469 SWAP1 PUSH2 0x3517 JUMP JUMPDEST PUSH1 0x40 MLOAD DUP1 SWAP2 SUB SWAP1 REVERT JUMPDEST DUP3 PUSH1 0x4 PUSH0 DUP7 PUSH20 0xFFFFFFFFFFFFFFFFFFFFFFFFFFFFFFFFFFFFFFFF AND PUSH20 0xFFFFFFFFFFFFFFFFFFFFFFFFFFFFFFFFFFFFFFFF AND DUP2 MSTORE PUSH1 0x20 ADD SWAP1 DUP2 MSTORE PUSH1 0x20 ADD PUSH0 KECCAK256 PUSH0 CALLER PUSH20 0xFFFFFFFFFFFFFFFFFFFFFFFFFFFFFFFFFFFFFFFF AND PUSH20 0xFFFFFFFFFFFFFFFFFFFFFFFFFFFFFFFFFFFFFFFF AND DUP2 MSTORE PUSH1 0x20 ADD SWAP1 DUP2 MSTORE PUSH1 0x20 ADD PUSH0 KECCAK256 SLOAD LT ISZERO PUSH2 0x152D JUMPI PUSH1 0x40 MLOAD PUSH32 0x8C379A000000000000000000000000000000000000000000000000000000000 DUP2 MSTORE PUSH1 0x4 ADD PUSH2 0x1524 SWAP1 PUSH2 0x357F JUMP JUMPDEST PUSH1 0x40 MLOAD DUP1 SWAP2 SUB SWAP1 REVERT JUMPDEST PUSH2 0x157D DUP4 PUSH1 0x9 PUSH0 DUP8 PUSH20 0xFFFFFFFFFFFFFFFFFFFFFFFFFFFFFFFFFFFFFFFF AND PUSH20 0xFFFFFFFFFFFFFFFFFFFFFFFFFFFFFFFFFFFFFFFF AND DUP2 MSTORE PUSH1 0x20 ADD SWAP1 DUP2 MSTORE PUSH1 0x20 ADD PUSH0 KECCAK256 SLOAD PUSH2 0x2E88 SWAP1 SWAP2 SWAP1 PUSH4 0xFFFFFFFF AND JUMP JUMPDEST PUSH1 0x9 PUSH0 DUP7 PUSH20 0xFFFFFFFFFFFFFFFFFFFFFFFFFFFFFFFFFFFFFFFF AND PUSH20 0xFFFFFFFFFFFFFFFFFFFFFFFFFFFFFFFFFFFFFFFF AND DUP2 MSTORE PUSH1 0x20 ADD SWAP1 DUP2 MSTORE PUSH1 0x20 ADD PUSH0 KECCAK256 DUP2 SWAP1 SSTORE POP PUSH2 0x1649 DUP4 PUSH1 0x4 PUSH0 DUP8 PUSH20 0xFFFFFFFFFFFFFFFFFFFFFFFFFFFFFFFFFFFFFFFF AND PUSH20 0xFFFFFFFFFFFFFFFFFFFFFFFFFFFFFFFFFFFFFFFF AND DUP2 MSTORE PUSH1 0x20 ADD SWAP1 DUP2 MSTORE PUSH1 0x20 ADD PUSH0 KECCAK256 PUSH0 CALLER PUSH20 0xFFFFFFFFFFFFFFFFFFFFFFFFFFFFFFFFFFFFFFFF AND PUSH20 0xFFFFFFFFFFFFFFFFFFFFFFFFFFFFFFFFFFFFFFFF AND DUP2 MSTORE PUSH1 0x20 ADD SWAP1 DUP2 MSTORE PUSH1 0x20 ADD PUSH0 KECCAK256 SLOAD PUSH2 0x2E88 SWAP1 SWAP2 SWAP1 PUSH4 0xFFFFFFFF AND JUMP JUMPDEST PUSH1 0x4 PUSH0 DUP7 PUSH20 0xFFFFFFFFFFFFFFFFFFFFFFFFFFFFFFFFFFFFFFFF AND PUSH20 0xFFFFFFFFFFFFFFFFFFFFFFFFFFFFFFFFFFFFFFFF AND DUP2 MSTORE PUSH1 0x20 ADD SWAP1 DUP2 MSTORE PUSH1 0x20 ADD PUSH0 KECCAK256 PUSH0 CALLER PUSH20 0xFFFFFFFFFFFFFFFFFFFFFFFFFFFFFFFFFFFFFFFF AND PUSH20 0xFFFFFFFFFFFFFFFFFFFFFFFFFFFFFFFFFFFFFFFF AND DUP2 MSTORE PUSH1 0x20 ADD SWAP1 DUP2 MSTORE PUSH1 0x20 ADD PUSH0 KECCAK256 DUP2 SWAP1 SSTORE POP DUP3 DUP5 PUSH20 0xFFFFFFFFFFFFFFFFFFFFFFFFFFFFFFFFFFFFFFFF AND CALLER PUSH20 0xFFFFFFFFFFFFFFFFFFFFFFFFFFFFFFFFFFFFFFFF AND PUSH32 0xD1C19FBCD4551A5EDFB66D43D2E337C04837AFDA3482B42BDF569A8FCCDAE5FB PUSH1 0x40 MLOAD PUSH1 0x40 MLOAD DUP1 SWAP2 SUB SWAP1 LOG4 PUSH0 DUP5 PUSH20 0xFFFFFFFFFFFFFFFFFFFFFFFFFFFFFFFFFFFFFFFF AND PUSH4 0xA9059CBB CALLER DUP7 PUSH1 0x40 MLOAD DUP4 PUSH4 0xFFFFFFFF AND PUSH1 0xE0 SHL DUP2 MSTORE PUSH1 0x4 ADD PUSH2 0x175C SWAP3 SWAP2 SWAP1 PUSH2 0x35AC JUMP JUMPDEST PUSH1 0x20 PUSH1 0x40 MLOAD DUP1 DUP4 SUB DUP2 PUSH0 DUP8 GAS CALL ISZERO DUP1 ISZERO PUSH2 0x1778 JUMPI RETURNDATASIZE PUSH0 DUP1 RETURNDATACOPY RETURNDATASIZE PUSH0 REVERT JUMPDEST POP POP POP POP PUSH1 0x40 MLOAD RETURNDATASIZE PUSH1 0x1F NOT PUSH1 0x1F DUP3 ADD AND DUP3 ADD DUP1 PUSH1 0x40 MSTORE POP DUP2 ADD SWAP1 PUSH2 0x179C SWAP2 SWAP1 PUSH2 0x35FD JUMP JUMPDEST SWAP1 POP DUP1 PUSH2 0x17DE JUMPI PUSH1 0x40 MLOAD PUSH32 0x8C379A000000000000000000000000000000000000000000000000000000000 DUP2 MSTORE PUSH1 0x4 ADD PUSH2 0x17D5 SWAP1 PUSH2 0x3672 JUMP JUMPDEST PUSH1 0x40 MLOAD DUP1 SWAP2 SUB SWAP1 REVERT JUMPDEST POP POP POP PUSH2 0x17E9 PUSH2 0x2F29 JUMP JUMPDEST POP POP JUMP JUMPDEST PUSH1 0xA PUSH0 CALLER PUSH20 0xFFFFFFFFFFFFFFFFFFFFFFFFFFFFFFFFFFFFFFFF AND PUSH20 0xFFFFFFFFFFFFFFFFFFFFFFFFFFFFFFFFFFFFFFFF AND DUP2 MSTORE PUSH1 0x20 ADD SWAP1 DUP2 MSTORE PUSH1 0x20 ADD PUSH0 KECCAK256 PUSH0 SWAP1 SLOAD SWAP1 PUSH2 0x100 EXP SWAP1 DIV PUSH1 0xFF AND DUP1 PUSH2 0x188E JUMPI POP CALLER PUSH20 0xFFFFFFFFFFFFFFFFFFFFFFFFFFFFFFFFFFFFFFFF AND PUSH1 0x1 PUSH0 SWAP1 SLOAD SWAP1 PUSH2 0x100 EXP SWAP1 DIV PUSH20 0xFFFFFFFFFFFFFFFFFFFFFFFFFFFFFFFFFFFFFFFF AND PUSH20 0xFFFFFFFFFFFFFFFFFFFFFFFFFFFFFFFFFFFFFFFF AND EQ JUMPDEST PUSH2 0x18CD JUMPI PUSH1 0x40 MLOAD PUSH32 0x8C379A000000000000000000000000000000000000000000000000000000000 DUP2 MSTORE PUSH1 0x4 ADD PUSH2 0x18C4 SWAP1 PUSH2 0x33DF JUMP JUMPDEST PUSH1 0x40 MLOAD DUP1 SWAP2 SUB SWAP1 REVERT JUMPDEST DUP1 PUSH1 0x2 DUP2 SWAP1 SSTORE POP PUSH32 0x41D466EBD06FB97E7786086AC8B69B7EB7DA798592036251291D34E9791CDE01 DUP2 PUSH1 0x40 MLOAD PUSH2 0x1903 SWAP2 SWAP1 PUSH2 0x2FEA JUMP JUMPDEST PUSH1 0x40 MLOAD DUP1 SWAP2 SUB SWAP1 LOG1 POP JUMP JUMPDEST PUSH1 0xA PUSH0 CALLER PUSH20 0xFFFFFFFFFFFFFFFFFFFFFFFFFFFFFFFFFFFFFFFF AND PUSH20 0xFFFFFFFFFFFFFFFFFFFFFFFFFFFFFFFFFFFFFFFF AND DUP2 MSTORE PUSH1 0x20 ADD SWAP1 DUP2 MSTORE PUSH1 0x20 ADD PUSH0 KECCAK256 PUSH0 SWAP1 SLOAD SWAP1 PUSH2 0x100 EXP SWAP1 DIV PUSH1 0xFF AND DUP1 PUSH2 0x19AF JUMPI POP CALLER PUSH20 0xFFFFFFFFFFFFFFFFFFFFFFFFFFFFFFFFFFFFFFFF AND PUSH1 0x1 PUSH0 SWAP1 SLOAD SWAP1 PUSH2 0x100 EXP SWAP1 DIV PUSH20 0xFFFFFFFFFFFFFFFFFFFFFFFFFFFFFFFFFFFFFFFF AND PUSH20 0xFFFFFFFFFFFFFFFFFFFFFFFFFFFFFFFFFFFFFFFF AND EQ JUMPDEST PUSH2 0x19EE JUMPI PUSH1 0x40 MLOAD PUSH32 0x8C379A000000000000000000000000000000000000000000000000000000000 DUP2 MSTORE PUSH1 0x4 ADD PUSH2 0x19E5 SWAP1 PUSH2 0x33DF JUMP JUMPDEST PUSH1 0x40 MLOAD DUP1 SWAP2 SUB SWAP1 REVERT JUMPDEST PUSH1 0x3 PUSH0 DUP5 PUSH20 0xFFFFFFFFFFFFFFFFFFFFFFFFFFFFFFFFFFFFFFFF AND PUSH20 0xFFFFFFFFFFFFFFFFFFFFFFFFFFFFFFFFFFFFFFFF AND DUP2 MSTORE PUSH1 0x20 ADD SWAP1 DUP2 MSTORE PUSH1 0x20 ADD PUSH0 KECCAK256 PUSH1 0x1 ADD PUSH0 SWAP1 SLOAD SWAP1 PUSH2 0x100 EXP SWAP1 DIV PUSH1 0xFF AND PUSH2 0x1A7A JUMPI PUSH1 0x40 MLOAD PUSH32 0x8C379A000000000000000000000000000000000000000000000000000000000 DUP2 MSTORE PUSH1 0x4 ADD PUSH2 0x1A71 SWAP1 PUSH2 0x3377 JUMP JUMPDEST PUSH1 0x40 MLOAD DUP1 SWAP2 SUB SWAP1 REVERT JUMPDEST PUSH0 DUP2 GT PUSH2 0x1ABC JUMPI PUSH1 0x40 MLOAD PUSH32 0x8C379A000000000000000000000000000000000000000000000000000000000 DUP2 MSTORE PUSH1 0x4 ADD PUSH2 0x1AB3 SWAP1 PUSH2 0x3517 JUMP JUMPDEST PUSH1 0x40 MLOAD DUP1 SWAP2 SUB SWAP1 REVERT JUMPDEST PUSH0 DUP4 PUSH20 0xFFFFFFFFFFFFFFFFFFFFFFFFFFFFFFFFFFFFFFFF AND PUSH4 0xA9059CBB DUP5 DUP5 PUSH1 0x40 MLOAD DUP4 PUSH4 0xFFFFFFFF AND PUSH1 0xE0 SHL DUP2 MSTORE PUSH1 0x4 ADD PUSH2 0x1AF8 SWAP3 SWAP2 SWAP1 PUSH2 0x35AC JUMP JUMPDEST PUSH1 0x20 PUSH1 0x40 MLOAD DUP1 DUP4 SUB DUP2 PUSH0 DUP8 GAS CALL ISZERO DUP1 ISZERO PUSH2 0x1B14 JUMPI RETURNDATASIZE PUSH0 DUP1 RETURNDATACOPY RETURNDATASIZE PUSH0 REVERT JUMPDEST POP POP POP POP PUSH1 0x40 MLOAD RETURNDATASIZE PUSH1 0x1F NOT PUSH1 0x1F DUP3 ADD AND DUP3 ADD DUP1 PUSH1 0x40 MSTORE POP DUP2 ADD SWAP1 PUSH2 0x1B38 SWAP2 SWAP1 PUSH2 0x35FD JUMP JUMPDEST SWAP1 POP DUP1 PUSH2 0x1B7A JUMPI PUSH1 0x40 MLOAD PUSH32 0x8C379A000000000000000000000000000000000000000000000000000000000 DUP2 MSTORE PUSH1 0x4 ADD PUSH2 0x1B71 SWAP1 PUSH2 0x3672 JUMP JUMPDEST PUSH1 0x40 MLOAD DUP1 SWAP2 SUB SWAP1 REVERT JUMPDEST DUP3 PUSH20 0xFFFFFFFFFFFFFFFFFFFFFFFFFFFFFFFFFFFFFFFF AND DUP5 PUSH20 0xFFFFFFFFFFFFFFFFFFFFFFFFFFFFFFFFFFFFFFFF AND PUSH32 0x1B89874203FF7F0BBA87C969ADA3F32FDA22ED38A6706D35199D21280C7811B1 DUP5 PUSH1 0x40 MLOAD PUSH2 0x1BD7 SWAP2 SWAP1 PUSH2 0x2FEA JUMP JUMPDEST PUSH1 0x40 MLOAD DUP1 SWAP2 SUB SWAP1 LOG3 POP POP POP POP JUMP JUMPDEST PUSH1 0xA PUSH0 CALLER PUSH20 0xFFFFFFFFFFFFFFFFFFFFFFFFFFFFFFFFFFFFFFFF AND PUSH20 0xFFFFFFFFFFFFFFFFFFFFFFFFFFFFFFFFFFFFFFFF AND DUP2 MSTORE PUSH1 0x20 ADD SWAP1 DUP2 MSTORE PUSH1 0x20 ADD PUSH0 KECCAK256 PUSH0 SWAP1 SLOAD SWAP1 PUSH2 0x100 EXP SWAP1 DIV PUSH1 0xFF AND DUP1 PUSH2 0x1C86 JUMPI POP CALLER PUSH20 0xFFFFFFFFFFFFFFFFFFFFFFFFFFFFFFFFFFFFFFFF AND PUSH1 0x1 PUSH0 SWAP1 SLOAD SWAP1 PUSH2 0x100 EXP SWAP1 DIV PUSH20 0xFFFFFFFFFFFFFFFFFFFFFFFFFFFFFFFFFFFFFFFF AND PUSH20 0xFFFFFFFFFFFFFFFFFFFFFFFFFFFFFFFFFFFFFFFF AND EQ JUMPDEST PUSH2 0x1CC5 JUMPI PUSH1 0x40 MLOAD PUSH32 0x8C379A000000000000000000000000000000000000000000000000000000000 DUP2 MSTORE PUSH1 0x4 ADD PUSH2 0x1CBC SWAP1 PUSH2 0x33DF JUMP JUMPDEST PUSH1 0x40 MLOAD DUP1 SWAP2 SUB SWAP1 REVERT JUMPDEST PUSH1 0xA PUSH0 DUP3 PUSH20 0xFFFFFFFFFFFFFFFFFFFFFFFFFFFFFFFFFFFFFFFF AND PUSH20 0xFFFFFFFFFFFFFFFFFFFFFFFFFFFFFFFFFFFFFFFF AND DUP2 MSTORE PUSH1 0x20 ADD SWAP1 DUP2 MSTORE PUSH1 0x20 ADD PUSH0 KECCAK256 PUSH0 SWAP1 SLOAD SWAP1 PUSH2 0x100 EXP SWAP1 DIV PUSH1 0xFF AND PUSH2 0x1D4E JUMPI PUSH1 0x40 MLOAD PUSH32 0x8C379A000000000000000000000000000000000000000000000000000000000 DUP2 MSTORE PUSH1 0x4 ADD PUSH2 0x1D45 SWAP1 PUSH2 0x36DA JUMP JUMPDEST PUSH1 0x40 MLOAD DUP1 SWAP2 SUB SWAP1 REVERT JUMPDEST PUSH0 PUSH1 0xA PUSH0 DUP4 PUSH20 0xFFFFFFFFFFFFFFFFFFFFFFFFFFFFFFFFFFFFFFFF AND PUSH20 0xFFFFFFFFFFFFFFFFFFFFFFFFFFFFFFFFFFFFFFFF AND DUP2 MSTORE PUSH1 0x20 ADD SWAP1 DUP2 MSTORE PUSH1 0x20 ADD PUSH0 KECCAK256 PUSH0 PUSH2 0x100 EXP DUP2 SLOAD DUP2 PUSH1 0xFF MUL NOT AND SWAP1 DUP4 ISZERO ISZERO MUL OR SWAP1 SSTORE POP DUP1 PUSH20 0xFFFFFFFFFFFFFFFFFFFFFFFFFFFFFFFFFFFFFFFF AND PUSH32 0xEF69F7D97228658C92417BE1B16B19058315DE71FECB435D07B7D23728B6BD31 PUSH1 0x40 MLOAD PUSH1 0x40 MLOAD DUP1 SWAP2 SUB SWAP1 LOG2 POP JUMP JUMPDEST PUSH2 0x1DF0 PUSH2 0x2EDC JUMP JUMPDEST DUP2 CALLER PUSH1 0x3 PUSH0 DUP4 PUSH20 0xFFFFFFFFFFFFFFFFFFFFFFFFFFFFFFFFFFFFFFFF AND PUSH20 0xFFFFFFFFFFFFFFFFFFFFFFFFFFFFFFFFFFFFFFFF AND DUP2 MSTORE PUSH1 0x20 ADD SWAP1 DUP2 MSTORE PUSH1 0x20 ADD PUSH0 KECCAK256 PUSH1 0x1 ADD PUSH0 SWAP1 SLOAD SWAP1 PUSH2 0x100 EXP SWAP1 DIV PUSH1 0xFF AND PUSH2 0x1E7E JUMPI PUSH1 0x40 MLOAD PUSH32 0x8C379A000000000000000000000000000000000000000000000000000000000 DUP2 MSTORE PUSH1 0x4 ADD PUSH2 0x1E75 SWAP1 PUSH2 0x3377 JUMP JUMPDEST PUSH1 0x40 MLOAD DUP1 SWAP2 SUB SWAP1 REVERT JUMPDEST PUSH2 0x1E87 DUP3 PUSH2 0x2C44 JUMP JUMPDEST PUSH1 0x7 PUSH0 DUP5 PUSH20 0xFFFFFFFFFFFFFFFFFFFFFFFFFFFFFFFFFFFFFFFF AND PUSH20 0xFFFFFFFFFFFFFFFFFFFFFFFFFFFFFFFFFFFFFFFF AND DUP2 MSTORE PUSH1 0x20 ADD SWAP1 DUP2 MSTORE PUSH1 0x20 ADD PUSH0 KECCAK256 DUP2 SWAP1 SSTORE POP TIMESTAMP PUSH1 0x8 PUSH0 DUP5 PUSH20 0xFFFFFFFFFFFFFFFFFFFFFFFFFFFFFFFFFFFFFFFF AND PUSH20 0xFFFFFFFFFFFFFFFFFFFFFFFFFFFFFFFFFFFFFFFF AND DUP2 MSTORE PUSH1 0x20 ADD SWAP1 DUP2 MSTORE PUSH1 0x20 ADD PUSH0 KECCAK256 DUP2 SWAP1 SSTORE POP PUSH2 0x1F14 DUP3 DUP3 PUSH2 0x4C8 JUMP JUMPDEST PUSH1 0x5 PUSH0 DUP5 PUSH20 0xFFFFFFFFFFFFFFFFFFFFFFFFFFFFFFFFFFFFFFFF AND PUSH20 0xFFFFFFFFFFFFFFFFFFFFFFFFFFFFFFFFFFFFFFFF AND DUP2 MSTORE PUSH1 0x20 ADD SWAP1 DUP2 MSTORE PUSH1 0x20 ADD PUSH0 KECCAK256 PUSH0 DUP4 PUSH20 0xFFFFFFFFFFFFFFFFFFFFFFFFFFFFFFFFFFFFFFFF AND PUSH20 0xFFFFFFFFFFFFFFFFFFFFFFFFFFFFFFFFFFFFFFFF AND DUP2 MSTORE PUSH1 0x20 ADD SWAP1 DUP2 MSTORE PUSH1 0x20 ADD PUSH0 KECCAK256 DUP2 SWAP1 SSTORE POP PUSH1 0x7 PUSH0 DUP4 PUSH20 0xFFFFFFFFFFFFFFFFFFFFFFFFFFFFFFFFFFFFFFFF AND PUSH20 0xFFFFFFFFFFFFFFFFFFFFFFFFFFFFFFFFFFFFFFFF AND DUP2 MSTORE PUSH1 0x20 ADD SWAP1 DUP2 MSTORE PUSH1 0x20 ADD PUSH0 KECCAK256 SLOAD PUSH1 0x6 PUSH0 DUP5 PUSH20 0xFFFFFFFFFFFFFFFFFFFFFFFFFFFFFFFFFFFFFFFF AND PUSH20 0xFFFFFFFFFFFFFFFFFFFFFFFFFFFFFFFFFFFFFFFF AND DUP2 MSTORE PUSH1 0x20 ADD SWAP1 DUP2 MSTORE PUSH1 0x20 ADD PUSH0 KECCAK256 PUSH0 DUP4 PUSH20 0xFFFFFFFFFFFFFFFFFFFFFFFFFFFFFFFFFFFFFFFF AND PUSH20 0xFFFFFFFFFFFFFFFFFFFFFFFFFFFFFFFFFFFFFFFF AND DUP2 MSTORE PUSH1 0x20 ADD SWAP1 DUP2 MSTORE PUSH1 0x20 ADD PUSH0 KECCAK256 DUP2 SWAP1 SSTORE POP PUSH1 0x3 PUSH0 DUP6 PUSH20 0xFFFFFFFFFFFFFFFFFFFFFFFFFFFFFFFFFFFFFFFF AND PUSH20 0xFFFFFFFFFFFFFFFFFFFFFFFFFFFFFFFFFFFFFFFF AND DUP2 MSTORE PUSH1 0x20 ADD SWAP1 DUP2 MSTORE PUSH1 0x20 ADD PUSH0 KECCAK256 PUSH1 0x1 ADD PUSH0 SWAP1 SLOAD SWAP1 PUSH2 0x100 EXP SWAP1 DIV PUSH1 0xFF AND PUSH2 0x20D6 JUMPI PUSH1 0x40 MLOAD PUSH32 0x8C379A000000000000000000000000000000000000000000000000000000000 DUP2 MSTORE PUSH1 0x4 ADD PUSH2 0x20CD SWAP1 PUSH2 0x3377 JUMP JUMPDEST PUSH1 0x40 MLOAD DUP1 SWAP2 SUB SWAP1 REVERT JUMPDEST PUSH0 DUP4 GT PUSH2 0x2118 JUMPI PUSH1 0x40 MLOAD PUSH32 0x8C379A000000000000000000000000000000000000000000000000000000000 DUP2 MSTORE PUSH1 0x4 ADD PUSH2 0x210F SWAP1 PUSH2 0x3517 JUMP JUMPDEST PUSH1 0x40 MLOAD DUP1 SWAP2 SUB SWAP1 REVERT JUMPDEST PUSH2 0x2168 DUP4 PUSH1 0x9 PUSH0 DUP8 PUSH20 0xFFFFFFFFFFFFFFFFFFFFFFFFFFFFFFFFFFFFFFFF AND PUSH20 0xFFFFFFFFFFFFFFFFFFFFFFFFFFFFFFFFFFFFFFFF AND DUP2 MSTORE PUSH1 0x20 ADD SWAP1 DUP2 MSTORE PUSH1 0x20 ADD PUSH0 KECCAK256 SLOAD PUSH2 0x2EC7 SWAP1 SWAP2 SWAP1 PUSH4 0xFFFFFFFF AND JUMP JUMPDEST PUSH1 0x9 PUSH0 DUP7 PUSH20 0xFFFFFFFFFFFFFFFFFFFFFFFFFFFFFFFFFFFFFFFF AND PUSH20 0xFFFFFFFFFFFFFFFFFFFFFFFFFFFFFFFFFFFFFFFF AND DUP2 MSTORE PUSH1 0x20 ADD SWAP1 DUP2 MSTORE PUSH1 0x20 ADD PUSH0 KECCAK256 DUP2 SWAP1 SSTORE POP PUSH2 0x2234 DUP4 PUSH1 0x4 PUSH0 DUP8 PUSH20 0xFFFFFFFFFFFFFFFFFFFFFFFFFFFFFFFFFFFFFFFF AND PUSH20 0xFFFFFFFFFFFFFFFFFFFFFFFFFFFFFFFFFFFFFFFF AND DUP2 MSTORE PUSH1 0x20 ADD SWAP1 DUP2 MSTORE PUSH1 0x20 ADD PUSH0 KECCAK256 PUSH0 CALLER PUSH20 0xFFFFFFFFFFFFFFFFFFFFFFFFFFFFFFFFFFFFFFFF AND PUSH20 0xFFFFFFFFFFFFFFFFFFFFFFFFFFFFFFFFFFFFFFFF AND DUP2 MSTORE PUSH1 0x20 ADD SWAP1 DUP2 MSTORE PUSH1 0x20 ADD PUSH0 KECCAK256 SLOAD PUSH2 0x2EC7 SWAP1 SWAP2 SWAP1 PUSH4 0xFFFFFFFF AND JUMP JUMPDEST PUSH1 0x4 PUSH0 DUP7 PUSH20 0xFFFFFFFFFFFFFFFFFFFFFFFFFFFFFFFFFFFFFFFF AND PUSH20 0xFFFFFFFFFFFFFFFFFFFFFFFFFFFFFFFFFFFFFFFF AND DUP2 MSTORE PUSH1 0x20 ADD SWAP1 DUP2 MSTORE PUSH1 0x20 ADD PUSH0 KECCAK256 PUSH0 CALLER PUSH20 0xFFFFFFFFFFFFFFFFFFFFFFFFFFFFFFFFFFFFFFFF AND PUSH20 0xFFFFFFFFFFFFFFFFFFFFFFFFFFFFFFFFFFFFFFFF AND DUP2 MSTORE PUSH1 0x20 ADD SWAP1 DUP2 MSTORE PUSH1 0x20 ADD PUSH0 KECCAK256 DUP2 SWAP1 SSTORE POP DUP3 DUP5 PUSH20 0xFFFFFFFFFFFFFFFFFFFFFFFFFFFFFFFFFFFFFFFF AND CALLER PUSH20 0xFFFFFFFFFFFFFFFFFFFFFFFFFFFFFFFFFFFFFFFF AND PUSH32 0x5DAC0C1B1112564A045BA943C9D50270893E8E826C49BE8E7073ADC713AB7BD7 PUSH1 0x40 MLOAD PUSH1 0x40 MLOAD DUP1 SWAP2 SUB SWAP1 LOG4 PUSH0 DUP5 PUSH20 0xFFFFFFFFFFFFFFFFFFFFFFFFFFFFFFFFFFFFFFFF AND PUSH4 0x23B872DD CALLER ADDRESS DUP8 PUSH1 0x40 MLOAD DUP5 PUSH4 0xFFFFFFFF AND PUSH1 0xE0 SHL DUP2 MSTORE PUSH1 0x4 ADD PUSH2 0x2349 SWAP4 SWAP3 SWAP2 SWAP1 PUSH2 0x36F8 JUMP JUMPDEST PUSH1 0x20 PUSH1 0x40 MLOAD DUP1 DUP4 SUB DUP2 PUSH0 DUP8 GAS CALL ISZERO DUP1 ISZERO PUSH2 0x2365 JUMPI RETURNDATASIZE PUSH0 DUP1 RETURNDATACOPY RETURNDATASIZE PUSH0 REVERT JUMPDEST POP POP POP POP PUSH1 0x40 MLOAD RETURNDATASIZE PUSH1 0x1F NOT PUSH1 0x1F DUP3 ADD AND DUP3 ADD DUP1 PUSH1 0x40 MSTORE POP DUP2 ADD SWAP1 PUSH2 0x2389 SWAP2 SWAP1 PUSH2 0x35FD JUMP JUMPDEST SWAP1 POP DUP1 PUSH2 0x23CB JUMPI PUSH1 0x40 MLOAD PUSH32 0x8C379A000000000000000000000000000000000000000000000000000000000 DUP2 MSTORE PUSH1 0x4 ADD PUSH2 0x23C2 SWAP1 PUSH2 0x3672 JUMP JUMPDEST PUSH1 0x40 MLOAD DUP1 SWAP2 SUB SWAP1 REVERT JUMPDEST POP POP POP PUSH2 0x23D6 PUSH2 0x2F29 JUMP JUMPDEST POP POP JUMP JUMPDEST CALLER PUSH20 0xFFFFFFFFFFFFFFFFFFFFFFFFFFFFFFFFFFFFFFFF AND PUSH1 0x1 PUSH0 SWAP1 SLOAD SWAP1 PUSH2 0x100 EXP SWAP1 DIV PUSH20 0xFFFFFFFFFFFFFFFFFFFFFFFFFFFFFFFFFFFFFFFF AND PUSH20 0xFFFFFFFFFFFFFFFFFFFFFFFFFFFFFFFFFFFFFFFF AND EQ PUSH2 0x2469 JUMPI PUSH1 0x40 MLOAD PUSH32 0x8C379A000000000000000000000000000000000000000000000000000000000 DUP2 MSTORE PUSH1 0x4 ADD PUSH2 0x2460 SWAP1 PUSH2 0x3777 JUMP JUMPDEST PUSH1 0x40 MLOAD DUP1 SWAP2 SUB SWAP1 REVERT JUMPDEST PUSH1 0x3 PUSH0 DUP5 PUSH20 0xFFFFFFFFFFFFFFFFFFFFFFFFFFFFFFFFFFFFFFFF AND PUSH20 0xFFFFFFFFFFFFFFFFFFFFFFFFFFFFFFFFFFFFFFFF AND DUP2 MSTORE PUSH1 0x20 ADD SWAP1 DUP2 MSTORE PUSH1 0x20 ADD PUSH0 KECCAK256 PUSH1 0x1 ADD PUSH0 SWAP1 SLOAD SWAP1 PUSH2 0x100 EXP SWAP1 DIV PUSH1 0xFF AND ISZERO PUSH2 0x24F6 JUMPI PUSH1 0x40 MLOAD PUSH32 0x8C379A000000000000000000000000000000000000000000000000000000000 DUP2 MSTORE PUSH1 0x4 ADD PUSH2 0x24ED SWAP1 PUSH2 0x37DF JUMP JUMPDEST PUSH1 0x40 MLOAD DUP1 SWAP2 SUB SWAP1 REVERT JUMPDEST PUSH1 0x40 MLOAD DUP1 PUSH1 0x40 ADD PUSH1 0x40 MSTORE DUP1 DUP4 DUP4 DUP1 DUP1 PUSH1 0x1F ADD PUSH1 0x20 DUP1 SWAP2 DIV MUL PUSH1 0x20 ADD PUSH1 0x40 MLOAD SWAP1 DUP2 ADD PUSH1 0x40 MSTORE DUP1 SWAP4 SWAP3 SWAP2 SWAP1 DUP2 DUP2 MSTORE PUSH1 0x20 ADD DUP4 DUP4 DUP1 DUP3 DUP5 CALLDATACOPY PUSH0 DUP2 DUP5 ADD MSTORE PUSH1 0x1F NOT PUSH1 0x1F DUP3 ADD AND SWAP1 POP DUP1 DUP4 ADD SWAP3 POP POP POP POP POP POP POP DUP2 MSTORE PUSH1 0x20 ADD PUSH1 0x1 ISZERO ISZERO DUP2 MSTORE POP PUSH1 0x3 PUSH0 DUP6 PUSH20 0xFFFFFFFFFFFFFFFFFFFFFFFFFFFFFFFFFFFFFFFF AND PUSH20 0xFFFFFFFFFFFFFFFFFFFFFFFFFFFFFFFFFFFFFFFF AND DUP2 MSTORE PUSH1 0x20 ADD SWAP1 DUP2 MSTORE PUSH1 0x20 ADD PUSH0 KECCAK256 PUSH0 DUP3 ADD MLOAD DUP2 PUSH0 ADD SWAP1 DUP2 PUSH2 0x25A1 SWAP2 SWAP1 PUSH2 0x3A24 JUMP JUMPDEST POP PUSH1 0x20 DUP3 ADD MLOAD DUP2 PUSH1 0x1 ADD PUSH0 PUSH2 0x100 EXP DUP2 SLOAD DUP2 PUSH1 0xFF MUL NOT AND SWAP1 DUP4 ISZERO ISZERO MUL OR SWAP1 SSTORE POP SWAP1 POP POP DUP3 PUSH20 0xFFFFFFFFFFFFFFFFFFFFFFFFFFFFFFFFFFFFFFFF AND PUSH32 0x784C8F4DBF0FFEDD6E72C76501C545A70F8B203B30A26CE542BF92BA87C248A4 PUSH1 0x40 MLOAD PUSH1 0x40 MLOAD DUP1 SWAP2 SUB SWAP1 LOG2 POP POP POP JUMP JUMPDEST PUSH1 0x9 PUSH1 0x20 MSTORE DUP1 PUSH0 MSTORE PUSH1 0x40 PUSH0 KECCAK256 PUSH0 SWAP2 POP SWAP1 POP SLOAD DUP2 JUMP JUMPDEST PUSH2 0x2629 PUSH2 0x2EDC JUMP JUMPDEST DUP1 CALLER PUSH1 0x3 PUSH0 DUP4 PUSH20 0xFFFFFFFFFFFFFFFFFFFFFFFFFFFFFFFFFFFFFFFF AND PUSH20 0xFFFFFFFFFFFFFFFFFFFFFFFFFFFFFFFFFFFFFFFF AND DUP2 MSTORE PUSH1 0x20 ADD SWAP1 DUP2 MSTORE PUSH1 0x20 ADD PUSH0 KECCAK256 PUSH1 0x1 ADD PUSH0 SWAP1 SLOAD SWAP1 PUSH2 0x100 EXP SWAP1 DIV PUSH1 0xFF AND PUSH2 0x26B7 JUMPI PUSH1 0x40 MLOAD PUSH32 0x8C379A000000000000000000000000000000000000000000000000000000000 DUP2 MSTORE PUSH1 0x4 ADD PUSH2 0x26AE SWAP1 PUSH2 0x3377 JUMP JUMPDEST PUSH1 0x40 MLOAD DUP1 SWAP2 SUB SWAP1 REVERT JUMPDEST PUSH2 0x26C0 DUP3 PUSH2 0x2C44 JUMP JUMPDEST PUSH1 0x7 PUSH0 DUP5 PUSH20 0xFFFFFFFFFFFFFFFFFFFFFFFFFFFFFFFFFFFFFFFF AND PUSH20 0xFFFFFFFFFFFFFFFFFFFFFFFFFFFFFFFFFFFFFFFF AND DUP2 MSTORE PUSH1 0x20 ADD SWAP1 DUP2 MSTORE PUSH1 0x20 ADD PUSH0 KECCAK256 DUP2 SWAP1 SSTORE POP TIMESTAMP PUSH1 0x8 PUSH0 DUP5 PUSH20 0xFFFFFFFFFFFFFFFFFFFFFFFFFFFFFFFFFFFFFFFF AND PUSH20 0xFFFFFFFFFFFFFFFFFFFFFFFFFFFFFFFFFFFFFFFF AND DUP2 MSTORE PUSH1 0x20 ADD SWAP1 DUP2 MSTORE PUSH1 0x20 ADD PUSH0 KECCAK256 DUP2 SWAP1 SSTORE POP PUSH2 0x274D DUP3 DUP3 PUSH2 0x4C8 JUMP JUMPDEST PUSH1 0x5 PUSH0 DUP5 PUSH20 0xFFFFFFFFFFFFFFFFFFFFFFFFFFFFFFFFFFFFFFFF AND PUSH20 0xFFFFFFFFFFFFFFFFFFFFFFFFFFFFFFFFFFFFFFFF AND DUP2 MSTORE PUSH1 0x20 ADD SWAP1 DUP2 MSTORE PUSH1 0x20 ADD PUSH0 KECCAK256 PUSH0 DUP4 PUSH20 0xFFFFFFFFFFFFFFFFFFFFFFFFFFFFFFFFFFFFFFFF AND PUSH20 0xFFFFFFFFFFFFFFFFFFFFFFFFFFFFFFFFFFFFFFFF AND DUP2 MSTORE PUSH1 0x20 ADD SWAP1 DUP2 MSTORE PUSH1 0x20 ADD PUSH0 KECCAK256 DUP2 SWAP1 SSTORE POP PUSH1 0x7 PUSH0 DUP4 PUSH20 0xFFFFFFFFFFFFFFFFFFFFFFFFFFFFFFFFFFFFFFFF AND PUSH20 0xFFFFFFFFFFFFFFFFFFFFFFFFFFFFFFFFFFFFFFFF AND DUP2 MSTORE PUSH1 0x20 ADD SWAP1 DUP2 MSTORE PUSH1 0x20 ADD PUSH0 KECCAK256 SLOAD PUSH1 0x6 PUSH0 DUP5 PUSH20 0xFFFFFFFFFFFFFFFFFFFFFFFFFFFFFFFFFFFFFFFF AND PUSH20 0xFFFFFFFFFFFFFFFFFFFFFFFFFFFFFFFFFFFFFFFF AND DUP2 MSTORE PUSH1 0x20 ADD SWAP1 DUP2 MSTORE PUSH1 0x20 ADD PUSH0 KECCAK256 PUSH0 DUP4 PUSH20 0xFFFFFFFFFFFFFFFFFFFFFFFFFFFFFFFFFFFFFFFF AND PUSH20 0xFFFFFFFFFFFFFFFFFFFFFFFFFFFFFFFFFFFFFFFF AND DUP2 MSTORE PUSH1 0x20 ADD SWAP1 DUP2 MSTORE PUSH1 0x20 ADD PUSH0 KECCAK256 DUP2 SWAP1 SSTORE POP PUSH1 0x3 PUSH0 DUP5 PUSH20 0xFFFFFFFFFFFFFFFFFFFFFFFFFFFFFFFFFFFFFFFF AND PUSH20 0xFFFFFFFFFFFFFFFFFFFFFFFFFFFFFFFFFFFFFFFF AND DUP2 MSTORE PUSH1 0x20 ADD SWAP1 DUP2 MSTORE PUSH1 0x20 ADD PUSH0 KECCAK256 PUSH1 0x1 ADD PUSH0 SWAP1 SLOAD SWAP1 PUSH2 0x100 EXP SWAP1 DIV PUSH1 0xFF AND PUSH2 0x290F JUMPI PUSH1 0x40 MLOAD PUSH32 0x8C379A000000000000000000000000000000000000000000000000000000000 DUP2 MSTORE PUSH1 0x4 ADD PUSH2 0x2906 SWAP1 PUSH2 0x3377 JUMP JUMPDEST PUSH1 0x40 MLOAD DUP1 SWAP2 SUB SWAP1 REVERT JUMPDEST PUSH0 PUSH1 0x5 PUSH0 DUP6 PUSH20 0xFFFFFFFFFFFFFFFFFFFFFFFFFFFFFFFFFFFFFFFF AND PUSH20 0xFFFFFFFFFFFFFFFFFFFFFFFFFFFFFFFFFFFFFFFF AND DUP2 MSTORE PUSH1 0x20 ADD SWAP1 DUP2 MSTORE PUSH1 0x20 ADD PUSH0 KECCAK256 PUSH0 CALLER PUSH20 0xFFFFFFFFFFFFFFFFFFFFFFFFFFFFFFFFFFFFFFFF AND PUSH20 0xFFFFFFFFFFFFFFFFFFFFFFFFFFFFFFFFFFFFFFFF AND DUP2 MSTORE PUSH1 0x20 ADD SWAP1 DUP2 MSTORE PUSH1 0x20 ADD PUSH0 KECCAK256 SLOAD SWAP1 POP PUSH0 DUP2 GT PUSH2 0x29CD JUMPI PUSH1 0x40 MLOAD PUSH32 0x8C379A000000000000000000000000000000000000000000000000000000000 DUP2 MSTORE PUSH1 0x4 ADD PUSH2 0x29C4 SWAP1 PUSH2 0x3B3D JUMP JUMPDEST PUSH1 0x40 MLOAD DUP1 SWAP2 SUB SWAP1 REVERT JUMPDEST PUSH0 PUSH1 0x5 PUSH0 DUP7 PUSH20 0xFFFFFFFFFFFFFFFFFFFFFFFFFFFFFFFFFFFFFFFF AND PUSH20 0xFFFFFFFFFFFFFFFFFFFFFFFFFFFFFFFFFFFFFFFF AND DUP2 MSTORE PUSH1 0x20 ADD SWAP1 DUP2 MSTORE PUSH1 0x20 ADD PUSH0 KECCAK256 PUSH0 CALLER PUSH20 0xFFFFFFFFFFFFFFFFFFFFFFFFFFFFFFFFFFFFFFFF AND PUSH20 0xFFFFFFFFFFFFFFFFFFFFFFFFFFFFFFFFFFFFFFFF AND DUP2 MSTORE PUSH1 0x20 ADD SWAP1 DUP2 MSTORE PUSH1 0x20 ADD PUSH0 KECCAK256 DUP2 SWAP1 SSTORE POP DUP1 DUP5 PUSH20 0xFFFFFFFFFFFFFFFFFFFFFFFFFFFFFFFFFFFFFFFF AND CALLER PUSH20 0xFFFFFFFFFFFFFFFFFFFFFFFFFFFFFFFFFFFFFFFF AND PUSH32 0x9310CCFCB8DE723F578A9E4282EA9F521F05AE40DC08F3068DFAD528A65EE3C7 PUSH1 0x40 MLOAD PUSH1 0x40 MLOAD DUP1 SWAP2 SUB SWAP1 LOG4 PUSH0 DUP5 PUSH20 0xFFFFFFFFFFFFFFFFFFFFFFFFFFFFFFFFFFFFFFFF AND PUSH4 0xA9059CBB CALLER DUP5 PUSH1 0x40 MLOAD DUP4 PUSH4 0xFFFFFFFF AND PUSH1 0xE0 SHL DUP2 MSTORE PUSH1 0x4 ADD PUSH2 0x2AE1 SWAP3 SWAP2 SWAP1 PUSH2 0x35AC JUMP JUMPDEST PUSH1 0x20 PUSH1 0x40 MLOAD DUP1 DUP4 SUB DUP2 PUSH0 DUP8 GAS CALL ISZERO DUP1 ISZERO PUSH2 0x2AFD JUMPI RETURNDATASIZE PUSH0 DUP1 RETURNDATACOPY RETURNDATASIZE PUSH0 REVERT JUMPDEST POP POP POP POP PUSH1 0x40 MLOAD RETURNDATASIZE PUSH1 0x1F NOT PUSH1 0x1F DUP3 ADD AND DUP3 ADD DUP1 PUSH1 0x40 MSTORE POP DUP2 ADD SWAP1 PUSH2 0x2B21 SWAP2 SWAP1 PUSH2 0x35FD JUMP JUMPDEST SWAP1 POP DUP1 PUSH2 0x2B63 JUMPI PUSH1 0x40 MLOAD PUSH32 0x8C379A000000000000000000000000000000000000000000000000000000000 DUP2 MSTORE PUSH1 0x4 ADD PUSH2 0x2B5A SWAP1 PUSH2 0x3672 JUMP JUMPDEST PUSH1 0x40 MLOAD DUP1 SWAP2 SUB SWAP1 REVERT JUMPDEST POP POP POP POP PUSH2 0x2B6F PUSH2 0x2F29 JUMP JUMPDEST POP JUMP JUMPDEST PUSH1 0x3 PUSH1 0x20 MSTORE DUP1 PUSH0 MSTORE PUSH1 0x40 PUSH0 KECCAK256 PUSH0 SWAP2 POP SWAP1 POP DUP1 PUSH0 ADD DUP1 SLOAD PUSH2 0x2B91 SWAP1 PUSH2 0x3857 JUMP JUMPDEST DUP1 PUSH1 0x1F ADD PUSH1 0x20 DUP1 SWAP2 DIV MUL PUSH1 0x20 ADD PUSH1 0x40 MLOAD SWAP1 DUP2 ADD PUSH1 0x40 MSTORE DUP1 SWAP3 SWAP2 SWAP1 DUP2 DUP2 MSTORE PUSH1 0x20 ADD DUP3 DUP1 SLOAD PUSH2 0x2BBD SWAP1 PUSH2 0x3857 JUMP JUMPDEST DUP1 ISZERO PUSH2 0x2C08 JUMPI DUP1 PUSH1 0x1F LT PUSH2 0x2BDF JUMPI PUSH2 0x100 DUP1 DUP4 SLOAD DIV MUL DUP4 MSTORE SWAP2 PUSH1 0x20 ADD SWAP2 PUSH2 0x2C08 JUMP JUMPDEST DUP3 ADD SWAP2 SWAP1 PUSH0 MSTORE PUSH1 0x20 PUSH0 KECCAK256 SWAP1 JUMPDEST DUP2 SLOAD DUP2 MSTORE SWAP1 PUSH1 0x1 ADD SWAP1 PUSH1 0x20 ADD DUP1 DUP4 GT PUSH2 0x2BEB JUMPI DUP3 SWAP1 SUB PUSH1 0x1F AND DUP3 ADD SWAP2 JUMPDEST POP POP POP POP POP SWAP1 DUP1 PUSH1 0x1 ADD PUSH0 SWAP1 SLOAD SWAP1 PUSH2 0x100 EXP SWAP1 DIV PUSH1 0xFF AND SWAP1 POP DUP3 JUMP JUMPDEST PUSH1 0x5 PUSH1 0x20 MSTORE DUP2 PUSH0 MSTORE PUSH1 0x40 PUSH0 KECCAK256 PUSH1 0x20 MSTORE DUP1 PUSH0 MSTORE PUSH1 0x40 PUSH0 KECCAK256 PUSH0 SWAP2 POP SWAP2 POP POP SLOAD DUP2 JUMP JUMPDEST PUSH0 PUSH1 0x3 PUSH0 DUP4 PUSH20 0xFFFFFFFFFFFFFFFFFFFFFFFFFFFFFFFFFFFFFFFF AND PUSH20 0xFFFFFFFFFFFFFFFFFFFFFFFFFFFFFFFFFFFFFFFF AND DUP2 MSTORE PUSH1 0x20 ADD SWAP1 DUP2 MSTORE PUSH1 0x20 ADD PUSH0 KECCAK256 PUSH1 0x1 ADD PUSH0 SWAP1 SLOAD SWAP1 PUSH2 0x100 EXP SWAP1 DIV PUSH1 0xFF AND PUSH2 0x2CD1 JUMPI PUSH1 0x40 MLOAD PUSH32 0x8C379A000000000000000000000000000000000000000000000000000000000 DUP2 MSTORE PUSH1 0x4 ADD PUSH2 0x2CC8 SWAP1 PUSH2 0x3377 JUMP JUMPDEST PUSH1 0x40 MLOAD DUP1 SWAP2 SUB SWAP1 REVERT JUMPDEST PUSH0 PUSH1 0x9 PUSH0 DUP5 PUSH20 0xFFFFFFFFFFFFFFFFFFFFFFFFFFFFFFFFFFFFFFFF AND PUSH20 0xFFFFFFFFFFFFFFFFFFFFFFFFFFFFFFFFFFFFFFFF AND DUP2 MSTORE PUSH1 0x20 ADD SWAP1 DUP2 MSTORE PUSH1 0x20 ADD PUSH0 KECCAK256 SLOAD SUB PUSH2 0x2D5A JUMPI PUSH1 0x7 PUSH0 DUP4 PUSH20 0xFFFFFFFFFFFFFFFFFFFFFFFFFFFFFFFFFFFFFFFF AND PUSH20 0xFFFFFFFFFFFFFFFFFFFFFFFFFFFFFFFFFFFFFFFF AND DUP2 MSTORE PUSH1 0x20 ADD SWAP1 DUP2 MSTORE PUSH1 0x20 ADD PUSH0 KECCAK256 SLOAD SWAP1 POP PUSH2 0x2E83 JUMP JUMPDEST PUSH0 PUSH2 0x2DAB PUSH1 0x8 PUSH0 DUP6 PUSH20 0xFFFFFFFFFFFFFFFFFFFFFFFFFFFFFFFFFFFFFFFF AND PUSH20 0xFFFFFFFFFFFFFFFFFFFFFFFFFFFFFFFFFFFFFFFF AND DUP2 MSTORE PUSH1 0x20 ADD SWAP1 DUP2 MSTORE PUSH1 0x20 ADD PUSH0 KECCAK256 SLOAD TIMESTAMP PUSH2 0x2E88 SWAP1 SWAP2 SWAP1 PUSH4 0xFFFFFFFF AND JUMP JUMPDEST SWAP1 POP PUSH0 PUSH2 0x2DC3 DUP3 PUSH1 0x2 SLOAD PUSH2 0x2E9D SWAP1 SWAP2 SWAP1 PUSH4 0xFFFFFFFF AND JUMP JUMPDEST SWAP1 POP PUSH2 0x2E7E PUSH2 0x2E32 PUSH1 0x9 PUSH0 DUP8 PUSH20 0xFFFFFFFFFFFFFFFFFFFFFFFFFFFFFFFFFFFFFFFF AND PUSH20 0xFFFFFFFFFFFFFFFFFFFFFFFFFFFFFFFFFFFFFFFF AND DUP2 MSTORE PUSH1 0x20 ADD SWAP1 DUP2 MSTORE PUSH1 0x20 ADD PUSH0 KECCAK256 SLOAD PUSH2 0x2E24 PUSH8 0xDE0B6B3A7640000 DUP6 PUSH2 0x2E9D SWAP1 SWAP2 SWAP1 PUSH4 0xFFFFFFFF AND JUMP JUMPDEST PUSH2 0x2EB2 SWAP1 SWAP2 SWAP1 PUSH4 0xFFFFFFFF AND JUMP JUMPDEST PUSH1 0x7 PUSH0 DUP8 PUSH20 0xFFFFFFFFFFFFFFFFFFFFFFFFFFFFFFFFFFFFFFFF AND PUSH20 0xFFFFFFFFFFFFFFFFFFFFFFFFFFFFFFFFFFFFFFFF AND DUP2 MSTORE PUSH1 0x20 ADD SWAP1 DUP2 MSTORE PUSH1 0x20 ADD PUSH0 KECCAK256 SLOAD PUSH2 0x2EC7 SWAP1 SWAP2 SWAP1 PUSH4 0xFFFFFFFF AND JUMP JUMPDEST SWAP3 POP POP POP JUMPDEST SWAP2 SWAP1 POP JUMP JUMPDEST PUSH0 DUP2 DUP4 PUSH2 0x2E95 SWAP2 SWAP1 PUSH2 0x3B88 JUMP JUMPDEST SWAP1 POP SWAP3 SWAP2 POP POP JUMP JUMPDEST PUSH0 DUP2 DUP4 PUSH2 0x2EAA SWAP2 SWAP1 PUSH2 0x3BBB JUMP JUMPDEST SWAP1 POP SWAP3 SWAP2 POP POP JUMP JUMPDEST PUSH0 DUP2 DUP4 PUSH2 0x2EBF SWAP2 SWAP1 PUSH2 0x3C29 JUMP JUMPDEST SWAP1 POP SWAP3 SWAP2 POP POP JUMP JUMPDEST PUSH0 DUP2 DUP4 PUSH2 0x2ED4 SWAP2 SWAP1 PUSH2 0x3C59 JUMP JUMPDEST SWAP1 POP SWAP3 SWAP2 POP POP JUMP JUMPDEST PUSH1 0x2 PUSH0 SLOAD SUB PUSH2 0x2F20 JUMPI PUSH1 0x40 MLOAD PUSH32 0x8C379A000000000000000000000000000000000000000000000000000000000 DUP2 MSTORE PUSH1 0x4 ADD PUSH2 0x2F17 SWAP1 PUSH2 0x3CD6 JUMP JUMPDEST PUSH1 0x40 MLOAD DUP1 SWAP2 SUB SWAP1 REVERT JUMPDEST PUSH1 0x2 PUSH0 DUP2 SWAP1 SSTORE POP JUMP JUMPDEST PUSH1 0x1 PUSH0 DUP2 SWAP1 SSTORE POP JUMP JUMPDEST PUSH0 DUP1 REVERT JUMPDEST PUSH0 DUP1 REVERT JUMPDEST PUSH0 PUSH20 0xFFFFFFFFFFFFFFFFFFFFFFFFFFFFFFFFFFFFFFFF DUP3 AND SWAP1 POP SWAP2 SWAP1 POP JUMP JUMPDEST PUSH0 PUSH2 0x2F63 DUP3 PUSH2 0x2F3A JUMP JUMPDEST SWAP1 POP SWAP2 SWAP1 POP JUMP JUMPDEST PUSH2 0x2F73 DUP2 PUSH2 0x2F59 JUMP JUMPDEST DUP2 EQ PUSH2 0x2F7D JUMPI PUSH0 DUP1 REVERT JUMPDEST POP JUMP JUMPDEST PUSH0 DUP2 CALLDATALOAD SWAP1 POP PUSH2 0x2F8E DUP2 PUSH2 0x2F6A JUMP JUMPDEST SWAP3 SWAP2 POP POP JUMP JUMPDEST PUSH0 DUP1 PUSH1 0x40 DUP4 DUP6 SUB SLT ISZERO PUSH2 0x2FAA JUMPI PUSH2 0x2FA9 PUSH2 0x2F32 JUMP JUMPDEST JUMPDEST PUSH0 PUSH2 0x2FB7 DUP6 DUP3 DUP7 ADD PUSH2 0x2F80 JUMP JUMPDEST SWAP3 POP POP PUSH1 0x20 PUSH2 0x2FC8 DUP6 DUP3 DUP7 ADD PUSH2 0x2F80 JUMP JUMPDEST SWAP2 POP POP SWAP3 POP SWAP3 SWAP1 POP JUMP JUMPDEST PUSH0 DUP2 SWAP1 POP SWAP2 SWAP1 POP JUMP JUMPDEST PUSH2 0x2FE4 DUP2 PUSH2 0x2FD2 JUMP JUMPDEST DUP3 MSTORE POP POP JUMP JUMPDEST PUSH0 PUSH1 0x20 DUP3 ADD SWAP1 POP PUSH2 0x2FFD PUSH0 DUP4 ADD DUP5 PUSH2 0x2FDB JUMP JUMPDEST SWAP3 SWAP2 POP POP JUMP JUMPDEST PUSH0 PUSH1 0x20 DUP3 DUP5 SUB SLT ISZERO PUSH2 0x3018 JUMPI PUSH2 0x3017 PUSH2 0x2F32 JUMP JUMPDEST JUMPDEST PUSH0 PUSH2 0x3025 DUP5 DUP3 DUP6 ADD PUSH2 0x2F80 JUMP JUMPDEST SWAP2 POP POP SWAP3 SWAP2 POP POP JUMP JUMPDEST PUSH32 0x4E487B7100000000000000000000000000000000000000000000000000000000 PUSH0 MSTORE PUSH1 0x21 PUSH1 0x4 MSTORE PUSH1 0x24 PUSH0 REVERT JUMPDEST PUSH1 0x3 DUP2 LT PUSH2 0x306C JUMPI PUSH2 0x306B PUSH2 0x302E JUMP JUMPDEST JUMPDEST POP JUMP JUMPDEST PUSH0 DUP2 SWAP1 POP PUSH2 0x307C DUP3 PUSH2 0x305B JUMP JUMPDEST SWAP2 SWAP1 POP JUMP JUMPDEST PUSH0 PUSH2 0x308B DUP3 PUSH2 0x306F JUMP JUMPDEST SWAP1 POP SWAP2 SWAP1 POP JUMP JUMPDEST PUSH2 0x309B DUP2 PUSH2 0x3081 JUMP JUMPDEST DUP3 MSTORE POP POP JUMP JUMPDEST PUSH0 PUSH1 0x20 DUP3 ADD SWAP1 POP PUSH2 0x30B4 PUSH0 DUP4 ADD DUP5 PUSH2 0x3092 JUMP JUMPDEST SWAP3 SWAP2 POP POP JUMP JUMPDEST PUSH2 0x30C3 DUP2 PUSH2 0x2FD2 JUMP JUMPDEST DUP2 EQ PUSH2 0x30CD JUMPI PUSH0 DUP1 REVERT JUMPDEST POP JUMP JUMPDEST PUSH0 DUP2 CALLDATALOAD SWAP1 POP PUSH2 0x30DE DUP2 PUSH2 0x30BA JUMP JUMPDEST SWAP3 SWAP2 POP POP JUMP JUMPDEST PUSH0 DUP1 PUSH1 0x40 DUP4 DUP6 SUB SLT ISZERO PUSH2 0x30FA JUMPI PUSH2 0x30F9 PUSH2 0x2F32 JUMP JUMPDEST JUMPDEST PUSH0 PUSH2 0x3107 DUP6 DUP3 DUP7 ADD PUSH2 0x2F80 JUMP JUMPDEST SWAP3 POP POP PUSH1 0x20 PUSH2 0x3118 DUP6 DUP3 DUP7 ADD PUSH2 0x30D0 JUMP JUMPDEST SWAP2 POP POP SWAP3 POP SWAP3 SWAP1 POP JUMP JUMPDEST PUSH0 PUSH1 0x20 DUP3 DUP5 SUB SLT ISZERO PUSH2 0x3137 JUMPI PUSH2 0x3136 PUSH2 0x2F32 JUMP JUMPDEST JUMPDEST PUSH0 PUSH2 0x3144 DUP5 DUP3 DUP6 ADD PUSH2 0x30D0 JUMP JUMPDEST SWAP2 POP POP SWAP3 SWAP2 POP POP JUMP JUMPDEST PUSH0 DUP1 PUSH0 PUSH1 0x60 DUP5 DUP7 SUB SLT ISZERO PUSH2 0x3164 JUMPI PUSH2 0x3163 PUSH2 0x2F32 JUMP JUMPDEST JUMPDEST PUSH0 PUSH2 0x3171 DUP7 DUP3 DUP8 ADD PUSH2 0x2F80 JUMP JUMPDEST SWAP4 POP POP PUSH1 0x20 PUSH2 0x3182 DUP7 DUP3 DUP8 ADD PUSH2 0x2F80 JUMP JUMPDEST SWAP3 POP POP PUSH1 0x40 PUSH2 0x3193 DUP7 DUP3 DUP8 ADD PUSH2 0x30D0 JUMP JUMPDEST SWAP2 POP POP SWAP3 POP SWAP3 POP SWAP3 JUMP JUMPDEST PUSH0 DUP1 REVERT JUMPDEST PUSH0 DUP1 REVERT JUMPDEST PUSH0 DUP1 REVERT JUMPDEST PUSH0 DUP1 DUP4 PUSH1 0x1F DUP5 ADD SLT PUSH2 0x31BE JUMPI PUSH2 0x31BD PUSH2 0x319D JUMP JUMPDEST JUMPDEST DUP3 CALLDATALOAD SWAP1 POP PUSH8 0xFFFFFFFFFFFFFFFF DUP2 GT ISZERO PUSH2 0x31DB JUMPI PUSH2 0x31DA PUSH2 0x31A1 JUMP JUMPDEST JUMPDEST PUSH1 0x20 DUP4 ADD SWAP2 POP DUP4 PUSH1 0x1 DUP3 MUL DUP4 ADD GT ISZERO PUSH2 0x31F7 JUMPI PUSH2 0x31F6 PUSH2 0x31A5 JUMP JUMPDEST JUMPDEST SWAP3 POP SWAP3 SWAP1 POP JUMP JUMPDEST PUSH0 DUP1 PUSH0 PUSH1 0x40 DUP5 DUP7 SUB SLT ISZERO PUSH2 0x3215 JUMPI PUSH2 0x3214 PUSH2 0x2F32 JUMP JUMPDEST JUMPDEST PUSH0 PUSH2 0x3222 DUP7 DUP3 DUP8 ADD PUSH2 0x2F80 JUMP JUMPDEST SWAP4 POP POP PUSH1 0x20 DUP5 ADD CALLDATALOAD PUSH8 0xFFFFFFFFFFFFFFFF DUP2 GT ISZERO PUSH2 0x3243 JUMPI PUSH2 0x3242 PUSH2 0x2F36 JUMP JUMPDEST JUMPDEST PUSH2 0x324F DUP7 DUP3 DUP8 ADD PUSH2 0x31A9 JUMP JUMPDEST SWAP3 POP SWAP3 POP POP SWAP3 POP SWAP3 POP SWAP3 JUMP JUMPDEST PUSH0 DUP2 MLOAD SWAP1 POP SWAP2 SWAP1 POP JUMP JUMPDEST PUSH0 DUP3 DUP3 MSTORE PUSH1 0x20 DUP3 ADD SWAP1 POP SWAP3 SWAP2 POP POP JUMP JUMPDEST PUSH0 JUMPDEST DUP4 DUP2 LT ISZERO PUSH2 0x3292 JUMPI DUP1 DUP3 ADD MLOAD DUP2 DUP5 ADD MSTORE PUSH1 0x20 DUP2 ADD SWAP1 POP PUSH2 0x3277 JUMP JUMPDEST PUSH0 DUP5 DUP5 ADD MSTORE POP POP POP POP JUMP JUMPDEST PUSH0 PUSH1 0x1F NOT PUSH1 0x1F DUP4 ADD AND SWAP1 POP SWAP2 SWAP1 POP JUMP JUMPDEST PUSH0 PUSH2 0x32B7 DUP3 PUSH2 0x325B JUMP JUMPDEST PUSH2 0x32C1 DUP2 DUP6 PUSH2 0x3265 JUMP JUMPDEST SWAP4 POP PUSH2 0x32D1 DUP2 DUP6 PUSH1 0x20 DUP7 ADD PUSH2 0x3275 JUMP JUMPDEST PUSH2 0x32DA DUP2 PUSH2 0x329D JUMP JUMPDEST DUP5 ADD SWAP2 POP POP SWAP3 SWAP2 POP POP JUMP JUMPDEST PUSH0 DUP2 ISZERO ISZERO SWAP1 POP SWAP2 SWAP1 POP JUMP JUMPDEST PUSH2 0x32F9 DUP2 PUSH2 0x32E5 JUMP JUMPDEST DUP3 MSTORE POP POP JUMP JUMPDEST PUSH0 PUSH1 0x40 DUP3 ADD SWAP1 POP DUP2 DUP2 SUB PUSH0 DUP4 ADD MSTORE PUSH2 0x3317 DUP2 DUP6 PUSH2 0x32AD JUMP JUMPDEST SWAP1 POP PUSH2 0x3326 PUSH1 0x20 DUP4 ADD DUP5 PUSH2 0x32F0 JUMP JUMPDEST SWAP4 SWAP3 POP POP POP JUMP JUMPDEST PUSH32 0x546F6B656E206973206E6F742061637469766500000000000000000000000000 PUSH0 DUP3 ADD MSTORE POP JUMP JUMPDEST PUSH0 PUSH2 0x3361 PUSH1 0x13 DUP4 PUSH2 0x3265 JUMP JUMPDEST SWAP2 POP PUSH2 0x336C DUP3 PUSH2 0x332D JUMP JUMPDEST PUSH1 0x20 DUP3 ADD SWAP1 POP SWAP2 SWAP1 POP JUMP JUMPDEST PUSH0 PUSH1 0x20 DUP3 ADD SWAP1 POP DUP2 DUP2 SUB PUSH0 DUP4 ADD MSTORE PUSH2 0x338E DUP2 PUSH2 0x3355 JUMP JUMPDEST SWAP1 POP SWAP2 SWAP1 POP JUMP JUMPDEST PUSH32 0x4E6F7420617574686F72697A6564000000000000000000000000000000000000 PUSH0 DUP3 ADD MSTORE POP JUMP JUMPDEST PUSH0 PUSH2 0x33C9 PUSH1 0xE DUP4 PUSH2 0x3265 JUMP JUMPDEST SWAP2 POP PUSH2 0x33D4 DUP3 PUSH2 0x3395 JUMP JUMPDEST PUSH1 0x20 DUP3 ADD SWAP1 POP SWAP2 SWAP1 POP JUMP JUMPDEST PUSH0 PUSH1 0x20 DUP3 ADD SWAP1 POP DUP2 DUP2 SUB PUSH0 DUP4 ADD MSTORE PUSH2 0x33F6 DUP2 PUSH2 0x33BD JUMP JUMPDEST SWAP1 POP SWAP2 SWAP1 POP JUMP JUMPDEST PUSH32 0x4D616E6167657220616C72656164792061646465640000000000000000000000 PUSH0 DUP3 ADD MSTORE POP JUMP JUMPDEST PUSH0 PUSH2 0x3431 PUSH1 0x15 DUP4 PUSH2 0x3265 JUMP JUMPDEST SWAP2 POP PUSH2 0x343C DUP3 PUSH2 0x33FD JUMP JUMPDEST PUSH1 0x20 DUP3 ADD SWAP1 POP SWAP2 SWAP1 POP JUMP JUMPDEST PUSH0 PUSH1 0x20 DUP3 ADD SWAP1 POP DUP2 DUP2 SUB PUSH0 DUP4 ADD MSTORE PUSH2 0x345E DUP2 PUSH2 0x3425 JUMP JUMPDEST SWAP1 POP SWAP2 SWAP1 POP JUMP JUMPDEST PUSH32 0x546F6B656E206E6F742061637469766500000000000000000000000000000000 PUSH0 DUP3 ADD MSTORE POP JUMP JUMPDEST PUSH0 PUSH2 0x3499 PUSH1 0x10 DUP4 PUSH2 0x3265 JUMP JUMPDEST SWAP2 POP PUSH2 0x34A4 DUP3 PUSH2 0x3465 JUMP JUMPDEST PUSH1 0x20 DUP3 ADD SWAP1 POP SWAP2 SWAP1 POP JUMP JUMPDEST PUSH0 PUSH1 0x20 DUP3 ADD SWAP1 POP DUP2 DUP2 SUB PUSH0 DUP4 ADD MSTORE PUSH2 0x34C6 DUP2 PUSH2 0x348D JUMP JUMPDEST SWAP1 POP SWAP2 SWAP1 POP JUMP JUMPDEST PUSH32 0x416D6F756E74206D7573742062652067726561746572207468616E207A65726F PUSH0 DUP3 ADD MSTORE POP JUMP JUMPDEST PUSH0 PUSH2 0x3501 PUSH1 0x20 DUP4 PUSH2 0x3265 JUMP JUMPDEST SWAP2 POP PUSH2 0x350C DUP3 PUSH2 0x34CD JUMP JUMPDEST PUSH1 0x20 DUP3 ADD SWAP1 POP SWAP2 SWAP1 POP JUMP JUMPDEST PUSH0 PUSH1 0x20 DUP3 ADD SWAP1 POP DUP2 DUP2 SUB PUSH0 DUP4 ADD MSTORE PUSH2 0x352E DUP2 PUSH2 0x34F5 JUMP JUMPDEST SWAP1 POP SWAP2 SWAP1 POP JUMP JUMPDEST PUSH32 0x5374616B656420616D6F756E74206E6F7420656E6F7567680000000000000000 PUSH0 DUP3 ADD MSTORE POP JUMP JUMPDEST PUSH0 PUSH2 0x3569 PUSH1 0x18 DUP4 PUSH2 0x3265 JUMP JUMPDEST SWAP2 POP PUSH2 0x3574 DUP3 PUSH2 0x3535 JUMP JUMPDEST PUSH1 0x20 DUP3 ADD SWAP1 POP SWAP2 SWAP1 POP JUMP JUMPDEST PUSH0 PUSH1 0x20 DUP3 ADD SWAP1 POP DUP2 DUP2 SUB PUSH0 DUP4 ADD MSTORE PUSH2 0x3596 DUP2 PUSH2 0x355D JUMP JUMPDEST SWAP1 POP SWAP2 SWAP1 POP JUMP JUMPDEST PUSH2 0x35A6 DUP2 PUSH2 0x2F59 JUMP JUMPDEST DUP3 MSTORE POP POP JUMP JUMPDEST PUSH0 PUSH1 0x40 DUP3 ADD SWAP1 POP PUSH2 0x35BF PUSH0 DUP4 ADD DUP6 PUSH2 0x359D JUMP JUMPDEST PUSH2 0x35CC PUSH1 0x20 DUP4 ADD DUP5 PUSH2 0x2FDB JUMP JUMPDEST SWAP4 SWAP3 POP POP POP JUMP JUMPDEST PUSH2 0x35DC DUP2 PUSH2 0x32E5 JUMP JUMPDEST DUP2 EQ PUSH2 0x35E6 JUMPI PUSH0 DUP1 REVERT JUMPDEST POP JUMP JUMPDEST PUSH0 DUP2 MLOAD SWAP1 POP PUSH2 0x35F7 DUP2 PUSH2 0x35D3 JUMP JUMPDEST SWAP3 SWAP2 POP POP JUMP JUMPDEST PUSH0 PUSH1 0x20 DUP3 DUP5 SUB SLT ISZERO PUSH2 0x3612 JUMPI PUSH2 0x3611 PUSH2 0x2F32 JUMP JUMPDEST JUMPDEST PUSH0 PUSH2 0x361F DUP5 DUP3 DUP6 ADD PUSH2 0x35E9 JUMP JUMPDEST SWAP2 POP POP SWAP3 SWAP2 POP POP JUMP JUMPDEST PUSH32 0x5472616E73666572204661696C65640000000000000000000000000000000000 PUSH0 DUP3 ADD MSTORE POP JUMP JUMPDEST PUSH0 PUSH2 0x365C PUSH1 0xF DUP4 PUSH2 0x3265 JUMP JUMPDEST SWAP2 POP PUSH2 0x3667 DUP3 PUSH2 0x3628 JUMP JUMPDEST PUSH1 0x20 DUP3 ADD SWAP1 POP SWAP2 SWAP1 POP JUMP JUMPDEST PUSH0 PUSH1 0x20 DUP3 ADD SWAP1 POP DUP2 DUP2 SUB PUSH0 DUP4 ADD MSTORE PUSH2 0x3689 DUP2 PUSH2 0x3650 JUMP JUMPDEST SWAP1 POP SWAP2 SWAP1 POP JUMP JUMPDEST PUSH32 0x4D616E61676572206E6F7420666F756E64000000000000000000000000000000 PUSH0 DUP3 ADD MSTORE POP JUMP JUMPDEST PUSH0 PUSH2 0x36C4 PUSH1 0x11 DUP4 PUSH2 0x3265 JUMP JUMPDEST SWAP2 POP PUSH2 0x36CF DUP3 PUSH2 0x3690 JUMP JUMPDEST PUSH1 0x20 DUP3 ADD SWAP1 POP SWAP2 SWAP1 POP JUMP JUMPDEST PUSH0 PUSH1 0x20 DUP3 ADD SWAP1 POP DUP2 DUP2 SUB PUSH0 DUP4 ADD MSTORE PUSH2 0x36F1 DUP2 PUSH2 0x36B8 JUMP JUMPDEST SWAP1 POP SWAP2 SWAP1 POP JUMP JUMPDEST PUSH0 PUSH1 0x60 DUP3 ADD SWAP1 POP PUSH2 0x370B PUSH0 DUP4 ADD DUP7 PUSH2 0x359D JUMP JUMPDEST PUSH2 0x3718 PUSH1 0x20 DUP4 ADD DUP6 PUSH2 0x359D JUMP JUMPDEST PUSH2 0x3725 PUSH1 0x40 DUP4 ADD DUP5 PUSH2 0x2FDB JUMP JUMPDEST SWAP5 SWAP4 POP POP POP POP JUMP JUMPDEST PUSH32 0x4F776E61626C653A2063616C6C6572206973206E6F7420746865206F776E6572 PUSH0 DUP3 ADD MSTORE POP JUMP JUMPDEST PUSH0 PUSH2 0x3761 PUSH1 0x20 DUP4 PUSH2 0x3265 JUMP JUMPDEST SWAP2 POP PUSH2 0x376C DUP3 PUSH2 0x372D JUMP JUMPDEST PUSH1 0x20 DUP3 ADD SWAP1 POP SWAP2 SWAP1 POP JUMP JUMPDEST PUSH0 PUSH1 0x20 DUP3 ADD SWAP1 POP DUP2 DUP2 SUB PUSH0 DUP4 ADD MSTORE PUSH2 0x378E DUP2 PUSH2 0x3755 JUMP JUMPDEST SWAP1 POP SWAP2 SWAP1 POP JUMP JUMPDEST PUSH32 0x546F6B656E20616C726561647920616464656400000000000000000000000000 PUSH0 DUP3 ADD MSTORE POP JUMP JUMPDEST PUSH0 PUSH2 0x37C9 PUSH1 0x13 DUP4 PUSH2 0x3265 JUMP JUMPDEST SWAP2 POP PUSH2 0x37D4 DUP3 PUSH2 0x3795 JUMP JUMPDEST PUSH1 0x20 DUP3 ADD SWAP1 POP SWAP2 SWAP1 POP JUMP JUMPDEST PUSH0 PUSH1 0x20 DUP3 ADD SWAP1 POP DUP2 DUP2 SUB PUSH0 DUP4 ADD MSTORE PUSH2 0x37F6 DUP2 PUSH2 0x37BD JUMP JUMPDEST SWAP1 POP SWAP2 SWAP1 POP JUMP JUMPDEST PUSH32 0x4E487B7100000000000000000000000000000000000000000000000000000000 PUSH0 MSTORE PUSH1 0x41 PUSH1 0x4 MSTORE PUSH1 0x24 PUSH0 REVERT JUMPDEST PUSH32 0x4E487B7100000000000000000000000000000000000000000000000000000000 PUSH0 MSTORE PUSH1 0x22 PUSH1 0x4 MSTORE PUSH1 0x24 PUSH0 REVERT JUMPDEST PUSH0 PUSH1 0x2 DUP3 DIV SWAP1 POP PUSH1 0x1 DUP3 AND DUP1 PUSH2 0x386E JUMPI PUSH1 0x7F DUP3 AND SWAP2 POP JUMPDEST PUSH1 0x20 DUP3 LT DUP2 SUB PUSH2 0x3881 JUMPI PUSH2 0x3880 PUSH2 0x382A JUMP JUMPDEST JUMPDEST POP SWAP2 SWAP1 POP JUMP JUMPDEST PUSH0 DUP2 SWAP1 POP DUP2 PUSH0 MSTORE PUSH1 0x20 PUSH0 KECCAK256 SWAP1 POP SWAP2 SWAP1 POP JUMP JUMPDEST PUSH0 PUSH1 0x20 PUSH1 0x1F DUP4 ADD DIV SWAP1 POP SWAP2 SWAP1 POP JUMP JUMPDEST PUSH0 DUP3 DUP3 SHL SWAP1 POP SWAP3 SWAP2 POP POP JUMP JUMPDEST PUSH0 PUSH1 0x8 DUP4 MUL PUSH2 0x38E3 PUSH32 0xFFFFFFFFFFFFFFFFFFFFFFFFFFFFFFFFFFFFFFFFFFFFFFFFFFFFFFFFFFFFFFFF DUP3 PUSH2 0x38A8 JUMP JUMPDEST PUSH2 0x38ED DUP7 DUP4 PUSH2 0x38A8 JUMP JUMPDEST SWAP6 POP DUP1 NOT DUP5 AND SWAP4 POP DUP1 DUP7 AND DUP5 OR SWAP3 POP POP POP SWAP4 SWAP3 POP POP POP JUMP JUMPDEST PUSH0 DUP2 SWAP1 POP SWAP2 SWAP1 POP JUMP JUMPDEST PUSH0 PUSH2 0x3928 PUSH2 0x3923 PUSH2 0x391E DUP5 PUSH2 0x2FD2 JUMP JUMPDEST PUSH2 0x3905 JUMP JUMPDEST PUSH2 0x2FD2 JUMP JUMPDEST SWAP1 POP SWAP2 SWAP1 POP JUMP JUMPDEST PUSH0 DUP2 SWAP1 POP SWAP2 SWAP1 POP JUMP JUMPDEST PUSH2 0x3941 DUP4 PUSH2 0x390E JUMP JUMPDEST PUSH2 0x3955 PUSH2 0x394D DUP3 PUSH2 0x392F JUMP JUMPDEST DUP5 DUP5 SLOAD PUSH2 0x38B4 JUMP JUMPDEST DUP3 SSTORE POP POP POP POP JUMP JUMPDEST PUSH0 SWAP1 JUMP JUMPDEST PUSH2 0x3969 PUSH2 0x395D JUMP JUMPDEST PUSH2 0x3974 DUP2 DUP5 DUP5 PUSH2 0x3938 JUMP JUMPDEST POP POP POP JUMP JUMPDEST JUMPDEST DUP2 DUP2 LT ISZERO PUSH2 0x3997 JUMPI PUSH2 0x398C PUSH0 DUP3 PUSH2 0x3961 JUMP JUMPDEST PUSH1 0x1 DUP2 ADD SWAP1 POP PUSH2 0x397A JUMP JUMPDEST POP POP JUMP JUMPDEST PUSH1 0x1F DUP3 GT ISZERO PUSH2 0x39DC JUMPI PUSH2 0x39AD DUP2 PUSH2 0x3887 JUMP JUMPDEST PUSH2 0x39B6 DUP5 PUSH2 0x3899 JUMP JUMPDEST DUP2 ADD PUSH1 0x20 DUP6 LT ISZERO PUSH2 0x39C5 JUMPI DUP2 SWAP1 POP JUMPDEST PUSH2 0x39D9 PUSH2 0x39D1 DUP6 PUSH2 0x3899 JUMP JUMPDEST DUP4 ADD DUP3 PUSH2 0x3979 JUMP JUMPDEST POP POP JUMPDEST POP POP POP JUMP JUMPDEST PUSH0 DUP3 DUP3 SHR SWAP1 POP SWAP3 SWAP2 POP POP JUMP JUMPDEST PUSH0 PUSH2 0x39FC PUSH0 NOT DUP5 PUSH1 0x8 MUL PUSH2 0x39E1 JUMP JUMPDEST NOT DUP1 DUP4 AND SWAP2 POP POP SWAP3 SWAP2 POP POP JUMP JUMPDEST PUSH0 PUSH2 0x3A14 DUP4 DUP4 PUSH2 0x39ED JUMP JUMPDEST SWAP2 POP DUP3 PUSH1 0x2 MUL DUP3 OR SWAP1 POP SWAP3 SWAP2 POP POP JUMP JUMPDEST PUSH2 0x3A2D DUP3 PUSH2 0x325B JUMP JUMPDEST PUSH8 0xFFFFFFFFFFFFFFFF DUP2 GT ISZERO PUSH2 0x3A46 JUMPI PUSH2 0x3A45 PUSH2 0x37FD JUMP JUMPDEST JUMPDEST PUSH2 0x3A50 DUP3 SLOAD PUSH2 0x3857 JUMP JUMPDEST PUSH2 0x3A5B DUP3 DUP3 DUP6 PUSH2 0x399B JUMP JUMPDEST PUSH0 PUSH1 0x20 SWAP1 POP PUSH1 0x1F DUP4 GT PUSH1 0x1 DUP2 EQ PUSH2 0x3A8C JUMPI PUSH0 DUP5 ISZERO PUSH2 0x3A7A JUMPI DUP3 DUP8 ADD MLOAD SWAP1 POP JUMPDEST PUSH2 0x3A84 DUP6 DUP3 PUSH2 0x3A09 JUMP JUMPDEST DUP7 SSTORE POP PUSH2 0x3AEB JUMP JUMPDEST PUSH1 0x1F NOT DUP5 AND PUSH2 0x3A9A DUP7 PUSH2 0x3887 JUMP JUMPDEST PUSH0 JUMPDEST DUP3 DUP2 LT ISZERO PUSH2 0x3AC1 JUMPI DUP5 DUP10 ADD MLOAD DUP3 SSTORE PUSH1 0x1 DUP3 ADD SWAP2 POP PUSH1 0x20 DUP6 ADD SWAP5 POP PUSH1 0x20 DUP2 ADD SWAP1 POP PUSH2 0x3A9C JUMP JUMPDEST DUP7 DUP4 LT ISZERO PUSH2 0x3ADE JUMPI DUP5 DUP10 ADD MLOAD PUSH2 0x3ADA PUSH1 0x1F DUP10 AND DUP3 PUSH2 0x39ED JUMP JUMPDEST DUP4 SSTORE POP JUMPDEST PUSH1 0x1 PUSH1 0x2 DUP9 MUL ADD DUP9 SSTORE POP POP POP JUMPDEST POP POP POP POP POP POP JUMP JUMPDEST PUSH32 0x4E6F207265776172647320746F20636C61696D00000000000000000000000000 PUSH0 DUP3 ADD MSTORE POP JUMP JUMPDEST PUSH0 PUSH2 0x3B27 PUSH1 0x13 DUP4 PUSH2 0x3265 JUMP JUMPDEST SWAP2 POP PUSH2 0x3B32 DUP3 PUSH2 0x3AF3 JUMP JUMPDEST PUSH1 0x20 DUP3 ADD SWAP1 POP SWAP2 SWAP1 POP JUMP JUMPDEST PUSH0 PUSH1 0x20 DUP3 ADD SWAP1 POP DUP2 DUP2 SUB PUSH0 DUP4 ADD MSTORE PUSH2 0x3B54 DUP2 PUSH2 0x3B1B JUMP JUMPDEST SWAP1 POP SWAP2 SWAP1 POP JUMP JUMPDEST PUSH32 0x4E487B7100000000000000000000000000000000000000000000000000000000 PUSH0 MSTORE PUSH1 0x11 PUSH1 0x4 MSTORE PUSH1 0x24 PUSH0 REVERT JUMPDEST PUSH0 PUSH2 0x3B92 DUP3 PUSH2 0x2FD2 JUMP JUMPDEST SWAP2 POP PUSH2 0x3B9D DUP4 PUSH2 0x2FD2 JUMP JUMPDEST SWAP3 POP DUP3 DUP3 SUB SWAP1 POP DUP2 DUP2 GT ISZERO PUSH2 0x3BB5 JUMPI PUSH2 0x3BB4 PUSH2 0x3B5B JUMP JUMPDEST JUMPDEST SWAP3 SWAP2 POP POP JUMP JUMPDEST PUSH0 PUSH2 0x3BC5 DUP3 PUSH2 0x2FD2 JUMP JUMPDEST SWAP2 POP PUSH2 0x3BD0 DUP4 PUSH2 0x2FD2 JUMP JUMPDEST SWAP3 POP DUP3 DUP3 MUL PUSH2 0x3BDE DUP2 PUSH2 0x2FD2 JUMP JUMPDEST SWAP2 POP DUP3 DUP3 DIV DUP5 EQ DUP4 ISZERO OR PUSH2 0x3BF5 JUMPI PUSH2 0x3BF4 PUSH2 0x3B5B JUMP JUMPDEST JUMPDEST POP SWAP3 SWAP2 POP POP JUMP JUMPDEST PUSH32 0x4E487B7100000000000000000000000000000000000000000000000000000000 PUSH0 MSTORE PUSH1 0x12 PUSH1 0x4 MSTORE PUSH1 0x24 PUSH0 REVERT JUMPDEST PUSH0 PUSH2 0x3C33 DUP3 PUSH2 0x2FD2 JUMP JUMPDEST SWAP2 POP PUSH2 0x3C3E DUP4 PUSH2 0x2FD2 JUMP JUMPDEST SWAP3 POP DUP3 PUSH2 0x3C4E JUMPI PUSH2 0x3C4D PUSH2 0x3BFC JUMP JUMPDEST JUMPDEST DUP3 DUP3 DIV SWAP1 POP SWAP3 SWAP2 POP POP JUMP JUMPDEST PUSH0 PUSH2 0x3C63 DUP3 PUSH2 0x2FD2 JUMP JUMPDEST SWAP2 POP PUSH2 0x3C6E DUP4 PUSH2 0x2FD2 JUMP JUMPDEST SWAP3 POP DUP3 DUP3 ADD SWAP1 POP DUP1 DUP3 GT ISZERO PUSH2 0x3C86 JUMPI PUSH2 0x3C85 PUSH2 0x3B5B JUMP JUMPDEST JUMPDEST SWAP3 SWAP2 POP POP JUMP JUMPDEST PUSH32 0x5265656E7472616E637947756172643A207265656E7472616E742063616C6C00 PUSH0 DUP3 ADD MSTORE POP JUMP JUMPDEST PUSH0 PUSH2 0x3CC0 PUSH1 0x1F DUP4 PUSH2 0x3265 JUMP JUMPDEST SWAP2 POP PUSH2 0x3CCB DUP3 PUSH2 0x3C8C JUMP JUMPDEST PUSH1 0x20 DUP3 ADD SWAP1 POP SWAP2 SWAP1 POP JUMP JUMPDEST PUSH0 PUSH1 0x20 DUP3 ADD SWAP1 POP DUP2 DUP2 SUB PUSH0 DUP4 ADD MSTORE PUSH2 0x3CED DUP2 PUSH2 0x3CB4 JUMP JUMPDEST SWAP1 POP SWAP2 SWAP1 POP JUMP INVALID LOG2 PUSH5 0x6970667358 0x22 SLT KECCAK256 DUP8 EXTCODEHASH STOP RETURNDATASIZE PUSH22 0x8F433D4A64B95CD155A17992901BC069B50A90BBB360 0xAB SUB SHL 0xD2 0xF9 PUSH5 0x736F6C6343 STOP ADDMOD AND STOP CALLER "
				},
				"gasEstimates": {
					"creation": {
						"codeDepositCost": "3131600",
						"executionCost": "75620",
						"totalCost": "3207220"
					},
					"external": {
						"REWARD_RATE()": "2515",
						"addManager(address)": "32688",
						"addTokenToWhiteList(address,string)": "infinite",
						"earned(address,address)": "infinite",
						"getMyRole()": "4871",
						"getMyStakedBalance(address)": "5251",
						"getMyTokens(address,address)": "infinite",
						"getReward(address)": "infinite",
						"getStakedBalanceTokenByAccount(address,address)": "infinite",
						"lastUpdateTime(address)": "2848",
						"removeManager(address)": "32727",
						"removeToken(address)": "32740",
						"rewardPerToken(address)": "infinite",
						"rewardPerTokenStored(address)": "2825",
						"rewards(address,address)": "infinite",
						"setRewardRate(uint256)": "infinite",
						"stake(address,uint256)": "infinite",
						"stakedBalance(address,address)": "infinite",
						"totalStakedTokens(address)": "2846",
						"transferTokens(address,address,uint256)": "infinite",
						"userRewardPerTokenPaid(address,address)": "infinite",
						"whiteListTokens(address)": "infinite",
						"withdrawStakedTokens(address,uint256)": "infinite"
					}
				},
				"methodIdentifiers": {
					"REWARD_RATE()": "5997bb37",
					"addManager(address)": "2d06177a",
					"addTokenToWhiteList(address,string)": "b51d46ea",
					"earned(address,address)": "211dc32d",
					"getMyRole()": "6e3b47fc",
					"getMyStakedBalance(address)": "82be4308",
					"getMyTokens(address,address)": "87d9d670",
					"getReward(address)": "c00007b0",
					"getStakedBalanceTokenByAccount(address,address)": "8f926830",
					"lastUpdateTime(address)": "2ce9aead",
					"removeManager(address)": "ac18de43",
					"removeToken(address)": "5fa7b584",
					"rewardPerToken(address)": "f1229777",
					"rewardPerTokenStored(address)": "9ce43f90",
					"rewards(address,address)": "e70b9e27",
					"setRewardRate(uint256)": "9e447fc6",
					"stake(address,uint256)": "adc9772e",
					"stakedBalance(address,address)": "8229084b",
					"totalStakedTokens(address)": "be23b21b",
					"transferTokens(address,address,uint256)": "a64b6e5f",
					"userRewardPerTokenPaid(address,address)": "7035ab98",
					"whiteListTokens(address)": "e6e8712d",
					"withdrawStakedTokens(address,uint256)": "9d4b0674"
				}
			},
			"storageLayout": {
				"storage": [
					{
						"astId": 10,
						"contract": "StakingToken.sol:StakingToken",
						"label": "_status",
						"offset": 0,
						"slot": "0",
						"type": "t_uint256"
					},
					{
						"astId": 466,
						"contract": "StakingToken.sol:StakingToken",
						"label": "owner",
						"offset": 0,
						"slot": "1",
						"type": "t_address"
					},
					{
						"astId": 480,
						"contract": "StakingToken.sol:StakingToken",
						"label": "REWARD_RATE",
						"offset": 0,
						"slot": "2",
						"type": "t_uint256"
					},
					{
						"astId": 489,
						"contract": "StakingToken.sol:StakingToken",
						"label": "whiteListTokens",
						"offset": 0,
						"slot": "3",
						"type": "t_mapping(t_address,t_struct(TokenInfo)471_storage)"
					},
					{
						"astId": 495,
						"contract": "StakingToken.sol:StakingToken",
						"label": "stakedBalance",
						"offset": 0,
						"slot": "4",
						"type": "t_mapping(t_address,t_mapping(t_address,t_uint256))"
					},
					{
						"astId": 501,
						"contract": "StakingToken.sol:StakingToken",
						"label": "rewards",
						"offset": 0,
						"slot": "5",
						"type": "t_mapping(t_address,t_mapping(t_address,t_uint256))"
					},
					{
						"astId": 507,
						"contract": "StakingToken.sol:StakingToken",
						"label": "userRewardPerTokenPaid",
						"offset": 0,
						"slot": "6",
						"type": "t_mapping(t_address,t_mapping(t_address,t_uint256))"
					},
					{
						"astId": 511,
						"contract": "StakingToken.sol:StakingToken",
						"label": "rewardPerTokenStored",
						"offset": 0,
						"slot": "7",
						"type": "t_mapping(t_address,t_uint256)"
					},
					{
						"astId": 515,
						"contract": "StakingToken.sol:StakingToken",
						"label": "lastUpdateTime",
						"offset": 0,
						"slot": "8",
						"type": "t_mapping(t_address,t_uint256)"
					},
					{
						"astId": 519,
						"contract": "StakingToken.sol:StakingToken",
						"label": "totalStakedTokens",
						"offset": 0,
						"slot": "9",
						"type": "t_mapping(t_address,t_uint256)"
					},
					{
						"astId": 583,
						"contract": "StakingToken.sol:StakingToken",
						"label": "managers",
						"offset": 0,
						"slot": "10",
						"type": "t_mapping(t_address,t_bool)"
					}
				],
				"types": {
					"t_address": {
						"encoding": "inplace",
						"label": "address",
						"numberOfBytes": "20"
					},
					"t_bool": {
						"encoding": "inplace",
						"label": "bool",
						"numberOfBytes": "1"
					},
					"t_mapping(t_address,t_bool)": {
						"encoding": "mapping",
						"key": "t_address",
						"label": "mapping(address => bool)",
						"numberOfBytes": "32",
						"value": "t_bool"
					},
					"t_mapping(t_address,t_mapping(t_address,t_uint256))": {
						"encoding": "mapping",
						"key": "t_address",
						"label": "mapping(address => mapping(address => uint256))",
						"numberOfBytes": "32",
						"value": "t_mapping(t_address,t_uint256)"
					},
					"t_mapping(t_address,t_struct(TokenInfo)471_storage)": {
						"encoding": "mapping",
						"key": "t_address",
						"label": "mapping(address => struct StakingToken.TokenInfo)",
						"numberOfBytes": "32",
						"value": "t_struct(TokenInfo)471_storage"
					},
					"t_mapping(t_address,t_uint256)": {
						"encoding": "mapping",
						"key": "t_address",
						"label": "mapping(address => uint256)",
						"numberOfBytes": "32",
						"value": "t_uint256"
					},
					"t_string_storage": {
						"encoding": "bytes",
						"label": "string",
						"numberOfBytes": "32"
					},
					"t_struct(TokenInfo)471_storage": {
						"encoding": "inplace",
						"label": "struct StakingToken.TokenInfo",
						"members": [
							{
								"astId": 468,
								"contract": "StakingToken.sol:StakingToken",
								"label": "tokenName",
								"offset": 0,
								"slot": "0",
								"type": "t_string_storage"
							},
							{
								"astId": 470,
								"contract": "StakingToken.sol:StakingToken",
								"label": "isActive",
								"offset": 0,
								"slot": "1",
								"type": "t_bool"
							}
						],
						"numberOfBytes": "64"
					},
					"t_uint256": {
						"encoding": "inplace",
						"label": "uint256",
						"numberOfBytes": "32"
					}
				}
			},
			"userdoc": {
				"kind": "user",
				"methods": {},
				"version": 1
			}
		}
	}
}