{
	"StakingToken.sol": {
		"StakingToken": {
			"abi": [
				{
					"inputs": [],
					"stateMutability": "nonpayable",
					"type": "constructor"
				},
				{
					"anonymous": false,
					"inputs": [
						{
							"indexed": true,
							"internalType": "address",
							"name": "manager",
							"type": "address"
						}
					],
					"name": "ManagerAdded",
					"type": "event"
				},
				{
					"anonymous": false,
					"inputs": [
						{
							"indexed": true,
							"internalType": "address",
							"name": "manager",
							"type": "address"
						}
					],
					"name": "ManagerRemoved",
					"type": "event"
				},
				{
					"anonymous": false,
					"inputs": [
						{
							"indexed": true,
							"internalType": "address",
							"name": "previousOwner",
							"type": "address"
						},
						{
							"indexed": true,
							"internalType": "address",
							"name": "newOwner",
							"type": "address"
						}
					],
					"name": "OwnershipTransferred",
					"type": "event"
				},
				{
					"anonymous": false,
					"inputs": [
						{
							"indexed": false,
							"internalType": "uint256",
							"name": "newRewardRate",
							"type": "uint256"
						}
					],
					"name": "RewardRateUpdated",
					"type": "event"
				},
				{
					"anonymous": false,
					"inputs": [
						{
							"indexed": true,
							"internalType": "address",
							"name": "user",
							"type": "address"
						},
						{
							"indexed": true,
							"internalType": "uint256",
							"name": "amount",
							"type": "uint256"
						}
					],
					"name": "RewardsClaimed",
					"type": "event"
				},
				{
					"anonymous": false,
					"inputs": [
						{
							"indexed": true,
							"internalType": "address",
							"name": "user",
							"type": "address"
						},
						{
							"indexed": true,
							"internalType": "address",
							"name": "addressToken",
							"type": "address"
						},
						{
							"indexed": true,
							"internalType": "uint256",
							"name": "amount",
							"type": "uint256"
						}
					],
					"name": "RewardsClaimed",
					"type": "event"
				},
				{
					"anonymous": false,
					"inputs": [
						{
							"indexed": true,
							"internalType": "address",
							"name": "user",
							"type": "address"
						},
						{
							"indexed": true,
							"internalType": "address",
							"name": "addressToken",
							"type": "address"
						},
						{
							"indexed": true,
							"internalType": "uint256",
							"name": "amount",
							"type": "uint256"
						}
					],
					"name": "Staked",
					"type": "event"
				},
				{
					"anonymous": false,
					"inputs": [
						{
							"indexed": true,
							"internalType": "address",
							"name": "addressToken",
							"type": "address"
						}
					],
					"name": "TokenAdded",
					"type": "event"
				},
				{
					"anonymous": false,
					"inputs": [
						{
							"indexed": true,
							"internalType": "address",
							"name": "addressToken",
							"type": "address"
						}
					],
					"name": "TokenRemoved",
					"type": "event"
				},
				{
					"anonymous": false,
					"inputs": [
						{
							"indexed": true,
							"internalType": "address",
							"name": "token",
							"type": "address"
						},
						{
							"indexed": true,
							"internalType": "address",
							"name": "to",
							"type": "address"
						},
						{
							"indexed": false,
							"internalType": "uint256",
							"name": "amount",
							"type": "uint256"
						}
					],
					"name": "TokensTransferred",
					"type": "event"
				},
				{
					"anonymous": false,
					"inputs": [
						{
							"indexed": true,
							"internalType": "address",
							"name": "user",
							"type": "address"
						},
						{
							"indexed": true,
							"internalType": "uint256",
							"name": "amount",
							"type": "uint256"
						}
					],
					"name": "Withdrawn",
					"type": "event"
				},
				{
					"anonymous": false,
					"inputs": [
						{
							"indexed": true,
							"internalType": "address",
							"name": "user",
							"type": "address"
						},
						{
							"indexed": true,
							"internalType": "address",
							"name": "addressToken",
							"type": "address"
						},
						{
							"indexed": true,
							"internalType": "uint256",
							"name": "amount",
							"type": "uint256"
						}
					],
					"name": "Withdrawn",
					"type": "event"
				},
				{
					"inputs": [],
					"name": "REWARD_RATE",
					"outputs": [
						{
							"internalType": "uint256",
							"name": "",
							"type": "uint256"
						}
					],
					"stateMutability": "view",
					"type": "function"
				},
				{
					"inputs": [
						{
							"internalType": "address",
							"name": "manager",
							"type": "address"
						}
					],
					"name": "addManager",
					"outputs": [],
					"stateMutability": "nonpayable",
					"type": "function"
				},
				{
					"inputs": [
						{
							"internalType": "address",
							"name": "tokenAddress",
							"type": "address"
						},
						{
							"internalType": "string",
							"name": "tokenName",
							"type": "string"
						}
					],
					"name": "addTokenToWhiteList",
					"outputs": [],
					"stateMutability": "nonpayable",
					"type": "function"
				},
				{
					"inputs": [
						{
							"internalType": "address",
							"name": "token",
							"type": "address"
						},
						{
							"internalType": "address",
							"name": "account",
							"type": "address"
						}
					],
					"name": "earned",
					"outputs": [
						{
							"internalType": "uint256",
							"name": "",
							"type": "uint256"
						}
					],
					"stateMutability": "view",
					"type": "function"
				},
				{
					"inputs": [],
					"name": "getMyRole",
					"outputs": [
						{
							"internalType": "enum StakingToken.Role",
							"name": "",
							"type": "uint8"
						}
					],
					"stateMutability": "view",
					"type": "function"
				},
				{
					"inputs": [
						{
							"internalType": "address",
							"name": "token",
							"type": "address"
						}
					],
					"name": "getMyStakedBalance",
					"outputs": [
						{
							"internalType": "uint256",
							"name": "",
							"type": "uint256"
						}
					],
					"stateMutability": "view",
					"type": "function"
				},
				{
					"inputs": [
						{
							"internalType": "address",
							"name": "token",
							"type": "address"
						}
					],
					"name": "getReward",
					"outputs": [],
					"stateMutability": "nonpayable",
					"type": "function"
				},
				{
					"inputs": [
						{
							"internalType": "address",
							"name": "token",
							"type": "address"
						},
						{
							"internalType": "address",
							"name": "account",
							"type": "address"
						}
					],
					"name": "getStakedBalanceTokenByAccount",
					"outputs": [
						{
							"internalType": "uint256",
							"name": "",
							"type": "uint256"
						}
					],
					"stateMutability": "view",
					"type": "function"
				},
				{
					"inputs": [
						{
							"internalType": "address",
							"name": "",
							"type": "address"
						}
					],
					"name": "lastUpdateTime",
					"outputs": [
						{
							"internalType": "uint256",
							"name": "",
							"type": "uint256"
						}
					],
					"stateMutability": "view",
					"type": "function"
				},
				{
					"inputs": [
						{
							"internalType": "address",
							"name": "manager",
							"type": "address"
						}
					],
					"name": "removeManager",
					"outputs": [],
					"stateMutability": "nonpayable",
					"type": "function"
				},
				{
					"inputs": [
						{
							"internalType": "address",
							"name": "token",
							"type": "address"
						}
					],
					"name": "removeToken",
					"outputs": [],
					"stateMutability": "nonpayable",
					"type": "function"
				},
				{
					"inputs": [
						{
							"internalType": "address",
							"name": "token",
							"type": "address"
						}
					],
					"name": "rewardPerToken",
					"outputs": [
						{
							"internalType": "uint256",
							"name": "",
							"type": "uint256"
						}
					],
					"stateMutability": "view",
					"type": "function"
				},
				{
					"inputs": [
						{
							"internalType": "address",
							"name": "",
							"type": "address"
						}
					],
					"name": "rewardPerTokenStored",
					"outputs": [
						{
							"internalType": "uint256",
							"name": "",
							"type": "uint256"
						}
					],
					"stateMutability": "view",
					"type": "function"
				},
				{
					"inputs": [
						{
							"internalType": "address",
							"name": "",
							"type": "address"
						},
						{
							"internalType": "address",
							"name": "",
							"type": "address"
						}
					],
					"name": "rewards",
					"outputs": [
						{
							"internalType": "uint256",
							"name": "",
							"type": "uint256"
						}
					],
					"stateMutability": "view",
					"type": "function"
				},
				{
					"inputs": [
						{
							"internalType": "uint256",
							"name": "newRewardRate",
							"type": "uint256"
						}
					],
					"name": "setRewardRate",
					"outputs": [],
					"stateMutability": "nonpayable",
					"type": "function"
				},
				{
					"inputs": [
						{
							"internalType": "address",
							"name": "token",
							"type": "address"
						},
						{
							"internalType": "uint256",
							"name": "amount",
							"type": "uint256"
						}
					],
					"name": "stake",
					"outputs": [],
					"stateMutability": "nonpayable",
					"type": "function"
				},
				{
					"inputs": [
						{
							"internalType": "address",
							"name": "",
							"type": "address"
						},
						{
							"internalType": "address",
							"name": "",
							"type": "address"
						}
					],
					"name": "stakedBalance",
					"outputs": [
						{
							"internalType": "uint256",
							"name": "",
							"type": "uint256"
						}
					],
					"stateMutability": "view",
					"type": "function"
				},
				{
					"inputs": [
						{
							"internalType": "address",
							"name": "",
							"type": "address"
						}
					],
					"name": "totalStakedTokens",
					"outputs": [
						{
							"internalType": "uint256",
							"name": "",
							"type": "uint256"
						}
					],
					"stateMutability": "view",
					"type": "function"
				},
				{
					"inputs": [
						{
							"internalType": "address",
							"name": "token",
							"type": "address"
						},
						{
							"internalType": "address",
							"name": "to",
							"type": "address"
						},
						{
							"internalType": "uint256",
							"name": "amount",
							"type": "uint256"
						}
					],
					"name": "transferTokens",
					"outputs": [],
					"stateMutability": "nonpayable",
					"type": "function"
				},
				{
					"inputs": [
						{
							"internalType": "address",
							"name": "",
							"type": "address"
						},
						{
							"internalType": "address",
							"name": "",
							"type": "address"
						}
					],
					"name": "userRewardPerTokenPaid",
					"outputs": [
						{
							"internalType": "uint256",
							"name": "",
							"type": "uint256"
						}
					],
					"stateMutability": "view",
					"type": "function"
				},
				{
					"inputs": [
						{
							"internalType": "uint256",
							"name": "",
							"type": "uint256"
						}
					],
					"name": "whiteListTokenAddresses",
					"outputs": [
						{
							"internalType": "address",
							"name": "",
							"type": "address"
						}
					],
					"stateMutability": "view",
					"type": "function"
				},
				{
					"inputs": [
						{
							"internalType": "address",
							"name": "",
							"type": "address"
						}
					],
					"name": "whiteListTokens",
					"outputs": [
						{
							"internalType": "string",
							"name": "tokenName",
							"type": "string"
						},
						{
							"internalType": "bool",
							"name": "isActive",
							"type": "bool"
						}
					],
					"stateMutability": "view",
					"type": "function"
				},
				{
					"inputs": [
						{
							"internalType": "address",
							"name": "token",
							"type": "address"
						},
						{
							"internalType": "uint256",
							"name": "amount",
							"type": "uint256"
						}
					],
					"name": "withdrawStakedTokens",
					"outputs": [],
					"stateMutability": "nonpayable",
					"type": "function"
				}
			],
			"devdoc": {
				"kind": "dev",
				"methods": {},
				"version": 1
			},
			"evm": {
				"assembly": "    /* \"StakingToken.sol\":249:8199  contract StakingToken is ReentrancyGuard {... */\n  mstore(0x40, 0x80)\n    /* \"StakingToken.sol\":575:579  1e18 */\n  0x0de0b6b3a7640000\n    /* \"StakingToken.sol\":546:579  uint256 public REWARD_RATE = 1e18 */\n  0x02\n  sstore\n    /* \"StakingToken.sol\":2043:2146  constructor() {... */\n  callvalue\n  dup1\n  iszero\n  tag_1\n  jumpi\n  0x00\n  dup1\n  revert\ntag_1:\n  pop\n    /* \"@openzeppelin/contracts/security/ReentrancyGuard.sol\":1716:1717  1 */\n  0x01\n    /* \"@openzeppelin/contracts/security/ReentrancyGuard.sol\":1821:1828  _status */\n  0x00\n    /* \"@openzeppelin/contracts/security/ReentrancyGuard.sol\":1821:1843  _status = _NOT_ENTERED */\n  dup2\n  swap1\n  sstore\n  pop\n    /* \"StakingToken.sol\":2075:2085  msg.sender */\n  caller\n    /* \"StakingToken.sol\":2067:2072  owner */\n  0x01\n  0x00\n    /* \"StakingToken.sol\":2067:2085  owner = msg.sender */\n  0x0100\n  exp\n  dup2\n  sload\n  dup2\n  0xffffffffffffffffffffffffffffffffffffffff\n  mul\n  not\n  and\n  swap1\n  dup4\n  0xffffffffffffffffffffffffffffffffffffffff\n  and\n  mul\n  or\n  swap1\n  sstore\n  pop\n    /* \"StakingToken.sol\":2133:2138  owner */\n  0x01\n  0x00\n  swap1\n  sload\n  swap1\n  0x0100\n  exp\n  swap1\n  div\n  0xffffffffffffffffffffffffffffffffffffffff\n  and\n    /* \"StakingToken.sol\":2100:2139  OwnershipTransferred(address(0), owner) */\n  0xffffffffffffffffffffffffffffffffffffffff\n  and\n    /* \"StakingToken.sol\":2129:2130  0 */\n  0x00\n    /* \"StakingToken.sol\":2100:2139  OwnershipTransferred(address(0), owner) */\n  0xffffffffffffffffffffffffffffffffffffffff\n  and\n  0x8be0079c531659141344cd1fd0a4f28419497f9722a3daafe3b4186f6b6457e0\n  mload(0x40)\n  mload(0x40)\n  dup1\n  swap2\n  sub\n  swap1\n  log3\n    /* \"StakingToken.sol\":249:8199  contract StakingToken is ReentrancyGuard {... */\n  dataSize(sub_0)\n  dup1\n  dataOffset(sub_0)\n  0x00\n  codecopy\n  0x00\n  return\nstop\n\nsub_0: assembly {\n        /* \"StakingToken.sol\":249:8199  contract StakingToken is ReentrancyGuard {... */\n      mstore(0x40, 0x80)\n      callvalue\n      dup1\n      iszero\n      tag_1\n      jumpi\n      0x00\n      dup1\n      revert\n    tag_1:\n      pop\n      jumpi(tag_2, lt(calldatasize, 0x04))\n      shr(0xe0, calldataload(0x00))\n      dup1\n      0x9ce43f90\n      gt\n      tag_26\n      jumpi\n      dup1\n      0xb51d46ea\n      gt\n      tag_27\n      jumpi\n      dup1\n      0xb51d46ea\n      eq\n      tag_20\n      jumpi\n      dup1\n      0xbe23b21b\n      eq\n      tag_21\n      jumpi\n      dup1\n      0xc00007b0\n      eq\n      tag_22\n      jumpi\n      dup1\n      0xe6e8712d\n      eq\n      tag_23\n      jumpi\n      dup1\n      0xe70b9e27\n      eq\n      tag_24\n      jumpi\n      dup1\n      0xf1229777\n      eq\n      tag_25\n      jumpi\n      jump(tag_2)\n    tag_27:\n      dup1\n      0x9ce43f90\n      eq\n      tag_14\n      jumpi\n      dup1\n      0x9d4b0674\n      eq\n      tag_15\n      jumpi\n      dup1\n      0x9e447fc6\n      eq\n      tag_16\n      jumpi\n      dup1\n      0xa64b6e5f\n      eq\n      tag_17\n      jumpi\n      dup1\n      0xac18de43\n      eq\n      tag_18\n      jumpi\n      dup1\n      0xadc9772e\n      eq\n      tag_19\n      jumpi\n      jump(tag_2)\n    tag_26:\n      dup1\n      0x65c80215\n      gt\n      tag_28\n      jumpi\n      dup1\n      0x65c80215\n      eq\n      tag_8\n      jumpi\n      dup1\n      0x6e3b47fc\n      eq\n      tag_9\n      jumpi\n      dup1\n      0x7035ab98\n      eq\n      tag_10\n      jumpi\n      dup1\n      0x8229084b\n      eq\n      tag_11\n      jumpi\n      dup1\n      0x82be4308\n      eq\n      tag_12\n      jumpi\n      dup1\n      0x8f926830\n      eq\n      tag_13\n      jumpi\n      jump(tag_2)\n    tag_28:\n      dup1\n      0x211dc32d\n      eq\n      tag_3\n      jumpi\n      dup1\n      0x2ce9aead\n      eq\n      tag_4\n      jumpi\n      dup1\n      0x2d06177a\n      eq\n      tag_5\n      jumpi\n      dup1\n      0x5997bb37\n      eq\n      tag_6\n      jumpi\n      dup1\n      0x5fa7b584\n      eq\n      tag_7\n      jumpi\n    tag_2:\n      0x00\n      dup1\n      revert\n        /* \"StakingToken.sol\":4262:4751  function earned(address token, address account)... */\n    tag_3:\n      tag_29\n      0x04\n      dup1\n      calldatasize\n      sub\n      dup2\n      add\n      swap1\n      tag_30\n      swap2\n      swap1\n      tag_31\n      jump\t// in\n    tag_30:\n      tag_32\n      jump\t// in\n    tag_29:\n      mload(0x40)\n      tag_33\n      swap2\n      swap1\n      tag_34\n      jump\t// in\n    tag_33:\n      mload(0x40)\n      dup1\n      swap2\n      sub\n      swap1\n      return\n        /* \"StakingToken.sol\":1035:1084  mapping(address => uint256) public lastUpdateTime */\n    tag_4:\n      tag_35\n      0x04\n      dup1\n      calldatasize\n      sub\n      dup2\n      add\n      swap1\n      tag_36\n      swap2\n      swap1\n      tag_37\n      jump\t// in\n    tag_36:\n      tag_38\n      jump\t// in\n    tag_35:\n      mload(0x40)\n      tag_39\n      swap2\n      swap1\n      tag_34\n      jump\t// in\n    tag_39:\n      mload(0x40)\n      dup1\n      swap2\n      sub\n      swap1\n      return\n        /* \"StakingToken.sol\":3322:3519  function addManager(address manager) external onlyManager {... */\n    tag_5:\n      tag_40\n      0x04\n      dup1\n      calldatasize\n      sub\n      dup2\n      add\n      swap1\n      tag_41\n      swap2\n      swap1\n      tag_37\n      jump\t// in\n    tag_41:\n      tag_42\n      jump\t// in\n    tag_40:\n      stop\n        /* \"StakingToken.sol\":546:579  uint256 public REWARD_RATE = 1e18 */\n    tag_6:\n      tag_43\n      tag_44\n      jump\t// in\n    tag_43:\n      mload(0x40)\n      tag_45\n      swap2\n      swap1\n      tag_34\n      jump\t// in\n    tag_45:\n      mload(0x40)\n      dup1\n      swap2\n      sub\n      swap1\n      return\n        /* \"StakingToken.sol\":3099:3316  function removeToken(address token) external onlyManager {... */\n    tag_7:\n      tag_46\n      0x04\n      dup1\n      calldatasize\n      sub\n      dup2\n      add\n      swap1\n      tag_47\n      swap2\n      swap1\n      tag_37\n      jump\t// in\n    tag_47:\n      tag_48\n      jump\t// in\n    tag_46:\n      stop\n        /* \"StakingToken.sol\":695:735  address[] public whiteListTokenAddresses */\n    tag_8:\n      tag_49\n      0x04\n      dup1\n      calldatasize\n      sub\n      dup2\n      add\n      swap1\n      tag_50\n      swap2\n      swap1\n      tag_51\n      jump\t// in\n    tag_50:\n      tag_52\n      jump\t// in\n    tag_49:\n      mload(0x40)\n      tag_53\n      swap2\n      swap1\n      tag_54\n      jump\t// in\n    tag_53:\n      mload(0x40)\n      dup1\n      swap2\n      sub\n      swap1\n      return\n        /* \"StakingToken.sol\":2220:2476  function getMyRole() external view returns (Role) {... */\n    tag_9:\n      tag_55\n      tag_56\n      jump\t// in\n    tag_55:\n      mload(0x40)\n      tag_57\n      swap2\n      swap1\n      tag_58\n      jump\t// in\n    tag_57:\n      mload(0x40)\n      dup1\n      swap2\n      sub\n      swap1\n      return\n        /* \"StakingToken.sol\":883:968  mapping(address => mapping(address => uint256))... */\n    tag_10:\n      tag_59\n      0x04\n      dup1\n      calldatasize\n      sub\n      dup2\n      add\n      swap1\n      tag_60\n      swap2\n      swap1\n      tag_31\n      jump\t// in\n    tag_60:\n      tag_61\n      jump\t// in\n    tag_59:\n      mload(0x40)\n      tag_62\n      swap2\n      swap1\n      tag_34\n      jump\t// in\n    tag_62:\n      mload(0x40)\n      dup1\n      swap2\n      sub\n      swap1\n      return\n        /* \"StakingToken.sol\":741:809  mapping(address => mapping(address => uint256)) public stakedBalance */\n    tag_11:\n      tag_63\n      0x04\n      dup1\n      calldatasize\n      sub\n      dup2\n      add\n      swap1\n      tag_64\n      swap2\n      swap1\n      tag_31\n      jump\t// in\n    tag_64:\n      tag_65\n      jump\t// in\n    tag_63:\n      mload(0x40)\n      tag_66\n      swap2\n      swap1\n      tag_34\n      jump\t// in\n    tag_66:\n      mload(0x40)\n      dup1\n      swap2\n      sub\n      swap1\n      return\n        /* \"StakingToken.sol\":7993:8197  function getMyStakedBalance(address token) external view returns (uint256) {... */\n    tag_12:\n      tag_67\n      0x04\n      dup1\n      calldatasize\n      sub\n      dup2\n      add\n      swap1\n      tag_68\n      swap2\n      swap1\n      tag_37\n      jump\t// in\n    tag_68:\n      tag_69\n      jump\t// in\n    tag_67:\n      mload(0x40)\n      tag_70\n      swap2\n      swap1\n      tag_34\n      jump\t// in\n    tag_70:\n      mload(0x40)\n      dup1\n      swap2\n      sub\n      swap1\n      return\n        /* \"StakingToken.sol\":7709:7987  function getStakedBalanceTokenByAccount(address token, address account)... */\n    tag_13:\n      tag_71\n      0x04\n      dup1\n      calldatasize\n      sub\n      dup2\n      add\n      swap1\n      tag_72\n      swap2\n      swap1\n      tag_31\n      jump\t// in\n    tag_72:\n      tag_73\n      jump\t// in\n    tag_71:\n      mload(0x40)\n      tag_74\n      swap2\n      swap1\n      tag_34\n      jump\t// in\n    tag_74:\n      mload(0x40)\n      dup1\n      swap2\n      sub\n      swap1\n      return\n        /* \"StakingToken.sol\":974:1029  mapping(address => uint256) public rewardPerTokenStored */\n    tag_14:\n      tag_75\n      0x04\n      dup1\n      calldatasize\n      sub\n      dup2\n      add\n      swap1\n      tag_76\n      swap2\n      swap1\n      tag_37\n      jump\t// in\n    tag_76:\n      tag_77\n      jump\t// in\n    tag_75:\n      mload(0x40)\n      tag_78\n      swap2\n      swap1\n      tag_34\n      jump\t// in\n    tag_78:\n      mload(0x40)\n      dup1\n      swap2\n      sub\n      swap1\n      return\n        /* \"StakingToken.sol\":6006:6764  function withdrawStakedTokens(address token, uint256 amount)... */\n    tag_15:\n      tag_79\n      0x04\n      dup1\n      calldatasize\n      sub\n      dup2\n      add\n      swap1\n      tag_80\n      swap2\n      swap1\n      tag_81\n      jump\t// in\n    tag_80:\n      tag_82\n      jump\t// in\n    tag_79:\n      stop\n        /* \"StakingToken.sol\":5842:6000  function setRewardRate(uint256 newRewardRate) external onlyManager {... */\n    tag_16:\n      tag_83\n      0x04\n      dup1\n      calldatasize\n      sub\n      dup2\n      add\n      swap1\n      tag_84\n      swap2\n      swap1\n      tag_51\n      jump\t// in\n    tag_84:\n      tag_85\n      jump\t// in\n    tag_83:\n      stop\n        /* \"StakingToken.sol\":7285:7703  function transferTokens(... */\n    tag_17:\n      tag_86\n      0x04\n      dup1\n      calldatasize\n      sub\n      dup2\n      add\n      swap1\n      tag_87\n      swap2\n      swap1\n      tag_88\n      jump\t// in\n    tag_87:\n      tag_89\n      jump\t// in\n    tag_86:\n      stop\n        /* \"StakingToken.sol\":3525:3723  function removeManager(address manager) external onlyManager {... */\n    tag_18:\n      tag_90\n      0x04\n      dup1\n      calldatasize\n      sub\n      dup2\n      add\n      swap1\n      tag_91\n      swap2\n      swap1\n      tag_37\n      jump\t// in\n    tag_91:\n      tag_92\n      jump\t// in\n    tag_90:\n      stop\n        /* \"StakingToken.sol\":5154:5836  function stake(address token, uint256 amount)... */\n    tag_19:\n      tag_93\n      0x04\n      dup1\n      calldatasize\n      sub\n      dup2\n      add\n      swap1\n      tag_94\n      swap2\n      swap1\n      tag_81\n      jump\t// in\n    tag_94:\n      tag_95\n      jump\t// in\n    tag_93:\n      stop\n        /* \"StakingToken.sol\":2727:3093  function addTokenToWhiteList(... */\n    tag_20:\n      tag_96\n      0x04\n      dup1\n      calldatasize\n      sub\n      dup2\n      add\n      swap1\n      tag_97\n      swap2\n      swap1\n      tag_98\n      jump\t// in\n    tag_97:\n      tag_99\n      jump\t// in\n    tag_96:\n      stop\n        /* \"StakingToken.sol\":1090:1142  mapping(address => uint256) public totalStakedTokens */\n    tag_21:\n      tag_100\n      0x04\n      dup1\n      calldatasize\n      sub\n      dup2\n      add\n      swap1\n      tag_101\n      swap2\n      swap1\n      tag_37\n      jump\t// in\n    tag_101:\n      tag_102\n      jump\t// in\n    tag_100:\n      mload(0x40)\n      tag_103\n      swap2\n      swap1\n      tag_34\n      jump\t// in\n    tag_103:\n      mload(0x40)\n      dup1\n      swap2\n      sub\n      swap1\n      return\n        /* \"StakingToken.sol\":6770:7279  function getReward(address token)... */\n    tag_22:\n      tag_104\n      0x04\n      dup1\n      calldatasize\n      sub\n      dup2\n      add\n      swap1\n      tag_105\n      swap2\n      swap1\n      tag_37\n      jump\t// in\n    tag_105:\n      tag_106\n      jump\t// in\n    tag_104:\n      stop\n        /* \"StakingToken.sol\":637:689  mapping(address => TokenInfo) public whiteListTokens */\n    tag_23:\n      tag_107\n      0x04\n      dup1\n      calldatasize\n      sub\n      dup2\n      add\n      swap1\n      tag_108\n      swap2\n      swap1\n      tag_37\n      jump\t// in\n    tag_108:\n      tag_109\n      jump\t// in\n    tag_107:\n      mload(0x40)\n      tag_110\n      swap3\n      swap2\n      swap1\n      tag_111\n      jump\t// in\n    tag_110:\n      mload(0x40)\n      dup1\n      swap2\n      sub\n      swap1\n      return\n        /* \"StakingToken.sol\":815:877  mapping(address => mapping(address => uint256)) public rewards */\n    tag_24:\n      tag_112\n      0x04\n      dup1\n      calldatasize\n      sub\n      dup2\n      add\n      swap1\n      tag_113\n      swap2\n      swap1\n      tag_31\n      jump\t// in\n    tag_113:\n      tag_114\n      jump\t// in\n    tag_112:\n      mload(0x40)\n      tag_115\n      swap2\n      swap1\n      tag_34\n      jump\t// in\n    tag_115:\n      mload(0x40)\n      dup1\n      swap2\n      sub\n      swap1\n      return\n        /* \"StakingToken.sol\":3729:4256  function rewardPerToken(address token) public view returns (uint256) {... */\n    tag_25:\n      tag_116\n      0x04\n      dup1\n      calldatasize\n      sub\n      dup2\n      add\n      swap1\n      tag_117\n      swap2\n      swap1\n      tag_37\n      jump\t// in\n    tag_117:\n      tag_118\n      jump\t// in\n    tag_116:\n      mload(0x40)\n      tag_119\n      swap2\n      swap1\n      tag_34\n      jump\t// in\n    tag_119:\n      mload(0x40)\n      dup1\n      swap2\n      sub\n      swap1\n      return\n        /* \"StakingToken.sol\":4262:4751  function earned(address token, address account)... */\n    tag_32:\n        /* \"StakingToken.sol\":4355:4362  uint256 */\n      0x00\n        /* \"StakingToken.sol\":4386:4401  whiteListTokens */\n      0x03\n        /* \"StakingToken.sol\":4386:4408  whiteListTokens[token] */\n      0x00\n        /* \"StakingToken.sol\":4402:4407  token */\n      dup5\n        /* \"StakingToken.sol\":4386:4408  whiteListTokens[token] */\n      0xffffffffffffffffffffffffffffffffffffffff\n      and\n      0xffffffffffffffffffffffffffffffffffffffff\n      and\n      dup2\n      mstore\n      0x20\n      add\n      swap1\n      dup2\n      mstore\n      0x20\n      add\n      0x00\n      keccak256\n        /* \"StakingToken.sol\":4386:4417  whiteListTokens[token].isActive */\n      0x01\n      add\n      0x00\n      swap1\n      sload\n      swap1\n      0x0100\n      exp\n      swap1\n      div\n      0xff\n      and\n        /* \"StakingToken.sol\":4378:4441  require(whiteListTokens[token].isActive, \"Token is not active\") */\n      tag_121\n      jumpi\n      mload(0x40)\n      0x08c379a000000000000000000000000000000000000000000000000000000000\n      dup2\n      mstore\n      0x04\n      add\n      tag_122\n      swap1\n      tag_123\n      jump\t// in\n    tag_122:\n      mload(0x40)\n      dup1\n      swap2\n      sub\n      swap1\n      revert\n    tag_121:\n        /* \"StakingToken.sol\":4470:4744  stakedBalance[token][account]... */\n      tag_124\n        /* \"StakingToken.sol\":4720:4727  rewards */\n      0x06\n        /* \"StakingToken.sol\":4720:4734  rewards[token] */\n      0x00\n        /* \"StakingToken.sol\":4728:4733  token */\n      dup6\n        /* \"StakingToken.sol\":4720:4734  rewards[token] */\n      0xffffffffffffffffffffffffffffffffffffffff\n      and\n      0xffffffffffffffffffffffffffffffffffffffff\n      and\n      dup2\n      mstore\n      0x20\n      add\n      swap1\n      dup2\n      mstore\n      0x20\n      add\n      0x00\n      keccak256\n        /* \"StakingToken.sol\":4720:4743  rewards[token][account] */\n      0x00\n        /* \"StakingToken.sol\":4735:4742  account */\n      dup5\n        /* \"StakingToken.sol\":4720:4743  rewards[token][account] */\n      0xffffffffffffffffffffffffffffffffffffffff\n      and\n      0xffffffffffffffffffffffffffffffffffffffff\n      and\n      dup2\n      mstore\n      0x20\n      add\n      swap1\n      dup2\n      mstore\n      0x20\n      add\n      0x00\n      keccak256\n      sload\n        /* \"StakingToken.sol\":4470:4698  stakedBalance[token][account]... */\n      tag_125\n        /* \"StakingToken.sol\":4693:4697  1e18 */\n      0x0de0b6b3a7640000\n        /* \"StakingToken.sol\":4470:4671  stakedBalance[token][account]... */\n      tag_126\n        /* \"StakingToken.sol\":4542:4653  rewardPerToken(token).sub(... */\n      tag_127\n        /* \"StakingToken.sol\":4593:4615  userRewardPerTokenPaid */\n      0x07\n        /* \"StakingToken.sol\":4593:4622  userRewardPerTokenPaid[token] */\n      0x00\n        /* \"StakingToken.sol\":4616:4621  token */\n      dup11\n        /* \"StakingToken.sol\":4593:4622  userRewardPerTokenPaid[token] */\n      0xffffffffffffffffffffffffffffffffffffffff\n      and\n      0xffffffffffffffffffffffffffffffffffffffff\n      and\n      dup2\n      mstore\n      0x20\n      add\n      swap1\n      dup2\n      mstore\n      0x20\n      add\n      0x00\n      keccak256\n        /* \"StakingToken.sol\":4593:4631  userRewardPerTokenPaid[token][account] */\n      0x00\n        /* \"StakingToken.sol\":4623:4630  account */\n      dup10\n        /* \"StakingToken.sol\":4593:4631  userRewardPerTokenPaid[token][account] */\n      0xffffffffffffffffffffffffffffffffffffffff\n      and\n      0xffffffffffffffffffffffffffffffffffffffff\n      and\n      dup2\n      mstore\n      0x20\n      add\n      swap1\n      dup2\n      mstore\n      0x20\n      add\n      0x00\n      keccak256\n      sload\n        /* \"StakingToken.sol\":4542:4563  rewardPerToken(token) */\n      tag_128\n        /* \"StakingToken.sol\":4557:4562  token */\n      dup11\n        /* \"StakingToken.sol\":4542:4556  rewardPerToken */\n      tag_118\n        /* \"StakingToken.sol\":4542:4563  rewardPerToken(token) */\n      jump\t// in\n    tag_128:\n        /* \"StakingToken.sol\":4542:4567  rewardPerToken(token).sub */\n      tag_129\n      swap1\n        /* \"StakingToken.sol\":4542:4653  rewardPerToken(token).sub(... */\n      swap2\n      swap1\n      0xffffffff\n      and\n      jump\t// in\n    tag_127:\n        /* \"StakingToken.sol\":4470:4483  stakedBalance */\n      0x05\n        /* \"StakingToken.sol\":4470:4490  stakedBalance[token] */\n      0x00\n        /* \"StakingToken.sol\":4484:4489  token */\n      dup11\n        /* \"StakingToken.sol\":4470:4490  stakedBalance[token] */\n      0xffffffffffffffffffffffffffffffffffffffff\n      and\n      0xffffffffffffffffffffffffffffffffffffffff\n      and\n      dup2\n      mstore\n      0x20\n      add\n      swap1\n      dup2\n      mstore\n      0x20\n      add\n      0x00\n      keccak256\n        /* \"StakingToken.sol\":4470:4499  stakedBalance[token][account] */\n      0x00\n        /* \"StakingToken.sol\":4491:4498  account */\n      dup10\n        /* \"StakingToken.sol\":4470:4499  stakedBalance[token][account] */\n      0xffffffffffffffffffffffffffffffffffffffff\n      and\n      0xffffffffffffffffffffffffffffffffffffffff\n      and\n      dup2\n      mstore\n      0x20\n      add\n      swap1\n      dup2\n      mstore\n      0x20\n      add\n      0x00\n      keccak256\n      sload\n        /* \"StakingToken.sol\":4470:4520  stakedBalance[token][account]... */\n      tag_130\n      swap1\n        /* \"StakingToken.sol\":4470:4671  stakedBalance[token][account]... */\n      swap2\n      swap1\n      0xffffffff\n      and\n      jump\t// in\n    tag_126:\n        /* \"StakingToken.sol\":4470:4692  stakedBalance[token][account]... */\n      tag_131\n      swap1\n        /* \"StakingToken.sol\":4470:4698  stakedBalance[token][account]... */\n      swap2\n      swap1\n      0xffffffff\n      and\n      jump\t// in\n    tag_125:\n        /* \"StakingToken.sol\":4470:4719  stakedBalance[token][account]... */\n      tag_132\n      swap1\n        /* \"StakingToken.sol\":4470:4744  stakedBalance[token][account]... */\n      swap2\n      swap1\n      0xffffffff\n      and\n      jump\t// in\n    tag_124:\n        /* \"StakingToken.sol\":4451:4744  return... */\n      swap1\n      pop\n        /* \"StakingToken.sol\":4262:4751  function earned(address token, address account)... */\n      swap3\n      swap2\n      pop\n      pop\n      jump\t// out\n        /* \"StakingToken.sol\":1035:1084  mapping(address => uint256) public lastUpdateTime */\n    tag_38:\n      mstore(0x20, 0x09)\n      dup1\n      0x00\n      mstore\n      keccak256(0x00, 0x40)\n      0x00\n      swap2\n      pop\n      swap1\n      pop\n      sload\n      dup2\n      jump\t// out\n        /* \"StakingToken.sol\":3322:3519  function addManager(address manager) external onlyManager {... */\n    tag_42:\n        /* \"StakingToken.sol\":2641:2649  managers */\n      0x0b\n        /* \"StakingToken.sol\":2641:2661  managers[msg.sender] */\n      0x00\n        /* \"StakingToken.sol\":2650:2660  msg.sender */\n      caller\n        /* \"StakingToken.sol\":2641:2661  managers[msg.sender] */\n      0xffffffffffffffffffffffffffffffffffffffff\n      and\n      0xffffffffffffffffffffffffffffffffffffffff\n      and\n      dup2\n      mstore\n      0x20\n      add\n      swap1\n      dup2\n      mstore\n      0x20\n      add\n      0x00\n      keccak256\n      0x00\n      swap1\n      sload\n      swap1\n      0x0100\n      exp\n      swap1\n      div\n      0xff\n      and\n        /* \"StakingToken.sol\":2641:2684  managers[msg.sender] || owner == msg.sender */\n      dup1\n      tag_134\n      jumpi\n      pop\n        /* \"StakingToken.sol\":2674:2684  msg.sender */\n      caller\n        /* \"StakingToken.sol\":2665:2684  owner == msg.sender */\n      0xffffffffffffffffffffffffffffffffffffffff\n      and\n        /* \"StakingToken.sol\":2665:2670  owner */\n      0x01\n      0x00\n      swap1\n      sload\n      swap1\n      0x0100\n      exp\n      swap1\n      div\n      0xffffffffffffffffffffffffffffffffffffffff\n      and\n        /* \"StakingToken.sol\":2665:2684  owner == msg.sender */\n      0xffffffffffffffffffffffffffffffffffffffff\n      and\n      eq\n        /* \"StakingToken.sol\":2641:2684  managers[msg.sender] || owner == msg.sender */\n    tag_134:\n        /* \"StakingToken.sol\":2633:2703  require(managers[msg.sender] || owner == msg.sender, \"Not authorized\") */\n      tag_135\n      jumpi\n      mload(0x40)\n      0x08c379a000000000000000000000000000000000000000000000000000000000\n      dup2\n      mstore\n      0x04\n      add\n      tag_136\n      swap1\n      tag_137\n      jump\t// in\n    tag_136:\n      mload(0x40)\n      dup1\n      swap2\n      sub\n      swap1\n      revert\n    tag_135:\n        /* \"StakingToken.sol\":3399:3407  managers */\n      0x0b\n        /* \"StakingToken.sol\":3399:3416  managers[manager] */\n      0x00\n        /* \"StakingToken.sol\":3408:3415  manager */\n      dup3\n        /* \"StakingToken.sol\":3399:3416  managers[manager] */\n      0xffffffffffffffffffffffffffffffffffffffff\n      and\n      0xffffffffffffffffffffffffffffffffffffffff\n      and\n      dup2\n      mstore\n      0x20\n      add\n      swap1\n      dup2\n      mstore\n      0x20\n      add\n      0x00\n      keccak256\n      0x00\n      swap1\n      sload\n      swap1\n      0x0100\n      exp\n      swap1\n      div\n      0xff\n      and\n        /* \"StakingToken.sol\":3398:3416  !managers[manager] */\n      iszero\n        /* \"StakingToken.sol\":3390:3442  require(!managers[manager], \"Manager already added\") */\n      tag_139\n      jumpi\n      mload(0x40)\n      0x08c379a000000000000000000000000000000000000000000000000000000000\n      dup2\n      mstore\n      0x04\n      add\n      tag_140\n      swap1\n      tag_141\n      jump\t// in\n    tag_140:\n      mload(0x40)\n      dup1\n      swap2\n      sub\n      swap1\n      revert\n    tag_139:\n        /* \"StakingToken.sol\":3472:3476  true */\n      0x01\n        /* \"StakingToken.sol\":3452:3460  managers */\n      0x0b\n        /* \"StakingToken.sol\":3452:3469  managers[manager] */\n      0x00\n        /* \"StakingToken.sol\":3461:3468  manager */\n      dup4\n        /* \"StakingToken.sol\":3452:3469  managers[manager] */\n      0xffffffffffffffffffffffffffffffffffffffff\n      and\n      0xffffffffffffffffffffffffffffffffffffffff\n      and\n      dup2\n      mstore\n      0x20\n      add\n      swap1\n      dup2\n      mstore\n      0x20\n      add\n      0x00\n      keccak256\n      0x00\n        /* \"StakingToken.sol\":3452:3476  managers[manager] = true */\n      0x0100\n      exp\n      dup2\n      sload\n      dup2\n      0xff\n      mul\n      not\n      and\n      swap1\n      dup4\n      iszero\n      iszero\n      mul\n      or\n      swap1\n      sstore\n      pop\n        /* \"StakingToken.sol\":3504:3511  manager */\n      dup1\n        /* \"StakingToken.sol\":3491:3512  ManagerAdded(manager) */\n      0xffffffffffffffffffffffffffffffffffffffff\n      and\n      0x3b4a40cccf2058c593542587329dd385be4f0b588db5471fbd9598e56dd7093a\n      mload(0x40)\n      mload(0x40)\n      dup1\n      swap2\n      sub\n      swap1\n      log2\n        /* \"StakingToken.sol\":3322:3519  function addManager(address manager) external onlyManager {... */\n      pop\n      jump\t// out\n        /* \"StakingToken.sol\":546:579  uint256 public REWARD_RATE = 1e18 */\n    tag_44:\n      sload(0x02)\n      dup2\n      jump\t// out\n        /* \"StakingToken.sol\":3099:3316  function removeToken(address token) external onlyManager {... */\n    tag_48:\n        /* \"StakingToken.sol\":2641:2649  managers */\n      0x0b\n        /* \"StakingToken.sol\":2641:2661  managers[msg.sender] */\n      0x00\n        /* \"StakingToken.sol\":2650:2660  msg.sender */\n      caller\n        /* \"StakingToken.sol\":2641:2661  managers[msg.sender] */\n      0xffffffffffffffffffffffffffffffffffffffff\n      and\n      0xffffffffffffffffffffffffffffffffffffffff\n      and\n      dup2\n      mstore\n      0x20\n      add\n      swap1\n      dup2\n      mstore\n      0x20\n      add\n      0x00\n      keccak256\n      0x00\n      swap1\n      sload\n      swap1\n      0x0100\n      exp\n      swap1\n      div\n      0xff\n      and\n        /* \"StakingToken.sol\":2641:2684  managers[msg.sender] || owner == msg.sender */\n      dup1\n      tag_143\n      jumpi\n      pop\n        /* \"StakingToken.sol\":2674:2684  msg.sender */\n      caller\n        /* \"StakingToken.sol\":2665:2684  owner == msg.sender */\n      0xffffffffffffffffffffffffffffffffffffffff\n      and\n        /* \"StakingToken.sol\":2665:2670  owner */\n      0x01\n      0x00\n      swap1\n      sload\n      swap1\n      0x0100\n      exp\n      swap1\n      div\n      0xffffffffffffffffffffffffffffffffffffffff\n      and\n        /* \"StakingToken.sol\":2665:2684  owner == msg.sender */\n      0xffffffffffffffffffffffffffffffffffffffff\n      and\n      eq\n        /* \"StakingToken.sol\":2641:2684  managers[msg.sender] || owner == msg.sender */\n    tag_143:\n        /* \"StakingToken.sol\":2633:2703  require(managers[msg.sender] || owner == msg.sender, \"Not authorized\") */\n      tag_144\n      jumpi\n      mload(0x40)\n      0x08c379a000000000000000000000000000000000000000000000000000000000\n      dup2\n      mstore\n      0x04\n      add\n      tag_145\n      swap1\n      tag_137\n      jump\t// in\n    tag_145:\n      mload(0x40)\n      dup1\n      swap2\n      sub\n      swap1\n      revert\n    tag_144:\n        /* \"StakingToken.sol\":3174:3189  whiteListTokens */\n      0x03\n        /* \"StakingToken.sol\":3174:3196  whiteListTokens[token] */\n      0x00\n        /* \"StakingToken.sol\":3190:3195  token */\n      dup3\n        /* \"StakingToken.sol\":3174:3196  whiteListTokens[token] */\n      0xffffffffffffffffffffffffffffffffffffffff\n      and\n      0xffffffffffffffffffffffffffffffffffffffff\n      and\n      dup2\n      mstore\n      0x20\n      add\n      swap1\n      dup2\n      mstore\n      0x20\n      add\n      0x00\n      keccak256\n        /* \"StakingToken.sol\":3174:3205  whiteListTokens[token].isActive */\n      0x01\n      add\n      0x00\n      swap1\n      sload\n      swap1\n      0x0100\n      exp\n      swap1\n      div\n      0xff\n      and\n        /* \"StakingToken.sol\":3166:3226  require(whiteListTokens[token].isActive, \"Token not active\") */\n      tag_147\n      jumpi\n      mload(0x40)\n      0x08c379a000000000000000000000000000000000000000000000000000000000\n      dup2\n      mstore\n      0x04\n      add\n      tag_148\n      swap1\n      tag_149\n      jump\t// in\n    tag_148:\n      mload(0x40)\n      dup1\n      swap2\n      sub\n      swap1\n      revert\n    tag_147:\n        /* \"StakingToken.sol\":3270:3275  false */\n      0x00\n        /* \"StakingToken.sol\":3236:3251  whiteListTokens */\n      0x03\n        /* \"StakingToken.sol\":3236:3258  whiteListTokens[token] */\n      0x00\n        /* \"StakingToken.sol\":3252:3257  token */\n      dup4\n        /* \"StakingToken.sol\":3236:3258  whiteListTokens[token] */\n      0xffffffffffffffffffffffffffffffffffffffff\n      and\n      0xffffffffffffffffffffffffffffffffffffffff\n      and\n      dup2\n      mstore\n      0x20\n      add\n      swap1\n      dup2\n      mstore\n      0x20\n      add\n      0x00\n      keccak256\n        /* \"StakingToken.sol\":3236:3267  whiteListTokens[token].isActive */\n      0x01\n      add\n      0x00\n        /* \"StakingToken.sol\":3236:3275  whiteListTokens[token].isActive = false */\n      0x0100\n      exp\n      dup2\n      sload\n      dup2\n      0xff\n      mul\n      not\n      and\n      swap1\n      dup4\n      iszero\n      iszero\n      mul\n      or\n      swap1\n      sstore\n      pop\n        /* \"StakingToken.sol\":3303:3308  token */\n      dup1\n        /* \"StakingToken.sol\":3290:3309  TokenRemoved(token) */\n      0xffffffffffffffffffffffffffffffffffffffff\n      and\n      0x4c910b69fe65a61f7531b9c5042b2329ca7179c77290aa7e2eb3afa3c8511fd3\n      mload(0x40)\n      mload(0x40)\n      dup1\n      swap2\n      sub\n      swap1\n      log2\n        /* \"StakingToken.sol\":3099:3316  function removeToken(address token) external onlyManager {... */\n      pop\n      jump\t// out\n        /* \"StakingToken.sol\":695:735  address[] public whiteListTokenAddresses */\n    tag_52:\n      0x04\n      dup2\n      dup2\n      sload\n      dup2\n      lt\n      tag_150\n      jumpi\n      0x00\n      dup1\n      revert\n    tag_150:\n      swap1\n      0x00\n      mstore\n      keccak256(0x00, 0x20)\n      add\n      0x00\n      swap2\n      pop\n      sload\n      swap1\n      0x0100\n      exp\n      swap1\n      div\n      0xffffffffffffffffffffffffffffffffffffffff\n      and\n      dup2\n      jump\t// out\n        /* \"StakingToken.sol\":2220:2476  function getMyRole() external view returns (Role) {... */\n    tag_56:\n        /* \"StakingToken.sol\":2264:2268  Role */\n      0x00\n        /* \"StakingToken.sol\":2298:2303  owner */\n      0x01\n      0x00\n      swap1\n      sload\n      swap1\n      0x0100\n      exp\n      swap1\n      div\n      0xffffffffffffffffffffffffffffffffffffffff\n      and\n        /* \"StakingToken.sol\":2284:2303  msg.sender == owner */\n      0xffffffffffffffffffffffffffffffffffffffff\n      and\n        /* \"StakingToken.sol\":2284:2294  msg.sender */\n      caller\n        /* \"StakingToken.sol\":2284:2303  msg.sender == owner */\n      0xffffffffffffffffffffffffffffffffffffffff\n      and\n      sub\n        /* \"StakingToken.sol\":2280:2470  if (msg.sender == owner) {... */\n      tag_153\n      jumpi\n        /* \"StakingToken.sol\":2326:2336  Role.Owner */\n      0x01\n        /* \"StakingToken.sol\":2319:2336  return Role.Owner */\n      swap1\n      pop\n      jump(tag_152)\n        /* \"StakingToken.sol\":2280:2470  if (msg.sender == owner) {... */\n    tag_153:\n        /* \"StakingToken.sol\":2357:2365  managers */\n      0x0b\n        /* \"StakingToken.sol\":2357:2377  managers[msg.sender] */\n      0x00\n        /* \"StakingToken.sol\":2366:2376  msg.sender */\n      caller\n        /* \"StakingToken.sol\":2357:2377  managers[msg.sender] */\n      0xffffffffffffffffffffffffffffffffffffffff\n      and\n      0xffffffffffffffffffffffffffffffffffffffff\n      and\n      dup2\n      mstore\n      0x20\n      add\n      swap1\n      dup2\n      mstore\n      0x20\n      add\n      0x00\n      keccak256\n      0x00\n      swap1\n      sload\n      swap1\n      0x0100\n      exp\n      swap1\n      div\n      0xff\n      and\n        /* \"StakingToken.sol\":2353:2470  if (managers[msg.sender]) {... */\n      iszero\n      tag_155\n      jumpi\n        /* \"StakingToken.sol\":2400:2412  Role.Manager */\n      0x02\n        /* \"StakingToken.sol\":2393:2412  return Role.Manager */\n      swap1\n      pop\n      jump(tag_152)\n        /* \"StakingToken.sol\":2353:2470  if (managers[msg.sender]) {... */\n    tag_155:\n        /* \"StakingToken.sol\":2450:2459  Role.None */\n      0x00\n        /* \"StakingToken.sol\":2443:2459  return Role.None */\n      swap1\n      pop\n        /* \"StakingToken.sol\":2220:2476  function getMyRole() external view returns (Role) {... */\n    tag_152:\n      swap1\n      jump\t// out\n        /* \"StakingToken.sol\":883:968  mapping(address => mapping(address => uint256))... */\n    tag_61:\n      mstore(0x20, 0x07)\n      dup2\n      0x00\n      mstore\n      mstore(0x20, keccak256(0x00, 0x40))\n      dup1\n      0x00\n      mstore\n      keccak256(0x00, 0x40)\n      0x00\n      swap2\n      pop\n      swap2\n      pop\n      pop\n      sload\n      dup2\n      jump\t// out\n        /* \"StakingToken.sol\":741:809  mapping(address => mapping(address => uint256)) public stakedBalance */\n    tag_65:\n      mstore(0x20, 0x05)\n      dup2\n      0x00\n      mstore\n      mstore(0x20, keccak256(0x00, 0x40))\n      dup1\n      0x00\n      mstore\n      keccak256(0x00, 0x40)\n      0x00\n      swap2\n      pop\n      swap2\n      pop\n      pop\n      sload\n      dup2\n      jump\t// out\n        /* \"StakingToken.sol\":7993:8197  function getMyStakedBalance(address token) external view returns (uint256) {... */\n    tag_69:\n        /* \"StakingToken.sol\":8059:8066  uint256 */\n      0x00\n        /* \"StakingToken.sol\":8086:8101  whiteListTokens */\n      0x03\n        /* \"StakingToken.sol\":8086:8108  whiteListTokens[token] */\n      0x00\n        /* \"StakingToken.sol\":8102:8107  token */\n      dup4\n        /* \"StakingToken.sol\":8086:8108  whiteListTokens[token] */\n      0xffffffffffffffffffffffffffffffffffffffff\n      and\n      0xffffffffffffffffffffffffffffffffffffffff\n      and\n      dup2\n      mstore\n      0x20\n      add\n      swap1\n      dup2\n      mstore\n      0x20\n      add\n      0x00\n      keccak256\n        /* \"StakingToken.sol\":8086:8117  whiteListTokens[token].isActive */\n      0x01\n      add\n      0x00\n      swap1\n      sload\n      swap1\n      0x0100\n      exp\n      swap1\n      div\n      0xff\n      and\n        /* \"StakingToken.sol\":8078:8141  require(whiteListTokens[token].isActive, \"Token is not active\") */\n      tag_158\n      jumpi\n      mload(0x40)\n      0x08c379a000000000000000000000000000000000000000000000000000000000\n      dup2\n      mstore\n      0x04\n      add\n      tag_159\n      swap1\n      tag_123\n      jump\t// in\n    tag_159:\n      mload(0x40)\n      dup1\n      swap2\n      sub\n      swap1\n      revert\n    tag_158:\n        /* \"StakingToken.sol\":8158:8171  stakedBalance */\n      0x05\n        /* \"StakingToken.sol\":8158:8178  stakedBalance[token] */\n      0x00\n        /* \"StakingToken.sol\":8172:8177  token */\n      dup4\n        /* \"StakingToken.sol\":8158:8178  stakedBalance[token] */\n      0xffffffffffffffffffffffffffffffffffffffff\n      and\n      0xffffffffffffffffffffffffffffffffffffffff\n      and\n      dup2\n      mstore\n      0x20\n      add\n      swap1\n      dup2\n      mstore\n      0x20\n      add\n      0x00\n      keccak256\n        /* \"StakingToken.sol\":8158:8190  stakedBalance[token][msg.sender] */\n      0x00\n        /* \"StakingToken.sol\":8179:8189  msg.sender */\n      caller\n        /* \"StakingToken.sol\":8158:8190  stakedBalance[token][msg.sender] */\n      0xffffffffffffffffffffffffffffffffffffffff\n      and\n      0xffffffffffffffffffffffffffffffffffffffff\n      and\n      dup2\n      mstore\n      0x20\n      add\n      swap1\n      dup2\n      mstore\n      0x20\n      add\n      0x00\n      keccak256\n      sload\n        /* \"StakingToken.sol\":8151:8190  return stakedBalance[token][msg.sender] */\n      swap1\n      pop\n        /* \"StakingToken.sol\":7993:8197  function getMyStakedBalance(address token) external view returns (uint256) {... */\n      swap2\n      swap1\n      pop\n      jump\t// out\n        /* \"StakingToken.sol\":7709:7987  function getStakedBalanceTokenByAccount(address token, address account)... */\n    tag_73:\n        /* \"StakingToken.sol\":7848:7855  uint256 */\n      0x00\n        /* \"StakingToken.sol\":2641:2649  managers */\n      0x0b\n        /* \"StakingToken.sol\":2641:2661  managers[msg.sender] */\n      0x00\n        /* \"StakingToken.sol\":2650:2660  msg.sender */\n      caller\n        /* \"StakingToken.sol\":2641:2661  managers[msg.sender] */\n      0xffffffffffffffffffffffffffffffffffffffff\n      and\n      0xffffffffffffffffffffffffffffffffffffffff\n      and\n      dup2\n      mstore\n      0x20\n      add\n      swap1\n      dup2\n      mstore\n      0x20\n      add\n      0x00\n      keccak256\n      0x00\n      swap1\n      sload\n      swap1\n      0x0100\n      exp\n      swap1\n      div\n      0xff\n      and\n        /* \"StakingToken.sol\":2641:2684  managers[msg.sender] || owner == msg.sender */\n      dup1\n      tag_161\n      jumpi\n      pop\n        /* \"StakingToken.sol\":2674:2684  msg.sender */\n      caller\n        /* \"StakingToken.sol\":2665:2684  owner == msg.sender */\n      0xffffffffffffffffffffffffffffffffffffffff\n      and\n        /* \"StakingToken.sol\":2665:2670  owner */\n      0x01\n      0x00\n      swap1\n      sload\n      swap1\n      0x0100\n      exp\n      swap1\n      div\n      0xffffffffffffffffffffffffffffffffffffffff\n      and\n        /* \"StakingToken.sol\":2665:2684  owner == msg.sender */\n      0xffffffffffffffffffffffffffffffffffffffff\n      and\n      eq\n        /* \"StakingToken.sol\":2641:2684  managers[msg.sender] || owner == msg.sender */\n    tag_161:\n        /* \"StakingToken.sol\":2633:2703  require(managers[msg.sender] || owner == msg.sender, \"Not authorized\") */\n      tag_162\n      jumpi\n      mload(0x40)\n      0x08c379a000000000000000000000000000000000000000000000000000000000\n      dup2\n      mstore\n      0x04\n      add\n      tag_163\n      swap1\n      tag_137\n      jump\t// in\n    tag_163:\n      mload(0x40)\n      dup1\n      swap2\n      sub\n      swap1\n      revert\n    tag_162:\n        /* \"StakingToken.sol\":7879:7894  whiteListTokens */\n      0x03\n        /* \"StakingToken.sol\":7879:7901  whiteListTokens[token] */\n      0x00\n        /* \"StakingToken.sol\":7895:7900  token */\n      dup5\n        /* \"StakingToken.sol\":7879:7901  whiteListTokens[token] */\n      0xffffffffffffffffffffffffffffffffffffffff\n      and\n      0xffffffffffffffffffffffffffffffffffffffff\n      and\n      dup2\n      mstore\n      0x20\n      add\n      swap1\n      dup2\n      mstore\n      0x20\n      add\n      0x00\n      keccak256\n        /* \"StakingToken.sol\":7879:7910  whiteListTokens[token].isActive */\n      0x01\n      add\n      0x00\n      swap1\n      sload\n      swap1\n      0x0100\n      exp\n      swap1\n      div\n      0xff\n      and\n        /* \"StakingToken.sol\":7871:7934  require(whiteListTokens[token].isActive, \"Token is not active\") */\n      tag_165\n      jumpi\n      mload(0x40)\n      0x08c379a000000000000000000000000000000000000000000000000000000000\n      dup2\n      mstore\n      0x04\n      add\n      tag_166\n      swap1\n      tag_123\n      jump\t// in\n    tag_166:\n      mload(0x40)\n      dup1\n      swap2\n      sub\n      swap1\n      revert\n    tag_165:\n        /* \"StakingToken.sol\":7951:7964  stakedBalance */\n      0x05\n        /* \"StakingToken.sol\":7951:7971  stakedBalance[token] */\n      0x00\n        /* \"StakingToken.sol\":7965:7970  token */\n      dup5\n        /* \"StakingToken.sol\":7951:7971  stakedBalance[token] */\n      0xffffffffffffffffffffffffffffffffffffffff\n      and\n      0xffffffffffffffffffffffffffffffffffffffff\n      and\n      dup2\n      mstore\n      0x20\n      add\n      swap1\n      dup2\n      mstore\n      0x20\n      add\n      0x00\n      keccak256\n        /* \"StakingToken.sol\":7951:7980  stakedBalance[token][account] */\n      0x00\n        /* \"StakingToken.sol\":7972:7979  account */\n      dup4\n        /* \"StakingToken.sol\":7951:7980  stakedBalance[token][account] */\n      0xffffffffffffffffffffffffffffffffffffffff\n      and\n      0xffffffffffffffffffffffffffffffffffffffff\n      and\n      dup2\n      mstore\n      0x20\n      add\n      swap1\n      dup2\n      mstore\n      0x20\n      add\n      0x00\n      keccak256\n      sload\n        /* \"StakingToken.sol\":7944:7980  return stakedBalance[token][account] */\n      swap1\n      pop\n        /* \"StakingToken.sol\":7709:7987  function getStakedBalanceTokenByAccount(address token, address account)... */\n      swap3\n      swap2\n      pop\n      pop\n      jump\t// out\n        /* \"StakingToken.sol\":974:1029  mapping(address => uint256) public rewardPerTokenStored */\n    tag_77:\n      mstore(0x20, 0x08)\n      dup1\n      0x00\n      mstore\n      keccak256(0x00, 0x40)\n      0x00\n      swap2\n      pop\n      swap1\n      pop\n      sload\n      dup2\n      jump\t// out\n        /* \"StakingToken.sol\":6006:6764  function withdrawStakedTokens(address token, uint256 amount)... */\n    tag_82:\n        /* \"@openzeppelin/contracts/security/ReentrancyGuard.sol\":2261:2282  _nonReentrantBefore() */\n      tag_168\n        /* \"@openzeppelin/contracts/security/ReentrancyGuard.sol\":2261:2280  _nonReentrantBefore */\n      tag_169\n        /* \"@openzeppelin/contracts/security/ReentrancyGuard.sol\":2261:2282  _nonReentrantBefore() */\n      jump\t// in\n    tag_168:\n        /* \"StakingToken.sol\":6126:6131  token */\n      dup2\n        /* \"StakingToken.sol\":6133:6143  msg.sender */\n      caller\n        /* \"StakingToken.sol\":4829:4844  whiteListTokens */\n      0x03\n        /* \"StakingToken.sol\":4829:4851  whiteListTokens[token] */\n      0x00\n        /* \"StakingToken.sol\":4845:4850  token */\n      dup4\n        /* \"StakingToken.sol\":4829:4851  whiteListTokens[token] */\n      0xffffffffffffffffffffffffffffffffffffffff\n      and\n      0xffffffffffffffffffffffffffffffffffffffff\n      and\n      dup2\n      mstore\n      0x20\n      add\n      swap1\n      dup2\n      mstore\n      0x20\n      add\n      0x00\n      keccak256\n        /* \"StakingToken.sol\":4829:4860  whiteListTokens[token].isActive */\n      0x01\n      add\n      0x00\n      swap1\n      sload\n      swap1\n      0x0100\n      exp\n      swap1\n      div\n      0xff\n      and\n        /* \"StakingToken.sol\":4821:4884  require(whiteListTokens[token].isActive, \"Token is not active\") */\n      tag_171\n      jumpi\n      mload(0x40)\n      0x08c379a000000000000000000000000000000000000000000000000000000000\n      dup2\n      mstore\n      0x04\n      add\n      tag_172\n      swap1\n      tag_123\n      jump\t// in\n    tag_172:\n      mload(0x40)\n      dup1\n      swap2\n      sub\n      swap1\n      revert\n    tag_171:\n        /* \"StakingToken.sol\":4924:4945  rewardPerToken(token) */\n      tag_173\n        /* \"StakingToken.sol\":4939:4944  token */\n      dup3\n        /* \"StakingToken.sol\":4924:4938  rewardPerToken */\n      tag_118\n        /* \"StakingToken.sol\":4924:4945  rewardPerToken(token) */\n      jump\t// in\n    tag_173:\n        /* \"StakingToken.sol\":4894:4914  rewardPerTokenStored */\n      0x08\n        /* \"StakingToken.sol\":4894:4921  rewardPerTokenStored[token] */\n      0x00\n        /* \"StakingToken.sol\":4915:4920  token */\n      dup5\n        /* \"StakingToken.sol\":4894:4921  rewardPerTokenStored[token] */\n      0xffffffffffffffffffffffffffffffffffffffff\n      and\n      0xffffffffffffffffffffffffffffffffffffffff\n      and\n      dup2\n      mstore\n      0x20\n      add\n      swap1\n      dup2\n      mstore\n      0x20\n      add\n      0x00\n      keccak256\n        /* \"StakingToken.sol\":4894:4945  rewardPerTokenStored[token] = rewardPerToken(token) */\n      dup2\n      swap1\n      sstore\n      pop\n        /* \"StakingToken.sol\":4979:4994  block.timestamp */\n      timestamp\n        /* \"StakingToken.sol\":4955:4969  lastUpdateTime */\n      0x09\n        /* \"StakingToken.sol\":4955:4976  lastUpdateTime[token] */\n      0x00\n        /* \"StakingToken.sol\":4970:4975  token */\n      dup5\n        /* \"StakingToken.sol\":4955:4976  lastUpdateTime[token] */\n      0xffffffffffffffffffffffffffffffffffffffff\n      and\n      0xffffffffffffffffffffffffffffffffffffffff\n      and\n      dup2\n      mstore\n      0x20\n      add\n      swap1\n      dup2\n      mstore\n      0x20\n      add\n      0x00\n      keccak256\n        /* \"StakingToken.sol\":4955:4994  lastUpdateTime[token] = block.timestamp */\n      dup2\n      swap1\n      sstore\n      pop\n        /* \"StakingToken.sol\":5030:5052  earned(token, account) */\n      tag_174\n        /* \"StakingToken.sol\":5037:5042  token */\n      dup3\n        /* \"StakingToken.sol\":5044:5051  account */\n      dup3\n        /* \"StakingToken.sol\":5030:5036  earned */\n      tag_32\n        /* \"StakingToken.sol\":5030:5052  earned(token, account) */\n      jump\t// in\n    tag_174:\n        /* \"StakingToken.sol\":5004:5011  rewards */\n      0x06\n        /* \"StakingToken.sol\":5004:5018  rewards[token] */\n      0x00\n        /* \"StakingToken.sol\":5012:5017  token */\n      dup5\n        /* \"StakingToken.sol\":5004:5018  rewards[token] */\n      0xffffffffffffffffffffffffffffffffffffffff\n      and\n      0xffffffffffffffffffffffffffffffffffffffff\n      and\n      dup2\n      mstore\n      0x20\n      add\n      swap1\n      dup2\n      mstore\n      0x20\n      add\n      0x00\n      keccak256\n        /* \"StakingToken.sol\":5004:5027  rewards[token][account] */\n      0x00\n        /* \"StakingToken.sol\":5019:5026  account */\n      dup4\n        /* \"StakingToken.sol\":5004:5027  rewards[token][account] */\n      0xffffffffffffffffffffffffffffffffffffffff\n      and\n      0xffffffffffffffffffffffffffffffffffffffff\n      and\n      dup2\n      mstore\n      0x20\n      add\n      swap1\n      dup2\n      mstore\n      0x20\n      add\n      0x00\n      keccak256\n        /* \"StakingToken.sol\":5004:5052  rewards[token][account] = earned(token, account) */\n      dup2\n      swap1\n      sstore\n      pop\n        /* \"StakingToken.sol\":5103:5123  rewardPerTokenStored */\n      0x08\n        /* \"StakingToken.sol\":5103:5130  rewardPerTokenStored[token] */\n      0x00\n        /* \"StakingToken.sol\":5124:5129  token */\n      dup4\n        /* \"StakingToken.sol\":5103:5130  rewardPerTokenStored[token] */\n      0xffffffffffffffffffffffffffffffffffffffff\n      and\n      0xffffffffffffffffffffffffffffffffffffffff\n      and\n      dup2\n      mstore\n      0x20\n      add\n      swap1\n      dup2\n      mstore\n      0x20\n      add\n      0x00\n      keccak256\n      sload\n        /* \"StakingToken.sol\":5062:5084  userRewardPerTokenPaid */\n      0x07\n        /* \"StakingToken.sol\":5062:5091  userRewardPerTokenPaid[token] */\n      0x00\n        /* \"StakingToken.sol\":5085:5090  token */\n      dup5\n        /* \"StakingToken.sol\":5062:5091  userRewardPerTokenPaid[token] */\n      0xffffffffffffffffffffffffffffffffffffffff\n      and\n      0xffffffffffffffffffffffffffffffffffffffff\n      and\n      dup2\n      mstore\n      0x20\n      add\n      swap1\n      dup2\n      mstore\n      0x20\n      add\n      0x00\n      keccak256\n        /* \"StakingToken.sol\":5062:5100  userRewardPerTokenPaid[token][account] */\n      0x00\n        /* \"StakingToken.sol\":5092:5099  account */\n      dup4\n        /* \"StakingToken.sol\":5062:5100  userRewardPerTokenPaid[token][account] */\n      0xffffffffffffffffffffffffffffffffffffffff\n      and\n      0xffffffffffffffffffffffffffffffffffffffff\n      and\n      dup2\n      mstore\n      0x20\n      add\n      swap1\n      dup2\n      mstore\n      0x20\n      add\n      0x00\n      keccak256\n        /* \"StakingToken.sol\":5062:5130  userRewardPerTokenPaid[token][account] = rewardPerTokenStored[token] */\n      dup2\n      swap1\n      sstore\n      pop\n        /* \"StakingToken.sol\":6167:6182  whiteListTokens */\n      0x03\n        /* \"StakingToken.sol\":6167:6189  whiteListTokens[token] */\n      0x00\n        /* \"StakingToken.sol\":6183:6188  token */\n      dup6\n        /* \"StakingToken.sol\":6167:6189  whiteListTokens[token] */\n      0xffffffffffffffffffffffffffffffffffffffff\n      and\n      0xffffffffffffffffffffffffffffffffffffffff\n      and\n      dup2\n      mstore\n      0x20\n      add\n      swap1\n      dup2\n      mstore\n      0x20\n      add\n      0x00\n      keccak256\n        /* \"StakingToken.sol\":6167:6198  whiteListTokens[token].isActive */\n      0x01\n      add\n      0x00\n      swap1\n      sload\n      swap1\n      0x0100\n      exp\n      swap1\n      div\n      0xff\n      and\n        /* \"StakingToken.sol\":6159:6222  require(whiteListTokens[token].isActive, \"Token is not active\") */\n      tag_176\n      jumpi\n      mload(0x40)\n      0x08c379a000000000000000000000000000000000000000000000000000000000\n      dup2\n      mstore\n      0x04\n      add\n      tag_177\n      swap1\n      tag_123\n      jump\t// in\n    tag_177:\n      mload(0x40)\n      dup1\n      swap2\n      sub\n      swap1\n      revert\n    tag_176:\n        /* \"StakingToken.sol\":6249:6250  0 */\n      0x00\n        /* \"StakingToken.sol\":6240:6246  amount */\n      dup4\n        /* \"StakingToken.sol\":6240:6250  amount > 0 */\n      gt\n        /* \"StakingToken.sol\":6232:6287  require(amount > 0, \"Amount must be greater than zero\") */\n      tag_178\n      jumpi\n      mload(0x40)\n      0x08c379a000000000000000000000000000000000000000000000000000000000\n      dup2\n      mstore\n      0x04\n      add\n      tag_179\n      swap1\n      tag_180\n      jump\t// in\n    tag_179:\n      mload(0x40)\n      dup1\n      swap2\n      sub\n      swap1\n      revert\n    tag_178:\n        /* \"StakingToken.sol\":6354:6360  amount */\n      dup3\n        /* \"StakingToken.sol\":6318:6331  stakedBalance */\n      0x05\n        /* \"StakingToken.sol\":6318:6338  stakedBalance[token] */\n      0x00\n        /* \"StakingToken.sol\":6332:6337  token */\n      dup7\n        /* \"StakingToken.sol\":6318:6338  stakedBalance[token] */\n      0xffffffffffffffffffffffffffffffffffffffff\n      and\n      0xffffffffffffffffffffffffffffffffffffffff\n      and\n      dup2\n      mstore\n      0x20\n      add\n      swap1\n      dup2\n      mstore\n      0x20\n      add\n      0x00\n      keccak256\n        /* \"StakingToken.sol\":6318:6350  stakedBalance[token][msg.sender] */\n      0x00\n        /* \"StakingToken.sol\":6339:6349  msg.sender */\n      caller\n        /* \"StakingToken.sol\":6318:6350  stakedBalance[token][msg.sender] */\n      0xffffffffffffffffffffffffffffffffffffffff\n      and\n      0xffffffffffffffffffffffffffffffffffffffff\n      and\n      dup2\n      mstore\n      0x20\n      add\n      swap1\n      dup2\n      mstore\n      0x20\n      add\n      0x00\n      keccak256\n      sload\n        /* \"StakingToken.sol\":6318:6360  stakedBalance[token][msg.sender] >= amount */\n      lt\n      iszero\n        /* \"StakingToken.sol\":6297:6410  require(... */\n      tag_181\n      jumpi\n      mload(0x40)\n      0x08c379a000000000000000000000000000000000000000000000000000000000\n      dup2\n      mstore\n      0x04\n      add\n      tag_182\n      swap1\n      tag_183\n      jump\t// in\n    tag_182:\n      mload(0x40)\n      dup1\n      swap2\n      sub\n      swap1\n      revert\n    tag_181:\n        /* \"StakingToken.sol\":6447:6483  totalStakedTokens[token].sub(amount) */\n      tag_184\n        /* \"StakingToken.sol\":6476:6482  amount */\n      dup4\n        /* \"StakingToken.sol\":6447:6464  totalStakedTokens */\n      0x0a\n        /* \"StakingToken.sol\":6447:6471  totalStakedTokens[token] */\n      0x00\n        /* \"StakingToken.sol\":6465:6470  token */\n      dup8\n        /* \"StakingToken.sol\":6447:6471  totalStakedTokens[token] */\n      0xffffffffffffffffffffffffffffffffffffffff\n      and\n      0xffffffffffffffffffffffffffffffffffffffff\n      and\n      dup2\n      mstore\n      0x20\n      add\n      swap1\n      dup2\n      mstore\n      0x20\n      add\n      0x00\n      keccak256\n      sload\n        /* \"StakingToken.sol\":6447:6475  totalStakedTokens[token].sub */\n      tag_129\n      swap1\n        /* \"StakingToken.sol\":6447:6483  totalStakedTokens[token].sub(amount) */\n      swap2\n      swap1\n      0xffffffff\n      and\n      jump\t// in\n    tag_184:\n        /* \"StakingToken.sol\":6420:6437  totalStakedTokens */\n      0x0a\n        /* \"StakingToken.sol\":6420:6444  totalStakedTokens[token] */\n      0x00\n        /* \"StakingToken.sol\":6438:6443  token */\n      dup7\n        /* \"StakingToken.sol\":6420:6444  totalStakedTokens[token] */\n      0xffffffffffffffffffffffffffffffffffffffff\n      and\n      0xffffffffffffffffffffffffffffffffffffffff\n      and\n      dup2\n      mstore\n      0x20\n      add\n      swap1\n      dup2\n      mstore\n      0x20\n      add\n      0x00\n      keccak256\n        /* \"StakingToken.sol\":6420:6483  totalStakedTokens[token] = totalStakedTokens[token].sub(amount) */\n      dup2\n      swap1\n      sstore\n      pop\n        /* \"StakingToken.sol\":6528:6594  stakedBalance[token][msg.sender].sub(... */\n      tag_185\n        /* \"StakingToken.sol\":6578:6584  amount */\n      dup4\n        /* \"StakingToken.sol\":6528:6541  stakedBalance */\n      0x05\n        /* \"StakingToken.sol\":6528:6548  stakedBalance[token] */\n      0x00\n        /* \"StakingToken.sol\":6542:6547  token */\n      dup8\n        /* \"StakingToken.sol\":6528:6548  stakedBalance[token] */\n      0xffffffffffffffffffffffffffffffffffffffff\n      and\n      0xffffffffffffffffffffffffffffffffffffffff\n      and\n      dup2\n      mstore\n      0x20\n      add\n      swap1\n      dup2\n      mstore\n      0x20\n      add\n      0x00\n      keccak256\n        /* \"StakingToken.sol\":6528:6560  stakedBalance[token][msg.sender] */\n      0x00\n        /* \"StakingToken.sol\":6549:6559  msg.sender */\n      caller\n        /* \"StakingToken.sol\":6528:6560  stakedBalance[token][msg.sender] */\n      0xffffffffffffffffffffffffffffffffffffffff\n      and\n      0xffffffffffffffffffffffffffffffffffffffff\n      and\n      dup2\n      mstore\n      0x20\n      add\n      swap1\n      dup2\n      mstore\n      0x20\n      add\n      0x00\n      keccak256\n      sload\n        /* \"StakingToken.sol\":6528:6564  stakedBalance[token][msg.sender].sub */\n      tag_129\n      swap1\n        /* \"StakingToken.sol\":6528:6594  stakedBalance[token][msg.sender].sub(... */\n      swap2\n      swap1\n      0xffffffff\n      and\n      jump\t// in\n    tag_185:\n        /* \"StakingToken.sol\":6493:6506  stakedBalance */\n      0x05\n        /* \"StakingToken.sol\":6493:6513  stakedBalance[token] */\n      0x00\n        /* \"StakingToken.sol\":6507:6512  token */\n      dup7\n        /* \"StakingToken.sol\":6493:6513  stakedBalance[token] */\n      0xffffffffffffffffffffffffffffffffffffffff\n      and\n      0xffffffffffffffffffffffffffffffffffffffff\n      and\n      dup2\n      mstore\n      0x20\n      add\n      swap1\n      dup2\n      mstore\n      0x20\n      add\n      0x00\n      keccak256\n        /* \"StakingToken.sol\":6493:6525  stakedBalance[token][msg.sender] */\n      0x00\n        /* \"StakingToken.sol\":6514:6524  msg.sender */\n      caller\n        /* \"StakingToken.sol\":6493:6525  stakedBalance[token][msg.sender] */\n      0xffffffffffffffffffffffffffffffffffffffff\n      and\n      0xffffffffffffffffffffffffffffffffffffffff\n      and\n      dup2\n      mstore\n      0x20\n      add\n      swap1\n      dup2\n      mstore\n      0x20\n      add\n      0x00\n      keccak256\n        /* \"StakingToken.sol\":6493:6594  stakedBalance[token][msg.sender] = stakedBalance[token][msg.sender].sub(... */\n      dup2\n      swap1\n      sstore\n      pop\n        /* \"StakingToken.sol\":6638:6644  amount */\n      dup3\n        /* \"StakingToken.sol\":6631:6636  token */\n      dup5\n        /* \"StakingToken.sol\":6609:6645  Withdrawn(msg.sender, token, amount) */\n      0xffffffffffffffffffffffffffffffffffffffff\n      and\n        /* \"StakingToken.sol\":6619:6629  msg.sender */\n      caller\n        /* \"StakingToken.sol\":6609:6645  Withdrawn(msg.sender, token, amount) */\n      0xffffffffffffffffffffffffffffffffffffffff\n      and\n      0xd1c19fbcd4551a5edfb66d43d2e337c04837afda3482b42bdf569a8fccdae5fb\n      mload(0x40)\n      mload(0x40)\n      dup1\n      swap2\n      sub\n      swap1\n      log4\n        /* \"StakingToken.sol\":6655:6667  bool success */\n      0x00\n        /* \"StakingToken.sol\":6677:6682  token */\n      dup5\n        /* \"StakingToken.sol\":6670:6692  IERC20(token).transfer */\n      0xffffffffffffffffffffffffffffffffffffffff\n      and\n      0xa9059cbb\n        /* \"StakingToken.sol\":6693:6703  msg.sender */\n      caller\n        /* \"StakingToken.sol\":6705:6711  amount */\n      dup7\n        /* \"StakingToken.sol\":6670:6712  IERC20(token).transfer(msg.sender, amount) */\n      mload(0x40)\n      dup4\n      0xffffffff\n      and\n      0xe0\n      shl\n      dup2\n      mstore\n      0x04\n      add\n      tag_186\n      swap3\n      swap2\n      swap1\n      tag_187\n      jump\t// in\n    tag_186:\n      0x20\n      mload(0x40)\n      dup1\n      dup4\n      sub\n      dup2\n      0x00\n      dup8\n      gas\n      call\n      iszero\n      dup1\n      iszero\n      tag_189\n      jumpi\n      returndatasize\n      0x00\n      dup1\n      returndatacopy\n      revert(0x00, returndatasize)\n    tag_189:\n      pop\n      pop\n      pop\n      pop\n      mload(0x40)\n      returndatasize\n      not(0x1f)\n      0x1f\n      dup3\n      add\n      and\n      dup3\n      add\n      dup1\n      0x40\n      mstore\n      pop\n      dup2\n      add\n      swap1\n      tag_190\n      swap2\n      swap1\n      tag_191\n      jump\t// in\n    tag_190:\n        /* \"StakingToken.sol\":6655:6712  bool success = IERC20(token).transfer(msg.sender, amount) */\n      swap1\n      pop\n        /* \"StakingToken.sol\":6730:6737  success */\n      dup1\n        /* \"StakingToken.sol\":6722:6757  require(success, \"Transfer Failed\") */\n      tag_192\n      jumpi\n      mload(0x40)\n      0x08c379a000000000000000000000000000000000000000000000000000000000\n      dup2\n      mstore\n      0x04\n      add\n      tag_193\n      swap1\n      tag_194\n      jump\t// in\n    tag_193:\n      mload(0x40)\n      dup1\n      swap2\n      sub\n      swap1\n      revert\n    tag_192:\n        /* \"StakingToken.sol\":6149:6764  {... */\n      pop\n        /* \"@openzeppelin/contracts/security/ReentrancyGuard.sol\":2292:2293  _ */\n      pop\n      pop\n        /* \"@openzeppelin/contracts/security/ReentrancyGuard.sol\":2303:2323  _nonReentrantAfter() */\n      tag_195\n        /* \"@openzeppelin/contracts/security/ReentrancyGuard.sol\":2303:2321  _nonReentrantAfter */\n      tag_196\n        /* \"@openzeppelin/contracts/security/ReentrancyGuard.sol\":2303:2323  _nonReentrantAfter() */\n      jump\t// in\n    tag_195:\n        /* \"StakingToken.sol\":6006:6764  function withdrawStakedTokens(address token, uint256 amount)... */\n      pop\n      pop\n      jump\t// out\n        /* \"StakingToken.sol\":5842:6000  function setRewardRate(uint256 newRewardRate) external onlyManager {... */\n    tag_85:\n        /* \"StakingToken.sol\":2641:2649  managers */\n      0x0b\n        /* \"StakingToken.sol\":2641:2661  managers[msg.sender] */\n      0x00\n        /* \"StakingToken.sol\":2650:2660  msg.sender */\n      caller\n        /* \"StakingToken.sol\":2641:2661  managers[msg.sender] */\n      0xffffffffffffffffffffffffffffffffffffffff\n      and\n      0xffffffffffffffffffffffffffffffffffffffff\n      and\n      dup2\n      mstore\n      0x20\n      add\n      swap1\n      dup2\n      mstore\n      0x20\n      add\n      0x00\n      keccak256\n      0x00\n      swap1\n      sload\n      swap1\n      0x0100\n      exp\n      swap1\n      div\n      0xff\n      and\n        /* \"StakingToken.sol\":2641:2684  managers[msg.sender] || owner == msg.sender */\n      dup1\n      tag_198\n      jumpi\n      pop\n        /* \"StakingToken.sol\":2674:2684  msg.sender */\n      caller\n        /* \"StakingToken.sol\":2665:2684  owner == msg.sender */\n      0xffffffffffffffffffffffffffffffffffffffff\n      and\n        /* \"StakingToken.sol\":2665:2670  owner */\n      0x01\n      0x00\n      swap1\n      sload\n      swap1\n      0x0100\n      exp\n      swap1\n      div\n      0xffffffffffffffffffffffffffffffffffffffff\n      and\n        /* \"StakingToken.sol\":2665:2684  owner == msg.sender */\n      0xffffffffffffffffffffffffffffffffffffffff\n      and\n      eq\n        /* \"StakingToken.sol\":2641:2684  managers[msg.sender] || owner == msg.sender */\n    tag_198:\n        /* \"StakingToken.sol\":2633:2703  require(managers[msg.sender] || owner == msg.sender, \"Not authorized\") */\n      tag_199\n      jumpi\n      mload(0x40)\n      0x08c379a000000000000000000000000000000000000000000000000000000000\n      dup2\n      mstore\n      0x04\n      add\n      tag_200\n      swap1\n      tag_137\n      jump\t// in\n    tag_200:\n      mload(0x40)\n      dup1\n      swap2\n      sub\n      swap1\n      revert\n    tag_199:\n        /* \"StakingToken.sol\":5933:5946  newRewardRate */\n      dup1\n        /* \"StakingToken.sol\":5919:5930  REWARD_RATE */\n      0x02\n        /* \"StakingToken.sol\":5919:5946  REWARD_RATE = newRewardRate */\n      dup2\n      swap1\n      sstore\n      pop\n        /* \"StakingToken.sol\":5961:5993  RewardRateUpdated(newRewardRate) */\n      0x41d466ebd06fb97e7786086ac8b69b7eb7da798592036251291d34e9791cde01\n        /* \"StakingToken.sol\":5979:5992  newRewardRate */\n      dup2\n        /* \"StakingToken.sol\":5961:5993  RewardRateUpdated(newRewardRate) */\n      mload(0x40)\n      tag_202\n      swap2\n      swap1\n      tag_34\n      jump\t// in\n    tag_202:\n      mload(0x40)\n      dup1\n      swap2\n      sub\n      swap1\n      log1\n        /* \"StakingToken.sol\":5842:6000  function setRewardRate(uint256 newRewardRate) external onlyManager {... */\n      pop\n      jump\t// out\n        /* \"StakingToken.sol\":7285:7703  function transferTokens(... */\n    tag_89:\n        /* \"StakingToken.sol\":2641:2649  managers */\n      0x0b\n        /* \"StakingToken.sol\":2641:2661  managers[msg.sender] */\n      0x00\n        /* \"StakingToken.sol\":2650:2660  msg.sender */\n      caller\n        /* \"StakingToken.sol\":2641:2661  managers[msg.sender] */\n      0xffffffffffffffffffffffffffffffffffffffff\n      and\n      0xffffffffffffffffffffffffffffffffffffffff\n      and\n      dup2\n      mstore\n      0x20\n      add\n      swap1\n      dup2\n      mstore\n      0x20\n      add\n      0x00\n      keccak256\n      0x00\n      swap1\n      sload\n      swap1\n      0x0100\n      exp\n      swap1\n      div\n      0xff\n      and\n        /* \"StakingToken.sol\":2641:2684  managers[msg.sender] || owner == msg.sender */\n      dup1\n      tag_204\n      jumpi\n      pop\n        /* \"StakingToken.sol\":2674:2684  msg.sender */\n      caller\n        /* \"StakingToken.sol\":2665:2684  owner == msg.sender */\n      0xffffffffffffffffffffffffffffffffffffffff\n      and\n        /* \"StakingToken.sol\":2665:2670  owner */\n      0x01\n      0x00\n      swap1\n      sload\n      swap1\n      0x0100\n      exp\n      swap1\n      div\n      0xffffffffffffffffffffffffffffffffffffffff\n      and\n        /* \"StakingToken.sol\":2665:2684  owner == msg.sender */\n      0xffffffffffffffffffffffffffffffffffffffff\n      and\n      eq\n        /* \"StakingToken.sol\":2641:2684  managers[msg.sender] || owner == msg.sender */\n    tag_204:\n        /* \"StakingToken.sol\":2633:2703  require(managers[msg.sender] || owner == msg.sender, \"Not authorized\") */\n      tag_205\n      jumpi\n      mload(0x40)\n      0x08c379a000000000000000000000000000000000000000000000000000000000\n      dup2\n      mstore\n      0x04\n      add\n      tag_206\n      swap1\n      tag_137\n      jump\t// in\n    tag_206:\n      mload(0x40)\n      dup1\n      swap2\n      sub\n      swap1\n      revert\n    tag_205:\n        /* \"StakingToken.sol\":7421:7436  whiteListTokens */\n      0x03\n        /* \"StakingToken.sol\":7421:7443  whiteListTokens[token] */\n      0x00\n        /* \"StakingToken.sol\":7437:7442  token */\n      dup5\n        /* \"StakingToken.sol\":7421:7443  whiteListTokens[token] */\n      0xffffffffffffffffffffffffffffffffffffffff\n      and\n      0xffffffffffffffffffffffffffffffffffffffff\n      and\n      dup2\n      mstore\n      0x20\n      add\n      swap1\n      dup2\n      mstore\n      0x20\n      add\n      0x00\n      keccak256\n        /* \"StakingToken.sol\":7421:7452  whiteListTokens[token].isActive */\n      0x01\n      add\n      0x00\n      swap1\n      sload\n      swap1\n      0x0100\n      exp\n      swap1\n      div\n      0xff\n      and\n        /* \"StakingToken.sol\":7413:7476  require(whiteListTokens[token].isActive, \"Token is not active\") */\n      tag_208\n      jumpi\n      mload(0x40)\n      0x08c379a000000000000000000000000000000000000000000000000000000000\n      dup2\n      mstore\n      0x04\n      add\n      tag_209\n      swap1\n      tag_123\n      jump\t// in\n    tag_209:\n      mload(0x40)\n      dup1\n      swap2\n      sub\n      swap1\n      revert\n    tag_208:\n        /* \"StakingToken.sol\":7503:7504  0 */\n      0x00\n        /* \"StakingToken.sol\":7494:7500  amount */\n      dup2\n        /* \"StakingToken.sol\":7494:7504  amount > 0 */\n      gt\n        /* \"StakingToken.sol\":7486:7541  require(amount > 0, \"Amount must be greater than zero\") */\n      tag_210\n      jumpi\n      mload(0x40)\n      0x08c379a000000000000000000000000000000000000000000000000000000000\n      dup2\n      mstore\n      0x04\n      add\n      tag_211\n      swap1\n      tag_180\n      jump\t// in\n    tag_211:\n      mload(0x40)\n      dup1\n      swap2\n      sub\n      swap1\n      revert\n    tag_210:\n        /* \"StakingToken.sol\":7551:7563  bool success */\n      0x00\n        /* \"StakingToken.sol\":7573:7578  token */\n      dup4\n        /* \"StakingToken.sol\":7566:7588  IERC20(token).transfer */\n      0xffffffffffffffffffffffffffffffffffffffff\n      and\n      0xa9059cbb\n        /* \"StakingToken.sol\":7589:7591  to */\n      dup5\n        /* \"StakingToken.sol\":7593:7599  amount */\n      dup5\n        /* \"StakingToken.sol\":7566:7600  IERC20(token).transfer(to, amount) */\n      mload(0x40)\n      dup4\n      0xffffffff\n      and\n      0xe0\n      shl\n      dup2\n      mstore\n      0x04\n      add\n      tag_212\n      swap3\n      swap2\n      swap1\n      tag_187\n      jump\t// in\n    tag_212:\n      0x20\n      mload(0x40)\n      dup1\n      dup4\n      sub\n      dup2\n      0x00\n      dup8\n      gas\n      call\n      iszero\n      dup1\n      iszero\n      tag_214\n      jumpi\n      returndatasize\n      0x00\n      dup1\n      returndatacopy\n      revert(0x00, returndatasize)\n    tag_214:\n      pop\n      pop\n      pop\n      pop\n      mload(0x40)\n      returndatasize\n      not(0x1f)\n      0x1f\n      dup3\n      add\n      and\n      dup3\n      add\n      dup1\n      0x40\n      mstore\n      pop\n      dup2\n      add\n      swap1\n      tag_215\n      swap2\n      swap1\n      tag_191\n      jump\t// in\n    tag_215:\n        /* \"StakingToken.sol\":7551:7600  bool success = IERC20(token).transfer(to, amount) */\n      swap1\n      pop\n        /* \"StakingToken.sol\":7618:7625  success */\n      dup1\n        /* \"StakingToken.sol\":7610:7645  require(success, \"Transfer Failed\") */\n      tag_216\n      jumpi\n      mload(0x40)\n      0x08c379a000000000000000000000000000000000000000000000000000000000\n      dup2\n      mstore\n      0x04\n      add\n      tag_217\n      swap1\n      tag_194\n      jump\t// in\n    tag_217:\n      mload(0x40)\n      dup1\n      swap2\n      sub\n      swap1\n      revert\n    tag_216:\n        /* \"StakingToken.sol\":7685:7687  to */\n      dup3\n        /* \"StakingToken.sol\":7660:7696  TokensTransferred(token, to, amount) */\n      0xffffffffffffffffffffffffffffffffffffffff\n      and\n        /* \"StakingToken.sol\":7678:7683  token */\n      dup5\n        /* \"StakingToken.sol\":7660:7696  TokensTransferred(token, to, amount) */\n      0xffffffffffffffffffffffffffffffffffffffff\n      and\n      0x1b89874203ff7f0bba87c969ada3f32fda22ed38a6706d35199d21280c7811b1\n        /* \"StakingToken.sol\":7689:7695  amount */\n      dup5\n        /* \"StakingToken.sol\":7660:7696  TokensTransferred(token, to, amount) */\n      mload(0x40)\n      tag_218\n      swap2\n      swap1\n      tag_34\n      jump\t// in\n    tag_218:\n      mload(0x40)\n      dup1\n      swap2\n      sub\n      swap1\n      log3\n        /* \"StakingToken.sol\":7403:7703  {... */\n      pop\n        /* \"StakingToken.sol\":7285:7703  function transferTokens(... */\n      pop\n      pop\n      pop\n      jump\t// out\n        /* \"StakingToken.sol\":3525:3723  function removeManager(address manager) external onlyManager {... */\n    tag_92:\n        /* \"StakingToken.sol\":2641:2649  managers */\n      0x0b\n        /* \"StakingToken.sol\":2641:2661  managers[msg.sender] */\n      0x00\n        /* \"StakingToken.sol\":2650:2660  msg.sender */\n      caller\n        /* \"StakingToken.sol\":2641:2661  managers[msg.sender] */\n      0xffffffffffffffffffffffffffffffffffffffff\n      and\n      0xffffffffffffffffffffffffffffffffffffffff\n      and\n      dup2\n      mstore\n      0x20\n      add\n      swap1\n      dup2\n      mstore\n      0x20\n      add\n      0x00\n      keccak256\n      0x00\n      swap1\n      sload\n      swap1\n      0x0100\n      exp\n      swap1\n      div\n      0xff\n      and\n        /* \"StakingToken.sol\":2641:2684  managers[msg.sender] || owner == msg.sender */\n      dup1\n      tag_220\n      jumpi\n      pop\n        /* \"StakingToken.sol\":2674:2684  msg.sender */\n      caller\n        /* \"StakingToken.sol\":2665:2684  owner == msg.sender */\n      0xffffffffffffffffffffffffffffffffffffffff\n      and\n        /* \"StakingToken.sol\":2665:2670  owner */\n      0x01\n      0x00\n      swap1\n      sload\n      swap1\n      0x0100\n      exp\n      swap1\n      div\n      0xffffffffffffffffffffffffffffffffffffffff\n      and\n        /* \"StakingToken.sol\":2665:2684  owner == msg.sender */\n      0xffffffffffffffffffffffffffffffffffffffff\n      and\n      eq\n        /* \"StakingToken.sol\":2641:2684  managers[msg.sender] || owner == msg.sender */\n    tag_220:\n        /* \"StakingToken.sol\":2633:2703  require(managers[msg.sender] || owner == msg.sender, \"Not authorized\") */\n      tag_221\n      jumpi\n      mload(0x40)\n      0x08c379a000000000000000000000000000000000000000000000000000000000\n      dup2\n      mstore\n      0x04\n      add\n      tag_222\n      swap1\n      tag_137\n      jump\t// in\n    tag_222:\n      mload(0x40)\n      dup1\n      swap2\n      sub\n      swap1\n      revert\n    tag_221:\n        /* \"StakingToken.sol\":3604:3612  managers */\n      0x0b\n        /* \"StakingToken.sol\":3604:3621  managers[manager] */\n      0x00\n        /* \"StakingToken.sol\":3613:3620  manager */\n      dup3\n        /* \"StakingToken.sol\":3604:3621  managers[manager] */\n      0xffffffffffffffffffffffffffffffffffffffff\n      and\n      0xffffffffffffffffffffffffffffffffffffffff\n      and\n      dup2\n      mstore\n      0x20\n      add\n      swap1\n      dup2\n      mstore\n      0x20\n      add\n      0x00\n      keccak256\n      0x00\n      swap1\n      sload\n      swap1\n      0x0100\n      exp\n      swap1\n      div\n      0xff\n      and\n        /* \"StakingToken.sol\":3596:3643  require(managers[manager], \"Manager not found\") */\n      tag_224\n      jumpi\n      mload(0x40)\n      0x08c379a000000000000000000000000000000000000000000000000000000000\n      dup2\n      mstore\n      0x04\n      add\n      tag_225\n      swap1\n      tag_226\n      jump\t// in\n    tag_225:\n      mload(0x40)\n      dup1\n      swap2\n      sub\n      swap1\n      revert\n    tag_224:\n        /* \"StakingToken.sol\":3673:3678  false */\n      0x00\n        /* \"StakingToken.sol\":3653:3661  managers */\n      0x0b\n        /* \"StakingToken.sol\":3653:3670  managers[manager] */\n      0x00\n        /* \"StakingToken.sol\":3662:3669  manager */\n      dup4\n        /* \"StakingToken.sol\":3653:3670  managers[manager] */\n      0xffffffffffffffffffffffffffffffffffffffff\n      and\n      0xffffffffffffffffffffffffffffffffffffffff\n      and\n      dup2\n      mstore\n      0x20\n      add\n      swap1\n      dup2\n      mstore\n      0x20\n      add\n      0x00\n      keccak256\n      0x00\n        /* \"StakingToken.sol\":3653:3678  managers[manager] = false */\n      0x0100\n      exp\n      dup2\n      sload\n      dup2\n      0xff\n      mul\n      not\n      and\n      swap1\n      dup4\n      iszero\n      iszero\n      mul\n      or\n      swap1\n      sstore\n      pop\n        /* \"StakingToken.sol\":3708:3715  manager */\n      dup1\n        /* \"StakingToken.sol\":3693:3716  ManagerRemoved(manager) */\n      0xffffffffffffffffffffffffffffffffffffffff\n      and\n      0xef69f7d97228658c92417be1b16b19058315de71fecb435d07b7d23728b6bd31\n      mload(0x40)\n      mload(0x40)\n      dup1\n      swap2\n      sub\n      swap1\n      log2\n        /* \"StakingToken.sol\":3525:3723  function removeManager(address manager) external onlyManager {... */\n      pop\n      jump\t// out\n        /* \"StakingToken.sol\":5154:5836  function stake(address token, uint256 amount)... */\n    tag_95:\n        /* \"@openzeppelin/contracts/security/ReentrancyGuard.sol\":2261:2282  _nonReentrantBefore() */\n      tag_228\n        /* \"@openzeppelin/contracts/security/ReentrancyGuard.sol\":2261:2280  _nonReentrantBefore */\n      tag_169\n        /* \"@openzeppelin/contracts/security/ReentrancyGuard.sol\":2261:2282  _nonReentrantBefore() */\n      jump\t// in\n    tag_228:\n        /* \"StakingToken.sol\":5259:5264  token */\n      dup2\n        /* \"StakingToken.sol\":5266:5276  msg.sender */\n      caller\n        /* \"StakingToken.sol\":4829:4844  whiteListTokens */\n      0x03\n        /* \"StakingToken.sol\":4829:4851  whiteListTokens[token] */\n      0x00\n        /* \"StakingToken.sol\":4845:4850  token */\n      dup4\n        /* \"StakingToken.sol\":4829:4851  whiteListTokens[token] */\n      0xffffffffffffffffffffffffffffffffffffffff\n      and\n      0xffffffffffffffffffffffffffffffffffffffff\n      and\n      dup2\n      mstore\n      0x20\n      add\n      swap1\n      dup2\n      mstore\n      0x20\n      add\n      0x00\n      keccak256\n        /* \"StakingToken.sol\":4829:4860  whiteListTokens[token].isActive */\n      0x01\n      add\n      0x00\n      swap1\n      sload\n      swap1\n      0x0100\n      exp\n      swap1\n      div\n      0xff\n      and\n        /* \"StakingToken.sol\":4821:4884  require(whiteListTokens[token].isActive, \"Token is not active\") */\n      tag_230\n      jumpi\n      mload(0x40)\n      0x08c379a000000000000000000000000000000000000000000000000000000000\n      dup2\n      mstore\n      0x04\n      add\n      tag_231\n      swap1\n      tag_123\n      jump\t// in\n    tag_231:\n      mload(0x40)\n      dup1\n      swap2\n      sub\n      swap1\n      revert\n    tag_230:\n        /* \"StakingToken.sol\":4924:4945  rewardPerToken(token) */\n      tag_232\n        /* \"StakingToken.sol\":4939:4944  token */\n      dup3\n        /* \"StakingToken.sol\":4924:4938  rewardPerToken */\n      tag_118\n        /* \"StakingToken.sol\":4924:4945  rewardPerToken(token) */\n      jump\t// in\n    tag_232:\n        /* \"StakingToken.sol\":4894:4914  rewardPerTokenStored */\n      0x08\n        /* \"StakingToken.sol\":4894:4921  rewardPerTokenStored[token] */\n      0x00\n        /* \"StakingToken.sol\":4915:4920  token */\n      dup5\n        /* \"StakingToken.sol\":4894:4921  rewardPerTokenStored[token] */\n      0xffffffffffffffffffffffffffffffffffffffff\n      and\n      0xffffffffffffffffffffffffffffffffffffffff\n      and\n      dup2\n      mstore\n      0x20\n      add\n      swap1\n      dup2\n      mstore\n      0x20\n      add\n      0x00\n      keccak256\n        /* \"StakingToken.sol\":4894:4945  rewardPerTokenStored[token] = rewardPerToken(token) */\n      dup2\n      swap1\n      sstore\n      pop\n        /* \"StakingToken.sol\":4979:4994  block.timestamp */\n      timestamp\n        /* \"StakingToken.sol\":4955:4969  lastUpdateTime */\n      0x09\n        /* \"StakingToken.sol\":4955:4976  lastUpdateTime[token] */\n      0x00\n        /* \"StakingToken.sol\":4970:4975  token */\n      dup5\n        /* \"StakingToken.sol\":4955:4976  lastUpdateTime[token] */\n      0xffffffffffffffffffffffffffffffffffffffff\n      and\n      0xffffffffffffffffffffffffffffffffffffffff\n      and\n      dup2\n      mstore\n      0x20\n      add\n      swap1\n      dup2\n      mstore\n      0x20\n      add\n      0x00\n      keccak256\n        /* \"StakingToken.sol\":4955:4994  lastUpdateTime[token] = block.timestamp */\n      dup2\n      swap1\n      sstore\n      pop\n        /* \"StakingToken.sol\":5030:5052  earned(token, account) */\n      tag_233\n        /* \"StakingToken.sol\":5037:5042  token */\n      dup3\n        /* \"StakingToken.sol\":5044:5051  account */\n      dup3\n        /* \"StakingToken.sol\":5030:5036  earned */\n      tag_32\n        /* \"StakingToken.sol\":5030:5052  earned(token, account) */\n      jump\t// in\n    tag_233:\n        /* \"StakingToken.sol\":5004:5011  rewards */\n      0x06\n        /* \"StakingToken.sol\":5004:5018  rewards[token] */\n      0x00\n        /* \"StakingToken.sol\":5012:5017  token */\n      dup5\n        /* \"StakingToken.sol\":5004:5018  rewards[token] */\n      0xffffffffffffffffffffffffffffffffffffffff\n      and\n      0xffffffffffffffffffffffffffffffffffffffff\n      and\n      dup2\n      mstore\n      0x20\n      add\n      swap1\n      dup2\n      mstore\n      0x20\n      add\n      0x00\n      keccak256\n        /* \"StakingToken.sol\":5004:5027  rewards[token][account] */\n      0x00\n        /* \"StakingToken.sol\":5019:5026  account */\n      dup4\n        /* \"StakingToken.sol\":5004:5027  rewards[token][account] */\n      0xffffffffffffffffffffffffffffffffffffffff\n      and\n      0xffffffffffffffffffffffffffffffffffffffff\n      and\n      dup2\n      mstore\n      0x20\n      add\n      swap1\n      dup2\n      mstore\n      0x20\n      add\n      0x00\n      keccak256\n        /* \"StakingToken.sol\":5004:5052  rewards[token][account] = earned(token, account) */\n      dup2\n      swap1\n      sstore\n      pop\n        /* \"StakingToken.sol\":5103:5123  rewardPerTokenStored */\n      0x08\n        /* \"StakingToken.sol\":5103:5130  rewardPerTokenStored[token] */\n      0x00\n        /* \"StakingToken.sol\":5124:5129  token */\n      dup4\n        /* \"StakingToken.sol\":5103:5130  rewardPerTokenStored[token] */\n      0xffffffffffffffffffffffffffffffffffffffff\n      and\n      0xffffffffffffffffffffffffffffffffffffffff\n      and\n      dup2\n      mstore\n      0x20\n      add\n      swap1\n      dup2\n      mstore\n      0x20\n      add\n      0x00\n      keccak256\n      sload\n        /* \"StakingToken.sol\":5062:5084  userRewardPerTokenPaid */\n      0x07\n        /* \"StakingToken.sol\":5062:5091  userRewardPerTokenPaid[token] */\n      0x00\n        /* \"StakingToken.sol\":5085:5090  token */\n      dup5\n        /* \"StakingToken.sol\":5062:5091  userRewardPerTokenPaid[token] */\n      0xffffffffffffffffffffffffffffffffffffffff\n      and\n      0xffffffffffffffffffffffffffffffffffffffff\n      and\n      dup2\n      mstore\n      0x20\n      add\n      swap1\n      dup2\n      mstore\n      0x20\n      add\n      0x00\n      keccak256\n        /* \"StakingToken.sol\":5062:5100  userRewardPerTokenPaid[token][account] */\n      0x00\n        /* \"StakingToken.sol\":5092:5099  account */\n      dup4\n        /* \"StakingToken.sol\":5062:5100  userRewardPerTokenPaid[token][account] */\n      0xffffffffffffffffffffffffffffffffffffffff\n      and\n      0xffffffffffffffffffffffffffffffffffffffff\n      and\n      dup2\n      mstore\n      0x20\n      add\n      swap1\n      dup2\n      mstore\n      0x20\n      add\n      0x00\n      keccak256\n        /* \"StakingToken.sol\":5062:5130  userRewardPerTokenPaid[token][account] = rewardPerTokenStored[token] */\n      dup2\n      swap1\n      sstore\n      pop\n        /* \"StakingToken.sol\":5300:5315  whiteListTokens */\n      0x03\n        /* \"StakingToken.sol\":5300:5322  whiteListTokens[token] */\n      0x00\n        /* \"StakingToken.sol\":5316:5321  token */\n      dup6\n        /* \"StakingToken.sol\":5300:5322  whiteListTokens[token] */\n      0xffffffffffffffffffffffffffffffffffffffff\n      and\n      0xffffffffffffffffffffffffffffffffffffffff\n      and\n      dup2\n      mstore\n      0x20\n      add\n      swap1\n      dup2\n      mstore\n      0x20\n      add\n      0x00\n      keccak256\n        /* \"StakingToken.sol\":5300:5331  whiteListTokens[token].isActive */\n      0x01\n      add\n      0x00\n      swap1\n      sload\n      swap1\n      0x0100\n      exp\n      swap1\n      div\n      0xff\n      and\n        /* \"StakingToken.sol\":5292:5355  require(whiteListTokens[token].isActive, \"Token is not active\") */\n      tag_235\n      jumpi\n      mload(0x40)\n      0x08c379a000000000000000000000000000000000000000000000000000000000\n      dup2\n      mstore\n      0x04\n      add\n      tag_236\n      swap1\n      tag_123\n      jump\t// in\n    tag_236:\n      mload(0x40)\n      dup1\n      swap2\n      sub\n      swap1\n      revert\n    tag_235:\n        /* \"StakingToken.sol\":5382:5383  0 */\n      0x00\n        /* \"StakingToken.sol\":5373:5379  amount */\n      dup4\n        /* \"StakingToken.sol\":5373:5383  amount > 0 */\n      gt\n        /* \"StakingToken.sol\":5365:5420  require(amount > 0, \"Amount must be greater than zero\") */\n      tag_237\n      jumpi\n      mload(0x40)\n      0x08c379a000000000000000000000000000000000000000000000000000000000\n      dup2\n      mstore\n      0x04\n      add\n      tag_238\n      swap1\n      tag_180\n      jump\t// in\n    tag_238:\n      mload(0x40)\n      dup1\n      swap2\n      sub\n      swap1\n      revert\n    tag_237:\n        /* \"StakingToken.sol\":5457:5493  totalStakedTokens[token].add(amount) */\n      tag_239\n        /* \"StakingToken.sol\":5486:5492  amount */\n      dup4\n        /* \"StakingToken.sol\":5457:5474  totalStakedTokens */\n      0x0a\n        /* \"StakingToken.sol\":5457:5481  totalStakedTokens[token] */\n      0x00\n        /* \"StakingToken.sol\":5475:5480  token */\n      dup8\n        /* \"StakingToken.sol\":5457:5481  totalStakedTokens[token] */\n      0xffffffffffffffffffffffffffffffffffffffff\n      and\n      0xffffffffffffffffffffffffffffffffffffffff\n      and\n      dup2\n      mstore\n      0x20\n      add\n      swap1\n      dup2\n      mstore\n      0x20\n      add\n      0x00\n      keccak256\n      sload\n        /* \"StakingToken.sol\":5457:5485  totalStakedTokens[token].add */\n      tag_132\n      swap1\n        /* \"StakingToken.sol\":5457:5493  totalStakedTokens[token].add(amount) */\n      swap2\n      swap1\n      0xffffffff\n      and\n      jump\t// in\n    tag_239:\n        /* \"StakingToken.sol\":5430:5447  totalStakedTokens */\n      0x0a\n        /* \"StakingToken.sol\":5430:5454  totalStakedTokens[token] */\n      0x00\n        /* \"StakingToken.sol\":5448:5453  token */\n      dup7\n        /* \"StakingToken.sol\":5430:5454  totalStakedTokens[token] */\n      0xffffffffffffffffffffffffffffffffffffffff\n      and\n      0xffffffffffffffffffffffffffffffffffffffff\n      and\n      dup2\n      mstore\n      0x20\n      add\n      swap1\n      dup2\n      mstore\n      0x20\n      add\n      0x00\n      keccak256\n        /* \"StakingToken.sol\":5430:5493  totalStakedTokens[token] = totalStakedTokens[token].add(amount) */\n      dup2\n      swap1\n      sstore\n      pop\n        /* \"StakingToken.sol\":5538:5604  stakedBalance[token][msg.sender].add(... */\n      tag_240\n        /* \"StakingToken.sol\":5588:5594  amount */\n      dup4\n        /* \"StakingToken.sol\":5538:5551  stakedBalance */\n      0x05\n        /* \"StakingToken.sol\":5538:5558  stakedBalance[token] */\n      0x00\n        /* \"StakingToken.sol\":5552:5557  token */\n      dup8\n        /* \"StakingToken.sol\":5538:5558  stakedBalance[token] */\n      0xffffffffffffffffffffffffffffffffffffffff\n      and\n      0xffffffffffffffffffffffffffffffffffffffff\n      and\n      dup2\n      mstore\n      0x20\n      add\n      swap1\n      dup2\n      mstore\n      0x20\n      add\n      0x00\n      keccak256\n        /* \"StakingToken.sol\":5538:5570  stakedBalance[token][msg.sender] */\n      0x00\n        /* \"StakingToken.sol\":5559:5569  msg.sender */\n      caller\n        /* \"StakingToken.sol\":5538:5570  stakedBalance[token][msg.sender] */\n      0xffffffffffffffffffffffffffffffffffffffff\n      and\n      0xffffffffffffffffffffffffffffffffffffffff\n      and\n      dup2\n      mstore\n      0x20\n      add\n      swap1\n      dup2\n      mstore\n      0x20\n      add\n      0x00\n      keccak256\n      sload\n        /* \"StakingToken.sol\":5538:5574  stakedBalance[token][msg.sender].add */\n      tag_132\n      swap1\n        /* \"StakingToken.sol\":5538:5604  stakedBalance[token][msg.sender].add(... */\n      swap2\n      swap1\n      0xffffffff\n      and\n      jump\t// in\n    tag_240:\n        /* \"StakingToken.sol\":5503:5516  stakedBalance */\n      0x05\n        /* \"StakingToken.sol\":5503:5523  stakedBalance[token] */\n      0x00\n        /* \"StakingToken.sol\":5517:5522  token */\n      dup7\n        /* \"StakingToken.sol\":5503:5523  stakedBalance[token] */\n      0xffffffffffffffffffffffffffffffffffffffff\n      and\n      0xffffffffffffffffffffffffffffffffffffffff\n      and\n      dup2\n      mstore\n      0x20\n      add\n      swap1\n      dup2\n      mstore\n      0x20\n      add\n      0x00\n      keccak256\n        /* \"StakingToken.sol\":5503:5535  stakedBalance[token][msg.sender] */\n      0x00\n        /* \"StakingToken.sol\":5524:5534  msg.sender */\n      caller\n        /* \"StakingToken.sol\":5503:5535  stakedBalance[token][msg.sender] */\n      0xffffffffffffffffffffffffffffffffffffffff\n      and\n      0xffffffffffffffffffffffffffffffffffffffff\n      and\n      dup2\n      mstore\n      0x20\n      add\n      swap1\n      dup2\n      mstore\n      0x20\n      add\n      0x00\n      keccak256\n        /* \"StakingToken.sol\":5503:5604  stakedBalance[token][msg.sender] = stakedBalance[token][msg.sender].add(... */\n      dup2\n      swap1\n      sstore\n      pop\n        /* \"StakingToken.sol\":5645:5651  amount */\n      dup3\n        /* \"StakingToken.sol\":5638:5643  token */\n      dup5\n        /* \"StakingToken.sol\":5619:5652  Staked(msg.sender, token, amount) */\n      0xffffffffffffffffffffffffffffffffffffffff\n      and\n        /* \"StakingToken.sol\":5626:5636  msg.sender */\n      caller\n        /* \"StakingToken.sol\":5619:5652  Staked(msg.sender, token, amount) */\n      0xffffffffffffffffffffffffffffffffffffffff\n      and\n      0x5dac0c1b1112564a045ba943c9d50270893e8e826c49be8e7073adc713ab7bd7\n      mload(0x40)\n      mload(0x40)\n      dup1\n      swap2\n      sub\n      swap1\n      log4\n        /* \"StakingToken.sol\":5662:5674  bool success */\n      0x00\n        /* \"StakingToken.sol\":5684:5689  token */\n      dup5\n        /* \"StakingToken.sol\":5677:5703  IERC20(token).transferFrom */\n      0xffffffffffffffffffffffffffffffffffffffff\n      and\n      0x23b872dd\n        /* \"StakingToken.sol\":5717:5727  msg.sender */\n      caller\n        /* \"StakingToken.sol\":5749:5753  this */\n      address\n        /* \"StakingToken.sol\":5768:5774  amount */\n      dup8\n        /* \"StakingToken.sol\":5677:5784  IERC20(token).transferFrom(... */\n      mload(0x40)\n      dup5\n      0xffffffff\n      and\n      0xe0\n      shl\n      dup2\n      mstore\n      0x04\n      add\n      tag_241\n      swap4\n      swap3\n      swap2\n      swap1\n      tag_242\n      jump\t// in\n    tag_241:\n      0x20\n      mload(0x40)\n      dup1\n      dup4\n      sub\n      dup2\n      0x00\n      dup8\n      gas\n      call\n      iszero\n      dup1\n      iszero\n      tag_244\n      jumpi\n      returndatasize\n      0x00\n      dup1\n      returndatacopy\n      revert(0x00, returndatasize)\n    tag_244:\n      pop\n      pop\n      pop\n      pop\n      mload(0x40)\n      returndatasize\n      not(0x1f)\n      0x1f\n      dup3\n      add\n      and\n      dup3\n      add\n      dup1\n      0x40\n      mstore\n      pop\n      dup2\n      add\n      swap1\n      tag_245\n      swap2\n      swap1\n      tag_191\n      jump\t// in\n    tag_245:\n        /* \"StakingToken.sol\":5662:5784  bool success = IERC20(token).transferFrom(... */\n      swap1\n      pop\n        /* \"StakingToken.sol\":5802:5809  success */\n      dup1\n        /* \"StakingToken.sol\":5794:5829  require(success, \"Transfer Failed\") */\n      tag_246\n      jumpi\n      mload(0x40)\n      0x08c379a000000000000000000000000000000000000000000000000000000000\n      dup2\n      mstore\n      0x04\n      add\n      tag_247\n      swap1\n      tag_194\n      jump\t// in\n    tag_247:\n      mload(0x40)\n      dup1\n      swap2\n      sub\n      swap1\n      revert\n    tag_246:\n        /* \"StakingToken.sol\":5282:5836  {... */\n      pop\n        /* \"@openzeppelin/contracts/security/ReentrancyGuard.sol\":2292:2293  _ */\n      pop\n      pop\n        /* \"@openzeppelin/contracts/security/ReentrancyGuard.sol\":2303:2323  _nonReentrantAfter() */\n      tag_248\n        /* \"@openzeppelin/contracts/security/ReentrancyGuard.sol\":2303:2321  _nonReentrantAfter */\n      tag_196\n        /* \"@openzeppelin/contracts/security/ReentrancyGuard.sol\":2303:2323  _nonReentrantAfter() */\n      jump\t// in\n    tag_248:\n        /* \"StakingToken.sol\":5154:5836  function stake(address token, uint256 amount)... */\n      pop\n      pop\n      jump\t// out\n        /* \"StakingToken.sol\":2727:3093  function addTokenToWhiteList(... */\n    tag_99:\n        /* \"StakingToken.sol\":2530:2540  msg.sender */\n      caller\n        /* \"StakingToken.sol\":2521:2540  owner == msg.sender */\n      0xffffffffffffffffffffffffffffffffffffffff\n      and\n        /* \"StakingToken.sol\":2521:2526  owner */\n      0x01\n      0x00\n      swap1\n      sload\n      swap1\n      0x0100\n      exp\n      swap1\n      div\n      0xffffffffffffffffffffffffffffffffffffffff\n      and\n        /* \"StakingToken.sol\":2521:2540  owner == msg.sender */\n      0xffffffffffffffffffffffffffffffffffffffff\n      and\n      eq\n        /* \"StakingToken.sol\":2513:2577  require(owner == msg.sender, \"Ownable: caller is not the owner\") */\n      tag_250\n      jumpi\n      mload(0x40)\n      0x08c379a000000000000000000000000000000000000000000000000000000000\n      dup2\n      mstore\n      0x04\n      add\n      tag_251\n      swap1\n      tag_252\n      jump\t// in\n    tag_251:\n      mload(0x40)\n      dup1\n      swap2\n      sub\n      swap1\n      revert\n    tag_250:\n        /* \"StakingToken.sol\":2865:2880  whiteListTokens */\n      0x03\n        /* \"StakingToken.sol\":2865:2894  whiteListTokens[tokenAddress] */\n      0x00\n        /* \"StakingToken.sol\":2881:2893  tokenAddress */\n      dup5\n        /* \"StakingToken.sol\":2865:2894  whiteListTokens[tokenAddress] */\n      0xffffffffffffffffffffffffffffffffffffffff\n      and\n      0xffffffffffffffffffffffffffffffffffffffff\n      and\n      dup2\n      mstore\n      0x20\n      add\n      swap1\n      dup2\n      mstore\n      0x20\n      add\n      0x00\n      keccak256\n        /* \"StakingToken.sol\":2865:2903  whiteListTokens[tokenAddress].isActive */\n      0x01\n      add\n      0x00\n      swap1\n      sload\n      swap1\n      0x0100\n      exp\n      swap1\n      div\n      0xff\n      and\n        /* \"StakingToken.sol\":2864:2903  !whiteListTokens[tokenAddress].isActive */\n      iszero\n        /* \"StakingToken.sol\":2856:2927  require(!whiteListTokens[tokenAddress].isActive, \"Token already added\") */\n      tag_254\n      jumpi\n      mload(0x40)\n      0x08c379a000000000000000000000000000000000000000000000000000000000\n      dup2\n      mstore\n      0x04\n      add\n      tag_255\n      swap1\n      tag_256\n      jump\t// in\n    tag_255:\n      mload(0x40)\n      dup1\n      swap2\n      sub\n      swap1\n      revert\n    tag_254:\n        /* \"StakingToken.sol\":2969:2995  TokenInfo(tokenName, true) */\n      mload(0x40)\n      dup1\n      0x40\n      add\n      0x40\n      mstore\n      dup1\n        /* \"StakingToken.sol\":2979:2988  tokenName */\n      dup4\n      dup4\n        /* \"StakingToken.sol\":2969:2995  TokenInfo(tokenName, true) */\n      dup1\n      dup1\n      0x1f\n      add\n      0x20\n      dup1\n      swap2\n      div\n      mul\n      0x20\n      add\n      mload(0x40)\n      swap1\n      dup2\n      add\n      0x40\n      mstore\n      dup1\n      swap4\n      swap3\n      swap2\n      swap1\n      dup2\n      dup2\n      mstore\n      0x20\n      add\n      dup4\n      dup4\n      dup1\n      dup3\n      dup5\n      calldatacopy\n      0x00\n      dup2\n      dup5\n      add\n      mstore\n      not(0x1f)\n      0x1f\n      dup3\n      add\n      and\n      swap1\n      pop\n      dup1\n      dup4\n      add\n      swap3\n      pop\n      pop\n      pop\n      pop\n      pop\n      pop\n      pop\n      dup2\n      mstore\n      0x20\n      add\n        /* \"StakingToken.sol\":2990:2994  true */\n      0x01\n        /* \"StakingToken.sol\":2969:2995  TokenInfo(tokenName, true) */\n      iszero\n      iszero\n      dup2\n      mstore\n      pop\n        /* \"StakingToken.sol\":2937:2952  whiteListTokens */\n      0x03\n        /* \"StakingToken.sol\":2937:2966  whiteListTokens[tokenAddress] */\n      0x00\n        /* \"StakingToken.sol\":2953:2965  tokenAddress */\n      dup6\n        /* \"StakingToken.sol\":2937:2966  whiteListTokens[tokenAddress] */\n      0xffffffffffffffffffffffffffffffffffffffff\n      and\n      0xffffffffffffffffffffffffffffffffffffffff\n      and\n      dup2\n      mstore\n      0x20\n      add\n      swap1\n      dup2\n      mstore\n      0x20\n      add\n      0x00\n      keccak256\n        /* \"StakingToken.sol\":2937:2995  whiteListTokens[tokenAddress] = TokenInfo(tokenName, true) */\n      0x00\n      dup3\n      add\n      mload\n      dup2\n      0x00\n      add\n      swap1\n      dup2\n      tag_257\n      swap2\n      swap1\n      tag_258\n      jump\t// in\n    tag_257:\n      pop\n      0x20\n      dup3\n      add\n      mload\n      dup2\n      0x01\n      add\n      exp(0x0100, 0x00)\n      dup2\n      sload\n      dup2\n      0xff\n      mul\n      not\n      and\n      swap1\n      dup4\n      iszero\n      iszero\n      mul\n      or\n      swap1\n      sstore\n      pop\n      swap1\n      pop\n      pop\n        /* \"StakingToken.sol\":3005:3028  whiteListTokenAddresses */\n      0x04\n        /* \"StakingToken.sol\":3034:3046  tokenAddress */\n      dup4\n        /* \"StakingToken.sol\":3005:3047  whiteListTokenAddresses.push(tokenAddress) */\n      swap1\n      dup1\n      0x01\n      dup2\n      sload\n      add\n      dup1\n      dup3\n      sstore\n      dup1\n      swap2\n      pop\n      pop\n      0x01\n      swap1\n      sub\n      swap1\n      0x00\n      mstore\n      keccak256(0x00, 0x20)\n      add\n      0x00\n      swap1\n      swap2\n      swap1\n      swap2\n      swap1\n      swap2\n      0x0100\n      exp\n      dup2\n      sload\n      dup2\n      0xffffffffffffffffffffffffffffffffffffffff\n      mul\n      not\n      and\n      swap1\n      dup4\n      0xffffffffffffffffffffffffffffffffffffffff\n      and\n      mul\n      or\n      swap1\n      sstore\n      pop\n        /* \"StakingToken.sol\":3073:3085  tokenAddress */\n      dup3\n        /* \"StakingToken.sol\":3062:3086  TokenAdded(tokenAddress) */\n      0xffffffffffffffffffffffffffffffffffffffff\n      and\n      0x784c8f4dbf0ffedd6e72c76501c545a70f8b203b30a26ce542bf92ba87c248a4\n      mload(0x40)\n      mload(0x40)\n      dup1\n      swap2\n      sub\n      swap1\n      log2\n        /* \"StakingToken.sol\":2727:3093  function addTokenToWhiteList(... */\n      pop\n      pop\n      pop\n      jump\t// out\n        /* \"StakingToken.sol\":1090:1142  mapping(address => uint256) public totalStakedTokens */\n    tag_102:\n      mstore(0x20, 0x0a)\n      dup1\n      0x00\n      mstore\n      keccak256(0x00, 0x40)\n      0x00\n      swap2\n      pop\n      swap1\n      pop\n      sload\n      dup2\n      jump\t// out\n        /* \"StakingToken.sol\":6770:7279  function getReward(address token)... */\n    tag_106:\n        /* \"@openzeppelin/contracts/security/ReentrancyGuard.sol\":2261:2282  _nonReentrantBefore() */\n      tag_261\n        /* \"@openzeppelin/contracts/security/ReentrancyGuard.sol\":2261:2280  _nonReentrantBefore */\n      tag_169\n        /* \"@openzeppelin/contracts/security/ReentrancyGuard.sol\":2261:2282  _nonReentrantBefore() */\n      jump\t// in\n    tag_261:\n        /* \"StakingToken.sol\":6863:6868  token */\n      dup1\n        /* \"StakingToken.sol\":6870:6880  msg.sender */\n      caller\n        /* \"StakingToken.sol\":4829:4844  whiteListTokens */\n      0x03\n        /* \"StakingToken.sol\":4829:4851  whiteListTokens[token] */\n      0x00\n        /* \"StakingToken.sol\":4845:4850  token */\n      dup4\n        /* \"StakingToken.sol\":4829:4851  whiteListTokens[token] */\n      0xffffffffffffffffffffffffffffffffffffffff\n      and\n      0xffffffffffffffffffffffffffffffffffffffff\n      and\n      dup2\n      mstore\n      0x20\n      add\n      swap1\n      dup2\n      mstore\n      0x20\n      add\n      0x00\n      keccak256\n        /* \"StakingToken.sol\":4829:4860  whiteListTokens[token].isActive */\n      0x01\n      add\n      0x00\n      swap1\n      sload\n      swap1\n      0x0100\n      exp\n      swap1\n      div\n      0xff\n      and\n        /* \"StakingToken.sol\":4821:4884  require(whiteListTokens[token].isActive, \"Token is not active\") */\n      tag_263\n      jumpi\n      mload(0x40)\n      0x08c379a000000000000000000000000000000000000000000000000000000000\n      dup2\n      mstore\n      0x04\n      add\n      tag_264\n      swap1\n      tag_123\n      jump\t// in\n    tag_264:\n      mload(0x40)\n      dup1\n      swap2\n      sub\n      swap1\n      revert\n    tag_263:\n        /* \"StakingToken.sol\":4924:4945  rewardPerToken(token) */\n      tag_265\n        /* \"StakingToken.sol\":4939:4944  token */\n      dup3\n        /* \"StakingToken.sol\":4924:4938  rewardPerToken */\n      tag_118\n        /* \"StakingToken.sol\":4924:4945  rewardPerToken(token) */\n      jump\t// in\n    tag_265:\n        /* \"StakingToken.sol\":4894:4914  rewardPerTokenStored */\n      0x08\n        /* \"StakingToken.sol\":4894:4921  rewardPerTokenStored[token] */\n      0x00\n        /* \"StakingToken.sol\":4915:4920  token */\n      dup5\n        /* \"StakingToken.sol\":4894:4921  rewardPerTokenStored[token] */\n      0xffffffffffffffffffffffffffffffffffffffff\n      and\n      0xffffffffffffffffffffffffffffffffffffffff\n      and\n      dup2\n      mstore\n      0x20\n      add\n      swap1\n      dup2\n      mstore\n      0x20\n      add\n      0x00\n      keccak256\n        /* \"StakingToken.sol\":4894:4945  rewardPerTokenStored[token] = rewardPerToken(token) */\n      dup2\n      swap1\n      sstore\n      pop\n        /* \"StakingToken.sol\":4979:4994  block.timestamp */\n      timestamp\n        /* \"StakingToken.sol\":4955:4969  lastUpdateTime */\n      0x09\n        /* \"StakingToken.sol\":4955:4976  lastUpdateTime[token] */\n      0x00\n        /* \"StakingToken.sol\":4970:4975  token */\n      dup5\n        /* \"StakingToken.sol\":4955:4976  lastUpdateTime[token] */\n      0xffffffffffffffffffffffffffffffffffffffff\n      and\n      0xffffffffffffffffffffffffffffffffffffffff\n      and\n      dup2\n      mstore\n      0x20\n      add\n      swap1\n      dup2\n      mstore\n      0x20\n      add\n      0x00\n      keccak256\n        /* \"StakingToken.sol\":4955:4994  lastUpdateTime[token] = block.timestamp */\n      dup2\n      swap1\n      sstore\n      pop\n        /* \"StakingToken.sol\":5030:5052  earned(token, account) */\n      tag_266\n        /* \"StakingToken.sol\":5037:5042  token */\n      dup3\n        /* \"StakingToken.sol\":5044:5051  account */\n      dup3\n        /* \"StakingToken.sol\":5030:5036  earned */\n      tag_32\n        /* \"StakingToken.sol\":5030:5052  earned(token, account) */\n      jump\t// in\n    tag_266:\n        /* \"StakingToken.sol\":5004:5011  rewards */\n      0x06\n        /* \"StakingToken.sol\":5004:5018  rewards[token] */\n      0x00\n        /* \"StakingToken.sol\":5012:5017  token */\n      dup5\n        /* \"StakingToken.sol\":5004:5018  rewards[token] */\n      0xffffffffffffffffffffffffffffffffffffffff\n      and\n      0xffffffffffffffffffffffffffffffffffffffff\n      and\n      dup2\n      mstore\n      0x20\n      add\n      swap1\n      dup2\n      mstore\n      0x20\n      add\n      0x00\n      keccak256\n        /* \"StakingToken.sol\":5004:5027  rewards[token][account] */\n      0x00\n        /* \"StakingToken.sol\":5019:5026  account */\n      dup4\n        /* \"StakingToken.sol\":5004:5027  rewards[token][account] */\n      0xffffffffffffffffffffffffffffffffffffffff\n      and\n      0xffffffffffffffffffffffffffffffffffffffff\n      and\n      dup2\n      mstore\n      0x20\n      add\n      swap1\n      dup2\n      mstore\n      0x20\n      add\n      0x00\n      keccak256\n        /* \"StakingToken.sol\":5004:5052  rewards[token][account] = earned(token, account) */\n      dup2\n      swap1\n      sstore\n      pop\n        /* \"StakingToken.sol\":5103:5123  rewardPerTokenStored */\n      0x08\n        /* \"StakingToken.sol\":5103:5130  rewardPerTokenStored[token] */\n      0x00\n        /* \"StakingToken.sol\":5124:5129  token */\n      dup4\n        /* \"StakingToken.sol\":5103:5130  rewardPerTokenStored[token] */\n      0xffffffffffffffffffffffffffffffffffffffff\n      and\n      0xffffffffffffffffffffffffffffffffffffffff\n      and\n      dup2\n      mstore\n      0x20\n      add\n      swap1\n      dup2\n      mstore\n      0x20\n      add\n      0x00\n      keccak256\n      sload\n        /* \"StakingToken.sol\":5062:5084  userRewardPerTokenPaid */\n      0x07\n        /* \"StakingToken.sol\":5062:5091  userRewardPerTokenPaid[token] */\n      0x00\n        /* \"StakingToken.sol\":5085:5090  token */\n      dup5\n        /* \"StakingToken.sol\":5062:5091  userRewardPerTokenPaid[token] */\n      0xffffffffffffffffffffffffffffffffffffffff\n      and\n      0xffffffffffffffffffffffffffffffffffffffff\n      and\n      dup2\n      mstore\n      0x20\n      add\n      swap1\n      dup2\n      mstore\n      0x20\n      add\n      0x00\n      keccak256\n        /* \"StakingToken.sol\":5062:5100  userRewardPerTokenPaid[token][account] */\n      0x00\n        /* \"StakingToken.sol\":5092:5099  account */\n      dup4\n        /* \"StakingToken.sol\":5062:5100  userRewardPerTokenPaid[token][account] */\n      0xffffffffffffffffffffffffffffffffffffffff\n      and\n      0xffffffffffffffffffffffffffffffffffffffff\n      and\n      dup2\n      mstore\n      0x20\n      add\n      swap1\n      dup2\n      mstore\n      0x20\n      add\n      0x00\n      keccak256\n        /* \"StakingToken.sol\":5062:5130  userRewardPerTokenPaid[token][account] = rewardPerTokenStored[token] */\n      dup2\n      swap1\n      sstore\n      pop\n        /* \"StakingToken.sol\":6904:6919  whiteListTokens */\n      0x03\n        /* \"StakingToken.sol\":6904:6926  whiteListTokens[token] */\n      0x00\n        /* \"StakingToken.sol\":6920:6925  token */\n      dup5\n        /* \"StakingToken.sol\":6904:6926  whiteListTokens[token] */\n      0xffffffffffffffffffffffffffffffffffffffff\n      and\n      0xffffffffffffffffffffffffffffffffffffffff\n      and\n      dup2\n      mstore\n      0x20\n      add\n      swap1\n      dup2\n      mstore\n      0x20\n      add\n      0x00\n      keccak256\n        /* \"StakingToken.sol\":6904:6935  whiteListTokens[token].isActive */\n      0x01\n      add\n      0x00\n      swap1\n      sload\n      swap1\n      0x0100\n      exp\n      swap1\n      div\n      0xff\n      and\n        /* \"StakingToken.sol\":6896:6959  require(whiteListTokens[token].isActive, \"Token is not active\") */\n      tag_268\n      jumpi\n      mload(0x40)\n      0x08c379a000000000000000000000000000000000000000000000000000000000\n      dup2\n      mstore\n      0x04\n      add\n      tag_269\n      swap1\n      tag_123\n      jump\t// in\n    tag_269:\n      mload(0x40)\n      dup1\n      swap2\n      sub\n      swap1\n      revert\n    tag_268:\n        /* \"StakingToken.sol\":6969:6983  uint256 reward */\n      0x00\n        /* \"StakingToken.sol\":6986:6993  rewards */\n      0x06\n        /* \"StakingToken.sol\":6986:7000  rewards[token] */\n      0x00\n        /* \"StakingToken.sol\":6994:6999  token */\n      dup6\n        /* \"StakingToken.sol\":6986:7000  rewards[token] */\n      0xffffffffffffffffffffffffffffffffffffffff\n      and\n      0xffffffffffffffffffffffffffffffffffffffff\n      and\n      dup2\n      mstore\n      0x20\n      add\n      swap1\n      dup2\n      mstore\n      0x20\n      add\n      0x00\n      keccak256\n        /* \"StakingToken.sol\":6986:7012  rewards[token][msg.sender] */\n      0x00\n        /* \"StakingToken.sol\":7001:7011  msg.sender */\n      caller\n        /* \"StakingToken.sol\":6986:7012  rewards[token][msg.sender] */\n      0xffffffffffffffffffffffffffffffffffffffff\n      and\n      0xffffffffffffffffffffffffffffffffffffffff\n      and\n      dup2\n      mstore\n      0x20\n      add\n      swap1\n      dup2\n      mstore\n      0x20\n      add\n      0x00\n      keccak256\n      sload\n        /* \"StakingToken.sol\":6969:7012  uint256 reward = rewards[token][msg.sender] */\n      swap1\n      pop\n        /* \"StakingToken.sol\":7039:7040  0 */\n      0x00\n        /* \"StakingToken.sol\":7030:7036  reward */\n      dup2\n        /* \"StakingToken.sol\":7030:7040  reward > 0 */\n      gt\n        /* \"StakingToken.sol\":7022:7064  require(reward > 0, \"No rewards to claim\") */\n      tag_270\n      jumpi\n      mload(0x40)\n      0x08c379a000000000000000000000000000000000000000000000000000000000\n      dup2\n      mstore\n      0x04\n      add\n      tag_271\n      swap1\n      tag_272\n      jump\t// in\n    tag_271:\n      mload(0x40)\n      dup1\n      swap2\n      sub\n      swap1\n      revert\n    tag_270:\n        /* \"StakingToken.sol\":7103:7104  0 */\n      0x00\n        /* \"StakingToken.sol\":7074:7081  rewards */\n      0x06\n        /* \"StakingToken.sol\":7074:7088  rewards[token] */\n      0x00\n        /* \"StakingToken.sol\":7082:7087  token */\n      dup7\n        /* \"StakingToken.sol\":7074:7088  rewards[token] */\n      0xffffffffffffffffffffffffffffffffffffffff\n      and\n      0xffffffffffffffffffffffffffffffffffffffff\n      and\n      dup2\n      mstore\n      0x20\n      add\n      swap1\n      dup2\n      mstore\n      0x20\n      add\n      0x00\n      keccak256\n        /* \"StakingToken.sol\":7074:7100  rewards[token][msg.sender] */\n      0x00\n        /* \"StakingToken.sol\":7089:7099  msg.sender */\n      caller\n        /* \"StakingToken.sol\":7074:7100  rewards[token][msg.sender] */\n      0xffffffffffffffffffffffffffffffffffffffff\n      and\n      0xffffffffffffffffffffffffffffffffffffffff\n      and\n      dup2\n      mstore\n      0x20\n      add\n      swap1\n      dup2\n      mstore\n      0x20\n      add\n      0x00\n      keccak256\n        /* \"StakingToken.sol\":7074:7104  rewards[token][msg.sender] = 0 */\n      dup2\n      swap1\n      sstore\n      pop\n        /* \"StakingToken.sol\":7153:7159  reward */\n      dup1\n        /* \"StakingToken.sol\":7146:7151  token */\n      dup5\n        /* \"StakingToken.sol\":7119:7160  RewardsClaimed(msg.sender, token, reward) */\n      0xffffffffffffffffffffffffffffffffffffffff\n      and\n        /* \"StakingToken.sol\":7134:7144  msg.sender */\n      caller\n        /* \"StakingToken.sol\":7119:7160  RewardsClaimed(msg.sender, token, reward) */\n      0xffffffffffffffffffffffffffffffffffffffff\n      and\n      0x9310ccfcb8de723f578a9e4282ea9f521f05ae40dc08f3068dfad528a65ee3c7\n      mload(0x40)\n      mload(0x40)\n      dup1\n      swap2\n      sub\n      swap1\n      log4\n        /* \"StakingToken.sol\":7170:7182  bool success */\n      0x00\n        /* \"StakingToken.sol\":7192:7197  token */\n      dup5\n        /* \"StakingToken.sol\":7185:7207  IERC20(token).transfer */\n      0xffffffffffffffffffffffffffffffffffffffff\n      and\n      0xa9059cbb\n        /* \"StakingToken.sol\":7208:7218  msg.sender */\n      caller\n        /* \"StakingToken.sol\":7220:7226  reward */\n      dup5\n        /* \"StakingToken.sol\":7185:7227  IERC20(token).transfer(msg.sender, reward) */\n      mload(0x40)\n      dup4\n      0xffffffff\n      and\n      0xe0\n      shl\n      dup2\n      mstore\n      0x04\n      add\n      tag_273\n      swap3\n      swap2\n      swap1\n      tag_187\n      jump\t// in\n    tag_273:\n      0x20\n      mload(0x40)\n      dup1\n      dup4\n      sub\n      dup2\n      0x00\n      dup8\n      gas\n      call\n      iszero\n      dup1\n      iszero\n      tag_275\n      jumpi\n      returndatasize\n      0x00\n      dup1\n      returndatacopy\n      revert(0x00, returndatasize)\n    tag_275:\n      pop\n      pop\n      pop\n      pop\n      mload(0x40)\n      returndatasize\n      not(0x1f)\n      0x1f\n      dup3\n      add\n      and\n      dup3\n      add\n      dup1\n      0x40\n      mstore\n      pop\n      dup2\n      add\n      swap1\n      tag_276\n      swap2\n      swap1\n      tag_191\n      jump\t// in\n    tag_276:\n        /* \"StakingToken.sol\":7170:7227  bool success = IERC20(token).transfer(msg.sender, reward) */\n      swap1\n      pop\n        /* \"StakingToken.sol\":7245:7252  success */\n      dup1\n        /* \"StakingToken.sol\":7237:7272  require(success, \"Transfer Failed\") */\n      tag_277\n      jumpi\n      mload(0x40)\n      0x08c379a000000000000000000000000000000000000000000000000000000000\n      dup2\n      mstore\n      0x04\n      add\n      tag_278\n      swap1\n      tag_194\n      jump\t// in\n    tag_278:\n      mload(0x40)\n      dup1\n      swap2\n      sub\n      swap1\n      revert\n    tag_277:\n        /* \"StakingToken.sol\":6886:7279  {... */\n      pop\n      pop\n        /* \"@openzeppelin/contracts/security/ReentrancyGuard.sol\":2292:2293  _ */\n      pop\n      pop\n        /* \"@openzeppelin/contracts/security/ReentrancyGuard.sol\":2303:2323  _nonReentrantAfter() */\n      tag_279\n        /* \"@openzeppelin/contracts/security/ReentrancyGuard.sol\":2303:2321  _nonReentrantAfter */\n      tag_196\n        /* \"@openzeppelin/contracts/security/ReentrancyGuard.sol\":2303:2323  _nonReentrantAfter() */\n      jump\t// in\n    tag_279:\n        /* \"StakingToken.sol\":6770:7279  function getReward(address token)... */\n      pop\n      jump\t// out\n        /* \"StakingToken.sol\":637:689  mapping(address => TokenInfo) public whiteListTokens */\n    tag_109:\n      mstore(0x20, 0x03)\n      dup1\n      0x00\n      mstore\n      keccak256(0x00, 0x40)\n      0x00\n      swap2\n      pop\n      swap1\n      pop\n      dup1\n      0x00\n      add\n      dup1\n      sload\n      tag_280\n      swap1\n      tag_281\n      jump\t// in\n    tag_280:\n      dup1\n      0x1f\n      add\n      0x20\n      dup1\n      swap2\n      div\n      mul\n      0x20\n      add\n      mload(0x40)\n      swap1\n      dup2\n      add\n      0x40\n      mstore\n      dup1\n      swap3\n      swap2\n      swap1\n      dup2\n      dup2\n      mstore\n      0x20\n      add\n      dup3\n      dup1\n      sload\n      tag_282\n      swap1\n      tag_281\n      jump\t// in\n    tag_282:\n      dup1\n      iszero\n      tag_283\n      jumpi\n      dup1\n      0x1f\n      lt\n      tag_284\n      jumpi\n      0x0100\n      dup1\n      dup4\n      sload\n      div\n      mul\n      dup4\n      mstore\n      swap2\n      0x20\n      add\n      swap2\n      jump(tag_283)\n    tag_284:\n      dup3\n      add\n      swap2\n      swap1\n      0x00\n      mstore\n      keccak256(0x00, 0x20)\n      swap1\n    tag_285:\n      dup2\n      sload\n      dup2\n      mstore\n      swap1\n      0x01\n      add\n      swap1\n      0x20\n      add\n      dup1\n      dup4\n      gt\n      tag_285\n      jumpi\n      dup3\n      swap1\n      sub\n      0x1f\n      and\n      dup3\n      add\n      swap2\n    tag_283:\n      pop\n      pop\n      pop\n      pop\n      pop\n      swap1\n      dup1\n      0x01\n      add\n      0x00\n      swap1\n      sload\n      swap1\n      0x0100\n      exp\n      swap1\n      div\n      0xff\n      and\n      swap1\n      pop\n      dup3\n      jump\t// out\n        /* \"StakingToken.sol\":815:877  mapping(address => mapping(address => uint256)) public rewards */\n    tag_114:\n      mstore(0x20, 0x06)\n      dup2\n      0x00\n      mstore\n      mstore(0x20, keccak256(0x00, 0x40))\n      dup1\n      0x00\n      mstore\n      keccak256(0x00, 0x40)\n      0x00\n      swap2\n      pop\n      swap2\n      pop\n      pop\n      sload\n      dup2\n      jump\t// out\n        /* \"StakingToken.sol\":3729:4256  function rewardPerToken(address token) public view returns (uint256) {... */\n    tag_118:\n        /* \"StakingToken.sol\":3789:3796  uint256 */\n      0x00\n        /* \"StakingToken.sol\":3816:3831  whiteListTokens */\n      0x03\n        /* \"StakingToken.sol\":3816:3838  whiteListTokens[token] */\n      0x00\n        /* \"StakingToken.sol\":3832:3837  token */\n      dup4\n        /* \"StakingToken.sol\":3816:3838  whiteListTokens[token] */\n      0xffffffffffffffffffffffffffffffffffffffff\n      and\n      0xffffffffffffffffffffffffffffffffffffffff\n      and\n      dup2\n      mstore\n      0x20\n      add\n      swap1\n      dup2\n      mstore\n      0x20\n      add\n      0x00\n      keccak256\n        /* \"StakingToken.sol\":3816:3847  whiteListTokens[token].isActive */\n      0x01\n      add\n      0x00\n      swap1\n      sload\n      swap1\n      0x0100\n      exp\n      swap1\n      div\n      0xff\n      and\n        /* \"StakingToken.sol\":3808:3871  require(whiteListTokens[token].isActive, \"Token is not active\") */\n      tag_287\n      jumpi\n      mload(0x40)\n      0x08c379a000000000000000000000000000000000000000000000000000000000\n      dup2\n      mstore\n      0x04\n      add\n      tag_288\n      swap1\n      tag_123\n      jump\t// in\n    tag_288:\n      mload(0x40)\n      dup1\n      swap2\n      sub\n      swap1\n      revert\n    tag_287:\n        /* \"StakingToken.sol\":3913:3914  0 */\n      0x00\n        /* \"StakingToken.sol\":3885:3902  totalStakedTokens */\n      0x0a\n        /* \"StakingToken.sol\":3885:3909  totalStakedTokens[token] */\n      0x00\n        /* \"StakingToken.sol\":3903:3908  token */\n      dup5\n        /* \"StakingToken.sol\":3885:3909  totalStakedTokens[token] */\n      0xffffffffffffffffffffffffffffffffffffffff\n      and\n      0xffffffffffffffffffffffffffffffffffffffff\n      and\n      dup2\n      mstore\n      0x20\n      add\n      swap1\n      dup2\n      mstore\n      0x20\n      add\n      0x00\n      keccak256\n      sload\n        /* \"StakingToken.sol\":3885:3914  totalStakedTokens[token] == 0 */\n      sub\n        /* \"StakingToken.sol\":3881:3975  if (totalStakedTokens[token] == 0) {... */\n      tag_289\n      jumpi\n        /* \"StakingToken.sol\":3937:3957  rewardPerTokenStored */\n      0x08\n        /* \"StakingToken.sol\":3937:3964  rewardPerTokenStored[token] */\n      0x00\n        /* \"StakingToken.sol\":3958:3963  token */\n      dup4\n        /* \"StakingToken.sol\":3937:3964  rewardPerTokenStored[token] */\n      0xffffffffffffffffffffffffffffffffffffffff\n      and\n      0xffffffffffffffffffffffffffffffffffffffff\n      and\n      dup2\n      mstore\n      0x20\n      add\n      swap1\n      dup2\n      mstore\n      0x20\n      add\n      0x00\n      keccak256\n      sload\n        /* \"StakingToken.sol\":3930:3964  return rewardPerTokenStored[token] */\n      swap1\n      pop\n      jump(tag_286)\n        /* \"StakingToken.sol\":3881:3975  if (totalStakedTokens[token] == 0) {... */\n    tag_289:\n        /* \"StakingToken.sol\":3984:4001  uint256 totalTime */\n      0x00\n        /* \"StakingToken.sol\":4004:4046  block.timestamp.sub(lastUpdateTime[token]) */\n      tag_290\n        /* \"StakingToken.sol\":4024:4038  lastUpdateTime */\n      0x09\n        /* \"StakingToken.sol\":4024:4045  lastUpdateTime[token] */\n      0x00\n        /* \"StakingToken.sol\":4039:4044  token */\n      dup6\n        /* \"StakingToken.sol\":4024:4045  lastUpdateTime[token] */\n      0xffffffffffffffffffffffffffffffffffffffff\n      and\n      0xffffffffffffffffffffffffffffffffffffffff\n      and\n      dup2\n      mstore\n      0x20\n      add\n      swap1\n      dup2\n      mstore\n      0x20\n      add\n      0x00\n      keccak256\n      sload\n        /* \"StakingToken.sol\":4004:4019  block.timestamp */\n      timestamp\n        /* \"StakingToken.sol\":4004:4023  block.timestamp.sub */\n      tag_129\n      swap1\n        /* \"StakingToken.sol\":4004:4046  block.timestamp.sub(lastUpdateTime[token]) */\n      swap2\n      swap1\n      0xffffffff\n      and\n      jump\t// in\n    tag_290:\n        /* \"StakingToken.sol\":3984:4046  uint256 totalTime = block.timestamp.sub(lastUpdateTime[token]) */\n      swap1\n      pop\n        /* \"StakingToken.sol\":4056:4076  uint256 totalRewards */\n      0x00\n        /* \"StakingToken.sol\":4079:4105  REWARD_RATE.mul(totalTime) */\n      tag_291\n        /* \"StakingToken.sol\":4095:4104  totalTime */\n      dup3\n        /* \"StakingToken.sol\":4079:4090  REWARD_RATE */\n      sload(0x02)\n        /* \"StakingToken.sol\":4079:4094  REWARD_RATE.mul */\n      tag_130\n      swap1\n        /* \"StakingToken.sol\":4079:4105  REWARD_RATE.mul(totalTime) */\n      swap2\n      swap1\n      0xffffffff\n      and\n      jump\t// in\n    tag_291:\n        /* \"StakingToken.sol\":4056:4105  uint256 totalRewards = REWARD_RATE.mul(totalTime) */\n      swap1\n      pop\n        /* \"StakingToken.sol\":4134:4249  rewardPerTokenStored[token].add(... */\n      tag_292\n        /* \"StakingToken.sol\":4183:4235  totalRewards.mul(1e18).div(totalStakedTokens[token]) */\n      tag_293\n        /* \"StakingToken.sol\":4210:4227  totalStakedTokens */\n      0x0a\n        /* \"StakingToken.sol\":4210:4234  totalStakedTokens[token] */\n      0x00\n        /* \"StakingToken.sol\":4228:4233  token */\n      dup8\n        /* \"StakingToken.sol\":4210:4234  totalStakedTokens[token] */\n      0xffffffffffffffffffffffffffffffffffffffff\n      and\n      0xffffffffffffffffffffffffffffffffffffffff\n      and\n      dup2\n      mstore\n      0x20\n      add\n      swap1\n      dup2\n      mstore\n      0x20\n      add\n      0x00\n      keccak256\n      sload\n        /* \"StakingToken.sol\":4183:4205  totalRewards.mul(1e18) */\n      tag_294\n        /* \"StakingToken.sol\":4200:4204  1e18 */\n      0x0de0b6b3a7640000\n        /* \"StakingToken.sol\":4183:4195  totalRewards */\n      dup6\n        /* \"StakingToken.sol\":4183:4199  totalRewards.mul */\n      tag_130\n      swap1\n        /* \"StakingToken.sol\":4183:4205  totalRewards.mul(1e18) */\n      swap2\n      swap1\n      0xffffffff\n      and\n      jump\t// in\n    tag_294:\n        /* \"StakingToken.sol\":4183:4209  totalRewards.mul(1e18).div */\n      tag_131\n      swap1\n        /* \"StakingToken.sol\":4183:4235  totalRewards.mul(1e18).div(totalStakedTokens[token]) */\n      swap2\n      swap1\n      0xffffffff\n      and\n      jump\t// in\n    tag_293:\n        /* \"StakingToken.sol\":4134:4154  rewardPerTokenStored */\n      0x08\n        /* \"StakingToken.sol\":4134:4161  rewardPerTokenStored[token] */\n      0x00\n        /* \"StakingToken.sol\":4155:4160  token */\n      dup8\n        /* \"StakingToken.sol\":4134:4161  rewardPerTokenStored[token] */\n      0xffffffffffffffffffffffffffffffffffffffff\n      and\n      0xffffffffffffffffffffffffffffffffffffffff\n      and\n      dup2\n      mstore\n      0x20\n      add\n      swap1\n      dup2\n      mstore\n      0x20\n      add\n      0x00\n      keccak256\n      sload\n        /* \"StakingToken.sol\":4134:4165  rewardPerTokenStored[token].add */\n      tag_132\n      swap1\n        /* \"StakingToken.sol\":4134:4249  rewardPerTokenStored[token].add(... */\n      swap2\n      swap1\n      0xffffffff\n      and\n      jump\t// in\n    tag_292:\n        /* \"StakingToken.sol\":4115:4249  return... */\n      swap3\n      pop\n      pop\n      pop\n        /* \"StakingToken.sol\":3729:4256  function rewardPerToken(address token) public view returns (uint256) {... */\n    tag_286:\n      swap2\n      swap1\n      pop\n      jump\t// out\n        /* \"@openzeppelin/contracts/utils/math/SafeMath.sol\":3122:3218  function sub(uint256 a, uint256 b) internal pure returns (uint256) {... */\n    tag_129:\n        /* \"@openzeppelin/contracts/utils/math/SafeMath.sol\":3180:3187  uint256 */\n      0x00\n        /* \"@openzeppelin/contracts/utils/math/SafeMath.sol\":3210:3211  b */\n      dup2\n        /* \"@openzeppelin/contracts/utils/math/SafeMath.sol\":3206:3207  a */\n      dup4\n        /* \"@openzeppelin/contracts/utils/math/SafeMath.sol\":3206:3211  a - b */\n      tag_296\n      swap2\n      swap1\n      tag_297\n      jump\t// in\n    tag_296:\n        /* \"@openzeppelin/contracts/utils/math/SafeMath.sol\":3199:3211  return a - b */\n      swap1\n      pop\n        /* \"@openzeppelin/contracts/utils/math/SafeMath.sol\":3122:3218  function sub(uint256 a, uint256 b) internal pure returns (uint256) {... */\n      swap3\n      swap2\n      pop\n      pop\n      jump\t// out\n        /* \"@openzeppelin/contracts/utils/math/SafeMath.sol\":3465:3561  function mul(uint256 a, uint256 b) internal pure returns (uint256) {... */\n    tag_130:\n        /* \"@openzeppelin/contracts/utils/math/SafeMath.sol\":3523:3530  uint256 */\n      0x00\n        /* \"@openzeppelin/contracts/utils/math/SafeMath.sol\":3553:3554  b */\n      dup2\n        /* \"@openzeppelin/contracts/utils/math/SafeMath.sol\":3549:3550  a */\n      dup4\n        /* \"@openzeppelin/contracts/utils/math/SafeMath.sol\":3549:3554  a * b */\n      tag_299\n      swap2\n      swap1\n      tag_300\n      jump\t// in\n    tag_299:\n        /* \"@openzeppelin/contracts/utils/math/SafeMath.sol\":3542:3554  return a * b */\n      swap1\n      pop\n        /* \"@openzeppelin/contracts/utils/math/SafeMath.sol\":3465:3561  function mul(uint256 a, uint256 b) internal pure returns (uint256) {... */\n      swap3\n      swap2\n      pop\n      pop\n      jump\t// out\n        /* \"@openzeppelin/contracts/utils/math/SafeMath.sol\":3850:3946  function div(uint256 a, uint256 b) internal pure returns (uint256) {... */\n    tag_131:\n        /* \"@openzeppelin/contracts/utils/math/SafeMath.sol\":3908:3915  uint256 */\n      0x00\n        /* \"@openzeppelin/contracts/utils/math/SafeMath.sol\":3938:3939  b */\n      dup2\n        /* \"@openzeppelin/contracts/utils/math/SafeMath.sol\":3934:3935  a */\n      dup4\n        /* \"@openzeppelin/contracts/utils/math/SafeMath.sol\":3934:3939  a / b */\n      tag_302\n      swap2\n      swap1\n      tag_303\n      jump\t// in\n    tag_302:\n        /* \"@openzeppelin/contracts/utils/math/SafeMath.sol\":3927:3939  return a / b */\n      swap1\n      pop\n        /* \"@openzeppelin/contracts/utils/math/SafeMath.sol\":3850:3946  function div(uint256 a, uint256 b) internal pure returns (uint256) {... */\n      swap3\n      swap2\n      pop\n      pop\n      jump\t// out\n        /* \"@openzeppelin/contracts/utils/math/SafeMath.sol\":2755:2851  function add(uint256 a, uint256 b) internal pure returns (uint256) {... */\n    tag_132:\n        /* \"@openzeppelin/contracts/utils/math/SafeMath.sol\":2813:2820  uint256 */\n      0x00\n        /* \"@openzeppelin/contracts/utils/math/SafeMath.sol\":2843:2844  b */\n      dup2\n        /* \"@openzeppelin/contracts/utils/math/SafeMath.sol\":2839:2840  a */\n      dup4\n        /* \"@openzeppelin/contracts/utils/math/SafeMath.sol\":2839:2844  a + b */\n      tag_305\n      swap2\n      swap1\n      tag_306\n      jump\t// in\n    tag_305:\n        /* \"@openzeppelin/contracts/utils/math/SafeMath.sol\":2832:2844  return a + b */\n      swap1\n      pop\n        /* \"@openzeppelin/contracts/utils/math/SafeMath.sol\":2755:2851  function add(uint256 a, uint256 b) internal pure returns (uint256) {... */\n      swap3\n      swap2\n      pop\n      pop\n      jump\t// out\n        /* \"@openzeppelin/contracts/security/ReentrancyGuard.sol\":2336:2623  function _nonReentrantBefore() private {... */\n    tag_169:\n        /* \"@openzeppelin/contracts/security/ReentrancyGuard.sol\":1759:1760  2 */\n      0x02\n        /* \"@openzeppelin/contracts/security/ReentrancyGuard.sol\":2468:2475  _status */\n      sload(0x00)\n        /* \"@openzeppelin/contracts/security/ReentrancyGuard.sol\":2468:2487  _status != _ENTERED */\n      sub\n        /* \"@openzeppelin/contracts/security/ReentrancyGuard.sol\":2460:2523  require(_status != _ENTERED, \"ReentrancyGuard: reentrant call\") */\n      tag_308\n      jumpi\n      mload(0x40)\n      0x08c379a000000000000000000000000000000000000000000000000000000000\n      dup2\n      mstore\n      0x04\n      add\n      tag_309\n      swap1\n      tag_310\n      jump\t// in\n    tag_309:\n      mload(0x40)\n      dup1\n      swap2\n      sub\n      swap1\n      revert\n    tag_308:\n        /* \"@openzeppelin/contracts/security/ReentrancyGuard.sol\":1759:1760  2 */\n      0x02\n        /* \"@openzeppelin/contracts/security/ReentrancyGuard.sol\":2598:2605  _status */\n      0x00\n        /* \"@openzeppelin/contracts/security/ReentrancyGuard.sol\":2598:2616  _status = _ENTERED */\n      dup2\n      swap1\n      sstore\n      pop\n        /* \"@openzeppelin/contracts/security/ReentrancyGuard.sol\":2336:2623  function _nonReentrantBefore() private {... */\n      jump\t// out\n        /* \"@openzeppelin/contracts/security/ReentrancyGuard.sol\":2629:2838  function _nonReentrantAfter() private {... */\n    tag_196:\n        /* \"@openzeppelin/contracts/security/ReentrancyGuard.sol\":1716:1717  1 */\n      0x01\n        /* \"@openzeppelin/contracts/security/ReentrancyGuard.sol\":2809:2816  _status */\n      0x00\n        /* \"@openzeppelin/contracts/security/ReentrancyGuard.sol\":2809:2831  _status = _NOT_ENTERED */\n      dup2\n      swap1\n      sstore\n      pop\n        /* \"@openzeppelin/contracts/security/ReentrancyGuard.sol\":2629:2838  function _nonReentrantAfter() private {... */\n      jump\t// out\n        /* \"#utility.yul\":88:205   */\n    tag_313:\n        /* \"#utility.yul\":197:198   */\n      0x00\n        /* \"#utility.yul\":194:195   */\n      dup1\n        /* \"#utility.yul\":187:199   */\n      revert\n        /* \"#utility.yul\":211:328   */\n    tag_314:\n        /* \"#utility.yul\":320:321   */\n      0x00\n        /* \"#utility.yul\":317:318   */\n      dup1\n        /* \"#utility.yul\":310:322   */\n      revert\n        /* \"#utility.yul\":334:460   */\n    tag_315:\n        /* \"#utility.yul\":371:378   */\n      0x00\n        /* \"#utility.yul\":411:453   */\n      0xffffffffffffffffffffffffffffffffffffffff\n        /* \"#utility.yul\":404:409   */\n      dup3\n        /* \"#utility.yul\":400:454   */\n      and\n        /* \"#utility.yul\":389:454   */\n      swap1\n      pop\n        /* \"#utility.yul\":334:460   */\n      swap2\n      swap1\n      pop\n      jump\t// out\n        /* \"#utility.yul\":466:562   */\n    tag_316:\n        /* \"#utility.yul\":503:510   */\n      0x00\n        /* \"#utility.yul\":532:556   */\n      tag_391\n        /* \"#utility.yul\":550:555   */\n      dup3\n        /* \"#utility.yul\":532:556   */\n      tag_315\n      jump\t// in\n    tag_391:\n        /* \"#utility.yul\":521:556   */\n      swap1\n      pop\n        /* \"#utility.yul\":466:562   */\n      swap2\n      swap1\n      pop\n      jump\t// out\n        /* \"#utility.yul\":568:690   */\n    tag_317:\n        /* \"#utility.yul\":641:665   */\n      tag_393\n        /* \"#utility.yul\":659:664   */\n      dup2\n        /* \"#utility.yul\":641:665   */\n      tag_316\n      jump\t// in\n    tag_393:\n        /* \"#utility.yul\":634:639   */\n      dup2\n        /* \"#utility.yul\":631:666   */\n      eq\n        /* \"#utility.yul\":621:684   */\n      tag_394\n      jumpi\n        /* \"#utility.yul\":680:681   */\n      0x00\n        /* \"#utility.yul\":677:678   */\n      dup1\n        /* \"#utility.yul\":670:682   */\n      revert\n        /* \"#utility.yul\":621:684   */\n    tag_394:\n        /* \"#utility.yul\":568:690   */\n      pop\n      jump\t// out\n        /* \"#utility.yul\":696:835   */\n    tag_318:\n        /* \"#utility.yul\":742:747   */\n      0x00\n        /* \"#utility.yul\":780:786   */\n      dup2\n        /* \"#utility.yul\":767:787   */\n      calldataload\n        /* \"#utility.yul\":758:787   */\n      swap1\n      pop\n        /* \"#utility.yul\":796:829   */\n      tag_396\n        /* \"#utility.yul\":823:828   */\n      dup2\n        /* \"#utility.yul\":796:829   */\n      tag_317\n      jump\t// in\n    tag_396:\n        /* \"#utility.yul\":696:835   */\n      swap3\n      swap2\n      pop\n      pop\n      jump\t// out\n        /* \"#utility.yul\":841:1315   */\n    tag_31:\n        /* \"#utility.yul\":909:915   */\n      0x00\n        /* \"#utility.yul\":917:923   */\n      dup1\n        /* \"#utility.yul\":966:968   */\n      0x40\n        /* \"#utility.yul\":954:963   */\n      dup4\n        /* \"#utility.yul\":945:952   */\n      dup6\n        /* \"#utility.yul\":941:964   */\n      sub\n        /* \"#utility.yul\":937:969   */\n      slt\n        /* \"#utility.yul\":934:1053   */\n      iszero\n      tag_398\n      jumpi\n        /* \"#utility.yul\":972:1051   */\n      tag_399\n      tag_313\n      jump\t// in\n    tag_399:\n        /* \"#utility.yul\":934:1053   */\n    tag_398:\n        /* \"#utility.yul\":1092:1093   */\n      0x00\n        /* \"#utility.yul\":1117:1170   */\n      tag_400\n        /* \"#utility.yul\":1162:1169   */\n      dup6\n        /* \"#utility.yul\":1153:1159   */\n      dup3\n        /* \"#utility.yul\":1142:1151   */\n      dup7\n        /* \"#utility.yul\":1138:1160   */\n      add\n        /* \"#utility.yul\":1117:1170   */\n      tag_318\n      jump\t// in\n    tag_400:\n        /* \"#utility.yul\":1107:1170   */\n      swap3\n      pop\n        /* \"#utility.yul\":1063:1180   */\n      pop\n        /* \"#utility.yul\":1219:1221   */\n      0x20\n        /* \"#utility.yul\":1245:1298   */\n      tag_401\n        /* \"#utility.yul\":1290:1297   */\n      dup6\n        /* \"#utility.yul\":1281:1287   */\n      dup3\n        /* \"#utility.yul\":1270:1279   */\n      dup7\n        /* \"#utility.yul\":1266:1288   */\n      add\n        /* \"#utility.yul\":1245:1298   */\n      tag_318\n      jump\t// in\n    tag_401:\n        /* \"#utility.yul\":1235:1298   */\n      swap2\n      pop\n        /* \"#utility.yul\":1190:1308   */\n      pop\n        /* \"#utility.yul\":841:1315   */\n      swap3\n      pop\n      swap3\n      swap1\n      pop\n      jump\t// out\n        /* \"#utility.yul\":1321:1398   */\n    tag_319:\n        /* \"#utility.yul\":1358:1365   */\n      0x00\n        /* \"#utility.yul\":1387:1392   */\n      dup2\n        /* \"#utility.yul\":1376:1392   */\n      swap1\n      pop\n        /* \"#utility.yul\":1321:1398   */\n      swap2\n      swap1\n      pop\n      jump\t// out\n        /* \"#utility.yul\":1404:1522   */\n    tag_320:\n        /* \"#utility.yul\":1491:1515   */\n      tag_404\n        /* \"#utility.yul\":1509:1514   */\n      dup2\n        /* \"#utility.yul\":1491:1515   */\n      tag_319\n      jump\t// in\n    tag_404:\n        /* \"#utility.yul\":1486:1489   */\n      dup3\n        /* \"#utility.yul\":1479:1516   */\n      mstore\n        /* \"#utility.yul\":1404:1522   */\n      pop\n      pop\n      jump\t// out\n        /* \"#utility.yul\":1528:1750   */\n    tag_34:\n        /* \"#utility.yul\":1621:1625   */\n      0x00\n        /* \"#utility.yul\":1659:1661   */\n      0x20\n        /* \"#utility.yul\":1648:1657   */\n      dup3\n        /* \"#utility.yul\":1644:1662   */\n      add\n        /* \"#utility.yul\":1636:1662   */\n      swap1\n      pop\n        /* \"#utility.yul\":1672:1743   */\n      tag_406\n        /* \"#utility.yul\":1740:1741   */\n      0x00\n        /* \"#utility.yul\":1729:1738   */\n      dup4\n        /* \"#utility.yul\":1725:1742   */\n      add\n        /* \"#utility.yul\":1716:1722   */\n      dup5\n        /* \"#utility.yul\":1672:1743   */\n      tag_320\n      jump\t// in\n    tag_406:\n        /* \"#utility.yul\":1528:1750   */\n      swap3\n      swap2\n      pop\n      pop\n      jump\t// out\n        /* \"#utility.yul\":1756:2085   */\n    tag_37:\n        /* \"#utility.yul\":1815:1821   */\n      0x00\n        /* \"#utility.yul\":1864:1866   */\n      0x20\n        /* \"#utility.yul\":1852:1861   */\n      dup3\n        /* \"#utility.yul\":1843:1850   */\n      dup5\n        /* \"#utility.yul\":1839:1862   */\n      sub\n        /* \"#utility.yul\":1835:1867   */\n      slt\n        /* \"#utility.yul\":1832:1951   */\n      iszero\n      tag_408\n      jumpi\n        /* \"#utility.yul\":1870:1949   */\n      tag_409\n      tag_313\n      jump\t// in\n    tag_409:\n        /* \"#utility.yul\":1832:1951   */\n    tag_408:\n        /* \"#utility.yul\":1990:1991   */\n      0x00\n        /* \"#utility.yul\":2015:2068   */\n      tag_410\n        /* \"#utility.yul\":2060:2067   */\n      dup5\n        /* \"#utility.yul\":2051:2057   */\n      dup3\n        /* \"#utility.yul\":2040:2049   */\n      dup6\n        /* \"#utility.yul\":2036:2058   */\n      add\n        /* \"#utility.yul\":2015:2068   */\n      tag_318\n      jump\t// in\n    tag_410:\n        /* \"#utility.yul\":2005:2068   */\n      swap2\n      pop\n        /* \"#utility.yul\":1961:2078   */\n      pop\n        /* \"#utility.yul\":1756:2085   */\n      swap3\n      swap2\n      pop\n      pop\n      jump\t// out\n        /* \"#utility.yul\":2091:2213   */\n    tag_321:\n        /* \"#utility.yul\":2164:2188   */\n      tag_412\n        /* \"#utility.yul\":2182:2187   */\n      dup2\n        /* \"#utility.yul\":2164:2188   */\n      tag_319\n      jump\t// in\n    tag_412:\n        /* \"#utility.yul\":2157:2162   */\n      dup2\n        /* \"#utility.yul\":2154:2189   */\n      eq\n        /* \"#utility.yul\":2144:2207   */\n      tag_413\n      jumpi\n        /* \"#utility.yul\":2203:2204   */\n      0x00\n        /* \"#utility.yul\":2200:2201   */\n      dup1\n        /* \"#utility.yul\":2193:2205   */\n      revert\n        /* \"#utility.yul\":2144:2207   */\n    tag_413:\n        /* \"#utility.yul\":2091:2213   */\n      pop\n      jump\t// out\n        /* \"#utility.yul\":2219:2358   */\n    tag_322:\n        /* \"#utility.yul\":2265:2270   */\n      0x00\n        /* \"#utility.yul\":2303:2309   */\n      dup2\n        /* \"#utility.yul\":2290:2310   */\n      calldataload\n        /* \"#utility.yul\":2281:2310   */\n      swap1\n      pop\n        /* \"#utility.yul\":2319:2352   */\n      tag_415\n        /* \"#utility.yul\":2346:2351   */\n      dup2\n        /* \"#utility.yul\":2319:2352   */\n      tag_321\n      jump\t// in\n    tag_415:\n        /* \"#utility.yul\":2219:2358   */\n      swap3\n      swap2\n      pop\n      pop\n      jump\t// out\n        /* \"#utility.yul\":2364:2693   */\n    tag_51:\n        /* \"#utility.yul\":2423:2429   */\n      0x00\n        /* \"#utility.yul\":2472:2474   */\n      0x20\n        /* \"#utility.yul\":2460:2469   */\n      dup3\n        /* \"#utility.yul\":2451:2458   */\n      dup5\n        /* \"#utility.yul\":2447:2470   */\n      sub\n        /* \"#utility.yul\":2443:2475   */\n      slt\n        /* \"#utility.yul\":2440:2559   */\n      iszero\n      tag_417\n      jumpi\n        /* \"#utility.yul\":2478:2557   */\n      tag_418\n      tag_313\n      jump\t// in\n    tag_418:\n        /* \"#utility.yul\":2440:2559   */\n    tag_417:\n        /* \"#utility.yul\":2598:2599   */\n      0x00\n        /* \"#utility.yul\":2623:2676   */\n      tag_419\n        /* \"#utility.yul\":2668:2675   */\n      dup5\n        /* \"#utility.yul\":2659:2665   */\n      dup3\n        /* \"#utility.yul\":2648:2657   */\n      dup6\n        /* \"#utility.yul\":2644:2666   */\n      add\n        /* \"#utility.yul\":2623:2676   */\n      tag_322\n      jump\t// in\n    tag_419:\n        /* \"#utility.yul\":2613:2676   */\n      swap2\n      pop\n        /* \"#utility.yul\":2569:2686   */\n      pop\n        /* \"#utility.yul\":2364:2693   */\n      swap3\n      swap2\n      pop\n      pop\n      jump\t// out\n        /* \"#utility.yul\":2699:2817   */\n    tag_323:\n        /* \"#utility.yul\":2786:2810   */\n      tag_421\n        /* \"#utility.yul\":2804:2809   */\n      dup2\n        /* \"#utility.yul\":2786:2810   */\n      tag_316\n      jump\t// in\n    tag_421:\n        /* \"#utility.yul\":2781:2784   */\n      dup3\n        /* \"#utility.yul\":2774:2811   */\n      mstore\n        /* \"#utility.yul\":2699:2817   */\n      pop\n      pop\n      jump\t// out\n        /* \"#utility.yul\":2823:3045   */\n    tag_54:\n        /* \"#utility.yul\":2916:2920   */\n      0x00\n        /* \"#utility.yul\":2954:2956   */\n      0x20\n        /* \"#utility.yul\":2943:2952   */\n      dup3\n        /* \"#utility.yul\":2939:2957   */\n      add\n        /* \"#utility.yul\":2931:2957   */\n      swap1\n      pop\n        /* \"#utility.yul\":2967:3038   */\n      tag_423\n        /* \"#utility.yul\":3035:3036   */\n      0x00\n        /* \"#utility.yul\":3024:3033   */\n      dup4\n        /* \"#utility.yul\":3020:3037   */\n      add\n        /* \"#utility.yul\":3011:3017   */\n      dup5\n        /* \"#utility.yul\":2967:3038   */\n      tag_323\n      jump\t// in\n    tag_423:\n        /* \"#utility.yul\":2823:3045   */\n      swap3\n      swap2\n      pop\n      pop\n      jump\t// out\n        /* \"#utility.yul\":3051:3231   */\n    tag_324:\n        /* \"#utility.yul\":3099:3176   */\n      0x4e487b7100000000000000000000000000000000000000000000000000000000\n        /* \"#utility.yul\":3096:3097   */\n      0x00\n        /* \"#utility.yul\":3089:3177   */\n      mstore\n        /* \"#utility.yul\":3196:3200   */\n      0x21\n        /* \"#utility.yul\":3193:3194   */\n      0x04\n        /* \"#utility.yul\":3186:3201   */\n      mstore\n        /* \"#utility.yul\":3220:3224   */\n      0x24\n        /* \"#utility.yul\":3217:3218   */\n      0x00\n        /* \"#utility.yul\":3210:3225   */\n      revert\n        /* \"#utility.yul\":3237:3350   */\n    tag_325:\n        /* \"#utility.yul\":3318:3319   */\n      0x03\n        /* \"#utility.yul\":3311:3316   */\n      dup2\n        /* \"#utility.yul\":3308:3320   */\n      lt\n        /* \"#utility.yul\":3298:3344   */\n      tag_426\n      jumpi\n        /* \"#utility.yul\":3324:3342   */\n      tag_427\n      tag_324\n      jump\t// in\n    tag_427:\n        /* \"#utility.yul\":3298:3344   */\n    tag_426:\n        /* \"#utility.yul\":3237:3350   */\n      pop\n      jump\t// out\n        /* \"#utility.yul\":3356:3483   */\n    tag_326:\n        /* \"#utility.yul\":3401:3408   */\n      0x00\n        /* \"#utility.yul\":3430:3435   */\n      dup2\n        /* \"#utility.yul\":3419:3435   */\n      swap1\n      pop\n        /* \"#utility.yul\":3436:3477   */\n      tag_429\n        /* \"#utility.yul\":3471:3476   */\n      dup3\n        /* \"#utility.yul\":3436:3477   */\n      tag_325\n      jump\t// in\n    tag_429:\n        /* \"#utility.yul\":3356:3483   */\n      swap2\n      swap1\n      pop\n      jump\t// out\n        /* \"#utility.yul\":3489:3616   */\n    tag_327:\n        /* \"#utility.yul\":3545:3554   */\n      0x00\n        /* \"#utility.yul\":3578:3610   */\n      tag_431\n        /* \"#utility.yul\":3604:3609   */\n      dup3\n        /* \"#utility.yul\":3578:3610   */\n      tag_326\n      jump\t// in\n    tag_431:\n        /* \"#utility.yul\":3565:3610   */\n      swap1\n      pop\n        /* \"#utility.yul\":3489:3616   */\n      swap2\n      swap1\n      pop\n      jump\t// out\n        /* \"#utility.yul\":3622:3765   */\n    tag_328:\n        /* \"#utility.yul\":3715:3758   */\n      tag_433\n        /* \"#utility.yul\":3752:3757   */\n      dup2\n        /* \"#utility.yul\":3715:3758   */\n      tag_327\n      jump\t// in\n    tag_433:\n        /* \"#utility.yul\":3710:3713   */\n      dup3\n        /* \"#utility.yul\":3703:3759   */\n      mstore\n        /* \"#utility.yul\":3622:3765   */\n      pop\n      pop\n      jump\t// out\n        /* \"#utility.yul\":3771:4005   */\n    tag_58:\n        /* \"#utility.yul\":3870:3874   */\n      0x00\n        /* \"#utility.yul\":3908:3910   */\n      0x20\n        /* \"#utility.yul\":3897:3906   */\n      dup3\n        /* \"#utility.yul\":3893:3911   */\n      add\n        /* \"#utility.yul\":3885:3911   */\n      swap1\n      pop\n        /* \"#utility.yul\":3921:3998   */\n      tag_435\n        /* \"#utility.yul\":3995:3996   */\n      0x00\n        /* \"#utility.yul\":3984:3993   */\n      dup4\n        /* \"#utility.yul\":3980:3997   */\n      add\n        /* \"#utility.yul\":3971:3977   */\n      dup5\n        /* \"#utility.yul\":3921:3998   */\n      tag_328\n      jump\t// in\n    tag_435:\n        /* \"#utility.yul\":3771:4005   */\n      swap3\n      swap2\n      pop\n      pop\n      jump\t// out\n        /* \"#utility.yul\":4011:4485   */\n    tag_81:\n        /* \"#utility.yul\":4079:4085   */\n      0x00\n        /* \"#utility.yul\":4087:4093   */\n      dup1\n        /* \"#utility.yul\":4136:4138   */\n      0x40\n        /* \"#utility.yul\":4124:4133   */\n      dup4\n        /* \"#utility.yul\":4115:4122   */\n      dup6\n        /* \"#utility.yul\":4111:4134   */\n      sub\n        /* \"#utility.yul\":4107:4139   */\n      slt\n        /* \"#utility.yul\":4104:4223   */\n      iszero\n      tag_437\n      jumpi\n        /* \"#utility.yul\":4142:4221   */\n      tag_438\n      tag_313\n      jump\t// in\n    tag_438:\n        /* \"#utility.yul\":4104:4223   */\n    tag_437:\n        /* \"#utility.yul\":4262:4263   */\n      0x00\n        /* \"#utility.yul\":4287:4340   */\n      tag_439\n        /* \"#utility.yul\":4332:4339   */\n      dup6\n        /* \"#utility.yul\":4323:4329   */\n      dup3\n        /* \"#utility.yul\":4312:4321   */\n      dup7\n        /* \"#utility.yul\":4308:4330   */\n      add\n        /* \"#utility.yul\":4287:4340   */\n      tag_318\n      jump\t// in\n    tag_439:\n        /* \"#utility.yul\":4277:4340   */\n      swap3\n      pop\n        /* \"#utility.yul\":4233:4350   */\n      pop\n        /* \"#utility.yul\":4389:4391   */\n      0x20\n        /* \"#utility.yul\":4415:4468   */\n      tag_440\n        /* \"#utility.yul\":4460:4467   */\n      dup6\n        /* \"#utility.yul\":4451:4457   */\n      dup3\n        /* \"#utility.yul\":4440:4449   */\n      dup7\n        /* \"#utility.yul\":4436:4458   */\n      add\n        /* \"#utility.yul\":4415:4468   */\n      tag_322\n      jump\t// in\n    tag_440:\n        /* \"#utility.yul\":4405:4468   */\n      swap2\n      pop\n        /* \"#utility.yul\":4360:4478   */\n      pop\n        /* \"#utility.yul\":4011:4485   */\n      swap3\n      pop\n      swap3\n      swap1\n      pop\n      jump\t// out\n        /* \"#utility.yul\":4491:5110   */\n    tag_88:\n        /* \"#utility.yul\":4568:4574   */\n      0x00\n        /* \"#utility.yul\":4576:4582   */\n      dup1\n        /* \"#utility.yul\":4584:4590   */\n      0x00\n        /* \"#utility.yul\":4633:4635   */\n      0x60\n        /* \"#utility.yul\":4621:4630   */\n      dup5\n        /* \"#utility.yul\":4612:4619   */\n      dup7\n        /* \"#utility.yul\":4608:4631   */\n      sub\n        /* \"#utility.yul\":4604:4636   */\n      slt\n        /* \"#utility.yul\":4601:4720   */\n      iszero\n      tag_442\n      jumpi\n        /* \"#utility.yul\":4639:4718   */\n      tag_443\n      tag_313\n      jump\t// in\n    tag_443:\n        /* \"#utility.yul\":4601:4720   */\n    tag_442:\n        /* \"#utility.yul\":4759:4760   */\n      0x00\n        /* \"#utility.yul\":4784:4837   */\n      tag_444\n        /* \"#utility.yul\":4829:4836   */\n      dup7\n        /* \"#utility.yul\":4820:4826   */\n      dup3\n        /* \"#utility.yul\":4809:4818   */\n      dup8\n        /* \"#utility.yul\":4805:4827   */\n      add\n        /* \"#utility.yul\":4784:4837   */\n      tag_318\n      jump\t// in\n    tag_444:\n        /* \"#utility.yul\":4774:4837   */\n      swap4\n      pop\n        /* \"#utility.yul\":4730:4847   */\n      pop\n        /* \"#utility.yul\":4886:4888   */\n      0x20\n        /* \"#utility.yul\":4912:4965   */\n      tag_445\n        /* \"#utility.yul\":4957:4964   */\n      dup7\n        /* \"#utility.yul\":4948:4954   */\n      dup3\n        /* \"#utility.yul\":4937:4946   */\n      dup8\n        /* \"#utility.yul\":4933:4955   */\n      add\n        /* \"#utility.yul\":4912:4965   */\n      tag_318\n      jump\t// in\n    tag_445:\n        /* \"#utility.yul\":4902:4965   */\n      swap3\n      pop\n        /* \"#utility.yul\":4857:4975   */\n      pop\n        /* \"#utility.yul\":5014:5016   */\n      0x40\n        /* \"#utility.yul\":5040:5093   */\n      tag_446\n        /* \"#utility.yul\":5085:5092   */\n      dup7\n        /* \"#utility.yul\":5076:5082   */\n      dup3\n        /* \"#utility.yul\":5065:5074   */\n      dup8\n        /* \"#utility.yul\":5061:5083   */\n      add\n        /* \"#utility.yul\":5040:5093   */\n      tag_322\n      jump\t// in\n    tag_446:\n        /* \"#utility.yul\":5030:5093   */\n      swap2\n      pop\n        /* \"#utility.yul\":4985:5103   */\n      pop\n        /* \"#utility.yul\":4491:5110   */\n      swap3\n      pop\n      swap3\n      pop\n      swap3\n      jump\t// out\n        /* \"#utility.yul\":5116:5233   */\n    tag_329:\n        /* \"#utility.yul\":5225:5226   */\n      0x00\n        /* \"#utility.yul\":5222:5223   */\n      dup1\n        /* \"#utility.yul\":5215:5227   */\n      revert\n        /* \"#utility.yul\":5239:5356   */\n    tag_330:\n        /* \"#utility.yul\":5348:5349   */\n      0x00\n        /* \"#utility.yul\":5345:5346   */\n      dup1\n        /* \"#utility.yul\":5338:5350   */\n      revert\n        /* \"#utility.yul\":5362:5479   */\n    tag_331:\n        /* \"#utility.yul\":5471:5472   */\n      0x00\n        /* \"#utility.yul\":5468:5469   */\n      dup1\n        /* \"#utility.yul\":5461:5473   */\n      revert\n        /* \"#utility.yul\":5499:6052   */\n    tag_332:\n        /* \"#utility.yul\":5557:5565   */\n      0x00\n        /* \"#utility.yul\":5567:5573   */\n      dup1\n        /* \"#utility.yul\":5617:5620   */\n      dup4\n        /* \"#utility.yul\":5610:5614   */\n      0x1f\n        /* \"#utility.yul\":5602:5608   */\n      dup5\n        /* \"#utility.yul\":5598:5615   */\n      add\n        /* \"#utility.yul\":5594:5621   */\n      slt\n        /* \"#utility.yul\":5584:5706   */\n      tag_451\n      jumpi\n        /* \"#utility.yul\":5625:5704   */\n      tag_452\n      tag_329\n      jump\t// in\n    tag_452:\n        /* \"#utility.yul\":5584:5706   */\n    tag_451:\n        /* \"#utility.yul\":5738:5744   */\n      dup3\n        /* \"#utility.yul\":5725:5745   */\n      calldataload\n        /* \"#utility.yul\":5715:5745   */\n      swap1\n      pop\n        /* \"#utility.yul\":5768:5786   */\n      0xffffffffffffffff\n        /* \"#utility.yul\":5760:5766   */\n      dup2\n        /* \"#utility.yul\":5757:5787   */\n      gt\n        /* \"#utility.yul\":5754:5871   */\n      iszero\n      tag_453\n      jumpi\n        /* \"#utility.yul\":5790:5869   */\n      tag_454\n      tag_330\n      jump\t// in\n    tag_454:\n        /* \"#utility.yul\":5754:5871   */\n    tag_453:\n        /* \"#utility.yul\":5904:5908   */\n      0x20\n        /* \"#utility.yul\":5896:5902   */\n      dup4\n        /* \"#utility.yul\":5892:5909   */\n      add\n        /* \"#utility.yul\":5880:5909   */\n      swap2\n      pop\n        /* \"#utility.yul\":5958:5961   */\n      dup4\n        /* \"#utility.yul\":5950:5954   */\n      0x01\n        /* \"#utility.yul\":5942:5948   */\n      dup3\n        /* \"#utility.yul\":5938:5955   */\n      mul\n        /* \"#utility.yul\":5928:5936   */\n      dup4\n        /* \"#utility.yul\":5924:5956   */\n      add\n        /* \"#utility.yul\":5921:5962   */\n      gt\n        /* \"#utility.yul\":5918:6046   */\n      iszero\n      tag_455\n      jumpi\n        /* \"#utility.yul\":5965:6044   */\n      tag_456\n      tag_331\n      jump\t// in\n    tag_456:\n        /* \"#utility.yul\":5918:6046   */\n    tag_455:\n        /* \"#utility.yul\":5499:6052   */\n      swap3\n      pop\n      swap3\n      swap1\n      pop\n      jump\t// out\n        /* \"#utility.yul\":6058:6732   */\n    tag_98:\n        /* \"#utility.yul\":6138:6144   */\n      0x00\n        /* \"#utility.yul\":6146:6152   */\n      dup1\n        /* \"#utility.yul\":6154:6160   */\n      0x00\n        /* \"#utility.yul\":6203:6205   */\n      0x40\n        /* \"#utility.yul\":6191:6200   */\n      dup5\n        /* \"#utility.yul\":6182:6189   */\n      dup7\n        /* \"#utility.yul\":6178:6201   */\n      sub\n        /* \"#utility.yul\":6174:6206   */\n      slt\n        /* \"#utility.yul\":6171:6290   */\n      iszero\n      tag_458\n      jumpi\n        /* \"#utility.yul\":6209:6288   */\n      tag_459\n      tag_313\n      jump\t// in\n    tag_459:\n        /* \"#utility.yul\":6171:6290   */\n    tag_458:\n        /* \"#utility.yul\":6329:6330   */\n      0x00\n        /* \"#utility.yul\":6354:6407   */\n      tag_460\n        /* \"#utility.yul\":6399:6406   */\n      dup7\n        /* \"#utility.yul\":6390:6396   */\n      dup3\n        /* \"#utility.yul\":6379:6388   */\n      dup8\n        /* \"#utility.yul\":6375:6397   */\n      add\n        /* \"#utility.yul\":6354:6407   */\n      tag_318\n      jump\t// in\n    tag_460:\n        /* \"#utility.yul\":6344:6407   */\n      swap4\n      pop\n        /* \"#utility.yul\":6300:6417   */\n      pop\n        /* \"#utility.yul\":6484:6486   */\n      0x20\n        /* \"#utility.yul\":6473:6482   */\n      dup5\n        /* \"#utility.yul\":6469:6487   */\n      add\n        /* \"#utility.yul\":6456:6488   */\n      calldataload\n        /* \"#utility.yul\":6515:6533   */\n      0xffffffffffffffff\n        /* \"#utility.yul\":6507:6513   */\n      dup2\n        /* \"#utility.yul\":6504:6534   */\n      gt\n        /* \"#utility.yul\":6501:6618   */\n      iszero\n      tag_461\n      jumpi\n        /* \"#utility.yul\":6537:6616   */\n      tag_462\n      tag_314\n      jump\t// in\n    tag_462:\n        /* \"#utility.yul\":6501:6618   */\n    tag_461:\n        /* \"#utility.yul\":6650:6715   */\n      tag_463\n        /* \"#utility.yul\":6707:6714   */\n      dup7\n        /* \"#utility.yul\":6698:6704   */\n      dup3\n        /* \"#utility.yul\":6687:6696   */\n      dup8\n        /* \"#utility.yul\":6683:6705   */\n      add\n        /* \"#utility.yul\":6650:6715   */\n      tag_332\n      jump\t// in\n    tag_463:\n        /* \"#utility.yul\":6632:6715   */\n      swap3\n      pop\n      swap3\n      pop\n        /* \"#utility.yul\":6427:6725   */\n      pop\n        /* \"#utility.yul\":6058:6732   */\n      swap3\n      pop\n      swap3\n      pop\n      swap3\n      jump\t// out\n        /* \"#utility.yul\":6738:6837   */\n    tag_333:\n        /* \"#utility.yul\":6790:6796   */\n      0x00\n        /* \"#utility.yul\":6824:6829   */\n      dup2\n        /* \"#utility.yul\":6818:6830   */\n      mload\n        /* \"#utility.yul\":6808:6830   */\n      swap1\n      pop\n        /* \"#utility.yul\":6738:6837   */\n      swap2\n      swap1\n      pop\n      jump\t// out\n        /* \"#utility.yul\":6843:7012   */\n    tag_334:\n        /* \"#utility.yul\":6927:6938   */\n      0x00\n        /* \"#utility.yul\":6961:6967   */\n      dup3\n        /* \"#utility.yul\":6956:6959   */\n      dup3\n        /* \"#utility.yul\":6949:6968   */\n      mstore\n        /* \"#utility.yul\":7001:7005   */\n      0x20\n        /* \"#utility.yul\":6996:6999   */\n      dup3\n        /* \"#utility.yul\":6992:7006   */\n      add\n        /* \"#utility.yul\":6977:7006   */\n      swap1\n      pop\n        /* \"#utility.yul\":6843:7012   */\n      swap3\n      swap2\n      pop\n      pop\n      jump\t// out\n        /* \"#utility.yul\":7018:7264   */\n    tag_335:\n        /* \"#utility.yul\":7099:7100   */\n      0x00\n        /* \"#utility.yul\":7109:7222   */\n    tag_467:\n        /* \"#utility.yul\":7123:7129   */\n      dup4\n        /* \"#utility.yul\":7120:7121   */\n      dup2\n        /* \"#utility.yul\":7117:7130   */\n      lt\n        /* \"#utility.yul\":7109:7222   */\n      iszero\n      tag_469\n      jumpi\n        /* \"#utility.yul\":7208:7209   */\n      dup1\n        /* \"#utility.yul\":7203:7206   */\n      dup3\n        /* \"#utility.yul\":7199:7210   */\n      add\n        /* \"#utility.yul\":7193:7211   */\n      mload\n        /* \"#utility.yul\":7189:7190   */\n      dup2\n        /* \"#utility.yul\":7184:7187   */\n      dup5\n        /* \"#utility.yul\":7180:7191   */\n      add\n        /* \"#utility.yul\":7173:7212   */\n      mstore\n        /* \"#utility.yul\":7145:7147   */\n      0x20\n        /* \"#utility.yul\":7142:7143   */\n      dup2\n        /* \"#utility.yul\":7138:7148   */\n      add\n        /* \"#utility.yul\":7133:7148   */\n      swap1\n      pop\n        /* \"#utility.yul\":7109:7222   */\n      jump(tag_467)\n    tag_469:\n        /* \"#utility.yul\":7256:7257   */\n      0x00\n        /* \"#utility.yul\":7247:7253   */\n      dup5\n        /* \"#utility.yul\":7242:7245   */\n      dup5\n        /* \"#utility.yul\":7238:7254   */\n      add\n        /* \"#utility.yul\":7231:7258   */\n      mstore\n        /* \"#utility.yul\":7080:7264   */\n      pop\n        /* \"#utility.yul\":7018:7264   */\n      pop\n      pop\n      pop\n      jump\t// out\n        /* \"#utility.yul\":7270:7372   */\n    tag_336:\n        /* \"#utility.yul\":7311:7317   */\n      0x00\n        /* \"#utility.yul\":7362:7364   */\n      0x1f\n        /* \"#utility.yul\":7358:7365   */\n      not\n        /* \"#utility.yul\":7353:7355   */\n      0x1f\n        /* \"#utility.yul\":7346:7351   */\n      dup4\n        /* \"#utility.yul\":7342:7356   */\n      add\n        /* \"#utility.yul\":7338:7366   */\n      and\n        /* \"#utility.yul\":7328:7366   */\n      swap1\n      pop\n        /* \"#utility.yul\":7270:7372   */\n      swap2\n      swap1\n      pop\n      jump\t// out\n        /* \"#utility.yul\":7378:7755   */\n    tag_337:\n        /* \"#utility.yul\":7466:7469   */\n      0x00\n        /* \"#utility.yul\":7494:7533   */\n      tag_472\n        /* \"#utility.yul\":7527:7532   */\n      dup3\n        /* \"#utility.yul\":7494:7533   */\n      tag_333\n      jump\t// in\n    tag_472:\n        /* \"#utility.yul\":7549:7620   */\n      tag_473\n        /* \"#utility.yul\":7613:7619   */\n      dup2\n        /* \"#utility.yul\":7608:7611   */\n      dup6\n        /* \"#utility.yul\":7549:7620   */\n      tag_334\n      jump\t// in\n    tag_473:\n        /* \"#utility.yul\":7542:7620   */\n      swap4\n      pop\n        /* \"#utility.yul\":7629:7694   */\n      tag_474\n        /* \"#utility.yul\":7687:7693   */\n      dup2\n        /* \"#utility.yul\":7682:7685   */\n      dup6\n        /* \"#utility.yul\":7675:7679   */\n      0x20\n        /* \"#utility.yul\":7668:7673   */\n      dup7\n        /* \"#utility.yul\":7664:7680   */\n      add\n        /* \"#utility.yul\":7629:7694   */\n      tag_335\n      jump\t// in\n    tag_474:\n        /* \"#utility.yul\":7719:7748   */\n      tag_475\n        /* \"#utility.yul\":7741:7747   */\n      dup2\n        /* \"#utility.yul\":7719:7748   */\n      tag_336\n      jump\t// in\n    tag_475:\n        /* \"#utility.yul\":7714:7717   */\n      dup5\n        /* \"#utility.yul\":7710:7749   */\n      add\n        /* \"#utility.yul\":7703:7749   */\n      swap2\n      pop\n        /* \"#utility.yul\":7470:7755   */\n      pop\n        /* \"#utility.yul\":7378:7755   */\n      swap3\n      swap2\n      pop\n      pop\n      jump\t// out\n        /* \"#utility.yul\":7761:7851   */\n    tag_338:\n        /* \"#utility.yul\":7795:7802   */\n      0x00\n        /* \"#utility.yul\":7838:7843   */\n      dup2\n        /* \"#utility.yul\":7831:7844   */\n      iszero\n        /* \"#utility.yul\":7824:7845   */\n      iszero\n        /* \"#utility.yul\":7813:7845   */\n      swap1\n      pop\n        /* \"#utility.yul\":7761:7851   */\n      swap2\n      swap1\n      pop\n      jump\t// out\n        /* \"#utility.yul\":7857:7966   */\n    tag_339:\n        /* \"#utility.yul\":7938:7959   */\n      tag_478\n        /* \"#utility.yul\":7953:7958   */\n      dup2\n        /* \"#utility.yul\":7938:7959   */\n      tag_338\n      jump\t// in\n    tag_478:\n        /* \"#utility.yul\":7933:7936   */\n      dup3\n        /* \"#utility.yul\":7926:7960   */\n      mstore\n        /* \"#utility.yul\":7857:7966   */\n      pop\n      pop\n      jump\t// out\n        /* \"#utility.yul\":7972:8383   */\n    tag_111:\n        /* \"#utility.yul\":8107:8111   */\n      0x00\n        /* \"#utility.yul\":8145:8147   */\n      0x40\n        /* \"#utility.yul\":8134:8143   */\n      dup3\n        /* \"#utility.yul\":8130:8148   */\n      add\n        /* \"#utility.yul\":8122:8148   */\n      swap1\n      pop\n        /* \"#utility.yul\":8194:8203   */\n      dup2\n        /* \"#utility.yul\":8188:8192   */\n      dup2\n        /* \"#utility.yul\":8184:8204   */\n      sub\n        /* \"#utility.yul\":8180:8181   */\n      0x00\n        /* \"#utility.yul\":8169:8178   */\n      dup4\n        /* \"#utility.yul\":8165:8182   */\n      add\n        /* \"#utility.yul\":8158:8205   */\n      mstore\n        /* \"#utility.yul\":8222:8300   */\n      tag_480\n        /* \"#utility.yul\":8295:8299   */\n      dup2\n        /* \"#utility.yul\":8286:8292   */\n      dup6\n        /* \"#utility.yul\":8222:8300   */\n      tag_337\n      jump\t// in\n    tag_480:\n        /* \"#utility.yul\":8214:8300   */\n      swap1\n      pop\n        /* \"#utility.yul\":8310:8376   */\n      tag_481\n        /* \"#utility.yul\":8372:8374   */\n      0x20\n        /* \"#utility.yul\":8361:8370   */\n      dup4\n        /* \"#utility.yul\":8357:8375   */\n      add\n        /* \"#utility.yul\":8348:8354   */\n      dup5\n        /* \"#utility.yul\":8310:8376   */\n      tag_339\n      jump\t// in\n    tag_481:\n        /* \"#utility.yul\":7972:8383   */\n      swap4\n      swap3\n      pop\n      pop\n      pop\n      jump\t// out\n        /* \"#utility.yul\":8389:8558   */\n    tag_340:\n        /* \"#utility.yul\":8529:8550   */\n      0x546f6b656e206973206e6f742061637469766500000000000000000000000000\n        /* \"#utility.yul\":8525:8526   */\n      0x00\n        /* \"#utility.yul\":8517:8523   */\n      dup3\n        /* \"#utility.yul\":8513:8527   */\n      add\n        /* \"#utility.yul\":8506:8551   */\n      mstore\n        /* \"#utility.yul\":8389:8558   */\n      pop\n      jump\t// out\n        /* \"#utility.yul\":8564:8930   */\n    tag_341:\n        /* \"#utility.yul\":8706:8709   */\n      0x00\n        /* \"#utility.yul\":8727:8794   */\n      tag_484\n        /* \"#utility.yul\":8791:8793   */\n      0x13\n        /* \"#utility.yul\":8786:8789   */\n      dup4\n        /* \"#utility.yul\":8727:8794   */\n      tag_334\n      jump\t// in\n    tag_484:\n        /* \"#utility.yul\":8720:8794   */\n      swap2\n      pop\n        /* \"#utility.yul\":8803:8896   */\n      tag_485\n        /* \"#utility.yul\":8892:8895   */\n      dup3\n        /* \"#utility.yul\":8803:8896   */\n      tag_340\n      jump\t// in\n    tag_485:\n        /* \"#utility.yul\":8921:8923   */\n      0x20\n        /* \"#utility.yul\":8916:8919   */\n      dup3\n        /* \"#utility.yul\":8912:8924   */\n      add\n        /* \"#utility.yul\":8905:8924   */\n      swap1\n      pop\n        /* \"#utility.yul\":8564:8930   */\n      swap2\n      swap1\n      pop\n      jump\t// out\n        /* \"#utility.yul\":8936:9355   */\n    tag_123:\n        /* \"#utility.yul\":9102:9106   */\n      0x00\n        /* \"#utility.yul\":9140:9142   */\n      0x20\n        /* \"#utility.yul\":9129:9138   */\n      dup3\n        /* \"#utility.yul\":9125:9143   */\n      add\n        /* \"#utility.yul\":9117:9143   */\n      swap1\n      pop\n        /* \"#utility.yul\":9189:9198   */\n      dup2\n        /* \"#utility.yul\":9183:9187   */\n      dup2\n        /* \"#utility.yul\":9179:9199   */\n      sub\n        /* \"#utility.yul\":9175:9176   */\n      0x00\n        /* \"#utility.yul\":9164:9173   */\n      dup4\n        /* \"#utility.yul\":9160:9177   */\n      add\n        /* \"#utility.yul\":9153:9200   */\n      mstore\n        /* \"#utility.yul\":9217:9348   */\n      tag_487\n        /* \"#utility.yul\":9343:9347   */\n      dup2\n        /* \"#utility.yul\":9217:9348   */\n      tag_341\n      jump\t// in\n    tag_487:\n        /* \"#utility.yul\":9209:9348   */\n      swap1\n      pop\n        /* \"#utility.yul\":8936:9355   */\n      swap2\n      swap1\n      pop\n      jump\t// out\n        /* \"#utility.yul\":9361:9525   */\n    tag_342:\n        /* \"#utility.yul\":9501:9517   */\n      0x4e6f7420617574686f72697a6564000000000000000000000000000000000000\n        /* \"#utility.yul\":9497:9498   */\n      0x00\n        /* \"#utility.yul\":9489:9495   */\n      dup3\n        /* \"#utility.yul\":9485:9499   */\n      add\n        /* \"#utility.yul\":9478:9518   */\n      mstore\n        /* \"#utility.yul\":9361:9525   */\n      pop\n      jump\t// out\n        /* \"#utility.yul\":9531:9897   */\n    tag_343:\n        /* \"#utility.yul\":9673:9676   */\n      0x00\n        /* \"#utility.yul\":9694:9761   */\n      tag_490\n        /* \"#utility.yul\":9758:9760   */\n      0x0e\n        /* \"#utility.yul\":9753:9756   */\n      dup4\n        /* \"#utility.yul\":9694:9761   */\n      tag_334\n      jump\t// in\n    tag_490:\n        /* \"#utility.yul\":9687:9761   */\n      swap2\n      pop\n        /* \"#utility.yul\":9770:9863   */\n      tag_491\n        /* \"#utility.yul\":9859:9862   */\n      dup3\n        /* \"#utility.yul\":9770:9863   */\n      tag_342\n      jump\t// in\n    tag_491:\n        /* \"#utility.yul\":9888:9890   */\n      0x20\n        /* \"#utility.yul\":9883:9886   */\n      dup3\n        /* \"#utility.yul\":9879:9891   */\n      add\n        /* \"#utility.yul\":9872:9891   */\n      swap1\n      pop\n        /* \"#utility.yul\":9531:9897   */\n      swap2\n      swap1\n      pop\n      jump\t// out\n        /* \"#utility.yul\":9903:10322   */\n    tag_137:\n        /* \"#utility.yul\":10069:10073   */\n      0x00\n        /* \"#utility.yul\":10107:10109   */\n      0x20\n        /* \"#utility.yul\":10096:10105   */\n      dup3\n        /* \"#utility.yul\":10092:10110   */\n      add\n        /* \"#utility.yul\":10084:10110   */\n      swap1\n      pop\n        /* \"#utility.yul\":10156:10165   */\n      dup2\n        /* \"#utility.yul\":10150:10154   */\n      dup2\n        /* \"#utility.yul\":10146:10166   */\n      sub\n        /* \"#utility.yul\":10142:10143   */\n      0x00\n        /* \"#utility.yul\":10131:10140   */\n      dup4\n        /* \"#utility.yul\":10127:10144   */\n      add\n        /* \"#utility.yul\":10120:10167   */\n      mstore\n        /* \"#utility.yul\":10184:10315   */\n      tag_493\n        /* \"#utility.yul\":10310:10314   */\n      dup2\n        /* \"#utility.yul\":10184:10315   */\n      tag_343\n      jump\t// in\n    tag_493:\n        /* \"#utility.yul\":10176:10315   */\n      swap1\n      pop\n        /* \"#utility.yul\":9903:10322   */\n      swap2\n      swap1\n      pop\n      jump\t// out\n        /* \"#utility.yul\":10328:10499   */\n    tag_344:\n        /* \"#utility.yul\":10468:10491   */\n      0x4d616e6167657220616c72656164792061646465640000000000000000000000\n        /* \"#utility.yul\":10464:10465   */\n      0x00\n        /* \"#utility.yul\":10456:10462   */\n      dup3\n        /* \"#utility.yul\":10452:10466   */\n      add\n        /* \"#utility.yul\":10445:10492   */\n      mstore\n        /* \"#utility.yul\":10328:10499   */\n      pop\n      jump\t// out\n        /* \"#utility.yul\":10505:10871   */\n    tag_345:\n        /* \"#utility.yul\":10647:10650   */\n      0x00\n        /* \"#utility.yul\":10668:10735   */\n      tag_496\n        /* \"#utility.yul\":10732:10734   */\n      0x15\n        /* \"#utility.yul\":10727:10730   */\n      dup4\n        /* \"#utility.yul\":10668:10735   */\n      tag_334\n      jump\t// in\n    tag_496:\n        /* \"#utility.yul\":10661:10735   */\n      swap2\n      pop\n        /* \"#utility.yul\":10744:10837   */\n      tag_497\n        /* \"#utility.yul\":10833:10836   */\n      dup3\n        /* \"#utility.yul\":10744:10837   */\n      tag_344\n      jump\t// in\n    tag_497:\n        /* \"#utility.yul\":10862:10864   */\n      0x20\n        /* \"#utility.yul\":10857:10860   */\n      dup3\n        /* \"#utility.yul\":10853:10865   */\n      add\n        /* \"#utility.yul\":10846:10865   */\n      swap1\n      pop\n        /* \"#utility.yul\":10505:10871   */\n      swap2\n      swap1\n      pop\n      jump\t// out\n        /* \"#utility.yul\":10877:11296   */\n    tag_141:\n        /* \"#utility.yul\":11043:11047   */\n      0x00\n        /* \"#utility.yul\":11081:11083   */\n      0x20\n        /* \"#utility.yul\":11070:11079   */\n      dup3\n        /* \"#utility.yul\":11066:11084   */\n      add\n        /* \"#utility.yul\":11058:11084   */\n      swap1\n      pop\n        /* \"#utility.yul\":11130:11139   */\n      dup2\n        /* \"#utility.yul\":11124:11128   */\n      dup2\n        /* \"#utility.yul\":11120:11140   */\n      sub\n        /* \"#utility.yul\":11116:11117   */\n      0x00\n        /* \"#utility.yul\":11105:11114   */\n      dup4\n        /* \"#utility.yul\":11101:11118   */\n      add\n        /* \"#utility.yul\":11094:11141   */\n      mstore\n        /* \"#utility.yul\":11158:11289   */\n      tag_499\n        /* \"#utility.yul\":11284:11288   */\n      dup2\n        /* \"#utility.yul\":11158:11289   */\n      tag_345\n      jump\t// in\n    tag_499:\n        /* \"#utility.yul\":11150:11289   */\n      swap1\n      pop\n        /* \"#utility.yul\":10877:11296   */\n      swap2\n      swap1\n      pop\n      jump\t// out\n        /* \"#utility.yul\":11302:11468   */\n    tag_346:\n        /* \"#utility.yul\":11442:11460   */\n      0x546f6b656e206e6f742061637469766500000000000000000000000000000000\n        /* \"#utility.yul\":11438:11439   */\n      0x00\n        /* \"#utility.yul\":11430:11436   */\n      dup3\n        /* \"#utility.yul\":11426:11440   */\n      add\n        /* \"#utility.yul\":11419:11461   */\n      mstore\n        /* \"#utility.yul\":11302:11468   */\n      pop\n      jump\t// out\n        /* \"#utility.yul\":11474:11840   */\n    tag_347:\n        /* \"#utility.yul\":11616:11619   */\n      0x00\n        /* \"#utility.yul\":11637:11704   */\n      tag_502\n        /* \"#utility.yul\":11701:11703   */\n      0x10\n        /* \"#utility.yul\":11696:11699   */\n      dup4\n        /* \"#utility.yul\":11637:11704   */\n      tag_334\n      jump\t// in\n    tag_502:\n        /* \"#utility.yul\":11630:11704   */\n      swap2\n      pop\n        /* \"#utility.yul\":11713:11806   */\n      tag_503\n        /* \"#utility.yul\":11802:11805   */\n      dup3\n        /* \"#utility.yul\":11713:11806   */\n      tag_346\n      jump\t// in\n    tag_503:\n        /* \"#utility.yul\":11831:11833   */\n      0x20\n        /* \"#utility.yul\":11826:11829   */\n      dup3\n        /* \"#utility.yul\":11822:11834   */\n      add\n        /* \"#utility.yul\":11815:11834   */\n      swap1\n      pop\n        /* \"#utility.yul\":11474:11840   */\n      swap2\n      swap1\n      pop\n      jump\t// out\n        /* \"#utility.yul\":11846:12265   */\n    tag_149:\n        /* \"#utility.yul\":12012:12016   */\n      0x00\n        /* \"#utility.yul\":12050:12052   */\n      0x20\n        /* \"#utility.yul\":12039:12048   */\n      dup3\n        /* \"#utility.yul\":12035:12053   */\n      add\n        /* \"#utility.yul\":12027:12053   */\n      swap1\n      pop\n        /* \"#utility.yul\":12099:12108   */\n      dup2\n        /* \"#utility.yul\":12093:12097   */\n      dup2\n        /* \"#utility.yul\":12089:12109   */\n      sub\n        /* \"#utility.yul\":12085:12086   */\n      0x00\n        /* \"#utility.yul\":12074:12083   */\n      dup4\n        /* \"#utility.yul\":12070:12087   */\n      add\n        /* \"#utility.yul\":12063:12110   */\n      mstore\n        /* \"#utility.yul\":12127:12258   */\n      tag_505\n        /* \"#utility.yul\":12253:12257   */\n      dup2\n        /* \"#utility.yul\":12127:12258   */\n      tag_347\n      jump\t// in\n    tag_505:\n        /* \"#utility.yul\":12119:12258   */\n      swap1\n      pop\n        /* \"#utility.yul\":11846:12265   */\n      swap2\n      swap1\n      pop\n      jump\t// out\n        /* \"#utility.yul\":12271:12453   */\n    tag_348:\n        /* \"#utility.yul\":12411:12445   */\n      0x416d6f756e74206d7573742062652067726561746572207468616e207a65726f\n        /* \"#utility.yul\":12407:12408   */\n      0x00\n        /* \"#utility.yul\":12399:12405   */\n      dup3\n        /* \"#utility.yul\":12395:12409   */\n      add\n        /* \"#utility.yul\":12388:12446   */\n      mstore\n        /* \"#utility.yul\":12271:12453   */\n      pop\n      jump\t// out\n        /* \"#utility.yul\":12459:12825   */\n    tag_349:\n        /* \"#utility.yul\":12601:12604   */\n      0x00\n        /* \"#utility.yul\":12622:12689   */\n      tag_508\n        /* \"#utility.yul\":12686:12688   */\n      0x20\n        /* \"#utility.yul\":12681:12684   */\n      dup4\n        /* \"#utility.yul\":12622:12689   */\n      tag_334\n      jump\t// in\n    tag_508:\n        /* \"#utility.yul\":12615:12689   */\n      swap2\n      pop\n        /* \"#utility.yul\":12698:12791   */\n      tag_509\n        /* \"#utility.yul\":12787:12790   */\n      dup3\n        /* \"#utility.yul\":12698:12791   */\n      tag_348\n      jump\t// in\n    tag_509:\n        /* \"#utility.yul\":12816:12818   */\n      0x20\n        /* \"#utility.yul\":12811:12814   */\n      dup3\n        /* \"#utility.yul\":12807:12819   */\n      add\n        /* \"#utility.yul\":12800:12819   */\n      swap1\n      pop\n        /* \"#utility.yul\":12459:12825   */\n      swap2\n      swap1\n      pop\n      jump\t// out\n        /* \"#utility.yul\":12831:13250   */\n    tag_180:\n        /* \"#utility.yul\":12997:13001   */\n      0x00\n        /* \"#utility.yul\":13035:13037   */\n      0x20\n        /* \"#utility.yul\":13024:13033   */\n      dup3\n        /* \"#utility.yul\":13020:13038   */\n      add\n        /* \"#utility.yul\":13012:13038   */\n      swap1\n      pop\n        /* \"#utility.yul\":13084:13093   */\n      dup2\n        /* \"#utility.yul\":13078:13082   */\n      dup2\n        /* \"#utility.yul\":13074:13094   */\n      sub\n        /* \"#utility.yul\":13070:13071   */\n      0x00\n        /* \"#utility.yul\":13059:13068   */\n      dup4\n        /* \"#utility.yul\":13055:13072   */\n      add\n        /* \"#utility.yul\":13048:13095   */\n      mstore\n        /* \"#utility.yul\":13112:13243   */\n      tag_511\n        /* \"#utility.yul\":13238:13242   */\n      dup2\n        /* \"#utility.yul\":13112:13243   */\n      tag_349\n      jump\t// in\n    tag_511:\n        /* \"#utility.yul\":13104:13243   */\n      swap1\n      pop\n        /* \"#utility.yul\":12831:13250   */\n      swap2\n      swap1\n      pop\n      jump\t// out\n        /* \"#utility.yul\":13256:13430   */\n    tag_350:\n        /* \"#utility.yul\":13396:13422   */\n      0x5374616b656420616d6f756e74206e6f7420656e6f7567680000000000000000\n        /* \"#utility.yul\":13392:13393   */\n      0x00\n        /* \"#utility.yul\":13384:13390   */\n      dup3\n        /* \"#utility.yul\":13380:13394   */\n      add\n        /* \"#utility.yul\":13373:13423   */\n      mstore\n        /* \"#utility.yul\":13256:13430   */\n      pop\n      jump\t// out\n        /* \"#utility.yul\":13436:13802   */\n    tag_351:\n        /* \"#utility.yul\":13578:13581   */\n      0x00\n        /* \"#utility.yul\":13599:13666   */\n      tag_514\n        /* \"#utility.yul\":13663:13665   */\n      0x18\n        /* \"#utility.yul\":13658:13661   */\n      dup4\n        /* \"#utility.yul\":13599:13666   */\n      tag_334\n      jump\t// in\n    tag_514:\n        /* \"#utility.yul\":13592:13666   */\n      swap2\n      pop\n        /* \"#utility.yul\":13675:13768   */\n      tag_515\n        /* \"#utility.yul\":13764:13767   */\n      dup3\n        /* \"#utility.yul\":13675:13768   */\n      tag_350\n      jump\t// in\n    tag_515:\n        /* \"#utility.yul\":13793:13795   */\n      0x20\n        /* \"#utility.yul\":13788:13791   */\n      dup3\n        /* \"#utility.yul\":13784:13796   */\n      add\n        /* \"#utility.yul\":13777:13796   */\n      swap1\n      pop\n        /* \"#utility.yul\":13436:13802   */\n      swap2\n      swap1\n      pop\n      jump\t// out\n        /* \"#utility.yul\":13808:14227   */\n    tag_183:\n        /* \"#utility.yul\":13974:13978   */\n      0x00\n        /* \"#utility.yul\":14012:14014   */\n      0x20\n        /* \"#utility.yul\":14001:14010   */\n      dup3\n        /* \"#utility.yul\":13997:14015   */\n      add\n        /* \"#utility.yul\":13989:14015   */\n      swap1\n      pop\n        /* \"#utility.yul\":14061:14070   */\n      dup2\n        /* \"#utility.yul\":14055:14059   */\n      dup2\n        /* \"#utility.yul\":14051:14071   */\n      sub\n        /* \"#utility.yul\":14047:14048   */\n      0x00\n        /* \"#utility.yul\":14036:14045   */\n      dup4\n        /* \"#utility.yul\":14032:14049   */\n      add\n        /* \"#utility.yul\":14025:14072   */\n      mstore\n        /* \"#utility.yul\":14089:14220   */\n      tag_517\n        /* \"#utility.yul\":14215:14219   */\n      dup2\n        /* \"#utility.yul\":14089:14220   */\n      tag_351\n      jump\t// in\n    tag_517:\n        /* \"#utility.yul\":14081:14220   */\n      swap1\n      pop\n        /* \"#utility.yul\":13808:14227   */\n      swap2\n      swap1\n      pop\n      jump\t// out\n        /* \"#utility.yul\":14233:14565   */\n    tag_187:\n        /* \"#utility.yul\":14354:14358   */\n      0x00\n        /* \"#utility.yul\":14392:14394   */\n      0x40\n        /* \"#utility.yul\":14381:14390   */\n      dup3\n        /* \"#utility.yul\":14377:14395   */\n      add\n        /* \"#utility.yul\":14369:14395   */\n      swap1\n      pop\n        /* \"#utility.yul\":14405:14476   */\n      tag_519\n        /* \"#utility.yul\":14473:14474   */\n      0x00\n        /* \"#utility.yul\":14462:14471   */\n      dup4\n        /* \"#utility.yul\":14458:14475   */\n      add\n        /* \"#utility.yul\":14449:14455   */\n      dup6\n        /* \"#utility.yul\":14405:14476   */\n      tag_323\n      jump\t// in\n    tag_519:\n        /* \"#utility.yul\":14486:14558   */\n      tag_520\n        /* \"#utility.yul\":14554:14556   */\n      0x20\n        /* \"#utility.yul\":14543:14552   */\n      dup4\n        /* \"#utility.yul\":14539:14557   */\n      add\n        /* \"#utility.yul\":14530:14536   */\n      dup5\n        /* \"#utility.yul\":14486:14558   */\n      tag_320\n      jump\t// in\n    tag_520:\n        /* \"#utility.yul\":14233:14565   */\n      swap4\n      swap3\n      pop\n      pop\n      pop\n      jump\t// out\n        /* \"#utility.yul\":14571:14687   */\n    tag_352:\n        /* \"#utility.yul\":14641:14662   */\n      tag_522\n        /* \"#utility.yul\":14656:14661   */\n      dup2\n        /* \"#utility.yul\":14641:14662   */\n      tag_338\n      jump\t// in\n    tag_522:\n        /* \"#utility.yul\":14634:14639   */\n      dup2\n        /* \"#utility.yul\":14631:14663   */\n      eq\n        /* \"#utility.yul\":14621:14681   */\n      tag_523\n      jumpi\n        /* \"#utility.yul\":14677:14678   */\n      0x00\n        /* \"#utility.yul\":14674:14675   */\n      dup1\n        /* \"#utility.yul\":14667:14679   */\n      revert\n        /* \"#utility.yul\":14621:14681   */\n    tag_523:\n        /* \"#utility.yul\":14571:14687   */\n      pop\n      jump\t// out\n        /* \"#utility.yul\":14693:14830   */\n    tag_353:\n        /* \"#utility.yul\":14747:14752   */\n      0x00\n        /* \"#utility.yul\":14778:14784   */\n      dup2\n        /* \"#utility.yul\":14772:14785   */\n      mload\n        /* \"#utility.yul\":14763:14785   */\n      swap1\n      pop\n        /* \"#utility.yul\":14794:14824   */\n      tag_525\n        /* \"#utility.yul\":14818:14823   */\n      dup2\n        /* \"#utility.yul\":14794:14824   */\n      tag_352\n      jump\t// in\n    tag_525:\n        /* \"#utility.yul\":14693:14830   */\n      swap3\n      swap2\n      pop\n      pop\n      jump\t// out\n        /* \"#utility.yul\":14836:15181   */\n    tag_191:\n        /* \"#utility.yul\":14903:14909   */\n      0x00\n        /* \"#utility.yul\":14952:14954   */\n      0x20\n        /* \"#utility.yul\":14940:14949   */\n      dup3\n        /* \"#utility.yul\":14931:14938   */\n      dup5\n        /* \"#utility.yul\":14927:14950   */\n      sub\n        /* \"#utility.yul\":14923:14955   */\n      slt\n        /* \"#utility.yul\":14920:15039   */\n      iszero\n      tag_527\n      jumpi\n        /* \"#utility.yul\":14958:15037   */\n      tag_528\n      tag_313\n      jump\t// in\n    tag_528:\n        /* \"#utility.yul\":14920:15039   */\n    tag_527:\n        /* \"#utility.yul\":15078:15079   */\n      0x00\n        /* \"#utility.yul\":15103:15164   */\n      tag_529\n        /* \"#utility.yul\":15156:15163   */\n      dup5\n        /* \"#utility.yul\":15147:15153   */\n      dup3\n        /* \"#utility.yul\":15136:15145   */\n      dup6\n        /* \"#utility.yul\":15132:15154   */\n      add\n        /* \"#utility.yul\":15103:15164   */\n      tag_353\n      jump\t// in\n    tag_529:\n        /* \"#utility.yul\":15093:15164   */\n      swap2\n      pop\n        /* \"#utility.yul\":15049:15174   */\n      pop\n        /* \"#utility.yul\":14836:15181   */\n      swap3\n      swap2\n      pop\n      pop\n      jump\t// out\n        /* \"#utility.yul\":15187:15352   */\n    tag_354:\n        /* \"#utility.yul\":15327:15344   */\n      0x5472616e73666572204661696c65640000000000000000000000000000000000\n        /* \"#utility.yul\":15323:15324   */\n      0x00\n        /* \"#utility.yul\":15315:15321   */\n      dup3\n        /* \"#utility.yul\":15311:15325   */\n      add\n        /* \"#utility.yul\":15304:15345   */\n      mstore\n        /* \"#utility.yul\":15187:15352   */\n      pop\n      jump\t// out\n        /* \"#utility.yul\":15358:15724   */\n    tag_355:\n        /* \"#utility.yul\":15500:15503   */\n      0x00\n        /* \"#utility.yul\":15521:15588   */\n      tag_532\n        /* \"#utility.yul\":15585:15587   */\n      0x0f\n        /* \"#utility.yul\":15580:15583   */\n      dup4\n        /* \"#utility.yul\":15521:15588   */\n      tag_334\n      jump\t// in\n    tag_532:\n        /* \"#utility.yul\":15514:15588   */\n      swap2\n      pop\n        /* \"#utility.yul\":15597:15690   */\n      tag_533\n        /* \"#utility.yul\":15686:15689   */\n      dup3\n        /* \"#utility.yul\":15597:15690   */\n      tag_354\n      jump\t// in\n    tag_533:\n        /* \"#utility.yul\":15715:15717   */\n      0x20\n        /* \"#utility.yul\":15710:15713   */\n      dup3\n        /* \"#utility.yul\":15706:15718   */\n      add\n        /* \"#utility.yul\":15699:15718   */\n      swap1\n      pop\n        /* \"#utility.yul\":15358:15724   */\n      swap2\n      swap1\n      pop\n      jump\t// out\n        /* \"#utility.yul\":15730:16149   */\n    tag_194:\n        /* \"#utility.yul\":15896:15900   */\n      0x00\n        /* \"#utility.yul\":15934:15936   */\n      0x20\n        /* \"#utility.yul\":15923:15932   */\n      dup3\n        /* \"#utility.yul\":15919:15937   */\n      add\n        /* \"#utility.yul\":15911:15937   */\n      swap1\n      pop\n        /* \"#utility.yul\":15983:15992   */\n      dup2\n        /* \"#utility.yul\":15977:15981   */\n      dup2\n        /* \"#utility.yul\":15973:15993   */\n      sub\n        /* \"#utility.yul\":15969:15970   */\n      0x00\n        /* \"#utility.yul\":15958:15967   */\n      dup4\n        /* \"#utility.yul\":15954:15971   */\n      add\n        /* \"#utility.yul\":15947:15994   */\n      mstore\n        /* \"#utility.yul\":16011:16142   */\n      tag_535\n        /* \"#utility.yul\":16137:16141   */\n      dup2\n        /* \"#utility.yul\":16011:16142   */\n      tag_355\n      jump\t// in\n    tag_535:\n        /* \"#utility.yul\":16003:16142   */\n      swap1\n      pop\n        /* \"#utility.yul\":15730:16149   */\n      swap2\n      swap1\n      pop\n      jump\t// out\n        /* \"#utility.yul\":16155:16322   */\n    tag_356:\n        /* \"#utility.yul\":16295:16314   */\n      0x4d616e61676572206e6f7420666f756e64000000000000000000000000000000\n        /* \"#utility.yul\":16291:16292   */\n      0x00\n        /* \"#utility.yul\":16283:16289   */\n      dup3\n        /* \"#utility.yul\":16279:16293   */\n      add\n        /* \"#utility.yul\":16272:16315   */\n      mstore\n        /* \"#utility.yul\":16155:16322   */\n      pop\n      jump\t// out\n        /* \"#utility.yul\":16328:16694   */\n    tag_357:\n        /* \"#utility.yul\":16470:16473   */\n      0x00\n        /* \"#utility.yul\":16491:16558   */\n      tag_538\n        /* \"#utility.yul\":16555:16557   */\n      0x11\n        /* \"#utility.yul\":16550:16553   */\n      dup4\n        /* \"#utility.yul\":16491:16558   */\n      tag_334\n      jump\t// in\n    tag_538:\n        /* \"#utility.yul\":16484:16558   */\n      swap2\n      pop\n        /* \"#utility.yul\":16567:16660   */\n      tag_539\n        /* \"#utility.yul\":16656:16659   */\n      dup3\n        /* \"#utility.yul\":16567:16660   */\n      tag_356\n      jump\t// in\n    tag_539:\n        /* \"#utility.yul\":16685:16687   */\n      0x20\n        /* \"#utility.yul\":16680:16683   */\n      dup3\n        /* \"#utility.yul\":16676:16688   */\n      add\n        /* \"#utility.yul\":16669:16688   */\n      swap1\n      pop\n        /* \"#utility.yul\":16328:16694   */\n      swap2\n      swap1\n      pop\n      jump\t// out\n        /* \"#utility.yul\":16700:17119   */\n    tag_226:\n        /* \"#utility.yul\":16866:16870   */\n      0x00\n        /* \"#utility.yul\":16904:16906   */\n      0x20\n        /* \"#utility.yul\":16893:16902   */\n      dup3\n        /* \"#utility.yul\":16889:16907   */\n      add\n        /* \"#utility.yul\":16881:16907   */\n      swap1\n      pop\n        /* \"#utility.yul\":16953:16962   */\n      dup2\n        /* \"#utility.yul\":16947:16951   */\n      dup2\n        /* \"#utility.yul\":16943:16963   */\n      sub\n        /* \"#utility.yul\":16939:16940   */\n      0x00\n        /* \"#utility.yul\":16928:16937   */\n      dup4\n        /* \"#utility.yul\":16924:16941   */\n      add\n        /* \"#utility.yul\":16917:16964   */\n      mstore\n        /* \"#utility.yul\":16981:17112   */\n      tag_541\n        /* \"#utility.yul\":17107:17111   */\n      dup2\n        /* \"#utility.yul\":16981:17112   */\n      tag_357\n      jump\t// in\n    tag_541:\n        /* \"#utility.yul\":16973:17112   */\n      swap1\n      pop\n        /* \"#utility.yul\":16700:17119   */\n      swap2\n      swap1\n      pop\n      jump\t// out\n        /* \"#utility.yul\":17125:17567   */\n    tag_242:\n        /* \"#utility.yul\":17274:17278   */\n      0x00\n        /* \"#utility.yul\":17312:17314   */\n      0x60\n        /* \"#utility.yul\":17301:17310   */\n      dup3\n        /* \"#utility.yul\":17297:17315   */\n      add\n        /* \"#utility.yul\":17289:17315   */\n      swap1\n      pop\n        /* \"#utility.yul\":17325:17396   */\n      tag_543\n        /* \"#utility.yul\":17393:17394   */\n      0x00\n        /* \"#utility.yul\":17382:17391   */\n      dup4\n        /* \"#utility.yul\":17378:17395   */\n      add\n        /* \"#utility.yul\":17369:17375   */\n      dup7\n        /* \"#utility.yul\":17325:17396   */\n      tag_323\n      jump\t// in\n    tag_543:\n        /* \"#utility.yul\":17406:17478   */\n      tag_544\n        /* \"#utility.yul\":17474:17476   */\n      0x20\n        /* \"#utility.yul\":17463:17472   */\n      dup4\n        /* \"#utility.yul\":17459:17477   */\n      add\n        /* \"#utility.yul\":17450:17456   */\n      dup6\n        /* \"#utility.yul\":17406:17478   */\n      tag_323\n      jump\t// in\n    tag_544:\n        /* \"#utility.yul\":17488:17560   */\n      tag_545\n        /* \"#utility.yul\":17556:17558   */\n      0x40\n        /* \"#utility.yul\":17545:17554   */\n      dup4\n        /* \"#utility.yul\":17541:17559   */\n      add\n        /* \"#utility.yul\":17532:17538   */\n      dup5\n        /* \"#utility.yul\":17488:17560   */\n      tag_320\n      jump\t// in\n    tag_545:\n        /* \"#utility.yul\":17125:17567   */\n      swap5\n      swap4\n      pop\n      pop\n      pop\n      pop\n      jump\t// out\n        /* \"#utility.yul\":17573:17755   */\n    tag_358:\n        /* \"#utility.yul\":17713:17747   */\n      0x4f776e61626c653a2063616c6c6572206973206e6f7420746865206f776e6572\n        /* \"#utility.yul\":17709:17710   */\n      0x00\n        /* \"#utility.yul\":17701:17707   */\n      dup3\n        /* \"#utility.yul\":17697:17711   */\n      add\n        /* \"#utility.yul\":17690:17748   */\n      mstore\n        /* \"#utility.yul\":17573:17755   */\n      pop\n      jump\t// out\n        /* \"#utility.yul\":17761:18127   */\n    tag_359:\n        /* \"#utility.yul\":17903:17906   */\n      0x00\n        /* \"#utility.yul\":17924:17991   */\n      tag_548\n        /* \"#utility.yul\":17988:17990   */\n      0x20\n        /* \"#utility.yul\":17983:17986   */\n      dup4\n        /* \"#utility.yul\":17924:17991   */\n      tag_334\n      jump\t// in\n    tag_548:\n        /* \"#utility.yul\":17917:17991   */\n      swap2\n      pop\n        /* \"#utility.yul\":18000:18093   */\n      tag_549\n        /* \"#utility.yul\":18089:18092   */\n      dup3\n        /* \"#utility.yul\":18000:18093   */\n      tag_358\n      jump\t// in\n    tag_549:\n        /* \"#utility.yul\":18118:18120   */\n      0x20\n        /* \"#utility.yul\":18113:18116   */\n      dup3\n        /* \"#utility.yul\":18109:18121   */\n      add\n        /* \"#utility.yul\":18102:18121   */\n      swap1\n      pop\n        /* \"#utility.yul\":17761:18127   */\n      swap2\n      swap1\n      pop\n      jump\t// out\n        /* \"#utility.yul\":18133:18552   */\n    tag_252:\n        /* \"#utility.yul\":18299:18303   */\n      0x00\n        /* \"#utility.yul\":18337:18339   */\n      0x20\n        /* \"#utility.yul\":18326:18335   */\n      dup3\n        /* \"#utility.yul\":18322:18340   */\n      add\n        /* \"#utility.yul\":18314:18340   */\n      swap1\n      pop\n        /* \"#utility.yul\":18386:18395   */\n      dup2\n        /* \"#utility.yul\":18380:18384   */\n      dup2\n        /* \"#utility.yul\":18376:18396   */\n      sub\n        /* \"#utility.yul\":18372:18373   */\n      0x00\n        /* \"#utility.yul\":18361:18370   */\n      dup4\n        /* \"#utility.yul\":18357:18374   */\n      add\n        /* \"#utility.yul\":18350:18397   */\n      mstore\n        /* \"#utility.yul\":18414:18545   */\n      tag_551\n        /* \"#utility.yul\":18540:18544   */\n      dup2\n        /* \"#utility.yul\":18414:18545   */\n      tag_359\n      jump\t// in\n    tag_551:\n        /* \"#utility.yul\":18406:18545   */\n      swap1\n      pop\n        /* \"#utility.yul\":18133:18552   */\n      swap2\n      swap1\n      pop\n      jump\t// out\n        /* \"#utility.yul\":18558:18727   */\n    tag_360:\n        /* \"#utility.yul\":18698:18719   */\n      0x546f6b656e20616c726561647920616464656400000000000000000000000000\n        /* \"#utility.yul\":18694:18695   */\n      0x00\n        /* \"#utility.yul\":18686:18692   */\n      dup3\n        /* \"#utility.yul\":18682:18696   */\n      add\n        /* \"#utility.yul\":18675:18720   */\n      mstore\n        /* \"#utility.yul\":18558:18727   */\n      pop\n      jump\t// out\n        /* \"#utility.yul\":18733:19099   */\n    tag_361:\n        /* \"#utility.yul\":18875:18878   */\n      0x00\n        /* \"#utility.yul\":18896:18963   */\n      tag_554\n        /* \"#utility.yul\":18960:18962   */\n      0x13\n        /* \"#utility.yul\":18955:18958   */\n      dup4\n        /* \"#utility.yul\":18896:18963   */\n      tag_334\n      jump\t// in\n    tag_554:\n        /* \"#utility.yul\":18889:18963   */\n      swap2\n      pop\n        /* \"#utility.yul\":18972:19065   */\n      tag_555\n        /* \"#utility.yul\":19061:19064   */\n      dup3\n        /* \"#utility.yul\":18972:19065   */\n      tag_360\n      jump\t// in\n    tag_555:\n        /* \"#utility.yul\":19090:19092   */\n      0x20\n        /* \"#utility.yul\":19085:19088   */\n      dup3\n        /* \"#utility.yul\":19081:19093   */\n      add\n        /* \"#utility.yul\":19074:19093   */\n      swap1\n      pop\n        /* \"#utility.yul\":18733:19099   */\n      swap2\n      swap1\n      pop\n      jump\t// out\n        /* \"#utility.yul\":19105:19524   */\n    tag_256:\n        /* \"#utility.yul\":19271:19275   */\n      0x00\n        /* \"#utility.yul\":19309:19311   */\n      0x20\n        /* \"#utility.yul\":19298:19307   */\n      dup3\n        /* \"#utility.yul\":19294:19312   */\n      add\n        /* \"#utility.yul\":19286:19312   */\n      swap1\n      pop\n        /* \"#utility.yul\":19358:19367   */\n      dup2\n        /* \"#utility.yul\":19352:19356   */\n      dup2\n        /* \"#utility.yul\":19348:19368   */\n      sub\n        /* \"#utility.yul\":19344:19345   */\n      0x00\n        /* \"#utility.yul\":19333:19342   */\n      dup4\n        /* \"#utility.yul\":19329:19346   */\n      add\n        /* \"#utility.yul\":19322:19369   */\n      mstore\n        /* \"#utility.yul\":19386:19517   */\n      tag_557\n        /* \"#utility.yul\":19512:19516   */\n      dup2\n        /* \"#utility.yul\":19386:19517   */\n      tag_361\n      jump\t// in\n    tag_557:\n        /* \"#utility.yul\":19378:19517   */\n      swap1\n      pop\n        /* \"#utility.yul\":19105:19524   */\n      swap2\n      swap1\n      pop\n      jump\t// out\n        /* \"#utility.yul\":19530:19710   */\n    tag_362:\n        /* \"#utility.yul\":19578:19655   */\n      0x4e487b7100000000000000000000000000000000000000000000000000000000\n        /* \"#utility.yul\":19575:19576   */\n      0x00\n        /* \"#utility.yul\":19568:19656   */\n      mstore\n        /* \"#utility.yul\":19675:19679   */\n      0x41\n        /* \"#utility.yul\":19672:19673   */\n      0x04\n        /* \"#utility.yul\":19665:19680   */\n      mstore\n        /* \"#utility.yul\":19699:19703   */\n      0x24\n        /* \"#utility.yul\":19696:19697   */\n      0x00\n        /* \"#utility.yul\":19689:19704   */\n      revert\n        /* \"#utility.yul\":19716:19896   */\n    tag_363:\n        /* \"#utility.yul\":19764:19841   */\n      0x4e487b7100000000000000000000000000000000000000000000000000000000\n        /* \"#utility.yul\":19761:19762   */\n      0x00\n        /* \"#utility.yul\":19754:19842   */\n      mstore\n        /* \"#utility.yul\":19861:19865   */\n      0x22\n        /* \"#utility.yul\":19858:19859   */\n      0x04\n        /* \"#utility.yul\":19851:19866   */\n      mstore\n        /* \"#utility.yul\":19885:19889   */\n      0x24\n        /* \"#utility.yul\":19882:19883   */\n      0x00\n        /* \"#utility.yul\":19875:19890   */\n      revert\n        /* \"#utility.yul\":19902:20222   */\n    tag_281:\n        /* \"#utility.yul\":19946:19952   */\n      0x00\n        /* \"#utility.yul\":19983:19984   */\n      0x02\n        /* \"#utility.yul\":19977:19981   */\n      dup3\n        /* \"#utility.yul\":19973:19985   */\n      div\n        /* \"#utility.yul\":19963:19985   */\n      swap1\n      pop\n        /* \"#utility.yul\":20030:20031   */\n      0x01\n        /* \"#utility.yul\":20024:20028   */\n      dup3\n        /* \"#utility.yul\":20020:20032   */\n      and\n        /* \"#utility.yul\":20051:20069   */\n      dup1\n        /* \"#utility.yul\":20041:20122   */\n      tag_561\n      jumpi\n        /* \"#utility.yul\":20107:20111   */\n      0x7f\n        /* \"#utility.yul\":20099:20105   */\n      dup3\n        /* \"#utility.yul\":20095:20112   */\n      and\n        /* \"#utility.yul\":20085:20112   */\n      swap2\n      pop\n        /* \"#utility.yul\":20041:20122   */\n    tag_561:\n        /* \"#utility.yul\":20169:20171   */\n      0x20\n        /* \"#utility.yul\":20161:20167   */\n      dup3\n        /* \"#utility.yul\":20158:20172   */\n      lt\n        /* \"#utility.yul\":20138:20156   */\n      dup2\n        /* \"#utility.yul\":20135:20173   */\n      sub\n        /* \"#utility.yul\":20132:20216   */\n      tag_562\n      jumpi\n        /* \"#utility.yul\":20188:20206   */\n      tag_563\n      tag_363\n      jump\t// in\n    tag_563:\n        /* \"#utility.yul\":20132:20216   */\n    tag_562:\n        /* \"#utility.yul\":19953:20222   */\n      pop\n        /* \"#utility.yul\":19902:20222   */\n      swap2\n      swap1\n      pop\n      jump\t// out\n        /* \"#utility.yul\":20228:20369   */\n    tag_364:\n        /* \"#utility.yul\":20277:20281   */\n      0x00\n        /* \"#utility.yul\":20300:20303   */\n      dup2\n        /* \"#utility.yul\":20292:20303   */\n      swap1\n      pop\n        /* \"#utility.yul\":20323:20326   */\n      dup2\n        /* \"#utility.yul\":20320:20321   */\n      0x00\n        /* \"#utility.yul\":20313:20327   */\n      mstore\n        /* \"#utility.yul\":20357:20361   */\n      0x20\n        /* \"#utility.yul\":20354:20355   */\n      0x00\n        /* \"#utility.yul\":20344:20362   */\n      keccak256\n        /* \"#utility.yul\":20336:20362   */\n      swap1\n      pop\n        /* \"#utility.yul\":20228:20369   */\n      swap2\n      swap1\n      pop\n      jump\t// out\n        /* \"#utility.yul\":20375:20468   */\n    tag_365:\n        /* \"#utility.yul\":20412:20418   */\n      0x00\n        /* \"#utility.yul\":20459:20461   */\n      0x20\n        /* \"#utility.yul\":20454:20456   */\n      0x1f\n        /* \"#utility.yul\":20447:20452   */\n      dup4\n        /* \"#utility.yul\":20443:20457   */\n      add\n        /* \"#utility.yul\":20439:20462   */\n      div\n        /* \"#utility.yul\":20429:20462   */\n      swap1\n      pop\n        /* \"#utility.yul\":20375:20468   */\n      swap2\n      swap1\n      pop\n      jump\t// out\n        /* \"#utility.yul\":20474:20581   */\n    tag_366:\n        /* \"#utility.yul\":20518:20526   */\n      0x00\n        /* \"#utility.yul\":20568:20573   */\n      dup3\n        /* \"#utility.yul\":20562:20566   */\n      dup3\n        /* \"#utility.yul\":20558:20574   */\n      shl\n        /* \"#utility.yul\":20537:20574   */\n      swap1\n      pop\n        /* \"#utility.yul\":20474:20581   */\n      swap3\n      swap2\n      pop\n      pop\n      jump\t// out\n        /* \"#utility.yul\":20587:20980   */\n    tag_367:\n        /* \"#utility.yul\":20656:20662   */\n      0x00\n        /* \"#utility.yul\":20706:20707   */\n      0x08\n        /* \"#utility.yul\":20694:20704   */\n      dup4\n        /* \"#utility.yul\":20690:20708   */\n      mul\n        /* \"#utility.yul\":20729:20826   */\n      tag_568\n        /* \"#utility.yul\":20759:20825   */\n      0xffffffffffffffffffffffffffffffffffffffffffffffffffffffffffffffff\n        /* \"#utility.yul\":20748:20757   */\n      dup3\n        /* \"#utility.yul\":20729:20826   */\n      tag_366\n      jump\t// in\n    tag_568:\n        /* \"#utility.yul\":20847:20886   */\n      tag_569\n        /* \"#utility.yul\":20877:20885   */\n      dup7\n        /* \"#utility.yul\":20866:20875   */\n      dup4\n        /* \"#utility.yul\":20847:20886   */\n      tag_366\n      jump\t// in\n    tag_569:\n        /* \"#utility.yul\":20835:20886   */\n      swap6\n      pop\n        /* \"#utility.yul\":20919:20923   */\n      dup1\n        /* \"#utility.yul\":20915:20924   */\n      not\n        /* \"#utility.yul\":20908:20913   */\n      dup5\n        /* \"#utility.yul\":20904:20925   */\n      and\n        /* \"#utility.yul\":20895:20925   */\n      swap4\n      pop\n        /* \"#utility.yul\":20968:20972   */\n      dup1\n        /* \"#utility.yul\":20958:20966   */\n      dup7\n        /* \"#utility.yul\":20954:20973   */\n      and\n        /* \"#utility.yul\":20947:20952   */\n      dup5\n        /* \"#utility.yul\":20944:20974   */\n      or\n        /* \"#utility.yul\":20934:20974   */\n      swap3\n      pop\n        /* \"#utility.yul\":20663:20980   */\n      pop\n      pop\n        /* \"#utility.yul\":20587:20980   */\n      swap4\n      swap3\n      pop\n      pop\n      pop\n      jump\t// out\n        /* \"#utility.yul\":20986:21046   */\n    tag_368:\n        /* \"#utility.yul\":21014:21017   */\n      0x00\n        /* \"#utility.yul\":21035:21040   */\n      dup2\n        /* \"#utility.yul\":21028:21040   */\n      swap1\n      pop\n        /* \"#utility.yul\":20986:21046   */\n      swap2\n      swap1\n      pop\n      jump\t// out\n        /* \"#utility.yul\":21052:21194   */\n    tag_369:\n        /* \"#utility.yul\":21102:21111   */\n      0x00\n        /* \"#utility.yul\":21135:21188   */\n      tag_572\n        /* \"#utility.yul\":21153:21187   */\n      tag_573\n        /* \"#utility.yul\":21162:21186   */\n      tag_574\n        /* \"#utility.yul\":21180:21185   */\n      dup5\n        /* \"#utility.yul\":21162:21186   */\n      tag_319\n      jump\t// in\n    tag_574:\n        /* \"#utility.yul\":21153:21187   */\n      tag_368\n      jump\t// in\n    tag_573:\n        /* \"#utility.yul\":21135:21188   */\n      tag_319\n      jump\t// in\n    tag_572:\n        /* \"#utility.yul\":21122:21188   */\n      swap1\n      pop\n        /* \"#utility.yul\":21052:21194   */\n      swap2\n      swap1\n      pop\n      jump\t// out\n        /* \"#utility.yul\":21200:21275   */\n    tag_370:\n        /* \"#utility.yul\":21243:21246   */\n      0x00\n        /* \"#utility.yul\":21264:21269   */\n      dup2\n        /* \"#utility.yul\":21257:21269   */\n      swap1\n      pop\n        /* \"#utility.yul\":21200:21275   */\n      swap2\n      swap1\n      pop\n      jump\t// out\n        /* \"#utility.yul\":21281:21550   */\n    tag_371:\n        /* \"#utility.yul\":21391:21430   */\n      tag_577\n        /* \"#utility.yul\":21422:21429   */\n      dup4\n        /* \"#utility.yul\":21391:21430   */\n      tag_369\n      jump\t// in\n    tag_577:\n        /* \"#utility.yul\":21452:21543   */\n      tag_578\n        /* \"#utility.yul\":21501:21542   */\n      tag_579\n        /* \"#utility.yul\":21525:21541   */\n      dup3\n        /* \"#utility.yul\":21501:21542   */\n      tag_370\n      jump\t// in\n    tag_579:\n        /* \"#utility.yul\":21493:21499   */\n      dup5\n        /* \"#utility.yul\":21486:21490   */\n      dup5\n        /* \"#utility.yul\":21480:21491   */\n      sload\n        /* \"#utility.yul\":21452:21543   */\n      tag_367\n      jump\t// in\n    tag_578:\n        /* \"#utility.yul\":21446:21450   */\n      dup3\n        /* \"#utility.yul\":21439:21544   */\n      sstore\n        /* \"#utility.yul\":21357:21550   */\n      pop\n        /* \"#utility.yul\":21281:21550   */\n      pop\n      pop\n      pop\n      jump\t// out\n        /* \"#utility.yul\":21556:21629   */\n    tag_372:\n        /* \"#utility.yul\":21601:21604   */\n      0x00\n        /* \"#utility.yul\":21556:21629   */\n      swap1\n      jump\t// out\n        /* \"#utility.yul\":21635:21824   */\n    tag_373:\n        /* \"#utility.yul\":21712:21744   */\n      tag_582\n      tag_372\n      jump\t// in\n    tag_582:\n        /* \"#utility.yul\":21753:21818   */\n      tag_583\n        /* \"#utility.yul\":21811:21817   */\n      dup2\n        /* \"#utility.yul\":21803:21809   */\n      dup5\n        /* \"#utility.yul\":21797:21801   */\n      dup5\n        /* \"#utility.yul\":21753:21818   */\n      tag_371\n      jump\t// in\n    tag_583:\n        /* \"#utility.yul\":21688:21824   */\n      pop\n        /* \"#utility.yul\":21635:21824   */\n      pop\n      pop\n      jump\t// out\n        /* \"#utility.yul\":21830:22016   */\n    tag_374:\n        /* \"#utility.yul\":21890:22010   */\n    tag_585:\n        /* \"#utility.yul\":21907:21910   */\n      dup2\n        /* \"#utility.yul\":21900:21905   */\n      dup2\n        /* \"#utility.yul\":21897:21911   */\n      lt\n        /* \"#utility.yul\":21890:22010   */\n      iszero\n      tag_587\n      jumpi\n        /* \"#utility.yul\":21961:22000   */\n      tag_588\n        /* \"#utility.yul\":21998:21999   */\n      0x00\n        /* \"#utility.yul\":21991:21996   */\n      dup3\n        /* \"#utility.yul\":21961:22000   */\n      tag_373\n      jump\t// in\n    tag_588:\n        /* \"#utility.yul\":21934:21935   */\n      0x01\n        /* \"#utility.yul\":21927:21932   */\n      dup2\n        /* \"#utility.yul\":21923:21936   */\n      add\n        /* \"#utility.yul\":21914:21936   */\n      swap1\n      pop\n        /* \"#utility.yul\":21890:22010   */\n      jump(tag_585)\n    tag_587:\n        /* \"#utility.yul\":21830:22016   */\n      pop\n      pop\n      jump\t// out\n        /* \"#utility.yul\":22022:22565   */\n    tag_375:\n        /* \"#utility.yul\":22123:22125   */\n      0x1f\n        /* \"#utility.yul\":22118:22121   */\n      dup3\n        /* \"#utility.yul\":22115:22126   */\n      gt\n        /* \"#utility.yul\":22112:22558   */\n      iszero\n      tag_590\n      jumpi\n        /* \"#utility.yul\":22157:22195   */\n      tag_591\n        /* \"#utility.yul\":22189:22194   */\n      dup2\n        /* \"#utility.yul\":22157:22195   */\n      tag_364\n      jump\t// in\n    tag_591:\n        /* \"#utility.yul\":22241:22270   */\n      tag_592\n        /* \"#utility.yul\":22259:22269   */\n      dup5\n        /* \"#utility.yul\":22241:22270   */\n      tag_365\n      jump\t// in\n    tag_592:\n        /* \"#utility.yul\":22231:22239   */\n      dup2\n        /* \"#utility.yul\":22227:22271   */\n      add\n        /* \"#utility.yul\":22424:22426   */\n      0x20\n        /* \"#utility.yul\":22412:22422   */\n      dup6\n        /* \"#utility.yul\":22409:22427   */\n      lt\n        /* \"#utility.yul\":22406:22455   */\n      iszero\n      tag_593\n      jumpi\n        /* \"#utility.yul\":22445:22453   */\n      dup2\n        /* \"#utility.yul\":22430:22453   */\n      swap1\n      pop\n        /* \"#utility.yul\":22406:22455   */\n    tag_593:\n        /* \"#utility.yul\":22468:22548   */\n      tag_594\n        /* \"#utility.yul\":22524:22546   */\n      tag_595\n        /* \"#utility.yul\":22542:22545   */\n      dup6\n        /* \"#utility.yul\":22524:22546   */\n      tag_365\n      jump\t// in\n    tag_595:\n        /* \"#utility.yul\":22514:22522   */\n      dup4\n        /* \"#utility.yul\":22510:22547   */\n      add\n        /* \"#utility.yul\":22497:22508   */\n      dup3\n        /* \"#utility.yul\":22468:22548   */\n      tag_374\n      jump\t// in\n    tag_594:\n        /* \"#utility.yul\":22127:22558   */\n      pop\n      pop\n        /* \"#utility.yul\":22112:22558   */\n    tag_590:\n        /* \"#utility.yul\":22022:22565   */\n      pop\n      pop\n      pop\n      jump\t// out\n        /* \"#utility.yul\":22571:22688   */\n    tag_376:\n        /* \"#utility.yul\":22625:22633   */\n      0x00\n        /* \"#utility.yul\":22675:22680   */\n      dup3\n        /* \"#utility.yul\":22669:22673   */\n      dup3\n        /* \"#utility.yul\":22665:22681   */\n      shr\n        /* \"#utility.yul\":22644:22681   */\n      swap1\n      pop\n        /* \"#utility.yul\":22571:22688   */\n      swap3\n      swap2\n      pop\n      pop\n      jump\t// out\n        /* \"#utility.yul\":22694:22863   */\n    tag_377:\n        /* \"#utility.yul\":22738:22744   */\n      0x00\n        /* \"#utility.yul\":22771:22822   */\n      tag_598\n        /* \"#utility.yul\":22819:22820   */\n      0x00\n        /* \"#utility.yul\":22815:22821   */\n      not\n        /* \"#utility.yul\":22807:22812   */\n      dup5\n        /* \"#utility.yul\":22804:22805   */\n      0x08\n        /* \"#utility.yul\":22800:22813   */\n      mul\n        /* \"#utility.yul\":22771:22822   */\n      tag_376\n      jump\t// in\n    tag_598:\n        /* \"#utility.yul\":22767:22823   */\n      not\n        /* \"#utility.yul\":22852:22856   */\n      dup1\n        /* \"#utility.yul\":22846:22850   */\n      dup4\n        /* \"#utility.yul\":22842:22857   */\n      and\n        /* \"#utility.yul\":22832:22857   */\n      swap2\n      pop\n        /* \"#utility.yul\":22745:22863   */\n      pop\n        /* \"#utility.yul\":22694:22863   */\n      swap3\n      swap2\n      pop\n      pop\n      jump\t// out\n        /* \"#utility.yul\":22868:23163   */\n    tag_378:\n        /* \"#utility.yul\":22944:22948   */\n      0x00\n        /* \"#utility.yul\":23090:23119   */\n      tag_600\n        /* \"#utility.yul\":23115:23118   */\n      dup4\n        /* \"#utility.yul\":23109:23113   */\n      dup4\n        /* \"#utility.yul\":23090:23119   */\n      tag_377\n      jump\t// in\n    tag_600:\n        /* \"#utility.yul\":23082:23119   */\n      swap2\n      pop\n        /* \"#utility.yul\":23152:23155   */\n      dup3\n        /* \"#utility.yul\":23149:23150   */\n      0x02\n        /* \"#utility.yul\":23145:23156   */\n      mul\n        /* \"#utility.yul\":23139:23143   */\n      dup3\n        /* \"#utility.yul\":23136:23157   */\n      or\n        /* \"#utility.yul\":23128:23157   */\n      swap1\n      pop\n        /* \"#utility.yul\":22868:23163   */\n      swap3\n      swap2\n      pop\n      pop\n      jump\t// out\n        /* \"#utility.yul\":23168:24563   */\n    tag_258:\n        /* \"#utility.yul\":23285:23322   */\n      tag_602\n        /* \"#utility.yul\":23318:23321   */\n      dup3\n        /* \"#utility.yul\":23285:23322   */\n      tag_333\n      jump\t// in\n    tag_602:\n        /* \"#utility.yul\":23387:23405   */\n      0xffffffffffffffff\n        /* \"#utility.yul\":23379:23385   */\n      dup2\n        /* \"#utility.yul\":23376:23406   */\n      gt\n        /* \"#utility.yul\":23373:23429   */\n      iszero\n      tag_603\n      jumpi\n        /* \"#utility.yul\":23409:23427   */\n      tag_604\n      tag_362\n      jump\t// in\n    tag_604:\n        /* \"#utility.yul\":23373:23429   */\n    tag_603:\n        /* \"#utility.yul\":23453:23491   */\n      tag_605\n        /* \"#utility.yul\":23485:23489   */\n      dup3\n        /* \"#utility.yul\":23479:23490   */\n      sload\n        /* \"#utility.yul\":23453:23491   */\n      tag_281\n      jump\t// in\n    tag_605:\n        /* \"#utility.yul\":23538:23605   */\n      tag_606\n        /* \"#utility.yul\":23598:23604   */\n      dup3\n        /* \"#utility.yul\":23590:23596   */\n      dup3\n        /* \"#utility.yul\":23584:23588   */\n      dup6\n        /* \"#utility.yul\":23538:23605   */\n      tag_375\n      jump\t// in\n    tag_606:\n        /* \"#utility.yul\":23632:23633   */\n      0x00\n        /* \"#utility.yul\":23656:23660   */\n      0x20\n        /* \"#utility.yul\":23643:23660   */\n      swap1\n      pop\n        /* \"#utility.yul\":23688:23690   */\n      0x1f\n        /* \"#utility.yul\":23680:23686   */\n      dup4\n        /* \"#utility.yul\":23677:23691   */\n      gt\n        /* \"#utility.yul\":23705:23706   */\n      0x01\n        /* \"#utility.yul\":23700:24318   */\n      dup2\n      eq\n      tag_608\n      jumpi\n        /* \"#utility.yul\":24362:24363   */\n      0x00\n        /* \"#utility.yul\":24379:24385   */\n      dup5\n        /* \"#utility.yul\":24376:24453   */\n      iszero\n      tag_609\n      jumpi\n        /* \"#utility.yul\":24428:24437   */\n      dup3\n        /* \"#utility.yul\":24423:24426   */\n      dup8\n        /* \"#utility.yul\":24419:24438   */\n      add\n        /* \"#utility.yul\":24413:24439   */\n      mload\n        /* \"#utility.yul\":24404:24439   */\n      swap1\n      pop\n        /* \"#utility.yul\":24376:24453   */\n    tag_609:\n        /* \"#utility.yul\":24479:24546   */\n      tag_610\n        /* \"#utility.yul\":24539:24545   */\n      dup6\n        /* \"#utility.yul\":24532:24537   */\n      dup3\n        /* \"#utility.yul\":24479:24546   */\n      tag_378\n      jump\t// in\n    tag_610:\n        /* \"#utility.yul\":24473:24477   */\n      dup7\n        /* \"#utility.yul\":24466:24547   */\n      sstore\n        /* \"#utility.yul\":24335:24557   */\n      pop\n        /* \"#utility.yul\":23670:24557   */\n      jump(tag_607)\n        /* \"#utility.yul\":23700:24318   */\n    tag_608:\n        /* \"#utility.yul\":23752:23756   */\n      0x1f\n        /* \"#utility.yul\":23748:23757   */\n      not\n        /* \"#utility.yul\":23740:23746   */\n      dup5\n        /* \"#utility.yul\":23736:23758   */\n      and\n        /* \"#utility.yul\":23786:23823   */\n      tag_611\n        /* \"#utility.yul\":23818:23822   */\n      dup7\n        /* \"#utility.yul\":23786:23823   */\n      tag_364\n      jump\t// in\n    tag_611:\n        /* \"#utility.yul\":23845:23846   */\n      0x00\n        /* \"#utility.yul\":23859:24067   */\n    tag_612:\n        /* \"#utility.yul\":23873:23880   */\n      dup3\n        /* \"#utility.yul\":23870:23871   */\n      dup2\n        /* \"#utility.yul\":23867:23881   */\n      lt\n        /* \"#utility.yul\":23859:24067   */\n      iszero\n      tag_614\n      jumpi\n        /* \"#utility.yul\":23952:23961   */\n      dup5\n        /* \"#utility.yul\":23947:23950   */\n      dup10\n        /* \"#utility.yul\":23943:23962   */\n      add\n        /* \"#utility.yul\":23937:23963   */\n      mload\n        /* \"#utility.yul\":23929:23935   */\n      dup3\n        /* \"#utility.yul\":23922:23964   */\n      sstore\n        /* \"#utility.yul\":24003:24004   */\n      0x01\n        /* \"#utility.yul\":23995:24001   */\n      dup3\n        /* \"#utility.yul\":23991:24005   */\n      add\n        /* \"#utility.yul\":23981:24005   */\n      swap2\n      pop\n        /* \"#utility.yul\":24050:24052   */\n      0x20\n        /* \"#utility.yul\":24039:24048   */\n      dup6\n        /* \"#utility.yul\":24035:24053   */\n      add\n        /* \"#utility.yul\":24022:24053   */\n      swap5\n      pop\n        /* \"#utility.yul\":23896:23900   */\n      0x20\n        /* \"#utility.yul\":23893:23894   */\n      dup2\n        /* \"#utility.yul\":23889:23901   */\n      add\n        /* \"#utility.yul\":23884:23901   */\n      swap1\n      pop\n        /* \"#utility.yul\":23859:24067   */\n      jump(tag_612)\n    tag_614:\n        /* \"#utility.yul\":24095:24101   */\n      dup7\n        /* \"#utility.yul\":24086:24093   */\n      dup4\n        /* \"#utility.yul\":24083:24102   */\n      lt\n        /* \"#utility.yul\":24080:24259   */\n      iszero\n      tag_615\n      jumpi\n        /* \"#utility.yul\":24153:24162   */\n      dup5\n        /* \"#utility.yul\":24148:24151   */\n      dup10\n        /* \"#utility.yul\":24144:24163   */\n      add\n        /* \"#utility.yul\":24138:24164   */\n      mload\n        /* \"#utility.yul\":24196:24244   */\n      tag_616\n        /* \"#utility.yul\":24238:24242   */\n      0x1f\n        /* \"#utility.yul\":24230:24236   */\n      dup10\n        /* \"#utility.yul\":24226:24243   */\n      and\n        /* \"#utility.yul\":24215:24224   */\n      dup3\n        /* \"#utility.yul\":24196:24244   */\n      tag_377\n      jump\t// in\n    tag_616:\n        /* \"#utility.yul\":24188:24194   */\n      dup4\n        /* \"#utility.yul\":24181:24245   */\n      sstore\n        /* \"#utility.yul\":24103:24259   */\n      pop\n        /* \"#utility.yul\":24080:24259   */\n    tag_615:\n        /* \"#utility.yul\":24305:24306   */\n      0x01\n        /* \"#utility.yul\":24301:24302   */\n      0x02\n        /* \"#utility.yul\":24293:24299   */\n      dup9\n        /* \"#utility.yul\":24289:24303   */\n      mul\n        /* \"#utility.yul\":24285:24307   */\n      add\n        /* \"#utility.yul\":24279:24283   */\n      dup9\n        /* \"#utility.yul\":24272:24308   */\n      sstore\n        /* \"#utility.yul\":23707:24318   */\n      pop\n      pop\n      pop\n        /* \"#utility.yul\":23670:24557   */\n    tag_607:\n      pop\n        /* \"#utility.yul\":23260:24563   */\n      pop\n      pop\n      pop\n        /* \"#utility.yul\":23168:24563   */\n      pop\n      pop\n      jump\t// out\n        /* \"#utility.yul\":24569:24738   */\n    tag_379:\n        /* \"#utility.yul\":24709:24730   */\n      0x4e6f207265776172647320746f20636c61696d00000000000000000000000000\n        /* \"#utility.yul\":24705:24706   */\n      0x00\n        /* \"#utility.yul\":24697:24703   */\n      dup3\n        /* \"#utility.yul\":24693:24707   */\n      add\n        /* \"#utility.yul\":24686:24731   */\n      mstore\n        /* \"#utility.yul\":24569:24738   */\n      pop\n      jump\t// out\n        /* \"#utility.yul\":24744:25110   */\n    tag_380:\n        /* \"#utility.yul\":24886:24889   */\n      0x00\n        /* \"#utility.yul\":24907:24974   */\n      tag_619\n        /* \"#utility.yul\":24971:24973   */\n      0x13\n        /* \"#utility.yul\":24966:24969   */\n      dup4\n        /* \"#utility.yul\":24907:24974   */\n      tag_334\n      jump\t// in\n    tag_619:\n        /* \"#utility.yul\":24900:24974   */\n      swap2\n      pop\n        /* \"#utility.yul\":24983:25076   */\n      tag_620\n        /* \"#utility.yul\":25072:25075   */\n      dup3\n        /* \"#utility.yul\":24983:25076   */\n      tag_379\n      jump\t// in\n    tag_620:\n        /* \"#utility.yul\":25101:25103   */\n      0x20\n        /* \"#utility.yul\":25096:25099   */\n      dup3\n        /* \"#utility.yul\":25092:25104   */\n      add\n        /* \"#utility.yul\":25085:25104   */\n      swap1\n      pop\n        /* \"#utility.yul\":24744:25110   */\n      swap2\n      swap1\n      pop\n      jump\t// out\n        /* \"#utility.yul\":25116:25535   */\n    tag_272:\n        /* \"#utility.yul\":25282:25286   */\n      0x00\n        /* \"#utility.yul\":25320:25322   */\n      0x20\n        /* \"#utility.yul\":25309:25318   */\n      dup3\n        /* \"#utility.yul\":25305:25323   */\n      add\n        /* \"#utility.yul\":25297:25323   */\n      swap1\n      pop\n        /* \"#utility.yul\":25369:25378   */\n      dup2\n        /* \"#utility.yul\":25363:25367   */\n      dup2\n        /* \"#utility.yul\":25359:25379   */\n      sub\n        /* \"#utility.yul\":25355:25356   */\n      0x00\n        /* \"#utility.yul\":25344:25353   */\n      dup4\n        /* \"#utility.yul\":25340:25357   */\n      add\n        /* \"#utility.yul\":25333:25380   */\n      mstore\n        /* \"#utility.yul\":25397:25528   */\n      tag_622\n        /* \"#utility.yul\":25523:25527   */\n      dup2\n        /* \"#utility.yul\":25397:25528   */\n      tag_380\n      jump\t// in\n    tag_622:\n        /* \"#utility.yul\":25389:25528   */\n      swap1\n      pop\n        /* \"#utility.yul\":25116:25535   */\n      swap2\n      swap1\n      pop\n      jump\t// out\n        /* \"#utility.yul\":25541:25721   */\n    tag_381:\n        /* \"#utility.yul\":25589:25666   */\n      0x4e487b7100000000000000000000000000000000000000000000000000000000\n        /* \"#utility.yul\":25586:25587   */\n      0x00\n        /* \"#utility.yul\":25579:25667   */\n      mstore\n        /* \"#utility.yul\":25686:25690   */\n      0x11\n        /* \"#utility.yul\":25683:25684   */\n      0x04\n        /* \"#utility.yul\":25676:25691   */\n      mstore\n        /* \"#utility.yul\":25710:25714   */\n      0x24\n        /* \"#utility.yul\":25707:25708   */\n      0x00\n        /* \"#utility.yul\":25700:25715   */\n      revert\n        /* \"#utility.yul\":25727:25921   */\n    tag_297:\n        /* \"#utility.yul\":25767:25771   */\n      0x00\n        /* \"#utility.yul\":25787:25807   */\n      tag_625\n        /* \"#utility.yul\":25805:25806   */\n      dup3\n        /* \"#utility.yul\":25787:25807   */\n      tag_319\n      jump\t// in\n    tag_625:\n        /* \"#utility.yul\":25782:25807   */\n      swap2\n      pop\n        /* \"#utility.yul\":25821:25841   */\n      tag_626\n        /* \"#utility.yul\":25839:25840   */\n      dup4\n        /* \"#utility.yul\":25821:25841   */\n      tag_319\n      jump\t// in\n    tag_626:\n        /* \"#utility.yul\":25816:25841   */\n      swap3\n      pop\n        /* \"#utility.yul\":25865:25866   */\n      dup3\n        /* \"#utility.yul\":25862:25863   */\n      dup3\n        /* \"#utility.yul\":25858:25867   */\n      sub\n        /* \"#utility.yul\":25850:25867   */\n      swap1\n      pop\n        /* \"#utility.yul\":25889:25890   */\n      dup2\n        /* \"#utility.yul\":25883:25887   */\n      dup2\n        /* \"#utility.yul\":25880:25891   */\n      gt\n        /* \"#utility.yul\":25877:25914   */\n      iszero\n      tag_627\n      jumpi\n        /* \"#utility.yul\":25894:25912   */\n      tag_628\n      tag_381\n      jump\t// in\n    tag_628:\n        /* \"#utility.yul\":25877:25914   */\n    tag_627:\n        /* \"#utility.yul\":25727:25921   */\n      swap3\n      swap2\n      pop\n      pop\n      jump\t// out\n        /* \"#utility.yul\":25927:26337   */\n    tag_300:\n        /* \"#utility.yul\":25967:25974   */\n      0x00\n        /* \"#utility.yul\":25990:26010   */\n      tag_630\n        /* \"#utility.yul\":26008:26009   */\n      dup3\n        /* \"#utility.yul\":25990:26010   */\n      tag_319\n      jump\t// in\n    tag_630:\n        /* \"#utility.yul\":25985:26010   */\n      swap2\n      pop\n        /* \"#utility.yul\":26024:26044   */\n      tag_631\n        /* \"#utility.yul\":26042:26043   */\n      dup4\n        /* \"#utility.yul\":26024:26044   */\n      tag_319\n      jump\t// in\n    tag_631:\n        /* \"#utility.yul\":26019:26044   */\n      swap3\n      pop\n        /* \"#utility.yul\":26079:26080   */\n      dup3\n        /* \"#utility.yul\":26076:26077   */\n      dup3\n        /* \"#utility.yul\":26072:26081   */\n      mul\n        /* \"#utility.yul\":26101:26131   */\n      tag_632\n        /* \"#utility.yul\":26119:26130   */\n      dup2\n        /* \"#utility.yul\":26101:26131   */\n      tag_319\n      jump\t// in\n    tag_632:\n        /* \"#utility.yul\":26090:26131   */\n      swap2\n      pop\n        /* \"#utility.yul\":26280:26281   */\n      dup3\n        /* \"#utility.yul\":26271:26278   */\n      dup3\n        /* \"#utility.yul\":26267:26282   */\n      div\n        /* \"#utility.yul\":26264:26265   */\n      dup5\n        /* \"#utility.yul\":26261:26283   */\n      eq\n        /* \"#utility.yul\":26241:26242   */\n      dup4\n        /* \"#utility.yul\":26234:26243   */\n      iszero\n        /* \"#utility.yul\":26214:26297   */\n      or\n        /* \"#utility.yul\":26191:26330   */\n      tag_633\n      jumpi\n        /* \"#utility.yul\":26310:26328   */\n      tag_634\n      tag_381\n      jump\t// in\n    tag_634:\n        /* \"#utility.yul\":26191:26330   */\n    tag_633:\n        /* \"#utility.yul\":25975:26337   */\n      pop\n        /* \"#utility.yul\":25927:26337   */\n      swap3\n      swap2\n      pop\n      pop\n      jump\t// out\n        /* \"#utility.yul\":26343:26523   */\n    tag_382:\n        /* \"#utility.yul\":26391:26468   */\n      0x4e487b7100000000000000000000000000000000000000000000000000000000\n        /* \"#utility.yul\":26388:26389   */\n      0x00\n        /* \"#utility.yul\":26381:26469   */\n      mstore\n        /* \"#utility.yul\":26488:26492   */\n      0x12\n        /* \"#utility.yul\":26485:26486   */\n      0x04\n        /* \"#utility.yul\":26478:26493   */\n      mstore\n        /* \"#utility.yul\":26512:26516   */\n      0x24\n        /* \"#utility.yul\":26509:26510   */\n      0x00\n        /* \"#utility.yul\":26502:26517   */\n      revert\n        /* \"#utility.yul\":26529:26714   */\n    tag_303:\n        /* \"#utility.yul\":26569:26570   */\n      0x00\n        /* \"#utility.yul\":26586:26606   */\n      tag_637\n        /* \"#utility.yul\":26604:26605   */\n      dup3\n        /* \"#utility.yul\":26586:26606   */\n      tag_319\n      jump\t// in\n    tag_637:\n        /* \"#utility.yul\":26581:26606   */\n      swap2\n      pop\n        /* \"#utility.yul\":26620:26640   */\n      tag_638\n        /* \"#utility.yul\":26638:26639   */\n      dup4\n        /* \"#utility.yul\":26620:26640   */\n      tag_319\n      jump\t// in\n    tag_638:\n        /* \"#utility.yul\":26615:26640   */\n      swap3\n      pop\n        /* \"#utility.yul\":26659:26660   */\n      dup3\n        /* \"#utility.yul\":26649:26684   */\n      tag_639\n      jumpi\n        /* \"#utility.yul\":26664:26682   */\n      tag_640\n      tag_382\n      jump\t// in\n    tag_640:\n        /* \"#utility.yul\":26649:26684   */\n    tag_639:\n        /* \"#utility.yul\":26706:26707   */\n      dup3\n        /* \"#utility.yul\":26703:26704   */\n      dup3\n        /* \"#utility.yul\":26699:26708   */\n      div\n        /* \"#utility.yul\":26694:26708   */\n      swap1\n      pop\n        /* \"#utility.yul\":26529:26714   */\n      swap3\n      swap2\n      pop\n      pop\n      jump\t// out\n        /* \"#utility.yul\":26720:26911   */\n    tag_306:\n        /* \"#utility.yul\":26760:26763   */\n      0x00\n        /* \"#utility.yul\":26779:26799   */\n      tag_642\n        /* \"#utility.yul\":26797:26798   */\n      dup3\n        /* \"#utility.yul\":26779:26799   */\n      tag_319\n      jump\t// in\n    tag_642:\n        /* \"#utility.yul\":26774:26799   */\n      swap2\n      pop\n        /* \"#utility.yul\":26813:26833   */\n      tag_643\n        /* \"#utility.yul\":26831:26832   */\n      dup4\n        /* \"#utility.yul\":26813:26833   */\n      tag_319\n      jump\t// in\n    tag_643:\n        /* \"#utility.yul\":26808:26833   */\n      swap3\n      pop\n        /* \"#utility.yul\":26856:26857   */\n      dup3\n        /* \"#utility.yul\":26853:26854   */\n      dup3\n        /* \"#utility.yul\":26849:26858   */\n      add\n        /* \"#utility.yul\":26842:26858   */\n      swap1\n      pop\n        /* \"#utility.yul\":26877:26880   */\n      dup1\n        /* \"#utility.yul\":26874:26875   */\n      dup3\n        /* \"#utility.yul\":26871:26881   */\n      gt\n        /* \"#utility.yul\":26868:26904   */\n      iszero\n      tag_644\n      jumpi\n        /* \"#utility.yul\":26884:26902   */\n      tag_645\n      tag_381\n      jump\t// in\n    tag_645:\n        /* \"#utility.yul\":26868:26904   */\n    tag_644:\n        /* \"#utility.yul\":26720:26911   */\n      swap3\n      swap2\n      pop\n      pop\n      jump\t// out\n        /* \"#utility.yul\":26917:27098   */\n    tag_383:\n        /* \"#utility.yul\":27057:27090   */\n      0x5265656e7472616e637947756172643a207265656e7472616e742063616c6c00\n        /* \"#utility.yul\":27053:27054   */\n      0x00\n        /* \"#utility.yul\":27045:27051   */\n      dup3\n        /* \"#utility.yul\":27041:27055   */\n      add\n        /* \"#utility.yul\":27034:27091   */\n      mstore\n        /* \"#utility.yul\":26917:27098   */\n      pop\n      jump\t// out\n        /* \"#utility.yul\":27104:27470   */\n    tag_384:\n        /* \"#utility.yul\":27246:27249   */\n      0x00\n        /* \"#utility.yul\":27267:27334   */\n      tag_648\n        /* \"#utility.yul\":27331:27333   */\n      0x1f\n        /* \"#utility.yul\":27326:27329   */\n      dup4\n        /* \"#utility.yul\":27267:27334   */\n      tag_334\n      jump\t// in\n    tag_648:\n        /* \"#utility.yul\":27260:27334   */\n      swap2\n      pop\n        /* \"#utility.yul\":27343:27436   */\n      tag_649\n        /* \"#utility.yul\":27432:27435   */\n      dup3\n        /* \"#utility.yul\":27343:27436   */\n      tag_383\n      jump\t// in\n    tag_649:\n        /* \"#utility.yul\":27461:27463   */\n      0x20\n        /* \"#utility.yul\":27456:27459   */\n      dup3\n        /* \"#utility.yul\":27452:27464   */\n      add\n        /* \"#utility.yul\":27445:27464   */\n      swap1\n      pop\n        /* \"#utility.yul\":27104:27470   */\n      swap2\n      swap1\n      pop\n      jump\t// out\n        /* \"#utility.yul\":27476:27895   */\n    tag_310:\n        /* \"#utility.yul\":27642:27646   */\n      0x00\n        /* \"#utility.yul\":27680:27682   */\n      0x20\n        /* \"#utility.yul\":27669:27678   */\n      dup3\n        /* \"#utility.yul\":27665:27683   */\n      add\n        /* \"#utility.yul\":27657:27683   */\n      swap1\n      pop\n        /* \"#utility.yul\":27729:27738   */\n      dup2\n        /* \"#utility.yul\":27723:27727   */\n      dup2\n        /* \"#utility.yul\":27719:27739   */\n      sub\n        /* \"#utility.yul\":27715:27716   */\n      0x00\n        /* \"#utility.yul\":27704:27713   */\n      dup4\n        /* \"#utility.yul\":27700:27717   */\n      add\n        /* \"#utility.yul\":27693:27740   */\n      mstore\n        /* \"#utility.yul\":27757:27888   */\n      tag_651\n        /* \"#utility.yul\":27883:27887   */\n      dup2\n        /* \"#utility.yul\":27757:27888   */\n      tag_384\n      jump\t// in\n    tag_651:\n        /* \"#utility.yul\":27749:27888   */\n      swap1\n      pop\n        /* \"#utility.yul\":27476:27895   */\n      swap2\n      swap1\n      pop\n      jump\t// out\n\n    auxdata: 0xa264697066735822122088df2bd7517c87840f068c31044a68d0a5cac766a55d8856b14784d4f5df8c1064736f6c63430008160033\n}\n",
				"bytecode": {
					"linkReferences": {},
					"object": "6080604052670de0b6b3a764000060025534801561001b575f80fd5b5060015f819055503360015f6101000a81548173ffffffffffffffffffffffffffffffffffffffff021916908373ffffffffffffffffffffffffffffffffffffffff16021790555060015f9054906101000a900473ffffffffffffffffffffffffffffffffffffffff1673ffffffffffffffffffffffffffffffffffffffff165f73ffffffffffffffffffffffffffffffffffffffff167f8be0079c531659141344cd1fd0a4f28419497f9722a3daafe3b4186f6b6457e060405160405180910390a3613bf0806100eb5f395ff3fe608060405234801561000f575f80fd5b506004361061014b575f3560e01c80639ce43f90116100c1578063b51d46ea1161007a578063b51d46ea146103cf578063be23b21b146103eb578063c00007b01461041b578063e6e8712d14610437578063e70b9e2714610468578063f1229777146104985761014b565b80639ce43f90146103135780639d4b0674146103435780639e447fc61461035f578063a64b6e5f1461037b578063ac18de4314610397578063adc9772e146103b35761014b565b806365c802151161011357806365c80215146102055780636e3b47fc146102355780637035ab98146102535780638229084b1461028357806382be4308146102b35780638f926830146102e35761014b565b8063211dc32d1461014f5780632ce9aead1461017f5780632d06177a146101af5780635997bb37146101cb5780635fa7b584146101e9575b5f80fd5b61016960048036038101906101649190612e41565b6104c8565b6040516101769190612e97565b60405180910390f35b61019960048036038101906101949190612eb0565b61071e565b6040516101a69190612e97565b60405180910390f35b6101c960048036038101906101c49190612eb0565b610733565b005b6101d3610938565b6040516101e09190612e97565b60405180910390f35b61020360048036038101906101fe9190612eb0565b61093e565b005b61021f600480360381019061021a9190612f05565b610b47565b60405161022c9190612f3f565b60405180910390f35b61023d610b82565b60405161024a9190612fcb565b60405180910390f35b61026d60048036038101906102689190612e41565b610c3f565b60405161027a9190612e97565b60405180910390f35b61029d60048036038101906102989190612e41565b610c5f565b6040516102aa9190612e97565b60405180910390f35b6102cd60048036038101906102c89190612eb0565b610c7f565b6040516102da9190612e97565b60405180910390f35b6102fd60048036038101906102f89190612e41565b610d8c565b60405161030a9190612e97565b60405180910390f35b61032d60048036038101906103289190612eb0565b610f7a565b60405161033a9190612e97565b60405180910390f35b61035d60048036038101906103589190612fe4565b610f8f565b005b61037960048036038101906103749190612f05565b61163a565b005b61039560048036038101906103909190613022565b61175b565b005b6103b160048036038101906103ac9190612eb0565b611a32565b005b6103cd60048036038101906103c89190612fe4565b611c35565b005b6103e960048036038101906103e491906130d3565b612227565b005b61040560048036038101906104009190612eb0565b6124b9565b6040516104129190612e97565b60405180910390f35b61043560048036038101906104309190612eb0565b6124ce565b005b610451600480360381019061044c9190612eb0565b612a1f565b60405161045f9291906131d4565b60405180910390f35b610482600480360381019061047d9190612e41565b612ad1565b60405161048f9190612e97565b60405180910390f35b6104b260048036038101906104ad9190612eb0565b612af1565b6040516104bf9190612e97565b60405180910390f35b5f60035f8473ffffffffffffffffffffffffffffffffffffffff1673ffffffffffffffffffffffffffffffffffffffff1681526020019081526020015f206001015f9054906101000a900460ff16610555576040517f08c379a000000000000000000000000000000000000000000000000000000000815260040161054c9061324c565b60405180910390fd5b61071660065f8573ffffffffffffffffffffffffffffffffffffffff1673ffffffffffffffffffffffffffffffffffffffff1681526020019081526020015f205f8473ffffffffffffffffffffffffffffffffffffffff1673ffffffffffffffffffffffffffffffffffffffff1681526020019081526020015f2054610708670de0b6b3a76400006106fa61067360075f8a73ffffffffffffffffffffffffffffffffffffffff1673ffffffffffffffffffffffffffffffffffffffff1681526020019081526020015f205f8973ffffffffffffffffffffffffffffffffffffffff1673ffffffffffffffffffffffffffffffffffffffff1681526020019081526020015f20546106658a612af1565b612d3590919063ffffffff16565b60055f8a73ffffffffffffffffffffffffffffffffffffffff1673ffffffffffffffffffffffffffffffffffffffff1681526020019081526020015f205f8973ffffffffffffffffffffffffffffffffffffffff1673ffffffffffffffffffffffffffffffffffffffff1681526020019081526020015f2054612d4a90919063ffffffff16565b612d5f90919063ffffffff16565b612d7490919063ffffffff16565b905092915050565b6009602052805f5260405f205f915090505481565b600b5f3373ffffffffffffffffffffffffffffffffffffffff1673ffffffffffffffffffffffffffffffffffffffff1681526020019081526020015f205f9054906101000a900460ff16806107d457503373ffffffffffffffffffffffffffffffffffffffff1660015f9054906101000a900473ffffffffffffffffffffffffffffffffffffffff1673ffffffffffffffffffffffffffffffffffffffff16145b610813576040517f08c379a000000000000000000000000000000000000000000000000000000000815260040161080a906132b4565b60405180910390fd5b600b5f8273ffffffffffffffffffffffffffffffffffffffff1673ffffffffffffffffffffffffffffffffffffffff1681526020019081526020015f205f9054906101000a900460ff161561089d576040517f08c379a00000000000000000000000000000000000000000000000000000000081526004016108949061331c565b60405180910390fd5b6001600b5f8373ffffffffffffffffffffffffffffffffffffffff1673ffffffffffffffffffffffffffffffffffffffff1681526020019081526020015f205f6101000a81548160ff0219169083151502179055508073ffffffffffffffffffffffffffffffffffffffff167f3b4a40cccf2058c593542587329dd385be4f0b588db5471fbd9598e56dd7093a60405160405180910390a250565b60025481565b600b5f3373ffffffffffffffffffffffffffffffffffffffff1673ffffffffffffffffffffffffffffffffffffffff1681526020019081526020015f205f9054906101000a900460ff16806109df57503373ffffffffffffffffffffffffffffffffffffffff1660015f9054906101000a900473ffffffffffffffffffffffffffffffffffffffff1673ffffffffffffffffffffffffffffffffffffffff16145b610a1e576040517f08c379a0000000000000000000000000000000000000000000000000000000008152600401610a15906132b4565b60405180910390fd5b60035f8273ffffffffffffffffffffffffffffffffffffffff1673ffffffffffffffffffffffffffffffffffffffff1681526020019081526020015f206001015f9054906101000a900460ff16610aaa576040517f08c379a0000000000000000000000000000000000000000000000000000000008152600401610aa190613384565b60405180910390fd5b5f60035f8373ffffffffffffffffffffffffffffffffffffffff1673ffffffffffffffffffffffffffffffffffffffff1681526020019081526020015f206001015f6101000a81548160ff0219169083151502179055508073ffffffffffffffffffffffffffffffffffffffff167f4c910b69fe65a61f7531b9c5042b2329ca7179c77290aa7e2eb3afa3c8511fd360405160405180910390a250565b60048181548110610b56575f80fd5b905f5260205f20015f915054906101000a900473ffffffffffffffffffffffffffffffffffffffff1681565b5f60015f9054906101000a900473ffffffffffffffffffffffffffffffffffffffff1673ffffffffffffffffffffffffffffffffffffffff163373ffffffffffffffffffffffffffffffffffffffff1603610be05760019050610c3c565b600b5f3373ffffffffffffffffffffffffffffffffffffffff1673ffffffffffffffffffffffffffffffffffffffff1681526020019081526020015f205f9054906101000a900460ff1615610c385760029050610c3c565b5f90505b90565b6007602052815f5260405f20602052805f5260405f205f91509150505481565b6005602052815f5260405f20602052805f5260405f205f91509150505481565b5f60035f8373ffffffffffffffffffffffffffffffffffffffff1673ffffffffffffffffffffffffffffffffffffffff1681526020019081526020015f206001015f9054906101000a900460ff16610d0c576040517f08c379a0000000000000000000000000000000000000000000000000000000008152600401610d039061324c565b60405180910390fd5b60055f8373ffffffffffffffffffffffffffffffffffffffff1673ffffffffffffffffffffffffffffffffffffffff1681526020019081526020015f205f3373ffffffffffffffffffffffffffffffffffffffff1673ffffffffffffffffffffffffffffffffffffffff1681526020019081526020015f20549050919050565b5f600b5f3373ffffffffffffffffffffffffffffffffffffffff1673ffffffffffffffffffffffffffffffffffffffff1681526020019081526020015f205f9054906101000a900460ff1680610e2e57503373ffffffffffffffffffffffffffffffffffffffff1660015f9054906101000a900473ffffffffffffffffffffffffffffffffffffffff1673ffffffffffffffffffffffffffffffffffffffff16145b610e6d576040517f08c379a0000000000000000000000000000000000000000000000000000000008152600401610e64906132b4565b60405180910390fd5b60035f8473ffffffffffffffffffffffffffffffffffffffff1673ffffffffffffffffffffffffffffffffffffffff1681526020019081526020015f206001015f9054906101000a900460ff16610ef9576040517f08c379a0000000000000000000000000000000000000000000000000000000008152600401610ef09061324c565b60405180910390fd5b60055f8473ffffffffffffffffffffffffffffffffffffffff1673ffffffffffffffffffffffffffffffffffffffff1681526020019081526020015f205f8373ffffffffffffffffffffffffffffffffffffffff1673ffffffffffffffffffffffffffffffffffffffff1681526020019081526020015f2054905092915050565b6008602052805f5260405f205f915090505481565b610f97612d89565b813360035f8373ffffffffffffffffffffffffffffffffffffffff1673ffffffffffffffffffffffffffffffffffffffff1681526020019081526020015f206001015f9054906101000a900460ff16611025576040517f08c379a000000000000000000000000000000000000000000000000000000000815260040161101c9061324c565b60405180910390fd5b61102e82612af1565b60085f8473ffffffffffffffffffffffffffffffffffffffff1673ffffffffffffffffffffffffffffffffffffffff1681526020019081526020015f20819055504260095f8473ffffffffffffffffffffffffffffffffffffffff1673ffffffffffffffffffffffffffffffffffffffff1681526020019081526020015f20819055506110bb82826104c8565b60065f8473ffffffffffffffffffffffffffffffffffffffff1673ffffffffffffffffffffffffffffffffffffffff1681526020019081526020015f205f8373ffffffffffffffffffffffffffffffffffffffff1673ffffffffffffffffffffffffffffffffffffffff1681526020019081526020015f208190555060085f8373ffffffffffffffffffffffffffffffffffffffff1673ffffffffffffffffffffffffffffffffffffffff1681526020019081526020015f205460075f8473ffffffffffffffffffffffffffffffffffffffff1673ffffffffffffffffffffffffffffffffffffffff1681526020019081526020015f205f8373ffffffffffffffffffffffffffffffffffffffff1673ffffffffffffffffffffffffffffffffffffffff1681526020019081526020015f208190555060035f8573ffffffffffffffffffffffffffffffffffffffff1673ffffffffffffffffffffffffffffffffffffffff1681526020019081526020015f206001015f9054906101000a900460ff1661127d576040517f08c379a00000000000000000000000000000000000000000000000000000000081526004016112749061324c565b60405180910390fd5b5f83116112bf576040517f08c379a00000000000000000000000000000000000000000000000000000000081526004016112b6906133ec565b60405180910390fd5b8260055f8673ffffffffffffffffffffffffffffffffffffffff1673ffffffffffffffffffffffffffffffffffffffff1681526020019081526020015f205f3373ffffffffffffffffffffffffffffffffffffffff1673ffffffffffffffffffffffffffffffffffffffff1681526020019081526020015f2054101561137a576040517f08c379a000000000000000000000000000000000000000000000000000000000815260040161137190613454565b60405180910390fd5b6113ca83600a5f8773ffffffffffffffffffffffffffffffffffffffff1673ffffffffffffffffffffffffffffffffffffffff1681526020019081526020015f2054612d3590919063ffffffff16565b600a5f8673ffffffffffffffffffffffffffffffffffffffff1673ffffffffffffffffffffffffffffffffffffffff1681526020019081526020015f20819055506114968360055f8773ffffffffffffffffffffffffffffffffffffffff1673ffffffffffffffffffffffffffffffffffffffff1681526020019081526020015f205f3373ffffffffffffffffffffffffffffffffffffffff1673ffffffffffffffffffffffffffffffffffffffff1681526020019081526020015f2054612d3590919063ffffffff16565b60055f8673ffffffffffffffffffffffffffffffffffffffff1673ffffffffffffffffffffffffffffffffffffffff1681526020019081526020015f205f3373ffffffffffffffffffffffffffffffffffffffff1673ffffffffffffffffffffffffffffffffffffffff1681526020019081526020015f2081905550828473ffffffffffffffffffffffffffffffffffffffff163373ffffffffffffffffffffffffffffffffffffffff167fd1c19fbcd4551a5edfb66d43d2e337c04837afda3482b42bdf569a8fccdae5fb60405160405180910390a45f8473ffffffffffffffffffffffffffffffffffffffff1663a9059cbb33866040518363ffffffff1660e01b81526004016115a9929190613472565b6020604051808303815f875af11580156115c5573d5f803e3d5ffd5b505050506040513d601f19601f820116820180604052508101906115e991906134c3565b90508061162b576040517f08c379a000000000000000000000000000000000000000000000000000000000815260040161162290613538565b60405180910390fd5b505050611636612dd6565b5050565b600b5f3373ffffffffffffffffffffffffffffffffffffffff1673ffffffffffffffffffffffffffffffffffffffff1681526020019081526020015f205f9054906101000a900460ff16806116db57503373ffffffffffffffffffffffffffffffffffffffff1660015f9054906101000a900473ffffffffffffffffffffffffffffffffffffffff1673ffffffffffffffffffffffffffffffffffffffff16145b61171a576040517f08c379a0000000000000000000000000000000000000000000000000000000008152600401611711906132b4565b60405180910390fd5b806002819055507f41d466ebd06fb97e7786086ac8b69b7eb7da798592036251291d34e9791cde01816040516117509190612e97565b60405180910390a150565b600b5f3373ffffffffffffffffffffffffffffffffffffffff1673ffffffffffffffffffffffffffffffffffffffff1681526020019081526020015f205f9054906101000a900460ff16806117fc57503373ffffffffffffffffffffffffffffffffffffffff1660015f9054906101000a900473ffffffffffffffffffffffffffffffffffffffff1673ffffffffffffffffffffffffffffffffffffffff16145b61183b576040517f08c379a0000000000000000000000000000000000000000000000000000000008152600401611832906132b4565b60405180910390fd5b60035f8473ffffffffffffffffffffffffffffffffffffffff1673ffffffffffffffffffffffffffffffffffffffff1681526020019081526020015f206001015f9054906101000a900460ff166118c7576040517f08c379a00000000000000000000000000000000000000000000000000000000081526004016118be9061324c565b60405180910390fd5b5f8111611909576040517f08c379a0000000000000000000000000000000000000000000000000000000008152600401611900906133ec565b60405180910390fd5b5f8373ffffffffffffffffffffffffffffffffffffffff1663a9059cbb84846040518363ffffffff1660e01b8152600401611945929190613472565b6020604051808303815f875af1158015611961573d5f803e3d5ffd5b505050506040513d601f19601f8201168201806040525081019061198591906134c3565b9050806119c7576040517f08c379a00000000000000000000000000000000000000000000000000000000081526004016119be90613538565b60405180910390fd5b8273ffffffffffffffffffffffffffffffffffffffff168473ffffffffffffffffffffffffffffffffffffffff167f1b89874203ff7f0bba87c969ada3f32fda22ed38a6706d35199d21280c7811b184604051611a249190612e97565b60405180910390a350505050565b600b5f3373ffffffffffffffffffffffffffffffffffffffff1673ffffffffffffffffffffffffffffffffffffffff1681526020019081526020015f205f9054906101000a900460ff1680611ad357503373ffffffffffffffffffffffffffffffffffffffff1660015f9054906101000a900473ffffffffffffffffffffffffffffffffffffffff1673ffffffffffffffffffffffffffffffffffffffff16145b611b12576040517f08c379a0000000000000000000000000000000000000000000000000000000008152600401611b09906132b4565b60405180910390fd5b600b5f8273ffffffffffffffffffffffffffffffffffffffff1673ffffffffffffffffffffffffffffffffffffffff1681526020019081526020015f205f9054906101000a900460ff16611b9b576040517f08c379a0000000000000000000000000000000000000000000000000000000008152600401611b92906135a0565b60405180910390fd5b5f600b5f8373ffffffffffffffffffffffffffffffffffffffff1673ffffffffffffffffffffffffffffffffffffffff1681526020019081526020015f205f6101000a81548160ff0219169083151502179055508073ffffffffffffffffffffffffffffffffffffffff167fef69f7d97228658c92417be1b16b19058315de71fecb435d07b7d23728b6bd3160405160405180910390a250565b611c3d612d89565b813360035f8373ffffffffffffffffffffffffffffffffffffffff1673ffffffffffffffffffffffffffffffffffffffff1681526020019081526020015f206001015f9054906101000a900460ff16611ccb576040517f08c379a0000000000000000000000000000000000000000000000000000000008152600401611cc29061324c565b60405180910390fd5b611cd482612af1565b60085f8473ffffffffffffffffffffffffffffffffffffffff1673ffffffffffffffffffffffffffffffffffffffff1681526020019081526020015f20819055504260095f8473ffffffffffffffffffffffffffffffffffffffff1673ffffffffffffffffffffffffffffffffffffffff1681526020019081526020015f2081905550611d6182826104c8565b60065f8473ffffffffffffffffffffffffffffffffffffffff1673ffffffffffffffffffffffffffffffffffffffff1681526020019081526020015f205f8373ffffffffffffffffffffffffffffffffffffffff1673ffffffffffffffffffffffffffffffffffffffff1681526020019081526020015f208190555060085f8373ffffffffffffffffffffffffffffffffffffffff1673ffffffffffffffffffffffffffffffffffffffff1681526020019081526020015f205460075f8473ffffffffffffffffffffffffffffffffffffffff1673ffffffffffffffffffffffffffffffffffffffff1681526020019081526020015f205f8373ffffffffffffffffffffffffffffffffffffffff1673ffffffffffffffffffffffffffffffffffffffff1681526020019081526020015f208190555060035f8573ffffffffffffffffffffffffffffffffffffffff1673ffffffffffffffffffffffffffffffffffffffff1681526020019081526020015f206001015f9054906101000a900460ff16611f23576040517f08c379a0000000000000000000000000000000000000000000000000000000008152600401611f1a9061324c565b60405180910390fd5b5f8311611f65576040517f08c379a0000000000000000000000000000000000000000000000000000000008152600401611f5c906133ec565b60405180910390fd5b611fb583600a5f8773ffffffffffffffffffffffffffffffffffffffff1673ffffffffffffffffffffffffffffffffffffffff1681526020019081526020015f2054612d7490919063ffffffff16565b600a5f8673ffffffffffffffffffffffffffffffffffffffff1673ffffffffffffffffffffffffffffffffffffffff1681526020019081526020015f20819055506120818360055f8773ffffffffffffffffffffffffffffffffffffffff1673ffffffffffffffffffffffffffffffffffffffff1681526020019081526020015f205f3373ffffffffffffffffffffffffffffffffffffffff1673ffffffffffffffffffffffffffffffffffffffff1681526020019081526020015f2054612d7490919063ffffffff16565b60055f8673ffffffffffffffffffffffffffffffffffffffff1673ffffffffffffffffffffffffffffffffffffffff1681526020019081526020015f205f3373ffffffffffffffffffffffffffffffffffffffff1673ffffffffffffffffffffffffffffffffffffffff1681526020019081526020015f2081905550828473ffffffffffffffffffffffffffffffffffffffff163373ffffffffffffffffffffffffffffffffffffffff167f5dac0c1b1112564a045ba943c9d50270893e8e826c49be8e7073adc713ab7bd760405160405180910390a45f8473ffffffffffffffffffffffffffffffffffffffff166323b872dd3330876040518463ffffffff1660e01b8152600401612196939291906135be565b6020604051808303815f875af11580156121b2573d5f803e3d5ffd5b505050506040513d601f19601f820116820180604052508101906121d691906134c3565b905080612218576040517f08c379a000000000000000000000000000000000000000000000000000000000815260040161220f90613538565b60405180910390fd5b505050612223612dd6565b5050565b3373ffffffffffffffffffffffffffffffffffffffff1660015f9054906101000a900473ffffffffffffffffffffffffffffffffffffffff1673ffffffffffffffffffffffffffffffffffffffff16146122b6576040517f08c379a00000000000000000000000000000000000000000000000000000000081526004016122ad9061363d565b60405180910390fd5b60035f8473ffffffffffffffffffffffffffffffffffffffff1673ffffffffffffffffffffffffffffffffffffffff1681526020019081526020015f206001015f9054906101000a900460ff1615612343576040517f08c379a000000000000000000000000000000000000000000000000000000000815260040161233a906136a5565b60405180910390fd5b604051806040016040528083838080601f0160208091040260200160405190810160405280939291908181526020018383808284375f81840152601f19601f8201169050808301925050505050505081526020016001151581525060035f8573ffffffffffffffffffffffffffffffffffffffff1673ffffffffffffffffffffffffffffffffffffffff1681526020019081526020015f205f820151815f0190816123ee91906138ea565b506020820151816001015f6101000a81548160ff021916908315150217905550905050600483908060018154018082558091505060019003905f5260205f20015f9091909190916101000a81548173ffffffffffffffffffffffffffffffffffffffff021916908373ffffffffffffffffffffffffffffffffffffffff1602179055508273ffffffffffffffffffffffffffffffffffffffff167f784c8f4dbf0ffedd6e72c76501c545a70f8b203b30a26ce542bf92ba87c248a460405160405180910390a2505050565b600a602052805f5260405f205f915090505481565b6124d6612d89565b803360035f8373ffffffffffffffffffffffffffffffffffffffff1673ffffffffffffffffffffffffffffffffffffffff1681526020019081526020015f206001015f9054906101000a900460ff16612564576040517f08c379a000000000000000000000000000000000000000000000000000000000815260040161255b9061324c565b60405180910390fd5b61256d82612af1565b60085f8473ffffffffffffffffffffffffffffffffffffffff1673ffffffffffffffffffffffffffffffffffffffff1681526020019081526020015f20819055504260095f8473ffffffffffffffffffffffffffffffffffffffff1673ffffffffffffffffffffffffffffffffffffffff1681526020019081526020015f20819055506125fa82826104c8565b60065f8473ffffffffffffffffffffffffffffffffffffffff1673ffffffffffffffffffffffffffffffffffffffff1681526020019081526020015f205f8373ffffffffffffffffffffffffffffffffffffffff1673ffffffffffffffffffffffffffffffffffffffff1681526020019081526020015f208190555060085f8373ffffffffffffffffffffffffffffffffffffffff1673ffffffffffffffffffffffffffffffffffffffff1681526020019081526020015f205460075f8473ffffffffffffffffffffffffffffffffffffffff1673ffffffffffffffffffffffffffffffffffffffff1681526020019081526020015f205f8373ffffffffffffffffffffffffffffffffffffffff1673ffffffffffffffffffffffffffffffffffffffff1681526020019081526020015f208190555060035f8473ffffffffffffffffffffffffffffffffffffffff1673ffffffffffffffffffffffffffffffffffffffff1681526020019081526020015f206001015f9054906101000a900460ff166127bc576040517f08c379a00000000000000000000000000000000000000000000000000000000081526004016127b39061324c565b60405180910390fd5b5f60065f8573ffffffffffffffffffffffffffffffffffffffff1673ffffffffffffffffffffffffffffffffffffffff1681526020019081526020015f205f3373ffffffffffffffffffffffffffffffffffffffff1673ffffffffffffffffffffffffffffffffffffffff1681526020019081526020015f205490505f811161287a576040517f08c379a000000000000000000000000000000000000000000000000000000000815260040161287190613a03565b60405180910390fd5b5f60065f8673ffffffffffffffffffffffffffffffffffffffff1673ffffffffffffffffffffffffffffffffffffffff1681526020019081526020015f205f3373ffffffffffffffffffffffffffffffffffffffff1673ffffffffffffffffffffffffffffffffffffffff1681526020019081526020015f2081905550808473ffffffffffffffffffffffffffffffffffffffff163373ffffffffffffffffffffffffffffffffffffffff167f9310ccfcb8de723f578a9e4282ea9f521f05ae40dc08f3068dfad528a65ee3c760405160405180910390a45f8473ffffffffffffffffffffffffffffffffffffffff1663a9059cbb33846040518363ffffffff1660e01b815260040161298e929190613472565b6020604051808303815f875af11580156129aa573d5f803e3d5ffd5b505050506040513d601f19601f820116820180604052508101906129ce91906134c3565b905080612a10576040517f08c379a0000000000000000000000000000000000000000000000000000000008152600401612a0790613538565b60405180910390fd5b50505050612a1c612dd6565b50565b6003602052805f5260405f205f91509050805f018054612a3e9061371d565b80601f0160208091040260200160405190810160405280929190818152602001828054612a6a9061371d565b8015612ab55780601f10612a8c57610100808354040283529160200191612ab5565b820191905f5260205f20905b815481529060010190602001808311612a9857829003601f168201915b505050505090806001015f9054906101000a900460ff16905082565b6006602052815f5260405f20602052805f5260405f205f91509150505481565b5f60035f8373ffffffffffffffffffffffffffffffffffffffff1673ffffffffffffffffffffffffffffffffffffffff1681526020019081526020015f206001015f9054906101000a900460ff16612b7e576040517f08c379a0000000000000000000000000000000000000000000000000000000008152600401612b759061324c565b60405180910390fd5b5f600a5f8473ffffffffffffffffffffffffffffffffffffffff1673ffffffffffffffffffffffffffffffffffffffff1681526020019081526020015f205403612c075760085f8373ffffffffffffffffffffffffffffffffffffffff1673ffffffffffffffffffffffffffffffffffffffff1681526020019081526020015f20549050612d30565b5f612c5860095f8573ffffffffffffffffffffffffffffffffffffffff1673ffffffffffffffffffffffffffffffffffffffff1681526020019081526020015f205442612d3590919063ffffffff16565b90505f612c7082600254612d4a90919063ffffffff16565b9050612d2b612cdf600a5f8773ffffffffffffffffffffffffffffffffffffffff1673ffffffffffffffffffffffffffffffffffffffff1681526020019081526020015f2054612cd1670de0b6b3a764000085612d4a90919063ffffffff16565b612d5f90919063ffffffff16565b60085f8773ffffffffffffffffffffffffffffffffffffffff1673ffffffffffffffffffffffffffffffffffffffff1681526020019081526020015f2054612d7490919063ffffffff16565b925050505b919050565b5f8183612d429190613a4e565b905092915050565b5f8183612d579190613a81565b905092915050565b5f8183612d6c9190613aef565b905092915050565b5f8183612d819190613b1f565b905092915050565b60025f5403612dcd576040517f08c379a0000000000000000000000000000000000000000000000000000000008152600401612dc490613b9c565b60405180910390fd5b60025f81905550565b60015f81905550565b5f80fd5b5f80fd5b5f73ffffffffffffffffffffffffffffffffffffffff82169050919050565b5f612e1082612de7565b9050919050565b612e2081612e06565b8114612e2a575f80fd5b50565b5f81359050612e3b81612e17565b92915050565b5f8060408385031215612e5757612e56612ddf565b5b5f612e6485828601612e2d565b9250506020612e7585828601612e2d565b9150509250929050565b5f819050919050565b612e9181612e7f565b82525050565b5f602082019050612eaa5f830184612e88565b92915050565b5f60208284031215612ec557612ec4612ddf565b5b5f612ed284828501612e2d565b91505092915050565b612ee481612e7f565b8114612eee575f80fd5b50565b5f81359050612eff81612edb565b92915050565b5f60208284031215612f1a57612f19612ddf565b5b5f612f2784828501612ef1565b91505092915050565b612f3981612e06565b82525050565b5f602082019050612f525f830184612f30565b92915050565b7f4e487b71000000000000000000000000000000000000000000000000000000005f52602160045260245ffd5b60038110612f9657612f95612f58565b5b50565b5f819050612fa682612f85565b919050565b5f612fb582612f99565b9050919050565b612fc581612fab565b82525050565b5f602082019050612fde5f830184612fbc565b92915050565b5f8060408385031215612ffa57612ff9612ddf565b5b5f61300785828601612e2d565b925050602061301885828601612ef1565b9150509250929050565b5f805f6060848603121561303957613038612ddf565b5b5f61304686828701612e2d565b935050602061305786828701612e2d565b925050604061306886828701612ef1565b9150509250925092565b5f80fd5b5f80fd5b5f80fd5b5f8083601f84011261309357613092613072565b5b8235905067ffffffffffffffff8111156130b0576130af613076565b5b6020830191508360018202830111156130cc576130cb61307a565b5b9250929050565b5f805f604084860312156130ea576130e9612ddf565b5b5f6130f786828701612e2d565b935050602084013567ffffffffffffffff81111561311857613117612de3565b5b6131248682870161307e565b92509250509250925092565b5f81519050919050565b5f82825260208201905092915050565b5f5b8381101561316757808201518184015260208101905061314c565b5f8484015250505050565b5f601f19601f8301169050919050565b5f61318c82613130565b613196818561313a565b93506131a681856020860161314a565b6131af81613172565b840191505092915050565b5f8115159050919050565b6131ce816131ba565b82525050565b5f6040820190508181035f8301526131ec8185613182565b90506131fb60208301846131c5565b9392505050565b7f546f6b656e206973206e6f7420616374697665000000000000000000000000005f82015250565b5f61323660138361313a565b915061324182613202565b602082019050919050565b5f6020820190508181035f8301526132638161322a565b9050919050565b7f4e6f7420617574686f72697a65640000000000000000000000000000000000005f82015250565b5f61329e600e8361313a565b91506132a98261326a565b602082019050919050565b5f6020820190508181035f8301526132cb81613292565b9050919050565b7f4d616e6167657220616c726561647920616464656400000000000000000000005f82015250565b5f61330660158361313a565b9150613311826132d2565b602082019050919050565b5f6020820190508181035f830152613333816132fa565b9050919050565b7f546f6b656e206e6f7420616374697665000000000000000000000000000000005f82015250565b5f61336e60108361313a565b91506133798261333a565b602082019050919050565b5f6020820190508181035f83015261339b81613362565b9050919050565b7f416d6f756e74206d7573742062652067726561746572207468616e207a65726f5f82015250565b5f6133d660208361313a565b91506133e1826133a2565b602082019050919050565b5f6020820190508181035f830152613403816133ca565b9050919050565b7f5374616b656420616d6f756e74206e6f7420656e6f75676800000000000000005f82015250565b5f61343e60188361313a565b91506134498261340a565b602082019050919050565b5f6020820190508181035f83015261346b81613432565b9050919050565b5f6040820190506134855f830185612f30565b6134926020830184612e88565b9392505050565b6134a2816131ba565b81146134ac575f80fd5b50565b5f815190506134bd81613499565b92915050565b5f602082840312156134d8576134d7612ddf565b5b5f6134e5848285016134af565b91505092915050565b7f5472616e73666572204661696c656400000000000000000000000000000000005f82015250565b5f613522600f8361313a565b915061352d826134ee565b602082019050919050565b5f6020820190508181035f83015261354f81613516565b9050919050565b7f4d616e61676572206e6f7420666f756e640000000000000000000000000000005f82015250565b5f61358a60118361313a565b915061359582613556565b602082019050919050565b5f6020820190508181035f8301526135b78161357e565b9050919050565b5f6060820190506135d15f830186612f30565b6135de6020830185612f30565b6135eb6040830184612e88565b949350505050565b7f4f776e61626c653a2063616c6c6572206973206e6f7420746865206f776e65725f82015250565b5f61362760208361313a565b9150613632826135f3565b602082019050919050565b5f6020820190508181035f8301526136548161361b565b9050919050565b7f546f6b656e20616c7265616479206164646564000000000000000000000000005f82015250565b5f61368f60138361313a565b915061369a8261365b565b602082019050919050565b5f6020820190508181035f8301526136bc81613683565b9050919050565b7f4e487b71000000000000000000000000000000000000000000000000000000005f52604160045260245ffd5b7f4e487b71000000000000000000000000000000000000000000000000000000005f52602260045260245ffd5b5f600282049050600182168061373457607f821691505b602082108103613747576137466136f0565b5b50919050565b5f819050815f5260205f209050919050565b5f6020601f8301049050919050565b5f82821b905092915050565b5f600883026137a97fffffffffffffffffffffffffffffffffffffffffffffffffffffffffffffffff8261376e565b6137b3868361376e565b95508019841693508086168417925050509392505050565b5f819050919050565b5f6137ee6137e96137e484612e7f565b6137cb565b612e7f565b9050919050565b5f819050919050565b613807836137d4565b61381b613813826137f5565b84845461377a565b825550505050565b5f90565b61382f613823565b61383a8184846137fe565b505050565b5b8181101561385d576138525f82613827565b600181019050613840565b5050565b601f8211156138a2576138738161374d565b61387c8461375f565b8101602085101561388b578190505b61389f6138978561375f565b83018261383f565b50505b505050565b5f82821c905092915050565b5f6138c25f19846008026138a7565b1980831691505092915050565b5f6138da83836138b3565b9150826002028217905092915050565b6138f382613130565b67ffffffffffffffff81111561390c5761390b6136c3565b5b613916825461371d565b613921828285613861565b5f60209050601f831160018114613952575f8415613940578287015190505b61394a85826138cf565b8655506139b1565b601f1984166139608661374d565b5f5b8281101561398757848901518255600182019150602085019450602081019050613962565b868310156139a457848901516139a0601f8916826138b3565b8355505b6001600288020188555050505b505050505050565b7f4e6f207265776172647320746f20636c61696d000000000000000000000000005f82015250565b5f6139ed60138361313a565b91506139f8826139b9565b602082019050919050565b5f6020820190508181035f830152613a1a816139e1565b9050919050565b7f4e487b71000000000000000000000000000000000000000000000000000000005f52601160045260245ffd5b5f613a5882612e7f565b9150613a6383612e7f565b9250828203905081811115613a7b57613a7a613a21565b5b92915050565b5f613a8b82612e7f565b9150613a9683612e7f565b9250828202613aa481612e7f565b91508282048414831517613abb57613aba613a21565b5b5092915050565b7f4e487b71000000000000000000000000000000000000000000000000000000005f52601260045260245ffd5b5f613af982612e7f565b9150613b0483612e7f565b925082613b1457613b13613ac2565b5b828204905092915050565b5f613b2982612e7f565b9150613b3483612e7f565b9250828201905080821115613b4c57613b4b613a21565b5b92915050565b7f5265656e7472616e637947756172643a207265656e7472616e742063616c6c005f82015250565b5f613b86601f8361313a565b9150613b9182613b52565b602082019050919050565b5f6020820190508181035f830152613bb381613b7a565b905091905056fea264697066735822122088df2bd7517c87840f068c31044a68d0a5cac766a55d8856b14784d4f5df8c1064736f6c63430008160033",
					"opcodes": "PUSH1 0x80 PUSH1 0x40 MSTORE PUSH8 0xDE0B6B3A7640000 PUSH1 0x2 SSTORE CALLVALUE DUP1 ISZERO PUSH2 0x1B JUMPI PUSH0 DUP1 REVERT JUMPDEST POP PUSH1 0x1 PUSH0 DUP2 SWAP1 SSTORE POP CALLER PUSH1 0x1 PUSH0 PUSH2 0x100 EXP DUP2 SLOAD DUP2 PUSH20 0xFFFFFFFFFFFFFFFFFFFFFFFFFFFFFFFFFFFFFFFF MUL NOT AND SWAP1 DUP4 PUSH20 0xFFFFFFFFFFFFFFFFFFFFFFFFFFFFFFFFFFFFFFFF AND MUL OR SWAP1 SSTORE POP PUSH1 0x1 PUSH0 SWAP1 SLOAD SWAP1 PUSH2 0x100 EXP SWAP1 DIV PUSH20 0xFFFFFFFFFFFFFFFFFFFFFFFFFFFFFFFFFFFFFFFF AND PUSH20 0xFFFFFFFFFFFFFFFFFFFFFFFFFFFFFFFFFFFFFFFF AND PUSH0 PUSH20 0xFFFFFFFFFFFFFFFFFFFFFFFFFFFFFFFFFFFFFFFF AND PUSH32 0x8BE0079C531659141344CD1FD0A4F28419497F9722A3DAAFE3B4186F6B6457E0 PUSH1 0x40 MLOAD PUSH1 0x40 MLOAD DUP1 SWAP2 SUB SWAP1 LOG3 PUSH2 0x3BF0 DUP1 PUSH2 0xEB PUSH0 CODECOPY PUSH0 RETURN INVALID PUSH1 0x80 PUSH1 0x40 MSTORE CALLVALUE DUP1 ISZERO PUSH2 0xF JUMPI PUSH0 DUP1 REVERT JUMPDEST POP PUSH1 0x4 CALLDATASIZE LT PUSH2 0x14B JUMPI PUSH0 CALLDATALOAD PUSH1 0xE0 SHR DUP1 PUSH4 0x9CE43F90 GT PUSH2 0xC1 JUMPI DUP1 PUSH4 0xB51D46EA GT PUSH2 0x7A JUMPI DUP1 PUSH4 0xB51D46EA EQ PUSH2 0x3CF JUMPI DUP1 PUSH4 0xBE23B21B EQ PUSH2 0x3EB JUMPI DUP1 PUSH4 0xC00007B0 EQ PUSH2 0x41B JUMPI DUP1 PUSH4 0xE6E8712D EQ PUSH2 0x437 JUMPI DUP1 PUSH4 0xE70B9E27 EQ PUSH2 0x468 JUMPI DUP1 PUSH4 0xF1229777 EQ PUSH2 0x498 JUMPI PUSH2 0x14B JUMP JUMPDEST DUP1 PUSH4 0x9CE43F90 EQ PUSH2 0x313 JUMPI DUP1 PUSH4 0x9D4B0674 EQ PUSH2 0x343 JUMPI DUP1 PUSH4 0x9E447FC6 EQ PUSH2 0x35F JUMPI DUP1 PUSH4 0xA64B6E5F EQ PUSH2 0x37B JUMPI DUP1 PUSH4 0xAC18DE43 EQ PUSH2 0x397 JUMPI DUP1 PUSH4 0xADC9772E EQ PUSH2 0x3B3 JUMPI PUSH2 0x14B JUMP JUMPDEST DUP1 PUSH4 0x65C80215 GT PUSH2 0x113 JUMPI DUP1 PUSH4 0x65C80215 EQ PUSH2 0x205 JUMPI DUP1 PUSH4 0x6E3B47FC EQ PUSH2 0x235 JUMPI DUP1 PUSH4 0x7035AB98 EQ PUSH2 0x253 JUMPI DUP1 PUSH4 0x8229084B EQ PUSH2 0x283 JUMPI DUP1 PUSH4 0x82BE4308 EQ PUSH2 0x2B3 JUMPI DUP1 PUSH4 0x8F926830 EQ PUSH2 0x2E3 JUMPI PUSH2 0x14B JUMP JUMPDEST DUP1 PUSH4 0x211DC32D EQ PUSH2 0x14F JUMPI DUP1 PUSH4 0x2CE9AEAD EQ PUSH2 0x17F JUMPI DUP1 PUSH4 0x2D06177A EQ PUSH2 0x1AF JUMPI DUP1 PUSH4 0x5997BB37 EQ PUSH2 0x1CB JUMPI DUP1 PUSH4 0x5FA7B584 EQ PUSH2 0x1E9 JUMPI JUMPDEST PUSH0 DUP1 REVERT JUMPDEST PUSH2 0x169 PUSH1 0x4 DUP1 CALLDATASIZE SUB DUP2 ADD SWAP1 PUSH2 0x164 SWAP2 SWAP1 PUSH2 0x2E41 JUMP JUMPDEST PUSH2 0x4C8 JUMP JUMPDEST PUSH1 0x40 MLOAD PUSH2 0x176 SWAP2 SWAP1 PUSH2 0x2E97 JUMP JUMPDEST PUSH1 0x40 MLOAD DUP1 SWAP2 SUB SWAP1 RETURN JUMPDEST PUSH2 0x199 PUSH1 0x4 DUP1 CALLDATASIZE SUB DUP2 ADD SWAP1 PUSH2 0x194 SWAP2 SWAP1 PUSH2 0x2EB0 JUMP JUMPDEST PUSH2 0x71E JUMP JUMPDEST PUSH1 0x40 MLOAD PUSH2 0x1A6 SWAP2 SWAP1 PUSH2 0x2E97 JUMP JUMPDEST PUSH1 0x40 MLOAD DUP1 SWAP2 SUB SWAP1 RETURN JUMPDEST PUSH2 0x1C9 PUSH1 0x4 DUP1 CALLDATASIZE SUB DUP2 ADD SWAP1 PUSH2 0x1C4 SWAP2 SWAP1 PUSH2 0x2EB0 JUMP JUMPDEST PUSH2 0x733 JUMP JUMPDEST STOP JUMPDEST PUSH2 0x1D3 PUSH2 0x938 JUMP JUMPDEST PUSH1 0x40 MLOAD PUSH2 0x1E0 SWAP2 SWAP1 PUSH2 0x2E97 JUMP JUMPDEST PUSH1 0x40 MLOAD DUP1 SWAP2 SUB SWAP1 RETURN JUMPDEST PUSH2 0x203 PUSH1 0x4 DUP1 CALLDATASIZE SUB DUP2 ADD SWAP1 PUSH2 0x1FE SWAP2 SWAP1 PUSH2 0x2EB0 JUMP JUMPDEST PUSH2 0x93E JUMP JUMPDEST STOP JUMPDEST PUSH2 0x21F PUSH1 0x4 DUP1 CALLDATASIZE SUB DUP2 ADD SWAP1 PUSH2 0x21A SWAP2 SWAP1 PUSH2 0x2F05 JUMP JUMPDEST PUSH2 0xB47 JUMP JUMPDEST PUSH1 0x40 MLOAD PUSH2 0x22C SWAP2 SWAP1 PUSH2 0x2F3F JUMP JUMPDEST PUSH1 0x40 MLOAD DUP1 SWAP2 SUB SWAP1 RETURN JUMPDEST PUSH2 0x23D PUSH2 0xB82 JUMP JUMPDEST PUSH1 0x40 MLOAD PUSH2 0x24A SWAP2 SWAP1 PUSH2 0x2FCB JUMP JUMPDEST PUSH1 0x40 MLOAD DUP1 SWAP2 SUB SWAP1 RETURN JUMPDEST PUSH2 0x26D PUSH1 0x4 DUP1 CALLDATASIZE SUB DUP2 ADD SWAP1 PUSH2 0x268 SWAP2 SWAP1 PUSH2 0x2E41 JUMP JUMPDEST PUSH2 0xC3F JUMP JUMPDEST PUSH1 0x40 MLOAD PUSH2 0x27A SWAP2 SWAP1 PUSH2 0x2E97 JUMP JUMPDEST PUSH1 0x40 MLOAD DUP1 SWAP2 SUB SWAP1 RETURN JUMPDEST PUSH2 0x29D PUSH1 0x4 DUP1 CALLDATASIZE SUB DUP2 ADD SWAP1 PUSH2 0x298 SWAP2 SWAP1 PUSH2 0x2E41 JUMP JUMPDEST PUSH2 0xC5F JUMP JUMPDEST PUSH1 0x40 MLOAD PUSH2 0x2AA SWAP2 SWAP1 PUSH2 0x2E97 JUMP JUMPDEST PUSH1 0x40 MLOAD DUP1 SWAP2 SUB SWAP1 RETURN JUMPDEST PUSH2 0x2CD PUSH1 0x4 DUP1 CALLDATASIZE SUB DUP2 ADD SWAP1 PUSH2 0x2C8 SWAP2 SWAP1 PUSH2 0x2EB0 JUMP JUMPDEST PUSH2 0xC7F JUMP JUMPDEST PUSH1 0x40 MLOAD PUSH2 0x2DA SWAP2 SWAP1 PUSH2 0x2E97 JUMP JUMPDEST PUSH1 0x40 MLOAD DUP1 SWAP2 SUB SWAP1 RETURN JUMPDEST PUSH2 0x2FD PUSH1 0x4 DUP1 CALLDATASIZE SUB DUP2 ADD SWAP1 PUSH2 0x2F8 SWAP2 SWAP1 PUSH2 0x2E41 JUMP JUMPDEST PUSH2 0xD8C JUMP JUMPDEST PUSH1 0x40 MLOAD PUSH2 0x30A SWAP2 SWAP1 PUSH2 0x2E97 JUMP JUMPDEST PUSH1 0x40 MLOAD DUP1 SWAP2 SUB SWAP1 RETURN JUMPDEST PUSH2 0x32D PUSH1 0x4 DUP1 CALLDATASIZE SUB DUP2 ADD SWAP1 PUSH2 0x328 SWAP2 SWAP1 PUSH2 0x2EB0 JUMP JUMPDEST PUSH2 0xF7A JUMP JUMPDEST PUSH1 0x40 MLOAD PUSH2 0x33A SWAP2 SWAP1 PUSH2 0x2E97 JUMP JUMPDEST PUSH1 0x40 MLOAD DUP1 SWAP2 SUB SWAP1 RETURN JUMPDEST PUSH2 0x35D PUSH1 0x4 DUP1 CALLDATASIZE SUB DUP2 ADD SWAP1 PUSH2 0x358 SWAP2 SWAP1 PUSH2 0x2FE4 JUMP JUMPDEST PUSH2 0xF8F JUMP JUMPDEST STOP JUMPDEST PUSH2 0x379 PUSH1 0x4 DUP1 CALLDATASIZE SUB DUP2 ADD SWAP1 PUSH2 0x374 SWAP2 SWAP1 PUSH2 0x2F05 JUMP JUMPDEST PUSH2 0x163A JUMP JUMPDEST STOP JUMPDEST PUSH2 0x395 PUSH1 0x4 DUP1 CALLDATASIZE SUB DUP2 ADD SWAP1 PUSH2 0x390 SWAP2 SWAP1 PUSH2 0x3022 JUMP JUMPDEST PUSH2 0x175B JUMP JUMPDEST STOP JUMPDEST PUSH2 0x3B1 PUSH1 0x4 DUP1 CALLDATASIZE SUB DUP2 ADD SWAP1 PUSH2 0x3AC SWAP2 SWAP1 PUSH2 0x2EB0 JUMP JUMPDEST PUSH2 0x1A32 JUMP JUMPDEST STOP JUMPDEST PUSH2 0x3CD PUSH1 0x4 DUP1 CALLDATASIZE SUB DUP2 ADD SWAP1 PUSH2 0x3C8 SWAP2 SWAP1 PUSH2 0x2FE4 JUMP JUMPDEST PUSH2 0x1C35 JUMP JUMPDEST STOP JUMPDEST PUSH2 0x3E9 PUSH1 0x4 DUP1 CALLDATASIZE SUB DUP2 ADD SWAP1 PUSH2 0x3E4 SWAP2 SWAP1 PUSH2 0x30D3 JUMP JUMPDEST PUSH2 0x2227 JUMP JUMPDEST STOP JUMPDEST PUSH2 0x405 PUSH1 0x4 DUP1 CALLDATASIZE SUB DUP2 ADD SWAP1 PUSH2 0x400 SWAP2 SWAP1 PUSH2 0x2EB0 JUMP JUMPDEST PUSH2 0x24B9 JUMP JUMPDEST PUSH1 0x40 MLOAD PUSH2 0x412 SWAP2 SWAP1 PUSH2 0x2E97 JUMP JUMPDEST PUSH1 0x40 MLOAD DUP1 SWAP2 SUB SWAP1 RETURN JUMPDEST PUSH2 0x435 PUSH1 0x4 DUP1 CALLDATASIZE SUB DUP2 ADD SWAP1 PUSH2 0x430 SWAP2 SWAP1 PUSH2 0x2EB0 JUMP JUMPDEST PUSH2 0x24CE JUMP JUMPDEST STOP JUMPDEST PUSH2 0x451 PUSH1 0x4 DUP1 CALLDATASIZE SUB DUP2 ADD SWAP1 PUSH2 0x44C SWAP2 SWAP1 PUSH2 0x2EB0 JUMP JUMPDEST PUSH2 0x2A1F JUMP JUMPDEST PUSH1 0x40 MLOAD PUSH2 0x45F SWAP3 SWAP2 SWAP1 PUSH2 0x31D4 JUMP JUMPDEST PUSH1 0x40 MLOAD DUP1 SWAP2 SUB SWAP1 RETURN JUMPDEST PUSH2 0x482 PUSH1 0x4 DUP1 CALLDATASIZE SUB DUP2 ADD SWAP1 PUSH2 0x47D SWAP2 SWAP1 PUSH2 0x2E41 JUMP JUMPDEST PUSH2 0x2AD1 JUMP JUMPDEST PUSH1 0x40 MLOAD PUSH2 0x48F SWAP2 SWAP1 PUSH2 0x2E97 JUMP JUMPDEST PUSH1 0x40 MLOAD DUP1 SWAP2 SUB SWAP1 RETURN JUMPDEST PUSH2 0x4B2 PUSH1 0x4 DUP1 CALLDATASIZE SUB DUP2 ADD SWAP1 PUSH2 0x4AD SWAP2 SWAP1 PUSH2 0x2EB0 JUMP JUMPDEST PUSH2 0x2AF1 JUMP JUMPDEST PUSH1 0x40 MLOAD PUSH2 0x4BF SWAP2 SWAP1 PUSH2 0x2E97 JUMP JUMPDEST PUSH1 0x40 MLOAD DUP1 SWAP2 SUB SWAP1 RETURN JUMPDEST PUSH0 PUSH1 0x3 PUSH0 DUP5 PUSH20 0xFFFFFFFFFFFFFFFFFFFFFFFFFFFFFFFFFFFFFFFF AND PUSH20 0xFFFFFFFFFFFFFFFFFFFFFFFFFFFFFFFFFFFFFFFF AND DUP2 MSTORE PUSH1 0x20 ADD SWAP1 DUP2 MSTORE PUSH1 0x20 ADD PUSH0 KECCAK256 PUSH1 0x1 ADD PUSH0 SWAP1 SLOAD SWAP1 PUSH2 0x100 EXP SWAP1 DIV PUSH1 0xFF AND PUSH2 0x555 JUMPI PUSH1 0x40 MLOAD PUSH32 0x8C379A000000000000000000000000000000000000000000000000000000000 DUP2 MSTORE PUSH1 0x4 ADD PUSH2 0x54C SWAP1 PUSH2 0x324C JUMP JUMPDEST PUSH1 0x40 MLOAD DUP1 SWAP2 SUB SWAP1 REVERT JUMPDEST PUSH2 0x716 PUSH1 0x6 PUSH0 DUP6 PUSH20 0xFFFFFFFFFFFFFFFFFFFFFFFFFFFFFFFFFFFFFFFF AND PUSH20 0xFFFFFFFFFFFFFFFFFFFFFFFFFFFFFFFFFFFFFFFF AND DUP2 MSTORE PUSH1 0x20 ADD SWAP1 DUP2 MSTORE PUSH1 0x20 ADD PUSH0 KECCAK256 PUSH0 DUP5 PUSH20 0xFFFFFFFFFFFFFFFFFFFFFFFFFFFFFFFFFFFFFFFF AND PUSH20 0xFFFFFFFFFFFFFFFFFFFFFFFFFFFFFFFFFFFFFFFF AND DUP2 MSTORE PUSH1 0x20 ADD SWAP1 DUP2 MSTORE PUSH1 0x20 ADD PUSH0 KECCAK256 SLOAD PUSH2 0x708 PUSH8 0xDE0B6B3A7640000 PUSH2 0x6FA PUSH2 0x673 PUSH1 0x7 PUSH0 DUP11 PUSH20 0xFFFFFFFFFFFFFFFFFFFFFFFFFFFFFFFFFFFFFFFF AND PUSH20 0xFFFFFFFFFFFFFFFFFFFFFFFFFFFFFFFFFFFFFFFF AND DUP2 MSTORE PUSH1 0x20 ADD SWAP1 DUP2 MSTORE PUSH1 0x20 ADD PUSH0 KECCAK256 PUSH0 DUP10 PUSH20 0xFFFFFFFFFFFFFFFFFFFFFFFFFFFFFFFFFFFFFFFF AND PUSH20 0xFFFFFFFFFFFFFFFFFFFFFFFFFFFFFFFFFFFFFFFF AND DUP2 MSTORE PUSH1 0x20 ADD SWAP1 DUP2 MSTORE PUSH1 0x20 ADD PUSH0 KECCAK256 SLOAD PUSH2 0x665 DUP11 PUSH2 0x2AF1 JUMP JUMPDEST PUSH2 0x2D35 SWAP1 SWAP2 SWAP1 PUSH4 0xFFFFFFFF AND JUMP JUMPDEST PUSH1 0x5 PUSH0 DUP11 PUSH20 0xFFFFFFFFFFFFFFFFFFFFFFFFFFFFFFFFFFFFFFFF AND PUSH20 0xFFFFFFFFFFFFFFFFFFFFFFFFFFFFFFFFFFFFFFFF AND DUP2 MSTORE PUSH1 0x20 ADD SWAP1 DUP2 MSTORE PUSH1 0x20 ADD PUSH0 KECCAK256 PUSH0 DUP10 PUSH20 0xFFFFFFFFFFFFFFFFFFFFFFFFFFFFFFFFFFFFFFFF AND PUSH20 0xFFFFFFFFFFFFFFFFFFFFFFFFFFFFFFFFFFFFFFFF AND DUP2 MSTORE PUSH1 0x20 ADD SWAP1 DUP2 MSTORE PUSH1 0x20 ADD PUSH0 KECCAK256 SLOAD PUSH2 0x2D4A SWAP1 SWAP2 SWAP1 PUSH4 0xFFFFFFFF AND JUMP JUMPDEST PUSH2 0x2D5F SWAP1 SWAP2 SWAP1 PUSH4 0xFFFFFFFF AND JUMP JUMPDEST PUSH2 0x2D74 SWAP1 SWAP2 SWAP1 PUSH4 0xFFFFFFFF AND JUMP JUMPDEST SWAP1 POP SWAP3 SWAP2 POP POP JUMP JUMPDEST PUSH1 0x9 PUSH1 0x20 MSTORE DUP1 PUSH0 MSTORE PUSH1 0x40 PUSH0 KECCAK256 PUSH0 SWAP2 POP SWAP1 POP SLOAD DUP2 JUMP JUMPDEST PUSH1 0xB PUSH0 CALLER PUSH20 0xFFFFFFFFFFFFFFFFFFFFFFFFFFFFFFFFFFFFFFFF AND PUSH20 0xFFFFFFFFFFFFFFFFFFFFFFFFFFFFFFFFFFFFFFFF AND DUP2 MSTORE PUSH1 0x20 ADD SWAP1 DUP2 MSTORE PUSH1 0x20 ADD PUSH0 KECCAK256 PUSH0 SWAP1 SLOAD SWAP1 PUSH2 0x100 EXP SWAP1 DIV PUSH1 0xFF AND DUP1 PUSH2 0x7D4 JUMPI POP CALLER PUSH20 0xFFFFFFFFFFFFFFFFFFFFFFFFFFFFFFFFFFFFFFFF AND PUSH1 0x1 PUSH0 SWAP1 SLOAD SWAP1 PUSH2 0x100 EXP SWAP1 DIV PUSH20 0xFFFFFFFFFFFFFFFFFFFFFFFFFFFFFFFFFFFFFFFF AND PUSH20 0xFFFFFFFFFFFFFFFFFFFFFFFFFFFFFFFFFFFFFFFF AND EQ JUMPDEST PUSH2 0x813 JUMPI PUSH1 0x40 MLOAD PUSH32 0x8C379A000000000000000000000000000000000000000000000000000000000 DUP2 MSTORE PUSH1 0x4 ADD PUSH2 0x80A SWAP1 PUSH2 0x32B4 JUMP JUMPDEST PUSH1 0x40 MLOAD DUP1 SWAP2 SUB SWAP1 REVERT JUMPDEST PUSH1 0xB PUSH0 DUP3 PUSH20 0xFFFFFFFFFFFFFFFFFFFFFFFFFFFFFFFFFFFFFFFF AND PUSH20 0xFFFFFFFFFFFFFFFFFFFFFFFFFFFFFFFFFFFFFFFF AND DUP2 MSTORE PUSH1 0x20 ADD SWAP1 DUP2 MSTORE PUSH1 0x20 ADD PUSH0 KECCAK256 PUSH0 SWAP1 SLOAD SWAP1 PUSH2 0x100 EXP SWAP1 DIV PUSH1 0xFF AND ISZERO PUSH2 0x89D JUMPI PUSH1 0x40 MLOAD PUSH32 0x8C379A000000000000000000000000000000000000000000000000000000000 DUP2 MSTORE PUSH1 0x4 ADD PUSH2 0x894 SWAP1 PUSH2 0x331C JUMP JUMPDEST PUSH1 0x40 MLOAD DUP1 SWAP2 SUB SWAP1 REVERT JUMPDEST PUSH1 0x1 PUSH1 0xB PUSH0 DUP4 PUSH20 0xFFFFFFFFFFFFFFFFFFFFFFFFFFFFFFFFFFFFFFFF AND PUSH20 0xFFFFFFFFFFFFFFFFFFFFFFFFFFFFFFFFFFFFFFFF AND DUP2 MSTORE PUSH1 0x20 ADD SWAP1 DUP2 MSTORE PUSH1 0x20 ADD PUSH0 KECCAK256 PUSH0 PUSH2 0x100 EXP DUP2 SLOAD DUP2 PUSH1 0xFF MUL NOT AND SWAP1 DUP4 ISZERO ISZERO MUL OR SWAP1 SSTORE POP DUP1 PUSH20 0xFFFFFFFFFFFFFFFFFFFFFFFFFFFFFFFFFFFFFFFF AND PUSH32 0x3B4A40CCCF2058C593542587329DD385BE4F0B588DB5471FBD9598E56DD7093A PUSH1 0x40 MLOAD PUSH1 0x40 MLOAD DUP1 SWAP2 SUB SWAP1 LOG2 POP JUMP JUMPDEST PUSH1 0x2 SLOAD DUP2 JUMP JUMPDEST PUSH1 0xB PUSH0 CALLER PUSH20 0xFFFFFFFFFFFFFFFFFFFFFFFFFFFFFFFFFFFFFFFF AND PUSH20 0xFFFFFFFFFFFFFFFFFFFFFFFFFFFFFFFFFFFFFFFF AND DUP2 MSTORE PUSH1 0x20 ADD SWAP1 DUP2 MSTORE PUSH1 0x20 ADD PUSH0 KECCAK256 PUSH0 SWAP1 SLOAD SWAP1 PUSH2 0x100 EXP SWAP1 DIV PUSH1 0xFF AND DUP1 PUSH2 0x9DF JUMPI POP CALLER PUSH20 0xFFFFFFFFFFFFFFFFFFFFFFFFFFFFFFFFFFFFFFFF AND PUSH1 0x1 PUSH0 SWAP1 SLOAD SWAP1 PUSH2 0x100 EXP SWAP1 DIV PUSH20 0xFFFFFFFFFFFFFFFFFFFFFFFFFFFFFFFFFFFFFFFF AND PUSH20 0xFFFFFFFFFFFFFFFFFFFFFFFFFFFFFFFFFFFFFFFF AND EQ JUMPDEST PUSH2 0xA1E JUMPI PUSH1 0x40 MLOAD PUSH32 0x8C379A000000000000000000000000000000000000000000000000000000000 DUP2 MSTORE PUSH1 0x4 ADD PUSH2 0xA15 SWAP1 PUSH2 0x32B4 JUMP JUMPDEST PUSH1 0x40 MLOAD DUP1 SWAP2 SUB SWAP1 REVERT JUMPDEST PUSH1 0x3 PUSH0 DUP3 PUSH20 0xFFFFFFFFFFFFFFFFFFFFFFFFFFFFFFFFFFFFFFFF AND PUSH20 0xFFFFFFFFFFFFFFFFFFFFFFFFFFFFFFFFFFFFFFFF AND DUP2 MSTORE PUSH1 0x20 ADD SWAP1 DUP2 MSTORE PUSH1 0x20 ADD PUSH0 KECCAK256 PUSH1 0x1 ADD PUSH0 SWAP1 SLOAD SWAP1 PUSH2 0x100 EXP SWAP1 DIV PUSH1 0xFF AND PUSH2 0xAAA JUMPI PUSH1 0x40 MLOAD PUSH32 0x8C379A000000000000000000000000000000000000000000000000000000000 DUP2 MSTORE PUSH1 0x4 ADD PUSH2 0xAA1 SWAP1 PUSH2 0x3384 JUMP JUMPDEST PUSH1 0x40 MLOAD DUP1 SWAP2 SUB SWAP1 REVERT JUMPDEST PUSH0 PUSH1 0x3 PUSH0 DUP4 PUSH20 0xFFFFFFFFFFFFFFFFFFFFFFFFFFFFFFFFFFFFFFFF AND PUSH20 0xFFFFFFFFFFFFFFFFFFFFFFFFFFFFFFFFFFFFFFFF AND DUP2 MSTORE PUSH1 0x20 ADD SWAP1 DUP2 MSTORE PUSH1 0x20 ADD PUSH0 KECCAK256 PUSH1 0x1 ADD PUSH0 PUSH2 0x100 EXP DUP2 SLOAD DUP2 PUSH1 0xFF MUL NOT AND SWAP1 DUP4 ISZERO ISZERO MUL OR SWAP1 SSTORE POP DUP1 PUSH20 0xFFFFFFFFFFFFFFFFFFFFFFFFFFFFFFFFFFFFFFFF AND PUSH32 0x4C910B69FE65A61F7531B9C5042B2329CA7179C77290AA7E2EB3AFA3C8511FD3 PUSH1 0x40 MLOAD PUSH1 0x40 MLOAD DUP1 SWAP2 SUB SWAP1 LOG2 POP JUMP JUMPDEST PUSH1 0x4 DUP2 DUP2 SLOAD DUP2 LT PUSH2 0xB56 JUMPI PUSH0 DUP1 REVERT JUMPDEST SWAP1 PUSH0 MSTORE PUSH1 0x20 PUSH0 KECCAK256 ADD PUSH0 SWAP2 POP SLOAD SWAP1 PUSH2 0x100 EXP SWAP1 DIV PUSH20 0xFFFFFFFFFFFFFFFFFFFFFFFFFFFFFFFFFFFFFFFF AND DUP2 JUMP JUMPDEST PUSH0 PUSH1 0x1 PUSH0 SWAP1 SLOAD SWAP1 PUSH2 0x100 EXP SWAP1 DIV PUSH20 0xFFFFFFFFFFFFFFFFFFFFFFFFFFFFFFFFFFFFFFFF AND PUSH20 0xFFFFFFFFFFFFFFFFFFFFFFFFFFFFFFFFFFFFFFFF AND CALLER PUSH20 0xFFFFFFFFFFFFFFFFFFFFFFFFFFFFFFFFFFFFFFFF AND SUB PUSH2 0xBE0 JUMPI PUSH1 0x1 SWAP1 POP PUSH2 0xC3C JUMP JUMPDEST PUSH1 0xB PUSH0 CALLER PUSH20 0xFFFFFFFFFFFFFFFFFFFFFFFFFFFFFFFFFFFFFFFF AND PUSH20 0xFFFFFFFFFFFFFFFFFFFFFFFFFFFFFFFFFFFFFFFF AND DUP2 MSTORE PUSH1 0x20 ADD SWAP1 DUP2 MSTORE PUSH1 0x20 ADD PUSH0 KECCAK256 PUSH0 SWAP1 SLOAD SWAP1 PUSH2 0x100 EXP SWAP1 DIV PUSH1 0xFF AND ISZERO PUSH2 0xC38 JUMPI PUSH1 0x2 SWAP1 POP PUSH2 0xC3C JUMP JUMPDEST PUSH0 SWAP1 POP JUMPDEST SWAP1 JUMP JUMPDEST PUSH1 0x7 PUSH1 0x20 MSTORE DUP2 PUSH0 MSTORE PUSH1 0x40 PUSH0 KECCAK256 PUSH1 0x20 MSTORE DUP1 PUSH0 MSTORE PUSH1 0x40 PUSH0 KECCAK256 PUSH0 SWAP2 POP SWAP2 POP POP SLOAD DUP2 JUMP JUMPDEST PUSH1 0x5 PUSH1 0x20 MSTORE DUP2 PUSH0 MSTORE PUSH1 0x40 PUSH0 KECCAK256 PUSH1 0x20 MSTORE DUP1 PUSH0 MSTORE PUSH1 0x40 PUSH0 KECCAK256 PUSH0 SWAP2 POP SWAP2 POP POP SLOAD DUP2 JUMP JUMPDEST PUSH0 PUSH1 0x3 PUSH0 DUP4 PUSH20 0xFFFFFFFFFFFFFFFFFFFFFFFFFFFFFFFFFFFFFFFF AND PUSH20 0xFFFFFFFFFFFFFFFFFFFFFFFFFFFFFFFFFFFFFFFF AND DUP2 MSTORE PUSH1 0x20 ADD SWAP1 DUP2 MSTORE PUSH1 0x20 ADD PUSH0 KECCAK256 PUSH1 0x1 ADD PUSH0 SWAP1 SLOAD SWAP1 PUSH2 0x100 EXP SWAP1 DIV PUSH1 0xFF AND PUSH2 0xD0C JUMPI PUSH1 0x40 MLOAD PUSH32 0x8C379A000000000000000000000000000000000000000000000000000000000 DUP2 MSTORE PUSH1 0x4 ADD PUSH2 0xD03 SWAP1 PUSH2 0x324C JUMP JUMPDEST PUSH1 0x40 MLOAD DUP1 SWAP2 SUB SWAP1 REVERT JUMPDEST PUSH1 0x5 PUSH0 DUP4 PUSH20 0xFFFFFFFFFFFFFFFFFFFFFFFFFFFFFFFFFFFFFFFF AND PUSH20 0xFFFFFFFFFFFFFFFFFFFFFFFFFFFFFFFFFFFFFFFF AND DUP2 MSTORE PUSH1 0x20 ADD SWAP1 DUP2 MSTORE PUSH1 0x20 ADD PUSH0 KECCAK256 PUSH0 CALLER PUSH20 0xFFFFFFFFFFFFFFFFFFFFFFFFFFFFFFFFFFFFFFFF AND PUSH20 0xFFFFFFFFFFFFFFFFFFFFFFFFFFFFFFFFFFFFFFFF AND DUP2 MSTORE PUSH1 0x20 ADD SWAP1 DUP2 MSTORE PUSH1 0x20 ADD PUSH0 KECCAK256 SLOAD SWAP1 POP SWAP2 SWAP1 POP JUMP JUMPDEST PUSH0 PUSH1 0xB PUSH0 CALLER PUSH20 0xFFFFFFFFFFFFFFFFFFFFFFFFFFFFFFFFFFFFFFFF AND PUSH20 0xFFFFFFFFFFFFFFFFFFFFFFFFFFFFFFFFFFFFFFFF AND DUP2 MSTORE PUSH1 0x20 ADD SWAP1 DUP2 MSTORE PUSH1 0x20 ADD PUSH0 KECCAK256 PUSH0 SWAP1 SLOAD SWAP1 PUSH2 0x100 EXP SWAP1 DIV PUSH1 0xFF AND DUP1 PUSH2 0xE2E JUMPI POP CALLER PUSH20 0xFFFFFFFFFFFFFFFFFFFFFFFFFFFFFFFFFFFFFFFF AND PUSH1 0x1 PUSH0 SWAP1 SLOAD SWAP1 PUSH2 0x100 EXP SWAP1 DIV PUSH20 0xFFFFFFFFFFFFFFFFFFFFFFFFFFFFFFFFFFFFFFFF AND PUSH20 0xFFFFFFFFFFFFFFFFFFFFFFFFFFFFFFFFFFFFFFFF AND EQ JUMPDEST PUSH2 0xE6D JUMPI PUSH1 0x40 MLOAD PUSH32 0x8C379A000000000000000000000000000000000000000000000000000000000 DUP2 MSTORE PUSH1 0x4 ADD PUSH2 0xE64 SWAP1 PUSH2 0x32B4 JUMP JUMPDEST PUSH1 0x40 MLOAD DUP1 SWAP2 SUB SWAP1 REVERT JUMPDEST PUSH1 0x3 PUSH0 DUP5 PUSH20 0xFFFFFFFFFFFFFFFFFFFFFFFFFFFFFFFFFFFFFFFF AND PUSH20 0xFFFFFFFFFFFFFFFFFFFFFFFFFFFFFFFFFFFFFFFF AND DUP2 MSTORE PUSH1 0x20 ADD SWAP1 DUP2 MSTORE PUSH1 0x20 ADD PUSH0 KECCAK256 PUSH1 0x1 ADD PUSH0 SWAP1 SLOAD SWAP1 PUSH2 0x100 EXP SWAP1 DIV PUSH1 0xFF AND PUSH2 0xEF9 JUMPI PUSH1 0x40 MLOAD PUSH32 0x8C379A000000000000000000000000000000000000000000000000000000000 DUP2 MSTORE PUSH1 0x4 ADD PUSH2 0xEF0 SWAP1 PUSH2 0x324C JUMP JUMPDEST PUSH1 0x40 MLOAD DUP1 SWAP2 SUB SWAP1 REVERT JUMPDEST PUSH1 0x5 PUSH0 DUP5 PUSH20 0xFFFFFFFFFFFFFFFFFFFFFFFFFFFFFFFFFFFFFFFF AND PUSH20 0xFFFFFFFFFFFFFFFFFFFFFFFFFFFFFFFFFFFFFFFF AND DUP2 MSTORE PUSH1 0x20 ADD SWAP1 DUP2 MSTORE PUSH1 0x20 ADD PUSH0 KECCAK256 PUSH0 DUP4 PUSH20 0xFFFFFFFFFFFFFFFFFFFFFFFFFFFFFFFFFFFFFFFF AND PUSH20 0xFFFFFFFFFFFFFFFFFFFFFFFFFFFFFFFFFFFFFFFF AND DUP2 MSTORE PUSH1 0x20 ADD SWAP1 DUP2 MSTORE PUSH1 0x20 ADD PUSH0 KECCAK256 SLOAD SWAP1 POP SWAP3 SWAP2 POP POP JUMP JUMPDEST PUSH1 0x8 PUSH1 0x20 MSTORE DUP1 PUSH0 MSTORE PUSH1 0x40 PUSH0 KECCAK256 PUSH0 SWAP2 POP SWAP1 POP SLOAD DUP2 JUMP JUMPDEST PUSH2 0xF97 PUSH2 0x2D89 JUMP JUMPDEST DUP2 CALLER PUSH1 0x3 PUSH0 DUP4 PUSH20 0xFFFFFFFFFFFFFFFFFFFFFFFFFFFFFFFFFFFFFFFF AND PUSH20 0xFFFFFFFFFFFFFFFFFFFFFFFFFFFFFFFFFFFFFFFF AND DUP2 MSTORE PUSH1 0x20 ADD SWAP1 DUP2 MSTORE PUSH1 0x20 ADD PUSH0 KECCAK256 PUSH1 0x1 ADD PUSH0 SWAP1 SLOAD SWAP1 PUSH2 0x100 EXP SWAP1 DIV PUSH1 0xFF AND PUSH2 0x1025 JUMPI PUSH1 0x40 MLOAD PUSH32 0x8C379A000000000000000000000000000000000000000000000000000000000 DUP2 MSTORE PUSH1 0x4 ADD PUSH2 0x101C SWAP1 PUSH2 0x324C JUMP JUMPDEST PUSH1 0x40 MLOAD DUP1 SWAP2 SUB SWAP1 REVERT JUMPDEST PUSH2 0x102E DUP3 PUSH2 0x2AF1 JUMP JUMPDEST PUSH1 0x8 PUSH0 DUP5 PUSH20 0xFFFFFFFFFFFFFFFFFFFFFFFFFFFFFFFFFFFFFFFF AND PUSH20 0xFFFFFFFFFFFFFFFFFFFFFFFFFFFFFFFFFFFFFFFF AND DUP2 MSTORE PUSH1 0x20 ADD SWAP1 DUP2 MSTORE PUSH1 0x20 ADD PUSH0 KECCAK256 DUP2 SWAP1 SSTORE POP TIMESTAMP PUSH1 0x9 PUSH0 DUP5 PUSH20 0xFFFFFFFFFFFFFFFFFFFFFFFFFFFFFFFFFFFFFFFF AND PUSH20 0xFFFFFFFFFFFFFFFFFFFFFFFFFFFFFFFFFFFFFFFF AND DUP2 MSTORE PUSH1 0x20 ADD SWAP1 DUP2 MSTORE PUSH1 0x20 ADD PUSH0 KECCAK256 DUP2 SWAP1 SSTORE POP PUSH2 0x10BB DUP3 DUP3 PUSH2 0x4C8 JUMP JUMPDEST PUSH1 0x6 PUSH0 DUP5 PUSH20 0xFFFFFFFFFFFFFFFFFFFFFFFFFFFFFFFFFFFFFFFF AND PUSH20 0xFFFFFFFFFFFFFFFFFFFFFFFFFFFFFFFFFFFFFFFF AND DUP2 MSTORE PUSH1 0x20 ADD SWAP1 DUP2 MSTORE PUSH1 0x20 ADD PUSH0 KECCAK256 PUSH0 DUP4 PUSH20 0xFFFFFFFFFFFFFFFFFFFFFFFFFFFFFFFFFFFFFFFF AND PUSH20 0xFFFFFFFFFFFFFFFFFFFFFFFFFFFFFFFFFFFFFFFF AND DUP2 MSTORE PUSH1 0x20 ADD SWAP1 DUP2 MSTORE PUSH1 0x20 ADD PUSH0 KECCAK256 DUP2 SWAP1 SSTORE POP PUSH1 0x8 PUSH0 DUP4 PUSH20 0xFFFFFFFFFFFFFFFFFFFFFFFFFFFFFFFFFFFFFFFF AND PUSH20 0xFFFFFFFFFFFFFFFFFFFFFFFFFFFFFFFFFFFFFFFF AND DUP2 MSTORE PUSH1 0x20 ADD SWAP1 DUP2 MSTORE PUSH1 0x20 ADD PUSH0 KECCAK256 SLOAD PUSH1 0x7 PUSH0 DUP5 PUSH20 0xFFFFFFFFFFFFFFFFFFFFFFFFFFFFFFFFFFFFFFFF AND PUSH20 0xFFFFFFFFFFFFFFFFFFFFFFFFFFFFFFFFFFFFFFFF AND DUP2 MSTORE PUSH1 0x20 ADD SWAP1 DUP2 MSTORE PUSH1 0x20 ADD PUSH0 KECCAK256 PUSH0 DUP4 PUSH20 0xFFFFFFFFFFFFFFFFFFFFFFFFFFFFFFFFFFFFFFFF AND PUSH20 0xFFFFFFFFFFFFFFFFFFFFFFFFFFFFFFFFFFFFFFFF AND DUP2 MSTORE PUSH1 0x20 ADD SWAP1 DUP2 MSTORE PUSH1 0x20 ADD PUSH0 KECCAK256 DUP2 SWAP1 SSTORE POP PUSH1 0x3 PUSH0 DUP6 PUSH20 0xFFFFFFFFFFFFFFFFFFFFFFFFFFFFFFFFFFFFFFFF AND PUSH20 0xFFFFFFFFFFFFFFFFFFFFFFFFFFFFFFFFFFFFFFFF AND DUP2 MSTORE PUSH1 0x20 ADD SWAP1 DUP2 MSTORE PUSH1 0x20 ADD PUSH0 KECCAK256 PUSH1 0x1 ADD PUSH0 SWAP1 SLOAD SWAP1 PUSH2 0x100 EXP SWAP1 DIV PUSH1 0xFF AND PUSH2 0x127D JUMPI PUSH1 0x40 MLOAD PUSH32 0x8C379A000000000000000000000000000000000000000000000000000000000 DUP2 MSTORE PUSH1 0x4 ADD PUSH2 0x1274 SWAP1 PUSH2 0x324C JUMP JUMPDEST PUSH1 0x40 MLOAD DUP1 SWAP2 SUB SWAP1 REVERT JUMPDEST PUSH0 DUP4 GT PUSH2 0x12BF JUMPI PUSH1 0x40 MLOAD PUSH32 0x8C379A000000000000000000000000000000000000000000000000000000000 DUP2 MSTORE PUSH1 0x4 ADD PUSH2 0x12B6 SWAP1 PUSH2 0x33EC JUMP JUMPDEST PUSH1 0x40 MLOAD DUP1 SWAP2 SUB SWAP1 REVERT JUMPDEST DUP3 PUSH1 0x5 PUSH0 DUP7 PUSH20 0xFFFFFFFFFFFFFFFFFFFFFFFFFFFFFFFFFFFFFFFF AND PUSH20 0xFFFFFFFFFFFFFFFFFFFFFFFFFFFFFFFFFFFFFFFF AND DUP2 MSTORE PUSH1 0x20 ADD SWAP1 DUP2 MSTORE PUSH1 0x20 ADD PUSH0 KECCAK256 PUSH0 CALLER PUSH20 0xFFFFFFFFFFFFFFFFFFFFFFFFFFFFFFFFFFFFFFFF AND PUSH20 0xFFFFFFFFFFFFFFFFFFFFFFFFFFFFFFFFFFFFFFFF AND DUP2 MSTORE PUSH1 0x20 ADD SWAP1 DUP2 MSTORE PUSH1 0x20 ADD PUSH0 KECCAK256 SLOAD LT ISZERO PUSH2 0x137A JUMPI PUSH1 0x40 MLOAD PUSH32 0x8C379A000000000000000000000000000000000000000000000000000000000 DUP2 MSTORE PUSH1 0x4 ADD PUSH2 0x1371 SWAP1 PUSH2 0x3454 JUMP JUMPDEST PUSH1 0x40 MLOAD DUP1 SWAP2 SUB SWAP1 REVERT JUMPDEST PUSH2 0x13CA DUP4 PUSH1 0xA PUSH0 DUP8 PUSH20 0xFFFFFFFFFFFFFFFFFFFFFFFFFFFFFFFFFFFFFFFF AND PUSH20 0xFFFFFFFFFFFFFFFFFFFFFFFFFFFFFFFFFFFFFFFF AND DUP2 MSTORE PUSH1 0x20 ADD SWAP1 DUP2 MSTORE PUSH1 0x20 ADD PUSH0 KECCAK256 SLOAD PUSH2 0x2D35 SWAP1 SWAP2 SWAP1 PUSH4 0xFFFFFFFF AND JUMP JUMPDEST PUSH1 0xA PUSH0 DUP7 PUSH20 0xFFFFFFFFFFFFFFFFFFFFFFFFFFFFFFFFFFFFFFFF AND PUSH20 0xFFFFFFFFFFFFFFFFFFFFFFFFFFFFFFFFFFFFFFFF AND DUP2 MSTORE PUSH1 0x20 ADD SWAP1 DUP2 MSTORE PUSH1 0x20 ADD PUSH0 KECCAK256 DUP2 SWAP1 SSTORE POP PUSH2 0x1496 DUP4 PUSH1 0x5 PUSH0 DUP8 PUSH20 0xFFFFFFFFFFFFFFFFFFFFFFFFFFFFFFFFFFFFFFFF AND PUSH20 0xFFFFFFFFFFFFFFFFFFFFFFFFFFFFFFFFFFFFFFFF AND DUP2 MSTORE PUSH1 0x20 ADD SWAP1 DUP2 MSTORE PUSH1 0x20 ADD PUSH0 KECCAK256 PUSH0 CALLER PUSH20 0xFFFFFFFFFFFFFFFFFFFFFFFFFFFFFFFFFFFFFFFF AND PUSH20 0xFFFFFFFFFFFFFFFFFFFFFFFFFFFFFFFFFFFFFFFF AND DUP2 MSTORE PUSH1 0x20 ADD SWAP1 DUP2 MSTORE PUSH1 0x20 ADD PUSH0 KECCAK256 SLOAD PUSH2 0x2D35 SWAP1 SWAP2 SWAP1 PUSH4 0xFFFFFFFF AND JUMP JUMPDEST PUSH1 0x5 PUSH0 DUP7 PUSH20 0xFFFFFFFFFFFFFFFFFFFFFFFFFFFFFFFFFFFFFFFF AND PUSH20 0xFFFFFFFFFFFFFFFFFFFFFFFFFFFFFFFFFFFFFFFF AND DUP2 MSTORE PUSH1 0x20 ADD SWAP1 DUP2 MSTORE PUSH1 0x20 ADD PUSH0 KECCAK256 PUSH0 CALLER PUSH20 0xFFFFFFFFFFFFFFFFFFFFFFFFFFFFFFFFFFFFFFFF AND PUSH20 0xFFFFFFFFFFFFFFFFFFFFFFFFFFFFFFFFFFFFFFFF AND DUP2 MSTORE PUSH1 0x20 ADD SWAP1 DUP2 MSTORE PUSH1 0x20 ADD PUSH0 KECCAK256 DUP2 SWAP1 SSTORE POP DUP3 DUP5 PUSH20 0xFFFFFFFFFFFFFFFFFFFFFFFFFFFFFFFFFFFFFFFF AND CALLER PUSH20 0xFFFFFFFFFFFFFFFFFFFFFFFFFFFFFFFFFFFFFFFF AND PUSH32 0xD1C19FBCD4551A5EDFB66D43D2E337C04837AFDA3482B42BDF569A8FCCDAE5FB PUSH1 0x40 MLOAD PUSH1 0x40 MLOAD DUP1 SWAP2 SUB SWAP1 LOG4 PUSH0 DUP5 PUSH20 0xFFFFFFFFFFFFFFFFFFFFFFFFFFFFFFFFFFFFFFFF AND PUSH4 0xA9059CBB CALLER DUP7 PUSH1 0x40 MLOAD DUP4 PUSH4 0xFFFFFFFF AND PUSH1 0xE0 SHL DUP2 MSTORE PUSH1 0x4 ADD PUSH2 0x15A9 SWAP3 SWAP2 SWAP1 PUSH2 0x3472 JUMP JUMPDEST PUSH1 0x20 PUSH1 0x40 MLOAD DUP1 DUP4 SUB DUP2 PUSH0 DUP8 GAS CALL ISZERO DUP1 ISZERO PUSH2 0x15C5 JUMPI RETURNDATASIZE PUSH0 DUP1 RETURNDATACOPY RETURNDATASIZE PUSH0 REVERT JUMPDEST POP POP POP POP PUSH1 0x40 MLOAD RETURNDATASIZE PUSH1 0x1F NOT PUSH1 0x1F DUP3 ADD AND DUP3 ADD DUP1 PUSH1 0x40 MSTORE POP DUP2 ADD SWAP1 PUSH2 0x15E9 SWAP2 SWAP1 PUSH2 0x34C3 JUMP JUMPDEST SWAP1 POP DUP1 PUSH2 0x162B JUMPI PUSH1 0x40 MLOAD PUSH32 0x8C379A000000000000000000000000000000000000000000000000000000000 DUP2 MSTORE PUSH1 0x4 ADD PUSH2 0x1622 SWAP1 PUSH2 0x3538 JUMP JUMPDEST PUSH1 0x40 MLOAD DUP1 SWAP2 SUB SWAP1 REVERT JUMPDEST POP POP POP PUSH2 0x1636 PUSH2 0x2DD6 JUMP JUMPDEST POP POP JUMP JUMPDEST PUSH1 0xB PUSH0 CALLER PUSH20 0xFFFFFFFFFFFFFFFFFFFFFFFFFFFFFFFFFFFFFFFF AND PUSH20 0xFFFFFFFFFFFFFFFFFFFFFFFFFFFFFFFFFFFFFFFF AND DUP2 MSTORE PUSH1 0x20 ADD SWAP1 DUP2 MSTORE PUSH1 0x20 ADD PUSH0 KECCAK256 PUSH0 SWAP1 SLOAD SWAP1 PUSH2 0x100 EXP SWAP1 DIV PUSH1 0xFF AND DUP1 PUSH2 0x16DB JUMPI POP CALLER PUSH20 0xFFFFFFFFFFFFFFFFFFFFFFFFFFFFFFFFFFFFFFFF AND PUSH1 0x1 PUSH0 SWAP1 SLOAD SWAP1 PUSH2 0x100 EXP SWAP1 DIV PUSH20 0xFFFFFFFFFFFFFFFFFFFFFFFFFFFFFFFFFFFFFFFF AND PUSH20 0xFFFFFFFFFFFFFFFFFFFFFFFFFFFFFFFFFFFFFFFF AND EQ JUMPDEST PUSH2 0x171A JUMPI PUSH1 0x40 MLOAD PUSH32 0x8C379A000000000000000000000000000000000000000000000000000000000 DUP2 MSTORE PUSH1 0x4 ADD PUSH2 0x1711 SWAP1 PUSH2 0x32B4 JUMP JUMPDEST PUSH1 0x40 MLOAD DUP1 SWAP2 SUB SWAP1 REVERT JUMPDEST DUP1 PUSH1 0x2 DUP2 SWAP1 SSTORE POP PUSH32 0x41D466EBD06FB97E7786086AC8B69B7EB7DA798592036251291D34E9791CDE01 DUP2 PUSH1 0x40 MLOAD PUSH2 0x1750 SWAP2 SWAP1 PUSH2 0x2E97 JUMP JUMPDEST PUSH1 0x40 MLOAD DUP1 SWAP2 SUB SWAP1 LOG1 POP JUMP JUMPDEST PUSH1 0xB PUSH0 CALLER PUSH20 0xFFFFFFFFFFFFFFFFFFFFFFFFFFFFFFFFFFFFFFFF AND PUSH20 0xFFFFFFFFFFFFFFFFFFFFFFFFFFFFFFFFFFFFFFFF AND DUP2 MSTORE PUSH1 0x20 ADD SWAP1 DUP2 MSTORE PUSH1 0x20 ADD PUSH0 KECCAK256 PUSH0 SWAP1 SLOAD SWAP1 PUSH2 0x100 EXP SWAP1 DIV PUSH1 0xFF AND DUP1 PUSH2 0x17FC JUMPI POP CALLER PUSH20 0xFFFFFFFFFFFFFFFFFFFFFFFFFFFFFFFFFFFFFFFF AND PUSH1 0x1 PUSH0 SWAP1 SLOAD SWAP1 PUSH2 0x100 EXP SWAP1 DIV PUSH20 0xFFFFFFFFFFFFFFFFFFFFFFFFFFFFFFFFFFFFFFFF AND PUSH20 0xFFFFFFFFFFFFFFFFFFFFFFFFFFFFFFFFFFFFFFFF AND EQ JUMPDEST PUSH2 0x183B JUMPI PUSH1 0x40 MLOAD PUSH32 0x8C379A000000000000000000000000000000000000000000000000000000000 DUP2 MSTORE PUSH1 0x4 ADD PUSH2 0x1832 SWAP1 PUSH2 0x32B4 JUMP JUMPDEST PUSH1 0x40 MLOAD DUP1 SWAP2 SUB SWAP1 REVERT JUMPDEST PUSH1 0x3 PUSH0 DUP5 PUSH20 0xFFFFFFFFFFFFFFFFFFFFFFFFFFFFFFFFFFFFFFFF AND PUSH20 0xFFFFFFFFFFFFFFFFFFFFFFFFFFFFFFFFFFFFFFFF AND DUP2 MSTORE PUSH1 0x20 ADD SWAP1 DUP2 MSTORE PUSH1 0x20 ADD PUSH0 KECCAK256 PUSH1 0x1 ADD PUSH0 SWAP1 SLOAD SWAP1 PUSH2 0x100 EXP SWAP1 DIV PUSH1 0xFF AND PUSH2 0x18C7 JUMPI PUSH1 0x40 MLOAD PUSH32 0x8C379A000000000000000000000000000000000000000000000000000000000 DUP2 MSTORE PUSH1 0x4 ADD PUSH2 0x18BE SWAP1 PUSH2 0x324C JUMP JUMPDEST PUSH1 0x40 MLOAD DUP1 SWAP2 SUB SWAP1 REVERT JUMPDEST PUSH0 DUP2 GT PUSH2 0x1909 JUMPI PUSH1 0x40 MLOAD PUSH32 0x8C379A000000000000000000000000000000000000000000000000000000000 DUP2 MSTORE PUSH1 0x4 ADD PUSH2 0x1900 SWAP1 PUSH2 0x33EC JUMP JUMPDEST PUSH1 0x40 MLOAD DUP1 SWAP2 SUB SWAP1 REVERT JUMPDEST PUSH0 DUP4 PUSH20 0xFFFFFFFFFFFFFFFFFFFFFFFFFFFFFFFFFFFFFFFF AND PUSH4 0xA9059CBB DUP5 DUP5 PUSH1 0x40 MLOAD DUP4 PUSH4 0xFFFFFFFF AND PUSH1 0xE0 SHL DUP2 MSTORE PUSH1 0x4 ADD PUSH2 0x1945 SWAP3 SWAP2 SWAP1 PUSH2 0x3472 JUMP JUMPDEST PUSH1 0x20 PUSH1 0x40 MLOAD DUP1 DUP4 SUB DUP2 PUSH0 DUP8 GAS CALL ISZERO DUP1 ISZERO PUSH2 0x1961 JUMPI RETURNDATASIZE PUSH0 DUP1 RETURNDATACOPY RETURNDATASIZE PUSH0 REVERT JUMPDEST POP POP POP POP PUSH1 0x40 MLOAD RETURNDATASIZE PUSH1 0x1F NOT PUSH1 0x1F DUP3 ADD AND DUP3 ADD DUP1 PUSH1 0x40 MSTORE POP DUP2 ADD SWAP1 PUSH2 0x1985 SWAP2 SWAP1 PUSH2 0x34C3 JUMP JUMPDEST SWAP1 POP DUP1 PUSH2 0x19C7 JUMPI PUSH1 0x40 MLOAD PUSH32 0x8C379A000000000000000000000000000000000000000000000000000000000 DUP2 MSTORE PUSH1 0x4 ADD PUSH2 0x19BE SWAP1 PUSH2 0x3538 JUMP JUMPDEST PUSH1 0x40 MLOAD DUP1 SWAP2 SUB SWAP1 REVERT JUMPDEST DUP3 PUSH20 0xFFFFFFFFFFFFFFFFFFFFFFFFFFFFFFFFFFFFFFFF AND DUP5 PUSH20 0xFFFFFFFFFFFFFFFFFFFFFFFFFFFFFFFFFFFFFFFF AND PUSH32 0x1B89874203FF7F0BBA87C969ADA3F32FDA22ED38A6706D35199D21280C7811B1 DUP5 PUSH1 0x40 MLOAD PUSH2 0x1A24 SWAP2 SWAP1 PUSH2 0x2E97 JUMP JUMPDEST PUSH1 0x40 MLOAD DUP1 SWAP2 SUB SWAP1 LOG3 POP POP POP POP JUMP JUMPDEST PUSH1 0xB PUSH0 CALLER PUSH20 0xFFFFFFFFFFFFFFFFFFFFFFFFFFFFFFFFFFFFFFFF AND PUSH20 0xFFFFFFFFFFFFFFFFFFFFFFFFFFFFFFFFFFFFFFFF AND DUP2 MSTORE PUSH1 0x20 ADD SWAP1 DUP2 MSTORE PUSH1 0x20 ADD PUSH0 KECCAK256 PUSH0 SWAP1 SLOAD SWAP1 PUSH2 0x100 EXP SWAP1 DIV PUSH1 0xFF AND DUP1 PUSH2 0x1AD3 JUMPI POP CALLER PUSH20 0xFFFFFFFFFFFFFFFFFFFFFFFFFFFFFFFFFFFFFFFF AND PUSH1 0x1 PUSH0 SWAP1 SLOAD SWAP1 PUSH2 0x100 EXP SWAP1 DIV PUSH20 0xFFFFFFFFFFFFFFFFFFFFFFFFFFFFFFFFFFFFFFFF AND PUSH20 0xFFFFFFFFFFFFFFFFFFFFFFFFFFFFFFFFFFFFFFFF AND EQ JUMPDEST PUSH2 0x1B12 JUMPI PUSH1 0x40 MLOAD PUSH32 0x8C379A000000000000000000000000000000000000000000000000000000000 DUP2 MSTORE PUSH1 0x4 ADD PUSH2 0x1B09 SWAP1 PUSH2 0x32B4 JUMP JUMPDEST PUSH1 0x40 MLOAD DUP1 SWAP2 SUB SWAP1 REVERT JUMPDEST PUSH1 0xB PUSH0 DUP3 PUSH20 0xFFFFFFFFFFFFFFFFFFFFFFFFFFFFFFFFFFFFFFFF AND PUSH20 0xFFFFFFFFFFFFFFFFFFFFFFFFFFFFFFFFFFFFFFFF AND DUP2 MSTORE PUSH1 0x20 ADD SWAP1 DUP2 MSTORE PUSH1 0x20 ADD PUSH0 KECCAK256 PUSH0 SWAP1 SLOAD SWAP1 PUSH2 0x100 EXP SWAP1 DIV PUSH1 0xFF AND PUSH2 0x1B9B JUMPI PUSH1 0x40 MLOAD PUSH32 0x8C379A000000000000000000000000000000000000000000000000000000000 DUP2 MSTORE PUSH1 0x4 ADD PUSH2 0x1B92 SWAP1 PUSH2 0x35A0 JUMP JUMPDEST PUSH1 0x40 MLOAD DUP1 SWAP2 SUB SWAP1 REVERT JUMPDEST PUSH0 PUSH1 0xB PUSH0 DUP4 PUSH20 0xFFFFFFFFFFFFFFFFFFFFFFFFFFFFFFFFFFFFFFFF AND PUSH20 0xFFFFFFFFFFFFFFFFFFFFFFFFFFFFFFFFFFFFFFFF AND DUP2 MSTORE PUSH1 0x20 ADD SWAP1 DUP2 MSTORE PUSH1 0x20 ADD PUSH0 KECCAK256 PUSH0 PUSH2 0x100 EXP DUP2 SLOAD DUP2 PUSH1 0xFF MUL NOT AND SWAP1 DUP4 ISZERO ISZERO MUL OR SWAP1 SSTORE POP DUP1 PUSH20 0xFFFFFFFFFFFFFFFFFFFFFFFFFFFFFFFFFFFFFFFF AND PUSH32 0xEF69F7D97228658C92417BE1B16B19058315DE71FECB435D07B7D23728B6BD31 PUSH1 0x40 MLOAD PUSH1 0x40 MLOAD DUP1 SWAP2 SUB SWAP1 LOG2 POP JUMP JUMPDEST PUSH2 0x1C3D PUSH2 0x2D89 JUMP JUMPDEST DUP2 CALLER PUSH1 0x3 PUSH0 DUP4 PUSH20 0xFFFFFFFFFFFFFFFFFFFFFFFFFFFFFFFFFFFFFFFF AND PUSH20 0xFFFFFFFFFFFFFFFFFFFFFFFFFFFFFFFFFFFFFFFF AND DUP2 MSTORE PUSH1 0x20 ADD SWAP1 DUP2 MSTORE PUSH1 0x20 ADD PUSH0 KECCAK256 PUSH1 0x1 ADD PUSH0 SWAP1 SLOAD SWAP1 PUSH2 0x100 EXP SWAP1 DIV PUSH1 0xFF AND PUSH2 0x1CCB JUMPI PUSH1 0x40 MLOAD PUSH32 0x8C379A000000000000000000000000000000000000000000000000000000000 DUP2 MSTORE PUSH1 0x4 ADD PUSH2 0x1CC2 SWAP1 PUSH2 0x324C JUMP JUMPDEST PUSH1 0x40 MLOAD DUP1 SWAP2 SUB SWAP1 REVERT JUMPDEST PUSH2 0x1CD4 DUP3 PUSH2 0x2AF1 JUMP JUMPDEST PUSH1 0x8 PUSH0 DUP5 PUSH20 0xFFFFFFFFFFFFFFFFFFFFFFFFFFFFFFFFFFFFFFFF AND PUSH20 0xFFFFFFFFFFFFFFFFFFFFFFFFFFFFFFFFFFFFFFFF AND DUP2 MSTORE PUSH1 0x20 ADD SWAP1 DUP2 MSTORE PUSH1 0x20 ADD PUSH0 KECCAK256 DUP2 SWAP1 SSTORE POP TIMESTAMP PUSH1 0x9 PUSH0 DUP5 PUSH20 0xFFFFFFFFFFFFFFFFFFFFFFFFFFFFFFFFFFFFFFFF AND PUSH20 0xFFFFFFFFFFFFFFFFFFFFFFFFFFFFFFFFFFFFFFFF AND DUP2 MSTORE PUSH1 0x20 ADD SWAP1 DUP2 MSTORE PUSH1 0x20 ADD PUSH0 KECCAK256 DUP2 SWAP1 SSTORE POP PUSH2 0x1D61 DUP3 DUP3 PUSH2 0x4C8 JUMP JUMPDEST PUSH1 0x6 PUSH0 DUP5 PUSH20 0xFFFFFFFFFFFFFFFFFFFFFFFFFFFFFFFFFFFFFFFF AND PUSH20 0xFFFFFFFFFFFFFFFFFFFFFFFFFFFFFFFFFFFFFFFF AND DUP2 MSTORE PUSH1 0x20 ADD SWAP1 DUP2 MSTORE PUSH1 0x20 ADD PUSH0 KECCAK256 PUSH0 DUP4 PUSH20 0xFFFFFFFFFFFFFFFFFFFFFFFFFFFFFFFFFFFFFFFF AND PUSH20 0xFFFFFFFFFFFFFFFFFFFFFFFFFFFFFFFFFFFFFFFF AND DUP2 MSTORE PUSH1 0x20 ADD SWAP1 DUP2 MSTORE PUSH1 0x20 ADD PUSH0 KECCAK256 DUP2 SWAP1 SSTORE POP PUSH1 0x8 PUSH0 DUP4 PUSH20 0xFFFFFFFFFFFFFFFFFFFFFFFFFFFFFFFFFFFFFFFF AND PUSH20 0xFFFFFFFFFFFFFFFFFFFFFFFFFFFFFFFFFFFFFFFF AND DUP2 MSTORE PUSH1 0x20 ADD SWAP1 DUP2 MSTORE PUSH1 0x20 ADD PUSH0 KECCAK256 SLOAD PUSH1 0x7 PUSH0 DUP5 PUSH20 0xFFFFFFFFFFFFFFFFFFFFFFFFFFFFFFFFFFFFFFFF AND PUSH20 0xFFFFFFFFFFFFFFFFFFFFFFFFFFFFFFFFFFFFFFFF AND DUP2 MSTORE PUSH1 0x20 ADD SWAP1 DUP2 MSTORE PUSH1 0x20 ADD PUSH0 KECCAK256 PUSH0 DUP4 PUSH20 0xFFFFFFFFFFFFFFFFFFFFFFFFFFFFFFFFFFFFFFFF AND PUSH20 0xFFFFFFFFFFFFFFFFFFFFFFFFFFFFFFFFFFFFFFFF AND DUP2 MSTORE PUSH1 0x20 ADD SWAP1 DUP2 MSTORE PUSH1 0x20 ADD PUSH0 KECCAK256 DUP2 SWAP1 SSTORE POP PUSH1 0x3 PUSH0 DUP6 PUSH20 0xFFFFFFFFFFFFFFFFFFFFFFFFFFFFFFFFFFFFFFFF AND PUSH20 0xFFFFFFFFFFFFFFFFFFFFFFFFFFFFFFFFFFFFFFFF AND DUP2 MSTORE PUSH1 0x20 ADD SWAP1 DUP2 MSTORE PUSH1 0x20 ADD PUSH0 KECCAK256 PUSH1 0x1 ADD PUSH0 SWAP1 SLOAD SWAP1 PUSH2 0x100 EXP SWAP1 DIV PUSH1 0xFF AND PUSH2 0x1F23 JUMPI PUSH1 0x40 MLOAD PUSH32 0x8C379A000000000000000000000000000000000000000000000000000000000 DUP2 MSTORE PUSH1 0x4 ADD PUSH2 0x1F1A SWAP1 PUSH2 0x324C JUMP JUMPDEST PUSH1 0x40 MLOAD DUP1 SWAP2 SUB SWAP1 REVERT JUMPDEST PUSH0 DUP4 GT PUSH2 0x1F65 JUMPI PUSH1 0x40 MLOAD PUSH32 0x8C379A000000000000000000000000000000000000000000000000000000000 DUP2 MSTORE PUSH1 0x4 ADD PUSH2 0x1F5C SWAP1 PUSH2 0x33EC JUMP JUMPDEST PUSH1 0x40 MLOAD DUP1 SWAP2 SUB SWAP1 REVERT JUMPDEST PUSH2 0x1FB5 DUP4 PUSH1 0xA PUSH0 DUP8 PUSH20 0xFFFFFFFFFFFFFFFFFFFFFFFFFFFFFFFFFFFFFFFF AND PUSH20 0xFFFFFFFFFFFFFFFFFFFFFFFFFFFFFFFFFFFFFFFF AND DUP2 MSTORE PUSH1 0x20 ADD SWAP1 DUP2 MSTORE PUSH1 0x20 ADD PUSH0 KECCAK256 SLOAD PUSH2 0x2D74 SWAP1 SWAP2 SWAP1 PUSH4 0xFFFFFFFF AND JUMP JUMPDEST PUSH1 0xA PUSH0 DUP7 PUSH20 0xFFFFFFFFFFFFFFFFFFFFFFFFFFFFFFFFFFFFFFFF AND PUSH20 0xFFFFFFFFFFFFFFFFFFFFFFFFFFFFFFFFFFFFFFFF AND DUP2 MSTORE PUSH1 0x20 ADD SWAP1 DUP2 MSTORE PUSH1 0x20 ADD PUSH0 KECCAK256 DUP2 SWAP1 SSTORE POP PUSH2 0x2081 DUP4 PUSH1 0x5 PUSH0 DUP8 PUSH20 0xFFFFFFFFFFFFFFFFFFFFFFFFFFFFFFFFFFFFFFFF AND PUSH20 0xFFFFFFFFFFFFFFFFFFFFFFFFFFFFFFFFFFFFFFFF AND DUP2 MSTORE PUSH1 0x20 ADD SWAP1 DUP2 MSTORE PUSH1 0x20 ADD PUSH0 KECCAK256 PUSH0 CALLER PUSH20 0xFFFFFFFFFFFFFFFFFFFFFFFFFFFFFFFFFFFFFFFF AND PUSH20 0xFFFFFFFFFFFFFFFFFFFFFFFFFFFFFFFFFFFFFFFF AND DUP2 MSTORE PUSH1 0x20 ADD SWAP1 DUP2 MSTORE PUSH1 0x20 ADD PUSH0 KECCAK256 SLOAD PUSH2 0x2D74 SWAP1 SWAP2 SWAP1 PUSH4 0xFFFFFFFF AND JUMP JUMPDEST PUSH1 0x5 PUSH0 DUP7 PUSH20 0xFFFFFFFFFFFFFFFFFFFFFFFFFFFFFFFFFFFFFFFF AND PUSH20 0xFFFFFFFFFFFFFFFFFFFFFFFFFFFFFFFFFFFFFFFF AND DUP2 MSTORE PUSH1 0x20 ADD SWAP1 DUP2 MSTORE PUSH1 0x20 ADD PUSH0 KECCAK256 PUSH0 CALLER PUSH20 0xFFFFFFFFFFFFFFFFFFFFFFFFFFFFFFFFFFFFFFFF AND PUSH20 0xFFFFFFFFFFFFFFFFFFFFFFFFFFFFFFFFFFFFFFFF AND DUP2 MSTORE PUSH1 0x20 ADD SWAP1 DUP2 MSTORE PUSH1 0x20 ADD PUSH0 KECCAK256 DUP2 SWAP1 SSTORE POP DUP3 DUP5 PUSH20 0xFFFFFFFFFFFFFFFFFFFFFFFFFFFFFFFFFFFFFFFF AND CALLER PUSH20 0xFFFFFFFFFFFFFFFFFFFFFFFFFFFFFFFFFFFFFFFF AND PUSH32 0x5DAC0C1B1112564A045BA943C9D50270893E8E826C49BE8E7073ADC713AB7BD7 PUSH1 0x40 MLOAD PUSH1 0x40 MLOAD DUP1 SWAP2 SUB SWAP1 LOG4 PUSH0 DUP5 PUSH20 0xFFFFFFFFFFFFFFFFFFFFFFFFFFFFFFFFFFFFFFFF AND PUSH4 0x23B872DD CALLER ADDRESS DUP8 PUSH1 0x40 MLOAD DUP5 PUSH4 0xFFFFFFFF AND PUSH1 0xE0 SHL DUP2 MSTORE PUSH1 0x4 ADD PUSH2 0x2196 SWAP4 SWAP3 SWAP2 SWAP1 PUSH2 0x35BE JUMP JUMPDEST PUSH1 0x20 PUSH1 0x40 MLOAD DUP1 DUP4 SUB DUP2 PUSH0 DUP8 GAS CALL ISZERO DUP1 ISZERO PUSH2 0x21B2 JUMPI RETURNDATASIZE PUSH0 DUP1 RETURNDATACOPY RETURNDATASIZE PUSH0 REVERT JUMPDEST POP POP POP POP PUSH1 0x40 MLOAD RETURNDATASIZE PUSH1 0x1F NOT PUSH1 0x1F DUP3 ADD AND DUP3 ADD DUP1 PUSH1 0x40 MSTORE POP DUP2 ADD SWAP1 PUSH2 0x21D6 SWAP2 SWAP1 PUSH2 0x34C3 JUMP JUMPDEST SWAP1 POP DUP1 PUSH2 0x2218 JUMPI PUSH1 0x40 MLOAD PUSH32 0x8C379A000000000000000000000000000000000000000000000000000000000 DUP2 MSTORE PUSH1 0x4 ADD PUSH2 0x220F SWAP1 PUSH2 0x3538 JUMP JUMPDEST PUSH1 0x40 MLOAD DUP1 SWAP2 SUB SWAP1 REVERT JUMPDEST POP POP POP PUSH2 0x2223 PUSH2 0x2DD6 JUMP JUMPDEST POP POP JUMP JUMPDEST CALLER PUSH20 0xFFFFFFFFFFFFFFFFFFFFFFFFFFFFFFFFFFFFFFFF AND PUSH1 0x1 PUSH0 SWAP1 SLOAD SWAP1 PUSH2 0x100 EXP SWAP1 DIV PUSH20 0xFFFFFFFFFFFFFFFFFFFFFFFFFFFFFFFFFFFFFFFF AND PUSH20 0xFFFFFFFFFFFFFFFFFFFFFFFFFFFFFFFFFFFFFFFF AND EQ PUSH2 0x22B6 JUMPI PUSH1 0x40 MLOAD PUSH32 0x8C379A000000000000000000000000000000000000000000000000000000000 DUP2 MSTORE PUSH1 0x4 ADD PUSH2 0x22AD SWAP1 PUSH2 0x363D JUMP JUMPDEST PUSH1 0x40 MLOAD DUP1 SWAP2 SUB SWAP1 REVERT JUMPDEST PUSH1 0x3 PUSH0 DUP5 PUSH20 0xFFFFFFFFFFFFFFFFFFFFFFFFFFFFFFFFFFFFFFFF AND PUSH20 0xFFFFFFFFFFFFFFFFFFFFFFFFFFFFFFFFFFFFFFFF AND DUP2 MSTORE PUSH1 0x20 ADD SWAP1 DUP2 MSTORE PUSH1 0x20 ADD PUSH0 KECCAK256 PUSH1 0x1 ADD PUSH0 SWAP1 SLOAD SWAP1 PUSH2 0x100 EXP SWAP1 DIV PUSH1 0xFF AND ISZERO PUSH2 0x2343 JUMPI PUSH1 0x40 MLOAD PUSH32 0x8C379A000000000000000000000000000000000000000000000000000000000 DUP2 MSTORE PUSH1 0x4 ADD PUSH2 0x233A SWAP1 PUSH2 0x36A5 JUMP JUMPDEST PUSH1 0x40 MLOAD DUP1 SWAP2 SUB SWAP1 REVERT JUMPDEST PUSH1 0x40 MLOAD DUP1 PUSH1 0x40 ADD PUSH1 0x40 MSTORE DUP1 DUP4 DUP4 DUP1 DUP1 PUSH1 0x1F ADD PUSH1 0x20 DUP1 SWAP2 DIV MUL PUSH1 0x20 ADD PUSH1 0x40 MLOAD SWAP1 DUP2 ADD PUSH1 0x40 MSTORE DUP1 SWAP4 SWAP3 SWAP2 SWAP1 DUP2 DUP2 MSTORE PUSH1 0x20 ADD DUP4 DUP4 DUP1 DUP3 DUP5 CALLDATACOPY PUSH0 DUP2 DUP5 ADD MSTORE PUSH1 0x1F NOT PUSH1 0x1F DUP3 ADD AND SWAP1 POP DUP1 DUP4 ADD SWAP3 POP POP POP POP POP POP POP DUP2 MSTORE PUSH1 0x20 ADD PUSH1 0x1 ISZERO ISZERO DUP2 MSTORE POP PUSH1 0x3 PUSH0 DUP6 PUSH20 0xFFFFFFFFFFFFFFFFFFFFFFFFFFFFFFFFFFFFFFFF AND PUSH20 0xFFFFFFFFFFFFFFFFFFFFFFFFFFFFFFFFFFFFFFFF AND DUP2 MSTORE PUSH1 0x20 ADD SWAP1 DUP2 MSTORE PUSH1 0x20 ADD PUSH0 KECCAK256 PUSH0 DUP3 ADD MLOAD DUP2 PUSH0 ADD SWAP1 DUP2 PUSH2 0x23EE SWAP2 SWAP1 PUSH2 0x38EA JUMP JUMPDEST POP PUSH1 0x20 DUP3 ADD MLOAD DUP2 PUSH1 0x1 ADD PUSH0 PUSH2 0x100 EXP DUP2 SLOAD DUP2 PUSH1 0xFF MUL NOT AND SWAP1 DUP4 ISZERO ISZERO MUL OR SWAP1 SSTORE POP SWAP1 POP POP PUSH1 0x4 DUP4 SWAP1 DUP1 PUSH1 0x1 DUP2 SLOAD ADD DUP1 DUP3 SSTORE DUP1 SWAP2 POP POP PUSH1 0x1 SWAP1 SUB SWAP1 PUSH0 MSTORE PUSH1 0x20 PUSH0 KECCAK256 ADD PUSH0 SWAP1 SWAP2 SWAP1 SWAP2 SWAP1 SWAP2 PUSH2 0x100 EXP DUP2 SLOAD DUP2 PUSH20 0xFFFFFFFFFFFFFFFFFFFFFFFFFFFFFFFFFFFFFFFF MUL NOT AND SWAP1 DUP4 PUSH20 0xFFFFFFFFFFFFFFFFFFFFFFFFFFFFFFFFFFFFFFFF AND MUL OR SWAP1 SSTORE POP DUP3 PUSH20 0xFFFFFFFFFFFFFFFFFFFFFFFFFFFFFFFFFFFFFFFF AND PUSH32 0x784C8F4DBF0FFEDD6E72C76501C545A70F8B203B30A26CE542BF92BA87C248A4 PUSH1 0x40 MLOAD PUSH1 0x40 MLOAD DUP1 SWAP2 SUB SWAP1 LOG2 POP POP POP JUMP JUMPDEST PUSH1 0xA PUSH1 0x20 MSTORE DUP1 PUSH0 MSTORE PUSH1 0x40 PUSH0 KECCAK256 PUSH0 SWAP2 POP SWAP1 POP SLOAD DUP2 JUMP JUMPDEST PUSH2 0x24D6 PUSH2 0x2D89 JUMP JUMPDEST DUP1 CALLER PUSH1 0x3 PUSH0 DUP4 PUSH20 0xFFFFFFFFFFFFFFFFFFFFFFFFFFFFFFFFFFFFFFFF AND PUSH20 0xFFFFFFFFFFFFFFFFFFFFFFFFFFFFFFFFFFFFFFFF AND DUP2 MSTORE PUSH1 0x20 ADD SWAP1 DUP2 MSTORE PUSH1 0x20 ADD PUSH0 KECCAK256 PUSH1 0x1 ADD PUSH0 SWAP1 SLOAD SWAP1 PUSH2 0x100 EXP SWAP1 DIV PUSH1 0xFF AND PUSH2 0x2564 JUMPI PUSH1 0x40 MLOAD PUSH32 0x8C379A000000000000000000000000000000000000000000000000000000000 DUP2 MSTORE PUSH1 0x4 ADD PUSH2 0x255B SWAP1 PUSH2 0x324C JUMP JUMPDEST PUSH1 0x40 MLOAD DUP1 SWAP2 SUB SWAP1 REVERT JUMPDEST PUSH2 0x256D DUP3 PUSH2 0x2AF1 JUMP JUMPDEST PUSH1 0x8 PUSH0 DUP5 PUSH20 0xFFFFFFFFFFFFFFFFFFFFFFFFFFFFFFFFFFFFFFFF AND PUSH20 0xFFFFFFFFFFFFFFFFFFFFFFFFFFFFFFFFFFFFFFFF AND DUP2 MSTORE PUSH1 0x20 ADD SWAP1 DUP2 MSTORE PUSH1 0x20 ADD PUSH0 KECCAK256 DUP2 SWAP1 SSTORE POP TIMESTAMP PUSH1 0x9 PUSH0 DUP5 PUSH20 0xFFFFFFFFFFFFFFFFFFFFFFFFFFFFFFFFFFFFFFFF AND PUSH20 0xFFFFFFFFFFFFFFFFFFFFFFFFFFFFFFFFFFFFFFFF AND DUP2 MSTORE PUSH1 0x20 ADD SWAP1 DUP2 MSTORE PUSH1 0x20 ADD PUSH0 KECCAK256 DUP2 SWAP1 SSTORE POP PUSH2 0x25FA DUP3 DUP3 PUSH2 0x4C8 JUMP JUMPDEST PUSH1 0x6 PUSH0 DUP5 PUSH20 0xFFFFFFFFFFFFFFFFFFFFFFFFFFFFFFFFFFFFFFFF AND PUSH20 0xFFFFFFFFFFFFFFFFFFFFFFFFFFFFFFFFFFFFFFFF AND DUP2 MSTORE PUSH1 0x20 ADD SWAP1 DUP2 MSTORE PUSH1 0x20 ADD PUSH0 KECCAK256 PUSH0 DUP4 PUSH20 0xFFFFFFFFFFFFFFFFFFFFFFFFFFFFFFFFFFFFFFFF AND PUSH20 0xFFFFFFFFFFFFFFFFFFFFFFFFFFFFFFFFFFFFFFFF AND DUP2 MSTORE PUSH1 0x20 ADD SWAP1 DUP2 MSTORE PUSH1 0x20 ADD PUSH0 KECCAK256 DUP2 SWAP1 SSTORE POP PUSH1 0x8 PUSH0 DUP4 PUSH20 0xFFFFFFFFFFFFFFFFFFFFFFFFFFFFFFFFFFFFFFFF AND PUSH20 0xFFFFFFFFFFFFFFFFFFFFFFFFFFFFFFFFFFFFFFFF AND DUP2 MSTORE PUSH1 0x20 ADD SWAP1 DUP2 MSTORE PUSH1 0x20 ADD PUSH0 KECCAK256 SLOAD PUSH1 0x7 PUSH0 DUP5 PUSH20 0xFFFFFFFFFFFFFFFFFFFFFFFFFFFFFFFFFFFFFFFF AND PUSH20 0xFFFFFFFFFFFFFFFFFFFFFFFFFFFFFFFFFFFFFFFF AND DUP2 MSTORE PUSH1 0x20 ADD SWAP1 DUP2 MSTORE PUSH1 0x20 ADD PUSH0 KECCAK256 PUSH0 DUP4 PUSH20 0xFFFFFFFFFFFFFFFFFFFFFFFFFFFFFFFFFFFFFFFF AND PUSH20 0xFFFFFFFFFFFFFFFFFFFFFFFFFFFFFFFFFFFFFFFF AND DUP2 MSTORE PUSH1 0x20 ADD SWAP1 DUP2 MSTORE PUSH1 0x20 ADD PUSH0 KECCAK256 DUP2 SWAP1 SSTORE POP PUSH1 0x3 PUSH0 DUP5 PUSH20 0xFFFFFFFFFFFFFFFFFFFFFFFFFFFFFFFFFFFFFFFF AND PUSH20 0xFFFFFFFFFFFFFFFFFFFFFFFFFFFFFFFFFFFFFFFF AND DUP2 MSTORE PUSH1 0x20 ADD SWAP1 DUP2 MSTORE PUSH1 0x20 ADD PUSH0 KECCAK256 PUSH1 0x1 ADD PUSH0 SWAP1 SLOAD SWAP1 PUSH2 0x100 EXP SWAP1 DIV PUSH1 0xFF AND PUSH2 0x27BC JUMPI PUSH1 0x40 MLOAD PUSH32 0x8C379A000000000000000000000000000000000000000000000000000000000 DUP2 MSTORE PUSH1 0x4 ADD PUSH2 0x27B3 SWAP1 PUSH2 0x324C JUMP JUMPDEST PUSH1 0x40 MLOAD DUP1 SWAP2 SUB SWAP1 REVERT JUMPDEST PUSH0 PUSH1 0x6 PUSH0 DUP6 PUSH20 0xFFFFFFFFFFFFFFFFFFFFFFFFFFFFFFFFFFFFFFFF AND PUSH20 0xFFFFFFFFFFFFFFFFFFFFFFFFFFFFFFFFFFFFFFFF AND DUP2 MSTORE PUSH1 0x20 ADD SWAP1 DUP2 MSTORE PUSH1 0x20 ADD PUSH0 KECCAK256 PUSH0 CALLER PUSH20 0xFFFFFFFFFFFFFFFFFFFFFFFFFFFFFFFFFFFFFFFF AND PUSH20 0xFFFFFFFFFFFFFFFFFFFFFFFFFFFFFFFFFFFFFFFF AND DUP2 MSTORE PUSH1 0x20 ADD SWAP1 DUP2 MSTORE PUSH1 0x20 ADD PUSH0 KECCAK256 SLOAD SWAP1 POP PUSH0 DUP2 GT PUSH2 0x287A JUMPI PUSH1 0x40 MLOAD PUSH32 0x8C379A000000000000000000000000000000000000000000000000000000000 DUP2 MSTORE PUSH1 0x4 ADD PUSH2 0x2871 SWAP1 PUSH2 0x3A03 JUMP JUMPDEST PUSH1 0x40 MLOAD DUP1 SWAP2 SUB SWAP1 REVERT JUMPDEST PUSH0 PUSH1 0x6 PUSH0 DUP7 PUSH20 0xFFFFFFFFFFFFFFFFFFFFFFFFFFFFFFFFFFFFFFFF AND PUSH20 0xFFFFFFFFFFFFFFFFFFFFFFFFFFFFFFFFFFFFFFFF AND DUP2 MSTORE PUSH1 0x20 ADD SWAP1 DUP2 MSTORE PUSH1 0x20 ADD PUSH0 KECCAK256 PUSH0 CALLER PUSH20 0xFFFFFFFFFFFFFFFFFFFFFFFFFFFFFFFFFFFFFFFF AND PUSH20 0xFFFFFFFFFFFFFFFFFFFFFFFFFFFFFFFFFFFFFFFF AND DUP2 MSTORE PUSH1 0x20 ADD SWAP1 DUP2 MSTORE PUSH1 0x20 ADD PUSH0 KECCAK256 DUP2 SWAP1 SSTORE POP DUP1 DUP5 PUSH20 0xFFFFFFFFFFFFFFFFFFFFFFFFFFFFFFFFFFFFFFFF AND CALLER PUSH20 0xFFFFFFFFFFFFFFFFFFFFFFFFFFFFFFFFFFFFFFFF AND PUSH32 0x9310CCFCB8DE723F578A9E4282EA9F521F05AE40DC08F3068DFAD528A65EE3C7 PUSH1 0x40 MLOAD PUSH1 0x40 MLOAD DUP1 SWAP2 SUB SWAP1 LOG4 PUSH0 DUP5 PUSH20 0xFFFFFFFFFFFFFFFFFFFFFFFFFFFFFFFFFFFFFFFF AND PUSH4 0xA9059CBB CALLER DUP5 PUSH1 0x40 MLOAD DUP4 PUSH4 0xFFFFFFFF AND PUSH1 0xE0 SHL DUP2 MSTORE PUSH1 0x4 ADD PUSH2 0x298E SWAP3 SWAP2 SWAP1 PUSH2 0x3472 JUMP JUMPDEST PUSH1 0x20 PUSH1 0x40 MLOAD DUP1 DUP4 SUB DUP2 PUSH0 DUP8 GAS CALL ISZERO DUP1 ISZERO PUSH2 0x29AA JUMPI RETURNDATASIZE PUSH0 DUP1 RETURNDATACOPY RETURNDATASIZE PUSH0 REVERT JUMPDEST POP POP POP POP PUSH1 0x40 MLOAD RETURNDATASIZE PUSH1 0x1F NOT PUSH1 0x1F DUP3 ADD AND DUP3 ADD DUP1 PUSH1 0x40 MSTORE POP DUP2 ADD SWAP1 PUSH2 0x29CE SWAP2 SWAP1 PUSH2 0x34C3 JUMP JUMPDEST SWAP1 POP DUP1 PUSH2 0x2A10 JUMPI PUSH1 0x40 MLOAD PUSH32 0x8C379A000000000000000000000000000000000000000000000000000000000 DUP2 MSTORE PUSH1 0x4 ADD PUSH2 0x2A07 SWAP1 PUSH2 0x3538 JUMP JUMPDEST PUSH1 0x40 MLOAD DUP1 SWAP2 SUB SWAP1 REVERT JUMPDEST POP POP POP POP PUSH2 0x2A1C PUSH2 0x2DD6 JUMP JUMPDEST POP JUMP JUMPDEST PUSH1 0x3 PUSH1 0x20 MSTORE DUP1 PUSH0 MSTORE PUSH1 0x40 PUSH0 KECCAK256 PUSH0 SWAP2 POP SWAP1 POP DUP1 PUSH0 ADD DUP1 SLOAD PUSH2 0x2A3E SWAP1 PUSH2 0x371D JUMP JUMPDEST DUP1 PUSH1 0x1F ADD PUSH1 0x20 DUP1 SWAP2 DIV MUL PUSH1 0x20 ADD PUSH1 0x40 MLOAD SWAP1 DUP2 ADD PUSH1 0x40 MSTORE DUP1 SWAP3 SWAP2 SWAP1 DUP2 DUP2 MSTORE PUSH1 0x20 ADD DUP3 DUP1 SLOAD PUSH2 0x2A6A SWAP1 PUSH2 0x371D JUMP JUMPDEST DUP1 ISZERO PUSH2 0x2AB5 JUMPI DUP1 PUSH1 0x1F LT PUSH2 0x2A8C JUMPI PUSH2 0x100 DUP1 DUP4 SLOAD DIV MUL DUP4 MSTORE SWAP2 PUSH1 0x20 ADD SWAP2 PUSH2 0x2AB5 JUMP JUMPDEST DUP3 ADD SWAP2 SWAP1 PUSH0 MSTORE PUSH1 0x20 PUSH0 KECCAK256 SWAP1 JUMPDEST DUP2 SLOAD DUP2 MSTORE SWAP1 PUSH1 0x1 ADD SWAP1 PUSH1 0x20 ADD DUP1 DUP4 GT PUSH2 0x2A98 JUMPI DUP3 SWAP1 SUB PUSH1 0x1F AND DUP3 ADD SWAP2 JUMPDEST POP POP POP POP POP SWAP1 DUP1 PUSH1 0x1 ADD PUSH0 SWAP1 SLOAD SWAP1 PUSH2 0x100 EXP SWAP1 DIV PUSH1 0xFF AND SWAP1 POP DUP3 JUMP JUMPDEST PUSH1 0x6 PUSH1 0x20 MSTORE DUP2 PUSH0 MSTORE PUSH1 0x40 PUSH0 KECCAK256 PUSH1 0x20 MSTORE DUP1 PUSH0 MSTORE PUSH1 0x40 PUSH0 KECCAK256 PUSH0 SWAP2 POP SWAP2 POP POP SLOAD DUP2 JUMP JUMPDEST PUSH0 PUSH1 0x3 PUSH0 DUP4 PUSH20 0xFFFFFFFFFFFFFFFFFFFFFFFFFFFFFFFFFFFFFFFF AND PUSH20 0xFFFFFFFFFFFFFFFFFFFFFFFFFFFFFFFFFFFFFFFF AND DUP2 MSTORE PUSH1 0x20 ADD SWAP1 DUP2 MSTORE PUSH1 0x20 ADD PUSH0 KECCAK256 PUSH1 0x1 ADD PUSH0 SWAP1 SLOAD SWAP1 PUSH2 0x100 EXP SWAP1 DIV PUSH1 0xFF AND PUSH2 0x2B7E JUMPI PUSH1 0x40 MLOAD PUSH32 0x8C379A000000000000000000000000000000000000000000000000000000000 DUP2 MSTORE PUSH1 0x4 ADD PUSH2 0x2B75 SWAP1 PUSH2 0x324C JUMP JUMPDEST PUSH1 0x40 MLOAD DUP1 SWAP2 SUB SWAP1 REVERT JUMPDEST PUSH0 PUSH1 0xA PUSH0 DUP5 PUSH20 0xFFFFFFFFFFFFFFFFFFFFFFFFFFFFFFFFFFFFFFFF AND PUSH20 0xFFFFFFFFFFFFFFFFFFFFFFFFFFFFFFFFFFFFFFFF AND DUP2 MSTORE PUSH1 0x20 ADD SWAP1 DUP2 MSTORE PUSH1 0x20 ADD PUSH0 KECCAK256 SLOAD SUB PUSH2 0x2C07 JUMPI PUSH1 0x8 PUSH0 DUP4 PUSH20 0xFFFFFFFFFFFFFFFFFFFFFFFFFFFFFFFFFFFFFFFF AND PUSH20 0xFFFFFFFFFFFFFFFFFFFFFFFFFFFFFFFFFFFFFFFF AND DUP2 MSTORE PUSH1 0x20 ADD SWAP1 DUP2 MSTORE PUSH1 0x20 ADD PUSH0 KECCAK256 SLOAD SWAP1 POP PUSH2 0x2D30 JUMP JUMPDEST PUSH0 PUSH2 0x2C58 PUSH1 0x9 PUSH0 DUP6 PUSH20 0xFFFFFFFFFFFFFFFFFFFFFFFFFFFFFFFFFFFFFFFF AND PUSH20 0xFFFFFFFFFFFFFFFFFFFFFFFFFFFFFFFFFFFFFFFF AND DUP2 MSTORE PUSH1 0x20 ADD SWAP1 DUP2 MSTORE PUSH1 0x20 ADD PUSH0 KECCAK256 SLOAD TIMESTAMP PUSH2 0x2D35 SWAP1 SWAP2 SWAP1 PUSH4 0xFFFFFFFF AND JUMP JUMPDEST SWAP1 POP PUSH0 PUSH2 0x2C70 DUP3 PUSH1 0x2 SLOAD PUSH2 0x2D4A SWAP1 SWAP2 SWAP1 PUSH4 0xFFFFFFFF AND JUMP JUMPDEST SWAP1 POP PUSH2 0x2D2B PUSH2 0x2CDF PUSH1 0xA PUSH0 DUP8 PUSH20 0xFFFFFFFFFFFFFFFFFFFFFFFFFFFFFFFFFFFFFFFF AND PUSH20 0xFFFFFFFFFFFFFFFFFFFFFFFFFFFFFFFFFFFFFFFF AND DUP2 MSTORE PUSH1 0x20 ADD SWAP1 DUP2 MSTORE PUSH1 0x20 ADD PUSH0 KECCAK256 SLOAD PUSH2 0x2CD1 PUSH8 0xDE0B6B3A7640000 DUP6 PUSH2 0x2D4A SWAP1 SWAP2 SWAP1 PUSH4 0xFFFFFFFF AND JUMP JUMPDEST PUSH2 0x2D5F SWAP1 SWAP2 SWAP1 PUSH4 0xFFFFFFFF AND JUMP JUMPDEST PUSH1 0x8 PUSH0 DUP8 PUSH20 0xFFFFFFFFFFFFFFFFFFFFFFFFFFFFFFFFFFFFFFFF AND PUSH20 0xFFFFFFFFFFFFFFFFFFFFFFFFFFFFFFFFFFFFFFFF AND DUP2 MSTORE PUSH1 0x20 ADD SWAP1 DUP2 MSTORE PUSH1 0x20 ADD PUSH0 KECCAK256 SLOAD PUSH2 0x2D74 SWAP1 SWAP2 SWAP1 PUSH4 0xFFFFFFFF AND JUMP JUMPDEST SWAP3 POP POP POP JUMPDEST SWAP2 SWAP1 POP JUMP JUMPDEST PUSH0 DUP2 DUP4 PUSH2 0x2D42 SWAP2 SWAP1 PUSH2 0x3A4E JUMP JUMPDEST SWAP1 POP SWAP3 SWAP2 POP POP JUMP JUMPDEST PUSH0 DUP2 DUP4 PUSH2 0x2D57 SWAP2 SWAP1 PUSH2 0x3A81 JUMP JUMPDEST SWAP1 POP SWAP3 SWAP2 POP POP JUMP JUMPDEST PUSH0 DUP2 DUP4 PUSH2 0x2D6C SWAP2 SWAP1 PUSH2 0x3AEF JUMP JUMPDEST SWAP1 POP SWAP3 SWAP2 POP POP JUMP JUMPDEST PUSH0 DUP2 DUP4 PUSH2 0x2D81 SWAP2 SWAP1 PUSH2 0x3B1F JUMP JUMPDEST SWAP1 POP SWAP3 SWAP2 POP POP JUMP JUMPDEST PUSH1 0x2 PUSH0 SLOAD SUB PUSH2 0x2DCD JUMPI PUSH1 0x40 MLOAD PUSH32 0x8C379A000000000000000000000000000000000000000000000000000000000 DUP2 MSTORE PUSH1 0x4 ADD PUSH2 0x2DC4 SWAP1 PUSH2 0x3B9C JUMP JUMPDEST PUSH1 0x40 MLOAD DUP1 SWAP2 SUB SWAP1 REVERT JUMPDEST PUSH1 0x2 PUSH0 DUP2 SWAP1 SSTORE POP JUMP JUMPDEST PUSH1 0x1 PUSH0 DUP2 SWAP1 SSTORE POP JUMP JUMPDEST PUSH0 DUP1 REVERT JUMPDEST PUSH0 DUP1 REVERT JUMPDEST PUSH0 PUSH20 0xFFFFFFFFFFFFFFFFFFFFFFFFFFFFFFFFFFFFFFFF DUP3 AND SWAP1 POP SWAP2 SWAP1 POP JUMP JUMPDEST PUSH0 PUSH2 0x2E10 DUP3 PUSH2 0x2DE7 JUMP JUMPDEST SWAP1 POP SWAP2 SWAP1 POP JUMP JUMPDEST PUSH2 0x2E20 DUP2 PUSH2 0x2E06 JUMP JUMPDEST DUP2 EQ PUSH2 0x2E2A JUMPI PUSH0 DUP1 REVERT JUMPDEST POP JUMP JUMPDEST PUSH0 DUP2 CALLDATALOAD SWAP1 POP PUSH2 0x2E3B DUP2 PUSH2 0x2E17 JUMP JUMPDEST SWAP3 SWAP2 POP POP JUMP JUMPDEST PUSH0 DUP1 PUSH1 0x40 DUP4 DUP6 SUB SLT ISZERO PUSH2 0x2E57 JUMPI PUSH2 0x2E56 PUSH2 0x2DDF JUMP JUMPDEST JUMPDEST PUSH0 PUSH2 0x2E64 DUP6 DUP3 DUP7 ADD PUSH2 0x2E2D JUMP JUMPDEST SWAP3 POP POP PUSH1 0x20 PUSH2 0x2E75 DUP6 DUP3 DUP7 ADD PUSH2 0x2E2D JUMP JUMPDEST SWAP2 POP POP SWAP3 POP SWAP3 SWAP1 POP JUMP JUMPDEST PUSH0 DUP2 SWAP1 POP SWAP2 SWAP1 POP JUMP JUMPDEST PUSH2 0x2E91 DUP2 PUSH2 0x2E7F JUMP JUMPDEST DUP3 MSTORE POP POP JUMP JUMPDEST PUSH0 PUSH1 0x20 DUP3 ADD SWAP1 POP PUSH2 0x2EAA PUSH0 DUP4 ADD DUP5 PUSH2 0x2E88 JUMP JUMPDEST SWAP3 SWAP2 POP POP JUMP JUMPDEST PUSH0 PUSH1 0x20 DUP3 DUP5 SUB SLT ISZERO PUSH2 0x2EC5 JUMPI PUSH2 0x2EC4 PUSH2 0x2DDF JUMP JUMPDEST JUMPDEST PUSH0 PUSH2 0x2ED2 DUP5 DUP3 DUP6 ADD PUSH2 0x2E2D JUMP JUMPDEST SWAP2 POP POP SWAP3 SWAP2 POP POP JUMP JUMPDEST PUSH2 0x2EE4 DUP2 PUSH2 0x2E7F JUMP JUMPDEST DUP2 EQ PUSH2 0x2EEE JUMPI PUSH0 DUP1 REVERT JUMPDEST POP JUMP JUMPDEST PUSH0 DUP2 CALLDATALOAD SWAP1 POP PUSH2 0x2EFF DUP2 PUSH2 0x2EDB JUMP JUMPDEST SWAP3 SWAP2 POP POP JUMP JUMPDEST PUSH0 PUSH1 0x20 DUP3 DUP5 SUB SLT ISZERO PUSH2 0x2F1A JUMPI PUSH2 0x2F19 PUSH2 0x2DDF JUMP JUMPDEST JUMPDEST PUSH0 PUSH2 0x2F27 DUP5 DUP3 DUP6 ADD PUSH2 0x2EF1 JUMP JUMPDEST SWAP2 POP POP SWAP3 SWAP2 POP POP JUMP JUMPDEST PUSH2 0x2F39 DUP2 PUSH2 0x2E06 JUMP JUMPDEST DUP3 MSTORE POP POP JUMP JUMPDEST PUSH0 PUSH1 0x20 DUP3 ADD SWAP1 POP PUSH2 0x2F52 PUSH0 DUP4 ADD DUP5 PUSH2 0x2F30 JUMP JUMPDEST SWAP3 SWAP2 POP POP JUMP JUMPDEST PUSH32 0x4E487B7100000000000000000000000000000000000000000000000000000000 PUSH0 MSTORE PUSH1 0x21 PUSH1 0x4 MSTORE PUSH1 0x24 PUSH0 REVERT JUMPDEST PUSH1 0x3 DUP2 LT PUSH2 0x2F96 JUMPI PUSH2 0x2F95 PUSH2 0x2F58 JUMP JUMPDEST JUMPDEST POP JUMP JUMPDEST PUSH0 DUP2 SWAP1 POP PUSH2 0x2FA6 DUP3 PUSH2 0x2F85 JUMP JUMPDEST SWAP2 SWAP1 POP JUMP JUMPDEST PUSH0 PUSH2 0x2FB5 DUP3 PUSH2 0x2F99 JUMP JUMPDEST SWAP1 POP SWAP2 SWAP1 POP JUMP JUMPDEST PUSH2 0x2FC5 DUP2 PUSH2 0x2FAB JUMP JUMPDEST DUP3 MSTORE POP POP JUMP JUMPDEST PUSH0 PUSH1 0x20 DUP3 ADD SWAP1 POP PUSH2 0x2FDE PUSH0 DUP4 ADD DUP5 PUSH2 0x2FBC JUMP JUMPDEST SWAP3 SWAP2 POP POP JUMP JUMPDEST PUSH0 DUP1 PUSH1 0x40 DUP4 DUP6 SUB SLT ISZERO PUSH2 0x2FFA JUMPI PUSH2 0x2FF9 PUSH2 0x2DDF JUMP JUMPDEST JUMPDEST PUSH0 PUSH2 0x3007 DUP6 DUP3 DUP7 ADD PUSH2 0x2E2D JUMP JUMPDEST SWAP3 POP POP PUSH1 0x20 PUSH2 0x3018 DUP6 DUP3 DUP7 ADD PUSH2 0x2EF1 JUMP JUMPDEST SWAP2 POP POP SWAP3 POP SWAP3 SWAP1 POP JUMP JUMPDEST PUSH0 DUP1 PUSH0 PUSH1 0x60 DUP5 DUP7 SUB SLT ISZERO PUSH2 0x3039 JUMPI PUSH2 0x3038 PUSH2 0x2DDF JUMP JUMPDEST JUMPDEST PUSH0 PUSH2 0x3046 DUP7 DUP3 DUP8 ADD PUSH2 0x2E2D JUMP JUMPDEST SWAP4 POP POP PUSH1 0x20 PUSH2 0x3057 DUP7 DUP3 DUP8 ADD PUSH2 0x2E2D JUMP JUMPDEST SWAP3 POP POP PUSH1 0x40 PUSH2 0x3068 DUP7 DUP3 DUP8 ADD PUSH2 0x2EF1 JUMP JUMPDEST SWAP2 POP POP SWAP3 POP SWAP3 POP SWAP3 JUMP JUMPDEST PUSH0 DUP1 REVERT JUMPDEST PUSH0 DUP1 REVERT JUMPDEST PUSH0 DUP1 REVERT JUMPDEST PUSH0 DUP1 DUP4 PUSH1 0x1F DUP5 ADD SLT PUSH2 0x3093 JUMPI PUSH2 0x3092 PUSH2 0x3072 JUMP JUMPDEST JUMPDEST DUP3 CALLDATALOAD SWAP1 POP PUSH8 0xFFFFFFFFFFFFFFFF DUP2 GT ISZERO PUSH2 0x30B0 JUMPI PUSH2 0x30AF PUSH2 0x3076 JUMP JUMPDEST JUMPDEST PUSH1 0x20 DUP4 ADD SWAP2 POP DUP4 PUSH1 0x1 DUP3 MUL DUP4 ADD GT ISZERO PUSH2 0x30CC JUMPI PUSH2 0x30CB PUSH2 0x307A JUMP JUMPDEST JUMPDEST SWAP3 POP SWAP3 SWAP1 POP JUMP JUMPDEST PUSH0 DUP1 PUSH0 PUSH1 0x40 DUP5 DUP7 SUB SLT ISZERO PUSH2 0x30EA JUMPI PUSH2 0x30E9 PUSH2 0x2DDF JUMP JUMPDEST JUMPDEST PUSH0 PUSH2 0x30F7 DUP7 DUP3 DUP8 ADD PUSH2 0x2E2D JUMP JUMPDEST SWAP4 POP POP PUSH1 0x20 DUP5 ADD CALLDATALOAD PUSH8 0xFFFFFFFFFFFFFFFF DUP2 GT ISZERO PUSH2 0x3118 JUMPI PUSH2 0x3117 PUSH2 0x2DE3 JUMP JUMPDEST JUMPDEST PUSH2 0x3124 DUP7 DUP3 DUP8 ADD PUSH2 0x307E JUMP JUMPDEST SWAP3 POP SWAP3 POP POP SWAP3 POP SWAP3 POP SWAP3 JUMP JUMPDEST PUSH0 DUP2 MLOAD SWAP1 POP SWAP2 SWAP1 POP JUMP JUMPDEST PUSH0 DUP3 DUP3 MSTORE PUSH1 0x20 DUP3 ADD SWAP1 POP SWAP3 SWAP2 POP POP JUMP JUMPDEST PUSH0 JUMPDEST DUP4 DUP2 LT ISZERO PUSH2 0x3167 JUMPI DUP1 DUP3 ADD MLOAD DUP2 DUP5 ADD MSTORE PUSH1 0x20 DUP2 ADD SWAP1 POP PUSH2 0x314C JUMP JUMPDEST PUSH0 DUP5 DUP5 ADD MSTORE POP POP POP POP JUMP JUMPDEST PUSH0 PUSH1 0x1F NOT PUSH1 0x1F DUP4 ADD AND SWAP1 POP SWAP2 SWAP1 POP JUMP JUMPDEST PUSH0 PUSH2 0x318C DUP3 PUSH2 0x3130 JUMP JUMPDEST PUSH2 0x3196 DUP2 DUP6 PUSH2 0x313A JUMP JUMPDEST SWAP4 POP PUSH2 0x31A6 DUP2 DUP6 PUSH1 0x20 DUP7 ADD PUSH2 0x314A JUMP JUMPDEST PUSH2 0x31AF DUP2 PUSH2 0x3172 JUMP JUMPDEST DUP5 ADD SWAP2 POP POP SWAP3 SWAP2 POP POP JUMP JUMPDEST PUSH0 DUP2 ISZERO ISZERO SWAP1 POP SWAP2 SWAP1 POP JUMP JUMPDEST PUSH2 0x31CE DUP2 PUSH2 0x31BA JUMP JUMPDEST DUP3 MSTORE POP POP JUMP JUMPDEST PUSH0 PUSH1 0x40 DUP3 ADD SWAP1 POP DUP2 DUP2 SUB PUSH0 DUP4 ADD MSTORE PUSH2 0x31EC DUP2 DUP6 PUSH2 0x3182 JUMP JUMPDEST SWAP1 POP PUSH2 0x31FB PUSH1 0x20 DUP4 ADD DUP5 PUSH2 0x31C5 JUMP JUMPDEST SWAP4 SWAP3 POP POP POP JUMP JUMPDEST PUSH32 0x546F6B656E206973206E6F742061637469766500000000000000000000000000 PUSH0 DUP3 ADD MSTORE POP JUMP JUMPDEST PUSH0 PUSH2 0x3236 PUSH1 0x13 DUP4 PUSH2 0x313A JUMP JUMPDEST SWAP2 POP PUSH2 0x3241 DUP3 PUSH2 0x3202 JUMP JUMPDEST PUSH1 0x20 DUP3 ADD SWAP1 POP SWAP2 SWAP1 POP JUMP JUMPDEST PUSH0 PUSH1 0x20 DUP3 ADD SWAP1 POP DUP2 DUP2 SUB PUSH0 DUP4 ADD MSTORE PUSH2 0x3263 DUP2 PUSH2 0x322A JUMP JUMPDEST SWAP1 POP SWAP2 SWAP1 POP JUMP JUMPDEST PUSH32 0x4E6F7420617574686F72697A6564000000000000000000000000000000000000 PUSH0 DUP3 ADD MSTORE POP JUMP JUMPDEST PUSH0 PUSH2 0x329E PUSH1 0xE DUP4 PUSH2 0x313A JUMP JUMPDEST SWAP2 POP PUSH2 0x32A9 DUP3 PUSH2 0x326A JUMP JUMPDEST PUSH1 0x20 DUP3 ADD SWAP1 POP SWAP2 SWAP1 POP JUMP JUMPDEST PUSH0 PUSH1 0x20 DUP3 ADD SWAP1 POP DUP2 DUP2 SUB PUSH0 DUP4 ADD MSTORE PUSH2 0x32CB DUP2 PUSH2 0x3292 JUMP JUMPDEST SWAP1 POP SWAP2 SWAP1 POP JUMP JUMPDEST PUSH32 0x4D616E6167657220616C72656164792061646465640000000000000000000000 PUSH0 DUP3 ADD MSTORE POP JUMP JUMPDEST PUSH0 PUSH2 0x3306 PUSH1 0x15 DUP4 PUSH2 0x313A JUMP JUMPDEST SWAP2 POP PUSH2 0x3311 DUP3 PUSH2 0x32D2 JUMP JUMPDEST PUSH1 0x20 DUP3 ADD SWAP1 POP SWAP2 SWAP1 POP JUMP JUMPDEST PUSH0 PUSH1 0x20 DUP3 ADD SWAP1 POP DUP2 DUP2 SUB PUSH0 DUP4 ADD MSTORE PUSH2 0x3333 DUP2 PUSH2 0x32FA JUMP JUMPDEST SWAP1 POP SWAP2 SWAP1 POP JUMP JUMPDEST PUSH32 0x546F6B656E206E6F742061637469766500000000000000000000000000000000 PUSH0 DUP3 ADD MSTORE POP JUMP JUMPDEST PUSH0 PUSH2 0x336E PUSH1 0x10 DUP4 PUSH2 0x313A JUMP JUMPDEST SWAP2 POP PUSH2 0x3379 DUP3 PUSH2 0x333A JUMP JUMPDEST PUSH1 0x20 DUP3 ADD SWAP1 POP SWAP2 SWAP1 POP JUMP JUMPDEST PUSH0 PUSH1 0x20 DUP3 ADD SWAP1 POP DUP2 DUP2 SUB PUSH0 DUP4 ADD MSTORE PUSH2 0x339B DUP2 PUSH2 0x3362 JUMP JUMPDEST SWAP1 POP SWAP2 SWAP1 POP JUMP JUMPDEST PUSH32 0x416D6F756E74206D7573742062652067726561746572207468616E207A65726F PUSH0 DUP3 ADD MSTORE POP JUMP JUMPDEST PUSH0 PUSH2 0x33D6 PUSH1 0x20 DUP4 PUSH2 0x313A JUMP JUMPDEST SWAP2 POP PUSH2 0x33E1 DUP3 PUSH2 0x33A2 JUMP JUMPDEST PUSH1 0x20 DUP3 ADD SWAP1 POP SWAP2 SWAP1 POP JUMP JUMPDEST PUSH0 PUSH1 0x20 DUP3 ADD SWAP1 POP DUP2 DUP2 SUB PUSH0 DUP4 ADD MSTORE PUSH2 0x3403 DUP2 PUSH2 0x33CA JUMP JUMPDEST SWAP1 POP SWAP2 SWAP1 POP JUMP JUMPDEST PUSH32 0x5374616B656420616D6F756E74206E6F7420656E6F7567680000000000000000 PUSH0 DUP3 ADD MSTORE POP JUMP JUMPDEST PUSH0 PUSH2 0x343E PUSH1 0x18 DUP4 PUSH2 0x313A JUMP JUMPDEST SWAP2 POP PUSH2 0x3449 DUP3 PUSH2 0x340A JUMP JUMPDEST PUSH1 0x20 DUP3 ADD SWAP1 POP SWAP2 SWAP1 POP JUMP JUMPDEST PUSH0 PUSH1 0x20 DUP3 ADD SWAP1 POP DUP2 DUP2 SUB PUSH0 DUP4 ADD MSTORE PUSH2 0x346B DUP2 PUSH2 0x3432 JUMP JUMPDEST SWAP1 POP SWAP2 SWAP1 POP JUMP JUMPDEST PUSH0 PUSH1 0x40 DUP3 ADD SWAP1 POP PUSH2 0x3485 PUSH0 DUP4 ADD DUP6 PUSH2 0x2F30 JUMP JUMPDEST PUSH2 0x3492 PUSH1 0x20 DUP4 ADD DUP5 PUSH2 0x2E88 JUMP JUMPDEST SWAP4 SWAP3 POP POP POP JUMP JUMPDEST PUSH2 0x34A2 DUP2 PUSH2 0x31BA JUMP JUMPDEST DUP2 EQ PUSH2 0x34AC JUMPI PUSH0 DUP1 REVERT JUMPDEST POP JUMP JUMPDEST PUSH0 DUP2 MLOAD SWAP1 POP PUSH2 0x34BD DUP2 PUSH2 0x3499 JUMP JUMPDEST SWAP3 SWAP2 POP POP JUMP JUMPDEST PUSH0 PUSH1 0x20 DUP3 DUP5 SUB SLT ISZERO PUSH2 0x34D8 JUMPI PUSH2 0x34D7 PUSH2 0x2DDF JUMP JUMPDEST JUMPDEST PUSH0 PUSH2 0x34E5 DUP5 DUP3 DUP6 ADD PUSH2 0x34AF JUMP JUMPDEST SWAP2 POP POP SWAP3 SWAP2 POP POP JUMP JUMPDEST PUSH32 0x5472616E73666572204661696C65640000000000000000000000000000000000 PUSH0 DUP3 ADD MSTORE POP JUMP JUMPDEST PUSH0 PUSH2 0x3522 PUSH1 0xF DUP4 PUSH2 0x313A JUMP JUMPDEST SWAP2 POP PUSH2 0x352D DUP3 PUSH2 0x34EE JUMP JUMPDEST PUSH1 0x20 DUP3 ADD SWAP1 POP SWAP2 SWAP1 POP JUMP JUMPDEST PUSH0 PUSH1 0x20 DUP3 ADD SWAP1 POP DUP2 DUP2 SUB PUSH0 DUP4 ADD MSTORE PUSH2 0x354F DUP2 PUSH2 0x3516 JUMP JUMPDEST SWAP1 POP SWAP2 SWAP1 POP JUMP JUMPDEST PUSH32 0x4D616E61676572206E6F7420666F756E64000000000000000000000000000000 PUSH0 DUP3 ADD MSTORE POP JUMP JUMPDEST PUSH0 PUSH2 0x358A PUSH1 0x11 DUP4 PUSH2 0x313A JUMP JUMPDEST SWAP2 POP PUSH2 0x3595 DUP3 PUSH2 0x3556 JUMP JUMPDEST PUSH1 0x20 DUP3 ADD SWAP1 POP SWAP2 SWAP1 POP JUMP JUMPDEST PUSH0 PUSH1 0x20 DUP3 ADD SWAP1 POP DUP2 DUP2 SUB PUSH0 DUP4 ADD MSTORE PUSH2 0x35B7 DUP2 PUSH2 0x357E JUMP JUMPDEST SWAP1 POP SWAP2 SWAP1 POP JUMP JUMPDEST PUSH0 PUSH1 0x60 DUP3 ADD SWAP1 POP PUSH2 0x35D1 PUSH0 DUP4 ADD DUP7 PUSH2 0x2F30 JUMP JUMPDEST PUSH2 0x35DE PUSH1 0x20 DUP4 ADD DUP6 PUSH2 0x2F30 JUMP JUMPDEST PUSH2 0x35EB PUSH1 0x40 DUP4 ADD DUP5 PUSH2 0x2E88 JUMP JUMPDEST SWAP5 SWAP4 POP POP POP POP JUMP JUMPDEST PUSH32 0x4F776E61626C653A2063616C6C6572206973206E6F7420746865206F776E6572 PUSH0 DUP3 ADD MSTORE POP JUMP JUMPDEST PUSH0 PUSH2 0x3627 PUSH1 0x20 DUP4 PUSH2 0x313A JUMP JUMPDEST SWAP2 POP PUSH2 0x3632 DUP3 PUSH2 0x35F3 JUMP JUMPDEST PUSH1 0x20 DUP3 ADD SWAP1 POP SWAP2 SWAP1 POP JUMP JUMPDEST PUSH0 PUSH1 0x20 DUP3 ADD SWAP1 POP DUP2 DUP2 SUB PUSH0 DUP4 ADD MSTORE PUSH2 0x3654 DUP2 PUSH2 0x361B JUMP JUMPDEST SWAP1 POP SWAP2 SWAP1 POP JUMP JUMPDEST PUSH32 0x546F6B656E20616C726561647920616464656400000000000000000000000000 PUSH0 DUP3 ADD MSTORE POP JUMP JUMPDEST PUSH0 PUSH2 0x368F PUSH1 0x13 DUP4 PUSH2 0x313A JUMP JUMPDEST SWAP2 POP PUSH2 0x369A DUP3 PUSH2 0x365B JUMP JUMPDEST PUSH1 0x20 DUP3 ADD SWAP1 POP SWAP2 SWAP1 POP JUMP JUMPDEST PUSH0 PUSH1 0x20 DUP3 ADD SWAP1 POP DUP2 DUP2 SUB PUSH0 DUP4 ADD MSTORE PUSH2 0x36BC DUP2 PUSH2 0x3683 JUMP JUMPDEST SWAP1 POP SWAP2 SWAP1 POP JUMP JUMPDEST PUSH32 0x4E487B7100000000000000000000000000000000000000000000000000000000 PUSH0 MSTORE PUSH1 0x41 PUSH1 0x4 MSTORE PUSH1 0x24 PUSH0 REVERT JUMPDEST PUSH32 0x4E487B7100000000000000000000000000000000000000000000000000000000 PUSH0 MSTORE PUSH1 0x22 PUSH1 0x4 MSTORE PUSH1 0x24 PUSH0 REVERT JUMPDEST PUSH0 PUSH1 0x2 DUP3 DIV SWAP1 POP PUSH1 0x1 DUP3 AND DUP1 PUSH2 0x3734 JUMPI PUSH1 0x7F DUP3 AND SWAP2 POP JUMPDEST PUSH1 0x20 DUP3 LT DUP2 SUB PUSH2 0x3747 JUMPI PUSH2 0x3746 PUSH2 0x36F0 JUMP JUMPDEST JUMPDEST POP SWAP2 SWAP1 POP JUMP JUMPDEST PUSH0 DUP2 SWAP1 POP DUP2 PUSH0 MSTORE PUSH1 0x20 PUSH0 KECCAK256 SWAP1 POP SWAP2 SWAP1 POP JUMP JUMPDEST PUSH0 PUSH1 0x20 PUSH1 0x1F DUP4 ADD DIV SWAP1 POP SWAP2 SWAP1 POP JUMP JUMPDEST PUSH0 DUP3 DUP3 SHL SWAP1 POP SWAP3 SWAP2 POP POP JUMP JUMPDEST PUSH0 PUSH1 0x8 DUP4 MUL PUSH2 0x37A9 PUSH32 0xFFFFFFFFFFFFFFFFFFFFFFFFFFFFFFFFFFFFFFFFFFFFFFFFFFFFFFFFFFFFFFFF DUP3 PUSH2 0x376E JUMP JUMPDEST PUSH2 0x37B3 DUP7 DUP4 PUSH2 0x376E JUMP JUMPDEST SWAP6 POP DUP1 NOT DUP5 AND SWAP4 POP DUP1 DUP7 AND DUP5 OR SWAP3 POP POP POP SWAP4 SWAP3 POP POP POP JUMP JUMPDEST PUSH0 DUP2 SWAP1 POP SWAP2 SWAP1 POP JUMP JUMPDEST PUSH0 PUSH2 0x37EE PUSH2 0x37E9 PUSH2 0x37E4 DUP5 PUSH2 0x2E7F JUMP JUMPDEST PUSH2 0x37CB JUMP JUMPDEST PUSH2 0x2E7F JUMP JUMPDEST SWAP1 POP SWAP2 SWAP1 POP JUMP JUMPDEST PUSH0 DUP2 SWAP1 POP SWAP2 SWAP1 POP JUMP JUMPDEST PUSH2 0x3807 DUP4 PUSH2 0x37D4 JUMP JUMPDEST PUSH2 0x381B PUSH2 0x3813 DUP3 PUSH2 0x37F5 JUMP JUMPDEST DUP5 DUP5 SLOAD PUSH2 0x377A JUMP JUMPDEST DUP3 SSTORE POP POP POP POP JUMP JUMPDEST PUSH0 SWAP1 JUMP JUMPDEST PUSH2 0x382F PUSH2 0x3823 JUMP JUMPDEST PUSH2 0x383A DUP2 DUP5 DUP5 PUSH2 0x37FE JUMP JUMPDEST POP POP POP JUMP JUMPDEST JUMPDEST DUP2 DUP2 LT ISZERO PUSH2 0x385D JUMPI PUSH2 0x3852 PUSH0 DUP3 PUSH2 0x3827 JUMP JUMPDEST PUSH1 0x1 DUP2 ADD SWAP1 POP PUSH2 0x3840 JUMP JUMPDEST POP POP JUMP JUMPDEST PUSH1 0x1F DUP3 GT ISZERO PUSH2 0x38A2 JUMPI PUSH2 0x3873 DUP2 PUSH2 0x374D JUMP JUMPDEST PUSH2 0x387C DUP5 PUSH2 0x375F JUMP JUMPDEST DUP2 ADD PUSH1 0x20 DUP6 LT ISZERO PUSH2 0x388B JUMPI DUP2 SWAP1 POP JUMPDEST PUSH2 0x389F PUSH2 0x3897 DUP6 PUSH2 0x375F JUMP JUMPDEST DUP4 ADD DUP3 PUSH2 0x383F JUMP JUMPDEST POP POP JUMPDEST POP POP POP JUMP JUMPDEST PUSH0 DUP3 DUP3 SHR SWAP1 POP SWAP3 SWAP2 POP POP JUMP JUMPDEST PUSH0 PUSH2 0x38C2 PUSH0 NOT DUP5 PUSH1 0x8 MUL PUSH2 0x38A7 JUMP JUMPDEST NOT DUP1 DUP4 AND SWAP2 POP POP SWAP3 SWAP2 POP POP JUMP JUMPDEST PUSH0 PUSH2 0x38DA DUP4 DUP4 PUSH2 0x38B3 JUMP JUMPDEST SWAP2 POP DUP3 PUSH1 0x2 MUL DUP3 OR SWAP1 POP SWAP3 SWAP2 POP POP JUMP JUMPDEST PUSH2 0x38F3 DUP3 PUSH2 0x3130 JUMP JUMPDEST PUSH8 0xFFFFFFFFFFFFFFFF DUP2 GT ISZERO PUSH2 0x390C JUMPI PUSH2 0x390B PUSH2 0x36C3 JUMP JUMPDEST JUMPDEST PUSH2 0x3916 DUP3 SLOAD PUSH2 0x371D JUMP JUMPDEST PUSH2 0x3921 DUP3 DUP3 DUP6 PUSH2 0x3861 JUMP JUMPDEST PUSH0 PUSH1 0x20 SWAP1 POP PUSH1 0x1F DUP4 GT PUSH1 0x1 DUP2 EQ PUSH2 0x3952 JUMPI PUSH0 DUP5 ISZERO PUSH2 0x3940 JUMPI DUP3 DUP8 ADD MLOAD SWAP1 POP JUMPDEST PUSH2 0x394A DUP6 DUP3 PUSH2 0x38CF JUMP JUMPDEST DUP7 SSTORE POP PUSH2 0x39B1 JUMP JUMPDEST PUSH1 0x1F NOT DUP5 AND PUSH2 0x3960 DUP7 PUSH2 0x374D JUMP JUMPDEST PUSH0 JUMPDEST DUP3 DUP2 LT ISZERO PUSH2 0x3987 JUMPI DUP5 DUP10 ADD MLOAD DUP3 SSTORE PUSH1 0x1 DUP3 ADD SWAP2 POP PUSH1 0x20 DUP6 ADD SWAP5 POP PUSH1 0x20 DUP2 ADD SWAP1 POP PUSH2 0x3962 JUMP JUMPDEST DUP7 DUP4 LT ISZERO PUSH2 0x39A4 JUMPI DUP5 DUP10 ADD MLOAD PUSH2 0x39A0 PUSH1 0x1F DUP10 AND DUP3 PUSH2 0x38B3 JUMP JUMPDEST DUP4 SSTORE POP JUMPDEST PUSH1 0x1 PUSH1 0x2 DUP9 MUL ADD DUP9 SSTORE POP POP POP JUMPDEST POP POP POP POP POP POP JUMP JUMPDEST PUSH32 0x4E6F207265776172647320746F20636C61696D00000000000000000000000000 PUSH0 DUP3 ADD MSTORE POP JUMP JUMPDEST PUSH0 PUSH2 0x39ED PUSH1 0x13 DUP4 PUSH2 0x313A JUMP JUMPDEST SWAP2 POP PUSH2 0x39F8 DUP3 PUSH2 0x39B9 JUMP JUMPDEST PUSH1 0x20 DUP3 ADD SWAP1 POP SWAP2 SWAP1 POP JUMP JUMPDEST PUSH0 PUSH1 0x20 DUP3 ADD SWAP1 POP DUP2 DUP2 SUB PUSH0 DUP4 ADD MSTORE PUSH2 0x3A1A DUP2 PUSH2 0x39E1 JUMP JUMPDEST SWAP1 POP SWAP2 SWAP1 POP JUMP JUMPDEST PUSH32 0x4E487B7100000000000000000000000000000000000000000000000000000000 PUSH0 MSTORE PUSH1 0x11 PUSH1 0x4 MSTORE PUSH1 0x24 PUSH0 REVERT JUMPDEST PUSH0 PUSH2 0x3A58 DUP3 PUSH2 0x2E7F JUMP JUMPDEST SWAP2 POP PUSH2 0x3A63 DUP4 PUSH2 0x2E7F JUMP JUMPDEST SWAP3 POP DUP3 DUP3 SUB SWAP1 POP DUP2 DUP2 GT ISZERO PUSH2 0x3A7B JUMPI PUSH2 0x3A7A PUSH2 0x3A21 JUMP JUMPDEST JUMPDEST SWAP3 SWAP2 POP POP JUMP JUMPDEST PUSH0 PUSH2 0x3A8B DUP3 PUSH2 0x2E7F JUMP JUMPDEST SWAP2 POP PUSH2 0x3A96 DUP4 PUSH2 0x2E7F JUMP JUMPDEST SWAP3 POP DUP3 DUP3 MUL PUSH2 0x3AA4 DUP2 PUSH2 0x2E7F JUMP JUMPDEST SWAP2 POP DUP3 DUP3 DIV DUP5 EQ DUP4 ISZERO OR PUSH2 0x3ABB JUMPI PUSH2 0x3ABA PUSH2 0x3A21 JUMP JUMPDEST JUMPDEST POP SWAP3 SWAP2 POP POP JUMP JUMPDEST PUSH32 0x4E487B7100000000000000000000000000000000000000000000000000000000 PUSH0 MSTORE PUSH1 0x12 PUSH1 0x4 MSTORE PUSH1 0x24 PUSH0 REVERT JUMPDEST PUSH0 PUSH2 0x3AF9 DUP3 PUSH2 0x2E7F JUMP JUMPDEST SWAP2 POP PUSH2 0x3B04 DUP4 PUSH2 0x2E7F JUMP JUMPDEST SWAP3 POP DUP3 PUSH2 0x3B14 JUMPI PUSH2 0x3B13 PUSH2 0x3AC2 JUMP JUMPDEST JUMPDEST DUP3 DUP3 DIV SWAP1 POP SWAP3 SWAP2 POP POP JUMP JUMPDEST PUSH0 PUSH2 0x3B29 DUP3 PUSH2 0x2E7F JUMP JUMPDEST SWAP2 POP PUSH2 0x3B34 DUP4 PUSH2 0x2E7F JUMP JUMPDEST SWAP3 POP DUP3 DUP3 ADD SWAP1 POP DUP1 DUP3 GT ISZERO PUSH2 0x3B4C JUMPI PUSH2 0x3B4B PUSH2 0x3A21 JUMP JUMPDEST JUMPDEST SWAP3 SWAP2 POP POP JUMP JUMPDEST PUSH32 0x5265656E7472616E637947756172643A207265656E7472616E742063616C6C00 PUSH0 DUP3 ADD MSTORE POP JUMP JUMPDEST PUSH0 PUSH2 0x3B86 PUSH1 0x1F DUP4 PUSH2 0x313A JUMP JUMPDEST SWAP2 POP PUSH2 0x3B91 DUP3 PUSH2 0x3B52 JUMP JUMPDEST PUSH1 0x20 DUP3 ADD SWAP1 POP SWAP2 SWAP1 POP JUMP JUMPDEST PUSH0 PUSH1 0x20 DUP3 ADD SWAP1 POP DUP2 DUP2 SUB PUSH0 DUP4 ADD MSTORE PUSH2 0x3BB3 DUP2 PUSH2 0x3B7A JUMP JUMPDEST SWAP1 POP SWAP2 SWAP1 POP JUMP INVALID LOG2 PUSH5 0x6970667358 0x22 SLT KECCAK256 DUP9 0xDF 0x2B 0xD7 MLOAD PUSH29 0x87840F068C31044A68D0A5CAC766A55D8856B14784D4F5DF8C1064736F PUSH13 0x63430008160033000000000000 "
				},
				"gasEstimates": {
					"creation": {
						"codeDepositCost": "3068800",
						"executionCost": "75542",
						"totalCost": "3144342"
					},
					"external": {
						"REWARD_RATE()": "2515",
						"addManager(address)": "32688",
						"addTokenToWhiteList(address,string)": "infinite",
						"earned(address,address)": "infinite",
						"getMyRole()": "4893",
						"getMyStakedBalance(address)": "5273",
						"getReward(address)": "infinite",
						"getStakedBalanceTokenByAccount(address,address)": "infinite",
						"lastUpdateTime(address)": "2848",
						"removeManager(address)": "32727",
						"removeToken(address)": "32740",
						"rewardPerToken(address)": "infinite",
						"rewardPerTokenStored(address)": "2825",
						"rewards(address,address)": "infinite",
						"setRewardRate(uint256)": "infinite",
						"stake(address,uint256)": "infinite",
						"stakedBalance(address,address)": "infinite",
						"totalStakedTokens(address)": "2846",
						"transferTokens(address,address,uint256)": "infinite",
						"userRewardPerTokenPaid(address,address)": "infinite",
						"whiteListTokenAddresses(uint256)": "4967",
						"whiteListTokens(address)": "infinite",
						"withdrawStakedTokens(address,uint256)": "infinite"
					}
				},
				"methodIdentifiers": {
					"REWARD_RATE()": "5997bb37",
					"addManager(address)": "2d06177a",
					"addTokenToWhiteList(address,string)": "b51d46ea",
					"earned(address,address)": "211dc32d",
					"getMyRole()": "6e3b47fc",
					"getMyStakedBalance(address)": "82be4308",
					"getReward(address)": "c00007b0",
					"getStakedBalanceTokenByAccount(address,address)": "8f926830",
					"lastUpdateTime(address)": "2ce9aead",
					"removeManager(address)": "ac18de43",
					"removeToken(address)": "5fa7b584",
					"rewardPerToken(address)": "f1229777",
					"rewardPerTokenStored(address)": "9ce43f90",
					"rewards(address,address)": "e70b9e27",
					"setRewardRate(uint256)": "9e447fc6",
					"stake(address,uint256)": "adc9772e",
					"stakedBalance(address,address)": "8229084b",
					"totalStakedTokens(address)": "be23b21b",
					"transferTokens(address,address,uint256)": "a64b6e5f",
					"userRewardPerTokenPaid(address,address)": "7035ab98",
					"whiteListTokenAddresses(uint256)": "65c80215",
					"whiteListTokens(address)": "e6e8712d",
					"withdrawStakedTokens(address,uint256)": "9d4b0674"
				}
			},
			"storageLayout": {
				"storage": [
					{
						"astId": 10,
						"contract": "StakingToken.sol:StakingToken",
						"label": "_status",
						"offset": 0,
						"slot": "0",
						"type": "t_uint256"
					},
					{
						"astId": 466,
						"contract": "StakingToken.sol:StakingToken",
						"label": "owner",
						"offset": 0,
						"slot": "1",
						"type": "t_address"
					},
					{
						"astId": 480,
						"contract": "StakingToken.sol:StakingToken",
						"label": "REWARD_RATE",
						"offset": 0,
						"slot": "2",
						"type": "t_uint256"
					},
					{
						"astId": 489,
						"contract": "StakingToken.sol:StakingToken",
						"label": "whiteListTokens",
						"offset": 0,
						"slot": "3",
						"type": "t_mapping(t_address,t_struct(TokenInfo)471_storage)"
					},
					{
						"astId": 492,
						"contract": "StakingToken.sol:StakingToken",
						"label": "whiteListTokenAddresses",
						"offset": 0,
						"slot": "4",
						"type": "t_array(t_address)dyn_storage"
					},
					{
						"astId": 498,
						"contract": "StakingToken.sol:StakingToken",
						"label": "stakedBalance",
						"offset": 0,
						"slot": "5",
						"type": "t_mapping(t_address,t_mapping(t_address,t_uint256))"
					},
					{
						"astId": 504,
						"contract": "StakingToken.sol:StakingToken",
						"label": "rewards",
						"offset": 0,
						"slot": "6",
						"type": "t_mapping(t_address,t_mapping(t_address,t_uint256))"
					},
					{
						"astId": 510,
						"contract": "StakingToken.sol:StakingToken",
						"label": "userRewardPerTokenPaid",
						"offset": 0,
						"slot": "7",
						"type": "t_mapping(t_address,t_mapping(t_address,t_uint256))"
					},
					{
						"astId": 514,
						"contract": "StakingToken.sol:StakingToken",
						"label": "rewardPerTokenStored",
						"offset": 0,
						"slot": "8",
						"type": "t_mapping(t_address,t_uint256)"
					},
					{
						"astId": 518,
						"contract": "StakingToken.sol:StakingToken",
						"label": "lastUpdateTime",
						"offset": 0,
						"slot": "9",
						"type": "t_mapping(t_address,t_uint256)"
					},
					{
						"astId": 522,
						"contract": "StakingToken.sol:StakingToken",
						"label": "totalStakedTokens",
						"offset": 0,
						"slot": "10",
						"type": "t_mapping(t_address,t_uint256)"
					},
					{
						"astId": 586,
						"contract": "StakingToken.sol:StakingToken",
						"label": "managers",
						"offset": 0,
						"slot": "11",
						"type": "t_mapping(t_address,t_bool)"
					}
				],
				"types": {
					"t_address": {
						"encoding": "inplace",
						"label": "address",
						"numberOfBytes": "20"
					},
					"t_array(t_address)dyn_storage": {
						"base": "t_address",
						"encoding": "dynamic_array",
						"label": "address[]",
						"numberOfBytes": "32"
					},
					"t_bool": {
						"encoding": "inplace",
						"label": "bool",
						"numberOfBytes": "1"
					},
					"t_mapping(t_address,t_bool)": {
						"encoding": "mapping",
						"key": "t_address",
						"label": "mapping(address => bool)",
						"numberOfBytes": "32",
						"value": "t_bool"
					},
					"t_mapping(t_address,t_mapping(t_address,t_uint256))": {
						"encoding": "mapping",
						"key": "t_address",
						"label": "mapping(address => mapping(address => uint256))",
						"numberOfBytes": "32",
						"value": "t_mapping(t_address,t_uint256)"
					},
					"t_mapping(t_address,t_struct(TokenInfo)471_storage)": {
						"encoding": "mapping",
						"key": "t_address",
						"label": "mapping(address => struct StakingToken.TokenInfo)",
						"numberOfBytes": "32",
						"value": "t_struct(TokenInfo)471_storage"
					},
					"t_mapping(t_address,t_uint256)": {
						"encoding": "mapping",
						"key": "t_address",
						"label": "mapping(address => uint256)",
						"numberOfBytes": "32",
						"value": "t_uint256"
					},
					"t_string_storage": {
						"encoding": "bytes",
						"label": "string",
						"numberOfBytes": "32"
					},
					"t_struct(TokenInfo)471_storage": {
						"encoding": "inplace",
						"label": "struct StakingToken.TokenInfo",
						"members": [
							{
								"astId": 468,
								"contract": "StakingToken.sol:StakingToken",
								"label": "tokenName",
								"offset": 0,
								"slot": "0",
								"type": "t_string_storage"
							},
							{
								"astId": 470,
								"contract": "StakingToken.sol:StakingToken",
								"label": "isActive",
								"offset": 0,
								"slot": "1",
								"type": "t_bool"
							}
						],
						"numberOfBytes": "64"
					},
					"t_uint256": {
						"encoding": "inplace",
						"label": "uint256",
						"numberOfBytes": "32"
					}
				}
			},
			"userdoc": {
				"kind": "user",
				"methods": {},
				"version": 1
			}
		}
	}
}